{
	"Marketplace_NFT.sol": {
		"PropertyMarketplace": {
			"abi": [
				{
					"inputs": [
						{
							"internalType": "address",
							"name": "_propertyNFT",
							"type": "address"
						},
						{
							"internalType": "address",
							"name": "_idrtToken",
							"type": "address"
						}
					],
					"stateMutability": "nonpayable",
					"type": "constructor"
				},
				{
					"inputs": [
						{
							"internalType": "address",
							"name": "owner",
							"type": "address"
						}
					],
					"name": "OwnableInvalidOwner",
					"type": "error"
				},
				{
					"inputs": [
						{
							"internalType": "address",
							"name": "account",
							"type": "address"
						}
					],
					"name": "OwnableUnauthorizedAccount",
					"type": "error"
				},
				{
					"anonymous": false,
					"inputs": [
						{
							"indexed": false,
							"internalType": "address",
							"name": "developer",
							"type": "address"
						},
						{
							"indexed": false,
							"internalType": "bool",
							"name": "isVerified",
							"type": "bool"
						}
					],
					"name": "DeveloperStatusUpdated",
					"type": "event"
				},
				{
					"anonymous": false,
					"inputs": [
						{
							"indexed": false,
							"internalType": "uint256",
							"name": "newListingFee",
							"type": "uint256"
						},
						{
							"indexed": false,
							"internalType": "uint256",
							"name": "newTransactionFee",
							"type": "uint256"
						}
					],
					"name": "FeesUpdated",
					"type": "event"
				},
				{
					"anonymous": false,
					"inputs": [
						{
							"indexed": true,
							"internalType": "address",
							"name": "previousOwner",
							"type": "address"
						},
						{
							"indexed": true,
							"internalType": "address",
							"name": "newOwner",
							"type": "address"
						}
					],
					"name": "OwnershipTransferStarted",
					"type": "event"
				},
				{
					"anonymous": false,
					"inputs": [
						{
							"indexed": true,
							"internalType": "address",
							"name": "previousOwner",
							"type": "address"
						},
						{
							"indexed": true,
							"internalType": "address",
							"name": "newOwner",
							"type": "address"
						}
					],
					"name": "OwnershipTransferred",
					"type": "event"
				},
				{
					"anonymous": false,
					"inputs": [
						{
							"indexed": true,
							"internalType": "uint256",
							"name": "listingId",
							"type": "uint256"
						},
						{
							"indexed": true,
							"internalType": "address",
							"name": "seller",
							"type": "address"
						},
						{
							"indexed": false,
							"internalType": "uint256",
							"name": "propertyId",
							"type": "uint256"
						},
						{
							"indexed": false,
							"internalType": "uint256",
							"name": "pricePerSquare",
							"type": "uint256"
						},
						{
							"indexed": false,
							"internalType": "uint256",
							"name": "totalArea",
							"type": "uint256"
						}
					],
					"name": "PropertyListed",
					"type": "event"
				},
				{
					"anonymous": false,
					"inputs": [
						{
							"indexed": true,
							"internalType": "uint256",
							"name": "listingId",
							"type": "uint256"
						},
						{
							"indexed": true,
							"internalType": "address",
							"name": "buyer",
							"type": "address"
						},
						{
							"indexed": false,
							"internalType": "uint256",
							"name": "areaPurchased",
							"type": "uint256"
						},
						{
							"indexed": false,
							"internalType": "uint256",
							"name": "totalPrice",
							"type": "uint256"
						},
						{
							"indexed": false,
							"internalType": "uint256",
							"name": "fees",
							"type": "uint256"
						},
						{
							"indexed": false,
							"internalType": "uint256",
							"name": "taxes",
							"type": "uint256"
						},
						{
							"indexed": false,
							"internalType": "uint256",
							"name": "netToSeller",
							"type": "uint256"
						}
					],
					"name": "PropertySold",
					"type": "event"
				},
				{
					"inputs": [],
					"name": "BPHTB_RATE",
					"outputs": [
						{
							"internalType": "uint256",
							"name": "",
							"type": "uint256"
						}
					],
					"stateMutability": "view",
					"type": "function"
				},
				{
					"inputs": [],
					"name": "PPH_RATE",
					"outputs": [
						{
							"internalType": "uint256",
							"name": "",
							"type": "uint256"
						}
					],
					"stateMutability": "view",
					"type": "function"
				},
				{
					"inputs": [],
					"name": "PPN_RATE",
					"outputs": [
						{
							"internalType": "uint256",
							"name": "",
							"type": "uint256"
						}
					],
					"stateMutability": "view",
					"type": "function"
				},
				{
					"inputs": [],
					"name": "acceptOwnership",
					"outputs": [],
					"stateMutability": "nonpayable",
					"type": "function"
				},
				{
					"inputs": [
						{
							"internalType": "uint256",
							"name": "_listingId",
							"type": "uint256"
						},
						{
							"internalType": "uint256",
							"name": "_areaToBuy",
							"type": "uint256"
						}
					],
					"name": "buyProperty",
					"outputs": [],
					"stateMutability": "nonpayable",
					"type": "function"
				},
				{
					"inputs": [
						{
							"internalType": "uint256",
							"name": "_listingId",
							"type": "uint256"
						},
						{
							"internalType": "uint256",
							"name": "_areaToBuy",
							"type": "uint256"
						}
					],
					"name": "calculatePurchaseCost",
					"outputs": [
						{
							"internalType": "uint256",
							"name": "totalPrice",
							"type": "uint256"
						},
						{
							"internalType": "uint256",
							"name": "platformFee",
							"type": "uint256"
						},
						{
							"internalType": "uint256",
							"name": "taxes",
							"type": "uint256"
						},
						{
							"internalType": "uint256",
							"name": "netToSeller",
							"type": "uint256"
						},
						{
							"internalType": "uint256",
							"name": "totalCost",
							"type": "uint256"
						}
					],
					"stateMutability": "view",
					"type": "function"
				},
				{
					"inputs": [],
					"name": "getActiveListings",
					"outputs": [
						{
							"internalType": "uint256[]",
							"name": "",
							"type": "uint256[]"
						}
					],
					"stateMutability": "view",
					"type": "function"
				},
				{
					"inputs": [
						{
							"internalType": "uint256",
							"name": "_listingId",
							"type": "uint256"
						}
					],
					"name": "getListingDetails",
					"outputs": [
						{
							"internalType": "address",
							"name": "seller",
							"type": "address"
						},
						{
							"internalType": "uint256",
							"name": "propertyId",
							"type": "uint256"
						},
						{
							"internalType": "uint256",
							"name": "pricePerSquare",
							"type": "uint256"
						},
						{
							"internalType": "uint256",
							"name": "totalArea",
							"type": "uint256"
						},
						{
							"internalType": "uint256",
							"name": "availableArea",
							"type": "uint256"
						},
						{
							"internalType": "bool",
							"name": "isActive",
							"type": "bool"
						}
					],
					"stateMutability": "view",
					"type": "function"
				},
				{
					"inputs": [],
					"name": "idrtToken",
					"outputs": [
						{
							"internalType": "contract IERC20",
							"name": "",
							"type": "address"
						}
					],
					"stateMutability": "view",
					"type": "function"
				},
				{
					"inputs": [
						{
							"internalType": "uint256",
							"name": "_propertyId",
							"type": "uint256"
						},
						{
							"internalType": "uint256",
							"name": "_pricePerSquare",
							"type": "uint256"
						},
						{
							"internalType": "uint256",
							"name": "_totalArea",
							"type": "uint256"
						}
					],
					"name": "listProperty",
					"outputs": [],
					"stateMutability": "nonpayable",
					"type": "function"
				},
				{
					"inputs": [],
					"name": "listingFeePerSquare",
					"outputs": [
						{
							"internalType": "uint256",
							"name": "",
							"type": "uint256"
						}
					],
					"stateMutability": "view",
					"type": "function"
				},
				{
					"inputs": [],
					"name": "owner",
					"outputs": [
						{
							"internalType": "address",
							"name": "",
							"type": "address"
						}
					],
					"stateMutability": "view",
					"type": "function"
				},
				{
					"inputs": [],
					"name": "pendingOwner",
					"outputs": [
						{
							"internalType": "address",
							"name": "",
							"type": "address"
						}
					],
					"stateMutability": "view",
					"type": "function"
				},
				{
					"inputs": [],
					"name": "propertyNFT",
					"outputs": [
						{
							"internalType": "contract IERC1155",
							"name": "",
							"type": "address"
						}
					],
					"stateMutability": "view",
					"type": "function"
				},
				{
					"inputs": [],
					"name": "renounceOwnership",
					"outputs": [],
					"stateMutability": "nonpayable",
					"type": "function"
				},
				{
					"inputs": [
						{
							"internalType": "address",
							"name": "_developer",
							"type": "address"
						},
						{
							"internalType": "bool",
							"name": "_isVerified",
							"type": "bool"
						}
					],
					"name": "setDeveloperStatus",
					"outputs": [],
					"stateMutability": "nonpayable",
					"type": "function"
				},
				{
					"inputs": [],
					"name": "transactionFeeBPS",
					"outputs": [
						{
							"internalType": "uint256",
							"name": "",
							"type": "uint256"
						}
					],
					"stateMutability": "view",
					"type": "function"
				},
				{
					"inputs": [
						{
							"internalType": "address",
							"name": "newOwner",
							"type": "address"
						}
					],
					"name": "transferOwnership",
					"outputs": [],
					"stateMutability": "nonpayable",
					"type": "function"
				},
				{
					"inputs": [
						{
							"internalType": "uint256",
							"name": "_newListingFee",
							"type": "uint256"
						},
						{
							"internalType": "uint256",
							"name": "_newTransactionFee",
							"type": "uint256"
						}
					],
					"name": "updateFees",
					"outputs": [],
					"stateMutability": "nonpayable",
					"type": "function"
				},
				{
					"inputs": [
						{
							"internalType": "address",
							"name": "_recipient",
							"type": "address"
						}
					],
					"name": "withdrawFees",
					"outputs": [],
					"stateMutability": "nonpayable",
					"type": "function"
				}
			],
			"devdoc": {
				"errors": {
					"OwnableInvalidOwner(address)": [
						{
							"details": "The owner is not a valid owner account. (eg. `address(0)`)"
						}
					],
					"OwnableUnauthorizedAccount(address)": [
						{
							"details": "The caller account is not authorized to perform an operation."
						}
					]
				},
				"kind": "dev",
				"methods": {
					"acceptOwnership()": {
						"details": "The new owner accepts the ownership transfer."
					},
					"buyProperty(uint256,uint256)": {
						"params": {
							"_areaToBuy": "Area to purchase (in m²)",
							"_listingId": "The ID of the listing"
						}
					},
					"listProperty(uint256,uint256,uint256)": {
						"params": {
							"_pricePerSquare": "Price per square meter in IDRT",
							"_propertyId": "The NFT property ID",
							"_totalArea": "Total area to list (in m²)"
						}
					},
					"owner()": {
						"details": "Returns the address of the current owner."
					},
					"pendingOwner()": {
						"details": "Returns the address of the pending owner."
					},
					"renounceOwnership()": {
						"details": "Leaves the contract without owner. It will not be possible to call `onlyOwner` functions. Can only be called by the current owner. NOTE: Renouncing ownership will leave the contract without an owner, thereby disabling any functionality that is only available to the owner."
					},
					"transferOwnership(address)": {
						"details": "Starts the ownership transfer of the contract to a new account. Replaces the pending transfer if there is one. Can only be called by the current owner. Setting `newOwner` to the zero address is allowed; this can be used to cancel an initiated ownership transfer."
					}
				},
				"version": 1
			},
			"evm": {
				"assembly": "    /* \"Marketplace_NFT.sol\":350:9360  contract PropertyMarketplace is Ownable2Step, ReentrancyGuard {... */\n  mstore(0x40, 0xc0)\n    /* \"Marketplace_NFT.sol\":955:967  500 * 10**18 */\n  0x1b1ae4d6e2ef500000\n    /* \"Marketplace_NFT.sol\":918:967  uint256 public listingFeePerSquare = 500 * 10**18 */\n  0x03\n  sstore\n    /* \"Marketplace_NFT.sol\":1028:1031  200 */\n  0xc8\n    /* \"Marketplace_NFT.sol\":993:1031  uint256 public transactionFeeBPS = 200 */\n  0x04\n  sstore\n    /* \"Marketplace_NFT.sol\":2163:2466  constructor(address _propertyNFT, address _idrtToken) Ownable(msg.sender) {... */\n  callvalue\n  dup1\n  iszero\n  tag_1\n  jumpi\n  revert(0x00, 0x00)\ntag_1:\n  pop\n  mload(0x40)\n  sub(codesize, bytecodeSize)\n  dup1\n  bytecodeSize\n  dup4\n  codecopy\n  dup2\n  dup2\n  add\n  0x40\n  mstore\n  dup2\n  add\n  swap1\n  tag_2\n  swap2\n  swap1\n  tag_3\n  jump\t// in\ntag_2:\n    /* \"Marketplace_NFT.sol\":2225:2235  msg.sender */\n  caller\n    /* \"@openzeppelin/contracts/access/Ownable.sol\":1297:1298  0 */\n  0x00\n    /* \"@openzeppelin/contracts/access/Ownable.sol\":1273:1299  initialOwner == address(0) */\n  0xffffffffffffffffffffffffffffffffffffffff\n  and\n    /* \"@openzeppelin/contracts/access/Ownable.sol\":1273:1285  initialOwner */\n  dup2\n    /* \"@openzeppelin/contracts/access/Ownable.sol\":1273:1299  initialOwner == address(0) */\n  0xffffffffffffffffffffffffffffffffffffffff\n  and\n  sub\n    /* \"@openzeppelin/contracts/access/Ownable.sol\":1269:1364  if (initialOwner == address(0)) {... */\n  tag_8\n  jumpi\n    /* \"@openzeppelin/contracts/access/Ownable.sol\":1350:1351  0 */\n  0x00\n    /* \"@openzeppelin/contracts/access/Ownable.sol\":1322:1353  OwnableInvalidOwner(address(0)) */\n  mload(0x40)\n  0x1e4fbdf700000000000000000000000000000000000000000000000000000000\n  dup2\n  mstore\n  0x04\n  add\n  tag_9\n  swap2\n  swap1\n  tag_10\n  jump\t// in\ntag_9:\n  mload(0x40)\n  dup1\n  swap2\n  sub\n  swap1\n  revert\n    /* \"@openzeppelin/contracts/access/Ownable.sol\":1269:1364  if (initialOwner == address(0)) {... */\ntag_8:\n    /* \"@openzeppelin/contracts/access/Ownable.sol\":1373:1405  _transferOwnership(initialOwner) */\n  tag_11\n    /* \"@openzeppelin/contracts/access/Ownable.sol\":1392:1404  initialOwner */\n  dup2\n    /* \"@openzeppelin/contracts/access/Ownable.sol\":1373:1391  _transferOwnership */\n  shl(0x20, tag_12)\n    /* \"@openzeppelin/contracts/access/Ownable.sol\":1373:1405  _transferOwnership(initialOwner) */\n  0x20\n  shr\n  jump\t// in\ntag_11:\n    /* \"@openzeppelin/contracts/access/Ownable.sol\":1225:1412  constructor(address initialOwner) {... */\n  pop\n    /* \"@openzeppelin/contracts/security/ReentrancyGuard.sol\":1716:1717  1 */\n  0x01\n    /* \"@openzeppelin/contracts/security/ReentrancyGuard.sol\":1821:1828  _status */\n  0x02\n    /* \"@openzeppelin/contracts/security/ReentrancyGuard.sol\":1821:1843  _status = _NOT_ENTERED */\n  dup2\n  swap1\n  sstore\n  pop\n    /* \"Marketplace_NFT.sol\":2279:2280  0 */\n  0x00\n    /* \"Marketplace_NFT.sol\":2255:2281  _propertyNFT != address(0) */\n  0xffffffffffffffffffffffffffffffffffffffff\n  and\n    /* \"Marketplace_NFT.sol\":2255:2267  _propertyNFT */\n  dup3\n    /* \"Marketplace_NFT.sol\":2255:2281  _propertyNFT != address(0) */\n  0xffffffffffffffffffffffffffffffffffffffff\n  and\n  sub\n    /* \"Marketplace_NFT.sol\":2247:2305  require(_propertyNFT != address(0), \"Invalid NFT address\") */\n  tag_15\n  jumpi\n  mload(0x40)\n  0x08c379a000000000000000000000000000000000000000000000000000000000\n  dup2\n  mstore\n  0x04\n  add\n  tag_16\n  swap1\n  tag_17\n  jump\t// in\ntag_16:\n  mload(0x40)\n  dup1\n  swap2\n  sub\n  swap1\n  revert\ntag_15:\n    /* \"Marketplace_NFT.sol\":2345:2346  0 */\n  0x00\n    /* \"Marketplace_NFT.sol\":2323:2347  _idrtToken != address(0) */\n  0xffffffffffffffffffffffffffffffffffffffff\n  and\n    /* \"Marketplace_NFT.sol\":2323:2333  _idrtToken */\n  dup2\n    /* \"Marketplace_NFT.sol\":2323:2347  _idrtToken != address(0) */\n  0xffffffffffffffffffffffffffffffffffffffff\n  and\n  sub\n    /* \"Marketplace_NFT.sol\":2315:2373  require(_idrtToken != address(0), \"Invalid token address\") */\n  tag_18\n  jumpi\n  mload(0x40)\n  0x08c379a000000000000000000000000000000000000000000000000000000000\n  dup2\n  mstore\n  0x04\n  add\n  tag_19\n  swap1\n  tag_20\n  jump\t// in\ntag_19:\n  mload(0x40)\n  dup1\n  swap2\n  sub\n  swap1\n  revert\ntag_18:\n    /* \"Marketplace_NFT.sol\":2406:2418  _propertyNFT */\n  dup2\n    /* \"Marketplace_NFT.sol\":2383:2419  propertyNFT = IERC1155(_propertyNFT) */\n  0xffffffffffffffffffffffffffffffffffffffff\n  and\n  0x80\n  dup2\n  0xffffffffffffffffffffffffffffffffffffffff\n  and\n  dup2\n  mstore\n  pop\n  pop\n    /* \"Marketplace_NFT.sol\":2448:2458  _idrtToken */\n  dup1\n    /* \"Marketplace_NFT.sol\":2429:2459  idrtToken = IERC20(_idrtToken) */\n  0xffffffffffffffffffffffffffffffffffffffff\n  and\n  0xa0\n  dup2\n  0xffffffffffffffffffffffffffffffffffffffff\n  and\n  dup2\n  mstore\n  pop\n  pop\n    /* \"Marketplace_NFT.sol\":2163:2466  constructor(address _propertyNFT, address _idrtToken) Ownable(msg.sender) {... */\n  pop\n  pop\n    /* \"Marketplace_NFT.sol\":350:9360  contract PropertyMarketplace is Ownable2Step, ReentrancyGuard {... */\n  jump(tag_21)\n    /* \"@openzeppelin/contracts/access/Ownable2Step.sol\":2011:2164  function _transferOwnership(address newOwner) internal virtual override {... */\ntag_12:\n    /* \"@openzeppelin/contracts/access/Ownable2Step.sol\":2100:2113  _pendingOwner */\n  0x01\n  0x00\n    /* \"@openzeppelin/contracts/access/Ownable2Step.sol\":2093:2113  delete _pendingOwner */\n  0x0100\n  exp\n  dup2\n  sload\n  swap1\n  0xffffffffffffffffffffffffffffffffffffffff\n  mul\n  not\n  and\n  swap1\n  sstore\n    /* \"@openzeppelin/contracts/access/Ownable2Step.sol\":2123:2157  super._transferOwnership(newOwner) */\n  tag_23\n    /* \"@openzeppelin/contracts/access/Ownable2Step.sol\":2148:2156  newOwner */\n  dup2\n    /* \"@openzeppelin/contracts/access/Ownable2Step.sol\":2123:2147  super._transferOwnership */\n  shl(0x20, tag_24)\n    /* \"@openzeppelin/contracts/access/Ownable2Step.sol\":2123:2157  super._transferOwnership(newOwner) */\n  0x20\n  shr\n  jump\t// in\ntag_23:\n    /* \"@openzeppelin/contracts/access/Ownable2Step.sol\":2011:2164  function _transferOwnership(address newOwner) internal virtual override {... */\n  pop\n  jump\t// out\n    /* \"@openzeppelin/contracts/access/Ownable.sol\":2912:3099  function _transferOwnership(address newOwner) internal virtual {... */\ntag_24:\n    /* \"@openzeppelin/contracts/access/Ownable.sol\":2985:3001  address oldOwner */\n  0x00\n    /* \"@openzeppelin/contracts/access/Ownable.sol\":3004:3010  _owner */\n  0x00\n  0x00\n  swap1\n  sload\n  swap1\n  0x0100\n  exp\n  swap1\n  div\n  0xffffffffffffffffffffffffffffffffffffffff\n  and\n    /* \"@openzeppelin/contracts/access/Ownable.sol\":2985:3010  address oldOwner = _owner */\n  swap1\n  pop\n    /* \"@openzeppelin/contracts/access/Ownable.sol\":3029:3037  newOwner */\n  dup2\n    /* \"@openzeppelin/contracts/access/Ownable.sol\":3020:3026  _owner */\n  0x00\n  0x00\n    /* \"@openzeppelin/contracts/access/Ownable.sol\":3020:3037  _owner = newOwner */\n  0x0100\n  exp\n  dup2\n  sload\n  dup2\n  0xffffffffffffffffffffffffffffffffffffffff\n  mul\n  not\n  and\n  swap1\n  dup4\n  0xffffffffffffffffffffffffffffffffffffffff\n  and\n  mul\n  or\n  swap1\n  sstore\n  pop\n    /* \"@openzeppelin/contracts/access/Ownable.sol\":3083:3091  newOwner */\n  dup2\n    /* \"@openzeppelin/contracts/access/Ownable.sol\":3052:3092  OwnershipTransferred(oldOwner, newOwner) */\n  0xffffffffffffffffffffffffffffffffffffffff\n  and\n    /* \"@openzeppelin/contracts/access/Ownable.sol\":3073:3081  oldOwner */\n  dup2\n    /* \"@openzeppelin/contracts/access/Ownable.sol\":3052:3092  OwnershipTransferred(oldOwner, newOwner) */\n  0xffffffffffffffffffffffffffffffffffffffff\n  and\n  0x8be0079c531659141344cd1fd0a4f28419497f9722a3daafe3b4186f6b6457e0\n  mload(0x40)\n  mload(0x40)\n  dup1\n  swap2\n  sub\n  swap1\n  log3\n    /* \"@openzeppelin/contracts/access/Ownable.sol\":2975:3099  {... */\n  pop\n    /* \"@openzeppelin/contracts/access/Ownable.sol\":2912:3099  function _transferOwnership(address newOwner) internal virtual {... */\n  pop\n  jump\t// out\n    /* \"#utility.yul\":88:205   */\ntag_27:\n    /* \"#utility.yul\":197:198   */\n  0x00\n    /* \"#utility.yul\":194:195   */\n  0x00\n    /* \"#utility.yul\":187:199   */\n  revert\n    /* \"#utility.yul\":334:460   */\ntag_29:\n    /* \"#utility.yul\":371:378   */\n  0x00\n    /* \"#utility.yul\":411:453   */\n  0xffffffffffffffffffffffffffffffffffffffff\n    /* \"#utility.yul\":404:409   */\n  dup3\n    /* \"#utility.yul\":400:454   */\n  and\n    /* \"#utility.yul\":389:454   */\n  swap1\n  pop\n    /* \"#utility.yul\":334:460   */\n  swap2\n  swap1\n  pop\n  jump\t// out\n    /* \"#utility.yul\":466:562   */\ntag_30:\n    /* \"#utility.yul\":503:510   */\n  0x00\n    /* \"#utility.yul\":532:556   */\n  tag_45\n    /* \"#utility.yul\":550:555   */\n  dup3\n    /* \"#utility.yul\":532:556   */\n  tag_29\n  jump\t// in\ntag_45:\n    /* \"#utility.yul\":521:556   */\n  swap1\n  pop\n    /* \"#utility.yul\":466:562   */\n  swap2\n  swap1\n  pop\n  jump\t// out\n    /* \"#utility.yul\":568:690   */\ntag_31:\n    /* \"#utility.yul\":641:665   */\n  tag_47\n    /* \"#utility.yul\":659:664   */\n  dup2\n    /* \"#utility.yul\":641:665   */\n  tag_30\n  jump\t// in\ntag_47:\n    /* \"#utility.yul\":634:639   */\n  dup2\n    /* \"#utility.yul\":631:666   */\n  eq\n    /* \"#utility.yul\":621:684   */\n  tag_48\n  jumpi\n    /* \"#utility.yul\":680:681   */\n  0x00\n    /* \"#utility.yul\":677:678   */\n  0x00\n    /* \"#utility.yul\":670:682   */\n  revert\n    /* \"#utility.yul\":621:684   */\ntag_48:\n    /* \"#utility.yul\":568:690   */\n  pop\n  jump\t// out\n    /* \"#utility.yul\":696:839   */\ntag_32:\n    /* \"#utility.yul\":753:758   */\n  0x00\n    /* \"#utility.yul\":784:790   */\n  dup2\n    /* \"#utility.yul\":778:791   */\n  mload\n    /* \"#utility.yul\":769:791   */\n  swap1\n  pop\n    /* \"#utility.yul\":800:833   */\n  tag_50\n    /* \"#utility.yul\":827:832   */\n  dup2\n    /* \"#utility.yul\":800:833   */\n  tag_31\n  jump\t// in\ntag_50:\n    /* \"#utility.yul\":696:839   */\n  swap3\n  swap2\n  pop\n  pop\n  jump\t// out\n    /* \"#utility.yul\":845:1352   */\ntag_3:\n    /* \"#utility.yul\":924:930   */\n  0x00\n    /* \"#utility.yul\":932:938   */\n  0x00\n    /* \"#utility.yul\":981:983   */\n  0x40\n    /* \"#utility.yul\":969:978   */\n  dup4\n    /* \"#utility.yul\":960:967   */\n  dup6\n    /* \"#utility.yul\":956:979   */\n  sub\n    /* \"#utility.yul\":952:984   */\n  slt\n    /* \"#utility.yul\":949:1068   */\n  iszero\n  tag_52\n  jumpi\n    /* \"#utility.yul\":987:1066   */\n  tag_53\n  tag_27\n  jump\t// in\ntag_53:\n    /* \"#utility.yul\":949:1068   */\ntag_52:\n    /* \"#utility.yul\":1107:1108   */\n  0x00\n    /* \"#utility.yul\":1132:1196   */\n  tag_54\n    /* \"#utility.yul\":1188:1195   */\n  dup6\n    /* \"#utility.yul\":1179:1185   */\n  dup3\n    /* \"#utility.yul\":1168:1177   */\n  dup7\n    /* \"#utility.yul\":1164:1186   */\n  add\n    /* \"#utility.yul\":1132:1196   */\n  tag_32\n  jump\t// in\ntag_54:\n    /* \"#utility.yul\":1122:1196   */\n  swap3\n  pop\n    /* \"#utility.yul\":1078:1206   */\n  pop\n    /* \"#utility.yul\":1245:1247   */\n  0x20\n    /* \"#utility.yul\":1271:1335   */\n  tag_55\n    /* \"#utility.yul\":1327:1334   */\n  dup6\n    /* \"#utility.yul\":1318:1324   */\n  dup3\n    /* \"#utility.yul\":1307:1316   */\n  dup7\n    /* \"#utility.yul\":1303:1325   */\n  add\n    /* \"#utility.yul\":1271:1335   */\n  tag_32\n  jump\t// in\ntag_55:\n    /* \"#utility.yul\":1261:1335   */\n  swap2\n  pop\n    /* \"#utility.yul\":1216:1345   */\n  pop\n    /* \"#utility.yul\":845:1352   */\n  swap3\n  pop\n  swap3\n  swap1\n  pop\n  jump\t// out\n    /* \"#utility.yul\":1358:1476   */\ntag_33:\n    /* \"#utility.yul\":1445:1469   */\n  tag_57\n    /* \"#utility.yul\":1463:1468   */\n  dup2\n    /* \"#utility.yul\":1445:1469   */\n  tag_30\n  jump\t// in\ntag_57:\n    /* \"#utility.yul\":1440:1443   */\n  dup3\n    /* \"#utility.yul\":1433:1470   */\n  mstore\n    /* \"#utility.yul\":1358:1476   */\n  pop\n  pop\n  jump\t// out\n    /* \"#utility.yul\":1482:1704   */\ntag_10:\n    /* \"#utility.yul\":1575:1579   */\n  0x00\n    /* \"#utility.yul\":1613:1615   */\n  0x20\n    /* \"#utility.yul\":1602:1611   */\n  dup3\n    /* \"#utility.yul\":1598:1616   */\n  add\n    /* \"#utility.yul\":1590:1616   */\n  swap1\n  pop\n    /* \"#utility.yul\":1626:1697   */\n  tag_59\n    /* \"#utility.yul\":1694:1695   */\n  0x00\n    /* \"#utility.yul\":1683:1692   */\n  dup4\n    /* \"#utility.yul\":1679:1696   */\n  add\n    /* \"#utility.yul\":1670:1676   */\n  dup5\n    /* \"#utility.yul\":1626:1697   */\n  tag_33\n  jump\t// in\ntag_59:\n    /* \"#utility.yul\":1482:1704   */\n  swap3\n  swap2\n  pop\n  pop\n  jump\t// out\n    /* \"#utility.yul\":1710:1879   */\ntag_34:\n    /* \"#utility.yul\":1794:1805   */\n  0x00\n    /* \"#utility.yul\":1828:1834   */\n  dup3\n    /* \"#utility.yul\":1823:1826   */\n  dup3\n    /* \"#utility.yul\":1816:1835   */\n  mstore\n    /* \"#utility.yul\":1868:1872   */\n  0x20\n    /* \"#utility.yul\":1863:1866   */\n  dup3\n    /* \"#utility.yul\":1859:1873   */\n  add\n    /* \"#utility.yul\":1844:1873   */\n  swap1\n  pop\n    /* \"#utility.yul\":1710:1879   */\n  swap3\n  swap2\n  pop\n  pop\n  jump\t// out\n    /* \"#utility.yul\":1885:2054   */\ntag_35:\n    /* \"#utility.yul\":2025:2046   */\n  0x496e76616c6964204e4654206164647265737300000000000000000000000000\n    /* \"#utility.yul\":2021:2022   */\n  0x00\n    /* \"#utility.yul\":2013:2019   */\n  dup3\n    /* \"#utility.yul\":2009:2023   */\n  add\n    /* \"#utility.yul\":2002:2047   */\n  mstore\n    /* \"#utility.yul\":1885:2054   */\n  pop\n  jump\t// out\n    /* \"#utility.yul\":2060:2426   */\ntag_36:\n    /* \"#utility.yul\":2202:2205   */\n  0x00\n    /* \"#utility.yul\":2223:2290   */\n  tag_63\n    /* \"#utility.yul\":2287:2289   */\n  0x13\n    /* \"#utility.yul\":2282:2285   */\n  dup4\n    /* \"#utility.yul\":2223:2290   */\n  tag_34\n  jump\t// in\ntag_63:\n    /* \"#utility.yul\":2216:2290   */\n  swap2\n  pop\n    /* \"#utility.yul\":2299:2392   */\n  tag_64\n    /* \"#utility.yul\":2388:2391   */\n  dup3\n    /* \"#utility.yul\":2299:2392   */\n  tag_35\n  jump\t// in\ntag_64:\n    /* \"#utility.yul\":2417:2419   */\n  0x20\n    /* \"#utility.yul\":2412:2415   */\n  dup3\n    /* \"#utility.yul\":2408:2420   */\n  add\n    /* \"#utility.yul\":2401:2420   */\n  swap1\n  pop\n    /* \"#utility.yul\":2060:2426   */\n  swap2\n  swap1\n  pop\n  jump\t// out\n    /* \"#utility.yul\":2432:2851   */\ntag_17:\n    /* \"#utility.yul\":2598:2602   */\n  0x00\n    /* \"#utility.yul\":2636:2638   */\n  0x20\n    /* \"#utility.yul\":2625:2634   */\n  dup3\n    /* \"#utility.yul\":2621:2639   */\n  add\n    /* \"#utility.yul\":2613:2639   */\n  swap1\n  pop\n    /* \"#utility.yul\":2685:2694   */\n  dup2\n    /* \"#utility.yul\":2679:2683   */\n  dup2\n    /* \"#utility.yul\":2675:2695   */\n  sub\n    /* \"#utility.yul\":2671:2672   */\n  0x00\n    /* \"#utility.yul\":2660:2669   */\n  dup4\n    /* \"#utility.yul\":2656:2673   */\n  add\n    /* \"#utility.yul\":2649:2696   */\n  mstore\n    /* \"#utility.yul\":2713:2844   */\n  tag_66\n    /* \"#utility.yul\":2839:2843   */\n  dup2\n    /* \"#utility.yul\":2713:2844   */\n  tag_36\n  jump\t// in\ntag_66:\n    /* \"#utility.yul\":2705:2844   */\n  swap1\n  pop\n    /* \"#utility.yul\":2432:2851   */\n  swap2\n  swap1\n  pop\n  jump\t// out\n    /* \"#utility.yul\":2857:3028   */\ntag_37:\n    /* \"#utility.yul\":2997:3020   */\n  0x496e76616c696420746f6b656e20616464726573730000000000000000000000\n    /* \"#utility.yul\":2993:2994   */\n  0x00\n    /* \"#utility.yul\":2985:2991   */\n  dup3\n    /* \"#utility.yul\":2981:2995   */\n  add\n    /* \"#utility.yul\":2974:3021   */\n  mstore\n    /* \"#utility.yul\":2857:3028   */\n  pop\n  jump\t// out\n    /* \"#utility.yul\":3034:3400   */\ntag_38:\n    /* \"#utility.yul\":3176:3179   */\n  0x00\n    /* \"#utility.yul\":3197:3264   */\n  tag_69\n    /* \"#utility.yul\":3261:3263   */\n  0x15\n    /* \"#utility.yul\":3256:3259   */\n  dup4\n    /* \"#utility.yul\":3197:3264   */\n  tag_34\n  jump\t// in\ntag_69:\n    /* \"#utility.yul\":3190:3264   */\n  swap2\n  pop\n    /* \"#utility.yul\":3273:3366   */\n  tag_70\n    /* \"#utility.yul\":3362:3365   */\n  dup3\n    /* \"#utility.yul\":3273:3366   */\n  tag_37\n  jump\t// in\ntag_70:\n    /* \"#utility.yul\":3391:3393   */\n  0x20\n    /* \"#utility.yul\":3386:3389   */\n  dup3\n    /* \"#utility.yul\":3382:3394   */\n  add\n    /* \"#utility.yul\":3375:3394   */\n  swap1\n  pop\n    /* \"#utility.yul\":3034:3400   */\n  swap2\n  swap1\n  pop\n  jump\t// out\n    /* \"#utility.yul\":3406:3825   */\ntag_20:\n    /* \"#utility.yul\":3572:3576   */\n  0x00\n    /* \"#utility.yul\":3610:3612   */\n  0x20\n    /* \"#utility.yul\":3599:3608   */\n  dup3\n    /* \"#utility.yul\":3595:3613   */\n  add\n    /* \"#utility.yul\":3587:3613   */\n  swap1\n  pop\n    /* \"#utility.yul\":3659:3668   */\n  dup2\n    /* \"#utility.yul\":3653:3657   */\n  dup2\n    /* \"#utility.yul\":3649:3669   */\n  sub\n    /* \"#utility.yul\":3645:3646   */\n  0x00\n    /* \"#utility.yul\":3634:3643   */\n  dup4\n    /* \"#utility.yul\":3630:3647   */\n  add\n    /* \"#utility.yul\":3623:3670   */\n  mstore\n    /* \"#utility.yul\":3687:3818   */\n  tag_72\n    /* \"#utility.yul\":3813:3817   */\n  dup2\n    /* \"#utility.yul\":3687:3818   */\n  tag_38\n  jump\t// in\ntag_72:\n    /* \"#utility.yul\":3679:3818   */\n  swap1\n  pop\n    /* \"#utility.yul\":3406:3825   */\n  swap2\n  swap1\n  pop\n  jump\t// out\n    /* \"Marketplace_NFT.sol\":350:9360  contract PropertyMarketplace is Ownable2Step, ReentrancyGuard {... */\ntag_21:\n  mload(0x80)\n  mload(0xa0)\n  codecopy(0x00, dataOffset(sub_0), dataSize(sub_0))\n  0x00\n  assignImmutable(\"0xa74fb592771507bca9be674a3a4b5ab3f0e24c4cf64eaec52b09981900ae9bff\")\n  0x00\n  assignImmutable(\"0x44d02ad33862858a413a0e28607630cbcd886a4a66ca16624587ad52887b216c\")\n  return(0x00, dataSize(sub_0))\nstop\n\nsub_0: assembly {\n        /* \"Marketplace_NFT.sol\":350:9360  contract PropertyMarketplace is Ownable2Step, ReentrancyGuard {... */\n      mstore(0x40, 0x80)\n      callvalue\n      dup1\n      iszero\n      tag_1\n      jumpi\n      revert(0x00, 0x00)\n    tag_1:\n      pop\n      jumpi(tag_2, lt(calldatasize, 0x04))\n      shr(0xe0, calldataload(0x00))\n      dup1\n      0x87c35bc0\n      gt\n      tag_23\n      jumpi\n      dup1\n      0xc5c92585\n      gt\n      tag_24\n      jumpi\n      dup1\n      0xc5c92585\n      eq\n      tag_18\n      jumpi\n      dup1\n      0xe30c3978\n      eq\n      tag_19\n      jumpi\n      dup1\n      0xf2fde38b\n      eq\n      tag_20\n      jumpi\n      dup1\n      0xf71b08c2\n      eq\n      tag_21\n      jumpi\n      dup1\n      0xfb05da2e\n      eq\n      tag_22\n      jumpi\n      jump(tag_2)\n    tag_24:\n      dup1\n      0x87c35bc0\n      eq\n      tag_13\n      jumpi\n      dup1\n      0x8cb40010\n      eq\n      tag_14\n      jumpi\n      dup1\n      0x8da5cb5b\n      eq\n      tag_15\n      jumpi\n      dup1\n      0xa772c927\n      eq\n      tag_16\n      jumpi\n      dup1\n      0xab593ff2\n      eq\n      tag_17\n      jumpi\n      jump(tag_2)\n    tag_23:\n      dup1\n      0x52752c47\n      gt\n      tag_25\n      jumpi\n      dup1\n      0x52752c47\n      eq\n      tag_8\n      jumpi\n      dup1\n      0x5a19c201\n      eq\n      tag_9\n      jumpi\n      dup1\n      0x6db79437\n      eq\n      tag_10\n      jumpi\n      dup1\n      0x715018a6\n      eq\n      tag_11\n      jumpi\n      dup1\n      0x79ba5097\n      eq\n      tag_12\n      jumpi\n      jump(tag_2)\n    tag_25:\n      dup1\n      0x033bab25\n      eq\n      tag_3\n      jumpi\n      dup1\n      0x078b9837\n      eq\n      tag_4\n      jumpi\n      dup1\n      0x164e68de\n      eq\n      tag_5\n      jumpi\n      dup1\n      0x37f76838\n      eq\n      tag_6\n      jumpi\n      dup1\n      0x4a213805\n      eq\n      tag_7\n      jumpi\n    tag_2:\n      revert(0x00, 0x00)\n        /* \"Marketplace_NFT.sol\":7266:7871  function calculatePurchaseCost(... */\n    tag_3:\n      tag_26\n      0x04\n      dup1\n      calldatasize\n      sub\n      dup2\n      add\n      swap1\n      tag_27\n      swap2\n      swap1\n      tag_28\n      jump\t// in\n    tag_27:\n      tag_29\n      jump\t// in\n    tag_26:\n      mload(0x40)\n      tag_30\n      swap6\n      swap5\n      swap4\n      swap3\n      swap2\n      swap1\n      tag_31\n      jump\t// in\n    tag_30:\n      mload(0x40)\n      dup1\n      swap2\n      sub\n      swap1\n      return\n        /* \"Marketplace_NFT.sol\":1129:1167  uint256 public constant PPH_RATE = 250 */\n    tag_4:\n      tag_32\n      tag_33\n      jump\t// in\n    tag_32:\n      mload(0x40)\n      tag_34\n      swap2\n      swap1\n      tag_35\n      jump\t// in\n    tag_34:\n      mload(0x40)\n      dup1\n      swap2\n      sub\n      swap1\n      return\n        /* \"Marketplace_NFT.sol\":6360:6545  function withdrawFees(address _recipient) external onlyOwner {... */\n    tag_5:\n      tag_36\n      0x04\n      dup1\n      calldatasize\n      sub\n      dup2\n      add\n      swap1\n      tag_37\n      swap2\n      swap1\n      tag_38\n      jump\t// in\n    tag_37:\n      tag_39\n      jump\t// in\n    tag_36:\n      stop\n        /* \"Marketplace_NFT.sol\":468:505  IERC1155 public immutable propertyNFT */\n    tag_6:\n      tag_40\n      tag_41\n      jump\t// in\n    tag_40:\n      mload(0x40)\n      tag_42\n      swap2\n      swap1\n      tag_43\n      jump\t// in\n    tag_42:\n      mload(0x40)\n      dup1\n      swap2\n      sub\n      swap1\n      return\n        /* \"Marketplace_NFT.sol\":511:544  IERC20 public immutable idrtToken */\n    tag_7:\n      tag_44\n      tag_45\n      jump\t// in\n    tag_44:\n      mload(0x40)\n      tag_46\n      swap2\n      swap1\n      tag_47\n      jump\t// in\n    tag_46:\n      mload(0x40)\n      dup1\n      swap2\n      sub\n      swap1\n      return\n        /* \"Marketplace_NFT.sol\":1069:1109  uint256 public constant BPHTB_RATE = 500 */\n    tag_8:\n      tag_48\n      tag_49\n      jump\t// in\n    tag_48:\n      mload(0x40)\n      tag_50\n      swap2\n      swap1\n      tag_35\n      jump\t// in\n    tag_50:\n      mload(0x40)\n      dup1\n      swap2\n      sub\n      swap1\n      return\n        /* \"Marketplace_NFT.sol\":6123:6354  function setDeveloperStatus(... */\n    tag_9:\n      tag_51\n      0x04\n      dup1\n      calldatasize\n      sub\n      dup2\n      add\n      swap1\n      tag_52\n      swap2\n      swap1\n      tag_53\n      jump\t// in\n    tag_52:\n      tag_54\n      jump\t// in\n    tag_51:\n      stop\n        /* \"Marketplace_NFT.sol\":5771:6117  function updateFees(... */\n    tag_10:\n      tag_55\n      0x04\n      dup1\n      calldatasize\n      sub\n      dup2\n      add\n      swap1\n      tag_56\n      swap2\n      swap1\n      tag_28\n      jump\t// in\n    tag_56:\n      tag_57\n      jump\t// in\n    tag_55:\n      stop\n        /* \"@openzeppelin/contracts/access/Ownable.sol\":2293:2394  function renounceOwnership() public virtual onlyOwner {... */\n    tag_11:\n      tag_58\n      tag_59\n      jump\t// in\n    tag_58:\n      stop\n        /* \"@openzeppelin/contracts/access/Ownable2Step.sol\":2244:2473  function acceptOwnership() public virtual {... */\n    tag_12:\n      tag_60\n      tag_61\n      jump\t// in\n    tag_60:\n      stop\n        /* \"Marketplace_NFT.sol\":6612:6723  function getActiveListings() external view returns (uint256[] memory) {... */\n    tag_13:\n      tag_62\n      tag_63\n      jump\t// in\n    tag_62:\n      mload(0x40)\n      tag_64\n      swap2\n      swap1\n      tag_65\n      jump\t// in\n    tag_64:\n      mload(0x40)\n      dup1\n      swap2\n      sub\n      swap1\n      return\n        /* \"Marketplace_NFT.sol\":2749:4134  function listProperty(... */\n    tag_14:\n      tag_66\n      0x04\n      dup1\n      calldatasize\n      sub\n      dup2\n      add\n      swap1\n      tag_67\n      swap2\n      swap1\n      tag_68\n      jump\t// in\n    tag_67:\n      tag_69\n      jump\t// in\n    tag_66:\n      stop\n        /* \"@openzeppelin/contracts/access/Ownable.sol\":1638:1723  function owner() public view virtual returns (address) {... */\n    tag_15:\n      tag_70\n      tag_71\n      jump\t// in\n    tag_70:\n      mload(0x40)\n      tag_72\n      swap2\n      swap1\n      tag_73\n      jump\t// in\n    tag_72:\n      mload(0x40)\n      dup1\n      swap2\n      sub\n      swap1\n      return\n        /* \"Marketplace_NFT.sol\":4309:5703  function buyProperty(... */\n    tag_16:\n      tag_74\n      0x04\n      dup1\n      calldatasize\n      sub\n      dup2\n      add\n      swap1\n      tag_75\n      swap2\n      swap1\n      tag_28\n      jump\t// in\n    tag_75:\n      tag_76\n      jump\t// in\n    tag_74:\n      stop\n        /* \"Marketplace_NFT.sol\":1191:1230  uint256 public constant PPN_RATE = 1100 */\n    tag_17:\n      tag_77\n      tag_78\n      jump\t// in\n    tag_77:\n      mload(0x40)\n      tag_79\n      swap2\n      swap1\n      tag_35\n      jump\t// in\n    tag_79:\n      mload(0x40)\n      dup1\n      swap2\n      sub\n      swap1\n      return\n        /* \"Marketplace_NFT.sol\":993:1031  uint256 public transactionFeeBPS = 200 */\n    tag_18:\n      tag_80\n      tag_81\n      jump\t// in\n    tag_80:\n      mload(0x40)\n      tag_82\n      swap2\n      swap1\n      tag_35\n      jump\t// in\n    tag_82:\n      mload(0x40)\n      dup1\n      swap2\n      sub\n      swap1\n      return\n        /* \"@openzeppelin/contracts/access/Ownable2Step.sol\":1232:1331  function pendingOwner() public view virtual returns (address) {... */\n    tag_19:\n      tag_83\n      tag_84\n      jump\t// in\n    tag_83:\n      mload(0x40)\n      tag_85\n      swap2\n      swap1\n      tag_73\n      jump\t// in\n    tag_85:\n      mload(0x40)\n      dup1\n      swap2\n      sub\n      swap1\n      return\n        /* \"@openzeppelin/contracts/access/Ownable2Step.sol\":1649:1827  function transferOwnership(address newOwner) public virtual override onlyOwner {... */\n    tag_20:\n      tag_86\n      0x04\n      dup1\n      calldatasize\n      sub\n      dup2\n      add\n      swap1\n      tag_87\n      swap2\n      swap1\n      tag_38\n      jump\t// in\n    tag_87:\n      tag_88\n      jump\t// in\n    tag_86:\n      stop\n        /* \"Marketplace_NFT.sol\":918:967  uint256 public listingFeePerSquare = 500 * 10**18 */\n    tag_21:\n      tag_89\n      tag_90\n      jump\t// in\n    tag_89:\n      mload(0x40)\n      tag_91\n      swap2\n      swap1\n      tag_35\n      jump\t// in\n    tag_91:\n      mload(0x40)\n      dup1\n      swap2\n      sub\n      swap1\n      return\n        /* \"Marketplace_NFT.sol\":6729:7260  function getListingDetails(uint256 _listingId) external view returns (... */\n    tag_22:\n      tag_92\n      0x04\n      dup1\n      calldatasize\n      sub\n      dup2\n      add\n      swap1\n      tag_93\n      swap2\n      swap1\n      tag_94\n      jump\t// in\n    tag_93:\n      tag_95\n      jump\t// in\n    tag_92:\n      mload(0x40)\n      tag_96\n      swap7\n      swap6\n      swap5\n      swap4\n      swap3\n      swap2\n      swap1\n      tag_97\n      jump\t// in\n    tag_96:\n      mload(0x40)\n      dup1\n      swap2\n      sub\n      swap1\n      return\n        /* \"Marketplace_NFT.sol\":7266:7871  function calculatePurchaseCost(... */\n    tag_29:\n        /* \"Marketplace_NFT.sol\":7391:7409  uint256 totalPrice */\n      0x00\n        /* \"Marketplace_NFT.sol\":7419:7438  uint256 platformFee */\n      0x00\n        /* \"Marketplace_NFT.sol\":7448:7461  uint256 taxes */\n      0x00\n        /* \"Marketplace_NFT.sol\":7471:7490  uint256 netToSeller */\n      0x00\n        /* \"Marketplace_NFT.sol\":7500:7517  uint256 totalCost */\n      0x00\n        /* \"Marketplace_NFT.sol\":7534:7564  PropertyListing memory listing */\n      0x00\n        /* \"Marketplace_NFT.sol\":7567:7576  _listings */\n      0x05\n        /* \"Marketplace_NFT.sol\":7567:7588  _listings[_listingId] */\n      0x00\n        /* \"Marketplace_NFT.sol\":7577:7587  _listingId */\n      dup10\n        /* \"Marketplace_NFT.sol\":7567:7588  _listings[_listingId] */\n      dup2\n      mstore\n      0x20\n      add\n      swap1\n      dup2\n      mstore\n      0x20\n      add\n      0x00\n      keccak256\n        /* \"Marketplace_NFT.sol\":7534:7588  PropertyListing memory listing = _listings[_listingId] */\n      mload(0x40)\n      dup1\n      0xc0\n      add\n      0x40\n      mstore\n      swap1\n      dup2\n      0x00\n      dup3\n      add\n      0x00\n      swap1\n      sload\n      swap1\n      0x0100\n      exp\n      swap1\n      div\n      0xffffffffffffffffffffffffffffffffffffffff\n      and\n      0xffffffffffffffffffffffffffffffffffffffff\n      and\n      0xffffffffffffffffffffffffffffffffffffffff\n      and\n      dup2\n      mstore\n      0x20\n      add\n      0x01\n      dup3\n      add\n      sload\n      dup2\n      mstore\n      0x20\n      add\n      0x02\n      dup3\n      add\n      sload\n      dup2\n      mstore\n      0x20\n      add\n      0x03\n      dup3\n      add\n      sload\n      dup2\n      mstore\n      0x20\n      add\n      0x04\n      dup3\n      add\n      sload\n      dup2\n      mstore\n      0x20\n      add\n      0x05\n      dup3\n      add\n      0x00\n      swap1\n      sload\n      swap1\n      0x0100\n      exp\n      swap1\n      div\n      0xff\n      and\n      iszero\n      iszero\n      iszero\n      iszero\n      dup2\n      mstore\n      pop\n      pop\n      swap1\n      pop\n        /* \"Marketplace_NFT.sol\":7606:7613  listing */\n      dup1\n        /* \"Marketplace_NFT.sol\":7606:7622  listing.isActive */\n      0xa0\n      add\n      mload\n        /* \"Marketplace_NFT.sol\":7598:7643  require(listing.isActive, \"Listing inactive\") */\n      tag_99\n      jumpi\n      mload(0x40)\n      0x08c379a000000000000000000000000000000000000000000000000000000000\n      dup2\n      mstore\n      0x04\n      add\n      tag_100\n      swap1\n      tag_101\n      jump\t// in\n    tag_100:\n      mload(0x40)\n      dup1\n      swap2\n      sub\n      swap1\n      revert\n    tag_99:\n        /* \"Marketplace_NFT.sol\":7700:7710  _areaToBuy */\n      dup7\n        /* \"Marketplace_NFT.sol\":7675:7682  listing */\n      dup2\n        /* \"Marketplace_NFT.sol\":7675:7697  listing.pricePerSquare */\n      0x40\n      add\n      mload\n        /* \"Marketplace_NFT.sol\":7675:7710  listing.pricePerSquare * _areaToBuy */\n      tag_102\n      swap2\n      swap1\n      tag_103\n      jump\t// in\n    tag_102:\n        /* \"Marketplace_NFT.sol\":7662:7710  totalPrice = listing.pricePerSquare * _areaToBuy */\n      swap6\n      pop\n        /* \"Marketplace_NFT.sol\":7756:7810  _calculateTransactionCosts(totalPrice, listing.seller) */\n      tag_104\n        /* \"Marketplace_NFT.sol\":7783:7793  totalPrice */\n      dup7\n        /* \"Marketplace_NFT.sol\":7795:7802  listing */\n      dup3\n        /* \"Marketplace_NFT.sol\":7795:7809  listing.seller */\n      0x00\n      add\n      mload\n        /* \"Marketplace_NFT.sol\":7756:7782  _calculateTransactionCosts */\n      tag_105\n        /* \"Marketplace_NFT.sol\":7756:7810  _calculateTransactionCosts(totalPrice, listing.seller) */\n      jump\t// in\n    tag_104:\n        /* \"Marketplace_NFT.sol\":7720:7810  (taxes, platformFee, netToSeller) = _calculateTransactionCosts(totalPrice, listing.seller) */\n      dup1\n      swap6\n      pop\n      dup2\n      swap8\n      pop\n      dup3\n      swap7\n      pop\n      pop\n      pop\n      pop\n        /* \"Marketplace_NFT.sol\":7859:7864  taxes */\n      dup4\n        /* \"Marketplace_NFT.sol\":7845:7856  platformFee */\n      dup6\n        /* \"Marketplace_NFT.sol\":7832:7842  totalPrice */\n      dup8\n        /* \"Marketplace_NFT.sol\":7832:7856  totalPrice + platformFee */\n      tag_106\n      swap2\n      swap1\n      tag_107\n      jump\t// in\n    tag_106:\n        /* \"Marketplace_NFT.sol\":7832:7864  totalPrice + platformFee + taxes */\n      tag_108\n      swap2\n      swap1\n      tag_107\n      jump\t// in\n    tag_108:\n        /* \"Marketplace_NFT.sol\":7820:7864  totalCost = totalPrice + platformFee + taxes */\n      swap2\n      pop\n        /* \"Marketplace_NFT.sol\":7524:7871  {... */\n      pop\n        /* \"Marketplace_NFT.sol\":7266:7871  function calculatePurchaseCost(... */\n      swap3\n      swap6\n      pop\n      swap3\n      swap6\n      swap1\n      swap4\n      pop\n      jump\t// out\n        /* \"Marketplace_NFT.sol\":1129:1167  uint256 public constant PPH_RATE = 250 */\n    tag_33:\n        /* \"Marketplace_NFT.sol\":1164:1167  250 */\n      0xfa\n        /* \"Marketplace_NFT.sol\":1129:1167  uint256 public constant PPH_RATE = 250 */\n      dup2\n      jump\t// out\n        /* \"Marketplace_NFT.sol\":6360:6545  function withdrawFees(address _recipient) external onlyOwner {... */\n    tag_39:\n        /* \"@openzeppelin/contracts/access/Ownable.sol\":1531:1544  _checkOwner() */\n      tag_110\n        /* \"@openzeppelin/contracts/access/Ownable.sol\":1531:1542  _checkOwner */\n      tag_111\n        /* \"@openzeppelin/contracts/access/Ownable.sol\":1531:1544  _checkOwner() */\n      jump\t// in\n    tag_110:\n        /* \"Marketplace_NFT.sol\":6431:6446  uint256 balance */\n      0x00\n        /* \"Marketplace_NFT.sol\":6449:6458  idrtToken */\n      immutable(\"0xa74fb592771507bca9be674a3a4b5ab3f0e24c4cf64eaec52b09981900ae9bff\")\n        /* \"Marketplace_NFT.sol\":6449:6468  idrtToken.balanceOf */\n      0xffffffffffffffffffffffffffffffffffffffff\n      and\n      0x70a08231\n        /* \"Marketplace_NFT.sol\":6477:6481  this */\n      address\n        /* \"Marketplace_NFT.sol\":6449:6483  idrtToken.balanceOf(address(this)) */\n      mload(0x40)\n      dup3\n      0xffffffff\n      and\n      0xe0\n      shl\n      dup2\n      mstore\n      0x04\n      add\n      tag_113\n      swap2\n      swap1\n      tag_73\n      jump\t// in\n    tag_113:\n      0x20\n      mload(0x40)\n      dup1\n      dup4\n      sub\n      dup2\n      dup7\n      gas\n      staticcall\n      iszero\n      dup1\n      iszero\n      tag_115\n      jumpi\n      returndatacopy(0x00, 0x00, returndatasize)\n      revert(0x00, returndatasize)\n    tag_115:\n      pop\n      pop\n      pop\n      pop\n      mload(0x40)\n      returndatasize\n      not(0x1f)\n      0x1f\n      dup3\n      add\n      and\n      dup3\n      add\n      dup1\n      0x40\n      mstore\n      pop\n      dup2\n      add\n      swap1\n      tag_116\n      swap2\n      swap1\n      tag_117\n      jump\t// in\n    tag_116:\n        /* \"Marketplace_NFT.sol\":6431:6483  uint256 balance = idrtToken.balanceOf(address(this)) */\n      swap1\n      pop\n        /* \"Marketplace_NFT.sol\":6493:6538  _safeTransfer(idrtToken, _recipient, balance) */\n      tag_118\n        /* \"Marketplace_NFT.sol\":6507:6516  idrtToken */\n      immutable(\"0xa74fb592771507bca9be674a3a4b5ab3f0e24c4cf64eaec52b09981900ae9bff\")\n        /* \"Marketplace_NFT.sol\":6518:6528  _recipient */\n      dup4\n        /* \"Marketplace_NFT.sol\":6530:6537  balance */\n      dup4\n        /* \"Marketplace_NFT.sol\":6493:6506  _safeTransfer */\n      tag_119\n        /* \"Marketplace_NFT.sol\":6493:6538  _safeTransfer(idrtToken, _recipient, balance) */\n      jump\t// in\n    tag_118:\n        /* \"Marketplace_NFT.sol\":6421:6545  {... */\n      pop\n        /* \"Marketplace_NFT.sol\":6360:6545  function withdrawFees(address _recipient) external onlyOwner {... */\n      pop\n      jump\t// out\n        /* \"Marketplace_NFT.sol\":468:505  IERC1155 public immutable propertyNFT */\n    tag_41:\n      immutable(\"0x44d02ad33862858a413a0e28607630cbcd886a4a66ca16624587ad52887b216c\")\n      dup2\n      jump\t// out\n        /* \"Marketplace_NFT.sol\":511:544  IERC20 public immutable idrtToken */\n    tag_45:\n      immutable(\"0xa74fb592771507bca9be674a3a4b5ab3f0e24c4cf64eaec52b09981900ae9bff\")\n      dup2\n      jump\t// out\n        /* \"Marketplace_NFT.sol\":1069:1109  uint256 public constant BPHTB_RATE = 500 */\n    tag_49:\n        /* \"Marketplace_NFT.sol\":1106:1109  500 */\n      0x01f4\n        /* \"Marketplace_NFT.sol\":1069:1109  uint256 public constant BPHTB_RATE = 500 */\n      dup2\n      jump\t// out\n        /* \"Marketplace_NFT.sol\":6123:6354  function setDeveloperStatus(... */\n    tag_54:\n        /* \"@openzeppelin/contracts/access/Ownable.sol\":1531:1544  _checkOwner() */\n      tag_121\n        /* \"@openzeppelin/contracts/access/Ownable.sol\":1531:1542  _checkOwner */\n      tag_111\n        /* \"@openzeppelin/contracts/access/Ownable.sol\":1531:1544  _checkOwner() */\n      jump\t// in\n    tag_121:\n        /* \"Marketplace_NFT.sol\":6274:6285  _isVerified */\n      dup1\n        /* \"Marketplace_NFT.sol\":6240:6259  _verifiedDevelopers */\n      0x07\n        /* \"Marketplace_NFT.sol\":6240:6271  _verifiedDevelopers[_developer] */\n      0x00\n        /* \"Marketplace_NFT.sol\":6260:6270  _developer */\n      dup5\n        /* \"Marketplace_NFT.sol\":6240:6271  _verifiedDevelopers[_developer] */\n      0xffffffffffffffffffffffffffffffffffffffff\n      and\n      0xffffffffffffffffffffffffffffffffffffffff\n      and\n      dup2\n      mstore\n      0x20\n      add\n      swap1\n      dup2\n      mstore\n      0x20\n      add\n      0x00\n      keccak256\n      0x00\n        /* \"Marketplace_NFT.sol\":6240:6285  _verifiedDevelopers[_developer] = _isVerified */\n      0x0100\n      exp\n      dup2\n      sload\n      dup2\n      0xff\n      mul\n      not\n      and\n      swap1\n      dup4\n      iszero\n      iszero\n      mul\n      or\n      swap1\n      sstore\n      pop\n        /* \"Marketplace_NFT.sol\":6300:6347  DeveloperStatusUpdated(_developer, _isVerified) */\n      0x13223e804b38e2ad53b2cd366f7390d3fbf67b00e52de4c9b096d6143d001469\n        /* \"Marketplace_NFT.sol\":6323:6333  _developer */\n      dup3\n        /* \"Marketplace_NFT.sol\":6335:6346  _isVerified */\n      dup3\n        /* \"Marketplace_NFT.sol\":6300:6347  DeveloperStatusUpdated(_developer, _isVerified) */\n      mload(0x40)\n      tag_123\n      swap3\n      swap2\n      swap1\n      tag_124\n      jump\t// in\n    tag_123:\n      mload(0x40)\n      dup1\n      swap2\n      sub\n      swap1\n      log1\n        /* \"Marketplace_NFT.sol\":6123:6354  function setDeveloperStatus(... */\n      pop\n      pop\n      jump\t// out\n        /* \"Marketplace_NFT.sol\":5771:6117  function updateFees(... */\n    tag_57:\n        /* \"@openzeppelin/contracts/access/Ownable.sol\":1531:1544  _checkOwner() */\n      tag_126\n        /* \"@openzeppelin/contracts/access/Ownable.sol\":1531:1542  _checkOwner */\n      tag_111\n        /* \"@openzeppelin/contracts/access/Ownable.sol\":1531:1544  _checkOwner() */\n      jump\t// in\n    tag_126:\n        /* \"Marketplace_NFT.sol\":5924:5927  500 */\n      0x01f4\n        /* \"Marketplace_NFT.sol\":5902:5920  _newTransactionFee */\n      dup2\n        /* \"Marketplace_NFT.sol\":5902:5927  _newTransactionFee <= 500 */\n      gt\n      iszero\n        /* \"Marketplace_NFT.sol\":5894:5944  require(_newTransactionFee <= 500, \"Fee too high\") */\n      tag_128\n      jumpi\n      mload(0x40)\n      0x08c379a000000000000000000000000000000000000000000000000000000000\n      dup2\n      mstore\n      0x04\n      add\n      tag_129\n      swap1\n      tag_130\n      jump\t// in\n    tag_129:\n      mload(0x40)\n      dup1\n      swap2\n      sub\n      swap1\n      revert\n    tag_128:\n        /* \"Marketplace_NFT.sol\":5986:6000  _newListingFee */\n      dup2\n        /* \"Marketplace_NFT.sol\":5964:5983  listingFeePerSquare */\n      0x03\n        /* \"Marketplace_NFT.sol\":5964:6000  listingFeePerSquare = _newListingFee */\n      dup2\n      swap1\n      sstore\n      pop\n        /* \"Marketplace_NFT.sol\":6030:6048  _newTransactionFee */\n      dup1\n        /* \"Marketplace_NFT.sol\":6010:6027  transactionFeeBPS */\n      0x04\n        /* \"Marketplace_NFT.sol\":6010:6048  transactionFeeBPS = _newTransactionFee */\n      dup2\n      swap1\n      sstore\n      pop\n        /* \"Marketplace_NFT.sol\":6063:6110  FeesUpdated(_newListingFee, _newTransactionFee) */\n      0x5c6323bf1c2d7aaea2c091a4751c1c87af7f2864650c336507a77d0557af37a1\n        /* \"Marketplace_NFT.sol\":6075:6089  _newListingFee */\n      dup3\n        /* \"Marketplace_NFT.sol\":6091:6109  _newTransactionFee */\n      dup3\n        /* \"Marketplace_NFT.sol\":6063:6110  FeesUpdated(_newListingFee, _newTransactionFee) */\n      mload(0x40)\n      tag_131\n      swap3\n      swap2\n      swap1\n      tag_132\n      jump\t// in\n    tag_131:\n      mload(0x40)\n      dup1\n      swap2\n      sub\n      swap1\n      log1\n        /* \"Marketplace_NFT.sol\":5771:6117  function updateFees(... */\n      pop\n      pop\n      jump\t// out\n        /* \"@openzeppelin/contracts/access/Ownable.sol\":2293:2394  function renounceOwnership() public virtual onlyOwner {... */\n    tag_59:\n        /* \"@openzeppelin/contracts/access/Ownable.sol\":1531:1544  _checkOwner() */\n      tag_134\n        /* \"@openzeppelin/contracts/access/Ownable.sol\":1531:1542  _checkOwner */\n      tag_111\n        /* \"@openzeppelin/contracts/access/Ownable.sol\":1531:1544  _checkOwner() */\n      jump\t// in\n    tag_134:\n        /* \"@openzeppelin/contracts/access/Ownable.sol\":2357:2387  _transferOwnership(address(0)) */\n      tag_136\n        /* \"@openzeppelin/contracts/access/Ownable.sol\":2384:2385  0 */\n      0x00\n        /* \"@openzeppelin/contracts/access/Ownable.sol\":2357:2375  _transferOwnership */\n      tag_137\n        /* \"@openzeppelin/contracts/access/Ownable.sol\":2357:2387  _transferOwnership(address(0)) */\n      jump\t// in\n    tag_136:\n        /* \"@openzeppelin/contracts/access/Ownable.sol\":2293:2394  function renounceOwnership() public virtual onlyOwner {... */\n      jump\t// out\n        /* \"@openzeppelin/contracts/access/Ownable2Step.sol\":2244:2473  function acceptOwnership() public virtual {... */\n    tag_61:\n        /* \"@openzeppelin/contracts/access/Ownable2Step.sol\":2296:2310  address sender */\n      0x00\n        /* \"@openzeppelin/contracts/access/Ownable2Step.sol\":2313:2325  _msgSender() */\n      tag_139\n        /* \"@openzeppelin/contracts/access/Ownable2Step.sol\":2313:2323  _msgSender */\n      tag_140\n        /* \"@openzeppelin/contracts/access/Ownable2Step.sol\":2313:2325  _msgSender() */\n      jump\t// in\n    tag_139:\n        /* \"@openzeppelin/contracts/access/Ownable2Step.sol\":2296:2325  address sender = _msgSender() */\n      swap1\n      pop\n        /* \"@openzeppelin/contracts/access/Ownable2Step.sol\":2357:2363  sender */\n      dup1\n        /* \"@openzeppelin/contracts/access/Ownable2Step.sol\":2339:2363  pendingOwner() != sender */\n      0xffffffffffffffffffffffffffffffffffffffff\n      and\n        /* \"@openzeppelin/contracts/access/Ownable2Step.sol\":2339:2353  pendingOwner() */\n      tag_141\n        /* \"@openzeppelin/contracts/access/Ownable2Step.sol\":2339:2351  pendingOwner */\n      tag_84\n        /* \"@openzeppelin/contracts/access/Ownable2Step.sol\":2339:2353  pendingOwner() */\n      jump\t// in\n    tag_141:\n        /* \"@openzeppelin/contracts/access/Ownable2Step.sol\":2339:2363  pendingOwner() != sender */\n      0xffffffffffffffffffffffffffffffffffffffff\n      and\n      eq\n        /* \"@openzeppelin/contracts/access/Ownable2Step.sol\":2335:2431  if (pendingOwner() != sender) {... */\n      tag_142\n      jumpi\n        /* \"@openzeppelin/contracts/access/Ownable2Step.sol\":2413:2419  sender */\n      dup1\n        /* \"@openzeppelin/contracts/access/Ownable2Step.sol\":2386:2420  OwnableUnauthorizedAccount(sender) */\n      mload(0x40)\n      0x118cdaa700000000000000000000000000000000000000000000000000000000\n      dup2\n      mstore\n      0x04\n      add\n      tag_143\n      swap2\n      swap1\n      tag_73\n      jump\t// in\n    tag_143:\n      mload(0x40)\n      dup1\n      swap2\n      sub\n      swap1\n      revert\n        /* \"@openzeppelin/contracts/access/Ownable2Step.sol\":2335:2431  if (pendingOwner() != sender) {... */\n    tag_142:\n        /* \"@openzeppelin/contracts/access/Ownable2Step.sol\":2440:2466  _transferOwnership(sender) */\n      tag_144\n        /* \"@openzeppelin/contracts/access/Ownable2Step.sol\":2459:2465  sender */\n      dup2\n        /* \"@openzeppelin/contracts/access/Ownable2Step.sol\":2440:2458  _transferOwnership */\n      tag_137\n        /* \"@openzeppelin/contracts/access/Ownable2Step.sol\":2440:2466  _transferOwnership(sender) */\n      jump\t// in\n    tag_144:\n        /* \"@openzeppelin/contracts/access/Ownable2Step.sol\":2286:2473  {... */\n      pop\n        /* \"@openzeppelin/contracts/access/Ownable2Step.sol\":2244:2473  function acceptOwnership() public virtual {... */\n      jump\t// out\n        /* \"Marketplace_NFT.sol\":6612:6723  function getActiveListings() external view returns (uint256[] memory) {... */\n    tag_63:\n        /* \"Marketplace_NFT.sol\":6664:6680  uint256[] memory */\n      0x60\n        /* \"Marketplace_NFT.sol\":6699:6716  _activeListingIds */\n      0x06\n        /* \"Marketplace_NFT.sol\":6692:6716  return _activeListingIds */\n      dup1\n      sload\n      dup1\n      0x20\n      mul\n      0x20\n      add\n      mload(0x40)\n      swap1\n      dup2\n      add\n      0x40\n      mstore\n      dup1\n      swap3\n      swap2\n      swap1\n      dup2\n      dup2\n      mstore\n      0x20\n      add\n      dup3\n      dup1\n      sload\n      dup1\n      iszero\n      tag_146\n      jumpi\n      0x20\n      mul\n      dup3\n      add\n      swap2\n      swap1\n      0x00\n      mstore\n      keccak256(0x00, 0x20)\n      swap1\n    tag_147:\n      dup2\n      sload\n      dup2\n      mstore\n      0x20\n      add\n      swap1\n      0x01\n      add\n      swap1\n      dup1\n      dup4\n      gt\n      tag_147\n      jumpi\n    tag_146:\n      pop\n      pop\n      pop\n      pop\n      pop\n      swap1\n      pop\n        /* \"Marketplace_NFT.sol\":6612:6723  function getActiveListings() external view returns (uint256[] memory) {... */\n      swap1\n      jump\t// out\n        /* \"Marketplace_NFT.sol\":2749:4134  function listProperty(... */\n    tag_69:\n        /* \"@openzeppelin/contracts/security/ReentrancyGuard.sol\":2261:2282  _nonReentrantBefore() */\n      tag_149\n        /* \"@openzeppelin/contracts/security/ReentrancyGuard.sol\":2261:2280  _nonReentrantBefore */\n      tag_150\n        /* \"@openzeppelin/contracts/security/ReentrancyGuard.sol\":2261:2282  _nonReentrantBefore() */\n      jump\t// in\n    tag_149:\n        /* \"Marketplace_NFT.sol\":2925:2926  0 */\n      0x00\n        /* \"Marketplace_NFT.sol\":2907:2922  _pricePerSquare */\n      dup3\n        /* \"Marketplace_NFT.sol\":2907:2926  _pricePerSquare > 0 */\n      gt\n        /* \"Marketplace_NFT.sol\":2899:2953  require(_pricePerSquare > 0, \"Price must be positive\") */\n      tag_152\n      jumpi\n      mload(0x40)\n      0x08c379a000000000000000000000000000000000000000000000000000000000\n      dup2\n      mstore\n      0x04\n      add\n      tag_153\n      swap1\n      tag_154\n      jump\t// in\n    tag_153:\n      mload(0x40)\n      dup1\n      swap2\n      sub\n      swap1\n      revert\n    tag_152:\n        /* \"Marketplace_NFT.sol\":2984:2985  0 */\n      0x00\n        /* \"Marketplace_NFT.sol\":2971:2981  _totalArea */\n      dup2\n        /* \"Marketplace_NFT.sol\":2971:2985  _totalArea > 0 */\n      gt\n        /* \"Marketplace_NFT.sol\":2963:3011  require(_totalArea > 0, \"Area must be positive\") */\n      tag_155\n      jumpi\n      mload(0x40)\n      0x08c379a000000000000000000000000000000000000000000000000000000000\n      dup2\n      mstore\n      0x04\n      add\n      tag_156\n      swap1\n      tag_157\n      jump\t// in\n    tag_156:\n      mload(0x40)\n      dup1\n      swap2\n      sub\n      swap1\n      revert\n    tag_155:\n        /* \"Marketplace_NFT.sol\":3092:3102  _totalArea */\n      dup1\n        /* \"Marketplace_NFT.sol\":3042:3053  propertyNFT */\n      immutable(\"0x44d02ad33862858a413a0e28607630cbcd886a4a66ca16624587ad52887b216c\")\n        /* \"Marketplace_NFT.sol\":3042:3063  propertyNFT.balanceOf */\n      0xffffffffffffffffffffffffffffffffffffffff\n      and\n      0xfdd58e\n        /* \"Marketplace_NFT.sol\":3064:3074  msg.sender */\n      caller\n        /* \"Marketplace_NFT.sol\":3076:3087  _propertyId */\n      dup7\n        /* \"Marketplace_NFT.sol\":3042:3088  propertyNFT.balanceOf(msg.sender, _propertyId) */\n      mload(0x40)\n      dup4\n      0xffffffff\n      and\n      0xe0\n      shl\n      dup2\n      mstore\n      0x04\n      add\n      tag_158\n      swap3\n      swap2\n      swap1\n      tag_159\n      jump\t// in\n    tag_158:\n      0x20\n      mload(0x40)\n      dup1\n      dup4\n      sub\n      dup2\n      dup7\n      gas\n      staticcall\n      iszero\n      dup1\n      iszero\n      tag_161\n      jumpi\n      returndatacopy(0x00, 0x00, returndatasize)\n      revert(0x00, returndatasize)\n    tag_161:\n      pop\n      pop\n      pop\n      pop\n      mload(0x40)\n      returndatasize\n      not(0x1f)\n      0x1f\n      dup3\n      add\n      and\n      dup3\n      add\n      dup1\n      0x40\n      mstore\n      pop\n      dup2\n      add\n      swap1\n      tag_162\n      swap2\n      swap1\n      tag_117\n      jump\t// in\n    tag_162:\n        /* \"Marketplace_NFT.sol\":3042:3102  propertyNFT.balanceOf(msg.sender, _propertyId) >= _totalArea */\n      lt\n      iszero\n        /* \"Marketplace_NFT.sol\":3021:3148  require(... */\n      tag_163\n      jumpi\n      mload(0x40)\n      0x08c379a000000000000000000000000000000000000000000000000000000000\n      dup2\n      mstore\n      0x04\n      add\n      tag_164\n      swap1\n      tag_165\n      jump\t// in\n    tag_164:\n      mload(0x40)\n      dup1\n      swap2\n      sub\n      swap1\n      revert\n    tag_163:\n        /* \"Marketplace_NFT.sol\":3205:3228  uint256 totalListingFee */\n      0x00\n        /* \"Marketplace_NFT.sol\":3253:3263  _totalArea */\n      dup2\n        /* \"Marketplace_NFT.sol\":3231:3250  listingFeePerSquare */\n      sload(0x03)\n        /* \"Marketplace_NFT.sol\":3231:3263  listingFeePerSquare * _totalArea */\n      tag_166\n      swap2\n      swap1\n      tag_103\n      jump\t// in\n    tag_166:\n        /* \"Marketplace_NFT.sol\":3205:3263  uint256 totalListingFee = listingFeePerSquare * _totalArea */\n      swap1\n      pop\n        /* \"Marketplace_NFT.sol\":3273:3345  _safeTransferFrom(idrtToken, msg.sender, address(this), totalListingFee) */\n      tag_167\n        /* \"Marketplace_NFT.sol\":3291:3300  idrtToken */\n      immutable(\"0xa74fb592771507bca9be674a3a4b5ab3f0e24c4cf64eaec52b09981900ae9bff\")\n        /* \"Marketplace_NFT.sol\":3302:3312  msg.sender */\n      caller\n        /* \"Marketplace_NFT.sol\":3322:3326  this */\n      address\n        /* \"Marketplace_NFT.sol\":3329:3344  totalListingFee */\n      dup5\n        /* \"Marketplace_NFT.sol\":3273:3290  _safeTransferFrom */\n      tag_168\n        /* \"Marketplace_NFT.sol\":3273:3345  _safeTransferFrom(idrtToken, msg.sender, address(this), totalListingFee) */\n      jump\t// in\n    tag_167:\n        /* \"Marketplace_NFT.sol\":3390:3401  propertyNFT */\n      immutable(\"0x44d02ad33862858a413a0e28607630cbcd886a4a66ca16624587ad52887b216c\")\n        /* \"Marketplace_NFT.sol\":3390:3418  propertyNFT.safeTransferFrom */\n      0xffffffffffffffffffffffffffffffffffffffff\n      and\n      0xf242432a\n        /* \"Marketplace_NFT.sol\":3432:3442  msg.sender */\n      caller\n        /* \"Marketplace_NFT.sol\":3464:3468  this */\n      address\n        /* \"Marketplace_NFT.sol\":3483:3494  _propertyId */\n      dup8\n        /* \"Marketplace_NFT.sol\":3508:3518  _totalArea */\n      dup7\n        /* \"Marketplace_NFT.sol\":3390:3544  propertyNFT.safeTransferFrom(... */\n      mload(0x40)\n      dup6\n      0xffffffff\n      and\n      0xe0\n      shl\n      dup2\n      mstore\n      0x04\n      add\n      tag_169\n      swap5\n      swap4\n      swap3\n      swap2\n      swap1\n      tag_170\n      jump\t// in\n    tag_169:\n      0x00\n      mload(0x40)\n      dup1\n      dup4\n      sub\n      dup2\n      0x00\n      dup8\n      dup1\n      extcodesize\n      iszero\n      dup1\n      iszero\n      tag_171\n      jumpi\n      revert(0x00, 0x00)\n    tag_171:\n      pop\n      gas\n      call\n      iszero\n      dup1\n      iszero\n      tag_173\n      jumpi\n      returndatacopy(0x00, 0x00, returndatasize)\n      revert(0x00, returndatasize)\n    tag_173:\n      pop\n      pop\n      pop\n      pop\n        /* \"Marketplace_NFT.sol\":3581:3598  uint256 listingId */\n      0x00\n        /* \"Marketplace_NFT.sol\":3649:3660  _propertyId */\n      dup5\n        /* \"Marketplace_NFT.sol\":3662:3672  msg.sender */\n      caller\n        /* \"Marketplace_NFT.sol\":3674:3689  block.timestamp */\n      timestamp\n        /* \"Marketplace_NFT.sol\":3691:3701  _totalArea */\n      dup6\n        /* \"Marketplace_NFT.sol\":3632:3702  abi.encodePacked(_propertyId, msg.sender, block.timestamp, _totalArea) */\n      add(0x20, mload(0x40))\n      tag_174\n      swap5\n      swap4\n      swap3\n      swap2\n      swap1\n      tag_175\n      jump\t// in\n    tag_174:\n      mload(0x40)\n      0x20\n      dup2\n      dup4\n      sub\n      sub\n      dup2\n      mstore\n      swap1\n      0x40\n      mstore\n        /* \"Marketplace_NFT.sol\":3622:3703  keccak256(abi.encodePacked(_propertyId, msg.sender, block.timestamp, _totalArea)) */\n      dup1\n      mload\n      swap1\n      0x20\n      add\n      keccak256\n        /* \"Marketplace_NFT.sol\":3601:3713  uint256(... */\n      0x00\n      shr\n        /* \"Marketplace_NFT.sol\":3581:3713  uint256 listingId = uint256(... */\n      swap1\n      pop\n        /* \"Marketplace_NFT.sol\":3746:3989  PropertyListing({... */\n      mload(0x40)\n      dup1\n      0xc0\n      add\n      0x40\n      mstore\n      dup1\n        /* \"Marketplace_NFT.sol\":3784:3794  msg.sender */\n      caller\n        /* \"Marketplace_NFT.sol\":3746:3989  PropertyListing({... */\n      0xffffffffffffffffffffffffffffffffffffffff\n      and\n      dup2\n      mstore\n      0x20\n      add\n        /* \"Marketplace_NFT.sol\":3820:3831  _propertyId */\n      dup7\n        /* \"Marketplace_NFT.sol\":3746:3989  PropertyListing({... */\n      dup2\n      mstore\n      0x20\n      add\n        /* \"Marketplace_NFT.sol\":3861:3876  _pricePerSquare */\n      dup6\n        /* \"Marketplace_NFT.sol\":3746:3989  PropertyListing({... */\n      dup2\n      mstore\n      0x20\n      add\n        /* \"Marketplace_NFT.sol\":3901:3911  _totalArea */\n      dup5\n        /* \"Marketplace_NFT.sol\":3746:3989  PropertyListing({... */\n      dup2\n      mstore\n      0x20\n      add\n        /* \"Marketplace_NFT.sol\":3940:3950  _totalArea */\n      dup5\n        /* \"Marketplace_NFT.sol\":3746:3989  PropertyListing({... */\n      dup2\n      mstore\n      0x20\n      add\n        /* \"Marketplace_NFT.sol\":3974:3978  true */\n      0x01\n        /* \"Marketplace_NFT.sol\":3746:3989  PropertyListing({... */\n      iszero\n      iszero\n      dup2\n      mstore\n      pop\n        /* \"Marketplace_NFT.sol\":3723:3732  _listings */\n      0x05\n        /* \"Marketplace_NFT.sol\":3723:3743  _listings[listingId] */\n      0x00\n        /* \"Marketplace_NFT.sol\":3733:3742  listingId */\n      dup4\n        /* \"Marketplace_NFT.sol\":3723:3743  _listings[listingId] */\n      dup2\n      mstore\n      0x20\n      add\n      swap1\n      dup2\n      mstore\n      0x20\n      add\n      0x00\n      keccak256\n        /* \"Marketplace_NFT.sol\":3723:3989  _listings[listingId] = PropertyListing({... */\n      0x00\n      dup3\n      add\n      mload\n      dup2\n      0x00\n      add\n      exp(0x0100, 0x00)\n      dup2\n      sload\n      dup2\n      0xffffffffffffffffffffffffffffffffffffffff\n      mul\n      not\n      and\n      swap1\n      dup4\n      0xffffffffffffffffffffffffffffffffffffffff\n      and\n      mul\n      or\n      swap1\n      sstore\n      pop\n      0x20\n      dup3\n      add\n      mload\n      dup2\n      0x01\n      add\n      sstore\n      0x40\n      dup3\n      add\n      mload\n      dup2\n      0x02\n      add\n      sstore\n      0x60\n      dup3\n      add\n      mload\n      dup2\n      0x03\n      add\n      sstore\n      0x80\n      dup3\n      add\n      mload\n      dup2\n      0x04\n      add\n      sstore\n      0xa0\n      dup3\n      add\n      mload\n      dup2\n      0x05\n      add\n      exp(0x0100, 0x00)\n      dup2\n      sload\n      dup2\n      0xff\n      mul\n      not\n      and\n      swap1\n      dup4\n      iszero\n      iszero\n      mul\n      or\n      swap1\n      sstore\n      pop\n      swap1\n      pop\n      pop\n        /* \"Marketplace_NFT.sol\":4000:4017  _activeListingIds */\n      0x06\n        /* \"Marketplace_NFT.sol\":4023:4032  listingId */\n      dup2\n        /* \"Marketplace_NFT.sol\":4000:4033  _activeListingIds.push(listingId) */\n      swap1\n      dup1\n      0x01\n      dup2\n      sload\n      add\n      dup1\n      dup3\n      sstore\n      dup1\n      swap2\n      pop\n      pop\n      0x01\n      swap1\n      sub\n      swap1\n      0x00\n      mstore\n      keccak256(0x00, 0x20)\n      add\n      0x00\n      swap1\n      swap2\n      swap1\n      swap2\n      swap1\n      swap2\n      pop\n      sstore\n        /* \"Marketplace_NFT.sol\":4074:4084  msg.sender */\n      caller\n        /* \"Marketplace_NFT.sol\":4048:4127  PropertyListed(listingId, msg.sender, _propertyId, _pricePerSquare, _totalArea) */\n      0xffffffffffffffffffffffffffffffffffffffff\n      and\n        /* \"Marketplace_NFT.sol\":4063:4072  listingId */\n      dup2\n        /* \"Marketplace_NFT.sol\":4048:4127  PropertyListed(listingId, msg.sender, _propertyId, _pricePerSquare, _totalArea) */\n      0xebe5022e5e01629ce50ec667b3f3333ec2ad62233a476b8c78afbc36fd931d74\n        /* \"Marketplace_NFT.sol\":4086:4097  _propertyId */\n      dup8\n        /* \"Marketplace_NFT.sol\":4099:4114  _pricePerSquare */\n      dup8\n        /* \"Marketplace_NFT.sol\":4116:4126  _totalArea */\n      dup8\n        /* \"Marketplace_NFT.sol\":4048:4127  PropertyListed(listingId, msg.sender, _propertyId, _pricePerSquare, _totalArea) */\n      mload(0x40)\n      tag_177\n      swap4\n      swap3\n      swap2\n      swap1\n      tag_178\n      jump\t// in\n    tag_177:\n      mload(0x40)\n      dup1\n      swap2\n      sub\n      swap1\n      log3\n        /* \"Marketplace_NFT.sol\":2889:4134  {... */\n      pop\n      pop\n        /* \"@openzeppelin/contracts/security/ReentrancyGuard.sol\":2303:2323  _nonReentrantAfter() */\n      tag_179\n        /* \"@openzeppelin/contracts/security/ReentrancyGuard.sol\":2303:2321  _nonReentrantAfter */\n      tag_180\n        /* \"@openzeppelin/contracts/security/ReentrancyGuard.sol\":2303:2323  _nonReentrantAfter() */\n      jump\t// in\n    tag_179:\n        /* \"Marketplace_NFT.sol\":2749:4134  function listProperty(... */\n      pop\n      pop\n      pop\n      jump\t// out\n        /* \"@openzeppelin/contracts/access/Ownable.sol\":1638:1723  function owner() public view virtual returns (address) {... */\n    tag_71:\n        /* \"@openzeppelin/contracts/access/Ownable.sol\":1684:1691  address */\n      0x00\n        /* \"@openzeppelin/contracts/access/Ownable.sol\":1710:1716  _owner */\n      0x00\n      0x00\n      swap1\n      sload\n      swap1\n      0x0100\n      exp\n      swap1\n      div\n      0xffffffffffffffffffffffffffffffffffffffff\n      and\n        /* \"@openzeppelin/contracts/access/Ownable.sol\":1703:1716  return _owner */\n      swap1\n      pop\n        /* \"@openzeppelin/contracts/access/Ownable.sol\":1638:1723  function owner() public view virtual returns (address) {... */\n      swap1\n      jump\t// out\n        /* \"Marketplace_NFT.sol\":4309:5703  function buyProperty(... */\n    tag_76:\n        /* \"@openzeppelin/contracts/security/ReentrancyGuard.sol\":2261:2282  _nonReentrantBefore() */\n      tag_183\n        /* \"@openzeppelin/contracts/security/ReentrancyGuard.sol\":2261:2280  _nonReentrantBefore */\n      tag_150\n        /* \"@openzeppelin/contracts/security/ReentrancyGuard.sol\":2261:2282  _nonReentrantBefore() */\n      jump\t// in\n    tag_183:\n        /* \"Marketplace_NFT.sol\":4432:4442  _listingId */\n      dup2\n        /* \"Marketplace_NFT.sol\":2089:2098  _listings */\n      0x05\n        /* \"Marketplace_NFT.sol\":2089:2109  _listings[listingId] */\n      0x00\n        /* \"Marketplace_NFT.sol\":2099:2108  listingId */\n      dup3\n        /* \"Marketplace_NFT.sol\":2089:2109  _listings[listingId] */\n      dup2\n      mstore\n      0x20\n      add\n      swap1\n      dup2\n      mstore\n      0x20\n      add\n      0x00\n      keccak256\n        /* \"Marketplace_NFT.sol\":2089:2118  _listings[listingId].isActive */\n      0x05\n      add\n      0x00\n      swap1\n      sload\n      swap1\n      0x0100\n      exp\n      swap1\n      div\n      0xff\n      and\n        /* \"Marketplace_NFT.sol\":2081:2139  require(_listings[listingId].isActive, \"Listing inactive\") */\n      tag_185\n      jumpi\n      mload(0x40)\n      0x08c379a000000000000000000000000000000000000000000000000000000000\n      dup2\n      mstore\n      0x04\n      add\n      tag_186\n      swap1\n      tag_101\n      jump\t// in\n    tag_186:\n      mload(0x40)\n      dup1\n      swap2\n      sub\n      swap1\n      revert\n    tag_185:\n        /* \"Marketplace_NFT.sol\":4454:4485  PropertyListing storage listing */\n      0x00\n        /* \"Marketplace_NFT.sol\":4488:4497  _listings */\n      0x05\n        /* \"Marketplace_NFT.sol\":4488:4509  _listings[_listingId] */\n      0x00\n        /* \"Marketplace_NFT.sol\":4498:4508  _listingId */\n      dup6\n        /* \"Marketplace_NFT.sol\":4488:4509  _listings[_listingId] */\n      dup2\n      mstore\n      0x20\n      add\n      swap1\n      dup2\n      mstore\n      0x20\n      add\n      0x00\n      keccak256\n        /* \"Marketplace_NFT.sol\":4454:4509  PropertyListing storage listing = _listings[_listingId] */\n      swap1\n      pop\n        /* \"Marketplace_NFT.sol\":4541:4548  listing */\n      dup1\n        /* \"Marketplace_NFT.sol\":4541:4562  listing.availableArea */\n      0x04\n      add\n      sload\n        /* \"Marketplace_NFT.sol\":4527:4537  _areaToBuy */\n      dup4\n        /* \"Marketplace_NFT.sol\":4527:4562  _areaToBuy <= listing.availableArea */\n      gt\n      iszero\n        /* \"Marketplace_NFT.sol\":4519:4592  require(_areaToBuy <= listing.availableArea, \"Area exceeds availability\") */\n      tag_188\n      jumpi\n      mload(0x40)\n      0x08c379a000000000000000000000000000000000000000000000000000000000\n      dup2\n      mstore\n      0x04\n      add\n      tag_189\n      swap1\n      tag_190\n      jump\t// in\n    tag_189:\n      mload(0x40)\n      dup1\n      swap2\n      sub\n      swap1\n      revert\n    tag_188:\n        /* \"Marketplace_NFT.sol\":4630:4648  uint256 totalPrice */\n      0x00\n        /* \"Marketplace_NFT.sol\":4676:4686  _areaToBuy */\n      dup4\n        /* \"Marketplace_NFT.sol\":4651:4658  listing */\n      dup3\n        /* \"Marketplace_NFT.sol\":4651:4673  listing.pricePerSquare */\n      0x02\n      add\n      sload\n        /* \"Marketplace_NFT.sol\":4651:4686  listing.pricePerSquare * _areaToBuy */\n      tag_191\n      swap2\n      swap1\n      tag_103\n      jump\t// in\n    tag_191:\n        /* \"Marketplace_NFT.sol\":4630:4686  uint256 totalPrice = listing.pricePerSquare * _areaToBuy */\n      swap1\n      pop\n        /* \"Marketplace_NFT.sol\":4697:4714  uint256 taxAmount */\n      0x00\n        /* \"Marketplace_NFT.sol\":4716:4733  uint256 feeAmount */\n      0x00\n        /* \"Marketplace_NFT.sol\":4735:4754  uint256 netToSeller */\n      0x00\n        /* \"Marketplace_NFT.sol\":4771:4825  _calculateTransactionCosts(totalPrice, listing.seller) */\n      tag_192\n        /* \"Marketplace_NFT.sol\":4798:4808  totalPrice */\n      dup5\n        /* \"Marketplace_NFT.sol\":4810:4817  listing */\n      dup7\n        /* \"Marketplace_NFT.sol\":4810:4824  listing.seller */\n      0x00\n      add\n      0x00\n      swap1\n      sload\n      swap1\n      0x0100\n      exp\n      swap1\n      div\n      0xffffffffffffffffffffffffffffffffffffffff\n      and\n        /* \"Marketplace_NFT.sol\":4771:4797  _calculateTransactionCosts */\n      tag_105\n        /* \"Marketplace_NFT.sol\":4771:4825  _calculateTransactionCosts(totalPrice, listing.seller) */\n      jump\t// in\n    tag_192:\n        /* \"Marketplace_NFT.sol\":4696:4825  (uint256 taxAmount, uint256 feeAmount, uint256 netToSeller) = ... */\n      swap3\n      pop\n      swap3\n      pop\n      swap3\n      pop\n        /* \"Marketplace_NFT.sol\":4835:4852  uint256 totalCost */\n      0x00\n        /* \"Marketplace_NFT.sol\":4880:4889  taxAmount */\n      dup4\n        /* \"Marketplace_NFT.sol\":4868:4877  feeAmount */\n      dup4\n        /* \"Marketplace_NFT.sol\":4855:4865  totalPrice */\n      dup7\n        /* \"Marketplace_NFT.sol\":4855:4877  totalPrice + feeAmount */\n      tag_193\n      swap2\n      swap1\n      tag_107\n      jump\t// in\n    tag_193:\n        /* \"Marketplace_NFT.sol\":4855:4889  totalPrice + feeAmount + taxAmount */\n      tag_194\n      swap2\n      swap1\n      tag_107\n      jump\t// in\n    tag_194:\n        /* \"Marketplace_NFT.sol\":4835:4889  uint256 totalCost = totalPrice + feeAmount + taxAmount */\n      swap1\n      pop\n        /* \"Marketplace_NFT.sol\":4926:4992  _safeTransferFrom(idrtToken, msg.sender, address(this), totalCost) */\n      tag_195\n        /* \"Marketplace_NFT.sol\":4944:4953  idrtToken */\n      immutable(\"0xa74fb592771507bca9be674a3a4b5ab3f0e24c4cf64eaec52b09981900ae9bff\")\n        /* \"Marketplace_NFT.sol\":4955:4965  msg.sender */\n      caller\n        /* \"Marketplace_NFT.sol\":4975:4979  this */\n      address\n        /* \"Marketplace_NFT.sol\":4982:4991  totalCost */\n      dup5\n        /* \"Marketplace_NFT.sol\":4926:4943  _safeTransferFrom */\n      tag_168\n        /* \"Marketplace_NFT.sol\":4926:4992  _safeTransferFrom(idrtToken, msg.sender, address(this), totalCost) */\n      jump\t// in\n    tag_195:\n        /* \"Marketplace_NFT.sol\":5054:5064  _areaToBuy */\n      dup8\n        /* \"Marketplace_NFT.sol\":5029:5036  listing */\n      dup7\n        /* \"Marketplace_NFT.sol\":5029:5050  listing.availableArea */\n      0x04\n      add\n      0x00\n        /* \"Marketplace_NFT.sol\":5029:5064  listing.availableArea -= _areaToBuy */\n      dup3\n      dup3\n      sload\n      tag_196\n      swap2\n      swap1\n      tag_197\n      jump\t// in\n    tag_196:\n      swap3\n      pop\n      pop\n      dup2\n      swap1\n      sstore\n      pop\n        /* \"Marketplace_NFT.sol\":5103:5104  0 */\n      0x00\n        /* \"Marketplace_NFT.sol\":5078:5085  listing */\n      dup7\n        /* \"Marketplace_NFT.sol\":5078:5099  listing.availableArea */\n      0x04\n      add\n      sload\n        /* \"Marketplace_NFT.sol\":5078:5104  listing.availableArea == 0 */\n      sub\n        /* \"Marketplace_NFT.sol\":5074:5195  if (listing.availableArea == 0) {... */\n      tag_198\n      jumpi\n        /* \"Marketplace_NFT.sol\":5139:5144  false */\n      0x00\n        /* \"Marketplace_NFT.sol\":5120:5127  listing */\n      dup7\n        /* \"Marketplace_NFT.sol\":5120:5136  listing.isActive */\n      0x05\n      add\n      0x00\n        /* \"Marketplace_NFT.sol\":5120:5144  listing.isActive = false */\n      0x0100\n      exp\n      dup2\n      sload\n      dup2\n      0xff\n      mul\n      not\n      and\n      swap1\n      dup4\n      iszero\n      iszero\n      mul\n      or\n      swap1\n      sstore\n      pop\n        /* \"Marketplace_NFT.sol\":5158:5184  _removeListing(_listingId) */\n      tag_199\n        /* \"Marketplace_NFT.sol\":5173:5183  _listingId */\n      dup10\n        /* \"Marketplace_NFT.sol\":5158:5172  _removeListing */\n      tag_200\n        /* \"Marketplace_NFT.sol\":5158:5184  _removeListing(_listingId) */\n      jump\t// in\n    tag_199:\n        /* \"Marketplace_NFT.sol\":5074:5195  if (listing.availableArea == 0) {... */\n    tag_198:\n        /* \"Marketplace_NFT.sol\":5238:5249  propertyNFT */\n      immutable(\"0x44d02ad33862858a413a0e28607630cbcd886a4a66ca16624587ad52887b216c\")\n        /* \"Marketplace_NFT.sol\":5238:5266  propertyNFT.safeTransferFrom */\n      0xffffffffffffffffffffffffffffffffffffffff\n      and\n      0xf242432a\n        /* \"Marketplace_NFT.sol\":5288:5292  this */\n      address\n        /* \"Marketplace_NFT.sol\":5307:5317  msg.sender */\n      caller\n        /* \"Marketplace_NFT.sol\":5331:5338  listing */\n      dup10\n        /* \"Marketplace_NFT.sol\":5331:5349  listing.propertyId */\n      0x01\n      add\n      sload\n        /* \"Marketplace_NFT.sol\":5363:5373  _areaToBuy */\n      dup13\n        /* \"Marketplace_NFT.sol\":5238:5399  propertyNFT.safeTransferFrom(... */\n      mload(0x40)\n      dup6\n      0xffffffff\n      and\n      0xe0\n      shl\n      dup2\n      mstore\n      0x04\n      add\n      tag_201\n      swap5\n      swap4\n      swap3\n      swap2\n      swap1\n      tag_170\n      jump\t// in\n    tag_201:\n      0x00\n      mload(0x40)\n      dup1\n      dup4\n      sub\n      dup2\n      0x00\n      dup8\n      dup1\n      extcodesize\n      iszero\n      dup1\n      iszero\n      tag_202\n      jumpi\n      revert(0x00, 0x00)\n    tag_202:\n      pop\n      gas\n      call\n      iszero\n      dup1\n      iszero\n      tag_204\n      jumpi\n      returndatacopy(0x00, 0x00, returndatasize)\n      revert(0x00, returndatasize)\n    tag_204:\n      pop\n      pop\n      pop\n      pop\n        /* \"Marketplace_NFT.sol\":5438:5491  _safeTransfer(idrtToken, listing.seller, netToSeller) */\n      tag_205\n        /* \"Marketplace_NFT.sol\":5452:5461  idrtToken */\n      immutable(\"0xa74fb592771507bca9be674a3a4b5ab3f0e24c4cf64eaec52b09981900ae9bff\")\n        /* \"Marketplace_NFT.sol\":5463:5470  listing */\n      dup8\n        /* \"Marketplace_NFT.sol\":5463:5477  listing.seller */\n      0x00\n      add\n      0x00\n      swap1\n      sload\n      swap1\n      0x0100\n      exp\n      swap1\n      div\n      0xffffffffffffffffffffffffffffffffffffffff\n      and\n        /* \"Marketplace_NFT.sol\":5479:5490  netToSeller */\n      dup5\n        /* \"Marketplace_NFT.sol\":5438:5451  _safeTransfer */\n      tag_119\n        /* \"Marketplace_NFT.sol\":5438:5491  _safeTransfer(idrtToken, listing.seller, netToSeller) */\n      jump\t// in\n    tag_205:\n        /* \"Marketplace_NFT.sol\":5557:5567  msg.sender */\n      caller\n        /* \"Marketplace_NFT.sol\":5507:5696  PropertySold(... */\n      0xffffffffffffffffffffffffffffffffffffffff\n      and\n        /* \"Marketplace_NFT.sol\":5533:5543  _listingId */\n      dup10\n        /* \"Marketplace_NFT.sol\":5507:5696  PropertySold(... */\n      0xbbc7d6007e204a02e0d5c742381ea5b6b2d01ab4c9c0c1b9afab201f1a3474cb\n        /* \"Marketplace_NFT.sol\":5581:5591  _areaToBuy */\n      dup11\n        /* \"Marketplace_NFT.sol\":5605:5615  totalPrice */\n      dup9\n        /* \"Marketplace_NFT.sol\":5629:5638  feeAmount */\n      dup8\n        /* \"Marketplace_NFT.sol\":5652:5661  taxAmount */\n      dup10\n        /* \"Marketplace_NFT.sol\":5675:5686  netToSeller */\n      dup9\n        /* \"Marketplace_NFT.sol\":5507:5696  PropertySold(... */\n      mload(0x40)\n      tag_206\n      swap6\n      swap5\n      swap4\n      swap3\n      swap2\n      swap1\n      tag_31\n      jump\t// in\n    tag_206:\n      mload(0x40)\n      dup1\n      swap2\n      sub\n      swap1\n      log3\n        /* \"Marketplace_NFT.sol\":4444:5703  {... */\n      pop\n      pop\n      pop\n      pop\n      pop\n      pop\n        /* \"@openzeppelin/contracts/security/ReentrancyGuard.sol\":2292:2293  _ */\n      pop\n        /* \"@openzeppelin/contracts/security/ReentrancyGuard.sol\":2303:2323  _nonReentrantAfter() */\n      tag_207\n        /* \"@openzeppelin/contracts/security/ReentrancyGuard.sol\":2303:2321  _nonReentrantAfter */\n      tag_180\n        /* \"@openzeppelin/contracts/security/ReentrancyGuard.sol\":2303:2323  _nonReentrantAfter() */\n      jump\t// in\n    tag_207:\n        /* \"Marketplace_NFT.sol\":4309:5703  function buyProperty(... */\n      pop\n      pop\n      jump\t// out\n        /* \"Marketplace_NFT.sol\":1191:1230  uint256 public constant PPN_RATE = 1100 */\n    tag_78:\n        /* \"Marketplace_NFT.sol\":1226:1230  1100 */\n      0x044c\n        /* \"Marketplace_NFT.sol\":1191:1230  uint256 public constant PPN_RATE = 1100 */\n      dup2\n      jump\t// out\n        /* \"Marketplace_NFT.sol\":993:1031  uint256 public transactionFeeBPS = 200 */\n    tag_81:\n      sload(0x04)\n      dup2\n      jump\t// out\n        /* \"@openzeppelin/contracts/access/Ownable2Step.sol\":1232:1331  function pendingOwner() public view virtual returns (address) {... */\n    tag_84:\n        /* \"@openzeppelin/contracts/access/Ownable2Step.sol\":1285:1292  address */\n      0x00\n        /* \"@openzeppelin/contracts/access/Ownable2Step.sol\":1311:1324  _pendingOwner */\n      0x01\n      0x00\n      swap1\n      sload\n      swap1\n      0x0100\n      exp\n      swap1\n      div\n      0xffffffffffffffffffffffffffffffffffffffff\n      and\n        /* \"@openzeppelin/contracts/access/Ownable2Step.sol\":1304:1324  return _pendingOwner */\n      swap1\n      pop\n        /* \"@openzeppelin/contracts/access/Ownable2Step.sol\":1232:1331  function pendingOwner() public view virtual returns (address) {... */\n      swap1\n      jump\t// out\n        /* \"@openzeppelin/contracts/access/Ownable2Step.sol\":1649:1827  function transferOwnership(address newOwner) public virtual override onlyOwner {... */\n    tag_88:\n        /* \"@openzeppelin/contracts/access/Ownable.sol\":1531:1544  _checkOwner() */\n      tag_210\n        /* \"@openzeppelin/contracts/access/Ownable.sol\":1531:1542  _checkOwner */\n      tag_111\n        /* \"@openzeppelin/contracts/access/Ownable.sol\":1531:1544  _checkOwner() */\n      jump\t// in\n    tag_210:\n        /* \"@openzeppelin/contracts/access/Ownable2Step.sol\":1754:1762  newOwner */\n      dup1\n        /* \"@openzeppelin/contracts/access/Ownable2Step.sol\":1738:1751  _pendingOwner */\n      0x01\n      0x00\n        /* \"@openzeppelin/contracts/access/Ownable2Step.sol\":1738:1762  _pendingOwner = newOwner */\n      0x0100\n      exp\n      dup2\n      sload\n      dup2\n      0xffffffffffffffffffffffffffffffffffffffff\n      mul\n      not\n      and\n      swap1\n      dup4\n      0xffffffffffffffffffffffffffffffffffffffff\n      and\n      mul\n      or\n      swap1\n      sstore\n      pop\n        /* \"@openzeppelin/contracts/access/Ownable2Step.sol\":1811:1819  newOwner */\n      dup1\n        /* \"@openzeppelin/contracts/access/Ownable2Step.sol\":1777:1820  OwnershipTransferStarted(owner(), newOwner) */\n      0xffffffffffffffffffffffffffffffffffffffff\n      and\n        /* \"@openzeppelin/contracts/access/Ownable2Step.sol\":1802:1809  owner() */\n      tag_212\n        /* \"@openzeppelin/contracts/access/Ownable2Step.sol\":1802:1807  owner */\n      tag_71\n        /* \"@openzeppelin/contracts/access/Ownable2Step.sol\":1802:1809  owner() */\n      jump\t// in\n    tag_212:\n        /* \"@openzeppelin/contracts/access/Ownable2Step.sol\":1777:1820  OwnershipTransferStarted(owner(), newOwner) */\n      0xffffffffffffffffffffffffffffffffffffffff\n      and\n      0x38d16b8cac22d99fc7c124b9cd0de2d3fa1faef420bfe791d8c362d765e22700\n      mload(0x40)\n      mload(0x40)\n      dup1\n      swap2\n      sub\n      swap1\n      log3\n        /* \"@openzeppelin/contracts/access/Ownable2Step.sol\":1649:1827  function transferOwnership(address newOwner) public virtual override onlyOwner {... */\n      pop\n      jump\t// out\n        /* \"Marketplace_NFT.sol\":918:967  uint256 public listingFeePerSquare = 500 * 10**18 */\n    tag_90:\n      sload(0x03)\n      dup2\n      jump\t// out\n        /* \"Marketplace_NFT.sol\":6729:7260  function getListingDetails(uint256 _listingId) external view returns (... */\n    tag_95:\n        /* \"Marketplace_NFT.sol\":6808:6822  address seller */\n      0x00\n        /* \"Marketplace_NFT.sol\":6832:6850  uint256 propertyId */\n      0x00\n        /* \"Marketplace_NFT.sol\":6860:6882  uint256 pricePerSquare */\n      0x00\n        /* \"Marketplace_NFT.sol\":6892:6909  uint256 totalArea */\n      0x00\n        /* \"Marketplace_NFT.sol\":6919:6940  uint256 availableArea */\n      0x00\n        /* \"Marketplace_NFT.sol\":6950:6963  bool isActive */\n      0x00\n        /* \"Marketplace_NFT.sol\":6980:7010  PropertyListing memory listing */\n      0x00\n        /* \"Marketplace_NFT.sol\":7013:7022  _listings */\n      0x05\n        /* \"Marketplace_NFT.sol\":7013:7034  _listings[_listingId] */\n      0x00\n        /* \"Marketplace_NFT.sol\":7023:7033  _listingId */\n      dup10\n        /* \"Marketplace_NFT.sol\":7013:7034  _listings[_listingId] */\n      dup2\n      mstore\n      0x20\n      add\n      swap1\n      dup2\n      mstore\n      0x20\n      add\n      0x00\n      keccak256\n        /* \"Marketplace_NFT.sol\":6980:7034  PropertyListing memory listing = _listings[_listingId] */\n      mload(0x40)\n      dup1\n      0xc0\n      add\n      0x40\n      mstore\n      swap1\n      dup2\n      0x00\n      dup3\n      add\n      0x00\n      swap1\n      sload\n      swap1\n      0x0100\n      exp\n      swap1\n      div\n      0xffffffffffffffffffffffffffffffffffffffff\n      and\n      0xffffffffffffffffffffffffffffffffffffffff\n      and\n      0xffffffffffffffffffffffffffffffffffffffff\n      and\n      dup2\n      mstore\n      0x20\n      add\n      0x01\n      dup3\n      add\n      sload\n      dup2\n      mstore\n      0x20\n      add\n      0x02\n      dup3\n      add\n      sload\n      dup2\n      mstore\n      0x20\n      add\n      0x03\n      dup3\n      add\n      sload\n      dup2\n      mstore\n      0x20\n      add\n      0x04\n      dup3\n      add\n      sload\n      dup2\n      mstore\n      0x20\n      add\n      0x05\n      dup3\n      add\n      0x00\n      swap1\n      sload\n      swap1\n      0x0100\n      exp\n      swap1\n      div\n      0xff\n      and\n      iszero\n      iszero\n      iszero\n      iszero\n      dup2\n      mstore\n      pop\n      pop\n      swap1\n      pop\n        /* \"Marketplace_NFT.sol\":7065:7072  listing */\n      dup1\n        /* \"Marketplace_NFT.sol\":7065:7079  listing.seller */\n      0x00\n      add\n      mload\n        /* \"Marketplace_NFT.sol\":7093:7100  listing */\n      dup2\n        /* \"Marketplace_NFT.sol\":7093:7111  listing.propertyId */\n      0x20\n      add\n      mload\n        /* \"Marketplace_NFT.sol\":7125:7132  listing */\n      dup3\n        /* \"Marketplace_NFT.sol\":7125:7147  listing.pricePerSquare */\n      0x40\n      add\n      mload\n        /* \"Marketplace_NFT.sol\":7161:7168  listing */\n      dup4\n        /* \"Marketplace_NFT.sol\":7161:7178  listing.totalArea */\n      0x60\n      add\n      mload\n        /* \"Marketplace_NFT.sol\":7192:7199  listing */\n      dup5\n        /* \"Marketplace_NFT.sol\":7192:7213  listing.availableArea */\n      0x80\n      add\n      mload\n        /* \"Marketplace_NFT.sol\":7227:7234  listing */\n      dup6\n        /* \"Marketplace_NFT.sol\":7227:7243  listing.isActive */\n      0xa0\n      add\n      mload\n        /* \"Marketplace_NFT.sol\":7044:7253  return (... */\n      swap7\n      pop\n      swap7\n      pop\n      swap7\n      pop\n      swap7\n      pop\n      swap7\n      pop\n      swap7\n      pop\n      pop\n        /* \"Marketplace_NFT.sol\":6729:7260  function getListingDetails(uint256 _listingId) external view returns (... */\n      swap2\n      swap4\n      swap6\n      pop\n      swap2\n      swap4\n      swap6\n      jump\t// out\n        /* \"Marketplace_NFT.sol\":7942:8599  function _calculateTransactionCosts(... */\n    tag_105:\n        /* \"Marketplace_NFT.sol\":8070:8087  uint256 taxAmount */\n      0x00\n        /* \"Marketplace_NFT.sol\":8097:8114  uint256 feeAmount */\n      0x00\n        /* \"Marketplace_NFT.sol\":8124:8143  uint256 netToSeller */\n      0x00\n        /* \"Marketplace_NFT.sol\":8232:8238  10_000 */\n      0x2710\n        /* \"Marketplace_NFT.sol\":8211:8228  transactionFeeBPS */\n      sload(0x04)\n        /* \"Marketplace_NFT.sol\":8197:8208  _totalPrice */\n      dup7\n        /* \"Marketplace_NFT.sol\":8197:8228  _totalPrice * transactionFeeBPS */\n      tag_215\n      swap2\n      swap1\n      tag_103\n      jump\t// in\n    tag_215:\n        /* \"Marketplace_NFT.sol\":8196:8238  (_totalPrice * transactionFeeBPS) / 10_000 */\n      tag_216\n      swap2\n      swap1\n      tag_217\n      jump\t// in\n    tag_216:\n        /* \"Marketplace_NFT.sol\":8184:8238  feeAmount = (_totalPrice * transactionFeeBPS) / 10_000 */\n      swap2\n      pop\n        /* \"Marketplace_NFT.sol\":8342:8348  10_000 */\n      0x2710\n        /* \"Marketplace_NFT.sol\":1164:1167  250 */\n      0xfa\n        /* \"Marketplace_NFT.sol\":1106:1109  500 */\n      0x01f4\n        /* \"Marketplace_NFT.sol\":8316:8337  BPHTB_RATE + PPH_RATE */\n      tag_218\n      swap2\n      swap1\n      tag_107\n      jump\t// in\n    tag_218:\n        /* \"Marketplace_NFT.sol\":8301:8312  _totalPrice */\n      dup7\n        /* \"Marketplace_NFT.sol\":8301:8338  _totalPrice * (BPHTB_RATE + PPH_RATE) */\n      tag_219\n      swap2\n      swap1\n      tag_103\n      jump\t// in\n    tag_219:\n        /* \"Marketplace_NFT.sol\":8300:8348  (_totalPrice * (BPHTB_RATE + PPH_RATE)) / 10_000 */\n      tag_220\n      swap2\n      swap1\n      tag_217\n      jump\t// in\n    tag_220:\n        /* \"Marketplace_NFT.sol\":8288:8348  taxAmount = (_totalPrice * (BPHTB_RATE + PPH_RATE)) / 10_000 */\n      swap3\n      pop\n        /* \"Marketplace_NFT.sol\":8424:8443  _verifiedDevelopers */\n      0x07\n        /* \"Marketplace_NFT.sol\":8424:8452  _verifiedDevelopers[_seller] */\n      0x00\n        /* \"Marketplace_NFT.sol\":8444:8451  _seller */\n      dup6\n        /* \"Marketplace_NFT.sol\":8424:8452  _verifiedDevelopers[_seller] */\n      0xffffffffffffffffffffffffffffffffffffffff\n      and\n      0xffffffffffffffffffffffffffffffffffffffff\n      and\n      dup2\n      mstore\n      0x20\n      add\n      swap1\n      dup2\n      mstore\n      0x20\n      add\n      0x00\n      keccak256\n      0x00\n      swap1\n      sload\n      swap1\n      0x0100\n      exp\n      swap1\n      div\n      0xff\n      and\n        /* \"Marketplace_NFT.sol\":8420:8525  if (_verifiedDevelopers[_seller]) {... */\n      iszero\n      tag_221\n      jumpi\n        /* \"Marketplace_NFT.sol\":8508:8514  10_000 */\n      0x2710\n        /* \"Marketplace_NFT.sol\":1226:1230  1100 */\n      0x044c\n        /* \"Marketplace_NFT.sol\":8482:8493  _totalPrice */\n      dup7\n        /* \"Marketplace_NFT.sol\":8482:8504  _totalPrice * PPN_RATE */\n      tag_222\n      swap2\n      swap1\n      tag_103\n      jump\t// in\n    tag_222:\n        /* \"Marketplace_NFT.sol\":8481:8514  (_totalPrice * PPN_RATE) / 10_000 */\n      tag_223\n      swap2\n      swap1\n      tag_217\n      jump\t// in\n    tag_223:\n        /* \"Marketplace_NFT.sol\":8468:8514  taxAmount += (_totalPrice * PPN_RATE) / 10_000 */\n      dup4\n      tag_224\n      swap2\n      swap1\n      tag_107\n      jump\t// in\n    tag_224:\n      swap3\n      pop\n        /* \"Marketplace_NFT.sol\":8420:8525  if (_verifiedDevelopers[_seller]) {... */\n    tag_221:\n        /* \"Marketplace_NFT.sol\":8583:8592  taxAmount */\n      dup3\n        /* \"Marketplace_NFT.sol\":8571:8580  feeAmount */\n      dup3\n        /* \"Marketplace_NFT.sol\":8557:8568  _totalPrice */\n      dup7\n        /* \"Marketplace_NFT.sol\":8557:8580  _totalPrice - feeAmount */\n      tag_225\n      swap2\n      swap1\n      tag_197\n      jump\t// in\n    tag_225:\n        /* \"Marketplace_NFT.sol\":8557:8592  _totalPrice - feeAmount - taxAmount */\n      tag_226\n      swap2\n      swap1\n      tag_197\n      jump\t// in\n    tag_226:\n        /* \"Marketplace_NFT.sol\":8543:8592  netToSeller = _totalPrice - feeAmount - taxAmount */\n      swap1\n      pop\n        /* \"Marketplace_NFT.sol\":7942:8599  function _calculateTransactionCosts(... */\n      swap3\n      pop\n      swap3\n      pop\n      swap3\n      jump\t// out\n        /* \"@openzeppelin/contracts/access/Ownable.sol\":1796:1958  function _checkOwner() internal view virtual {... */\n    tag_111:\n        /* \"@openzeppelin/contracts/access/Ownable.sol\":1866:1878  _msgSender() */\n      tag_228\n        /* \"@openzeppelin/contracts/access/Ownable.sol\":1866:1876  _msgSender */\n      tag_140\n        /* \"@openzeppelin/contracts/access/Ownable.sol\":1866:1878  _msgSender() */\n      jump\t// in\n    tag_228:\n        /* \"@openzeppelin/contracts/access/Ownable.sol\":1855:1878  owner() != _msgSender() */\n      0xffffffffffffffffffffffffffffffffffffffff\n      and\n        /* \"@openzeppelin/contracts/access/Ownable.sol\":1855:1862  owner() */\n      tag_229\n        /* \"@openzeppelin/contracts/access/Ownable.sol\":1855:1860  owner */\n      tag_71\n        /* \"@openzeppelin/contracts/access/Ownable.sol\":1855:1862  owner() */\n      jump\t// in\n    tag_229:\n        /* \"@openzeppelin/contracts/access/Ownable.sol\":1855:1878  owner() != _msgSender() */\n      0xffffffffffffffffffffffffffffffffffffffff\n      and\n      eq\n        /* \"@openzeppelin/contracts/access/Ownable.sol\":1851:1952  if (owner() != _msgSender()) {... */\n      tag_230\n      jumpi\n        /* \"@openzeppelin/contracts/access/Ownable.sol\":1928:1940  _msgSender() */\n      tag_231\n        /* \"@openzeppelin/contracts/access/Ownable.sol\":1928:1938  _msgSender */\n      tag_140\n        /* \"@openzeppelin/contracts/access/Ownable.sol\":1928:1940  _msgSender() */\n      jump\t// in\n    tag_231:\n        /* \"@openzeppelin/contracts/access/Ownable.sol\":1901:1941  OwnableUnauthorizedAccount(_msgSender()) */\n      mload(0x40)\n      0x118cdaa700000000000000000000000000000000000000000000000000000000\n      dup2\n      mstore\n      0x04\n      add\n      tag_232\n      swap2\n      swap1\n      tag_73\n      jump\t// in\n    tag_232:\n      mload(0x40)\n      dup1\n      swap2\n      sub\n      swap1\n      revert\n        /* \"@openzeppelin/contracts/access/Ownable.sol\":1851:1952  if (owner() != _msgSender()) {... */\n    tag_230:\n        /* \"@openzeppelin/contracts/access/Ownable.sol\":1796:1958  function _checkOwner() internal view virtual {... */\n      jump\t// out\n        /* \"Marketplace_NFT.sol\":8966:9141  function _safeTransfer(... */\n    tag_119:\n        /* \"Marketplace_NFT.sol\":9088:9093  token */\n      dup3\n        /* \"Marketplace_NFT.sol\":9088:9102  token.transfer */\n      0xffffffffffffffffffffffffffffffffffffffff\n      and\n      0xa9059cbb\n        /* \"Marketplace_NFT.sol\":9103:9105  to */\n      dup4\n        /* \"Marketplace_NFT.sol\":9107:9113  amount */\n      dup4\n        /* \"Marketplace_NFT.sol\":9088:9114  token.transfer(to, amount) */\n      mload(0x40)\n      dup4\n      0xffffffff\n      and\n      0xe0\n      shl\n      dup2\n      mstore\n      0x04\n      add\n      tag_234\n      swap3\n      swap2\n      swap1\n      tag_159\n      jump\t// in\n    tag_234:\n      0x20\n      mload(0x40)\n      dup1\n      dup4\n      sub\n      dup2\n      0x00\n      dup8\n      gas\n      call\n      iszero\n      dup1\n      iszero\n      tag_236\n      jumpi\n      returndatacopy(0x00, 0x00, returndatasize)\n      revert(0x00, returndatasize)\n    tag_236:\n      pop\n      pop\n      pop\n      pop\n      mload(0x40)\n      returndatasize\n      not(0x1f)\n      0x1f\n      dup3\n      add\n      and\n      dup3\n      add\n      dup1\n      0x40\n      mstore\n      pop\n      dup2\n      add\n      swap1\n      tag_237\n      swap2\n      swap1\n      tag_238\n      jump\t// in\n    tag_237:\n        /* \"Marketplace_NFT.sol\":9080:9134  require(token.transfer(to, amount), \"Transfer failed\") */\n      tag_239\n      jumpi\n      mload(0x40)\n      0x08c379a000000000000000000000000000000000000000000000000000000000\n      dup2\n      mstore\n      0x04\n      add\n      tag_240\n      swap1\n      tag_241\n      jump\t// in\n    tag_240:\n      mload(0x40)\n      dup1\n      swap2\n      sub\n      swap1\n      revert\n    tag_239:\n        /* \"Marketplace_NFT.sol\":8966:9141  function _safeTransfer(... */\n      pop\n      pop\n      pop\n      jump\t// out\n        /* \"@openzeppelin/contracts/access/Ownable2Step.sol\":2011:2164  function _transferOwnership(address newOwner) internal virtual override {... */\n    tag_137:\n        /* \"@openzeppelin/contracts/access/Ownable2Step.sol\":2100:2113  _pendingOwner */\n      0x01\n      0x00\n        /* \"@openzeppelin/contracts/access/Ownable2Step.sol\":2093:2113  delete _pendingOwner */\n      0x0100\n      exp\n      dup2\n      sload\n      swap1\n      0xffffffffffffffffffffffffffffffffffffffff\n      mul\n      not\n      and\n      swap1\n      sstore\n        /* \"@openzeppelin/contracts/access/Ownable2Step.sol\":2123:2157  super._transferOwnership(newOwner) */\n      tag_243\n        /* \"@openzeppelin/contracts/access/Ownable2Step.sol\":2148:2156  newOwner */\n      dup2\n        /* \"@openzeppelin/contracts/access/Ownable2Step.sol\":2123:2147  super._transferOwnership */\n      tag_244\n        /* \"@openzeppelin/contracts/access/Ownable2Step.sol\":2123:2157  super._transferOwnership(newOwner) */\n      jump\t// in\n    tag_243:\n        /* \"@openzeppelin/contracts/access/Ownable2Step.sol\":2011:2164  function _transferOwnership(address newOwner) internal virtual override {... */\n      pop\n      jump\t// out\n        /* \"@openzeppelin/contracts/utils/Context.sol\":656:752  function _msgSender() internal view virtual returns (address) {... */\n    tag_140:\n        /* \"@openzeppelin/contracts/utils/Context.sol\":709:716  address */\n      0x00\n        /* \"@openzeppelin/contracts/utils/Context.sol\":735:745  msg.sender */\n      caller\n        /* \"@openzeppelin/contracts/utils/Context.sol\":728:745  return msg.sender */\n      swap1\n      pop\n        /* \"@openzeppelin/contracts/utils/Context.sol\":656:752  function _msgSender() internal view virtual returns (address) {... */\n      swap1\n      jump\t// out\n        /* \"@openzeppelin/contracts/security/ReentrancyGuard.sol\":2336:2623  function _nonReentrantBefore() private {... */\n    tag_150:\n        /* \"@openzeppelin/contracts/security/ReentrancyGuard.sol\":1759:1760  2 */\n      0x02\n        /* \"@openzeppelin/contracts/security/ReentrancyGuard.sol\":2468:2475  _status */\n      dup1\n      sload\n        /* \"@openzeppelin/contracts/security/ReentrancyGuard.sol\":2468:2487  _status != _ENTERED */\n      sub\n        /* \"@openzeppelin/contracts/security/ReentrancyGuard.sol\":2460:2523  require(_status != _ENTERED, \"ReentrancyGuard: reentrant call\") */\n      tag_247\n      jumpi\n      mload(0x40)\n      0x08c379a000000000000000000000000000000000000000000000000000000000\n      dup2\n      mstore\n      0x04\n      add\n      tag_248\n      swap1\n      tag_249\n      jump\t// in\n    tag_248:\n      mload(0x40)\n      dup1\n      swap2\n      sub\n      swap1\n      revert\n    tag_247:\n        /* \"@openzeppelin/contracts/security/ReentrancyGuard.sol\":1759:1760  2 */\n      0x02\n        /* \"@openzeppelin/contracts/security/ReentrancyGuard.sol\":2598:2605  _status */\n      dup1\n        /* \"@openzeppelin/contracts/security/ReentrancyGuard.sol\":2598:2616  _status = _ENTERED */\n      dup2\n      swap1\n      sstore\n      pop\n        /* \"@openzeppelin/contracts/security/ReentrancyGuard.sol\":2336:2623  function _nonReentrantBefore() private {... */\n      jump\t// out\n        /* \"Marketplace_NFT.sol\":9147:9358  function _safeTransferFrom(... */\n    tag_168:\n        /* \"Marketplace_NFT.sol\":9295:9300  token */\n      dup4\n        /* \"Marketplace_NFT.sol\":9295:9313  token.transferFrom */\n      0xffffffffffffffffffffffffffffffffffffffff\n      and\n      0x23b872dd\n        /* \"Marketplace_NFT.sol\":9314:9318  from */\n      dup5\n        /* \"Marketplace_NFT.sol\":9320:9322  to */\n      dup5\n        /* \"Marketplace_NFT.sol\":9324:9330  amount */\n      dup5\n        /* \"Marketplace_NFT.sol\":9295:9331  token.transferFrom(from, to, amount) */\n      mload(0x40)\n      dup5\n      0xffffffff\n      and\n      0xe0\n      shl\n      dup2\n      mstore\n      0x04\n      add\n      tag_251\n      swap4\n      swap3\n      swap2\n      swap1\n      tag_252\n      jump\t// in\n    tag_251:\n      0x20\n      mload(0x40)\n      dup1\n      dup4\n      sub\n      dup2\n      0x00\n      dup8\n      gas\n      call\n      iszero\n      dup1\n      iszero\n      tag_254\n      jumpi\n      returndatacopy(0x00, 0x00, returndatasize)\n      revert(0x00, returndatasize)\n    tag_254:\n      pop\n      pop\n      pop\n      pop\n      mload(0x40)\n      returndatasize\n      not(0x1f)\n      0x1f\n      dup3\n      add\n      and\n      dup3\n      add\n      dup1\n      0x40\n      mstore\n      pop\n      dup2\n      add\n      swap1\n      tag_255\n      swap2\n      swap1\n      tag_238\n      jump\t// in\n    tag_255:\n        /* \"Marketplace_NFT.sol\":9287:9351  require(token.transferFrom(from, to, amount), \"Transfer failed\") */\n      tag_256\n      jumpi\n      mload(0x40)\n      0x08c379a000000000000000000000000000000000000000000000000000000000\n      dup2\n      mstore\n      0x04\n      add\n      tag_257\n      swap1\n      tag_241\n      jump\t// in\n    tag_257:\n      mload(0x40)\n      dup1\n      swap2\n      sub\n      swap1\n      revert\n    tag_256:\n        /* \"Marketplace_NFT.sol\":9147:9358  function _safeTransferFrom(... */\n      pop\n      pop\n      pop\n      pop\n      jump\t// out\n        /* \"@openzeppelin/contracts/security/ReentrancyGuard.sol\":2629:2838  function _nonReentrantAfter() private {... */\n    tag_180:\n        /* \"@openzeppelin/contracts/security/ReentrancyGuard.sol\":1716:1717  1 */\n      0x01\n        /* \"@openzeppelin/contracts/security/ReentrancyGuard.sol\":2809:2816  _status */\n      0x02\n        /* \"@openzeppelin/contracts/security/ReentrancyGuard.sol\":2809:2831  _status = _NOT_ENTERED */\n      dup2\n      swap1\n      sstore\n      pop\n        /* \"@openzeppelin/contracts/security/ReentrancyGuard.sol\":2629:2838  function _nonReentrantAfter() private {... */\n      jump\t// out\n        /* \"Marketplace_NFT.sol\":8605:8960  function _removeListing(uint256 _listingId) internal {... */\n    tag_200:\n        /* \"Marketplace_NFT.sol\":8673:8682  uint256 i */\n      0x00\n        /* \"Marketplace_NFT.sol\":8685:8686  0 */\n      0x00\n        /* \"Marketplace_NFT.sol\":8673:8686  uint256 i = 0 */\n      swap1\n      pop\n        /* \"Marketplace_NFT.sol\":8668:8954  for (uint256 i = 0; i < _activeListingIds.length; i++) {... */\n    tag_260:\n        /* \"Marketplace_NFT.sol\":8692:8709  _activeListingIds */\n      0x06\n        /* \"Marketplace_NFT.sol\":8692:8716  _activeListingIds.length */\n      dup1\n      sload\n      swap1\n      pop\n        /* \"Marketplace_NFT.sol\":8688:8689  i */\n      dup2\n        /* \"Marketplace_NFT.sol\":8688:8716  i < _activeListingIds.length */\n      lt\n        /* \"Marketplace_NFT.sol\":8668:8954  for (uint256 i = 0; i < _activeListingIds.length; i++) {... */\n      iszero\n      tag_261\n      jumpi\n        /* \"Marketplace_NFT.sol\":8765:8775  _listingId */\n      dup2\n        /* \"Marketplace_NFT.sol\":8741:8758  _activeListingIds */\n      0x06\n        /* \"Marketplace_NFT.sol\":8759:8760  i */\n      dup3\n        /* \"Marketplace_NFT.sol\":8741:8761  _activeListingIds[i] */\n      dup2\n      sload\n      dup2\n      lt\n      tag_263\n      jumpi\n      tag_264\n      tag_265\n      jump\t// in\n    tag_264:\n    tag_263:\n      swap1\n      0x00\n      mstore\n      keccak256(0x00, 0x20)\n      add\n      sload\n        /* \"Marketplace_NFT.sol\":8741:8775  _activeListingIds[i] == _listingId */\n      sub\n        /* \"Marketplace_NFT.sol\":8737:8944  if (_activeListingIds[i] == _listingId) {... */\n      tag_267\n      jumpi\n        /* \"Marketplace_NFT.sol\":8818:8835  _activeListingIds */\n      0x06\n        /* \"Marketplace_NFT.sol\":8863:8864  1 */\n      0x01\n        /* \"Marketplace_NFT.sol\":8836:8853  _activeListingIds */\n      0x06\n        /* \"Marketplace_NFT.sol\":8836:8860  _activeListingIds.length */\n      dup1\n      sload\n      swap1\n      pop\n        /* \"Marketplace_NFT.sol\":8836:8864  _activeListingIds.length - 1 */\n      tag_268\n      swap2\n      swap1\n      tag_197\n      jump\t// in\n    tag_268:\n        /* \"Marketplace_NFT.sol\":8818:8865  _activeListingIds[_activeListingIds.length - 1] */\n      dup2\n      sload\n      dup2\n      lt\n      tag_269\n      jumpi\n      tag_270\n      tag_265\n      jump\t// in\n    tag_270:\n    tag_269:\n      swap1\n      0x00\n      mstore\n      keccak256(0x00, 0x20)\n      add\n      sload\n        /* \"Marketplace_NFT.sol\":8795:8812  _activeListingIds */\n      0x06\n        /* \"Marketplace_NFT.sol\":8813:8814  i */\n      dup3\n        /* \"Marketplace_NFT.sol\":8795:8815  _activeListingIds[i] */\n      dup2\n      sload\n      dup2\n      lt\n      tag_272\n      jumpi\n      tag_273\n      tag_265\n      jump\t// in\n    tag_273:\n    tag_272:\n      swap1\n      0x00\n      mstore\n      keccak256(0x00, 0x20)\n      add\n        /* \"Marketplace_NFT.sol\":8795:8865  _activeListingIds[i] = _activeListingIds[_activeListingIds.length - 1] */\n      dup2\n      swap1\n      sstore\n      pop\n        /* \"Marketplace_NFT.sol\":8883:8900  _activeListingIds */\n      0x06\n        /* \"Marketplace_NFT.sol\":8883:8906  _activeListingIds.pop() */\n      dup1\n      sload\n      dup1\n      tag_275\n      jumpi\n      tag_276\n      tag_277\n      jump\t// in\n    tag_276:\n    tag_275:\n      0x01\n      swap1\n      sub\n      dup2\n      dup2\n      swap1\n      0x00\n      mstore\n      keccak256(0x00, 0x20)\n      add\n      0x00\n      swap1\n      sstore\n      swap1\n      sstore\n        /* \"Marketplace_NFT.sol\":8924:8929  break */\n      jump(tag_261)\n        /* \"Marketplace_NFT.sol\":8737:8944  if (_activeListingIds[i] == _listingId) {... */\n    tag_267:\n        /* \"Marketplace_NFT.sol\":8718:8721  i++ */\n      dup1\n      dup1\n      0x01\n      add\n      swap2\n      pop\n      pop\n        /* \"Marketplace_NFT.sol\":8668:8954  for (uint256 i = 0; i < _activeListingIds.length; i++) {... */\n      jump(tag_260)\n    tag_261:\n      pop\n        /* \"Marketplace_NFT.sol\":8605:8960  function _removeListing(uint256 _listingId) internal {... */\n      pop\n      jump\t// out\n        /* \"@openzeppelin/contracts/access/Ownable.sol\":2912:3099  function _transferOwnership(address newOwner) internal virtual {... */\n    tag_244:\n        /* \"@openzeppelin/contracts/access/Ownable.sol\":2985:3001  address oldOwner */\n      0x00\n        /* \"@openzeppelin/contracts/access/Ownable.sol\":3004:3010  _owner */\n      0x00\n      0x00\n      swap1\n      sload\n      swap1\n      0x0100\n      exp\n      swap1\n      div\n      0xffffffffffffffffffffffffffffffffffffffff\n      and\n        /* \"@openzeppelin/contracts/access/Ownable.sol\":2985:3010  address oldOwner = _owner */\n      swap1\n      pop\n        /* \"@openzeppelin/contracts/access/Ownable.sol\":3029:3037  newOwner */\n      dup2\n        /* \"@openzeppelin/contracts/access/Ownable.sol\":3020:3026  _owner */\n      0x00\n      0x00\n        /* \"@openzeppelin/contracts/access/Ownable.sol\":3020:3037  _owner = newOwner */\n      0x0100\n      exp\n      dup2\n      sload\n      dup2\n      0xffffffffffffffffffffffffffffffffffffffff\n      mul\n      not\n      and\n      swap1\n      dup4\n      0xffffffffffffffffffffffffffffffffffffffff\n      and\n      mul\n      or\n      swap1\n      sstore\n      pop\n        /* \"@openzeppelin/contracts/access/Ownable.sol\":3083:3091  newOwner */\n      dup2\n        /* \"@openzeppelin/contracts/access/Ownable.sol\":3052:3092  OwnershipTransferred(oldOwner, newOwner) */\n      0xffffffffffffffffffffffffffffffffffffffff\n      and\n        /* \"@openzeppelin/contracts/access/Ownable.sol\":3073:3081  oldOwner */\n      dup2\n        /* \"@openzeppelin/contracts/access/Ownable.sol\":3052:3092  OwnershipTransferred(oldOwner, newOwner) */\n      0xffffffffffffffffffffffffffffffffffffffff\n      and\n      0x8be0079c531659141344cd1fd0a4f28419497f9722a3daafe3b4186f6b6457e0\n      mload(0x40)\n      mload(0x40)\n      dup1\n      swap2\n      sub\n      swap1\n      log3\n        /* \"@openzeppelin/contracts/access/Ownable.sol\":2975:3099  {... */\n      pop\n        /* \"@openzeppelin/contracts/access/Ownable.sol\":2912:3099  function _transferOwnership(address newOwner) internal virtual {... */\n      pop\n      jump\t// out\n        /* \"#utility.yul\":88:205   */\n    tag_281:\n        /* \"#utility.yul\":197:198   */\n      0x00\n        /* \"#utility.yul\":194:195   */\n      0x00\n        /* \"#utility.yul\":187:199   */\n      revert\n        /* \"#utility.yul\":334:411   */\n    tag_283:\n        /* \"#utility.yul\":371:378   */\n      0x00\n        /* \"#utility.yul\":400:405   */\n      dup2\n        /* \"#utility.yul\":389:405   */\n      swap1\n      pop\n        /* \"#utility.yul\":334:411   */\n      swap2\n      swap1\n      pop\n      jump\t// out\n        /* \"#utility.yul\":417:539   */\n    tag_284:\n        /* \"#utility.yul\":490:514   */\n      tag_346\n        /* \"#utility.yul\":508:513   */\n      dup2\n        /* \"#utility.yul\":490:514   */\n      tag_283\n      jump\t// in\n    tag_346:\n        /* \"#utility.yul\":483:488   */\n      dup2\n        /* \"#utility.yul\":480:515   */\n      eq\n        /* \"#utility.yul\":470:533   */\n      tag_347\n      jumpi\n        /* \"#utility.yul\":529:530   */\n      0x00\n        /* \"#utility.yul\":526:527   */\n      0x00\n        /* \"#utility.yul\":519:531   */\n      revert\n        /* \"#utility.yul\":470:533   */\n    tag_347:\n        /* \"#utility.yul\":417:539   */\n      pop\n      jump\t// out\n        /* \"#utility.yul\":545:684   */\n    tag_285:\n        /* \"#utility.yul\":591:596   */\n      0x00\n        /* \"#utility.yul\":629:635   */\n      dup2\n        /* \"#utility.yul\":616:636   */\n      calldataload\n        /* \"#utility.yul\":607:636   */\n      swap1\n      pop\n        /* \"#utility.yul\":645:678   */\n      tag_349\n        /* \"#utility.yul\":672:677   */\n      dup2\n        /* \"#utility.yul\":645:678   */\n      tag_284\n      jump\t// in\n    tag_349:\n        /* \"#utility.yul\":545:684   */\n      swap3\n      swap2\n      pop\n      pop\n      jump\t// out\n        /* \"#utility.yul\":690:1164   */\n    tag_28:\n        /* \"#utility.yul\":758:764   */\n      0x00\n        /* \"#utility.yul\":766:772   */\n      0x00\n        /* \"#utility.yul\":815:817   */\n      0x40\n        /* \"#utility.yul\":803:812   */\n      dup4\n        /* \"#utility.yul\":794:801   */\n      dup6\n        /* \"#utility.yul\":790:813   */\n      sub\n        /* \"#utility.yul\":786:818   */\n      slt\n        /* \"#utility.yul\":783:902   */\n      iszero\n      tag_351\n      jumpi\n        /* \"#utility.yul\":821:900   */\n      tag_352\n      tag_281\n      jump\t// in\n    tag_352:\n        /* \"#utility.yul\":783:902   */\n    tag_351:\n        /* \"#utility.yul\":941:942   */\n      0x00\n        /* \"#utility.yul\":966:1019   */\n      tag_353\n        /* \"#utility.yul\":1011:1018   */\n      dup6\n        /* \"#utility.yul\":1002:1008   */\n      dup3\n        /* \"#utility.yul\":991:1000   */\n      dup7\n        /* \"#utility.yul\":987:1009   */\n      add\n        /* \"#utility.yul\":966:1019   */\n      tag_285\n      jump\t// in\n    tag_353:\n        /* \"#utility.yul\":956:1019   */\n      swap3\n      pop\n        /* \"#utility.yul\":912:1029   */\n      pop\n        /* \"#utility.yul\":1068:1070   */\n      0x20\n        /* \"#utility.yul\":1094:1147   */\n      tag_354\n        /* \"#utility.yul\":1139:1146   */\n      dup6\n        /* \"#utility.yul\":1130:1136   */\n      dup3\n        /* \"#utility.yul\":1119:1128   */\n      dup7\n        /* \"#utility.yul\":1115:1137   */\n      add\n        /* \"#utility.yul\":1094:1147   */\n      tag_285\n      jump\t// in\n    tag_354:\n        /* \"#utility.yul\":1084:1147   */\n      swap2\n      pop\n        /* \"#utility.yul\":1039:1157   */\n      pop\n        /* \"#utility.yul\":690:1164   */\n      swap3\n      pop\n      swap3\n      swap1\n      pop\n      jump\t// out\n        /* \"#utility.yul\":1170:1288   */\n    tag_286:\n        /* \"#utility.yul\":1257:1281   */\n      tag_356\n        /* \"#utility.yul\":1275:1280   */\n      dup2\n        /* \"#utility.yul\":1257:1281   */\n      tag_283\n      jump\t// in\n    tag_356:\n        /* \"#utility.yul\":1252:1255   */\n      dup3\n        /* \"#utility.yul\":1245:1282   */\n      mstore\n        /* \"#utility.yul\":1170:1288   */\n      pop\n      pop\n      jump\t// out\n        /* \"#utility.yul\":1294:1958   */\n    tag_31:\n        /* \"#utility.yul\":1499:1503   */\n      0x00\n        /* \"#utility.yul\":1537:1540   */\n      0xa0\n        /* \"#utility.yul\":1526:1535   */\n      dup3\n        /* \"#utility.yul\":1522:1541   */\n      add\n        /* \"#utility.yul\":1514:1541   */\n      swap1\n      pop\n        /* \"#utility.yul\":1551:1622   */\n      tag_358\n        /* \"#utility.yul\":1619:1620   */\n      0x00\n        /* \"#utility.yul\":1608:1617   */\n      dup4\n        /* \"#utility.yul\":1604:1621   */\n      add\n        /* \"#utility.yul\":1595:1601   */\n      dup9\n        /* \"#utility.yul\":1551:1622   */\n      tag_286\n      jump\t// in\n    tag_358:\n        /* \"#utility.yul\":1632:1704   */\n      tag_359\n        /* \"#utility.yul\":1700:1702   */\n      0x20\n        /* \"#utility.yul\":1689:1698   */\n      dup4\n        /* \"#utility.yul\":1685:1703   */\n      add\n        /* \"#utility.yul\":1676:1682   */\n      dup8\n        /* \"#utility.yul\":1632:1704   */\n      tag_286\n      jump\t// in\n    tag_359:\n        /* \"#utility.yul\":1714:1786   */\n      tag_360\n        /* \"#utility.yul\":1782:1784   */\n      0x40\n        /* \"#utility.yul\":1771:1780   */\n      dup4\n        /* \"#utility.yul\":1767:1785   */\n      add\n        /* \"#utility.yul\":1758:1764   */\n      dup7\n        /* \"#utility.yul\":1714:1786   */\n      tag_286\n      jump\t// in\n    tag_360:\n        /* \"#utility.yul\":1796:1868   */\n      tag_361\n        /* \"#utility.yul\":1864:1866   */\n      0x60\n        /* \"#utility.yul\":1853:1862   */\n      dup4\n        /* \"#utility.yul\":1849:1867   */\n      add\n        /* \"#utility.yul\":1840:1846   */\n      dup6\n        /* \"#utility.yul\":1796:1868   */\n      tag_286\n      jump\t// in\n    tag_361:\n        /* \"#utility.yul\":1878:1951   */\n      tag_362\n        /* \"#utility.yul\":1946:1949   */\n      0x80\n        /* \"#utility.yul\":1935:1944   */\n      dup4\n        /* \"#utility.yul\":1931:1950   */\n      add\n        /* \"#utility.yul\":1922:1928   */\n      dup5\n        /* \"#utility.yul\":1878:1951   */\n      tag_286\n      jump\t// in\n    tag_362:\n        /* \"#utility.yul\":1294:1958   */\n      swap7\n      swap6\n      pop\n      pop\n      pop\n      pop\n      pop\n      pop\n      jump\t// out\n        /* \"#utility.yul\":1964:2186   */\n    tag_35:\n        /* \"#utility.yul\":2057:2061   */\n      0x00\n        /* \"#utility.yul\":2095:2097   */\n      0x20\n        /* \"#utility.yul\":2084:2093   */\n      dup3\n        /* \"#utility.yul\":2080:2098   */\n      add\n        /* \"#utility.yul\":2072:2098   */\n      swap1\n      pop\n        /* \"#utility.yul\":2108:2179   */\n      tag_364\n        /* \"#utility.yul\":2176:2177   */\n      0x00\n        /* \"#utility.yul\":2165:2174   */\n      dup4\n        /* \"#utility.yul\":2161:2178   */\n      add\n        /* \"#utility.yul\":2152:2158   */\n      dup5\n        /* \"#utility.yul\":2108:2179   */\n      tag_286\n      jump\t// in\n    tag_364:\n        /* \"#utility.yul\":1964:2186   */\n      swap3\n      swap2\n      pop\n      pop\n      jump\t// out\n        /* \"#utility.yul\":2192:2318   */\n    tag_287:\n        /* \"#utility.yul\":2229:2236   */\n      0x00\n        /* \"#utility.yul\":2269:2311   */\n      0xffffffffffffffffffffffffffffffffffffffff\n        /* \"#utility.yul\":2262:2267   */\n      dup3\n        /* \"#utility.yul\":2258:2312   */\n      and\n        /* \"#utility.yul\":2247:2312   */\n      swap1\n      pop\n        /* \"#utility.yul\":2192:2318   */\n      swap2\n      swap1\n      pop\n      jump\t// out\n        /* \"#utility.yul\":2324:2420   */\n    tag_288:\n        /* \"#utility.yul\":2361:2368   */\n      0x00\n        /* \"#utility.yul\":2390:2414   */\n      tag_367\n        /* \"#utility.yul\":2408:2413   */\n      dup3\n        /* \"#utility.yul\":2390:2414   */\n      tag_287\n      jump\t// in\n    tag_367:\n        /* \"#utility.yul\":2379:2414   */\n      swap1\n      pop\n        /* \"#utility.yul\":2324:2420   */\n      swap2\n      swap1\n      pop\n      jump\t// out\n        /* \"#utility.yul\":2426:2548   */\n    tag_289:\n        /* \"#utility.yul\":2499:2523   */\n      tag_369\n        /* \"#utility.yul\":2517:2522   */\n      dup2\n        /* \"#utility.yul\":2499:2523   */\n      tag_288\n      jump\t// in\n    tag_369:\n        /* \"#utility.yul\":2492:2497   */\n      dup2\n        /* \"#utility.yul\":2489:2524   */\n      eq\n        /* \"#utility.yul\":2479:2542   */\n      tag_370\n      jumpi\n        /* \"#utility.yul\":2538:2539   */\n      0x00\n        /* \"#utility.yul\":2535:2536   */\n      0x00\n        /* \"#utility.yul\":2528:2540   */\n      revert\n        /* \"#utility.yul\":2479:2542   */\n    tag_370:\n        /* \"#utility.yul\":2426:2548   */\n      pop\n      jump\t// out\n        /* \"#utility.yul\":2554:2693   */\n    tag_290:\n        /* \"#utility.yul\":2600:2605   */\n      0x00\n        /* \"#utility.yul\":2638:2644   */\n      dup2\n        /* \"#utility.yul\":2625:2645   */\n      calldataload\n        /* \"#utility.yul\":2616:2645   */\n      swap1\n      pop\n        /* \"#utility.yul\":2654:2687   */\n      tag_372\n        /* \"#utility.yul\":2681:2686   */\n      dup2\n        /* \"#utility.yul\":2654:2687   */\n      tag_289\n      jump\t// in\n    tag_372:\n        /* \"#utility.yul\":2554:2693   */\n      swap3\n      swap2\n      pop\n      pop\n      jump\t// out\n        /* \"#utility.yul\":2699:3028   */\n    tag_38:\n        /* \"#utility.yul\":2758:2764   */\n      0x00\n        /* \"#utility.yul\":2807:2809   */\n      0x20\n        /* \"#utility.yul\":2795:2804   */\n      dup3\n        /* \"#utility.yul\":2786:2793   */\n      dup5\n        /* \"#utility.yul\":2782:2805   */\n      sub\n        /* \"#utility.yul\":2778:2810   */\n      slt\n        /* \"#utility.yul\":2775:2894   */\n      iszero\n      tag_374\n      jumpi\n        /* \"#utility.yul\":2813:2892   */\n      tag_375\n      tag_281\n      jump\t// in\n    tag_375:\n        /* \"#utility.yul\":2775:2894   */\n    tag_374:\n        /* \"#utility.yul\":2933:2934   */\n      0x00\n        /* \"#utility.yul\":2958:3011   */\n      tag_376\n        /* \"#utility.yul\":3003:3010   */\n      dup5\n        /* \"#utility.yul\":2994:3000   */\n      dup3\n        /* \"#utility.yul\":2983:2992   */\n      dup6\n        /* \"#utility.yul\":2979:3001   */\n      add\n        /* \"#utility.yul\":2958:3011   */\n      tag_290\n      jump\t// in\n    tag_376:\n        /* \"#utility.yul\":2948:3011   */\n      swap2\n      pop\n        /* \"#utility.yul\":2904:3021   */\n      pop\n        /* \"#utility.yul\":2699:3028   */\n      swap3\n      swap2\n      pop\n      pop\n      jump\t// out\n        /* \"#utility.yul\":3034:3094   */\n    tag_291:\n        /* \"#utility.yul\":3062:3065   */\n      0x00\n        /* \"#utility.yul\":3083:3088   */\n      dup2\n        /* \"#utility.yul\":3076:3088   */\n      swap1\n      pop\n        /* \"#utility.yul\":3034:3094   */\n      swap2\n      swap1\n      pop\n      jump\t// out\n        /* \"#utility.yul\":3100:3242   */\n    tag_292:\n        /* \"#utility.yul\":3150:3159   */\n      0x00\n        /* \"#utility.yul\":3183:3236   */\n      tag_379\n        /* \"#utility.yul\":3201:3235   */\n      tag_380\n        /* \"#utility.yul\":3210:3234   */\n      tag_381\n        /* \"#utility.yul\":3228:3233   */\n      dup5\n        /* \"#utility.yul\":3210:3234   */\n      tag_287\n      jump\t// in\n    tag_381:\n        /* \"#utility.yul\":3201:3235   */\n      tag_291\n      jump\t// in\n    tag_380:\n        /* \"#utility.yul\":3183:3236   */\n      tag_287\n      jump\t// in\n    tag_379:\n        /* \"#utility.yul\":3170:3236   */\n      swap1\n      pop\n        /* \"#utility.yul\":3100:3242   */\n      swap2\n      swap1\n      pop\n      jump\t// out\n        /* \"#utility.yul\":3248:3374   */\n    tag_293:\n        /* \"#utility.yul\":3298:3307   */\n      0x00\n        /* \"#utility.yul\":3331:3368   */\n      tag_383\n        /* \"#utility.yul\":3362:3367   */\n      dup3\n        /* \"#utility.yul\":3331:3368   */\n      tag_292\n      jump\t// in\n    tag_383:\n        /* \"#utility.yul\":3318:3368   */\n      swap1\n      pop\n        /* \"#utility.yul\":3248:3374   */\n      swap2\n      swap1\n      pop\n      jump\t// out\n        /* \"#utility.yul\":3380:3522   */\n    tag_294:\n        /* \"#utility.yul\":3446:3455   */\n      0x00\n        /* \"#utility.yul\":3479:3516   */\n      tag_385\n        /* \"#utility.yul\":3510:3515   */\n      dup3\n        /* \"#utility.yul\":3479:3516   */\n      tag_293\n      jump\t// in\n    tag_385:\n        /* \"#utility.yul\":3466:3516   */\n      swap1\n      pop\n        /* \"#utility.yul\":3380:3522   */\n      swap2\n      swap1\n      pop\n      jump\t// out\n        /* \"#utility.yul\":3528:3691   */\n    tag_295:\n        /* \"#utility.yul\":3631:3684   */\n      tag_387\n        /* \"#utility.yul\":3678:3683   */\n      dup2\n        /* \"#utility.yul\":3631:3684   */\n      tag_294\n      jump\t// in\n    tag_387:\n        /* \"#utility.yul\":3626:3629   */\n      dup3\n        /* \"#utility.yul\":3619:3685   */\n      mstore\n        /* \"#utility.yul\":3528:3691   */\n      pop\n      pop\n      jump\t// out\n        /* \"#utility.yul\":3697:3951   */\n    tag_43:\n        /* \"#utility.yul\":3806:3810   */\n      0x00\n        /* \"#utility.yul\":3844:3846   */\n      0x20\n        /* \"#utility.yul\":3833:3842   */\n      dup3\n        /* \"#utility.yul\":3829:3847   */\n      add\n        /* \"#utility.yul\":3821:3847   */\n      swap1\n      pop\n        /* \"#utility.yul\":3857:3944   */\n      tag_389\n        /* \"#utility.yul\":3941:3942   */\n      0x00\n        /* \"#utility.yul\":3930:3939   */\n      dup4\n        /* \"#utility.yul\":3926:3943   */\n      add\n        /* \"#utility.yul\":3917:3923   */\n      dup5\n        /* \"#utility.yul\":3857:3944   */\n      tag_295\n      jump\t// in\n    tag_389:\n        /* \"#utility.yul\":3697:3951   */\n      swap3\n      swap2\n      pop\n      pop\n      jump\t// out\n        /* \"#utility.yul\":3957:4097   */\n    tag_296:\n        /* \"#utility.yul\":4021:4030   */\n      0x00\n        /* \"#utility.yul\":4054:4091   */\n      tag_391\n        /* \"#utility.yul\":4085:4090   */\n      dup3\n        /* \"#utility.yul\":4054:4091   */\n      tag_293\n      jump\t// in\n    tag_391:\n        /* \"#utility.yul\":4041:4091   */\n      swap1\n      pop\n        /* \"#utility.yul\":3957:4097   */\n      swap2\n      swap1\n      pop\n      jump\t// out\n        /* \"#utility.yul\":4103:4262   */\n    tag_297:\n        /* \"#utility.yul\":4204:4255   */\n      tag_393\n        /* \"#utility.yul\":4249:4254   */\n      dup2\n        /* \"#utility.yul\":4204:4255   */\n      tag_296\n      jump\t// in\n    tag_393:\n        /* \"#utility.yul\":4199:4202   */\n      dup3\n        /* \"#utility.yul\":4192:4256   */\n      mstore\n        /* \"#utility.yul\":4103:4262   */\n      pop\n      pop\n      jump\t// out\n        /* \"#utility.yul\":4268:4518   */\n    tag_47:\n        /* \"#utility.yul\":4375:4379   */\n      0x00\n        /* \"#utility.yul\":4413:4415   */\n      0x20\n        /* \"#utility.yul\":4402:4411   */\n      dup3\n        /* \"#utility.yul\":4398:4416   */\n      add\n        /* \"#utility.yul\":4390:4416   */\n      swap1\n      pop\n        /* \"#utility.yul\":4426:4511   */\n      tag_395\n        /* \"#utility.yul\":4508:4509   */\n      0x00\n        /* \"#utility.yul\":4497:4506   */\n      dup4\n        /* \"#utility.yul\":4493:4510   */\n      add\n        /* \"#utility.yul\":4484:4490   */\n      dup5\n        /* \"#utility.yul\":4426:4511   */\n      tag_297\n      jump\t// in\n    tag_395:\n        /* \"#utility.yul\":4268:4518   */\n      swap3\n      swap2\n      pop\n      pop\n      jump\t// out\n        /* \"#utility.yul\":4524:4614   */\n    tag_298:\n        /* \"#utility.yul\":4558:4565   */\n      0x00\n        /* \"#utility.yul\":4601:4606   */\n      dup2\n        /* \"#utility.yul\":4594:4607   */\n      iszero\n        /* \"#utility.yul\":4587:4608   */\n      iszero\n        /* \"#utility.yul\":4576:4608   */\n      swap1\n      pop\n        /* \"#utility.yul\":4524:4614   */\n      swap2\n      swap1\n      pop\n      jump\t// out\n        /* \"#utility.yul\":4620:4736   */\n    tag_299:\n        /* \"#utility.yul\":4690:4711   */\n      tag_398\n        /* \"#utility.yul\":4705:4710   */\n      dup2\n        /* \"#utility.yul\":4690:4711   */\n      tag_298\n      jump\t// in\n    tag_398:\n        /* \"#utility.yul\":4683:4688   */\n      dup2\n        /* \"#utility.yul\":4680:4712   */\n      eq\n        /* \"#utility.yul\":4670:4730   */\n      tag_399\n      jumpi\n        /* \"#utility.yul\":4726:4727   */\n      0x00\n        /* \"#utility.yul\":4723:4724   */\n      0x00\n        /* \"#utility.yul\":4716:4728   */\n      revert\n        /* \"#utility.yul\":4670:4730   */\n    tag_399:\n        /* \"#utility.yul\":4620:4736   */\n      pop\n      jump\t// out\n        /* \"#utility.yul\":4742:4875   */\n    tag_300:\n        /* \"#utility.yul\":4785:4790   */\n      0x00\n        /* \"#utility.yul\":4823:4829   */\n      dup2\n        /* \"#utility.yul\":4810:4830   */\n      calldataload\n        /* \"#utility.yul\":4801:4830   */\n      swap1\n      pop\n        /* \"#utility.yul\":4839:4869   */\n      tag_401\n        /* \"#utility.yul\":4863:4868   */\n      dup2\n        /* \"#utility.yul\":4839:4869   */\n      tag_299\n      jump\t// in\n    tag_401:\n        /* \"#utility.yul\":4742:4875   */\n      swap3\n      swap2\n      pop\n      pop\n      jump\t// out\n        /* \"#utility.yul\":4881:5349   */\n    tag_53:\n        /* \"#utility.yul\":4946:4952   */\n      0x00\n        /* \"#utility.yul\":4954:4960   */\n      0x00\n        /* \"#utility.yul\":5003:5005   */\n      0x40\n        /* \"#utility.yul\":4991:5000   */\n      dup4\n        /* \"#utility.yul\":4982:4989   */\n      dup6\n        /* \"#utility.yul\":4978:5001   */\n      sub\n        /* \"#utility.yul\":4974:5006   */\n      slt\n        /* \"#utility.yul\":4971:5090   */\n      iszero\n      tag_403\n      jumpi\n        /* \"#utility.yul\":5009:5088   */\n      tag_404\n      tag_281\n      jump\t// in\n    tag_404:\n        /* \"#utility.yul\":4971:5090   */\n    tag_403:\n        /* \"#utility.yul\":5129:5130   */\n      0x00\n        /* \"#utility.yul\":5154:5207   */\n      tag_405\n        /* \"#utility.yul\":5199:5206   */\n      dup6\n        /* \"#utility.yul\":5190:5196   */\n      dup3\n        /* \"#utility.yul\":5179:5188   */\n      dup7\n        /* \"#utility.yul\":5175:5197   */\n      add\n        /* \"#utility.yul\":5154:5207   */\n      tag_290\n      jump\t// in\n    tag_405:\n        /* \"#utility.yul\":5144:5207   */\n      swap3\n      pop\n        /* \"#utility.yul\":5100:5217   */\n      pop\n        /* \"#utility.yul\":5256:5258   */\n      0x20\n        /* \"#utility.yul\":5282:5332   */\n      tag_406\n        /* \"#utility.yul\":5324:5331   */\n      dup6\n        /* \"#utility.yul\":5315:5321   */\n      dup3\n        /* \"#utility.yul\":5304:5313   */\n      dup7\n        /* \"#utility.yul\":5300:5322   */\n      add\n        /* \"#utility.yul\":5282:5332   */\n      tag_300\n      jump\t// in\n    tag_406:\n        /* \"#utility.yul\":5272:5332   */\n      swap2\n      pop\n        /* \"#utility.yul\":5227:5342   */\n      pop\n        /* \"#utility.yul\":4881:5349   */\n      swap3\n      pop\n      swap3\n      swap1\n      pop\n      jump\t// out\n        /* \"#utility.yul\":5355:5469   */\n    tag_301:\n        /* \"#utility.yul\":5422:5428   */\n      0x00\n        /* \"#utility.yul\":5456:5461   */\n      dup2\n        /* \"#utility.yul\":5450:5462   */\n      mload\n        /* \"#utility.yul\":5440:5462   */\n      swap1\n      pop\n        /* \"#utility.yul\":5355:5469   */\n      swap2\n      swap1\n      pop\n      jump\t// out\n        /* \"#utility.yul\":5475:5659   */\n    tag_302:\n        /* \"#utility.yul\":5574:5585   */\n      0x00\n        /* \"#utility.yul\":5608:5614   */\n      dup3\n        /* \"#utility.yul\":5603:5606   */\n      dup3\n        /* \"#utility.yul\":5596:5615   */\n      mstore\n        /* \"#utility.yul\":5648:5652   */\n      0x20\n        /* \"#utility.yul\":5643:5646   */\n      dup3\n        /* \"#utility.yul\":5639:5653   */\n      add\n        /* \"#utility.yul\":5624:5653   */\n      swap1\n      pop\n        /* \"#utility.yul\":5475:5659   */\n      swap3\n      swap2\n      pop\n      pop\n      jump\t// out\n        /* \"#utility.yul\":5665:5797   */\n    tag_303:\n        /* \"#utility.yul\":5732:5736   */\n      0x00\n        /* \"#utility.yul\":5755:5758   */\n      dup2\n        /* \"#utility.yul\":5747:5758   */\n      swap1\n      pop\n        /* \"#utility.yul\":5785:5789   */\n      0x20\n        /* \"#utility.yul\":5780:5783   */\n      dup3\n        /* \"#utility.yul\":5776:5790   */\n      add\n        /* \"#utility.yul\":5768:5790   */\n      swap1\n      pop\n        /* \"#utility.yul\":5665:5797   */\n      swap2\n      swap1\n      pop\n      jump\t// out\n        /* \"#utility.yul\":5803:5911   */\n    tag_304:\n        /* \"#utility.yul\":5880:5904   */\n      tag_411\n        /* \"#utility.yul\":5898:5903   */\n      dup2\n        /* \"#utility.yul\":5880:5904   */\n      tag_283\n      jump\t// in\n    tag_411:\n        /* \"#utility.yul\":5875:5878   */\n      dup3\n        /* \"#utility.yul\":5868:5905   */\n      mstore\n        /* \"#utility.yul\":5803:5911   */\n      pop\n      pop\n      jump\t// out\n        /* \"#utility.yul\":5917:6096   */\n    tag_305:\n        /* \"#utility.yul\":5986:5996   */\n      0x00\n        /* \"#utility.yul\":6007:6053   */\n      tag_413\n        /* \"#utility.yul\":6049:6052   */\n      dup4\n        /* \"#utility.yul\":6041:6047   */\n      dup4\n        /* \"#utility.yul\":6007:6053   */\n      tag_304\n      jump\t// in\n    tag_413:\n        /* \"#utility.yul\":6085:6089   */\n      0x20\n        /* \"#utility.yul\":6080:6083   */\n      dup4\n        /* \"#utility.yul\":6076:6090   */\n      add\n        /* \"#utility.yul\":6062:6090   */\n      swap1\n      pop\n        /* \"#utility.yul\":5917:6096   */\n      swap3\n      swap2\n      pop\n      pop\n      jump\t// out\n        /* \"#utility.yul\":6102:6215   */\n    tag_306:\n        /* \"#utility.yul\":6172:6176   */\n      0x00\n        /* \"#utility.yul\":6204:6208   */\n      0x20\n        /* \"#utility.yul\":6199:6202   */\n      dup3\n        /* \"#utility.yul\":6195:6209   */\n      add\n        /* \"#utility.yul\":6187:6209   */\n      swap1\n      pop\n        /* \"#utility.yul\":6102:6215   */\n      swap2\n      swap1\n      pop\n      jump\t// out\n        /* \"#utility.yul\":6251:6983   */\n    tag_307:\n        /* \"#utility.yul\":6370:6373   */\n      0x00\n        /* \"#utility.yul\":6399:6453   */\n      tag_416\n        /* \"#utility.yul\":6447:6452   */\n      dup3\n        /* \"#utility.yul\":6399:6453   */\n      tag_301\n      jump\t// in\n    tag_416:\n        /* \"#utility.yul\":6469:6555   */\n      tag_417\n        /* \"#utility.yul\":6548:6554   */\n      dup2\n        /* \"#utility.yul\":6543:6546   */\n      dup6\n        /* \"#utility.yul\":6469:6555   */\n      tag_302\n      jump\t// in\n    tag_417:\n        /* \"#utility.yul\":6462:6555   */\n      swap4\n      pop\n        /* \"#utility.yul\":6579:6635   */\n      tag_418\n        /* \"#utility.yul\":6629:6634   */\n      dup4\n        /* \"#utility.yul\":6579:6635   */\n      tag_303\n      jump\t// in\n    tag_418:\n        /* \"#utility.yul\":6658:6665   */\n      dup1\n        /* \"#utility.yul\":6689:6690   */\n      0x00\n        /* \"#utility.yul\":6674:6958   */\n    tag_419:\n        /* \"#utility.yul\":6699:6705   */\n      dup4\n        /* \"#utility.yul\":6696:6697   */\n      dup2\n        /* \"#utility.yul\":6693:6706   */\n      lt\n        /* \"#utility.yul\":6674:6958   */\n      iszero\n      tag_421\n      jumpi\n        /* \"#utility.yul\":6775:6781   */\n      dup2\n        /* \"#utility.yul\":6769:6782   */\n      mload\n        /* \"#utility.yul\":6802:6865   */\n      tag_422\n        /* \"#utility.yul\":6861:6864   */\n      dup9\n        /* \"#utility.yul\":6846:6859   */\n      dup3\n        /* \"#utility.yul\":6802:6865   */\n      tag_305\n      jump\t// in\n    tag_422:\n        /* \"#utility.yul\":6795:6865   */\n      swap8\n      pop\n        /* \"#utility.yul\":6888:6948   */\n      tag_423\n        /* \"#utility.yul\":6941:6947   */\n      dup4\n        /* \"#utility.yul\":6888:6948   */\n      tag_306\n      jump\t// in\n    tag_423:\n        /* \"#utility.yul\":6878:6948   */\n      swap3\n      pop\n        /* \"#utility.yul\":6734:6958   */\n      pop\n        /* \"#utility.yul\":6721:6722   */\n      0x01\n        /* \"#utility.yul\":6718:6719   */\n      dup2\n        /* \"#utility.yul\":6714:6723   */\n      add\n        /* \"#utility.yul\":6709:6723   */\n      swap1\n      pop\n        /* \"#utility.yul\":6674:6958   */\n      jump(tag_419)\n    tag_421:\n        /* \"#utility.yul\":6678:6692   */\n      pop\n        /* \"#utility.yul\":6974:6977   */\n      dup6\n        /* \"#utility.yul\":6967:6977   */\n      swap4\n      pop\n        /* \"#utility.yul\":6375:6983   */\n      pop\n      pop\n      pop\n        /* \"#utility.yul\":6251:6983   */\n      swap3\n      swap2\n      pop\n      pop\n      jump\t// out\n        /* \"#utility.yul\":6989:7362   */\n    tag_65:\n        /* \"#utility.yul\":7132:7136   */\n      0x00\n        /* \"#utility.yul\":7170:7172   */\n      0x20\n        /* \"#utility.yul\":7159:7168   */\n      dup3\n        /* \"#utility.yul\":7155:7173   */\n      add\n        /* \"#utility.yul\":7147:7173   */\n      swap1\n      pop\n        /* \"#utility.yul\":7219:7228   */\n      dup2\n        /* \"#utility.yul\":7213:7217   */\n      dup2\n        /* \"#utility.yul\":7209:7229   */\n      sub\n        /* \"#utility.yul\":7205:7206   */\n      0x00\n        /* \"#utility.yul\":7194:7203   */\n      dup4\n        /* \"#utility.yul\":7190:7207   */\n      add\n        /* \"#utility.yul\":7183:7230   */\n      mstore\n        /* \"#utility.yul\":7247:7355   */\n      tag_425\n        /* \"#utility.yul\":7350:7354   */\n      dup2\n        /* \"#utility.yul\":7341:7347   */\n      dup5\n        /* \"#utility.yul\":7247:7355   */\n      tag_307\n      jump\t// in\n    tag_425:\n        /* \"#utility.yul\":7239:7355   */\n      swap1\n      pop\n        /* \"#utility.yul\":6989:7362   */\n      swap3\n      swap2\n      pop\n      pop\n      jump\t// out\n        /* \"#utility.yul\":7368:7987   */\n    tag_68:\n        /* \"#utility.yul\":7445:7451   */\n      0x00\n        /* \"#utility.yul\":7453:7459   */\n      0x00\n        /* \"#utility.yul\":7461:7467   */\n      0x00\n        /* \"#utility.yul\":7510:7512   */\n      0x60\n        /* \"#utility.yul\":7498:7507   */\n      dup5\n        /* \"#utility.yul\":7489:7496   */\n      dup7\n        /* \"#utility.yul\":7485:7508   */\n      sub\n        /* \"#utility.yul\":7481:7513   */\n      slt\n        /* \"#utility.yul\":7478:7597   */\n      iszero\n      tag_427\n      jumpi\n        /* \"#utility.yul\":7516:7595   */\n      tag_428\n      tag_281\n      jump\t// in\n    tag_428:\n        /* \"#utility.yul\":7478:7597   */\n    tag_427:\n        /* \"#utility.yul\":7636:7637   */\n      0x00\n        /* \"#utility.yul\":7661:7714   */\n      tag_429\n        /* \"#utility.yul\":7706:7713   */\n      dup7\n        /* \"#utility.yul\":7697:7703   */\n      dup3\n        /* \"#utility.yul\":7686:7695   */\n      dup8\n        /* \"#utility.yul\":7682:7704   */\n      add\n        /* \"#utility.yul\":7661:7714   */\n      tag_285\n      jump\t// in\n    tag_429:\n        /* \"#utility.yul\":7651:7714   */\n      swap4\n      pop\n        /* \"#utility.yul\":7607:7724   */\n      pop\n        /* \"#utility.yul\":7763:7765   */\n      0x20\n        /* \"#utility.yul\":7789:7842   */\n      tag_430\n        /* \"#utility.yul\":7834:7841   */\n      dup7\n        /* \"#utility.yul\":7825:7831   */\n      dup3\n        /* \"#utility.yul\":7814:7823   */\n      dup8\n        /* \"#utility.yul\":7810:7832   */\n      add\n        /* \"#utility.yul\":7789:7842   */\n      tag_285\n      jump\t// in\n    tag_430:\n        /* \"#utility.yul\":7779:7842   */\n      swap3\n      pop\n        /* \"#utility.yul\":7734:7852   */\n      pop\n        /* \"#utility.yul\":7891:7893   */\n      0x40\n        /* \"#utility.yul\":7917:7970   */\n      tag_431\n        /* \"#utility.yul\":7962:7969   */\n      dup7\n        /* \"#utility.yul\":7953:7959   */\n      dup3\n        /* \"#utility.yul\":7942:7951   */\n      dup8\n        /* \"#utility.yul\":7938:7960   */\n      add\n        /* \"#utility.yul\":7917:7970   */\n      tag_285\n      jump\t// in\n    tag_431:\n        /* \"#utility.yul\":7907:7970   */\n      swap2\n      pop\n        /* \"#utility.yul\":7862:7980   */\n      pop\n        /* \"#utility.yul\":7368:7987   */\n      swap3\n      pop\n      swap3\n      pop\n      swap3\n      jump\t// out\n        /* \"#utility.yul\":7993:8111   */\n    tag_308:\n        /* \"#utility.yul\":8080:8104   */\n      tag_433\n        /* \"#utility.yul\":8098:8103   */\n      dup2\n        /* \"#utility.yul\":8080:8104   */\n      tag_288\n      jump\t// in\n    tag_433:\n        /* \"#utility.yul\":8075:8078   */\n      dup3\n        /* \"#utility.yul\":8068:8105   */\n      mstore\n        /* \"#utility.yul\":7993:8111   */\n      pop\n      pop\n      jump\t// out\n        /* \"#utility.yul\":8117:8339   */\n    tag_73:\n        /* \"#utility.yul\":8210:8214   */\n      0x00\n        /* \"#utility.yul\":8248:8250   */\n      0x20\n        /* \"#utility.yul\":8237:8246   */\n      dup3\n        /* \"#utility.yul\":8233:8251   */\n      add\n        /* \"#utility.yul\":8225:8251   */\n      swap1\n      pop\n        /* \"#utility.yul\":8261:8332   */\n      tag_435\n        /* \"#utility.yul\":8329:8330   */\n      0x00\n        /* \"#utility.yul\":8318:8327   */\n      dup4\n        /* \"#utility.yul\":8314:8331   */\n      add\n        /* \"#utility.yul\":8305:8311   */\n      dup5\n        /* \"#utility.yul\":8261:8332   */\n      tag_308\n      jump\t// in\n    tag_435:\n        /* \"#utility.yul\":8117:8339   */\n      swap3\n      swap2\n      pop\n      pop\n      jump\t// out\n        /* \"#utility.yul\":8345:8674   */\n    tag_94:\n        /* \"#utility.yul\":8404:8410   */\n      0x00\n        /* \"#utility.yul\":8453:8455   */\n      0x20\n        /* \"#utility.yul\":8441:8450   */\n      dup3\n        /* \"#utility.yul\":8432:8439   */\n      dup5\n        /* \"#utility.yul\":8428:8451   */\n      sub\n        /* \"#utility.yul\":8424:8456   */\n      slt\n        /* \"#utility.yul\":8421:8540   */\n      iszero\n      tag_437\n      jumpi\n        /* \"#utility.yul\":8459:8538   */\n      tag_438\n      tag_281\n      jump\t// in\n    tag_438:\n        /* \"#utility.yul\":8421:8540   */\n    tag_437:\n        /* \"#utility.yul\":8579:8580   */\n      0x00\n        /* \"#utility.yul\":8604:8657   */\n      tag_439\n        /* \"#utility.yul\":8649:8656   */\n      dup5\n        /* \"#utility.yul\":8640:8646   */\n      dup3\n        /* \"#utility.yul\":8629:8638   */\n      dup6\n        /* \"#utility.yul\":8625:8647   */\n      add\n        /* \"#utility.yul\":8604:8657   */\n      tag_285\n      jump\t// in\n    tag_439:\n        /* \"#utility.yul\":8594:8657   */\n      swap2\n      pop\n        /* \"#utility.yul\":8550:8667   */\n      pop\n        /* \"#utility.yul\":8345:8674   */\n      swap3\n      swap2\n      pop\n      pop\n      jump\t// out\n        /* \"#utility.yul\":8680:8789   */\n    tag_309:\n        /* \"#utility.yul\":8761:8782   */\n      tag_441\n        /* \"#utility.yul\":8776:8781   */\n      dup2\n        /* \"#utility.yul\":8761:8782   */\n      tag_298\n      jump\t// in\n    tag_441:\n        /* \"#utility.yul\":8756:8759   */\n      dup3\n        /* \"#utility.yul\":8749:8783   */\n      mstore\n        /* \"#utility.yul\":8680:8789   */\n      pop\n      pop\n      jump\t// out\n        /* \"#utility.yul\":8795:9558   */\n    tag_97:\n        /* \"#utility.yul\":9022:9026   */\n      0x00\n        /* \"#utility.yul\":9060:9063   */\n      0xc0\n        /* \"#utility.yul\":9049:9058   */\n      dup3\n        /* \"#utility.yul\":9045:9064   */\n      add\n        /* \"#utility.yul\":9037:9064   */\n      swap1\n      pop\n        /* \"#utility.yul\":9074:9145   */\n      tag_443\n        /* \"#utility.yul\":9142:9143   */\n      0x00\n        /* \"#utility.yul\":9131:9140   */\n      dup4\n        /* \"#utility.yul\":9127:9144   */\n      add\n        /* \"#utility.yul\":9118:9124   */\n      dup10\n        /* \"#utility.yul\":9074:9145   */\n      tag_308\n      jump\t// in\n    tag_443:\n        /* \"#utility.yul\":9155:9227   */\n      tag_444\n        /* \"#utility.yul\":9223:9225   */\n      0x20\n        /* \"#utility.yul\":9212:9221   */\n      dup4\n        /* \"#utility.yul\":9208:9226   */\n      add\n        /* \"#utility.yul\":9199:9205   */\n      dup9\n        /* \"#utility.yul\":9155:9227   */\n      tag_286\n      jump\t// in\n    tag_444:\n        /* \"#utility.yul\":9237:9309   */\n      tag_445\n        /* \"#utility.yul\":9305:9307   */\n      0x40\n        /* \"#utility.yul\":9294:9303   */\n      dup4\n        /* \"#utility.yul\":9290:9308   */\n      add\n        /* \"#utility.yul\":9281:9287   */\n      dup8\n        /* \"#utility.yul\":9237:9309   */\n      tag_286\n      jump\t// in\n    tag_445:\n        /* \"#utility.yul\":9319:9391   */\n      tag_446\n        /* \"#utility.yul\":9387:9389   */\n      0x60\n        /* \"#utility.yul\":9376:9385   */\n      dup4\n        /* \"#utility.yul\":9372:9390   */\n      add\n        /* \"#utility.yul\":9363:9369   */\n      dup7\n        /* \"#utility.yul\":9319:9391   */\n      tag_286\n      jump\t// in\n    tag_446:\n        /* \"#utility.yul\":9401:9474   */\n      tag_447\n        /* \"#utility.yul\":9469:9472   */\n      0x80\n        /* \"#utility.yul\":9458:9467   */\n      dup4\n        /* \"#utility.yul\":9454:9473   */\n      add\n        /* \"#utility.yul\":9445:9451   */\n      dup6\n        /* \"#utility.yul\":9401:9474   */\n      tag_286\n      jump\t// in\n    tag_447:\n        /* \"#utility.yul\":9484:9551   */\n      tag_448\n        /* \"#utility.yul\":9546:9549   */\n      0xa0\n        /* \"#utility.yul\":9535:9544   */\n      dup4\n        /* \"#utility.yul\":9531:9550   */\n      add\n        /* \"#utility.yul\":9522:9528   */\n      dup5\n        /* \"#utility.yul\":9484:9551   */\n      tag_309\n      jump\t// in\n    tag_448:\n        /* \"#utility.yul\":8795:9558   */\n      swap8\n      swap7\n      pop\n      pop\n      pop\n      pop\n      pop\n      pop\n      pop\n      jump\t// out\n        /* \"#utility.yul\":9564:9733   */\n    tag_310:\n        /* \"#utility.yul\":9648:9659   */\n      0x00\n        /* \"#utility.yul\":9682:9688   */\n      dup3\n        /* \"#utility.yul\":9677:9680   */\n      dup3\n        /* \"#utility.yul\":9670:9689   */\n      mstore\n        /* \"#utility.yul\":9722:9726   */\n      0x20\n        /* \"#utility.yul\":9717:9720   */\n      dup3\n        /* \"#utility.yul\":9713:9727   */\n      add\n        /* \"#utility.yul\":9698:9727   */\n      swap1\n      pop\n        /* \"#utility.yul\":9564:9733   */\n      swap3\n      swap2\n      pop\n      pop\n      jump\t// out\n        /* \"#utility.yul\":9739:9905   */\n    tag_311:\n        /* \"#utility.yul\":9879:9897   */\n      0x4c697374696e6720696e61637469766500000000000000000000000000000000\n        /* \"#utility.yul\":9875:9876   */\n      0x00\n        /* \"#utility.yul\":9867:9873   */\n      dup3\n        /* \"#utility.yul\":9863:9877   */\n      add\n        /* \"#utility.yul\":9856:9898   */\n      mstore\n        /* \"#utility.yul\":9739:9905   */\n      pop\n      jump\t// out\n        /* \"#utility.yul\":9911:10277   */\n    tag_312:\n        /* \"#utility.yul\":10053:10056   */\n      0x00\n        /* \"#utility.yul\":10074:10141   */\n      tag_452\n        /* \"#utility.yul\":10138:10140   */\n      0x10\n        /* \"#utility.yul\":10133:10136   */\n      dup4\n        /* \"#utility.yul\":10074:10141   */\n      tag_310\n      jump\t// in\n    tag_452:\n        /* \"#utility.yul\":10067:10141   */\n      swap2\n      pop\n        /* \"#utility.yul\":10150:10243   */\n      tag_453\n        /* \"#utility.yul\":10239:10242   */\n      dup3\n        /* \"#utility.yul\":10150:10243   */\n      tag_311\n      jump\t// in\n    tag_453:\n        /* \"#utility.yul\":10268:10270   */\n      0x20\n        /* \"#utility.yul\":10263:10266   */\n      dup3\n        /* \"#utility.yul\":10259:10271   */\n      add\n        /* \"#utility.yul\":10252:10271   */\n      swap1\n      pop\n        /* \"#utility.yul\":9911:10277   */\n      swap2\n      swap1\n      pop\n      jump\t// out\n        /* \"#utility.yul\":10283:10702   */\n    tag_101:\n        /* \"#utility.yul\":10449:10453   */\n      0x00\n        /* \"#utility.yul\":10487:10489   */\n      0x20\n        /* \"#utility.yul\":10476:10485   */\n      dup3\n        /* \"#utility.yul\":10472:10490   */\n      add\n        /* \"#utility.yul\":10464:10490   */\n      swap1\n      pop\n        /* \"#utility.yul\":10536:10545   */\n      dup2\n        /* \"#utility.yul\":10530:10534   */\n      dup2\n        /* \"#utility.yul\":10526:10546   */\n      sub\n        /* \"#utility.yul\":10522:10523   */\n      0x00\n        /* \"#utility.yul\":10511:10520   */\n      dup4\n        /* \"#utility.yul\":10507:10524   */\n      add\n        /* \"#utility.yul\":10500:10547   */\n      mstore\n        /* \"#utility.yul\":10564:10695   */\n      tag_455\n        /* \"#utility.yul\":10690:10694   */\n      dup2\n        /* \"#utility.yul\":10564:10695   */\n      tag_312\n      jump\t// in\n    tag_455:\n        /* \"#utility.yul\":10556:10695   */\n      swap1\n      pop\n        /* \"#utility.yul\":10283:10702   */\n      swap2\n      swap1\n      pop\n      jump\t// out\n        /* \"#utility.yul\":10708:10888   */\n    tag_313:\n        /* \"#utility.yul\":10756:10833   */\n      0x4e487b7100000000000000000000000000000000000000000000000000000000\n        /* \"#utility.yul\":10753:10754   */\n      0x00\n        /* \"#utility.yul\":10746:10834   */\n      mstore\n        /* \"#utility.yul\":10853:10857   */\n      0x11\n        /* \"#utility.yul\":10850:10851   */\n      0x04\n        /* \"#utility.yul\":10843:10858   */\n      mstore\n        /* \"#utility.yul\":10877:10881   */\n      0x24\n        /* \"#utility.yul\":10874:10875   */\n      0x00\n        /* \"#utility.yul\":10867:10882   */\n      revert\n        /* \"#utility.yul\":10894:11304   */\n    tag_103:\n        /* \"#utility.yul\":10934:10941   */\n      0x00\n        /* \"#utility.yul\":10957:10977   */\n      tag_458\n        /* \"#utility.yul\":10975:10976   */\n      dup3\n        /* \"#utility.yul\":10957:10977   */\n      tag_283\n      jump\t// in\n    tag_458:\n        /* \"#utility.yul\":10952:10977   */\n      swap2\n      pop\n        /* \"#utility.yul\":10991:11011   */\n      tag_459\n        /* \"#utility.yul\":11009:11010   */\n      dup4\n        /* \"#utility.yul\":10991:11011   */\n      tag_283\n      jump\t// in\n    tag_459:\n        /* \"#utility.yul\":10986:11011   */\n      swap3\n      pop\n        /* \"#utility.yul\":11046:11047   */\n      dup3\n        /* \"#utility.yul\":11043:11044   */\n      dup3\n        /* \"#utility.yul\":11039:11048   */\n      mul\n        /* \"#utility.yul\":11068:11098   */\n      tag_460\n        /* \"#utility.yul\":11086:11097   */\n      dup2\n        /* \"#utility.yul\":11068:11098   */\n      tag_283\n      jump\t// in\n    tag_460:\n        /* \"#utility.yul\":11057:11098   */\n      swap2\n      pop\n        /* \"#utility.yul\":11247:11248   */\n      dup3\n        /* \"#utility.yul\":11238:11245   */\n      dup3\n        /* \"#utility.yul\":11234:11249   */\n      div\n        /* \"#utility.yul\":11231:11232   */\n      dup5\n        /* \"#utility.yul\":11228:11250   */\n      eq\n        /* \"#utility.yul\":11208:11209   */\n      dup4\n        /* \"#utility.yul\":11201:11210   */\n      iszero\n        /* \"#utility.yul\":11181:11264   */\n      or\n        /* \"#utility.yul\":11158:11297   */\n      tag_461\n      jumpi\n        /* \"#utility.yul\":11277:11295   */\n      tag_462\n      tag_313\n      jump\t// in\n    tag_462:\n        /* \"#utility.yul\":11158:11297   */\n    tag_461:\n        /* \"#utility.yul\":10942:11304   */\n      pop\n        /* \"#utility.yul\":10894:11304   */\n      swap3\n      swap2\n      pop\n      pop\n      jump\t// out\n        /* \"#utility.yul\":11310:11501   */\n    tag_107:\n        /* \"#utility.yul\":11350:11353   */\n      0x00\n        /* \"#utility.yul\":11369:11389   */\n      tag_464\n        /* \"#utility.yul\":11387:11388   */\n      dup3\n        /* \"#utility.yul\":11369:11389   */\n      tag_283\n      jump\t// in\n    tag_464:\n        /* \"#utility.yul\":11364:11389   */\n      swap2\n      pop\n        /* \"#utility.yul\":11403:11423   */\n      tag_465\n        /* \"#utility.yul\":11421:11422   */\n      dup4\n        /* \"#utility.yul\":11403:11423   */\n      tag_283\n      jump\t// in\n    tag_465:\n        /* \"#utility.yul\":11398:11423   */\n      swap3\n      pop\n        /* \"#utility.yul\":11446:11447   */\n      dup3\n        /* \"#utility.yul\":11443:11444   */\n      dup3\n        /* \"#utility.yul\":11439:11448   */\n      add\n        /* \"#utility.yul\":11432:11448   */\n      swap1\n      pop\n        /* \"#utility.yul\":11467:11470   */\n      dup1\n        /* \"#utility.yul\":11464:11465   */\n      dup3\n        /* \"#utility.yul\":11461:11471   */\n      gt\n        /* \"#utility.yul\":11458:11494   */\n      iszero\n      tag_466\n      jumpi\n        /* \"#utility.yul\":11474:11492   */\n      tag_467\n      tag_313\n      jump\t// in\n    tag_467:\n        /* \"#utility.yul\":11458:11494   */\n    tag_466:\n        /* \"#utility.yul\":11310:11501   */\n      swap3\n      swap2\n      pop\n      pop\n      jump\t// out\n        /* \"#utility.yul\":11507:11650   */\n    tag_314:\n        /* \"#utility.yul\":11564:11569   */\n      0x00\n        /* \"#utility.yul\":11595:11601   */\n      dup2\n        /* \"#utility.yul\":11589:11602   */\n      mload\n        /* \"#utility.yul\":11580:11602   */\n      swap1\n      pop\n        /* \"#utility.yul\":11611:11644   */\n      tag_469\n        /* \"#utility.yul\":11638:11643   */\n      dup2\n        /* \"#utility.yul\":11611:11644   */\n      tag_284\n      jump\t// in\n    tag_469:\n        /* \"#utility.yul\":11507:11650   */\n      swap3\n      swap2\n      pop\n      pop\n      jump\t// out\n        /* \"#utility.yul\":11656:12007   */\n    tag_117:\n        /* \"#utility.yul\":11726:11732   */\n      0x00\n        /* \"#utility.yul\":11775:11777   */\n      0x20\n        /* \"#utility.yul\":11763:11772   */\n      dup3\n        /* \"#utility.yul\":11754:11761   */\n      dup5\n        /* \"#utility.yul\":11750:11773   */\n      sub\n        /* \"#utility.yul\":11746:11778   */\n      slt\n        /* \"#utility.yul\":11743:11862   */\n      iszero\n      tag_471\n      jumpi\n        /* \"#utility.yul\":11781:11860   */\n      tag_472\n      tag_281\n      jump\t// in\n    tag_472:\n        /* \"#utility.yul\":11743:11862   */\n    tag_471:\n        /* \"#utility.yul\":11901:11902   */\n      0x00\n        /* \"#utility.yul\":11926:11990   */\n      tag_473\n        /* \"#utility.yul\":11982:11989   */\n      dup5\n        /* \"#utility.yul\":11973:11979   */\n      dup3\n        /* \"#utility.yul\":11962:11971   */\n      dup6\n        /* \"#utility.yul\":11958:11980   */\n      add\n        /* \"#utility.yul\":11926:11990   */\n      tag_314\n      jump\t// in\n    tag_473:\n        /* \"#utility.yul\":11916:11990   */\n      swap2\n      pop\n        /* \"#utility.yul\":11872:12000   */\n      pop\n        /* \"#utility.yul\":11656:12007   */\n      swap3\n      swap2\n      pop\n      pop\n      jump\t// out\n        /* \"#utility.yul\":12013:12333   */\n    tag_124:\n        /* \"#utility.yul\":12128:12132   */\n      0x00\n        /* \"#utility.yul\":12166:12168   */\n      0x40\n        /* \"#utility.yul\":12155:12164   */\n      dup3\n        /* \"#utility.yul\":12151:12169   */\n      add\n        /* \"#utility.yul\":12143:12169   */\n      swap1\n      pop\n        /* \"#utility.yul\":12179:12250   */\n      tag_475\n        /* \"#utility.yul\":12247:12248   */\n      0x00\n        /* \"#utility.yul\":12236:12245   */\n      dup4\n        /* \"#utility.yul\":12232:12249   */\n      add\n        /* \"#utility.yul\":12223:12229   */\n      dup6\n        /* \"#utility.yul\":12179:12250   */\n      tag_308\n      jump\t// in\n    tag_475:\n        /* \"#utility.yul\":12260:12326   */\n      tag_476\n        /* \"#utility.yul\":12322:12324   */\n      0x20\n        /* \"#utility.yul\":12311:12320   */\n      dup4\n        /* \"#utility.yul\":12307:12325   */\n      add\n        /* \"#utility.yul\":12298:12304   */\n      dup5\n        /* \"#utility.yul\":12260:12326   */\n      tag_309\n      jump\t// in\n    tag_476:\n        /* \"#utility.yul\":12013:12333   */\n      swap4\n      swap3\n      pop\n      pop\n      pop\n      jump\t// out\n        /* \"#utility.yul\":12339:12501   */\n    tag_315:\n        /* \"#utility.yul\":12479:12493   */\n      0x46656520746f6f20686967680000000000000000000000000000000000000000\n        /* \"#utility.yul\":12475:12476   */\n      0x00\n        /* \"#utility.yul\":12467:12473   */\n      dup3\n        /* \"#utility.yul\":12463:12477   */\n      add\n        /* \"#utility.yul\":12456:12494   */\n      mstore\n        /* \"#utility.yul\":12339:12501   */\n      pop\n      jump\t// out\n        /* \"#utility.yul\":12507:12873   */\n    tag_316:\n        /* \"#utility.yul\":12649:12652   */\n      0x00\n        /* \"#utility.yul\":12670:12737   */\n      tag_479\n        /* \"#utility.yul\":12734:12736   */\n      0x0c\n        /* \"#utility.yul\":12729:12732   */\n      dup4\n        /* \"#utility.yul\":12670:12737   */\n      tag_310\n      jump\t// in\n    tag_479:\n        /* \"#utility.yul\":12663:12737   */\n      swap2\n      pop\n        /* \"#utility.yul\":12746:12839   */\n      tag_480\n        /* \"#utility.yul\":12835:12838   */\n      dup3\n        /* \"#utility.yul\":12746:12839   */\n      tag_315\n      jump\t// in\n    tag_480:\n        /* \"#utility.yul\":12864:12866   */\n      0x20\n        /* \"#utility.yul\":12859:12862   */\n      dup3\n        /* \"#utility.yul\":12855:12867   */\n      add\n        /* \"#utility.yul\":12848:12867   */\n      swap1\n      pop\n        /* \"#utility.yul\":12507:12873   */\n      swap2\n      swap1\n      pop\n      jump\t// out\n        /* \"#utility.yul\":12879:13298   */\n    tag_130:\n        /* \"#utility.yul\":13045:13049   */\n      0x00\n        /* \"#utility.yul\":13083:13085   */\n      0x20\n        /* \"#utility.yul\":13072:13081   */\n      dup3\n        /* \"#utility.yul\":13068:13086   */\n      add\n        /* \"#utility.yul\":13060:13086   */\n      swap1\n      pop\n        /* \"#utility.yul\":13132:13141   */\n      dup2\n        /* \"#utility.yul\":13126:13130   */\n      dup2\n        /* \"#utility.yul\":13122:13142   */\n      sub\n        /* \"#utility.yul\":13118:13119   */\n      0x00\n        /* \"#utility.yul\":13107:13116   */\n      dup4\n        /* \"#utility.yul\":13103:13120   */\n      add\n        /* \"#utility.yul\":13096:13143   */\n      mstore\n        /* \"#utility.yul\":13160:13291   */\n      tag_482\n        /* \"#utility.yul\":13286:13290   */\n      dup2\n        /* \"#utility.yul\":13160:13291   */\n      tag_316\n      jump\t// in\n    tag_482:\n        /* \"#utility.yul\":13152:13291   */\n      swap1\n      pop\n        /* \"#utility.yul\":12879:13298   */\n      swap2\n      swap1\n      pop\n      jump\t// out\n        /* \"#utility.yul\":13304:13636   */\n    tag_132:\n        /* \"#utility.yul\":13425:13429   */\n      0x00\n        /* \"#utility.yul\":13463:13465   */\n      0x40\n        /* \"#utility.yul\":13452:13461   */\n      dup3\n        /* \"#utility.yul\":13448:13466   */\n      add\n        /* \"#utility.yul\":13440:13466   */\n      swap1\n      pop\n        /* \"#utility.yul\":13476:13547   */\n      tag_484\n        /* \"#utility.yul\":13544:13545   */\n      0x00\n        /* \"#utility.yul\":13533:13542   */\n      dup4\n        /* \"#utility.yul\":13529:13546   */\n      add\n        /* \"#utility.yul\":13520:13526   */\n      dup6\n        /* \"#utility.yul\":13476:13547   */\n      tag_286\n      jump\t// in\n    tag_484:\n        /* \"#utility.yul\":13557:13629   */\n      tag_485\n        /* \"#utility.yul\":13625:13627   */\n      0x20\n        /* \"#utility.yul\":13614:13623   */\n      dup4\n        /* \"#utility.yul\":13610:13628   */\n      add\n        /* \"#utility.yul\":13601:13607   */\n      dup5\n        /* \"#utility.yul\":13557:13629   */\n      tag_286\n      jump\t// in\n    tag_485:\n        /* \"#utility.yul\":13304:13636   */\n      swap4\n      swap3\n      pop\n      pop\n      pop\n      jump\t// out\n        /* \"#utility.yul\":13642:13814   */\n    tag_317:\n        /* \"#utility.yul\":13782:13806   */\n      0x5072696365206d75737420626520706f73697469766500000000000000000000\n        /* \"#utility.yul\":13778:13779   */\n      0x00\n        /* \"#utility.yul\":13770:13776   */\n      dup3\n        /* \"#utility.yul\":13766:13780   */\n      add\n        /* \"#utility.yul\":13759:13807   */\n      mstore\n        /* \"#utility.yul\":13642:13814   */\n      pop\n      jump\t// out\n        /* \"#utility.yul\":13820:14186   */\n    tag_318:\n        /* \"#utility.yul\":13962:13965   */\n      0x00\n        /* \"#utility.yul\":13983:14050   */\n      tag_488\n        /* \"#utility.yul\":14047:14049   */\n      0x16\n        /* \"#utility.yul\":14042:14045   */\n      dup4\n        /* \"#utility.yul\":13983:14050   */\n      tag_310\n      jump\t// in\n    tag_488:\n        /* \"#utility.yul\":13976:14050   */\n      swap2\n      pop\n        /* \"#utility.yul\":14059:14152   */\n      tag_489\n        /* \"#utility.yul\":14148:14151   */\n      dup3\n        /* \"#utility.yul\":14059:14152   */\n      tag_317\n      jump\t// in\n    tag_489:\n        /* \"#utility.yul\":14177:14179   */\n      0x20\n        /* \"#utility.yul\":14172:14175   */\n      dup3\n        /* \"#utility.yul\":14168:14180   */\n      add\n        /* \"#utility.yul\":14161:14180   */\n      swap1\n      pop\n        /* \"#utility.yul\":13820:14186   */\n      swap2\n      swap1\n      pop\n      jump\t// out\n        /* \"#utility.yul\":14192:14611   */\n    tag_154:\n        /* \"#utility.yul\":14358:14362   */\n      0x00\n        /* \"#utility.yul\":14396:14398   */\n      0x20\n        /* \"#utility.yul\":14385:14394   */\n      dup3\n        /* \"#utility.yul\":14381:14399   */\n      add\n        /* \"#utility.yul\":14373:14399   */\n      swap1\n      pop\n        /* \"#utility.yul\":14445:14454   */\n      dup2\n        /* \"#utility.yul\":14439:14443   */\n      dup2\n        /* \"#utility.yul\":14435:14455   */\n      sub\n        /* \"#utility.yul\":14431:14432   */\n      0x00\n        /* \"#utility.yul\":14420:14429   */\n      dup4\n        /* \"#utility.yul\":14416:14433   */\n      add\n        /* \"#utility.yul\":14409:14456   */\n      mstore\n        /* \"#utility.yul\":14473:14604   */\n      tag_491\n        /* \"#utility.yul\":14599:14603   */\n      dup2\n        /* \"#utility.yul\":14473:14604   */\n      tag_318\n      jump\t// in\n    tag_491:\n        /* \"#utility.yul\":14465:14604   */\n      swap1\n      pop\n        /* \"#utility.yul\":14192:14611   */\n      swap2\n      swap1\n      pop\n      jump\t// out\n        /* \"#utility.yul\":14617:14788   */\n    tag_319:\n        /* \"#utility.yul\":14757:14780   */\n      0x41726561206d75737420626520706f7369746976650000000000000000000000\n        /* \"#utility.yul\":14753:14754   */\n      0x00\n        /* \"#utility.yul\":14745:14751   */\n      dup3\n        /* \"#utility.yul\":14741:14755   */\n      add\n        /* \"#utility.yul\":14734:14781   */\n      mstore\n        /* \"#utility.yul\":14617:14788   */\n      pop\n      jump\t// out\n        /* \"#utility.yul\":14794:15160   */\n    tag_320:\n        /* \"#utility.yul\":14936:14939   */\n      0x00\n        /* \"#utility.yul\":14957:15024   */\n      tag_494\n        /* \"#utility.yul\":15021:15023   */\n      0x15\n        /* \"#utility.yul\":15016:15019   */\n      dup4\n        /* \"#utility.yul\":14957:15024   */\n      tag_310\n      jump\t// in\n    tag_494:\n        /* \"#utility.yul\":14950:15024   */\n      swap2\n      pop\n        /* \"#utility.yul\":15033:15126   */\n      tag_495\n        /* \"#utility.yul\":15122:15125   */\n      dup3\n        /* \"#utility.yul\":15033:15126   */\n      tag_319\n      jump\t// in\n    tag_495:\n        /* \"#utility.yul\":15151:15153   */\n      0x20\n        /* \"#utility.yul\":15146:15149   */\n      dup3\n        /* \"#utility.yul\":15142:15154   */\n      add\n        /* \"#utility.yul\":15135:15154   */\n      swap1\n      pop\n        /* \"#utility.yul\":14794:15160   */\n      swap2\n      swap1\n      pop\n      jump\t// out\n        /* \"#utility.yul\":15166:15585   */\n    tag_157:\n        /* \"#utility.yul\":15332:15336   */\n      0x00\n        /* \"#utility.yul\":15370:15372   */\n      0x20\n        /* \"#utility.yul\":15359:15368   */\n      dup3\n        /* \"#utility.yul\":15355:15373   */\n      add\n        /* \"#utility.yul\":15347:15373   */\n      swap1\n      pop\n        /* \"#utility.yul\":15419:15428   */\n      dup2\n        /* \"#utility.yul\":15413:15417   */\n      dup2\n        /* \"#utility.yul\":15409:15429   */\n      sub\n        /* \"#utility.yul\":15405:15406   */\n      0x00\n        /* \"#utility.yul\":15394:15403   */\n      dup4\n        /* \"#utility.yul\":15390:15407   */\n      add\n        /* \"#utility.yul\":15383:15430   */\n      mstore\n        /* \"#utility.yul\":15447:15578   */\n      tag_497\n        /* \"#utility.yul\":15573:15577   */\n      dup2\n        /* \"#utility.yul\":15447:15578   */\n      tag_320\n      jump\t// in\n    tag_497:\n        /* \"#utility.yul\":15439:15578   */\n      swap1\n      pop\n        /* \"#utility.yul\":15166:15585   */\n      swap2\n      swap1\n      pop\n      jump\t// out\n        /* \"#utility.yul\":15591:15923   */\n    tag_159:\n        /* \"#utility.yul\":15712:15716   */\n      0x00\n        /* \"#utility.yul\":15750:15752   */\n      0x40\n        /* \"#utility.yul\":15739:15748   */\n      dup3\n        /* \"#utility.yul\":15735:15753   */\n      add\n        /* \"#utility.yul\":15727:15753   */\n      swap1\n      pop\n        /* \"#utility.yul\":15763:15834   */\n      tag_499\n        /* \"#utility.yul\":15831:15832   */\n      0x00\n        /* \"#utility.yul\":15820:15829   */\n      dup4\n        /* \"#utility.yul\":15816:15833   */\n      add\n        /* \"#utility.yul\":15807:15813   */\n      dup6\n        /* \"#utility.yul\":15763:15834   */\n      tag_308\n      jump\t// in\n    tag_499:\n        /* \"#utility.yul\":15844:15916   */\n      tag_500\n        /* \"#utility.yul\":15912:15914   */\n      0x20\n        /* \"#utility.yul\":15901:15910   */\n      dup4\n        /* \"#utility.yul\":15897:15915   */\n      add\n        /* \"#utility.yul\":15888:15894   */\n      dup5\n        /* \"#utility.yul\":15844:15916   */\n      tag_286\n      jump\t// in\n    tag_500:\n        /* \"#utility.yul\":15591:15923   */\n      swap4\n      swap3\n      pop\n      pop\n      pop\n      jump\t// out\n        /* \"#utility.yul\":15929:16099   */\n    tag_321:\n        /* \"#utility.yul\":16069:16091   */\n      0x496e73756666696369656e742062616c616e6365000000000000000000000000\n        /* \"#utility.yul\":16065:16066   */\n      0x00\n        /* \"#utility.yul\":16057:16063   */\n      dup3\n        /* \"#utility.yul\":16053:16067   */\n      add\n        /* \"#utility.yul\":16046:16092   */\n      mstore\n        /* \"#utility.yul\":15929:16099   */\n      pop\n      jump\t// out\n        /* \"#utility.yul\":16105:16471   */\n    tag_322:\n        /* \"#utility.yul\":16247:16250   */\n      0x00\n        /* \"#utility.yul\":16268:16335   */\n      tag_503\n        /* \"#utility.yul\":16332:16334   */\n      0x14\n        /* \"#utility.yul\":16327:16330   */\n      dup4\n        /* \"#utility.yul\":16268:16335   */\n      tag_310\n      jump\t// in\n    tag_503:\n        /* \"#utility.yul\":16261:16335   */\n      swap2\n      pop\n        /* \"#utility.yul\":16344:16437   */\n      tag_504\n        /* \"#utility.yul\":16433:16436   */\n      dup3\n        /* \"#utility.yul\":16344:16437   */\n      tag_321\n      jump\t// in\n    tag_504:\n        /* \"#utility.yul\":16462:16464   */\n      0x20\n        /* \"#utility.yul\":16457:16460   */\n      dup3\n        /* \"#utility.yul\":16453:16465   */\n      add\n        /* \"#utility.yul\":16446:16465   */\n      swap1\n      pop\n        /* \"#utility.yul\":16105:16471   */\n      swap2\n      swap1\n      pop\n      jump\t// out\n        /* \"#utility.yul\":16477:16896   */\n    tag_165:\n        /* \"#utility.yul\":16643:16647   */\n      0x00\n        /* \"#utility.yul\":16681:16683   */\n      0x20\n        /* \"#utility.yul\":16670:16679   */\n      dup3\n        /* \"#utility.yul\":16666:16684   */\n      add\n        /* \"#utility.yul\":16658:16684   */\n      swap1\n      pop\n        /* \"#utility.yul\":16730:16739   */\n      dup2\n        /* \"#utility.yul\":16724:16728   */\n      dup2\n        /* \"#utility.yul\":16720:16740   */\n      sub\n        /* \"#utility.yul\":16716:16717   */\n      0x00\n        /* \"#utility.yul\":16705:16714   */\n      dup4\n        /* \"#utility.yul\":16701:16718   */\n      add\n        /* \"#utility.yul\":16694:16741   */\n      mstore\n        /* \"#utility.yul\":16758:16889   */\n      tag_506\n        /* \"#utility.yul\":16884:16888   */\n      dup2\n        /* \"#utility.yul\":16758:16889   */\n      tag_322\n      jump\t// in\n    tag_506:\n        /* \"#utility.yul\":16750:16889   */\n      swap1\n      pop\n        /* \"#utility.yul\":16477:16896   */\n      swap2\n      swap1\n      pop\n      jump\t// out\n        /* \"#utility.yul\":16902:17070   */\n    tag_323:\n        /* \"#utility.yul\":16985:16996   */\n      0x00\n        /* \"#utility.yul\":17019:17025   */\n      dup3\n        /* \"#utility.yul\":17014:17017   */\n      dup3\n        /* \"#utility.yul\":17007:17026   */\n      mstore\n        /* \"#utility.yul\":17059:17063   */\n      0x20\n        /* \"#utility.yul\":17054:17057   */\n      dup3\n        /* \"#utility.yul\":17050:17064   */\n      add\n        /* \"#utility.yul\":17035:17064   */\n      swap1\n      pop\n        /* \"#utility.yul\":16902:17070   */\n      swap3\n      swap2\n      pop\n      pop\n      jump\t// out\n        /* \"#utility.yul\":17076:17190   */\n    tag_324:\n      pop\n      jump\t// out\n        /* \"#utility.yul\":17196:17558   */\n    tag_325:\n        /* \"#utility.yul\":17337:17340   */\n      0x00\n        /* \"#utility.yul\":17358:17423   */\n      tag_510\n        /* \"#utility.yul\":17421:17422   */\n      0x00\n        /* \"#utility.yul\":17416:17419   */\n      dup4\n        /* \"#utility.yul\":17358:17423   */\n      tag_323\n      jump\t// in\n    tag_510:\n        /* \"#utility.yul\":17351:17423   */\n      swap2\n      pop\n        /* \"#utility.yul\":17432:17525   */\n      tag_511\n        /* \"#utility.yul\":17521:17524   */\n      dup3\n        /* \"#utility.yul\":17432:17525   */\n      tag_324\n      jump\t// in\n    tag_511:\n        /* \"#utility.yul\":17550:17551   */\n      0x00\n        /* \"#utility.yul\":17545:17548   */\n      dup3\n        /* \"#utility.yul\":17541:17552   */\n      add\n        /* \"#utility.yul\":17534:17552   */\n      swap1\n      pop\n        /* \"#utility.yul\":17196:17558   */\n      swap2\n      swap1\n      pop\n      jump\t// out\n        /* \"#utility.yul\":17564:18423   */\n    tag_170:\n        /* \"#utility.yul\":17841:17845   */\n      0x00\n        /* \"#utility.yul\":17879:17882   */\n      0xa0\n        /* \"#utility.yul\":17868:17877   */\n      dup3\n        /* \"#utility.yul\":17864:17883   */\n      add\n        /* \"#utility.yul\":17856:17883   */\n      swap1\n      pop\n        /* \"#utility.yul\":17893:17964   */\n      tag_513\n        /* \"#utility.yul\":17961:17962   */\n      0x00\n        /* \"#utility.yul\":17950:17959   */\n      dup4\n        /* \"#utility.yul\":17946:17963   */\n      add\n        /* \"#utility.yul\":17937:17943   */\n      dup8\n        /* \"#utility.yul\":17893:17964   */\n      tag_308\n      jump\t// in\n    tag_513:\n        /* \"#utility.yul\":17974:18046   */\n      tag_514\n        /* \"#utility.yul\":18042:18044   */\n      0x20\n        /* \"#utility.yul\":18031:18040   */\n      dup4\n        /* \"#utility.yul\":18027:18045   */\n      add\n        /* \"#utility.yul\":18018:18024   */\n      dup7\n        /* \"#utility.yul\":17974:18046   */\n      tag_308\n      jump\t// in\n    tag_514:\n        /* \"#utility.yul\":18056:18128   */\n      tag_515\n        /* \"#utility.yul\":18124:18126   */\n      0x40\n        /* \"#utility.yul\":18113:18122   */\n      dup4\n        /* \"#utility.yul\":18109:18127   */\n      add\n        /* \"#utility.yul\":18100:18106   */\n      dup6\n        /* \"#utility.yul\":18056:18128   */\n      tag_286\n      jump\t// in\n    tag_515:\n        /* \"#utility.yul\":18138:18210   */\n      tag_516\n        /* \"#utility.yul\":18206:18208   */\n      0x60\n        /* \"#utility.yul\":18195:18204   */\n      dup4\n        /* \"#utility.yul\":18191:18209   */\n      add\n        /* \"#utility.yul\":18182:18188   */\n      dup5\n        /* \"#utility.yul\":18138:18210   */\n      tag_286\n      jump\t// in\n    tag_516:\n        /* \"#utility.yul\":18258:18267   */\n      dup2\n        /* \"#utility.yul\":18252:18256   */\n      dup2\n        /* \"#utility.yul\":18248:18268   */\n      sub\n        /* \"#utility.yul\":18242:18245   */\n      0x80\n        /* \"#utility.yul\":18231:18240   */\n      dup4\n        /* \"#utility.yul\":18227:18246   */\n      add\n        /* \"#utility.yul\":18220:18269   */\n      mstore\n        /* \"#utility.yul\":18286:18416   */\n      tag_517\n        /* \"#utility.yul\":18411:18415   */\n      dup2\n        /* \"#utility.yul\":18286:18416   */\n      tag_325\n      jump\t// in\n    tag_517:\n        /* \"#utility.yul\":18278:18416   */\n      swap1\n      pop\n        /* \"#utility.yul\":17564:18423   */\n      swap6\n      swap5\n      pop\n      pop\n      pop\n      pop\n      pop\n      jump\t// out\n        /* \"#utility.yul\":18429:18508   */\n    tag_326:\n        /* \"#utility.yul\":18468:18475   */\n      0x00\n        /* \"#utility.yul\":18497:18502   */\n      dup2\n        /* \"#utility.yul\":18486:18502   */\n      swap1\n      pop\n        /* \"#utility.yul\":18429:18508   */\n      swap2\n      swap1\n      pop\n      jump\t// out\n        /* \"#utility.yul\":18514:18671   */\n    tag_327:\n        /* \"#utility.yul\":18619:18664   */\n      tag_520\n        /* \"#utility.yul\":18639:18663   */\n      tag_521\n        /* \"#utility.yul\":18657:18662   */\n      dup3\n        /* \"#utility.yul\":18639:18663   */\n      tag_283\n      jump\t// in\n    tag_521:\n        /* \"#utility.yul\":18619:18664   */\n      tag_326\n      jump\t// in\n    tag_520:\n        /* \"#utility.yul\":18614:18617   */\n      dup3\n        /* \"#utility.yul\":18607:18665   */\n      mstore\n        /* \"#utility.yul\":18514:18671   */\n      pop\n      pop\n      jump\t// out\n        /* \"#utility.yul\":18677:18771   */\n    tag_328:\n        /* \"#utility.yul\":18710:18718   */\n      0x00\n        /* \"#utility.yul\":18758:18763   */\n      dup2\n        /* \"#utility.yul\":18754:18756   */\n      0x60\n        /* \"#utility.yul\":18750:18764   */\n      shl\n        /* \"#utility.yul\":18729:18764   */\n      swap1\n      pop\n        /* \"#utility.yul\":18677:18771   */\n      swap2\n      swap1\n      pop\n      jump\t// out\n        /* \"#utility.yul\":18777:18871   */\n    tag_329:\n        /* \"#utility.yul\":18816:18823   */\n      0x00\n        /* \"#utility.yul\":18845:18865   */\n      tag_524\n        /* \"#utility.yul\":18859:18864   */\n      dup3\n        /* \"#utility.yul\":18845:18865   */\n      tag_328\n      jump\t// in\n    tag_524:\n        /* \"#utility.yul\":18834:18865   */\n      swap1\n      pop\n        /* \"#utility.yul\":18777:18871   */\n      swap2\n      swap1\n      pop\n      jump\t// out\n        /* \"#utility.yul\":18877:18977   */\n    tag_330:\n        /* \"#utility.yul\":18916:18923   */\n      0x00\n        /* \"#utility.yul\":18945:18971   */\n      tag_526\n        /* \"#utility.yul\":18965:18970   */\n      dup3\n        /* \"#utility.yul\":18945:18971   */\n      tag_329\n      jump\t// in\n    tag_526:\n        /* \"#utility.yul\":18934:18971   */\n      swap1\n      pop\n        /* \"#utility.yul\":18877:18977   */\n      swap2\n      swap1\n      pop\n      jump\t// out\n        /* \"#utility.yul\":18983:19140   */\n    tag_331:\n        /* \"#utility.yul\":19088:19133   */\n      tag_528\n        /* \"#utility.yul\":19108:19132   */\n      tag_529\n        /* \"#utility.yul\":19126:19131   */\n      dup3\n        /* \"#utility.yul\":19108:19132   */\n      tag_288\n      jump\t// in\n    tag_529:\n        /* \"#utility.yul\":19088:19133   */\n      tag_330\n      jump\t// in\n    tag_528:\n        /* \"#utility.yul\":19083:19086   */\n      dup3\n        /* \"#utility.yul\":19076:19134   */\n      mstore\n        /* \"#utility.yul\":18983:19140   */\n      pop\n      pop\n      jump\t// out\n        /* \"#utility.yul\":19146:19825   */\n    tag_175:\n        /* \"#utility.yul\":19342:19345   */\n      0x00\n        /* \"#utility.yul\":19357:19432   */\n      tag_531\n        /* \"#utility.yul\":19428:19431   */\n      dup3\n        /* \"#utility.yul\":19419:19425   */\n      dup8\n        /* \"#utility.yul\":19357:19432   */\n      tag_327\n      jump\t// in\n    tag_531:\n        /* \"#utility.yul\":19457:19459   */\n      0x20\n        /* \"#utility.yul\":19452:19455   */\n      dup3\n        /* \"#utility.yul\":19448:19460   */\n      add\n        /* \"#utility.yul\":19441:19460   */\n      swap2\n      pop\n        /* \"#utility.yul\":19470:19545   */\n      tag_532\n        /* \"#utility.yul\":19541:19544   */\n      dup3\n        /* \"#utility.yul\":19532:19538   */\n      dup7\n        /* \"#utility.yul\":19470:19545   */\n      tag_331\n      jump\t// in\n    tag_532:\n        /* \"#utility.yul\":19570:19572   */\n      0x14\n        /* \"#utility.yul\":19565:19568   */\n      dup3\n        /* \"#utility.yul\":19561:19573   */\n      add\n        /* \"#utility.yul\":19554:19573   */\n      swap2\n      pop\n        /* \"#utility.yul\":19583:19658   */\n      tag_533\n        /* \"#utility.yul\":19654:19657   */\n      dup3\n        /* \"#utility.yul\":19645:19651   */\n      dup6\n        /* \"#utility.yul\":19583:19658   */\n      tag_327\n      jump\t// in\n    tag_533:\n        /* \"#utility.yul\":19683:19685   */\n      0x20\n        /* \"#utility.yul\":19678:19681   */\n      dup3\n        /* \"#utility.yul\":19674:19686   */\n      add\n        /* \"#utility.yul\":19667:19686   */\n      swap2\n      pop\n        /* \"#utility.yul\":19696:19771   */\n      tag_534\n        /* \"#utility.yul\":19767:19770   */\n      dup3\n        /* \"#utility.yul\":19758:19764   */\n      dup5\n        /* \"#utility.yul\":19696:19771   */\n      tag_327\n      jump\t// in\n    tag_534:\n        /* \"#utility.yul\":19796:19798   */\n      0x20\n        /* \"#utility.yul\":19791:19794   */\n      dup3\n        /* \"#utility.yul\":19787:19799   */\n      add\n        /* \"#utility.yul\":19780:19799   */\n      swap2\n      pop\n        /* \"#utility.yul\":19816:19819   */\n      dup2\n        /* \"#utility.yul\":19809:19819   */\n      swap1\n      pop\n        /* \"#utility.yul\":19146:19825   */\n      swap6\n      swap5\n      pop\n      pop\n      pop\n      pop\n      pop\n      jump\t// out\n        /* \"#utility.yul\":19831:20273   */\n    tag_178:\n        /* \"#utility.yul\":19980:19984   */\n      0x00\n        /* \"#utility.yul\":20018:20020   */\n      0x60\n        /* \"#utility.yul\":20007:20016   */\n      dup3\n        /* \"#utility.yul\":20003:20021   */\n      add\n        /* \"#utility.yul\":19995:20021   */\n      swap1\n      pop\n        /* \"#utility.yul\":20031:20102   */\n      tag_536\n        /* \"#utility.yul\":20099:20100   */\n      0x00\n        /* \"#utility.yul\":20088:20097   */\n      dup4\n        /* \"#utility.yul\":20084:20101   */\n      add\n        /* \"#utility.yul\":20075:20081   */\n      dup7\n        /* \"#utility.yul\":20031:20102   */\n      tag_286\n      jump\t// in\n    tag_536:\n        /* \"#utility.yul\":20112:20184   */\n      tag_537\n        /* \"#utility.yul\":20180:20182   */\n      0x20\n        /* \"#utility.yul\":20169:20178   */\n      dup4\n        /* \"#utility.yul\":20165:20183   */\n      add\n        /* \"#utility.yul\":20156:20162   */\n      dup6\n        /* \"#utility.yul\":20112:20184   */\n      tag_286\n      jump\t// in\n    tag_537:\n        /* \"#utility.yul\":20194:20266   */\n      tag_538\n        /* \"#utility.yul\":20262:20264   */\n      0x40\n        /* \"#utility.yul\":20251:20260   */\n      dup4\n        /* \"#utility.yul\":20247:20265   */\n      add\n        /* \"#utility.yul\":20238:20244   */\n      dup5\n        /* \"#utility.yul\":20194:20266   */\n      tag_286\n      jump\t// in\n    tag_538:\n        /* \"#utility.yul\":19831:20273   */\n      swap5\n      swap4\n      pop\n      pop\n      pop\n      pop\n      jump\t// out\n        /* \"#utility.yul\":20279:20454   */\n    tag_332:\n        /* \"#utility.yul\":20419:20446   */\n      0x41726561206578636565647320617661696c6162696c69747900000000000000\n        /* \"#utility.yul\":20415:20416   */\n      0x00\n        /* \"#utility.yul\":20407:20413   */\n      dup3\n        /* \"#utility.yul\":20403:20417   */\n      add\n        /* \"#utility.yul\":20396:20447   */\n      mstore\n        /* \"#utility.yul\":20279:20454   */\n      pop\n      jump\t// out\n        /* \"#utility.yul\":20460:20826   */\n    tag_333:\n        /* \"#utility.yul\":20602:20605   */\n      0x00\n        /* \"#utility.yul\":20623:20690   */\n      tag_541\n        /* \"#utility.yul\":20687:20689   */\n      0x19\n        /* \"#utility.yul\":20682:20685   */\n      dup4\n        /* \"#utility.yul\":20623:20690   */\n      tag_310\n      jump\t// in\n    tag_541:\n        /* \"#utility.yul\":20616:20690   */\n      swap2\n      pop\n        /* \"#utility.yul\":20699:20792   */\n      tag_542\n        /* \"#utility.yul\":20788:20791   */\n      dup3\n        /* \"#utility.yul\":20699:20792   */\n      tag_332\n      jump\t// in\n    tag_542:\n        /* \"#utility.yul\":20817:20819   */\n      0x20\n        /* \"#utility.yul\":20812:20815   */\n      dup3\n        /* \"#utility.yul\":20808:20820   */\n      add\n        /* \"#utility.yul\":20801:20820   */\n      swap1\n      pop\n        /* \"#utility.yul\":20460:20826   */\n      swap2\n      swap1\n      pop\n      jump\t// out\n        /* \"#utility.yul\":20832:21251   */\n    tag_190:\n        /* \"#utility.yul\":20998:21002   */\n      0x00\n        /* \"#utility.yul\":21036:21038   */\n      0x20\n        /* \"#utility.yul\":21025:21034   */\n      dup3\n        /* \"#utility.yul\":21021:21039   */\n      add\n        /* \"#utility.yul\":21013:21039   */\n      swap1\n      pop\n        /* \"#utility.yul\":21085:21094   */\n      dup2\n        /* \"#utility.yul\":21079:21083   */\n      dup2\n        /* \"#utility.yul\":21075:21095   */\n      sub\n        /* \"#utility.yul\":21071:21072   */\n      0x00\n        /* \"#utility.yul\":21060:21069   */\n      dup4\n        /* \"#utility.yul\":21056:21073   */\n      add\n        /* \"#utility.yul\":21049:21096   */\n      mstore\n        /* \"#utility.yul\":21113:21244   */\n      tag_544\n        /* \"#utility.yul\":21239:21243   */\n      dup2\n        /* \"#utility.yul\":21113:21244   */\n      tag_333\n      jump\t// in\n    tag_544:\n        /* \"#utility.yul\":21105:21244   */\n      swap1\n      pop\n        /* \"#utility.yul\":20832:21251   */\n      swap2\n      swap1\n      pop\n      jump\t// out\n        /* \"#utility.yul\":21257:21451   */\n    tag_197:\n        /* \"#utility.yul\":21297:21301   */\n      0x00\n        /* \"#utility.yul\":21317:21337   */\n      tag_546\n        /* \"#utility.yul\":21335:21336   */\n      dup3\n        /* \"#utility.yul\":21317:21337   */\n      tag_283\n      jump\t// in\n    tag_546:\n        /* \"#utility.yul\":21312:21337   */\n      swap2\n      pop\n        /* \"#utility.yul\":21351:21371   */\n      tag_547\n        /* \"#utility.yul\":21369:21370   */\n      dup4\n        /* \"#utility.yul\":21351:21371   */\n      tag_283\n      jump\t// in\n    tag_547:\n        /* \"#utility.yul\":21346:21371   */\n      swap3\n      pop\n        /* \"#utility.yul\":21395:21396   */\n      dup3\n        /* \"#utility.yul\":21392:21393   */\n      dup3\n        /* \"#utility.yul\":21388:21397   */\n      sub\n        /* \"#utility.yul\":21380:21397   */\n      swap1\n      pop\n        /* \"#utility.yul\":21419:21420   */\n      dup2\n        /* \"#utility.yul\":21413:21417   */\n      dup2\n        /* \"#utility.yul\":21410:21421   */\n      gt\n        /* \"#utility.yul\":21407:21444   */\n      iszero\n      tag_548\n      jumpi\n        /* \"#utility.yul\":21424:21442   */\n      tag_549\n      tag_313\n      jump\t// in\n    tag_549:\n        /* \"#utility.yul\":21407:21444   */\n    tag_548:\n        /* \"#utility.yul\":21257:21451   */\n      swap3\n      swap2\n      pop\n      pop\n      jump\t// out\n        /* \"#utility.yul\":21457:21637   */\n    tag_334:\n        /* \"#utility.yul\":21505:21582   */\n      0x4e487b7100000000000000000000000000000000000000000000000000000000\n        /* \"#utility.yul\":21502:21503   */\n      0x00\n        /* \"#utility.yul\":21495:21583   */\n      mstore\n        /* \"#utility.yul\":21602:21606   */\n      0x12\n        /* \"#utility.yul\":21599:21600   */\n      0x04\n        /* \"#utility.yul\":21592:21607   */\n      mstore\n        /* \"#utility.yul\":21626:21630   */\n      0x24\n        /* \"#utility.yul\":21623:21624   */\n      0x00\n        /* \"#utility.yul\":21616:21631   */\n      revert\n        /* \"#utility.yul\":21643:21828   */\n    tag_217:\n        /* \"#utility.yul\":21683:21684   */\n      0x00\n        /* \"#utility.yul\":21700:21720   */\n      tag_552\n        /* \"#utility.yul\":21718:21719   */\n      dup3\n        /* \"#utility.yul\":21700:21720   */\n      tag_283\n      jump\t// in\n    tag_552:\n        /* \"#utility.yul\":21695:21720   */\n      swap2\n      pop\n        /* \"#utility.yul\":21734:21754   */\n      tag_553\n        /* \"#utility.yul\":21752:21753   */\n      dup4\n        /* \"#utility.yul\":21734:21754   */\n      tag_283\n      jump\t// in\n    tag_553:\n        /* \"#utility.yul\":21729:21754   */\n      swap3\n      pop\n        /* \"#utility.yul\":21773:21774   */\n      dup3\n        /* \"#utility.yul\":21763:21798   */\n      tag_554\n      jumpi\n        /* \"#utility.yul\":21778:21796   */\n      tag_555\n      tag_334\n      jump\t// in\n    tag_555:\n        /* \"#utility.yul\":21763:21798   */\n    tag_554:\n        /* \"#utility.yul\":21820:21821   */\n      dup3\n        /* \"#utility.yul\":21817:21818   */\n      dup3\n        /* \"#utility.yul\":21813:21822   */\n      div\n        /* \"#utility.yul\":21808:21822   */\n      swap1\n      pop\n        /* \"#utility.yul\":21643:21828   */\n      swap3\n      swap2\n      pop\n      pop\n      jump\t// out\n        /* \"#utility.yul\":21834:21971   */\n    tag_335:\n        /* \"#utility.yul\":21888:21893   */\n      0x00\n        /* \"#utility.yul\":21919:21925   */\n      dup2\n        /* \"#utility.yul\":21913:21926   */\n      mload\n        /* \"#utility.yul\":21904:21926   */\n      swap1\n      pop\n        /* \"#utility.yul\":21935:21965   */\n      tag_557\n        /* \"#utility.yul\":21959:21964   */\n      dup2\n        /* \"#utility.yul\":21935:21965   */\n      tag_299\n      jump\t// in\n    tag_557:\n        /* \"#utility.yul\":21834:21971   */\n      swap3\n      swap2\n      pop\n      pop\n      jump\t// out\n        /* \"#utility.yul\":21977:22322   */\n    tag_238:\n        /* \"#utility.yul\":22044:22050   */\n      0x00\n        /* \"#utility.yul\":22093:22095   */\n      0x20\n        /* \"#utility.yul\":22081:22090   */\n      dup3\n        /* \"#utility.yul\":22072:22079   */\n      dup5\n        /* \"#utility.yul\":22068:22091   */\n      sub\n        /* \"#utility.yul\":22064:22096   */\n      slt\n        /* \"#utility.yul\":22061:22180   */\n      iszero\n      tag_559\n      jumpi\n        /* \"#utility.yul\":22099:22178   */\n      tag_560\n      tag_281\n      jump\t// in\n    tag_560:\n        /* \"#utility.yul\":22061:22180   */\n    tag_559:\n        /* \"#utility.yul\":22219:22220   */\n      0x00\n        /* \"#utility.yul\":22244:22305   */\n      tag_561\n        /* \"#utility.yul\":22297:22304   */\n      dup5\n        /* \"#utility.yul\":22288:22294   */\n      dup3\n        /* \"#utility.yul\":22277:22286   */\n      dup6\n        /* \"#utility.yul\":22273:22295   */\n      add\n        /* \"#utility.yul\":22244:22305   */\n      tag_335\n      jump\t// in\n    tag_561:\n        /* \"#utility.yul\":22234:22305   */\n      swap2\n      pop\n        /* \"#utility.yul\":22190:22315   */\n      pop\n        /* \"#utility.yul\":21977:22322   */\n      swap3\n      swap2\n      pop\n      pop\n      jump\t// out\n        /* \"#utility.yul\":22328:22493   */\n    tag_336:\n        /* \"#utility.yul\":22468:22485   */\n      0x5472616e73666572206661696c65640000000000000000000000000000000000\n        /* \"#utility.yul\":22464:22465   */\n      0x00\n        /* \"#utility.yul\":22456:22462   */\n      dup3\n        /* \"#utility.yul\":22452:22466   */\n      add\n        /* \"#utility.yul\":22445:22486   */\n      mstore\n        /* \"#utility.yul\":22328:22493   */\n      pop\n      jump\t// out\n        /* \"#utility.yul\":22499:22865   */\n    tag_337:\n        /* \"#utility.yul\":22641:22644   */\n      0x00\n        /* \"#utility.yul\":22662:22729   */\n      tag_564\n        /* \"#utility.yul\":22726:22728   */\n      0x0f\n        /* \"#utility.yul\":22721:22724   */\n      dup4\n        /* \"#utility.yul\":22662:22729   */\n      tag_310\n      jump\t// in\n    tag_564:\n        /* \"#utility.yul\":22655:22729   */\n      swap2\n      pop\n        /* \"#utility.yul\":22738:22831   */\n      tag_565\n        /* \"#utility.yul\":22827:22830   */\n      dup3\n        /* \"#utility.yul\":22738:22831   */\n      tag_336\n      jump\t// in\n    tag_565:\n        /* \"#utility.yul\":22856:22858   */\n      0x20\n        /* \"#utility.yul\":22851:22854   */\n      dup3\n        /* \"#utility.yul\":22847:22859   */\n      add\n        /* \"#utility.yul\":22840:22859   */\n      swap1\n      pop\n        /* \"#utility.yul\":22499:22865   */\n      swap2\n      swap1\n      pop\n      jump\t// out\n        /* \"#utility.yul\":22871:23290   */\n    tag_241:\n        /* \"#utility.yul\":23037:23041   */\n      0x00\n        /* \"#utility.yul\":23075:23077   */\n      0x20\n        /* \"#utility.yul\":23064:23073   */\n      dup3\n        /* \"#utility.yul\":23060:23078   */\n      add\n        /* \"#utility.yul\":23052:23078   */\n      swap1\n      pop\n        /* \"#utility.yul\":23124:23133   */\n      dup2\n        /* \"#utility.yul\":23118:23122   */\n      dup2\n        /* \"#utility.yul\":23114:23134   */\n      sub\n        /* \"#utility.yul\":23110:23111   */\n      0x00\n        /* \"#utility.yul\":23099:23108   */\n      dup4\n        /* \"#utility.yul\":23095:23112   */\n      add\n        /* \"#utility.yul\":23088:23135   */\n      mstore\n        /* \"#utility.yul\":23152:23283   */\n      tag_567\n        /* \"#utility.yul\":23278:23282   */\n      dup2\n        /* \"#utility.yul\":23152:23283   */\n      tag_337\n      jump\t// in\n    tag_567:\n        /* \"#utility.yul\":23144:23283   */\n      swap1\n      pop\n        /* \"#utility.yul\":22871:23290   */\n      swap2\n      swap1\n      pop\n      jump\t// out\n        /* \"#utility.yul\":23296:23477   */\n    tag_338:\n        /* \"#utility.yul\":23436:23469   */\n      0x5265656e7472616e637947756172643a207265656e7472616e742063616c6c00\n        /* \"#utility.yul\":23432:23433   */\n      0x00\n        /* \"#utility.yul\":23424:23430   */\n      dup3\n        /* \"#utility.yul\":23420:23434   */\n      add\n        /* \"#utility.yul\":23413:23470   */\n      mstore\n        /* \"#utility.yul\":23296:23477   */\n      pop\n      jump\t// out\n        /* \"#utility.yul\":23483:23849   */\n    tag_339:\n        /* \"#utility.yul\":23625:23628   */\n      0x00\n        /* \"#utility.yul\":23646:23713   */\n      tag_570\n        /* \"#utility.yul\":23710:23712   */\n      0x1f\n        /* \"#utility.yul\":23705:23708   */\n      dup4\n        /* \"#utility.yul\":23646:23713   */\n      tag_310\n      jump\t// in\n    tag_570:\n        /* \"#utility.yul\":23639:23713   */\n      swap2\n      pop\n        /* \"#utility.yul\":23722:23815   */\n      tag_571\n        /* \"#utility.yul\":23811:23814   */\n      dup3\n        /* \"#utility.yul\":23722:23815   */\n      tag_338\n      jump\t// in\n    tag_571:\n        /* \"#utility.yul\":23840:23842   */\n      0x20\n        /* \"#utility.yul\":23835:23838   */\n      dup3\n        /* \"#utility.yul\":23831:23843   */\n      add\n        /* \"#utility.yul\":23824:23843   */\n      swap1\n      pop\n        /* \"#utility.yul\":23483:23849   */\n      swap2\n      swap1\n      pop\n      jump\t// out\n        /* \"#utility.yul\":23855:24274   */\n    tag_249:\n        /* \"#utility.yul\":24021:24025   */\n      0x00\n        /* \"#utility.yul\":24059:24061   */\n      0x20\n        /* \"#utility.yul\":24048:24057   */\n      dup3\n        /* \"#utility.yul\":24044:24062   */\n      add\n        /* \"#utility.yul\":24036:24062   */\n      swap1\n      pop\n        /* \"#utility.yul\":24108:24117   */\n      dup2\n        /* \"#utility.yul\":24102:24106   */\n      dup2\n        /* \"#utility.yul\":24098:24118   */\n      sub\n        /* \"#utility.yul\":24094:24095   */\n      0x00\n        /* \"#utility.yul\":24083:24092   */\n      dup4\n        /* \"#utility.yul\":24079:24096   */\n      add\n        /* \"#utility.yul\":24072:24119   */\n      mstore\n        /* \"#utility.yul\":24136:24267   */\n      tag_573\n        /* \"#utility.yul\":24262:24266   */\n      dup2\n        /* \"#utility.yul\":24136:24267   */\n      tag_339\n      jump\t// in\n    tag_573:\n        /* \"#utility.yul\":24128:24267   */\n      swap1\n      pop\n        /* \"#utility.yul\":23855:24274   */\n      swap2\n      swap1\n      pop\n      jump\t// out\n        /* \"#utility.yul\":24280:24722   */\n    tag_252:\n        /* \"#utility.yul\":24429:24433   */\n      0x00\n        /* \"#utility.yul\":24467:24469   */\n      0x60\n        /* \"#utility.yul\":24456:24465   */\n      dup3\n        /* \"#utility.yul\":24452:24470   */\n      add\n        /* \"#utility.yul\":24444:24470   */\n      swap1\n      pop\n        /* \"#utility.yul\":24480:24551   */\n      tag_575\n        /* \"#utility.yul\":24548:24549   */\n      0x00\n        /* \"#utility.yul\":24537:24546   */\n      dup4\n        /* \"#utility.yul\":24533:24550   */\n      add\n        /* \"#utility.yul\":24524:24530   */\n      dup7\n        /* \"#utility.yul\":24480:24551   */\n      tag_308\n      jump\t// in\n    tag_575:\n        /* \"#utility.yul\":24561:24633   */\n      tag_576\n        /* \"#utility.yul\":24629:24631   */\n      0x20\n        /* \"#utility.yul\":24618:24627   */\n      dup4\n        /* \"#utility.yul\":24614:24632   */\n      add\n        /* \"#utility.yul\":24605:24611   */\n      dup6\n        /* \"#utility.yul\":24561:24633   */\n      tag_308\n      jump\t// in\n    tag_576:\n        /* \"#utility.yul\":24643:24715   */\n      tag_577\n        /* \"#utility.yul\":24711:24713   */\n      0x40\n        /* \"#utility.yul\":24700:24709   */\n      dup4\n        /* \"#utility.yul\":24696:24714   */\n      add\n        /* \"#utility.yul\":24687:24693   */\n      dup5\n        /* \"#utility.yul\":24643:24715   */\n      tag_286\n      jump\t// in\n    tag_577:\n        /* \"#utility.yul\":24280:24722   */\n      swap5\n      swap4\n      pop\n      pop\n      pop\n      pop\n      jump\t// out\n        /* \"#utility.yul\":24728:24908   */\n    tag_265:\n        /* \"#utility.yul\":24776:24853   */\n      0x4e487b7100000000000000000000000000000000000000000000000000000000\n        /* \"#utility.yul\":24773:24774   */\n      0x00\n        /* \"#utility.yul\":24766:24854   */\n      mstore\n        /* \"#utility.yul\":24873:24877   */\n      0x32\n        /* \"#utility.yul\":24870:24871   */\n      0x04\n        /* \"#utility.yul\":24863:24878   */\n      mstore\n        /* \"#utility.yul\":24897:24901   */\n      0x24\n        /* \"#utility.yul\":24894:24895   */\n      0x00\n        /* \"#utility.yul\":24887:24902   */\n      revert\n        /* \"#utility.yul\":24914:25094   */\n    tag_277:\n        /* \"#utility.yul\":24962:25039   */\n      0x4e487b7100000000000000000000000000000000000000000000000000000000\n        /* \"#utility.yul\":24959:24960   */\n      0x00\n        /* \"#utility.yul\":24952:25040   */\n      mstore\n        /* \"#utility.yul\":25059:25063   */\n      0x31\n        /* \"#utility.yul\":25056:25057   */\n      0x04\n        /* \"#utility.yul\":25049:25064   */\n      mstore\n        /* \"#utility.yul\":25083:25087   */\n      0x24\n        /* \"#utility.yul\":25080:25081   */\n      0x00\n        /* \"#utility.yul\":25073:25088   */\n      revert\n\n    auxdata: 0xa2646970667358221220e5b4f6fc17f0f99dab648b7087ab64b26e5be7089176c93c245ff34dcd0a468f64736f6c634300081e0033\n}\n",
				"bytecode": {
					"linkReferences": {},
					"object": "60c0604052681b1ae4d6e2ef50000060035560c8600455348015610021575f5ffd5b506040516126eb3803806126eb8339818101604052810190610043919061036c565b335f73ffffffffffffffffffffffffffffffffffffffff168173ffffffffffffffffffffffffffffffffffffffff16036100b4575f6040517f1e4fbdf70000000000000000000000000000000000000000000000000000000081526004016100ab91906103b9565b60405180910390fd5b6100c38161021760201b60201c565b5060016002819055505f73ffffffffffffffffffffffffffffffffffffffff168273ffffffffffffffffffffffffffffffffffffffff160361013a576040517f08c379a00000000000000000000000000000000000000000000000000000000081526004016101319061042c565b60405180910390fd5b5f73ffffffffffffffffffffffffffffffffffffffff168173ffffffffffffffffffffffffffffffffffffffff16036101a8576040517f08c379a000000000000000000000000000000000000000000000000000000000815260040161019f90610494565b60405180910390fd5b8173ffffffffffffffffffffffffffffffffffffffff1660808173ffffffffffffffffffffffffffffffffffffffff16815250508073ffffffffffffffffffffffffffffffffffffffff1660a08173ffffffffffffffffffffffffffffffffffffffff168152505050506104b2565b60015f6101000a81549073ffffffffffffffffffffffffffffffffffffffff021916905561024a8161024d60201b60201c565b50565b5f5f5f9054906101000a900473ffffffffffffffffffffffffffffffffffffffff169050815f5f6101000a81548173ffffffffffffffffffffffffffffffffffffffff021916908373ffffffffffffffffffffffffffffffffffffffff1602179055508173ffffffffffffffffffffffffffffffffffffffff168173ffffffffffffffffffffffffffffffffffffffff167f8be0079c531659141344cd1fd0a4f28419497f9722a3daafe3b4186f6b6457e060405160405180910390a35050565b5f5ffd5b5f73ffffffffffffffffffffffffffffffffffffffff82169050919050565b5f61033b82610312565b9050919050565b61034b81610331565b8114610355575f5ffd5b50565b5f8151905061036681610342565b92915050565b5f5f604083850312156103825761038161030e565b5b5f61038f85828601610358565b92505060206103a085828601610358565b9150509250929050565b6103b381610331565b82525050565b5f6020820190506103cc5f8301846103aa565b92915050565b5f82825260208201905092915050565b7f496e76616c6964204e46542061646472657373000000000000000000000000005f82015250565b5f6104166013836103d2565b9150610421826103e2565b602082019050919050565b5f6020820190508181035f8301526104438161040a565b9050919050565b7f496e76616c696420746f6b656e206164647265737300000000000000000000005f82015250565b5f61047e6015836103d2565b91506104898261044a565b602082019050919050565b5f6020820190508181035f8301526104ab81610472565b9050919050565b60805160a0516121e061050b5f395f81816104dc01528181610579015281816105c90152818161099601528181610d3a0152610e4001525f81816105a5015281816108a8015281816109bf0152610dad01526121e05ff3fe608060405234801561000f575f5ffd5b506004361061012a575f3560e01c806387c35bc0116100ab578063c5c925851161006f578063c5c92585146102d4578063e30c3978146102f2578063f2fde38b14610310578063f71b08c21461032c578063fb05da2e1461034a5761012a565b806387c35bc0146102425780638cb40010146102605780638da5cb5b1461027c578063a772c9271461029a578063ab593ff2146102b65761012a565b806352752c47116100f257806352752c47146101d85780635a19c201146101f65780636db7943714610212578063715018a61461022e57806379ba5097146102385761012a565b8063033bab251461012e578063078b983714610162578063164e68de1461018057806337f768381461019c5780634a213805146101ba575b5f5ffd5b610148600480360381019061014391906115f3565b61037f565b604051610159959493929190611640565b60405180910390f35b61016a6104cc565b6040516101779190611691565b60405180910390f35b61019a60048036038101906101959190611704565b6104d1565b005b6101a46105a3565b6040516101b1919061178a565b60405180910390f35b6101c26105c7565b6040516101cf91906117c3565b60405180910390f35b6101e06105eb565b6040516101ed9190611691565b60405180910390f35b610210600480360381019061020b9190611811565b6105f1565b005b61022c600480360381019061022791906115f3565b61068a565b005b610236610722565b005b610240610735565b005b61024a6107c3565b6040516102579190611906565b60405180910390f35b61027a60048036038101906102759190611926565b610819565b005b610284610be8565b6040516102919190611985565b60405180910390f35b6102b460048036038101906102af91906115f3565b610c0f565b005b6102be610ef2565b6040516102cb9190611691565b60405180910390f35b6102dc610ef8565b6040516102e99190611691565b60405180910390f35b6102fa610efe565b6040516103079190611985565b60405180910390f35b61032a60048036038101906103259190611704565b610f26565b005b610334610fd2565b6040516103419190611691565b60405180910390f35b610364600480360381019061035f919061199e565b610fd8565b604051610376969594939291906119d8565b60405180910390f35b5f5f5f5f5f5f60055f8981526020019081526020015f206040518060c00160405290815f82015f9054906101000a900473ffffffffffffffffffffffffffffffffffffffff1673ffffffffffffffffffffffffffffffffffffffff1673ffffffffffffffffffffffffffffffffffffffff16815260200160018201548152602001600282015481526020016003820154815260200160048201548152602001600582015f9054906101000a900460ff16151515158152505090508060a0015161047d576040517f08c379a000000000000000000000000000000000000000000000000000000000815260040161047490611a91565b60405180910390fd5b86816040015161048d9190611adc565b955061049c86825f01516110c6565b8095508197508296505050508385876104b59190611b1d565b6104bf9190611b1d565b9150509295509295909350565b60fa81565b6104d96111a7565b5f7f000000000000000000000000000000000000000000000000000000000000000073ffffffffffffffffffffffffffffffffffffffff166370a08231306040518263ffffffff1660e01b81526004016105339190611985565b602060405180830381865afa15801561054e573d5f5f3e3d5ffd5b505050506040513d601f19601f820116820180604052508101906105729190611b64565b905061059f7f0000000000000000000000000000000000000000000000000000000000000000838361122e565b5050565b7f000000000000000000000000000000000000000000000000000000000000000081565b7f000000000000000000000000000000000000000000000000000000000000000081565b6101f481565b6105f96111a7565b8060075f8473ffffffffffffffffffffffffffffffffffffffff1673ffffffffffffffffffffffffffffffffffffffff1681526020019081526020015f205f6101000a81548160ff0219169083151502179055507f13223e804b38e2ad53b2cd366f7390d3fbf67b00e52de4c9b096d6143d001469828260405161067e929190611b8f565b60405180910390a15050565b6106926111a7565b6101f48111156106d7576040517f08c379a00000000000000000000000000000000000000000000000000000000081526004016106ce90611c00565b60405180910390fd5b81600381905550806004819055507f5c6323bf1c2d7aaea2c091a4751c1c87af7f2864650c336507a77d0557af37a18282604051610716929190611c1e565b60405180910390a15050565b61072a6111a7565b6107335f6112ed565b565b5f61073e61131d565b90508073ffffffffffffffffffffffffffffffffffffffff1661075f610efe565b73ffffffffffffffffffffffffffffffffffffffff16146107b757806040517f118cdaa70000000000000000000000000000000000000000000000000000000081526004016107ae9190611985565b60405180910390fd5b6107c0816112ed565b50565b6060600680548060200260200160405190810160405280929190818152602001828054801561080f57602002820191905f5260205f20905b8154815260200190600101908083116107fb575b5050505050905090565b610821611324565b5f8211610863576040517f08c379a000000000000000000000000000000000000000000000000000000000815260040161085a90611c8f565b60405180910390fd5b5f81116108a5576040517f08c379a000000000000000000000000000000000000000000000000000000000815260040161089c90611cf7565b60405180910390fd5b807f000000000000000000000000000000000000000000000000000000000000000073ffffffffffffffffffffffffffffffffffffffff1662fdd58e33866040518363ffffffff1660e01b8152600401610900929190611d15565b602060405180830381865afa15801561091b573d5f5f3e3d5ffd5b505050506040513d601f19601f8201168201806040525081019061093f9190611b64565b1015610980576040517f08c379a000000000000000000000000000000000000000000000000000000000815260040161097790611d86565b60405180910390fd5b5f8160035461098f9190611adc565b90506109bd7f0000000000000000000000000000000000000000000000000000000000000000333084611371565b7f000000000000000000000000000000000000000000000000000000000000000073ffffffffffffffffffffffffffffffffffffffff1663f242432a333087866040518563ffffffff1660e01b8152600401610a1c9493929190611dd7565b5f604051808303815f87803b158015610a33575f5ffd5b505af1158015610a45573d5f5f3e3d5ffd5b505050505f84334285604051602001610a619493929190611e92565b604051602081830303815290604052805190602001205f1c90506040518060c001604052803373ffffffffffffffffffffffffffffffffffffffff1681526020018681526020018581526020018481526020018481526020016001151581525060055f8381526020019081526020015f205f820151815f015f6101000a81548173ffffffffffffffffffffffffffffffffffffffff021916908373ffffffffffffffffffffffffffffffffffffffff1602179055506020820151816001015560408201518160020155606082015181600301556080820151816004015560a0820151816005015f6101000a81548160ff021916908315150217905550905050600681908060018154018082558091505060019003905f5260205f20015f90919091909150553373ffffffffffffffffffffffffffffffffffffffff16817febe5022e5e01629ce50ec667b3f3333ec2ad62233a476b8c78afbc36fd931d74878787604051610bd193929190611edf565b60405180910390a35050610be3611433565b505050565b5f5f5f9054906101000a900473ffffffffffffffffffffffffffffffffffffffff16905090565b610c17611324565b8160055f8281526020019081526020015f206005015f9054906101000a900460ff16610c78576040517f08c379a0000000000000000000000000000000000000000000000000000000008152600401610c6f90611a91565b60405180910390fd5b5f60055f8581526020019081526020015f2090508060040154831115610cd3576040517f08c379a0000000000000000000000000000000000000000000000000000000008152600401610cca90611f5e565b60405180910390fd5b5f838260020154610ce49190611adc565b90505f5f5f610d1584865f015f9054906101000a900473ffffffffffffffffffffffffffffffffffffffff166110c6565b9250925092505f838386610d299190611b1d565b610d339190611b1d565b9050610d617f0000000000000000000000000000000000000000000000000000000000000000333084611371565b87866004015f828254610d749190611f7c565b925050819055505f866004015403610dab575f866005015f6101000a81548160ff021916908315150217905550610daa8961143d565b5b7f000000000000000000000000000000000000000000000000000000000000000073ffffffffffffffffffffffffffffffffffffffff1663f242432a303389600101548c6040518563ffffffff1660e01b8152600401610e0e9493929190611dd7565b5f604051808303815f87803b158015610e25575f5ffd5b505af1158015610e37573d5f5f3e3d5ffd5b50505050610e887f0000000000000000000000000000000000000000000000000000000000000000875f015f9054906101000a900473ffffffffffffffffffffffffffffffffffffffff168461122e565b3373ffffffffffffffffffffffffffffffffffffffff16897fbbc7d6007e204a02e0d5c742381ea5b6b2d01ab4c9c0c1b9afab201f1a3474cb8a88878988604051610ed7959493929190611640565b60405180910390a350505050505050610eee611433565b5050565b61044c81565b60045481565b5f60015f9054906101000a900473ffffffffffffffffffffffffffffffffffffffff16905090565b610f2e6111a7565b8060015f6101000a81548173ffffffffffffffffffffffffffffffffffffffff021916908373ffffffffffffffffffffffffffffffffffffffff1602179055508073ffffffffffffffffffffffffffffffffffffffff16610f8d610be8565b73ffffffffffffffffffffffffffffffffffffffff167f38d16b8cac22d99fc7c124b9cd0de2d3fa1faef420bfe791d8c362d765e2270060405160405180910390a350565b60035481565b5f5f5f5f5f5f5f60055f8981526020019081526020015f206040518060c00160405290815f82015f9054906101000a900473ffffffffffffffffffffffffffffffffffffffff1673ffffffffffffffffffffffffffffffffffffffff1673ffffffffffffffffffffffffffffffffffffffff16815260200160018201548152602001600282015481526020016003820154815260200160048201548152602001600582015f9054906101000a900460ff1615151515815250509050805f015181602001518260400151836060015184608001518560a001519650965096509650965096505091939550919395565b5f5f5f612710600454866110da9190611adc565b6110e49190611fdc565b915061271060fa6101f46110f89190611b1d565b866111039190611adc565b61110d9190611fdc565b925060075f8573ffffffffffffffffffffffffffffffffffffffff1673ffffffffffffffffffffffffffffffffffffffff1681526020019081526020015f205f9054906101000a900460ff16156111875761271061044c8661116f9190611adc565b6111799190611fdc565b836111849190611b1d565b92505b8282866111949190611f7c565b61119e9190611f7c565b90509250925092565b6111af61131d565b73ffffffffffffffffffffffffffffffffffffffff166111cd610be8565b73ffffffffffffffffffffffffffffffffffffffff161461122c576111f061131d565b6040517f118cdaa70000000000000000000000000000000000000000000000000000000081526004016112239190611985565b60405180910390fd5b565b8273ffffffffffffffffffffffffffffffffffffffff1663a9059cbb83836040518363ffffffff1660e01b8152600401611269929190611d15565b6020604051808303815f875af1158015611285573d5f5f3e3d5ffd5b505050506040513d601f19601f820116820180604052508101906112a99190612020565b6112e8576040517f08c379a00000000000000000000000000000000000000000000000000000000081526004016112df90612095565b60405180910390fd5b505050565b60015f6101000a81549073ffffffffffffffffffffffffffffffffffffffff021916905561131a816114fb565b50565b5f33905090565b6002805403611368576040517f08c379a000000000000000000000000000000000000000000000000000000000815260040161135f906120fd565b60405180910390fd5b60028081905550565b8373ffffffffffffffffffffffffffffffffffffffff166323b872dd8484846040518463ffffffff1660e01b81526004016113ae9392919061211b565b6020604051808303815f875af11580156113ca573d5f5f3e3d5ffd5b505050506040513d601f19601f820116820180604052508101906113ee9190612020565b61142d576040517f08c379a000000000000000000000000000000000000000000000000000000000815260040161142490612095565b60405180910390fd5b50505050565b6001600281905550565b5f5f90505b6006805490508110156114f757816006828154811061146457611463612150565b5b905f5260205f200154036114ea57600660016006805490506114869190611f7c565b8154811061149757611496612150565b5b905f5260205f200154600682815481106114b4576114b3612150565b5b905f5260205f20018190555060068054806114d2576114d161217d565b5b600190038181905f5260205f20015f905590556114f7565b8080600101915050611442565b5050565b5f5f5f9054906101000a900473ffffffffffffffffffffffffffffffffffffffff169050815f5f6101000a81548173ffffffffffffffffffffffffffffffffffffffff021916908373ffffffffffffffffffffffffffffffffffffffff1602179055508173ffffffffffffffffffffffffffffffffffffffff168173ffffffffffffffffffffffffffffffffffffffff167f8be0079c531659141344cd1fd0a4f28419497f9722a3daafe3b4186f6b6457e060405160405180910390a35050565b5f5ffd5b5f819050919050565b6115d2816115c0565b81146115dc575f5ffd5b50565b5f813590506115ed816115c9565b92915050565b5f5f60408385031215611609576116086115bc565b5b5f611616858286016115df565b9250506020611627858286016115df565b9150509250929050565b61163a816115c0565b82525050565b5f60a0820190506116535f830188611631565b6116606020830187611631565b61166d6040830186611631565b61167a6060830185611631565b6116876080830184611631565b9695505050505050565b5f6020820190506116a45f830184611631565b92915050565b5f73ffffffffffffffffffffffffffffffffffffffff82169050919050565b5f6116d3826116aa565b9050919050565b6116e3816116c9565b81146116ed575f5ffd5b50565b5f813590506116fe816116da565b92915050565b5f60208284031215611719576117186115bc565b5b5f611726848285016116f0565b91505092915050565b5f819050919050565b5f61175261174d611748846116aa565b61172f565b6116aa565b9050919050565b5f61176382611738565b9050919050565b5f61177482611759565b9050919050565b6117848161176a565b82525050565b5f60208201905061179d5f83018461177b565b92915050565b5f6117ad82611759565b9050919050565b6117bd816117a3565b82525050565b5f6020820190506117d65f8301846117b4565b92915050565b5f8115159050919050565b6117f0816117dc565b81146117fa575f5ffd5b50565b5f8135905061180b816117e7565b92915050565b5f5f60408385031215611827576118266115bc565b5b5f611834858286016116f0565b9250506020611845858286016117fd565b9150509250929050565b5f81519050919050565b5f82825260208201905092915050565b5f819050602082019050919050565b611881816115c0565b82525050565b5f6118928383611878565b60208301905092915050565b5f602082019050919050565b5f6118b48261184f565b6118be8185611859565b93506118c983611869565b805f5b838110156118f95781516118e08882611887565b97506118eb8361189e565b9250506001810190506118cc565b5085935050505092915050565b5f6020820190508181035f83015261191e81846118aa565b905092915050565b5f5f5f6060848603121561193d5761193c6115bc565b5b5f61194a868287016115df565b935050602061195b868287016115df565b925050604061196c868287016115df565b9150509250925092565b61197f816116c9565b82525050565b5f6020820190506119985f830184611976565b92915050565b5f602082840312156119b3576119b26115bc565b5b5f6119c0848285016115df565b91505092915050565b6119d2816117dc565b82525050565b5f60c0820190506119eb5f830189611976565b6119f86020830188611631565b611a056040830187611631565b611a126060830186611631565b611a1f6080830185611631565b611a2c60a08301846119c9565b979650505050505050565b5f82825260208201905092915050565b7f4c697374696e6720696e616374697665000000000000000000000000000000005f82015250565b5f611a7b601083611a37565b9150611a8682611a47565b602082019050919050565b5f6020820190508181035f830152611aa881611a6f565b9050919050565b7f4e487b71000000000000000000000000000000000000000000000000000000005f52601160045260245ffd5b5f611ae6826115c0565b9150611af1836115c0565b9250828202611aff816115c0565b91508282048414831517611b1657611b15611aaf565b5b5092915050565b5f611b27826115c0565b9150611b32836115c0565b9250828201905080821115611b4a57611b49611aaf565b5b92915050565b5f81519050611b5e816115c9565b92915050565b5f60208284031215611b7957611b786115bc565b5b5f611b8684828501611b50565b91505092915050565b5f604082019050611ba25f830185611976565b611baf60208301846119c9565b9392505050565b7f46656520746f6f206869676800000000000000000000000000000000000000005f82015250565b5f611bea600c83611a37565b9150611bf582611bb6565b602082019050919050565b5f6020820190508181035f830152611c1781611bde565b9050919050565b5f604082019050611c315f830185611631565b611c3e6020830184611631565b9392505050565b7f5072696365206d75737420626520706f736974697665000000000000000000005f82015250565b5f611c79601683611a37565b9150611c8482611c45565b602082019050919050565b5f6020820190508181035f830152611ca681611c6d565b9050919050565b7f41726561206d75737420626520706f73697469766500000000000000000000005f82015250565b5f611ce1601583611a37565b9150611cec82611cad565b602082019050919050565b5f6020820190508181035f830152611d0e81611cd5565b9050919050565b5f604082019050611d285f830185611976565b611d356020830184611631565b9392505050565b7f496e73756666696369656e742062616c616e63650000000000000000000000005f82015250565b5f611d70601483611a37565b9150611d7b82611d3c565b602082019050919050565b5f6020820190508181035f830152611d9d81611d64565b9050919050565b5f82825260208201905092915050565b50565b5f611dc25f83611da4565b9150611dcd82611db4565b5f82019050919050565b5f60a082019050611dea5f830187611976565b611df76020830186611976565b611e046040830185611631565b611e116060830184611631565b8181036080830152611e2281611db7565b905095945050505050565b5f819050919050565b611e47611e42826115c0565b611e2d565b82525050565b5f8160601b9050919050565b5f611e6382611e4d565b9050919050565b5f611e7482611e59565b9050919050565b611e8c611e87826116c9565b611e6a565b82525050565b5f611e9d8287611e36565b602082019150611ead8286611e7b565b601482019150611ebd8285611e36565b602082019150611ecd8284611e36565b60208201915081905095945050505050565b5f606082019050611ef25f830186611631565b611eff6020830185611631565b611f0c6040830184611631565b949350505050565b7f41726561206578636565647320617661696c6162696c697479000000000000005f82015250565b5f611f48601983611a37565b9150611f5382611f14565b602082019050919050565b5f6020820190508181035f830152611f7581611f3c565b9050919050565b5f611f86826115c0565b9150611f91836115c0565b9250828203905081811115611fa957611fa8611aaf565b5b92915050565b7f4e487b71000000000000000000000000000000000000000000000000000000005f52601260045260245ffd5b5f611fe6826115c0565b9150611ff1836115c0565b92508261200157612000611faf565b5b828204905092915050565b5f8151905061201a816117e7565b92915050565b5f60208284031215612035576120346115bc565b5b5f6120428482850161200c565b91505092915050565b7f5472616e73666572206661696c656400000000000000000000000000000000005f82015250565b5f61207f600f83611a37565b915061208a8261204b565b602082019050919050565b5f6020820190508181035f8301526120ac81612073565b9050919050565b7f5265656e7472616e637947756172643a207265656e7472616e742063616c6c005f82015250565b5f6120e7601f83611a37565b91506120f2826120b3565b602082019050919050565b5f6020820190508181035f830152612114816120db565b9050919050565b5f60608201905061212e5f830186611976565b61213b6020830185611976565b6121486040830184611631565b949350505050565b7f4e487b71000000000000000000000000000000000000000000000000000000005f52603260045260245ffd5b7f4e487b71000000000000000000000000000000000000000000000000000000005f52603160045260245ffdfea2646970667358221220e5b4f6fc17f0f99dab648b7087ab64b26e5be7089176c93c245ff34dcd0a468f64736f6c634300081e0033",
					"opcodes": "PUSH1 0xC0 PUSH1 0x40 MSTORE PUSH9 0x1B1AE4D6E2EF500000 PUSH1 0x3 SSTORE PUSH1 0xC8 PUSH1 0x4 SSTORE CALLVALUE DUP1 ISZERO PUSH2 0x21 JUMPI PUSH0 PUSH0 REVERT JUMPDEST POP PUSH1 0x40 MLOAD PUSH2 0x26EB CODESIZE SUB DUP1 PUSH2 0x26EB DUP4 CODECOPY DUP2 DUP2 ADD PUSH1 0x40 MSTORE DUP2 ADD SWAP1 PUSH2 0x43 SWAP2 SWAP1 PUSH2 0x36C JUMP JUMPDEST CALLER PUSH0 PUSH20 0xFFFFFFFFFFFFFFFFFFFFFFFFFFFFFFFFFFFFFFFF AND DUP2 PUSH20 0xFFFFFFFFFFFFFFFFFFFFFFFFFFFFFFFFFFFFFFFF AND SUB PUSH2 0xB4 JUMPI PUSH0 PUSH1 0x40 MLOAD PUSH32 0x1E4FBDF700000000000000000000000000000000000000000000000000000000 DUP2 MSTORE PUSH1 0x4 ADD PUSH2 0xAB SWAP2 SWAP1 PUSH2 0x3B9 JUMP JUMPDEST PUSH1 0x40 MLOAD DUP1 SWAP2 SUB SWAP1 REVERT JUMPDEST PUSH2 0xC3 DUP2 PUSH2 0x217 PUSH1 0x20 SHL PUSH1 0x20 SHR JUMP JUMPDEST POP PUSH1 0x1 PUSH1 0x2 DUP2 SWAP1 SSTORE POP PUSH0 PUSH20 0xFFFFFFFFFFFFFFFFFFFFFFFFFFFFFFFFFFFFFFFF AND DUP3 PUSH20 0xFFFFFFFFFFFFFFFFFFFFFFFFFFFFFFFFFFFFFFFF AND SUB PUSH2 0x13A JUMPI PUSH1 0x40 MLOAD PUSH32 0x8C379A000000000000000000000000000000000000000000000000000000000 DUP2 MSTORE PUSH1 0x4 ADD PUSH2 0x131 SWAP1 PUSH2 0x42C JUMP JUMPDEST PUSH1 0x40 MLOAD DUP1 SWAP2 SUB SWAP1 REVERT JUMPDEST PUSH0 PUSH20 0xFFFFFFFFFFFFFFFFFFFFFFFFFFFFFFFFFFFFFFFF AND DUP2 PUSH20 0xFFFFFFFFFFFFFFFFFFFFFFFFFFFFFFFFFFFFFFFF AND SUB PUSH2 0x1A8 JUMPI PUSH1 0x40 MLOAD PUSH32 0x8C379A000000000000000000000000000000000000000000000000000000000 DUP2 MSTORE PUSH1 0x4 ADD PUSH2 0x19F SWAP1 PUSH2 0x494 JUMP JUMPDEST PUSH1 0x40 MLOAD DUP1 SWAP2 SUB SWAP1 REVERT JUMPDEST DUP2 PUSH20 0xFFFFFFFFFFFFFFFFFFFFFFFFFFFFFFFFFFFFFFFF AND PUSH1 0x80 DUP2 PUSH20 0xFFFFFFFFFFFFFFFFFFFFFFFFFFFFFFFFFFFFFFFF AND DUP2 MSTORE POP POP DUP1 PUSH20 0xFFFFFFFFFFFFFFFFFFFFFFFFFFFFFFFFFFFFFFFF AND PUSH1 0xA0 DUP2 PUSH20 0xFFFFFFFFFFFFFFFFFFFFFFFFFFFFFFFFFFFFFFFF AND DUP2 MSTORE POP POP POP POP PUSH2 0x4B2 JUMP JUMPDEST PUSH1 0x1 PUSH0 PUSH2 0x100 EXP DUP2 SLOAD SWAP1 PUSH20 0xFFFFFFFFFFFFFFFFFFFFFFFFFFFFFFFFFFFFFFFF MUL NOT AND SWAP1 SSTORE PUSH2 0x24A DUP2 PUSH2 0x24D PUSH1 0x20 SHL PUSH1 0x20 SHR JUMP JUMPDEST POP JUMP JUMPDEST PUSH0 PUSH0 PUSH0 SWAP1 SLOAD SWAP1 PUSH2 0x100 EXP SWAP1 DIV PUSH20 0xFFFFFFFFFFFFFFFFFFFFFFFFFFFFFFFFFFFFFFFF AND SWAP1 POP DUP2 PUSH0 PUSH0 PUSH2 0x100 EXP DUP2 SLOAD DUP2 PUSH20 0xFFFFFFFFFFFFFFFFFFFFFFFFFFFFFFFFFFFFFFFF MUL NOT AND SWAP1 DUP4 PUSH20 0xFFFFFFFFFFFFFFFFFFFFFFFFFFFFFFFFFFFFFFFF AND MUL OR SWAP1 SSTORE POP DUP2 PUSH20 0xFFFFFFFFFFFFFFFFFFFFFFFFFFFFFFFFFFFFFFFF AND DUP2 PUSH20 0xFFFFFFFFFFFFFFFFFFFFFFFFFFFFFFFFFFFFFFFF AND PUSH32 0x8BE0079C531659141344CD1FD0A4F28419497F9722A3DAAFE3B4186F6B6457E0 PUSH1 0x40 MLOAD PUSH1 0x40 MLOAD DUP1 SWAP2 SUB SWAP1 LOG3 POP POP JUMP JUMPDEST PUSH0 PUSH0 REVERT JUMPDEST PUSH0 PUSH20 0xFFFFFFFFFFFFFFFFFFFFFFFFFFFFFFFFFFFFFFFF DUP3 AND SWAP1 POP SWAP2 SWAP1 POP JUMP JUMPDEST PUSH0 PUSH2 0x33B DUP3 PUSH2 0x312 JUMP JUMPDEST SWAP1 POP SWAP2 SWAP1 POP JUMP JUMPDEST PUSH2 0x34B DUP2 PUSH2 0x331 JUMP JUMPDEST DUP2 EQ PUSH2 0x355 JUMPI PUSH0 PUSH0 REVERT JUMPDEST POP JUMP JUMPDEST PUSH0 DUP2 MLOAD SWAP1 POP PUSH2 0x366 DUP2 PUSH2 0x342 JUMP JUMPDEST SWAP3 SWAP2 POP POP JUMP JUMPDEST PUSH0 PUSH0 PUSH1 0x40 DUP4 DUP6 SUB SLT ISZERO PUSH2 0x382 JUMPI PUSH2 0x381 PUSH2 0x30E JUMP JUMPDEST JUMPDEST PUSH0 PUSH2 0x38F DUP6 DUP3 DUP7 ADD PUSH2 0x358 JUMP JUMPDEST SWAP3 POP POP PUSH1 0x20 PUSH2 0x3A0 DUP6 DUP3 DUP7 ADD PUSH2 0x358 JUMP JUMPDEST SWAP2 POP POP SWAP3 POP SWAP3 SWAP1 POP JUMP JUMPDEST PUSH2 0x3B3 DUP2 PUSH2 0x331 JUMP JUMPDEST DUP3 MSTORE POP POP JUMP JUMPDEST PUSH0 PUSH1 0x20 DUP3 ADD SWAP1 POP PUSH2 0x3CC PUSH0 DUP4 ADD DUP5 PUSH2 0x3AA JUMP JUMPDEST SWAP3 SWAP2 POP POP JUMP JUMPDEST PUSH0 DUP3 DUP3 MSTORE PUSH1 0x20 DUP3 ADD SWAP1 POP SWAP3 SWAP2 POP POP JUMP JUMPDEST PUSH32 0x496E76616C6964204E4654206164647265737300000000000000000000000000 PUSH0 DUP3 ADD MSTORE POP JUMP JUMPDEST PUSH0 PUSH2 0x416 PUSH1 0x13 DUP4 PUSH2 0x3D2 JUMP JUMPDEST SWAP2 POP PUSH2 0x421 DUP3 PUSH2 0x3E2 JUMP JUMPDEST PUSH1 0x20 DUP3 ADD SWAP1 POP SWAP2 SWAP1 POP JUMP JUMPDEST PUSH0 PUSH1 0x20 DUP3 ADD SWAP1 POP DUP2 DUP2 SUB PUSH0 DUP4 ADD MSTORE PUSH2 0x443 DUP2 PUSH2 0x40A JUMP JUMPDEST SWAP1 POP SWAP2 SWAP1 POP JUMP JUMPDEST PUSH32 0x496E76616C696420746F6B656E20616464726573730000000000000000000000 PUSH0 DUP3 ADD MSTORE POP JUMP JUMPDEST PUSH0 PUSH2 0x47E PUSH1 0x15 DUP4 PUSH2 0x3D2 JUMP JUMPDEST SWAP2 POP PUSH2 0x489 DUP3 PUSH2 0x44A JUMP JUMPDEST PUSH1 0x20 DUP3 ADD SWAP1 POP SWAP2 SWAP1 POP JUMP JUMPDEST PUSH0 PUSH1 0x20 DUP3 ADD SWAP1 POP DUP2 DUP2 SUB PUSH0 DUP4 ADD MSTORE PUSH2 0x4AB DUP2 PUSH2 0x472 JUMP JUMPDEST SWAP1 POP SWAP2 SWAP1 POP JUMP JUMPDEST PUSH1 0x80 MLOAD PUSH1 0xA0 MLOAD PUSH2 0x21E0 PUSH2 0x50B PUSH0 CODECOPY PUSH0 DUP2 DUP2 PUSH2 0x4DC ADD MSTORE DUP2 DUP2 PUSH2 0x579 ADD MSTORE DUP2 DUP2 PUSH2 0x5C9 ADD MSTORE DUP2 DUP2 PUSH2 0x996 ADD MSTORE DUP2 DUP2 PUSH2 0xD3A ADD MSTORE PUSH2 0xE40 ADD MSTORE PUSH0 DUP2 DUP2 PUSH2 0x5A5 ADD MSTORE DUP2 DUP2 PUSH2 0x8A8 ADD MSTORE DUP2 DUP2 PUSH2 0x9BF ADD MSTORE PUSH2 0xDAD ADD MSTORE PUSH2 0x21E0 PUSH0 RETURN INVALID PUSH1 0x80 PUSH1 0x40 MSTORE CALLVALUE DUP1 ISZERO PUSH2 0xF JUMPI PUSH0 PUSH0 REVERT JUMPDEST POP PUSH1 0x4 CALLDATASIZE LT PUSH2 0x12A JUMPI PUSH0 CALLDATALOAD PUSH1 0xE0 SHR DUP1 PUSH4 0x87C35BC0 GT PUSH2 0xAB JUMPI DUP1 PUSH4 0xC5C92585 GT PUSH2 0x6F JUMPI DUP1 PUSH4 0xC5C92585 EQ PUSH2 0x2D4 JUMPI DUP1 PUSH4 0xE30C3978 EQ PUSH2 0x2F2 JUMPI DUP1 PUSH4 0xF2FDE38B EQ PUSH2 0x310 JUMPI DUP1 PUSH4 0xF71B08C2 EQ PUSH2 0x32C JUMPI DUP1 PUSH4 0xFB05DA2E EQ PUSH2 0x34A JUMPI PUSH2 0x12A JUMP JUMPDEST DUP1 PUSH4 0x87C35BC0 EQ PUSH2 0x242 JUMPI DUP1 PUSH4 0x8CB40010 EQ PUSH2 0x260 JUMPI DUP1 PUSH4 0x8DA5CB5B EQ PUSH2 0x27C JUMPI DUP1 PUSH4 0xA772C927 EQ PUSH2 0x29A JUMPI DUP1 PUSH4 0xAB593FF2 EQ PUSH2 0x2B6 JUMPI PUSH2 0x12A JUMP JUMPDEST DUP1 PUSH4 0x52752C47 GT PUSH2 0xF2 JUMPI DUP1 PUSH4 0x52752C47 EQ PUSH2 0x1D8 JUMPI DUP1 PUSH4 0x5A19C201 EQ PUSH2 0x1F6 JUMPI DUP1 PUSH4 0x6DB79437 EQ PUSH2 0x212 JUMPI DUP1 PUSH4 0x715018A6 EQ PUSH2 0x22E JUMPI DUP1 PUSH4 0x79BA5097 EQ PUSH2 0x238 JUMPI PUSH2 0x12A JUMP JUMPDEST DUP1 PUSH4 0x33BAB25 EQ PUSH2 0x12E JUMPI DUP1 PUSH4 0x78B9837 EQ PUSH2 0x162 JUMPI DUP1 PUSH4 0x164E68DE EQ PUSH2 0x180 JUMPI DUP1 PUSH4 0x37F76838 EQ PUSH2 0x19C JUMPI DUP1 PUSH4 0x4A213805 EQ PUSH2 0x1BA JUMPI JUMPDEST PUSH0 PUSH0 REVERT JUMPDEST PUSH2 0x148 PUSH1 0x4 DUP1 CALLDATASIZE SUB DUP2 ADD SWAP1 PUSH2 0x143 SWAP2 SWAP1 PUSH2 0x15F3 JUMP JUMPDEST PUSH2 0x37F JUMP JUMPDEST PUSH1 0x40 MLOAD PUSH2 0x159 SWAP6 SWAP5 SWAP4 SWAP3 SWAP2 SWAP1 PUSH2 0x1640 JUMP JUMPDEST PUSH1 0x40 MLOAD DUP1 SWAP2 SUB SWAP1 RETURN JUMPDEST PUSH2 0x16A PUSH2 0x4CC JUMP JUMPDEST PUSH1 0x40 MLOAD PUSH2 0x177 SWAP2 SWAP1 PUSH2 0x1691 JUMP JUMPDEST PUSH1 0x40 MLOAD DUP1 SWAP2 SUB SWAP1 RETURN JUMPDEST PUSH2 0x19A PUSH1 0x4 DUP1 CALLDATASIZE SUB DUP2 ADD SWAP1 PUSH2 0x195 SWAP2 SWAP1 PUSH2 0x1704 JUMP JUMPDEST PUSH2 0x4D1 JUMP JUMPDEST STOP JUMPDEST PUSH2 0x1A4 PUSH2 0x5A3 JUMP JUMPDEST PUSH1 0x40 MLOAD PUSH2 0x1B1 SWAP2 SWAP1 PUSH2 0x178A JUMP JUMPDEST PUSH1 0x40 MLOAD DUP1 SWAP2 SUB SWAP1 RETURN JUMPDEST PUSH2 0x1C2 PUSH2 0x5C7 JUMP JUMPDEST PUSH1 0x40 MLOAD PUSH2 0x1CF SWAP2 SWAP1 PUSH2 0x17C3 JUMP JUMPDEST PUSH1 0x40 MLOAD DUP1 SWAP2 SUB SWAP1 RETURN JUMPDEST PUSH2 0x1E0 PUSH2 0x5EB JUMP JUMPDEST PUSH1 0x40 MLOAD PUSH2 0x1ED SWAP2 SWAP1 PUSH2 0x1691 JUMP JUMPDEST PUSH1 0x40 MLOAD DUP1 SWAP2 SUB SWAP1 RETURN JUMPDEST PUSH2 0x210 PUSH1 0x4 DUP1 CALLDATASIZE SUB DUP2 ADD SWAP1 PUSH2 0x20B SWAP2 SWAP1 PUSH2 0x1811 JUMP JUMPDEST PUSH2 0x5F1 JUMP JUMPDEST STOP JUMPDEST PUSH2 0x22C PUSH1 0x4 DUP1 CALLDATASIZE SUB DUP2 ADD SWAP1 PUSH2 0x227 SWAP2 SWAP1 PUSH2 0x15F3 JUMP JUMPDEST PUSH2 0x68A JUMP JUMPDEST STOP JUMPDEST PUSH2 0x236 PUSH2 0x722 JUMP JUMPDEST STOP JUMPDEST PUSH2 0x240 PUSH2 0x735 JUMP JUMPDEST STOP JUMPDEST PUSH2 0x24A PUSH2 0x7C3 JUMP JUMPDEST PUSH1 0x40 MLOAD PUSH2 0x257 SWAP2 SWAP1 PUSH2 0x1906 JUMP JUMPDEST PUSH1 0x40 MLOAD DUP1 SWAP2 SUB SWAP1 RETURN JUMPDEST PUSH2 0x27A PUSH1 0x4 DUP1 CALLDATASIZE SUB DUP2 ADD SWAP1 PUSH2 0x275 SWAP2 SWAP1 PUSH2 0x1926 JUMP JUMPDEST PUSH2 0x819 JUMP JUMPDEST STOP JUMPDEST PUSH2 0x284 PUSH2 0xBE8 JUMP JUMPDEST PUSH1 0x40 MLOAD PUSH2 0x291 SWAP2 SWAP1 PUSH2 0x1985 JUMP JUMPDEST PUSH1 0x40 MLOAD DUP1 SWAP2 SUB SWAP1 RETURN JUMPDEST PUSH2 0x2B4 PUSH1 0x4 DUP1 CALLDATASIZE SUB DUP2 ADD SWAP1 PUSH2 0x2AF SWAP2 SWAP1 PUSH2 0x15F3 JUMP JUMPDEST PUSH2 0xC0F JUMP JUMPDEST STOP JUMPDEST PUSH2 0x2BE PUSH2 0xEF2 JUMP JUMPDEST PUSH1 0x40 MLOAD PUSH2 0x2CB SWAP2 SWAP1 PUSH2 0x1691 JUMP JUMPDEST PUSH1 0x40 MLOAD DUP1 SWAP2 SUB SWAP1 RETURN JUMPDEST PUSH2 0x2DC PUSH2 0xEF8 JUMP JUMPDEST PUSH1 0x40 MLOAD PUSH2 0x2E9 SWAP2 SWAP1 PUSH2 0x1691 JUMP JUMPDEST PUSH1 0x40 MLOAD DUP1 SWAP2 SUB SWAP1 RETURN JUMPDEST PUSH2 0x2FA PUSH2 0xEFE JUMP JUMPDEST PUSH1 0x40 MLOAD PUSH2 0x307 SWAP2 SWAP1 PUSH2 0x1985 JUMP JUMPDEST PUSH1 0x40 MLOAD DUP1 SWAP2 SUB SWAP1 RETURN JUMPDEST PUSH2 0x32A PUSH1 0x4 DUP1 CALLDATASIZE SUB DUP2 ADD SWAP1 PUSH2 0x325 SWAP2 SWAP1 PUSH2 0x1704 JUMP JUMPDEST PUSH2 0xF26 JUMP JUMPDEST STOP JUMPDEST PUSH2 0x334 PUSH2 0xFD2 JUMP JUMPDEST PUSH1 0x40 MLOAD PUSH2 0x341 SWAP2 SWAP1 PUSH2 0x1691 JUMP JUMPDEST PUSH1 0x40 MLOAD DUP1 SWAP2 SUB SWAP1 RETURN JUMPDEST PUSH2 0x364 PUSH1 0x4 DUP1 CALLDATASIZE SUB DUP2 ADD SWAP1 PUSH2 0x35F SWAP2 SWAP1 PUSH2 0x199E JUMP JUMPDEST PUSH2 0xFD8 JUMP JUMPDEST PUSH1 0x40 MLOAD PUSH2 0x376 SWAP7 SWAP6 SWAP5 SWAP4 SWAP3 SWAP2 SWAP1 PUSH2 0x19D8 JUMP JUMPDEST PUSH1 0x40 MLOAD DUP1 SWAP2 SUB SWAP1 RETURN JUMPDEST PUSH0 PUSH0 PUSH0 PUSH0 PUSH0 PUSH0 PUSH1 0x5 PUSH0 DUP10 DUP2 MSTORE PUSH1 0x20 ADD SWAP1 DUP2 MSTORE PUSH1 0x20 ADD PUSH0 KECCAK256 PUSH1 0x40 MLOAD DUP1 PUSH1 0xC0 ADD PUSH1 0x40 MSTORE SWAP1 DUP2 PUSH0 DUP3 ADD PUSH0 SWAP1 SLOAD SWAP1 PUSH2 0x100 EXP SWAP1 DIV PUSH20 0xFFFFFFFFFFFFFFFFFFFFFFFFFFFFFFFFFFFFFFFF AND PUSH20 0xFFFFFFFFFFFFFFFFFFFFFFFFFFFFFFFFFFFFFFFF AND PUSH20 0xFFFFFFFFFFFFFFFFFFFFFFFFFFFFFFFFFFFFFFFF AND DUP2 MSTORE PUSH1 0x20 ADD PUSH1 0x1 DUP3 ADD SLOAD DUP2 MSTORE PUSH1 0x20 ADD PUSH1 0x2 DUP3 ADD SLOAD DUP2 MSTORE PUSH1 0x20 ADD PUSH1 0x3 DUP3 ADD SLOAD DUP2 MSTORE PUSH1 0x20 ADD PUSH1 0x4 DUP3 ADD SLOAD DUP2 MSTORE PUSH1 0x20 ADD PUSH1 0x5 DUP3 ADD PUSH0 SWAP1 SLOAD SWAP1 PUSH2 0x100 EXP SWAP1 DIV PUSH1 0xFF AND ISZERO ISZERO ISZERO ISZERO DUP2 MSTORE POP POP SWAP1 POP DUP1 PUSH1 0xA0 ADD MLOAD PUSH2 0x47D JUMPI PUSH1 0x40 MLOAD PUSH32 0x8C379A000000000000000000000000000000000000000000000000000000000 DUP2 MSTORE PUSH1 0x4 ADD PUSH2 0x474 SWAP1 PUSH2 0x1A91 JUMP JUMPDEST PUSH1 0x40 MLOAD DUP1 SWAP2 SUB SWAP1 REVERT JUMPDEST DUP7 DUP2 PUSH1 0x40 ADD MLOAD PUSH2 0x48D SWAP2 SWAP1 PUSH2 0x1ADC JUMP JUMPDEST SWAP6 POP PUSH2 0x49C DUP7 DUP3 PUSH0 ADD MLOAD PUSH2 0x10C6 JUMP JUMPDEST DUP1 SWAP6 POP DUP2 SWAP8 POP DUP3 SWAP7 POP POP POP POP DUP4 DUP6 DUP8 PUSH2 0x4B5 SWAP2 SWAP1 PUSH2 0x1B1D JUMP JUMPDEST PUSH2 0x4BF SWAP2 SWAP1 PUSH2 0x1B1D JUMP JUMPDEST SWAP2 POP POP SWAP3 SWAP6 POP SWAP3 SWAP6 SWAP1 SWAP4 POP JUMP JUMPDEST PUSH1 0xFA DUP2 JUMP JUMPDEST PUSH2 0x4D9 PUSH2 0x11A7 JUMP JUMPDEST PUSH0 PUSH32 0x0 PUSH20 0xFFFFFFFFFFFFFFFFFFFFFFFFFFFFFFFFFFFFFFFF AND PUSH4 0x70A08231 ADDRESS PUSH1 0x40 MLOAD DUP3 PUSH4 0xFFFFFFFF AND PUSH1 0xE0 SHL DUP2 MSTORE PUSH1 0x4 ADD PUSH2 0x533 SWAP2 SWAP1 PUSH2 0x1985 JUMP JUMPDEST PUSH1 0x20 PUSH1 0x40 MLOAD DUP1 DUP4 SUB DUP2 DUP7 GAS STATICCALL ISZERO DUP1 ISZERO PUSH2 0x54E JUMPI RETURNDATASIZE PUSH0 PUSH0 RETURNDATACOPY RETURNDATASIZE PUSH0 REVERT JUMPDEST POP POP POP POP PUSH1 0x40 MLOAD RETURNDATASIZE PUSH1 0x1F NOT PUSH1 0x1F DUP3 ADD AND DUP3 ADD DUP1 PUSH1 0x40 MSTORE POP DUP2 ADD SWAP1 PUSH2 0x572 SWAP2 SWAP1 PUSH2 0x1B64 JUMP JUMPDEST SWAP1 POP PUSH2 0x59F PUSH32 0x0 DUP4 DUP4 PUSH2 0x122E JUMP JUMPDEST POP POP JUMP JUMPDEST PUSH32 0x0 DUP2 JUMP JUMPDEST PUSH32 0x0 DUP2 JUMP JUMPDEST PUSH2 0x1F4 DUP2 JUMP JUMPDEST PUSH2 0x5F9 PUSH2 0x11A7 JUMP JUMPDEST DUP1 PUSH1 0x7 PUSH0 DUP5 PUSH20 0xFFFFFFFFFFFFFFFFFFFFFFFFFFFFFFFFFFFFFFFF AND PUSH20 0xFFFFFFFFFFFFFFFFFFFFFFFFFFFFFFFFFFFFFFFF AND DUP2 MSTORE PUSH1 0x20 ADD SWAP1 DUP2 MSTORE PUSH1 0x20 ADD PUSH0 KECCAK256 PUSH0 PUSH2 0x100 EXP DUP2 SLOAD DUP2 PUSH1 0xFF MUL NOT AND SWAP1 DUP4 ISZERO ISZERO MUL OR SWAP1 SSTORE POP PUSH32 0x13223E804B38E2AD53B2CD366F7390D3FBF67B00E52DE4C9B096D6143D001469 DUP3 DUP3 PUSH1 0x40 MLOAD PUSH2 0x67E SWAP3 SWAP2 SWAP1 PUSH2 0x1B8F JUMP JUMPDEST PUSH1 0x40 MLOAD DUP1 SWAP2 SUB SWAP1 LOG1 POP POP JUMP JUMPDEST PUSH2 0x692 PUSH2 0x11A7 JUMP JUMPDEST PUSH2 0x1F4 DUP2 GT ISZERO PUSH2 0x6D7 JUMPI PUSH1 0x40 MLOAD PUSH32 0x8C379A000000000000000000000000000000000000000000000000000000000 DUP2 MSTORE PUSH1 0x4 ADD PUSH2 0x6CE SWAP1 PUSH2 0x1C00 JUMP JUMPDEST PUSH1 0x40 MLOAD DUP1 SWAP2 SUB SWAP1 REVERT JUMPDEST DUP2 PUSH1 0x3 DUP2 SWAP1 SSTORE POP DUP1 PUSH1 0x4 DUP2 SWAP1 SSTORE POP PUSH32 0x5C6323BF1C2D7AAEA2C091A4751C1C87AF7F2864650C336507A77D0557AF37A1 DUP3 DUP3 PUSH1 0x40 MLOAD PUSH2 0x716 SWAP3 SWAP2 SWAP1 PUSH2 0x1C1E JUMP JUMPDEST PUSH1 0x40 MLOAD DUP1 SWAP2 SUB SWAP1 LOG1 POP POP JUMP JUMPDEST PUSH2 0x72A PUSH2 0x11A7 JUMP JUMPDEST PUSH2 0x733 PUSH0 PUSH2 0x12ED JUMP JUMPDEST JUMP JUMPDEST PUSH0 PUSH2 0x73E PUSH2 0x131D JUMP JUMPDEST SWAP1 POP DUP1 PUSH20 0xFFFFFFFFFFFFFFFFFFFFFFFFFFFFFFFFFFFFFFFF AND PUSH2 0x75F PUSH2 0xEFE JUMP JUMPDEST PUSH20 0xFFFFFFFFFFFFFFFFFFFFFFFFFFFFFFFFFFFFFFFF AND EQ PUSH2 0x7B7 JUMPI DUP1 PUSH1 0x40 MLOAD PUSH32 0x118CDAA700000000000000000000000000000000000000000000000000000000 DUP2 MSTORE PUSH1 0x4 ADD PUSH2 0x7AE SWAP2 SWAP1 PUSH2 0x1985 JUMP JUMPDEST PUSH1 0x40 MLOAD DUP1 SWAP2 SUB SWAP1 REVERT JUMPDEST PUSH2 0x7C0 DUP2 PUSH2 0x12ED JUMP JUMPDEST POP JUMP JUMPDEST PUSH1 0x60 PUSH1 0x6 DUP1 SLOAD DUP1 PUSH1 0x20 MUL PUSH1 0x20 ADD PUSH1 0x40 MLOAD SWAP1 DUP2 ADD PUSH1 0x40 MSTORE DUP1 SWAP3 SWAP2 SWAP1 DUP2 DUP2 MSTORE PUSH1 0x20 ADD DUP3 DUP1 SLOAD DUP1 ISZERO PUSH2 0x80F JUMPI PUSH1 0x20 MUL DUP3 ADD SWAP2 SWAP1 PUSH0 MSTORE PUSH1 0x20 PUSH0 KECCAK256 SWAP1 JUMPDEST DUP2 SLOAD DUP2 MSTORE PUSH1 0x20 ADD SWAP1 PUSH1 0x1 ADD SWAP1 DUP1 DUP4 GT PUSH2 0x7FB JUMPI JUMPDEST POP POP POP POP POP SWAP1 POP SWAP1 JUMP JUMPDEST PUSH2 0x821 PUSH2 0x1324 JUMP JUMPDEST PUSH0 DUP3 GT PUSH2 0x863 JUMPI PUSH1 0x40 MLOAD PUSH32 0x8C379A000000000000000000000000000000000000000000000000000000000 DUP2 MSTORE PUSH1 0x4 ADD PUSH2 0x85A SWAP1 PUSH2 0x1C8F JUMP JUMPDEST PUSH1 0x40 MLOAD DUP1 SWAP2 SUB SWAP1 REVERT JUMPDEST PUSH0 DUP2 GT PUSH2 0x8A5 JUMPI PUSH1 0x40 MLOAD PUSH32 0x8C379A000000000000000000000000000000000000000000000000000000000 DUP2 MSTORE PUSH1 0x4 ADD PUSH2 0x89C SWAP1 PUSH2 0x1CF7 JUMP JUMPDEST PUSH1 0x40 MLOAD DUP1 SWAP2 SUB SWAP1 REVERT JUMPDEST DUP1 PUSH32 0x0 PUSH20 0xFFFFFFFFFFFFFFFFFFFFFFFFFFFFFFFFFFFFFFFF AND PUSH3 0xFDD58E CALLER DUP7 PUSH1 0x40 MLOAD DUP4 PUSH4 0xFFFFFFFF AND PUSH1 0xE0 SHL DUP2 MSTORE PUSH1 0x4 ADD PUSH2 0x900 SWAP3 SWAP2 SWAP1 PUSH2 0x1D15 JUMP JUMPDEST PUSH1 0x20 PUSH1 0x40 MLOAD DUP1 DUP4 SUB DUP2 DUP7 GAS STATICCALL ISZERO DUP1 ISZERO PUSH2 0x91B JUMPI RETURNDATASIZE PUSH0 PUSH0 RETURNDATACOPY RETURNDATASIZE PUSH0 REVERT JUMPDEST POP POP POP POP PUSH1 0x40 MLOAD RETURNDATASIZE PUSH1 0x1F NOT PUSH1 0x1F DUP3 ADD AND DUP3 ADD DUP1 PUSH1 0x40 MSTORE POP DUP2 ADD SWAP1 PUSH2 0x93F SWAP2 SWAP1 PUSH2 0x1B64 JUMP JUMPDEST LT ISZERO PUSH2 0x980 JUMPI PUSH1 0x40 MLOAD PUSH32 0x8C379A000000000000000000000000000000000000000000000000000000000 DUP2 MSTORE PUSH1 0x4 ADD PUSH2 0x977 SWAP1 PUSH2 0x1D86 JUMP JUMPDEST PUSH1 0x40 MLOAD DUP1 SWAP2 SUB SWAP1 REVERT JUMPDEST PUSH0 DUP2 PUSH1 0x3 SLOAD PUSH2 0x98F SWAP2 SWAP1 PUSH2 0x1ADC JUMP JUMPDEST SWAP1 POP PUSH2 0x9BD PUSH32 0x0 CALLER ADDRESS DUP5 PUSH2 0x1371 JUMP JUMPDEST PUSH32 0x0 PUSH20 0xFFFFFFFFFFFFFFFFFFFFFFFFFFFFFFFFFFFFFFFF AND PUSH4 0xF242432A CALLER ADDRESS DUP8 DUP7 PUSH1 0x40 MLOAD DUP6 PUSH4 0xFFFFFFFF AND PUSH1 0xE0 SHL DUP2 MSTORE PUSH1 0x4 ADD PUSH2 0xA1C SWAP5 SWAP4 SWAP3 SWAP2 SWAP1 PUSH2 0x1DD7 JUMP JUMPDEST PUSH0 PUSH1 0x40 MLOAD DUP1 DUP4 SUB DUP2 PUSH0 DUP8 DUP1 EXTCODESIZE ISZERO DUP1 ISZERO PUSH2 0xA33 JUMPI PUSH0 PUSH0 REVERT JUMPDEST POP GAS CALL ISZERO DUP1 ISZERO PUSH2 0xA45 JUMPI RETURNDATASIZE PUSH0 PUSH0 RETURNDATACOPY RETURNDATASIZE PUSH0 REVERT JUMPDEST POP POP POP POP PUSH0 DUP5 CALLER TIMESTAMP DUP6 PUSH1 0x40 MLOAD PUSH1 0x20 ADD PUSH2 0xA61 SWAP5 SWAP4 SWAP3 SWAP2 SWAP1 PUSH2 0x1E92 JUMP JUMPDEST PUSH1 0x40 MLOAD PUSH1 0x20 DUP2 DUP4 SUB SUB DUP2 MSTORE SWAP1 PUSH1 0x40 MSTORE DUP1 MLOAD SWAP1 PUSH1 0x20 ADD KECCAK256 PUSH0 SHR SWAP1 POP PUSH1 0x40 MLOAD DUP1 PUSH1 0xC0 ADD PUSH1 0x40 MSTORE DUP1 CALLER PUSH20 0xFFFFFFFFFFFFFFFFFFFFFFFFFFFFFFFFFFFFFFFF AND DUP2 MSTORE PUSH1 0x20 ADD DUP7 DUP2 MSTORE PUSH1 0x20 ADD DUP6 DUP2 MSTORE PUSH1 0x20 ADD DUP5 DUP2 MSTORE PUSH1 0x20 ADD DUP5 DUP2 MSTORE PUSH1 0x20 ADD PUSH1 0x1 ISZERO ISZERO DUP2 MSTORE POP PUSH1 0x5 PUSH0 DUP4 DUP2 MSTORE PUSH1 0x20 ADD SWAP1 DUP2 MSTORE PUSH1 0x20 ADD PUSH0 KECCAK256 PUSH0 DUP3 ADD MLOAD DUP2 PUSH0 ADD PUSH0 PUSH2 0x100 EXP DUP2 SLOAD DUP2 PUSH20 0xFFFFFFFFFFFFFFFFFFFFFFFFFFFFFFFFFFFFFFFF MUL NOT AND SWAP1 DUP4 PUSH20 0xFFFFFFFFFFFFFFFFFFFFFFFFFFFFFFFFFFFFFFFF AND MUL OR SWAP1 SSTORE POP PUSH1 0x20 DUP3 ADD MLOAD DUP2 PUSH1 0x1 ADD SSTORE PUSH1 0x40 DUP3 ADD MLOAD DUP2 PUSH1 0x2 ADD SSTORE PUSH1 0x60 DUP3 ADD MLOAD DUP2 PUSH1 0x3 ADD SSTORE PUSH1 0x80 DUP3 ADD MLOAD DUP2 PUSH1 0x4 ADD SSTORE PUSH1 0xA0 DUP3 ADD MLOAD DUP2 PUSH1 0x5 ADD PUSH0 PUSH2 0x100 EXP DUP2 SLOAD DUP2 PUSH1 0xFF MUL NOT AND SWAP1 DUP4 ISZERO ISZERO MUL OR SWAP1 SSTORE POP SWAP1 POP POP PUSH1 0x6 DUP2 SWAP1 DUP1 PUSH1 0x1 DUP2 SLOAD ADD DUP1 DUP3 SSTORE DUP1 SWAP2 POP POP PUSH1 0x1 SWAP1 SUB SWAP1 PUSH0 MSTORE PUSH1 0x20 PUSH0 KECCAK256 ADD PUSH0 SWAP1 SWAP2 SWAP1 SWAP2 SWAP1 SWAP2 POP SSTORE CALLER PUSH20 0xFFFFFFFFFFFFFFFFFFFFFFFFFFFFFFFFFFFFFFFF AND DUP2 PUSH32 0xEBE5022E5E01629CE50EC667B3F3333EC2AD62233A476B8C78AFBC36FD931D74 DUP8 DUP8 DUP8 PUSH1 0x40 MLOAD PUSH2 0xBD1 SWAP4 SWAP3 SWAP2 SWAP1 PUSH2 0x1EDF JUMP JUMPDEST PUSH1 0x40 MLOAD DUP1 SWAP2 SUB SWAP1 LOG3 POP POP PUSH2 0xBE3 PUSH2 0x1433 JUMP JUMPDEST POP POP POP JUMP JUMPDEST PUSH0 PUSH0 PUSH0 SWAP1 SLOAD SWAP1 PUSH2 0x100 EXP SWAP1 DIV PUSH20 0xFFFFFFFFFFFFFFFFFFFFFFFFFFFFFFFFFFFFFFFF AND SWAP1 POP SWAP1 JUMP JUMPDEST PUSH2 0xC17 PUSH2 0x1324 JUMP JUMPDEST DUP2 PUSH1 0x5 PUSH0 DUP3 DUP2 MSTORE PUSH1 0x20 ADD SWAP1 DUP2 MSTORE PUSH1 0x20 ADD PUSH0 KECCAK256 PUSH1 0x5 ADD PUSH0 SWAP1 SLOAD SWAP1 PUSH2 0x100 EXP SWAP1 DIV PUSH1 0xFF AND PUSH2 0xC78 JUMPI PUSH1 0x40 MLOAD PUSH32 0x8C379A000000000000000000000000000000000000000000000000000000000 DUP2 MSTORE PUSH1 0x4 ADD PUSH2 0xC6F SWAP1 PUSH2 0x1A91 JUMP JUMPDEST PUSH1 0x40 MLOAD DUP1 SWAP2 SUB SWAP1 REVERT JUMPDEST PUSH0 PUSH1 0x5 PUSH0 DUP6 DUP2 MSTORE PUSH1 0x20 ADD SWAP1 DUP2 MSTORE PUSH1 0x20 ADD PUSH0 KECCAK256 SWAP1 POP DUP1 PUSH1 0x4 ADD SLOAD DUP4 GT ISZERO PUSH2 0xCD3 JUMPI PUSH1 0x40 MLOAD PUSH32 0x8C379A000000000000000000000000000000000000000000000000000000000 DUP2 MSTORE PUSH1 0x4 ADD PUSH2 0xCCA SWAP1 PUSH2 0x1F5E JUMP JUMPDEST PUSH1 0x40 MLOAD DUP1 SWAP2 SUB SWAP1 REVERT JUMPDEST PUSH0 DUP4 DUP3 PUSH1 0x2 ADD SLOAD PUSH2 0xCE4 SWAP2 SWAP1 PUSH2 0x1ADC JUMP JUMPDEST SWAP1 POP PUSH0 PUSH0 PUSH0 PUSH2 0xD15 DUP5 DUP7 PUSH0 ADD PUSH0 SWAP1 SLOAD SWAP1 PUSH2 0x100 EXP SWAP1 DIV PUSH20 0xFFFFFFFFFFFFFFFFFFFFFFFFFFFFFFFFFFFFFFFF AND PUSH2 0x10C6 JUMP JUMPDEST SWAP3 POP SWAP3 POP SWAP3 POP PUSH0 DUP4 DUP4 DUP7 PUSH2 0xD29 SWAP2 SWAP1 PUSH2 0x1B1D JUMP JUMPDEST PUSH2 0xD33 SWAP2 SWAP1 PUSH2 0x1B1D JUMP JUMPDEST SWAP1 POP PUSH2 0xD61 PUSH32 0x0 CALLER ADDRESS DUP5 PUSH2 0x1371 JUMP JUMPDEST DUP8 DUP7 PUSH1 0x4 ADD PUSH0 DUP3 DUP3 SLOAD PUSH2 0xD74 SWAP2 SWAP1 PUSH2 0x1F7C JUMP JUMPDEST SWAP3 POP POP DUP2 SWAP1 SSTORE POP PUSH0 DUP7 PUSH1 0x4 ADD SLOAD SUB PUSH2 0xDAB JUMPI PUSH0 DUP7 PUSH1 0x5 ADD PUSH0 PUSH2 0x100 EXP DUP2 SLOAD DUP2 PUSH1 0xFF MUL NOT AND SWAP1 DUP4 ISZERO ISZERO MUL OR SWAP1 SSTORE POP PUSH2 0xDAA DUP10 PUSH2 0x143D JUMP JUMPDEST JUMPDEST PUSH32 0x0 PUSH20 0xFFFFFFFFFFFFFFFFFFFFFFFFFFFFFFFFFFFFFFFF AND PUSH4 0xF242432A ADDRESS CALLER DUP10 PUSH1 0x1 ADD SLOAD DUP13 PUSH1 0x40 MLOAD DUP6 PUSH4 0xFFFFFFFF AND PUSH1 0xE0 SHL DUP2 MSTORE PUSH1 0x4 ADD PUSH2 0xE0E SWAP5 SWAP4 SWAP3 SWAP2 SWAP1 PUSH2 0x1DD7 JUMP JUMPDEST PUSH0 PUSH1 0x40 MLOAD DUP1 DUP4 SUB DUP2 PUSH0 DUP8 DUP1 EXTCODESIZE ISZERO DUP1 ISZERO PUSH2 0xE25 JUMPI PUSH0 PUSH0 REVERT JUMPDEST POP GAS CALL ISZERO DUP1 ISZERO PUSH2 0xE37 JUMPI RETURNDATASIZE PUSH0 PUSH0 RETURNDATACOPY RETURNDATASIZE PUSH0 REVERT JUMPDEST POP POP POP POP PUSH2 0xE88 PUSH32 0x0 DUP8 PUSH0 ADD PUSH0 SWAP1 SLOAD SWAP1 PUSH2 0x100 EXP SWAP1 DIV PUSH20 0xFFFFFFFFFFFFFFFFFFFFFFFFFFFFFFFFFFFFFFFF AND DUP5 PUSH2 0x122E JUMP JUMPDEST CALLER PUSH20 0xFFFFFFFFFFFFFFFFFFFFFFFFFFFFFFFFFFFFFFFF AND DUP10 PUSH32 0xBBC7D6007E204A02E0D5C742381EA5B6B2D01AB4C9C0C1B9AFAB201F1A3474CB DUP11 DUP9 DUP8 DUP10 DUP9 PUSH1 0x40 MLOAD PUSH2 0xED7 SWAP6 SWAP5 SWAP4 SWAP3 SWAP2 SWAP1 PUSH2 0x1640 JUMP JUMPDEST PUSH1 0x40 MLOAD DUP1 SWAP2 SUB SWAP1 LOG3 POP POP POP POP POP POP POP PUSH2 0xEEE PUSH2 0x1433 JUMP JUMPDEST POP POP JUMP JUMPDEST PUSH2 0x44C DUP2 JUMP JUMPDEST PUSH1 0x4 SLOAD DUP2 JUMP JUMPDEST PUSH0 PUSH1 0x1 PUSH0 SWAP1 SLOAD SWAP1 PUSH2 0x100 EXP SWAP1 DIV PUSH20 0xFFFFFFFFFFFFFFFFFFFFFFFFFFFFFFFFFFFFFFFF AND SWAP1 POP SWAP1 JUMP JUMPDEST PUSH2 0xF2E PUSH2 0x11A7 JUMP JUMPDEST DUP1 PUSH1 0x1 PUSH0 PUSH2 0x100 EXP DUP2 SLOAD DUP2 PUSH20 0xFFFFFFFFFFFFFFFFFFFFFFFFFFFFFFFFFFFFFFFF MUL NOT AND SWAP1 DUP4 PUSH20 0xFFFFFFFFFFFFFFFFFFFFFFFFFFFFFFFFFFFFFFFF AND MUL OR SWAP1 SSTORE POP DUP1 PUSH20 0xFFFFFFFFFFFFFFFFFFFFFFFFFFFFFFFFFFFFFFFF AND PUSH2 0xF8D PUSH2 0xBE8 JUMP JUMPDEST PUSH20 0xFFFFFFFFFFFFFFFFFFFFFFFFFFFFFFFFFFFFFFFF AND PUSH32 0x38D16B8CAC22D99FC7C124B9CD0DE2D3FA1FAEF420BFE791D8C362D765E22700 PUSH1 0x40 MLOAD PUSH1 0x40 MLOAD DUP1 SWAP2 SUB SWAP1 LOG3 POP JUMP JUMPDEST PUSH1 0x3 SLOAD DUP2 JUMP JUMPDEST PUSH0 PUSH0 PUSH0 PUSH0 PUSH0 PUSH0 PUSH0 PUSH1 0x5 PUSH0 DUP10 DUP2 MSTORE PUSH1 0x20 ADD SWAP1 DUP2 MSTORE PUSH1 0x20 ADD PUSH0 KECCAK256 PUSH1 0x40 MLOAD DUP1 PUSH1 0xC0 ADD PUSH1 0x40 MSTORE SWAP1 DUP2 PUSH0 DUP3 ADD PUSH0 SWAP1 SLOAD SWAP1 PUSH2 0x100 EXP SWAP1 DIV PUSH20 0xFFFFFFFFFFFFFFFFFFFFFFFFFFFFFFFFFFFFFFFF AND PUSH20 0xFFFFFFFFFFFFFFFFFFFFFFFFFFFFFFFFFFFFFFFF AND PUSH20 0xFFFFFFFFFFFFFFFFFFFFFFFFFFFFFFFFFFFFFFFF AND DUP2 MSTORE PUSH1 0x20 ADD PUSH1 0x1 DUP3 ADD SLOAD DUP2 MSTORE PUSH1 0x20 ADD PUSH1 0x2 DUP3 ADD SLOAD DUP2 MSTORE PUSH1 0x20 ADD PUSH1 0x3 DUP3 ADD SLOAD DUP2 MSTORE PUSH1 0x20 ADD PUSH1 0x4 DUP3 ADD SLOAD DUP2 MSTORE PUSH1 0x20 ADD PUSH1 0x5 DUP3 ADD PUSH0 SWAP1 SLOAD SWAP1 PUSH2 0x100 EXP SWAP1 DIV PUSH1 0xFF AND ISZERO ISZERO ISZERO ISZERO DUP2 MSTORE POP POP SWAP1 POP DUP1 PUSH0 ADD MLOAD DUP2 PUSH1 0x20 ADD MLOAD DUP3 PUSH1 0x40 ADD MLOAD DUP4 PUSH1 0x60 ADD MLOAD DUP5 PUSH1 0x80 ADD MLOAD DUP6 PUSH1 0xA0 ADD MLOAD SWAP7 POP SWAP7 POP SWAP7 POP SWAP7 POP SWAP7 POP SWAP7 POP POP SWAP2 SWAP4 SWAP6 POP SWAP2 SWAP4 SWAP6 JUMP JUMPDEST PUSH0 PUSH0 PUSH0 PUSH2 0x2710 PUSH1 0x4 SLOAD DUP7 PUSH2 0x10DA SWAP2 SWAP1 PUSH2 0x1ADC JUMP JUMPDEST PUSH2 0x10E4 SWAP2 SWAP1 PUSH2 0x1FDC JUMP JUMPDEST SWAP2 POP PUSH2 0x2710 PUSH1 0xFA PUSH2 0x1F4 PUSH2 0x10F8 SWAP2 SWAP1 PUSH2 0x1B1D JUMP JUMPDEST DUP7 PUSH2 0x1103 SWAP2 SWAP1 PUSH2 0x1ADC JUMP JUMPDEST PUSH2 0x110D SWAP2 SWAP1 PUSH2 0x1FDC JUMP JUMPDEST SWAP3 POP PUSH1 0x7 PUSH0 DUP6 PUSH20 0xFFFFFFFFFFFFFFFFFFFFFFFFFFFFFFFFFFFFFFFF AND PUSH20 0xFFFFFFFFFFFFFFFFFFFFFFFFFFFFFFFFFFFFFFFF AND DUP2 MSTORE PUSH1 0x20 ADD SWAP1 DUP2 MSTORE PUSH1 0x20 ADD PUSH0 KECCAK256 PUSH0 SWAP1 SLOAD SWAP1 PUSH2 0x100 EXP SWAP1 DIV PUSH1 0xFF AND ISZERO PUSH2 0x1187 JUMPI PUSH2 0x2710 PUSH2 0x44C DUP7 PUSH2 0x116F SWAP2 SWAP1 PUSH2 0x1ADC JUMP JUMPDEST PUSH2 0x1179 SWAP2 SWAP1 PUSH2 0x1FDC JUMP JUMPDEST DUP4 PUSH2 0x1184 SWAP2 SWAP1 PUSH2 0x1B1D JUMP JUMPDEST SWAP3 POP JUMPDEST DUP3 DUP3 DUP7 PUSH2 0x1194 SWAP2 SWAP1 PUSH2 0x1F7C JUMP JUMPDEST PUSH2 0x119E SWAP2 SWAP1 PUSH2 0x1F7C JUMP JUMPDEST SWAP1 POP SWAP3 POP SWAP3 POP SWAP3 JUMP JUMPDEST PUSH2 0x11AF PUSH2 0x131D JUMP JUMPDEST PUSH20 0xFFFFFFFFFFFFFFFFFFFFFFFFFFFFFFFFFFFFFFFF AND PUSH2 0x11CD PUSH2 0xBE8 JUMP JUMPDEST PUSH20 0xFFFFFFFFFFFFFFFFFFFFFFFFFFFFFFFFFFFFFFFF AND EQ PUSH2 0x122C JUMPI PUSH2 0x11F0 PUSH2 0x131D JUMP JUMPDEST PUSH1 0x40 MLOAD PUSH32 0x118CDAA700000000000000000000000000000000000000000000000000000000 DUP2 MSTORE PUSH1 0x4 ADD PUSH2 0x1223 SWAP2 SWAP1 PUSH2 0x1985 JUMP JUMPDEST PUSH1 0x40 MLOAD DUP1 SWAP2 SUB SWAP1 REVERT JUMPDEST JUMP JUMPDEST DUP3 PUSH20 0xFFFFFFFFFFFFFFFFFFFFFFFFFFFFFFFFFFFFFFFF AND PUSH4 0xA9059CBB DUP4 DUP4 PUSH1 0x40 MLOAD DUP4 PUSH4 0xFFFFFFFF AND PUSH1 0xE0 SHL DUP2 MSTORE PUSH1 0x4 ADD PUSH2 0x1269 SWAP3 SWAP2 SWAP1 PUSH2 0x1D15 JUMP JUMPDEST PUSH1 0x20 PUSH1 0x40 MLOAD DUP1 DUP4 SUB DUP2 PUSH0 DUP8 GAS CALL ISZERO DUP1 ISZERO PUSH2 0x1285 JUMPI RETURNDATASIZE PUSH0 PUSH0 RETURNDATACOPY RETURNDATASIZE PUSH0 REVERT JUMPDEST POP POP POP POP PUSH1 0x40 MLOAD RETURNDATASIZE PUSH1 0x1F NOT PUSH1 0x1F DUP3 ADD AND DUP3 ADD DUP1 PUSH1 0x40 MSTORE POP DUP2 ADD SWAP1 PUSH2 0x12A9 SWAP2 SWAP1 PUSH2 0x2020 JUMP JUMPDEST PUSH2 0x12E8 JUMPI PUSH1 0x40 MLOAD PUSH32 0x8C379A000000000000000000000000000000000000000000000000000000000 DUP2 MSTORE PUSH1 0x4 ADD PUSH2 0x12DF SWAP1 PUSH2 0x2095 JUMP JUMPDEST PUSH1 0x40 MLOAD DUP1 SWAP2 SUB SWAP1 REVERT JUMPDEST POP POP POP JUMP JUMPDEST PUSH1 0x1 PUSH0 PUSH2 0x100 EXP DUP2 SLOAD SWAP1 PUSH20 0xFFFFFFFFFFFFFFFFFFFFFFFFFFFFFFFFFFFFFFFF MUL NOT AND SWAP1 SSTORE PUSH2 0x131A DUP2 PUSH2 0x14FB JUMP JUMPDEST POP JUMP JUMPDEST PUSH0 CALLER SWAP1 POP SWAP1 JUMP JUMPDEST PUSH1 0x2 DUP1 SLOAD SUB PUSH2 0x1368 JUMPI PUSH1 0x40 MLOAD PUSH32 0x8C379A000000000000000000000000000000000000000000000000000000000 DUP2 MSTORE PUSH1 0x4 ADD PUSH2 0x135F SWAP1 PUSH2 0x20FD JUMP JUMPDEST PUSH1 0x40 MLOAD DUP1 SWAP2 SUB SWAP1 REVERT JUMPDEST PUSH1 0x2 DUP1 DUP2 SWAP1 SSTORE POP JUMP JUMPDEST DUP4 PUSH20 0xFFFFFFFFFFFFFFFFFFFFFFFFFFFFFFFFFFFFFFFF AND PUSH4 0x23B872DD DUP5 DUP5 DUP5 PUSH1 0x40 MLOAD DUP5 PUSH4 0xFFFFFFFF AND PUSH1 0xE0 SHL DUP2 MSTORE PUSH1 0x4 ADD PUSH2 0x13AE SWAP4 SWAP3 SWAP2 SWAP1 PUSH2 0x211B JUMP JUMPDEST PUSH1 0x20 PUSH1 0x40 MLOAD DUP1 DUP4 SUB DUP2 PUSH0 DUP8 GAS CALL ISZERO DUP1 ISZERO PUSH2 0x13CA JUMPI RETURNDATASIZE PUSH0 PUSH0 RETURNDATACOPY RETURNDATASIZE PUSH0 REVERT JUMPDEST POP POP POP POP PUSH1 0x40 MLOAD RETURNDATASIZE PUSH1 0x1F NOT PUSH1 0x1F DUP3 ADD AND DUP3 ADD DUP1 PUSH1 0x40 MSTORE POP DUP2 ADD SWAP1 PUSH2 0x13EE SWAP2 SWAP1 PUSH2 0x2020 JUMP JUMPDEST PUSH2 0x142D JUMPI PUSH1 0x40 MLOAD PUSH32 0x8C379A000000000000000000000000000000000000000000000000000000000 DUP2 MSTORE PUSH1 0x4 ADD PUSH2 0x1424 SWAP1 PUSH2 0x2095 JUMP JUMPDEST PUSH1 0x40 MLOAD DUP1 SWAP2 SUB SWAP1 REVERT JUMPDEST POP POP POP POP JUMP JUMPDEST PUSH1 0x1 PUSH1 0x2 DUP2 SWAP1 SSTORE POP JUMP JUMPDEST PUSH0 PUSH0 SWAP1 POP JUMPDEST PUSH1 0x6 DUP1 SLOAD SWAP1 POP DUP2 LT ISZERO PUSH2 0x14F7 JUMPI DUP2 PUSH1 0x6 DUP3 DUP2 SLOAD DUP2 LT PUSH2 0x1464 JUMPI PUSH2 0x1463 PUSH2 0x2150 JUMP JUMPDEST JUMPDEST SWAP1 PUSH0 MSTORE PUSH1 0x20 PUSH0 KECCAK256 ADD SLOAD SUB PUSH2 0x14EA JUMPI PUSH1 0x6 PUSH1 0x1 PUSH1 0x6 DUP1 SLOAD SWAP1 POP PUSH2 0x1486 SWAP2 SWAP1 PUSH2 0x1F7C JUMP JUMPDEST DUP2 SLOAD DUP2 LT PUSH2 0x1497 JUMPI PUSH2 0x1496 PUSH2 0x2150 JUMP JUMPDEST JUMPDEST SWAP1 PUSH0 MSTORE PUSH1 0x20 PUSH0 KECCAK256 ADD SLOAD PUSH1 0x6 DUP3 DUP2 SLOAD DUP2 LT PUSH2 0x14B4 JUMPI PUSH2 0x14B3 PUSH2 0x2150 JUMP JUMPDEST JUMPDEST SWAP1 PUSH0 MSTORE PUSH1 0x20 PUSH0 KECCAK256 ADD DUP2 SWAP1 SSTORE POP PUSH1 0x6 DUP1 SLOAD DUP1 PUSH2 0x14D2 JUMPI PUSH2 0x14D1 PUSH2 0x217D JUMP JUMPDEST JUMPDEST PUSH1 0x1 SWAP1 SUB DUP2 DUP2 SWAP1 PUSH0 MSTORE PUSH1 0x20 PUSH0 KECCAK256 ADD PUSH0 SWAP1 SSTORE SWAP1 SSTORE PUSH2 0x14F7 JUMP JUMPDEST DUP1 DUP1 PUSH1 0x1 ADD SWAP2 POP POP PUSH2 0x1442 JUMP JUMPDEST POP POP JUMP JUMPDEST PUSH0 PUSH0 PUSH0 SWAP1 SLOAD SWAP1 PUSH2 0x100 EXP SWAP1 DIV PUSH20 0xFFFFFFFFFFFFFFFFFFFFFFFFFFFFFFFFFFFFFFFF AND SWAP1 POP DUP2 PUSH0 PUSH0 PUSH2 0x100 EXP DUP2 SLOAD DUP2 PUSH20 0xFFFFFFFFFFFFFFFFFFFFFFFFFFFFFFFFFFFFFFFF MUL NOT AND SWAP1 DUP4 PUSH20 0xFFFFFFFFFFFFFFFFFFFFFFFFFFFFFFFFFFFFFFFF AND MUL OR SWAP1 SSTORE POP DUP2 PUSH20 0xFFFFFFFFFFFFFFFFFFFFFFFFFFFFFFFFFFFFFFFF AND DUP2 PUSH20 0xFFFFFFFFFFFFFFFFFFFFFFFFFFFFFFFFFFFFFFFF AND PUSH32 0x8BE0079C531659141344CD1FD0A4F28419497F9722A3DAAFE3B4186F6B6457E0 PUSH1 0x40 MLOAD PUSH1 0x40 MLOAD DUP1 SWAP2 SUB SWAP1 LOG3 POP POP JUMP JUMPDEST PUSH0 PUSH0 REVERT JUMPDEST PUSH0 DUP2 SWAP1 POP SWAP2 SWAP1 POP JUMP JUMPDEST PUSH2 0x15D2 DUP2 PUSH2 0x15C0 JUMP JUMPDEST DUP2 EQ PUSH2 0x15DC JUMPI PUSH0 PUSH0 REVERT JUMPDEST POP JUMP JUMPDEST PUSH0 DUP2 CALLDATALOAD SWAP1 POP PUSH2 0x15ED DUP2 PUSH2 0x15C9 JUMP JUMPDEST SWAP3 SWAP2 POP POP JUMP JUMPDEST PUSH0 PUSH0 PUSH1 0x40 DUP4 DUP6 SUB SLT ISZERO PUSH2 0x1609 JUMPI PUSH2 0x1608 PUSH2 0x15BC JUMP JUMPDEST JUMPDEST PUSH0 PUSH2 0x1616 DUP6 DUP3 DUP7 ADD PUSH2 0x15DF JUMP JUMPDEST SWAP3 POP POP PUSH1 0x20 PUSH2 0x1627 DUP6 DUP3 DUP7 ADD PUSH2 0x15DF JUMP JUMPDEST SWAP2 POP POP SWAP3 POP SWAP3 SWAP1 POP JUMP JUMPDEST PUSH2 0x163A DUP2 PUSH2 0x15C0 JUMP JUMPDEST DUP3 MSTORE POP POP JUMP JUMPDEST PUSH0 PUSH1 0xA0 DUP3 ADD SWAP1 POP PUSH2 0x1653 PUSH0 DUP4 ADD DUP9 PUSH2 0x1631 JUMP JUMPDEST PUSH2 0x1660 PUSH1 0x20 DUP4 ADD DUP8 PUSH2 0x1631 JUMP JUMPDEST PUSH2 0x166D PUSH1 0x40 DUP4 ADD DUP7 PUSH2 0x1631 JUMP JUMPDEST PUSH2 0x167A PUSH1 0x60 DUP4 ADD DUP6 PUSH2 0x1631 JUMP JUMPDEST PUSH2 0x1687 PUSH1 0x80 DUP4 ADD DUP5 PUSH2 0x1631 JUMP JUMPDEST SWAP7 SWAP6 POP POP POP POP POP POP JUMP JUMPDEST PUSH0 PUSH1 0x20 DUP3 ADD SWAP1 POP PUSH2 0x16A4 PUSH0 DUP4 ADD DUP5 PUSH2 0x1631 JUMP JUMPDEST SWAP3 SWAP2 POP POP JUMP JUMPDEST PUSH0 PUSH20 0xFFFFFFFFFFFFFFFFFFFFFFFFFFFFFFFFFFFFFFFF DUP3 AND SWAP1 POP SWAP2 SWAP1 POP JUMP JUMPDEST PUSH0 PUSH2 0x16D3 DUP3 PUSH2 0x16AA JUMP JUMPDEST SWAP1 POP SWAP2 SWAP1 POP JUMP JUMPDEST PUSH2 0x16E3 DUP2 PUSH2 0x16C9 JUMP JUMPDEST DUP2 EQ PUSH2 0x16ED JUMPI PUSH0 PUSH0 REVERT JUMPDEST POP JUMP JUMPDEST PUSH0 DUP2 CALLDATALOAD SWAP1 POP PUSH2 0x16FE DUP2 PUSH2 0x16DA JUMP JUMPDEST SWAP3 SWAP2 POP POP JUMP JUMPDEST PUSH0 PUSH1 0x20 DUP3 DUP5 SUB SLT ISZERO PUSH2 0x1719 JUMPI PUSH2 0x1718 PUSH2 0x15BC JUMP JUMPDEST JUMPDEST PUSH0 PUSH2 0x1726 DUP5 DUP3 DUP6 ADD PUSH2 0x16F0 JUMP JUMPDEST SWAP2 POP POP SWAP3 SWAP2 POP POP JUMP JUMPDEST PUSH0 DUP2 SWAP1 POP SWAP2 SWAP1 POP JUMP JUMPDEST PUSH0 PUSH2 0x1752 PUSH2 0x174D PUSH2 0x1748 DUP5 PUSH2 0x16AA JUMP JUMPDEST PUSH2 0x172F JUMP JUMPDEST PUSH2 0x16AA JUMP JUMPDEST SWAP1 POP SWAP2 SWAP1 POP JUMP JUMPDEST PUSH0 PUSH2 0x1763 DUP3 PUSH2 0x1738 JUMP JUMPDEST SWAP1 POP SWAP2 SWAP1 POP JUMP JUMPDEST PUSH0 PUSH2 0x1774 DUP3 PUSH2 0x1759 JUMP JUMPDEST SWAP1 POP SWAP2 SWAP1 POP JUMP JUMPDEST PUSH2 0x1784 DUP2 PUSH2 0x176A JUMP JUMPDEST DUP3 MSTORE POP POP JUMP JUMPDEST PUSH0 PUSH1 0x20 DUP3 ADD SWAP1 POP PUSH2 0x179D PUSH0 DUP4 ADD DUP5 PUSH2 0x177B JUMP JUMPDEST SWAP3 SWAP2 POP POP JUMP JUMPDEST PUSH0 PUSH2 0x17AD DUP3 PUSH2 0x1759 JUMP JUMPDEST SWAP1 POP SWAP2 SWAP1 POP JUMP JUMPDEST PUSH2 0x17BD DUP2 PUSH2 0x17A3 JUMP JUMPDEST DUP3 MSTORE POP POP JUMP JUMPDEST PUSH0 PUSH1 0x20 DUP3 ADD SWAP1 POP PUSH2 0x17D6 PUSH0 DUP4 ADD DUP5 PUSH2 0x17B4 JUMP JUMPDEST SWAP3 SWAP2 POP POP JUMP JUMPDEST PUSH0 DUP2 ISZERO ISZERO SWAP1 POP SWAP2 SWAP1 POP JUMP JUMPDEST PUSH2 0x17F0 DUP2 PUSH2 0x17DC JUMP JUMPDEST DUP2 EQ PUSH2 0x17FA JUMPI PUSH0 PUSH0 REVERT JUMPDEST POP JUMP JUMPDEST PUSH0 DUP2 CALLDATALOAD SWAP1 POP PUSH2 0x180B DUP2 PUSH2 0x17E7 JUMP JUMPDEST SWAP3 SWAP2 POP POP JUMP JUMPDEST PUSH0 PUSH0 PUSH1 0x40 DUP4 DUP6 SUB SLT ISZERO PUSH2 0x1827 JUMPI PUSH2 0x1826 PUSH2 0x15BC JUMP JUMPDEST JUMPDEST PUSH0 PUSH2 0x1834 DUP6 DUP3 DUP7 ADD PUSH2 0x16F0 JUMP JUMPDEST SWAP3 POP POP PUSH1 0x20 PUSH2 0x1845 DUP6 DUP3 DUP7 ADD PUSH2 0x17FD JUMP JUMPDEST SWAP2 POP POP SWAP3 POP SWAP3 SWAP1 POP JUMP JUMPDEST PUSH0 DUP2 MLOAD SWAP1 POP SWAP2 SWAP1 POP JUMP JUMPDEST PUSH0 DUP3 DUP3 MSTORE PUSH1 0x20 DUP3 ADD SWAP1 POP SWAP3 SWAP2 POP POP JUMP JUMPDEST PUSH0 DUP2 SWAP1 POP PUSH1 0x20 DUP3 ADD SWAP1 POP SWAP2 SWAP1 POP JUMP JUMPDEST PUSH2 0x1881 DUP2 PUSH2 0x15C0 JUMP JUMPDEST DUP3 MSTORE POP POP JUMP JUMPDEST PUSH0 PUSH2 0x1892 DUP4 DUP4 PUSH2 0x1878 JUMP JUMPDEST PUSH1 0x20 DUP4 ADD SWAP1 POP SWAP3 SWAP2 POP POP JUMP JUMPDEST PUSH0 PUSH1 0x20 DUP3 ADD SWAP1 POP SWAP2 SWAP1 POP JUMP JUMPDEST PUSH0 PUSH2 0x18B4 DUP3 PUSH2 0x184F JUMP JUMPDEST PUSH2 0x18BE DUP2 DUP6 PUSH2 0x1859 JUMP JUMPDEST SWAP4 POP PUSH2 0x18C9 DUP4 PUSH2 0x1869 JUMP JUMPDEST DUP1 PUSH0 JUMPDEST DUP4 DUP2 LT ISZERO PUSH2 0x18F9 JUMPI DUP2 MLOAD PUSH2 0x18E0 DUP9 DUP3 PUSH2 0x1887 JUMP JUMPDEST SWAP8 POP PUSH2 0x18EB DUP4 PUSH2 0x189E JUMP JUMPDEST SWAP3 POP POP PUSH1 0x1 DUP2 ADD SWAP1 POP PUSH2 0x18CC JUMP JUMPDEST POP DUP6 SWAP4 POP POP POP POP SWAP3 SWAP2 POP POP JUMP JUMPDEST PUSH0 PUSH1 0x20 DUP3 ADD SWAP1 POP DUP2 DUP2 SUB PUSH0 DUP4 ADD MSTORE PUSH2 0x191E DUP2 DUP5 PUSH2 0x18AA JUMP JUMPDEST SWAP1 POP SWAP3 SWAP2 POP POP JUMP JUMPDEST PUSH0 PUSH0 PUSH0 PUSH1 0x60 DUP5 DUP7 SUB SLT ISZERO PUSH2 0x193D JUMPI PUSH2 0x193C PUSH2 0x15BC JUMP JUMPDEST JUMPDEST PUSH0 PUSH2 0x194A DUP7 DUP3 DUP8 ADD PUSH2 0x15DF JUMP JUMPDEST SWAP4 POP POP PUSH1 0x20 PUSH2 0x195B DUP7 DUP3 DUP8 ADD PUSH2 0x15DF JUMP JUMPDEST SWAP3 POP POP PUSH1 0x40 PUSH2 0x196C DUP7 DUP3 DUP8 ADD PUSH2 0x15DF JUMP JUMPDEST SWAP2 POP POP SWAP3 POP SWAP3 POP SWAP3 JUMP JUMPDEST PUSH2 0x197F DUP2 PUSH2 0x16C9 JUMP JUMPDEST DUP3 MSTORE POP POP JUMP JUMPDEST PUSH0 PUSH1 0x20 DUP3 ADD SWAP1 POP PUSH2 0x1998 PUSH0 DUP4 ADD DUP5 PUSH2 0x1976 JUMP JUMPDEST SWAP3 SWAP2 POP POP JUMP JUMPDEST PUSH0 PUSH1 0x20 DUP3 DUP5 SUB SLT ISZERO PUSH2 0x19B3 JUMPI PUSH2 0x19B2 PUSH2 0x15BC JUMP JUMPDEST JUMPDEST PUSH0 PUSH2 0x19C0 DUP5 DUP3 DUP6 ADD PUSH2 0x15DF JUMP JUMPDEST SWAP2 POP POP SWAP3 SWAP2 POP POP JUMP JUMPDEST PUSH2 0x19D2 DUP2 PUSH2 0x17DC JUMP JUMPDEST DUP3 MSTORE POP POP JUMP JUMPDEST PUSH0 PUSH1 0xC0 DUP3 ADD SWAP1 POP PUSH2 0x19EB PUSH0 DUP4 ADD DUP10 PUSH2 0x1976 JUMP JUMPDEST PUSH2 0x19F8 PUSH1 0x20 DUP4 ADD DUP9 PUSH2 0x1631 JUMP JUMPDEST PUSH2 0x1A05 PUSH1 0x40 DUP4 ADD DUP8 PUSH2 0x1631 JUMP JUMPDEST PUSH2 0x1A12 PUSH1 0x60 DUP4 ADD DUP7 PUSH2 0x1631 JUMP JUMPDEST PUSH2 0x1A1F PUSH1 0x80 DUP4 ADD DUP6 PUSH2 0x1631 JUMP JUMPDEST PUSH2 0x1A2C PUSH1 0xA0 DUP4 ADD DUP5 PUSH2 0x19C9 JUMP JUMPDEST SWAP8 SWAP7 POP POP POP POP POP POP POP JUMP JUMPDEST PUSH0 DUP3 DUP3 MSTORE PUSH1 0x20 DUP3 ADD SWAP1 POP SWAP3 SWAP2 POP POP JUMP JUMPDEST PUSH32 0x4C697374696E6720696E61637469766500000000000000000000000000000000 PUSH0 DUP3 ADD MSTORE POP JUMP JUMPDEST PUSH0 PUSH2 0x1A7B PUSH1 0x10 DUP4 PUSH2 0x1A37 JUMP JUMPDEST SWAP2 POP PUSH2 0x1A86 DUP3 PUSH2 0x1A47 JUMP JUMPDEST PUSH1 0x20 DUP3 ADD SWAP1 POP SWAP2 SWAP1 POP JUMP JUMPDEST PUSH0 PUSH1 0x20 DUP3 ADD SWAP1 POP DUP2 DUP2 SUB PUSH0 DUP4 ADD MSTORE PUSH2 0x1AA8 DUP2 PUSH2 0x1A6F JUMP JUMPDEST SWAP1 POP SWAP2 SWAP1 POP JUMP JUMPDEST PUSH32 0x4E487B7100000000000000000000000000000000000000000000000000000000 PUSH0 MSTORE PUSH1 0x11 PUSH1 0x4 MSTORE PUSH1 0x24 PUSH0 REVERT JUMPDEST PUSH0 PUSH2 0x1AE6 DUP3 PUSH2 0x15C0 JUMP JUMPDEST SWAP2 POP PUSH2 0x1AF1 DUP4 PUSH2 0x15C0 JUMP JUMPDEST SWAP3 POP DUP3 DUP3 MUL PUSH2 0x1AFF DUP2 PUSH2 0x15C0 JUMP JUMPDEST SWAP2 POP DUP3 DUP3 DIV DUP5 EQ DUP4 ISZERO OR PUSH2 0x1B16 JUMPI PUSH2 0x1B15 PUSH2 0x1AAF JUMP JUMPDEST JUMPDEST POP SWAP3 SWAP2 POP POP JUMP JUMPDEST PUSH0 PUSH2 0x1B27 DUP3 PUSH2 0x15C0 JUMP JUMPDEST SWAP2 POP PUSH2 0x1B32 DUP4 PUSH2 0x15C0 JUMP JUMPDEST SWAP3 POP DUP3 DUP3 ADD SWAP1 POP DUP1 DUP3 GT ISZERO PUSH2 0x1B4A JUMPI PUSH2 0x1B49 PUSH2 0x1AAF JUMP JUMPDEST JUMPDEST SWAP3 SWAP2 POP POP JUMP JUMPDEST PUSH0 DUP2 MLOAD SWAP1 POP PUSH2 0x1B5E DUP2 PUSH2 0x15C9 JUMP JUMPDEST SWAP3 SWAP2 POP POP JUMP JUMPDEST PUSH0 PUSH1 0x20 DUP3 DUP5 SUB SLT ISZERO PUSH2 0x1B79 JUMPI PUSH2 0x1B78 PUSH2 0x15BC JUMP JUMPDEST JUMPDEST PUSH0 PUSH2 0x1B86 DUP5 DUP3 DUP6 ADD PUSH2 0x1B50 JUMP JUMPDEST SWAP2 POP POP SWAP3 SWAP2 POP POP JUMP JUMPDEST PUSH0 PUSH1 0x40 DUP3 ADD SWAP1 POP PUSH2 0x1BA2 PUSH0 DUP4 ADD DUP6 PUSH2 0x1976 JUMP JUMPDEST PUSH2 0x1BAF PUSH1 0x20 DUP4 ADD DUP5 PUSH2 0x19C9 JUMP JUMPDEST SWAP4 SWAP3 POP POP POP JUMP JUMPDEST PUSH32 0x46656520746F6F20686967680000000000000000000000000000000000000000 PUSH0 DUP3 ADD MSTORE POP JUMP JUMPDEST PUSH0 PUSH2 0x1BEA PUSH1 0xC DUP4 PUSH2 0x1A37 JUMP JUMPDEST SWAP2 POP PUSH2 0x1BF5 DUP3 PUSH2 0x1BB6 JUMP JUMPDEST PUSH1 0x20 DUP3 ADD SWAP1 POP SWAP2 SWAP1 POP JUMP JUMPDEST PUSH0 PUSH1 0x20 DUP3 ADD SWAP1 POP DUP2 DUP2 SUB PUSH0 DUP4 ADD MSTORE PUSH2 0x1C17 DUP2 PUSH2 0x1BDE JUMP JUMPDEST SWAP1 POP SWAP2 SWAP1 POP JUMP JUMPDEST PUSH0 PUSH1 0x40 DUP3 ADD SWAP1 POP PUSH2 0x1C31 PUSH0 DUP4 ADD DUP6 PUSH2 0x1631 JUMP JUMPDEST PUSH2 0x1C3E PUSH1 0x20 DUP4 ADD DUP5 PUSH2 0x1631 JUMP JUMPDEST SWAP4 SWAP3 POP POP POP JUMP JUMPDEST PUSH32 0x5072696365206D75737420626520706F73697469766500000000000000000000 PUSH0 DUP3 ADD MSTORE POP JUMP JUMPDEST PUSH0 PUSH2 0x1C79 PUSH1 0x16 DUP4 PUSH2 0x1A37 JUMP JUMPDEST SWAP2 POP PUSH2 0x1C84 DUP3 PUSH2 0x1C45 JUMP JUMPDEST PUSH1 0x20 DUP3 ADD SWAP1 POP SWAP2 SWAP1 POP JUMP JUMPDEST PUSH0 PUSH1 0x20 DUP3 ADD SWAP1 POP DUP2 DUP2 SUB PUSH0 DUP4 ADD MSTORE PUSH2 0x1CA6 DUP2 PUSH2 0x1C6D JUMP JUMPDEST SWAP1 POP SWAP2 SWAP1 POP JUMP JUMPDEST PUSH32 0x41726561206D75737420626520706F7369746976650000000000000000000000 PUSH0 DUP3 ADD MSTORE POP JUMP JUMPDEST PUSH0 PUSH2 0x1CE1 PUSH1 0x15 DUP4 PUSH2 0x1A37 JUMP JUMPDEST SWAP2 POP PUSH2 0x1CEC DUP3 PUSH2 0x1CAD JUMP JUMPDEST PUSH1 0x20 DUP3 ADD SWAP1 POP SWAP2 SWAP1 POP JUMP JUMPDEST PUSH0 PUSH1 0x20 DUP3 ADD SWAP1 POP DUP2 DUP2 SUB PUSH0 DUP4 ADD MSTORE PUSH2 0x1D0E DUP2 PUSH2 0x1CD5 JUMP JUMPDEST SWAP1 POP SWAP2 SWAP1 POP JUMP JUMPDEST PUSH0 PUSH1 0x40 DUP3 ADD SWAP1 POP PUSH2 0x1D28 PUSH0 DUP4 ADD DUP6 PUSH2 0x1976 JUMP JUMPDEST PUSH2 0x1D35 PUSH1 0x20 DUP4 ADD DUP5 PUSH2 0x1631 JUMP JUMPDEST SWAP4 SWAP3 POP POP POP JUMP JUMPDEST PUSH32 0x496E73756666696369656E742062616C616E6365000000000000000000000000 PUSH0 DUP3 ADD MSTORE POP JUMP JUMPDEST PUSH0 PUSH2 0x1D70 PUSH1 0x14 DUP4 PUSH2 0x1A37 JUMP JUMPDEST SWAP2 POP PUSH2 0x1D7B DUP3 PUSH2 0x1D3C JUMP JUMPDEST PUSH1 0x20 DUP3 ADD SWAP1 POP SWAP2 SWAP1 POP JUMP JUMPDEST PUSH0 PUSH1 0x20 DUP3 ADD SWAP1 POP DUP2 DUP2 SUB PUSH0 DUP4 ADD MSTORE PUSH2 0x1D9D DUP2 PUSH2 0x1D64 JUMP JUMPDEST SWAP1 POP SWAP2 SWAP1 POP JUMP JUMPDEST PUSH0 DUP3 DUP3 MSTORE PUSH1 0x20 DUP3 ADD SWAP1 POP SWAP3 SWAP2 POP POP JUMP JUMPDEST POP JUMP JUMPDEST PUSH0 PUSH2 0x1DC2 PUSH0 DUP4 PUSH2 0x1DA4 JUMP JUMPDEST SWAP2 POP PUSH2 0x1DCD DUP3 PUSH2 0x1DB4 JUMP JUMPDEST PUSH0 DUP3 ADD SWAP1 POP SWAP2 SWAP1 POP JUMP JUMPDEST PUSH0 PUSH1 0xA0 DUP3 ADD SWAP1 POP PUSH2 0x1DEA PUSH0 DUP4 ADD DUP8 PUSH2 0x1976 JUMP JUMPDEST PUSH2 0x1DF7 PUSH1 0x20 DUP4 ADD DUP7 PUSH2 0x1976 JUMP JUMPDEST PUSH2 0x1E04 PUSH1 0x40 DUP4 ADD DUP6 PUSH2 0x1631 JUMP JUMPDEST PUSH2 0x1E11 PUSH1 0x60 DUP4 ADD DUP5 PUSH2 0x1631 JUMP JUMPDEST DUP2 DUP2 SUB PUSH1 0x80 DUP4 ADD MSTORE PUSH2 0x1E22 DUP2 PUSH2 0x1DB7 JUMP JUMPDEST SWAP1 POP SWAP6 SWAP5 POP POP POP POP POP JUMP JUMPDEST PUSH0 DUP2 SWAP1 POP SWAP2 SWAP1 POP JUMP JUMPDEST PUSH2 0x1E47 PUSH2 0x1E42 DUP3 PUSH2 0x15C0 JUMP JUMPDEST PUSH2 0x1E2D JUMP JUMPDEST DUP3 MSTORE POP POP JUMP JUMPDEST PUSH0 DUP2 PUSH1 0x60 SHL SWAP1 POP SWAP2 SWAP1 POP JUMP JUMPDEST PUSH0 PUSH2 0x1E63 DUP3 PUSH2 0x1E4D JUMP JUMPDEST SWAP1 POP SWAP2 SWAP1 POP JUMP JUMPDEST PUSH0 PUSH2 0x1E74 DUP3 PUSH2 0x1E59 JUMP JUMPDEST SWAP1 POP SWAP2 SWAP1 POP JUMP JUMPDEST PUSH2 0x1E8C PUSH2 0x1E87 DUP3 PUSH2 0x16C9 JUMP JUMPDEST PUSH2 0x1E6A JUMP JUMPDEST DUP3 MSTORE POP POP JUMP JUMPDEST PUSH0 PUSH2 0x1E9D DUP3 DUP8 PUSH2 0x1E36 JUMP JUMPDEST PUSH1 0x20 DUP3 ADD SWAP2 POP PUSH2 0x1EAD DUP3 DUP7 PUSH2 0x1E7B JUMP JUMPDEST PUSH1 0x14 DUP3 ADD SWAP2 POP PUSH2 0x1EBD DUP3 DUP6 PUSH2 0x1E36 JUMP JUMPDEST PUSH1 0x20 DUP3 ADD SWAP2 POP PUSH2 0x1ECD DUP3 DUP5 PUSH2 0x1E36 JUMP JUMPDEST PUSH1 0x20 DUP3 ADD SWAP2 POP DUP2 SWAP1 POP SWAP6 SWAP5 POP POP POP POP POP JUMP JUMPDEST PUSH0 PUSH1 0x60 DUP3 ADD SWAP1 POP PUSH2 0x1EF2 PUSH0 DUP4 ADD DUP7 PUSH2 0x1631 JUMP JUMPDEST PUSH2 0x1EFF PUSH1 0x20 DUP4 ADD DUP6 PUSH2 0x1631 JUMP JUMPDEST PUSH2 0x1F0C PUSH1 0x40 DUP4 ADD DUP5 PUSH2 0x1631 JUMP JUMPDEST SWAP5 SWAP4 POP POP POP POP JUMP JUMPDEST PUSH32 0x41726561206578636565647320617661696C6162696C69747900000000000000 PUSH0 DUP3 ADD MSTORE POP JUMP JUMPDEST PUSH0 PUSH2 0x1F48 PUSH1 0x19 DUP4 PUSH2 0x1A37 JUMP JUMPDEST SWAP2 POP PUSH2 0x1F53 DUP3 PUSH2 0x1F14 JUMP JUMPDEST PUSH1 0x20 DUP3 ADD SWAP1 POP SWAP2 SWAP1 POP JUMP JUMPDEST PUSH0 PUSH1 0x20 DUP3 ADD SWAP1 POP DUP2 DUP2 SUB PUSH0 DUP4 ADD MSTORE PUSH2 0x1F75 DUP2 PUSH2 0x1F3C JUMP JUMPDEST SWAP1 POP SWAP2 SWAP1 POP JUMP JUMPDEST PUSH0 PUSH2 0x1F86 DUP3 PUSH2 0x15C0 JUMP JUMPDEST SWAP2 POP PUSH2 0x1F91 DUP4 PUSH2 0x15C0 JUMP JUMPDEST SWAP3 POP DUP3 DUP3 SUB SWAP1 POP DUP2 DUP2 GT ISZERO PUSH2 0x1FA9 JUMPI PUSH2 0x1FA8 PUSH2 0x1AAF JUMP JUMPDEST JUMPDEST SWAP3 SWAP2 POP POP JUMP JUMPDEST PUSH32 0x4E487B7100000000000000000000000000000000000000000000000000000000 PUSH0 MSTORE PUSH1 0x12 PUSH1 0x4 MSTORE PUSH1 0x24 PUSH0 REVERT JUMPDEST PUSH0 PUSH2 0x1FE6 DUP3 PUSH2 0x15C0 JUMP JUMPDEST SWAP2 POP PUSH2 0x1FF1 DUP4 PUSH2 0x15C0 JUMP JUMPDEST SWAP3 POP DUP3 PUSH2 0x2001 JUMPI PUSH2 0x2000 PUSH2 0x1FAF JUMP JUMPDEST JUMPDEST DUP3 DUP3 DIV SWAP1 POP SWAP3 SWAP2 POP POP JUMP JUMPDEST PUSH0 DUP2 MLOAD SWAP1 POP PUSH2 0x201A DUP2 PUSH2 0x17E7 JUMP JUMPDEST SWAP3 SWAP2 POP POP JUMP JUMPDEST PUSH0 PUSH1 0x20 DUP3 DUP5 SUB SLT ISZERO PUSH2 0x2035 JUMPI PUSH2 0x2034 PUSH2 0x15BC JUMP JUMPDEST JUMPDEST PUSH0 PUSH2 0x2042 DUP5 DUP3 DUP6 ADD PUSH2 0x200C JUMP JUMPDEST SWAP2 POP POP SWAP3 SWAP2 POP POP JUMP JUMPDEST PUSH32 0x5472616E73666572206661696C65640000000000000000000000000000000000 PUSH0 DUP3 ADD MSTORE POP JUMP JUMPDEST PUSH0 PUSH2 0x207F PUSH1 0xF DUP4 PUSH2 0x1A37 JUMP JUMPDEST SWAP2 POP PUSH2 0x208A DUP3 PUSH2 0x204B JUMP JUMPDEST PUSH1 0x20 DUP3 ADD SWAP1 POP SWAP2 SWAP1 POP JUMP JUMPDEST PUSH0 PUSH1 0x20 DUP3 ADD SWAP1 POP DUP2 DUP2 SUB PUSH0 DUP4 ADD MSTORE PUSH2 0x20AC DUP2 PUSH2 0x2073 JUMP JUMPDEST SWAP1 POP SWAP2 SWAP1 POP JUMP JUMPDEST PUSH32 0x5265656E7472616E637947756172643A207265656E7472616E742063616C6C00 PUSH0 DUP3 ADD MSTORE POP JUMP JUMPDEST PUSH0 PUSH2 0x20E7 PUSH1 0x1F DUP4 PUSH2 0x1A37 JUMP JUMPDEST SWAP2 POP PUSH2 0x20F2 DUP3 PUSH2 0x20B3 JUMP JUMPDEST PUSH1 0x20 DUP3 ADD SWAP1 POP SWAP2 SWAP1 POP JUMP JUMPDEST PUSH0 PUSH1 0x20 DUP3 ADD SWAP1 POP DUP2 DUP2 SUB PUSH0 DUP4 ADD MSTORE PUSH2 0x2114 DUP2 PUSH2 0x20DB JUMP JUMPDEST SWAP1 POP SWAP2 SWAP1 POP JUMP JUMPDEST PUSH0 PUSH1 0x60 DUP3 ADD SWAP1 POP PUSH2 0x212E PUSH0 DUP4 ADD DUP7 PUSH2 0x1976 JUMP JUMPDEST PUSH2 0x213B PUSH1 0x20 DUP4 ADD DUP6 PUSH2 0x1976 JUMP JUMPDEST PUSH2 0x2148 PUSH1 0x40 DUP4 ADD DUP5 PUSH2 0x1631 JUMP JUMPDEST SWAP5 SWAP4 POP POP POP POP JUMP JUMPDEST PUSH32 0x4E487B7100000000000000000000000000000000000000000000000000000000 PUSH0 MSTORE PUSH1 0x32 PUSH1 0x4 MSTORE PUSH1 0x24 PUSH0 REVERT JUMPDEST PUSH32 0x4E487B7100000000000000000000000000000000000000000000000000000000 PUSH0 MSTORE PUSH1 0x31 PUSH1 0x4 MSTORE PUSH1 0x24 PUSH0 REVERT INVALID LOG2 PUSH5 0x6970667358 0x22 SLT KECCAK256 JUMPF 0xB4F6 0xFC OR CREATE EXTDELEGATECALL SWAP14 0xAB PUSH5 0x8B7087AB64 0xB2 PUSH15 0x5BE7089176C93C245FF34DCD0A468F PUSH5 0x736F6C6343 STOP ADDMOD 0x1E STOP CALLER "
				},
				"gasEstimates": {
					"creation": {
						"codeDepositCost": "1734400",
						"executionCost": "infinite",
						"totalCost": "infinite"
					},
					"external": {
						"BPHTB_RATE()": "348",
						"PPH_RATE()": "371",
						"PPN_RATE()": "436",
						"acceptOwnership()": "54758",
						"buyProperty(uint256,uint256)": "infinite",
						"calculatePurchaseCost(uint256,uint256)": "infinite",
						"getActiveListings()": "infinite",
						"getListingDetails(uint256)": "infinite",
						"idrtToken()": "infinite",
						"listProperty(uint256,uint256,uint256)": "infinite",
						"listingFeePerSquare()": "2513",
						"owner()": "2581",
						"pendingOwner()": "2559",
						"propertyNFT()": "infinite",
						"renounceOwnership()": "infinite",
						"setDeveloperStatus(address,bool)": "infinite",
						"transactionFeeBPS()": "2447",
						"transferOwnership(address)": "infinite",
						"updateFees(uint256,uint256)": "infinite",
						"withdrawFees(address)": "infinite"
					},
					"internal": {
						"_calculateTransactionCosts(uint256,address)": "infinite",
						"_removeListing(uint256)": "infinite",
						"_safeTransfer(contract IERC20,address,uint256)": "infinite",
						"_safeTransferFrom(contract IERC20,address,address,uint256)": "infinite"
					}
				},
				"methodIdentifiers": {
					"BPHTB_RATE()": "52752c47",
					"PPH_RATE()": "078b9837",
					"PPN_RATE()": "ab593ff2",
					"acceptOwnership()": "79ba5097",
					"buyProperty(uint256,uint256)": "a772c927",
					"calculatePurchaseCost(uint256,uint256)": "033bab25",
					"getActiveListings()": "87c35bc0",
					"getListingDetails(uint256)": "fb05da2e",
					"idrtToken()": "4a213805",
					"listProperty(uint256,uint256,uint256)": "8cb40010",
					"listingFeePerSquare()": "f71b08c2",
					"owner()": "8da5cb5b",
					"pendingOwner()": "e30c3978",
					"propertyNFT()": "37f76838",
					"renounceOwnership()": "715018a6",
					"setDeveloperStatus(address,bool)": "5a19c201",
					"transactionFeeBPS()": "c5c92585",
					"transferOwnership(address)": "f2fde38b",
					"updateFees(uint256,uint256)": "6db79437",
					"withdrawFees(address)": "164e68de"
				}
			},
			"storageLayout": {
				"storage": [
					{
						"astId": 8,
						"contract": "Marketplace_NFT.sol:PropertyMarketplace",
						"label": "_owner",
						"offset": 0,
						"slot": "0",
						"type": "t_address"
					},
					{
						"astId": 156,
						"contract": "Marketplace_NFT.sol:PropertyMarketplace",
						"label": "_pendingOwner",
						"offset": 0,
						"slot": "1",
						"type": "t_address"
					},
					{
						"astId": 244,
						"contract": "Marketplace_NFT.sol:PropertyMarketplace",
						"label": "_status",
						"offset": 0,
						"slot": "2",
						"type": "t_uint256"
					},
					{
						"astId": 863,
						"contract": "Marketplace_NFT.sol:PropertyMarketplace",
						"label": "listingFeePerSquare",
						"offset": 0,
						"slot": "3",
						"type": "t_uint256"
					},
					{
						"astId": 866,
						"contract": "Marketplace_NFT.sol:PropertyMarketplace",
						"label": "transactionFeeBPS",
						"offset": 0,
						"slot": "4",
						"type": "t_uint256"
					},
					{
						"astId": 880,
						"contract": "Marketplace_NFT.sol:PropertyMarketplace",
						"label": "_listings",
						"offset": 0,
						"slot": "5",
						"type": "t_mapping(t_uint256,t_struct(PropertyListing)856_storage)"
					},
					{
						"astId": 883,
						"contract": "Marketplace_NFT.sol:PropertyMarketplace",
						"label": "_activeListingIds",
						"offset": 0,
						"slot": "6",
						"type": "t_array(t_uint256)dyn_storage"
					},
					{
						"astId": 887,
						"contract": "Marketplace_NFT.sol:PropertyMarketplace",
						"label": "_verifiedDevelopers",
						"offset": 0,
						"slot": "7",
						"type": "t_mapping(t_address,t_bool)"
					}
				],
				"types": {
					"t_address": {
						"encoding": "inplace",
						"label": "address",
						"numberOfBytes": "20"
					},
					"t_array(t_uint256)dyn_storage": {
						"base": "t_uint256",
						"encoding": "dynamic_array",
						"label": "uint256[]",
						"numberOfBytes": "32"
					},
					"t_bool": {
						"encoding": "inplace",
						"label": "bool",
						"numberOfBytes": "1"
					},
					"t_mapping(t_address,t_bool)": {
						"encoding": "mapping",
						"key": "t_address",
						"label": "mapping(address => bool)",
						"numberOfBytes": "32",
						"value": "t_bool"
					},
					"t_mapping(t_uint256,t_struct(PropertyListing)856_storage)": {
						"encoding": "mapping",
						"key": "t_uint256",
						"label": "mapping(uint256 => struct PropertyMarketplace.PropertyListing)",
						"numberOfBytes": "32",
						"value": "t_struct(PropertyListing)856_storage"
					},
					"t_struct(PropertyListing)856_storage": {
						"encoding": "inplace",
						"label": "struct PropertyMarketplace.PropertyListing",
						"members": [
							{
								"astId": 845,
								"contract": "Marketplace_NFT.sol:PropertyMarketplace",
								"label": "seller",
								"offset": 0,
								"slot": "0",
								"type": "t_address"
							},
							{
								"astId": 847,
								"contract": "Marketplace_NFT.sol:PropertyMarketplace",
								"label": "propertyId",
								"offset": 0,
								"slot": "1",
								"type": "t_uint256"
							},
							{
								"astId": 849,
								"contract": "Marketplace_NFT.sol:PropertyMarketplace",
								"label": "pricePerSquare",
								"offset": 0,
								"slot": "2",
								"type": "t_uint256"
							},
							{
								"astId": 851,
								"contract": "Marketplace_NFT.sol:PropertyMarketplace",
								"label": "totalArea",
								"offset": 0,
								"slot": "3",
								"type": "t_uint256"
							},
							{
								"astId": 853,
								"contract": "Marketplace_NFT.sol:PropertyMarketplace",
								"label": "availableArea",
								"offset": 0,
								"slot": "4",
								"type": "t_uint256"
							},
							{
								"astId": 855,
								"contract": "Marketplace_NFT.sol:PropertyMarketplace",
								"label": "isActive",
								"offset": 0,
								"slot": "5",
								"type": "t_bool"
							}
						],
						"numberOfBytes": "192"
					},
					"t_uint256": {
						"encoding": "inplace",
						"label": "uint256",
						"numberOfBytes": "32"
					}
				}
			},
			"userdoc": {
				"kind": "user",
				"methods": {
					"buyProperty(uint256,uint256)": {
						"notice": "Purchase a portion of a listed property"
					},
					"listProperty(uint256,uint256,uint256)": {
						"notice": "List a property for sale"
					}
				},
				"version": 1
			}
		}
	}
}