{
	"ProjectFactory.sol": {
		"ProjectFactory": {
			"abi": [
				{
					"inputs": [
						{
							"internalType": "address",
							"name": "_idrtToken",
							"type": "address"
						},
						{
							"internalType": "address",
							"name": "_owner",
							"type": "address"
						},
						{
							"internalType": "address",
							"name": "_impl",
							"type": "address"
						}
					],
					"stateMutability": "nonpayable",
					"type": "constructor"
				},
				{
					"inputs": [],
					"name": "DeploymentFailed",
					"type": "error"
				},
				{
					"inputs": [],
					"name": "InvalidInput",
					"type": "error"
				},
				{
					"inputs": [],
					"name": "NotCooperative",
					"type": "error"
				},
				{
					"inputs": [
						{
							"internalType": "address",
							"name": "owner",
							"type": "address"
						}
					],
					"name": "OwnableInvalidOwner",
					"type": "error"
				},
				{
					"inputs": [
						{
							"internalType": "address",
							"name": "account",
							"type": "address"
						}
					],
					"name": "OwnableUnauthorizedAccount",
					"type": "error"
				},
				{
					"inputs": [],
					"name": "ZeroAddress",
					"type": "error"
				},
				{
					"anonymous": false,
					"inputs": [
						{
							"indexed": true,
							"internalType": "address",
							"name": "coop",
							"type": "address"
						},
						{
							"indexed": false,
							"internalType": "bool",
							"name": "status",
							"type": "bool"
						}
					],
					"name": "CooperativeWhitelisted",
					"type": "event"
				},
				{
					"anonymous": false,
					"inputs": [
						{
							"indexed": false,
							"internalType": "address",
							"name": "newImpl",
							"type": "address"
						}
					],
					"name": "FarmingProjectImplementationUpdated",
					"type": "event"
				},
				{
					"anonymous": false,
					"inputs": [
						{
							"indexed": true,
							"internalType": "address",
							"name": "previousOwner",
							"type": "address"
						},
						{
							"indexed": true,
							"internalType": "address",
							"name": "newOwner",
							"type": "address"
						}
					],
					"name": "OwnershipTransferred",
					"type": "event"
				},
				{
					"anonymous": false,
					"inputs": [
						{
							"indexed": false,
							"internalType": "address",
							"name": "account",
							"type": "address"
						}
					],
					"name": "Paused",
					"type": "event"
				},
				{
					"anonymous": false,
					"inputs": [
						{
							"indexed": true,
							"internalType": "uint256",
							"name": "projectId",
							"type": "uint256"
						},
						{
							"indexed": false,
							"internalType": "address",
							"name": "projectContract",
							"type": "address"
						}
					],
					"name": "ProjectCreated",
					"type": "event"
				},
				{
					"anonymous": false,
					"inputs": [
						{
							"indexed": false,
							"internalType": "uint256",
							"name": "newFee",
							"type": "uint256"
						}
					],
					"name": "ProjectFeeUpdated",
					"type": "event"
				},
				{
					"anonymous": false,
					"inputs": [
						{
							"indexed": false,
							"internalType": "address",
							"name": "account",
							"type": "address"
						}
					],
					"name": "Unpaused",
					"type": "event"
				},
				{
					"inputs": [
						{
							"internalType": "address",
							"name": "",
							"type": "address"
						},
						{
							"internalType": "uint256",
							"name": "",
							"type": "uint256"
						}
					],
					"name": "cooperativeProjects",
					"outputs": [
						{
							"internalType": "uint256",
							"name": "",
							"type": "uint256"
						}
					],
					"stateMutability": "view",
					"type": "function"
				},
				{
					"inputs": [
						{
							"internalType": "uint256",
							"name": "_targetAmount",
							"type": "uint256"
						},
						{
							"internalType": "string",
							"name": "_title",
							"type": "string"
						},
						{
							"internalType": "string",
							"name": "_metadataHash",
							"type": "string"
						}
					],
					"name": "createProject",
					"outputs": [
						{
							"internalType": "address",
							"name": "",
							"type": "address"
						}
					],
					"stateMutability": "nonpayable",
					"type": "function"
				},
				{
					"inputs": [],
					"name": "farmingProjectImplementation",
					"outputs": [
						{
							"internalType": "address",
							"name": "",
							"type": "address"
						}
					],
					"stateMutability": "view",
					"type": "function"
				},
				{
					"inputs": [
						{
							"internalType": "uint256",
							"name": "id",
							"type": "uint256"
						}
					],
					"name": "getProjectContract",
					"outputs": [
						{
							"internalType": "address",
							"name": "",
							"type": "address"
						}
					],
					"stateMutability": "view",
					"type": "function"
				},
				{
					"inputs": [
						{
							"internalType": "address",
							"name": "coop",
							"type": "address"
						}
					],
					"name": "getProjectsByCooperative",
					"outputs": [
						{
							"internalType": "uint256[]",
							"name": "",
							"type": "uint256[]"
						}
					],
					"stateMutability": "view",
					"type": "function"
				},
				{
					"inputs": [],
					"name": "idrtToken",
					"outputs": [
						{
							"internalType": "address",
							"name": "",
							"type": "address"
						}
					],
					"stateMutability": "view",
					"type": "function"
				},
				{
					"inputs": [
						{
							"internalType": "address",
							"name": "",
							"type": "address"
						}
					],
					"name": "isWhitelistedCooperative",
					"outputs": [
						{
							"internalType": "bool",
							"name": "",
							"type": "bool"
						}
					],
					"stateMutability": "view",
					"type": "function"
				},
				{
					"inputs": [],
					"name": "nextProjectId",
					"outputs": [
						{
							"internalType": "uint256",
							"name": "",
							"type": "uint256"
						}
					],
					"stateMutability": "view",
					"type": "function"
				},
				{
					"inputs": [],
					"name": "owner",
					"outputs": [
						{
							"internalType": "address",
							"name": "",
							"type": "address"
						}
					],
					"stateMutability": "view",
					"type": "function"
				},
				{
					"inputs": [],
					"name": "pause",
					"outputs": [],
					"stateMutability": "nonpayable",
					"type": "function"
				},
				{
					"inputs": [],
					"name": "paused",
					"outputs": [
						{
							"internalType": "bool",
							"name": "",
							"type": "bool"
						}
					],
					"stateMutability": "view",
					"type": "function"
				},
				{
					"inputs": [
						{
							"internalType": "uint256",
							"name": "",
							"type": "uint256"
						}
					],
					"name": "projectContracts",
					"outputs": [
						{
							"internalType": "address",
							"name": "",
							"type": "address"
						}
					],
					"stateMutability": "view",
					"type": "function"
				},
				{
					"inputs": [],
					"name": "projectFee",
					"outputs": [
						{
							"internalType": "uint256",
							"name": "",
							"type": "uint256"
						}
					],
					"stateMutability": "view",
					"type": "function"
				},
				{
					"inputs": [],
					"name": "renounceOwnership",
					"outputs": [],
					"stateMutability": "nonpayable",
					"type": "function"
				},
				{
					"inputs": [
						{
							"internalType": "address",
							"name": "coop",
							"type": "address"
						},
						{
							"internalType": "bool",
							"name": "status",
							"type": "bool"
						}
					],
					"name": "setCooperative",
					"outputs": [],
					"stateMutability": "nonpayable",
					"type": "function"
				},
				{
					"inputs": [
						{
							"internalType": "address",
							"name": "newImpl",
							"type": "address"
						}
					],
					"name": "setFarmingProjectImplementation",
					"outputs": [],
					"stateMutability": "nonpayable",
					"type": "function"
				},
				{
					"inputs": [
						{
							"internalType": "uint256",
							"name": "newFee",
							"type": "uint256"
						}
					],
					"name": "setProjectFee",
					"outputs": [],
					"stateMutability": "nonpayable",
					"type": "function"
				},
				{
					"inputs": [],
					"name": "totalFeeCollected",
					"outputs": [
						{
							"internalType": "uint256",
							"name": "",
							"type": "uint256"
						}
					],
					"stateMutability": "view",
					"type": "function"
				},
				{
					"inputs": [
						{
							"internalType": "address",
							"name": "newOwner",
							"type": "address"
						}
					],
					"name": "transferOwnership",
					"outputs": [],
					"stateMutability": "nonpayable",
					"type": "function"
				},
				{
					"inputs": [],
					"name": "unpause",
					"outputs": [],
					"stateMutability": "nonpayable",
					"type": "function"
				}
			],
			"devdoc": {
				"errors": {
					"OwnableInvalidOwner(address)": [
						{
							"details": "The owner is not a valid owner account. (eg. `address(0)`)"
						}
					],
					"OwnableUnauthorizedAccount(address)": [
						{
							"details": "The caller account is not authorized to perform an operation."
						}
					]
				},
				"events": {
					"Paused(address)": {
						"details": "Emitted when the pause is triggered by `account`."
					},
					"Unpaused(address)": {
						"details": "Emitted when the pause is lifted by `account`."
					}
				},
				"kind": "dev",
				"methods": {
					"owner()": {
						"details": "Returns the address of the current owner."
					},
					"paused()": {
						"details": "Returns true if the contract is paused, and false otherwise."
					},
					"renounceOwnership()": {
						"details": "Leaves the contract without owner. It will not be possible to call `onlyOwner` functions. Can only be called by the current owner. NOTE: Renouncing ownership will leave the contract without an owner, thereby disabling any functionality that is only available to the owner."
					},
					"transferOwnership(address)": {
						"details": "Transfers ownership of the contract to a new account (`newOwner`). Can only be called by the current owner."
					}
				},
				"version": 1
			},
			"evm": {
				"assembly": "    /* \"ProjectFactory.sol\":393:4071  contract ProjectFactory is Ownable, Pausable {... */\n  mstore(0x40, 0xa0)\n    /* \"ProjectFactory.sol\":561:573  2000 * 10**6 */\n  0x77359400\n    /* \"ProjectFactory.sol\":533:573  uint256 public projectFee = 2000 * 10**6 */\n  0x02\n  sstore\n    /* \"ProjectFactory.sol\":1201:1472  constructor(address _idrtToken, address _owner, address _impl) Ownable(_owner) {... */\n  callvalue\n  dup1\n  iszero\n  tag_1\n  jumpi\n  revert(0x00, 0x00)\ntag_1:\n  pop\n  mload(0x40)\n  sub(codesize, bytecodeSize)\n  dup1\n  bytecodeSize\n  dup4\n  codecopy\n  dup2\n  dup2\n  add\n  0x40\n  mstore\n  dup2\n  add\n  swap1\n  tag_2\n  swap2\n  swap1\n  tag_3\n  jump\t// in\ntag_2:\n    /* \"ProjectFactory.sol\":1272:1278  _owner */\n  dup2\n    /* \"@openzeppelin/contracts/access/Ownable.sol\":1297:1298  0 */\n  0x00\n    /* \"@openzeppelin/contracts/access/Ownable.sol\":1273:1299  initialOwner == address(0) */\n  0xffffffffffffffffffffffffffffffffffffffff\n  and\n    /* \"@openzeppelin/contracts/access/Ownable.sol\":1273:1285  initialOwner */\n  dup2\n    /* \"@openzeppelin/contracts/access/Ownable.sol\":1273:1299  initialOwner == address(0) */\n  0xffffffffffffffffffffffffffffffffffffffff\n  and\n  sub\n    /* \"@openzeppelin/contracts/access/Ownable.sol\":1269:1364  if (initialOwner == address(0)) {... */\n  tag_8\n  jumpi\n    /* \"@openzeppelin/contracts/access/Ownable.sol\":1350:1351  0 */\n  0x00\n    /* \"@openzeppelin/contracts/access/Ownable.sol\":1322:1353  OwnableInvalidOwner(address(0)) */\n  mload(0x40)\n  0x1e4fbdf700000000000000000000000000000000000000000000000000000000\n  dup2\n  mstore\n  0x04\n  add\n  tag_9\n  swap2\n  swap1\n  tag_10\n  jump\t// in\ntag_9:\n  mload(0x40)\n  dup1\n  swap2\n  sub\n  swap1\n  revert\n    /* \"@openzeppelin/contracts/access/Ownable.sol\":1269:1364  if (initialOwner == address(0)) {... */\ntag_8:\n    /* \"@openzeppelin/contracts/access/Ownable.sol\":1373:1405  _transferOwnership(initialOwner) */\n  tag_11\n    /* \"@openzeppelin/contracts/access/Ownable.sol\":1392:1404  initialOwner */\n  dup2\n    /* \"@openzeppelin/contracts/access/Ownable.sol\":1373:1391  _transferOwnership */\n  shl(0x20, tag_12)\n    /* \"@openzeppelin/contracts/access/Ownable.sol\":1373:1405  _transferOwnership(initialOwner) */\n  0x20\n  shr\n  jump\t// in\ntag_11:\n    /* \"@openzeppelin/contracts/access/Ownable.sol\":1225:1412  constructor(address initialOwner) {... */\n  pop\n    /* \"@openzeppelin/contracts/security/Pausable.sol\":1006:1011  false */\n  0x00\n    /* \"@openzeppelin/contracts/security/Pausable.sol\":996:1003  _paused */\n  0x00\n  0x14\n    /* \"@openzeppelin/contracts/security/Pausable.sol\":996:1011  _paused = false */\n  0x0100\n  exp\n  dup2\n  sload\n  dup2\n  0xff\n  mul\n  not\n  and\n  swap1\n  dup4\n  iszero\n  iszero\n  mul\n  or\n  swap1\n  sstore\n  pop\n    /* \"ProjectFactory.sol\":1316:1317  0 */\n  0x00\n    /* \"ProjectFactory.sol\":1294:1318  _idrtToken == address(0) */\n  0xffffffffffffffffffffffffffffffffffffffff\n  and\n    /* \"ProjectFactory.sol\":1294:1304  _idrtToken */\n  dup4\n    /* \"ProjectFactory.sol\":1294:1318  _idrtToken == address(0) */\n  0xffffffffffffffffffffffffffffffffffffffff\n  and\n  eq\n    /* \"ProjectFactory.sol\":1294:1341  _idrtToken == address(0) || _impl == address(0) */\n  dup1\n  tag_15\n  jumpi\n  pop\n    /* \"ProjectFactory.sol\":1339:1340  0 */\n  0x00\n    /* \"ProjectFactory.sol\":1322:1341  _impl == address(0) */\n  0xffffffffffffffffffffffffffffffffffffffff\n  and\n    /* \"ProjectFactory.sol\":1322:1327  _impl */\n  dup2\n    /* \"ProjectFactory.sol\":1322:1341  _impl == address(0) */\n  0xffffffffffffffffffffffffffffffffffffffff\n  and\n  eq\n    /* \"ProjectFactory.sol\":1294:1341  _idrtToken == address(0) || _impl == address(0) */\ntag_15:\n    /* \"ProjectFactory.sol\":1294:1365  _idrtToken == address(0) || _impl == address(0) || _owner == address(0) */\n  dup1\n  tag_16\n  jumpi\n  pop\n    /* \"ProjectFactory.sol\":1363:1364  0 */\n  0x00\n    /* \"ProjectFactory.sol\":1345:1365  _owner == address(0) */\n  0xffffffffffffffffffffffffffffffffffffffff\n  and\n    /* \"ProjectFactory.sol\":1345:1351  _owner */\n  dup3\n    /* \"ProjectFactory.sol\":1345:1365  _owner == address(0) */\n  0xffffffffffffffffffffffffffffffffffffffff\n  and\n  eq\n    /* \"ProjectFactory.sol\":1294:1365  _idrtToken == address(0) || _impl == address(0) || _owner == address(0) */\ntag_16:\n    /* \"ProjectFactory.sol\":1290:1387  if (_idrtToken == address(0) || _impl == address(0) || _owner == address(0)) revert ZeroAddress() */\n  iszero\n  tag_17\n  jumpi\n    /* \"ProjectFactory.sol\":1374:1387  ZeroAddress() */\n  mload(0x40)\n  0xd92e233d00000000000000000000000000000000000000000000000000000000\n  dup2\n  mstore\n  0x04\n  add\n  mload(0x40)\n  dup1\n  swap2\n  sub\n  swap1\n  revert\n    /* \"ProjectFactory.sol\":1290:1387  if (_idrtToken == address(0) || _impl == address(0) || _owner == address(0)) revert ZeroAddress() */\ntag_17:\n    /* \"ProjectFactory.sol\":1409:1419  _idrtToken */\n  dup3\n    /* \"ProjectFactory.sol\":1397:1419  idrtToken = _idrtToken */\n  0xffffffffffffffffffffffffffffffffffffffff\n  and\n  0x80\n  dup2\n  0xffffffffffffffffffffffffffffffffffffffff\n  and\n  dup2\n  mstore\n  pop\n  pop\n    /* \"ProjectFactory.sol\":1460:1465  _impl */\n  dup1\n    /* \"ProjectFactory.sol\":1429:1457  farmingProjectImplementation */\n  0x01\n  0x00\n    /* \"ProjectFactory.sol\":1429:1465  farmingProjectImplementation = _impl */\n  0x0100\n  exp\n  dup2\n  sload\n  dup2\n  0xffffffffffffffffffffffffffffffffffffffff\n  mul\n  not\n  and\n  swap1\n  dup4\n  0xffffffffffffffffffffffffffffffffffffffff\n  and\n  mul\n  or\n  swap1\n  sstore\n  pop\n    /* \"ProjectFactory.sol\":1201:1472  constructor(address _idrtToken, address _owner, address _impl) Ownable(_owner) {... */\n  pop\n  pop\n  pop\n    /* \"ProjectFactory.sol\":393:4071  contract ProjectFactory is Ownable, Pausable {... */\n  jump(tag_18)\n    /* \"@openzeppelin/contracts/access/Ownable.sol\":2912:3099  function _transferOwnership(address newOwner) internal virtual {... */\ntag_12:\n    /* \"@openzeppelin/contracts/access/Ownable.sol\":2985:3001  address oldOwner */\n  0x00\n    /* \"@openzeppelin/contracts/access/Ownable.sol\":3004:3010  _owner */\n  0x00\n  0x00\n  swap1\n  sload\n  swap1\n  0x0100\n  exp\n  swap1\n  div\n  0xffffffffffffffffffffffffffffffffffffffff\n  and\n    /* \"@openzeppelin/contracts/access/Ownable.sol\":2985:3010  address oldOwner = _owner */\n  swap1\n  pop\n    /* \"@openzeppelin/contracts/access/Ownable.sol\":3029:3037  newOwner */\n  dup2\n    /* \"@openzeppelin/contracts/access/Ownable.sol\":3020:3026  _owner */\n  0x00\n  0x00\n    /* \"@openzeppelin/contracts/access/Ownable.sol\":3020:3037  _owner = newOwner */\n  0x0100\n  exp\n  dup2\n  sload\n  dup2\n  0xffffffffffffffffffffffffffffffffffffffff\n  mul\n  not\n  and\n  swap1\n  dup4\n  0xffffffffffffffffffffffffffffffffffffffff\n  and\n  mul\n  or\n  swap1\n  sstore\n  pop\n    /* \"@openzeppelin/contracts/access/Ownable.sol\":3083:3091  newOwner */\n  dup2\n    /* \"@openzeppelin/contracts/access/Ownable.sol\":3052:3092  OwnershipTransferred(oldOwner, newOwner) */\n  0xffffffffffffffffffffffffffffffffffffffff\n  and\n    /* \"@openzeppelin/contracts/access/Ownable.sol\":3073:3081  oldOwner */\n  dup2\n    /* \"@openzeppelin/contracts/access/Ownable.sol\":3052:3092  OwnershipTransferred(oldOwner, newOwner) */\n  0xffffffffffffffffffffffffffffffffffffffff\n  and\n  0x8be0079c531659141344cd1fd0a4f28419497f9722a3daafe3b4186f6b6457e0\n  mload(0x40)\n  mload(0x40)\n  dup1\n  swap2\n  sub\n  swap1\n  log3\n    /* \"@openzeppelin/contracts/access/Ownable.sol\":2975:3099  {... */\n  pop\n    /* \"@openzeppelin/contracts/access/Ownable.sol\":2912:3099  function _transferOwnership(address newOwner) internal virtual {... */\n  pop\n  jump\t// out\n    /* \"#utility.yul\":88:205   */\ntag_21:\n    /* \"#utility.yul\":197:198   */\n  0x00\n    /* \"#utility.yul\":194:195   */\n  0x00\n    /* \"#utility.yul\":187:199   */\n  revert\n    /* \"#utility.yul\":334:460   */\ntag_23:\n    /* \"#utility.yul\":371:378   */\n  0x00\n    /* \"#utility.yul\":411:453   */\n  0xffffffffffffffffffffffffffffffffffffffff\n    /* \"#utility.yul\":404:409   */\n  dup3\n    /* \"#utility.yul\":400:454   */\n  and\n    /* \"#utility.yul\":389:454   */\n  swap1\n  pop\n    /* \"#utility.yul\":334:460   */\n  swap2\n  swap1\n  pop\n  jump\t// out\n    /* \"#utility.yul\":466:562   */\ntag_24:\n    /* \"#utility.yul\":503:510   */\n  0x00\n    /* \"#utility.yul\":532:556   */\n  tag_34\n    /* \"#utility.yul\":550:555   */\n  dup3\n    /* \"#utility.yul\":532:556   */\n  tag_23\n  jump\t// in\ntag_34:\n    /* \"#utility.yul\":521:556   */\n  swap1\n  pop\n    /* \"#utility.yul\":466:562   */\n  swap2\n  swap1\n  pop\n  jump\t// out\n    /* \"#utility.yul\":568:690   */\ntag_25:\n    /* \"#utility.yul\":641:665   */\n  tag_36\n    /* \"#utility.yul\":659:664   */\n  dup2\n    /* \"#utility.yul\":641:665   */\n  tag_24\n  jump\t// in\ntag_36:\n    /* \"#utility.yul\":634:639   */\n  dup2\n    /* \"#utility.yul\":631:666   */\n  eq\n    /* \"#utility.yul\":621:684   */\n  tag_37\n  jumpi\n    /* \"#utility.yul\":680:681   */\n  0x00\n    /* \"#utility.yul\":677:678   */\n  0x00\n    /* \"#utility.yul\":670:682   */\n  revert\n    /* \"#utility.yul\":621:684   */\ntag_37:\n    /* \"#utility.yul\":568:690   */\n  pop\n  jump\t// out\n    /* \"#utility.yul\":696:839   */\ntag_26:\n    /* \"#utility.yul\":753:758   */\n  0x00\n    /* \"#utility.yul\":784:790   */\n  dup2\n    /* \"#utility.yul\":778:791   */\n  mload\n    /* \"#utility.yul\":769:791   */\n  swap1\n  pop\n    /* \"#utility.yul\":800:833   */\n  tag_39\n    /* \"#utility.yul\":827:832   */\n  dup2\n    /* \"#utility.yul\":800:833   */\n  tag_25\n  jump\t// in\ntag_39:\n    /* \"#utility.yul\":696:839   */\n  swap3\n  swap2\n  pop\n  pop\n  jump\t// out\n    /* \"#utility.yul\":845:1508   */\ntag_3:\n    /* \"#utility.yul\":933:939   */\n  0x00\n    /* \"#utility.yul\":941:947   */\n  0x00\n    /* \"#utility.yul\":949:955   */\n  0x00\n    /* \"#utility.yul\":998:1000   */\n  0x60\n    /* \"#utility.yul\":986:995   */\n  dup5\n    /* \"#utility.yul\":977:984   */\n  dup7\n    /* \"#utility.yul\":973:996   */\n  sub\n    /* \"#utility.yul\":969:1001   */\n  slt\n    /* \"#utility.yul\":966:1085   */\n  iszero\n  tag_41\n  jumpi\n    /* \"#utility.yul\":1004:1083   */\n  tag_42\n  tag_21\n  jump\t// in\ntag_42:\n    /* \"#utility.yul\":966:1085   */\ntag_41:\n    /* \"#utility.yul\":1124:1125   */\n  0x00\n    /* \"#utility.yul\":1149:1213   */\n  tag_43\n    /* \"#utility.yul\":1205:1212   */\n  dup7\n    /* \"#utility.yul\":1196:1202   */\n  dup3\n    /* \"#utility.yul\":1185:1194   */\n  dup8\n    /* \"#utility.yul\":1181:1203   */\n  add\n    /* \"#utility.yul\":1149:1213   */\n  tag_26\n  jump\t// in\ntag_43:\n    /* \"#utility.yul\":1139:1213   */\n  swap4\n  pop\n    /* \"#utility.yul\":1095:1223   */\n  pop\n    /* \"#utility.yul\":1262:1264   */\n  0x20\n    /* \"#utility.yul\":1288:1352   */\n  tag_44\n    /* \"#utility.yul\":1344:1351   */\n  dup7\n    /* \"#utility.yul\":1335:1341   */\n  dup3\n    /* \"#utility.yul\":1324:1333   */\n  dup8\n    /* \"#utility.yul\":1320:1342   */\n  add\n    /* \"#utility.yul\":1288:1352   */\n  tag_26\n  jump\t// in\ntag_44:\n    /* \"#utility.yul\":1278:1352   */\n  swap3\n  pop\n    /* \"#utility.yul\":1233:1362   */\n  pop\n    /* \"#utility.yul\":1401:1403   */\n  0x40\n    /* \"#utility.yul\":1427:1491   */\n  tag_45\n    /* \"#utility.yul\":1483:1490   */\n  dup7\n    /* \"#utility.yul\":1474:1480   */\n  dup3\n    /* \"#utility.yul\":1463:1472   */\n  dup8\n    /* \"#utility.yul\":1459:1481   */\n  add\n    /* \"#utility.yul\":1427:1491   */\n  tag_26\n  jump\t// in\ntag_45:\n    /* \"#utility.yul\":1417:1491   */\n  swap2\n  pop\n    /* \"#utility.yul\":1372:1501   */\n  pop\n    /* \"#utility.yul\":845:1508   */\n  swap3\n  pop\n  swap3\n  pop\n  swap3\n  jump\t// out\n    /* \"#utility.yul\":1514:1632   */\ntag_27:\n    /* \"#utility.yul\":1601:1625   */\n  tag_47\n    /* \"#utility.yul\":1619:1624   */\n  dup2\n    /* \"#utility.yul\":1601:1625   */\n  tag_24\n  jump\t// in\ntag_47:\n    /* \"#utility.yul\":1596:1599   */\n  dup3\n    /* \"#utility.yul\":1589:1626   */\n  mstore\n    /* \"#utility.yul\":1514:1632   */\n  pop\n  pop\n  jump\t// out\n    /* \"#utility.yul\":1638:1860   */\ntag_10:\n    /* \"#utility.yul\":1731:1735   */\n  0x00\n    /* \"#utility.yul\":1769:1771   */\n  0x20\n    /* \"#utility.yul\":1758:1767   */\n  dup3\n    /* \"#utility.yul\":1754:1772   */\n  add\n    /* \"#utility.yul\":1746:1772   */\n  swap1\n  pop\n    /* \"#utility.yul\":1782:1853   */\n  tag_49\n    /* \"#utility.yul\":1850:1851   */\n  0x00\n    /* \"#utility.yul\":1839:1848   */\n  dup4\n    /* \"#utility.yul\":1835:1852   */\n  add\n    /* \"#utility.yul\":1826:1832   */\n  dup5\n    /* \"#utility.yul\":1782:1853   */\n  tag_27\n  jump\t// in\ntag_49:\n    /* \"#utility.yul\":1638:1860   */\n  swap3\n  swap2\n  pop\n  pop\n  jump\t// out\n    /* \"ProjectFactory.sol\":393:4071  contract ProjectFactory is Ownable, Pausable {... */\ntag_18:\n  mload(0x80)\n  codecopy(0x00, dataOffset(sub_0), dataSize(sub_0))\n  0x00\n  assignImmutable(\"0xc14cd0a66bdc419d2e52369cdc9bcc330601a7df1268557a44a8b73b94984cd3\")\n  return(0x00, dataSize(sub_0))\nstop\n\nsub_0: assembly {\n        /* \"ProjectFactory.sol\":393:4071  contract ProjectFactory is Ownable, Pausable {... */\n      mstore(0x40, 0x80)\n      callvalue\n      dup1\n      iszero\n      tag_1\n      jumpi\n      revert(0x00, 0x00)\n    tag_1:\n      pop\n      jumpi(tag_2, lt(calldatasize, 0x04))\n      shr(0xe0, calldataload(0x00))\n      dup1\n      0x8da5cb5b\n      gt\n      tag_23\n      jumpi\n      dup1\n      0xbccddb80\n      gt\n      tag_24\n      jumpi\n      dup1\n      0xbccddb80\n      eq\n      tag_18\n      jumpi\n      dup1\n      0xd47dc2a5\n      eq\n      tag_19\n      jumpi\n      dup1\n      0xd58f2f27\n      eq\n      tag_20\n      jumpi\n      dup1\n      0xe935b7b1\n      eq\n      tag_21\n      jumpi\n      dup1\n      0xf2fde38b\n      eq\n      tag_22\n      jumpi\n      jump(tag_2)\n    tag_24:\n      dup1\n      0x8da5cb5b\n      eq\n      tag_13\n      jumpi\n      dup1\n      0x9c09f682\n      eq\n      tag_14\n      jumpi\n      dup1\n      0xa3bac32a\n      eq\n      tag_15\n      jumpi\n      dup1\n      0xb9b2b5cd\n      eq\n      tag_16\n      jumpi\n      dup1\n      0xba76fdef\n      eq\n      tag_17\n      jumpi\n      jump(tag_2)\n    tag_23:\n      dup1\n      0x5c975abb\n      gt\n      tag_25\n      jumpi\n      dup1\n      0x5c975abb\n      eq\n      tag_8\n      jumpi\n      dup1\n      0x6d1032e4\n      eq\n      tag_9\n      jumpi\n      dup1\n      0x715018a6\n      eq\n      tag_10\n      jumpi\n      dup1\n      0x8456cb59\n      eq\n      tag_11\n      jumpi\n      dup1\n      0x854dbe58\n      eq\n      tag_12\n      jumpi\n      jump(tag_2)\n    tag_25:\n      dup1\n      0x234ffdb1\n      eq\n      tag_3\n      jumpi\n      dup1\n      0x3e566245\n      eq\n      tag_4\n      jumpi\n      dup1\n      0x3f4ba83a\n      eq\n      tag_5\n      jumpi\n      dup1\n      0x4a213805\n      eq\n      tag_6\n      jumpi\n      dup1\n      0x4c2cb3fd\n      eq\n      tag_7\n      jumpi\n    tag_2:\n      revert(0x00, 0x00)\n        /* \"ProjectFactory.sol\":1999:2230  function setCooperative(address coop, bool status) external onlyOwner {... */\n    tag_3:\n      tag_26\n      0x04\n      dup1\n      calldatasize\n      sub\n      dup2\n      add\n      swap1\n      tag_27\n      swap2\n      swap1\n      tag_28\n      jump\t// in\n    tag_27:\n      tag_29\n      jump\t// in\n    tag_26:\n      stop\n        /* \"ProjectFactory.sol\":771:827  mapping(address => uint256[]) public cooperativeProjects */\n    tag_4:\n      tag_30\n      0x04\n      dup1\n      calldatasize\n      sub\n      dup2\n      add\n      swap1\n      tag_31\n      swap2\n      swap1\n      tag_32\n      jump\t// in\n    tag_31:\n      tag_33\n      jump\t// in\n    tag_30:\n      mload(0x40)\n      tag_34\n      swap2\n      swap1\n      tag_35\n      jump\t// in\n    tag_34:\n      mload(0x40)\n      dup1\n      swap2\n      sub\n      swap1\n      return\n        /* \"ProjectFactory.sol\":2303:2368  function unpause() external onlyOwner {... */\n    tag_5:\n      tag_36\n      tag_37\n      jump\t// in\n    tag_36:\n      stop\n        /* \"ProjectFactory.sol\":444:478  address public immutable idrtToken */\n    tag_6:\n      tag_38\n      tag_39\n      jump\t// in\n    tag_38:\n      mload(0x40)\n      tag_40\n      swap2\n      swap1\n      tag_41\n      jump\t// in\n    tag_40:\n      mload(0x40)\n      dup1\n      swap2\n      sub\n      swap1\n      return\n        /* \"ProjectFactory.sol\":484:527  address public farmingProjectImplementation */\n    tag_7:\n      tag_42\n      tag_43\n      jump\t// in\n    tag_42:\n      mload(0x40)\n      tag_44\n      swap2\n      swap1\n      tag_41\n      jump\t// in\n    tag_44:\n      mload(0x40)\n      dup1\n      swap2\n      sub\n      swap1\n      return\n        /* \"@openzeppelin/contracts/security/Pausable.sol\":1615:1699  function paused() public view virtual returns (bool) {... */\n    tag_8:\n      tag_45\n      tag_46\n      jump\t// in\n    tag_45:\n      mload(0x40)\n      tag_47\n      swap2\n      swap1\n      tag_48\n      jump\t// in\n    tag_47:\n      mload(0x40)\n      dup1\n      swap2\n      sub\n      swap1\n      return\n        /* \"ProjectFactory.sol\":709:765  mapping(address => bool) public isWhitelistedCooperative */\n    tag_9:\n      tag_49\n      0x04\n      dup1\n      calldatasize\n      sub\n      dup2\n      add\n      swap1\n      tag_50\n      swap2\n      swap1\n      tag_51\n      jump\t// in\n    tag_50:\n      tag_52\n      jump\t// in\n    tag_49:\n      mload(0x40)\n      tag_53\n      swap2\n      swap1\n      tag_48\n      jump\t// in\n    tag_53:\n      mload(0x40)\n      dup1\n      swap2\n      sub\n      swap1\n      return\n        /* \"@openzeppelin/contracts/access/Ownable.sol\":2293:2394  function renounceOwnership() public virtual onlyOwner {... */\n    tag_10:\n      tag_54\n      tag_55\n      jump\t// in\n    tag_54:\n      stop\n        /* \"ProjectFactory.sol\":2236:2297  function pause() external onlyOwner {... */\n    tag_11:\n      tag_56\n      tag_57\n      jump\t// in\n    tag_56:\n      stop\n        /* \"ProjectFactory.sol\":2374:3214  function createProject(... */\n    tag_12:\n      tag_58\n      0x04\n      dup1\n      calldatasize\n      sub\n      dup2\n      add\n      swap1\n      tag_59\n      swap2\n      swap1\n      tag_60\n      jump\t// in\n    tag_59:\n      tag_61\n      jump\t// in\n    tag_58:\n      mload(0x40)\n      tag_62\n      swap2\n      swap1\n      tag_41\n      jump\t// in\n    tag_62:\n      mload(0x40)\n      dup1\n      swap2\n      sub\n      swap1\n      return\n        /* \"@openzeppelin/contracts/access/Ownable.sol\":1638:1723  function owner() public view virtual returns (address) {... */\n    tag_13:\n      tag_63\n      tag_64\n      jump\t// in\n    tag_63:\n      mload(0x40)\n      tag_65\n      swap2\n      swap1\n      tag_41\n      jump\t// in\n    tag_65:\n      mload(0x40)\n      dup1\n      swap2\n      sub\n      swap1\n      return\n        /* \"ProjectFactory.sol\":1605:1739  function setProjectFee(uint256 newFee) external onlyOwner {... */\n    tag_14:\n      tag_66\n      0x04\n      dup1\n      calldatasize\n      sub\n      dup2\n      add\n      swap1\n      tag_67\n      swap2\n      swap1\n      tag_68\n      jump\t// in\n    tag_67:\n      tag_69\n      jump\t// in\n    tag_66:\n      stop\n        /* \"ProjectFactory.sol\":652:703  mapping(uint256 => address) public projectContracts */\n    tag_15:\n      tag_70\n      0x04\n      dup1\n      calldatasize\n      sub\n      dup2\n      add\n      swap1\n      tag_71\n      swap2\n      swap1\n      tag_68\n      jump\t// in\n    tag_71:\n      tag_72\n      jump\t// in\n    tag_70:\n      mload(0x40)\n      tag_73\n      swap2\n      swap1\n      tag_41\n      jump\t// in\n    tag_73:\n      mload(0x40)\n      dup1\n      swap2\n      sub\n      swap1\n      return\n        /* \"ProjectFactory.sol\":613:645  uint256 public totalFeeCollected */\n    tag_16:\n      tag_74\n      tag_75\n      jump\t// in\n    tag_74:\n      mload(0x40)\n      tag_76\n      swap2\n      swap1\n      tag_35\n      jump\t// in\n    tag_76:\n      mload(0x40)\n      dup1\n      swap2\n      sub\n      swap1\n      return\n        /* \"ProjectFactory.sol\":3953:4069  function getProjectContract(uint256 id) external view returns (address) {... */\n    tag_17:\n      tag_77\n      0x04\n      dup1\n      calldatasize\n      sub\n      dup2\n      add\n      swap1\n      tag_78\n      swap2\n      swap1\n      tag_68\n      jump\t// in\n    tag_78:\n      tag_79\n      jump\t// in\n    tag_77:\n      mload(0x40)\n      tag_80\n      swap2\n      swap1\n      tag_41\n      jump\t// in\n    tag_80:\n      mload(0x40)\n      dup1\n      swap2\n      sub\n      swap1\n      return\n        /* \"ProjectFactory.sol\":1745:1993  function setFarmingProjectImplementation(address newImpl) external onlyOwner {... */\n    tag_18:\n      tag_81\n      0x04\n      dup1\n      calldatasize\n      sub\n      dup2\n      add\n      swap1\n      tag_82\n      swap2\n      swap1\n      tag_51\n      jump\t// in\n    tag_82:\n      tag_83\n      jump\t// in\n    tag_81:\n      stop\n        /* \"ProjectFactory.sol\":3809:3947  function getProjectsByCooperative(address coop) external view returns (uint256[] memory) {... */\n    tag_19:\n      tag_84\n      0x04\n      dup1\n      calldatasize\n      sub\n      dup2\n      add\n      swap1\n      tag_85\n      swap2\n      swap1\n      tag_51\n      jump\t// in\n    tag_85:\n      tag_86\n      jump\t// in\n    tag_84:\n      mload(0x40)\n      tag_87\n      swap2\n      swap1\n      tag_88\n      jump\t// in\n    tag_87:\n      mload(0x40)\n      dup1\n      swap2\n      sub\n      swap1\n      return\n        /* \"ProjectFactory.sol\":533:573  uint256 public projectFee = 2000 * 10**6 */\n    tag_20:\n      tag_89\n      tag_90\n      jump\t// in\n    tag_89:\n      mload(0x40)\n      tag_91\n      swap2\n      swap1\n      tag_35\n      jump\t// in\n    tag_91:\n      mload(0x40)\n      dup1\n      swap2\n      sub\n      swap1\n      return\n        /* \"ProjectFactory.sol\":579:607  uint256 public nextProjectId */\n    tag_21:\n      tag_92\n      tag_93\n      jump\t// in\n    tag_92:\n      mload(0x40)\n      tag_94\n      swap2\n      swap1\n      tag_35\n      jump\t// in\n    tag_94:\n      mload(0x40)\n      dup1\n      swap2\n      sub\n      swap1\n      return\n        /* \"@openzeppelin/contracts/access/Ownable.sol\":2543:2758  function transferOwnership(address newOwner) public virtual onlyOwner {... */\n    tag_22:\n      tag_95\n      0x04\n      dup1\n      calldatasize\n      sub\n      dup2\n      add\n      swap1\n      tag_96\n      swap2\n      swap1\n      tag_51\n      jump\t// in\n    tag_96:\n      tag_97\n      jump\t// in\n    tag_95:\n      stop\n        /* \"ProjectFactory.sol\":1999:2230  function setCooperative(address coop, bool status) external onlyOwner {... */\n    tag_29:\n        /* \"@openzeppelin/contracts/access/Ownable.sol\":1531:1544  _checkOwner() */\n      tag_99\n        /* \"@openzeppelin/contracts/access/Ownable.sol\":1531:1542  _checkOwner */\n      tag_100\n        /* \"@openzeppelin/contracts/access/Ownable.sol\":1531:1544  _checkOwner() */\n      jump\t// in\n    tag_99:\n        /* \"ProjectFactory.sol\":2099:2100  0 */\n      0x00\n        /* \"ProjectFactory.sol\":2083:2101  coop == address(0) */\n      0xffffffffffffffffffffffffffffffffffffffff\n      and\n        /* \"ProjectFactory.sol\":2083:2087  coop */\n      dup3\n        /* \"ProjectFactory.sol\":2083:2101  coop == address(0) */\n      0xffffffffffffffffffffffffffffffffffffffff\n      and\n      sub\n        /* \"ProjectFactory.sol\":2079:2123  if (coop == address(0)) revert ZeroAddress() */\n      tag_102\n      jumpi\n        /* \"ProjectFactory.sol\":2110:2123  ZeroAddress() */\n      mload(0x40)\n      0xd92e233d00000000000000000000000000000000000000000000000000000000\n      dup2\n      mstore\n      0x04\n      add\n      mload(0x40)\n      dup1\n      swap2\n      sub\n      swap1\n      revert\n        /* \"ProjectFactory.sol\":2079:2123  if (coop == address(0)) revert ZeroAddress() */\n    tag_102:\n        /* \"ProjectFactory.sol\":2166:2172  status */\n      dup1\n        /* \"ProjectFactory.sol\":2133:2157  isWhitelistedCooperative */\n      0x06\n        /* \"ProjectFactory.sol\":2133:2163  isWhitelistedCooperative[coop] */\n      0x00\n        /* \"ProjectFactory.sol\":2158:2162  coop */\n      dup5\n        /* \"ProjectFactory.sol\":2133:2163  isWhitelistedCooperative[coop] */\n      0xffffffffffffffffffffffffffffffffffffffff\n      and\n      0xffffffffffffffffffffffffffffffffffffffff\n      and\n      dup2\n      mstore\n      0x20\n      add\n      swap1\n      dup2\n      mstore\n      0x20\n      add\n      0x00\n      keccak256\n      0x00\n        /* \"ProjectFactory.sol\":2133:2172  isWhitelistedCooperative[coop] = status */\n      0x0100\n      exp\n      dup2\n      sload\n      dup2\n      0xff\n      mul\n      not\n      and\n      swap1\n      dup4\n      iszero\n      iszero\n      mul\n      or\n      swap1\n      sstore\n      pop\n        /* \"ProjectFactory.sol\":2210:2214  coop */\n      dup2\n        /* \"ProjectFactory.sol\":2187:2223  CooperativeWhitelisted(coop, status) */\n      0xffffffffffffffffffffffffffffffffffffffff\n      and\n      0xc6458e4cdf9c1f0dd6e6342f7c368c589658aee054ed8b0998cc68d49e8fa1af\n        /* \"ProjectFactory.sol\":2216:2222  status */\n      dup3\n        /* \"ProjectFactory.sol\":2187:2223  CooperativeWhitelisted(coop, status) */\n      mload(0x40)\n      tag_103\n      swap2\n      swap1\n      tag_48\n      jump\t// in\n    tag_103:\n      mload(0x40)\n      dup1\n      swap2\n      sub\n      swap1\n      log2\n        /* \"ProjectFactory.sol\":1999:2230  function setCooperative(address coop, bool status) external onlyOwner {... */\n      pop\n      pop\n      jump\t// out\n        /* \"ProjectFactory.sol\":771:827  mapping(address => uint256[]) public cooperativeProjects */\n    tag_33:\n      mstore(0x20, 0x07)\n      dup2\n      0x00\n      mstore\n      keccak256(0x00, 0x40)\n      dup2\n      dup2\n      sload\n      dup2\n      lt\n      tag_104\n      jumpi\n      0x00\n      dup1\n      revert\n    tag_104:\n      swap1\n      0x00\n      mstore\n      keccak256(0x00, 0x20)\n      add\n      0x00\n      swap2\n      pop\n      swap2\n      pop\n      pop\n      sload\n      dup2\n      jump\t// out\n        /* \"ProjectFactory.sol\":2303:2368  function unpause() external onlyOwner {... */\n    tag_37:\n        /* \"@openzeppelin/contracts/access/Ownable.sol\":1531:1544  _checkOwner() */\n      tag_107\n        /* \"@openzeppelin/contracts/access/Ownable.sol\":1531:1542  _checkOwner */\n      tag_100\n        /* \"@openzeppelin/contracts/access/Ownable.sol\":1531:1544  _checkOwner() */\n      jump\t// in\n    tag_107:\n        /* \"ProjectFactory.sol\":2351:2361  _unpause() */\n      tag_109\n        /* \"ProjectFactory.sol\":2351:2359  _unpause */\n      tag_110\n        /* \"ProjectFactory.sol\":2351:2361  _unpause() */\n      jump\t// in\n    tag_109:\n        /* \"ProjectFactory.sol\":2303:2368  function unpause() external onlyOwner {... */\n      jump\t// out\n        /* \"ProjectFactory.sol\":444:478  address public immutable idrtToken */\n    tag_39:\n      immutable(\"0xc14cd0a66bdc419d2e52369cdc9bcc330601a7df1268557a44a8b73b94984cd3\")\n      dup2\n      jump\t// out\n        /* \"ProjectFactory.sol\":484:527  address public farmingProjectImplementation */\n    tag_43:\n      0x01\n      0x00\n      swap1\n      sload\n      swap1\n      0x0100\n      exp\n      swap1\n      div\n      0xffffffffffffffffffffffffffffffffffffffff\n      and\n      dup2\n      jump\t// out\n        /* \"@openzeppelin/contracts/security/Pausable.sol\":1615:1699  function paused() public view virtual returns (bool) {... */\n    tag_46:\n        /* \"@openzeppelin/contracts/security/Pausable.sol\":1662:1666  bool */\n      0x00\n        /* \"@openzeppelin/contracts/security/Pausable.sol\":1685:1692  _paused */\n      0x00\n      0x14\n      swap1\n      sload\n      swap1\n      0x0100\n      exp\n      swap1\n      div\n      0xff\n      and\n        /* \"@openzeppelin/contracts/security/Pausable.sol\":1678:1692  return _paused */\n      swap1\n      pop\n        /* \"@openzeppelin/contracts/security/Pausable.sol\":1615:1699  function paused() public view virtual returns (bool) {... */\n      swap1\n      jump\t// out\n        /* \"ProjectFactory.sol\":709:765  mapping(address => bool) public isWhitelistedCooperative */\n    tag_52:\n      mstore(0x20, 0x06)\n      dup1\n      0x00\n      mstore\n      keccak256(0x00, 0x40)\n      0x00\n      swap2\n      pop\n      sload\n      swap1\n      0x0100\n      exp\n      swap1\n      div\n      0xff\n      and\n      dup2\n      jump\t// out\n        /* \"@openzeppelin/contracts/access/Ownable.sol\":2293:2394  function renounceOwnership() public virtual onlyOwner {... */\n    tag_55:\n        /* \"@openzeppelin/contracts/access/Ownable.sol\":1531:1544  _checkOwner() */\n      tag_113\n        /* \"@openzeppelin/contracts/access/Ownable.sol\":1531:1542  _checkOwner */\n      tag_100\n        /* \"@openzeppelin/contracts/access/Ownable.sol\":1531:1544  _checkOwner() */\n      jump\t// in\n    tag_113:\n        /* \"@openzeppelin/contracts/access/Ownable.sol\":2357:2387  _transferOwnership(address(0)) */\n      tag_115\n        /* \"@openzeppelin/contracts/access/Ownable.sol\":2384:2385  0 */\n      0x00\n        /* \"@openzeppelin/contracts/access/Ownable.sol\":2357:2375  _transferOwnership */\n      tag_116\n        /* \"@openzeppelin/contracts/access/Ownable.sol\":2357:2387  _transferOwnership(address(0)) */\n      jump\t// in\n    tag_115:\n        /* \"@openzeppelin/contracts/access/Ownable.sol\":2293:2394  function renounceOwnership() public virtual onlyOwner {... */\n      jump\t// out\n        /* \"ProjectFactory.sol\":2236:2297  function pause() external onlyOwner {... */\n    tag_57:\n        /* \"@openzeppelin/contracts/access/Ownable.sol\":1531:1544  _checkOwner() */\n      tag_118\n        /* \"@openzeppelin/contracts/access/Ownable.sol\":1531:1542  _checkOwner */\n      tag_100\n        /* \"@openzeppelin/contracts/access/Ownable.sol\":1531:1544  _checkOwner() */\n      jump\t// in\n    tag_118:\n        /* \"ProjectFactory.sol\":2282:2290  _pause() */\n      tag_120\n        /* \"ProjectFactory.sol\":2282:2288  _pause */\n      tag_121\n        /* \"ProjectFactory.sol\":2282:2290  _pause() */\n      jump\t// in\n    tag_120:\n        /* \"ProjectFactory.sol\":2236:2297  function pause() external onlyOwner {... */\n      jump\t// out\n        /* \"ProjectFactory.sol\":2374:3214  function createProject(... */\n    tag_61:\n        /* \"ProjectFactory.sol\":2553:2560  address */\n      0x00\n        /* \"@openzeppelin/contracts/security/Pausable.sol\":1239:1258  _requireNotPaused() */\n      tag_123\n        /* \"@openzeppelin/contracts/security/Pausable.sol\":1239:1256  _requireNotPaused */\n      tag_124\n        /* \"@openzeppelin/contracts/security/Pausable.sol\":1239:1258  _requireNotPaused() */\n      jump\t// in\n    tag_123:\n        /* \"ProjectFactory.sol\":1520:1544  isWhitelistedCooperative */\n      0x06\n        /* \"ProjectFactory.sol\":1520:1556  isWhitelistedCooperative[msg.sender] */\n      0x00\n        /* \"ProjectFactory.sol\":1545:1555  msg.sender */\n      caller\n        /* \"ProjectFactory.sol\":1520:1556  isWhitelistedCooperative[msg.sender] */\n      0xffffffffffffffffffffffffffffffffffffffff\n      and\n      0xffffffffffffffffffffffffffffffffffffffff\n      and\n      dup2\n      mstore\n      0x20\n      add\n      swap1\n      dup2\n      mstore\n      0x20\n      add\n      0x00\n      keccak256\n      0x00\n      swap1\n      sload\n      swap1\n      0x0100\n      exp\n      swap1\n      div\n      0xff\n      and\n        /* \"ProjectFactory.sol\":1515:1581  if (!isWhitelistedCooperative[msg.sender]) revert NotCooperative() */\n      tag_126\n      jumpi\n        /* \"ProjectFactory.sol\":1565:1581  NotCooperative() */\n      mload(0x40)\n      0x34dea23200000000000000000000000000000000000000000000000000000000\n      dup2\n      mstore\n      0x04\n      add\n      mload(0x40)\n      dup1\n      swap2\n      sub\n      swap1\n      revert\n        /* \"ProjectFactory.sol\":1515:1581  if (!isWhitelistedCooperative[msg.sender]) revert NotCooperative() */\n    tag_126:\n        /* \"ProjectFactory.sol\":2593:2594  0 */\n      0x00\n        /* \"ProjectFactory.sol\":2576:2589  _targetAmount */\n      dup7\n        /* \"ProjectFactory.sol\":2576:2594  _targetAmount == 0 */\n      eq\n        /* \"ProjectFactory.sol\":2576:2623  _targetAmount == 0 || bytes(_title).length == 0 */\n      dup1\n      tag_128\n      jumpi\n      pop\n        /* \"ProjectFactory.sol\":2622:2623  0 */\n      0x00\n        /* \"ProjectFactory.sol\":2604:2610  _title */\n      dup6\n      dup6\n        /* \"ProjectFactory.sol\":2598:2618  bytes(_title).length */\n      swap1\n      pop\n        /* \"ProjectFactory.sol\":2598:2623  bytes(_title).length == 0 */\n      eq\n        /* \"ProjectFactory.sol\":2576:2623  _targetAmount == 0 || bytes(_title).length == 0 */\n    tag_128:\n        /* \"ProjectFactory.sol\":2576:2659  _targetAmount == 0 || bytes(_title).length == 0 || bytes(_metadataHash).length == 0 */\n      dup1\n      tag_129\n      jumpi\n      pop\n        /* \"ProjectFactory.sol\":2658:2659  0 */\n      0x00\n        /* \"ProjectFactory.sol\":2633:2646  _metadataHash */\n      dup4\n      dup4\n        /* \"ProjectFactory.sol\":2627:2654  bytes(_metadataHash).length */\n      swap1\n      pop\n        /* \"ProjectFactory.sol\":2627:2659  bytes(_metadataHash).length == 0 */\n      eq\n        /* \"ProjectFactory.sol\":2576:2659  _targetAmount == 0 || bytes(_title).length == 0 || bytes(_metadataHash).length == 0 */\n    tag_129:\n        /* \"ProjectFactory.sol\":2572:2682  if (_targetAmount == 0 || bytes(_title).length == 0 || bytes(_metadataHash).length == 0) revert InvalidInput() */\n      iszero\n      tag_130\n      jumpi\n        /* \"ProjectFactory.sol\":2668:2682  InvalidInput() */\n      mload(0x40)\n      0xb4fa3fb300000000000000000000000000000000000000000000000000000000\n      dup2\n      mstore\n      0x04\n      add\n      mload(0x40)\n      dup1\n      swap2\n      sub\n      swap1\n      revert\n        /* \"ProjectFactory.sol\":2572:2682  if (_targetAmount == 0 || bytes(_title).length == 0 || bytes(_metadataHash).length == 0) revert InvalidInput() */\n    tag_130:\n        /* \"ProjectFactory.sol\":2693:2705  bytes32 salt */\n      0x00\n        /* \"ProjectFactory.sol\":2735:2748  nextProjectId */\n      sload(0x03)\n        /* \"ProjectFactory.sol\":2750:2760  msg.sender */\n      caller\n        /* \"ProjectFactory.sol\":2762:2774  block.number */\n      number\n        /* \"ProjectFactory.sol\":2718:2775  abi.encodePacked(nextProjectId, msg.sender, block.number) */\n      add(0x20, mload(0x40))\n      tag_131\n      swap4\n      swap3\n      swap2\n      swap1\n      tag_132\n      jump\t// in\n    tag_131:\n      mload(0x40)\n      0x20\n      dup2\n      dup4\n      sub\n      sub\n      dup2\n      mstore\n      swap1\n      0x40\n      mstore\n        /* \"ProjectFactory.sol\":2708:2776  keccak256(abi.encodePacked(nextProjectId, msg.sender, block.number)) */\n      dup1\n      mload\n      swap1\n      0x20\n      add\n      keccak256\n        /* \"ProjectFactory.sol\":2693:2776  bytes32 salt = keccak256(abi.encodePacked(nextProjectId, msg.sender, block.number)) */\n      swap1\n      pop\n        /* \"ProjectFactory.sol\":2786:2799  address clone */\n      0x00\n        /* \"ProjectFactory.sol\":2802:2820  _deployClone(salt) */\n      tag_133\n        /* \"ProjectFactory.sol\":2815:2819  salt */\n      dup3\n        /* \"ProjectFactory.sol\":2802:2814  _deployClone */\n      tag_134\n        /* \"ProjectFactory.sol\":2802:2820  _deployClone(salt) */\n      jump\t// in\n    tag_133:\n        /* \"ProjectFactory.sol\":2786:2820  address clone = _deployClone(salt) */\n      swap1\n      pop\n        /* \"ProjectFactory.sol\":2847:2852  clone */\n      dup1\n        /* \"ProjectFactory.sol\":2831:2864  IFarmingProject(clone).initialize */\n      0xffffffffffffffffffffffffffffffffffffffff\n      and\n      0xd8ff8286\n        /* \"ProjectFactory.sol\":2878:2888  msg.sender */\n      caller\n        /* \"ProjectFactory.sol\":2902:2915  _targetAmount */\n      dup11\n        /* \"ProjectFactory.sol\":2929:2939  projectFee */\n      sload(0x02)\n        /* \"ProjectFactory.sol\":2953:2959  _title */\n      dup12\n      dup12\n        /* \"ProjectFactory.sol\":2973:2986  _metadataHash */\n      dup12\n      dup12\n        /* \"ProjectFactory.sol\":2831:2996  IFarmingProject(clone).initialize(... */\n      mload(0x40)\n      dup9\n      0xffffffff\n      and\n      0xe0\n      shl\n      dup2\n      mstore\n      0x04\n      add\n      tag_135\n      swap8\n      swap7\n      swap6\n      swap5\n      swap4\n      swap3\n      swap2\n      swap1\n      tag_136\n      jump\t// in\n    tag_135:\n      0x00\n      mload(0x40)\n      dup1\n      dup4\n      sub\n      dup2\n      0x00\n      dup8\n      dup1\n      extcodesize\n      iszero\n      dup1\n      iszero\n      tag_137\n      jumpi\n      revert(0x00, 0x00)\n    tag_137:\n      pop\n      gas\n      call\n      iszero\n      dup1\n      iszero\n      tag_139\n      jumpi\n      returndatacopy(0x00, 0x00, returndatasize)\n      revert(0x00, returndatasize)\n    tag_139:\n      pop\n      pop\n      pop\n      pop\n        /* \"ProjectFactory.sol\":3041:3046  clone */\n      dup1\n        /* \"ProjectFactory.sol\":3007:3023  projectContracts */\n      0x05\n        /* \"ProjectFactory.sol\":3007:3038  projectContracts[nextProjectId] */\n      0x00\n        /* \"ProjectFactory.sol\":3024:3037  nextProjectId */\n      sload(0x03)\n        /* \"ProjectFactory.sol\":3007:3038  projectContracts[nextProjectId] */\n      dup2\n      mstore\n      0x20\n      add\n      swap1\n      dup2\n      mstore\n      0x20\n      add\n      0x00\n      keccak256\n      0x00\n        /* \"ProjectFactory.sol\":3007:3046  projectContracts[nextProjectId] = clone */\n      0x0100\n      exp\n      dup2\n      sload\n      dup2\n      0xffffffffffffffffffffffffffffffffffffffff\n      mul\n      not\n      and\n      swap1\n      dup4\n      0xffffffffffffffffffffffffffffffffffffffff\n      and\n      mul\n      or\n      swap1\n      sstore\n      pop\n        /* \"ProjectFactory.sol\":3056:3075  cooperativeProjects */\n      0x07\n        /* \"ProjectFactory.sol\":3056:3087  cooperativeProjects[msg.sender] */\n      0x00\n        /* \"ProjectFactory.sol\":3076:3086  msg.sender */\n      caller\n        /* \"ProjectFactory.sol\":3056:3087  cooperativeProjects[msg.sender] */\n      0xffffffffffffffffffffffffffffffffffffffff\n      and\n      0xffffffffffffffffffffffffffffffffffffffff\n      and\n      dup2\n      mstore\n      0x20\n      add\n      swap1\n      dup2\n      mstore\n      0x20\n      add\n      0x00\n      keccak256\n        /* \"ProjectFactory.sol\":3093:3106  nextProjectId */\n      sload(0x03)\n        /* \"ProjectFactory.sol\":3056:3107  cooperativeProjects[msg.sender].push(nextProjectId) */\n      swap1\n      dup1\n      0x01\n      dup2\n      sload\n      add\n      dup1\n      dup3\n      sstore\n      dup1\n      swap2\n      pop\n      pop\n      0x01\n      swap1\n      sub\n      swap1\n      0x00\n      mstore\n      keccak256(0x00, 0x20)\n      add\n      0x00\n      swap1\n      swap2\n      swap1\n      swap2\n      swap1\n      swap2\n      pop\n      sstore\n        /* \"ProjectFactory.sol\":3138:3151  nextProjectId */\n      sload(0x03)\n        /* \"ProjectFactory.sol\":3123:3159  ProjectCreated(nextProjectId, clone) */\n      0x63c92f9505d420bff631cb9df33be952bdc11e2118da36a850b43e6bcc4ce4de\n        /* \"ProjectFactory.sol\":3153:3158  clone */\n      dup3\n        /* \"ProjectFactory.sol\":3123:3159  ProjectCreated(nextProjectId, clone) */\n      mload(0x40)\n      tag_141\n      swap2\n      swap1\n      tag_41\n      jump\t// in\n    tag_141:\n      mload(0x40)\n      dup1\n      swap2\n      sub\n      swap1\n      log2\n        /* \"ProjectFactory.sol\":3169:3182  nextProjectId */\n      0x03\n      0x00\n        /* \"ProjectFactory.sol\":3169:3184  nextProjectId++ */\n      dup2\n      sload\n      dup1\n      swap3\n      swap2\n      swap1\n      tag_142\n      swap1\n      tag_143\n      jump\t// in\n    tag_142:\n      swap2\n      swap1\n      pop\n      sstore\n      pop\n        /* \"ProjectFactory.sol\":3202:3207  clone */\n      dup1\n        /* \"ProjectFactory.sol\":3195:3207  return clone */\n      swap3\n      pop\n      pop\n      pop\n        /* \"ProjectFactory.sol\":2374:3214  function createProject(... */\n      swap6\n      swap5\n      pop\n      pop\n      pop\n      pop\n      pop\n      jump\t// out\n        /* \"@openzeppelin/contracts/access/Ownable.sol\":1638:1723  function owner() public view virtual returns (address) {... */\n    tag_64:\n        /* \"@openzeppelin/contracts/access/Ownable.sol\":1684:1691  address */\n      0x00\n        /* \"@openzeppelin/contracts/access/Ownable.sol\":1710:1716  _owner */\n      0x00\n      0x00\n      swap1\n      sload\n      swap1\n      0x0100\n      exp\n      swap1\n      div\n      0xffffffffffffffffffffffffffffffffffffffff\n      and\n        /* \"@openzeppelin/contracts/access/Ownable.sol\":1703:1716  return _owner */\n      swap1\n      pop\n        /* \"@openzeppelin/contracts/access/Ownable.sol\":1638:1723  function owner() public view virtual returns (address) {... */\n      swap1\n      jump\t// out\n        /* \"ProjectFactory.sol\":1605:1739  function setProjectFee(uint256 newFee) external onlyOwner {... */\n    tag_69:\n        /* \"@openzeppelin/contracts/access/Ownable.sol\":1531:1544  _checkOwner() */\n      tag_146\n        /* \"@openzeppelin/contracts/access/Ownable.sol\":1531:1542  _checkOwner */\n      tag_100\n        /* \"@openzeppelin/contracts/access/Ownable.sol\":1531:1544  _checkOwner() */\n      jump\t// in\n    tag_146:\n        /* \"ProjectFactory.sol\":1686:1692  newFee */\n      dup1\n        /* \"ProjectFactory.sol\":1673:1683  projectFee */\n      0x02\n        /* \"ProjectFactory.sol\":1673:1692  projectFee = newFee */\n      dup2\n      swap1\n      sstore\n      pop\n        /* \"ProjectFactory.sol\":1707:1732  ProjectFeeUpdated(newFee) */\n      0xbed46add49f1852fbdc678819bb401f7f59ac14a61bbfa2bb5a9ed73f788bcbd\n        /* \"ProjectFactory.sol\":1725:1731  newFee */\n      dup2\n        /* \"ProjectFactory.sol\":1707:1732  ProjectFeeUpdated(newFee) */\n      mload(0x40)\n      tag_148\n      swap2\n      swap1\n      tag_35\n      jump\t// in\n    tag_148:\n      mload(0x40)\n      dup1\n      swap2\n      sub\n      swap1\n      log1\n        /* \"ProjectFactory.sol\":1605:1739  function setProjectFee(uint256 newFee) external onlyOwner {... */\n      pop\n      jump\t// out\n        /* \"ProjectFactory.sol\":652:703  mapping(uint256 => address) public projectContracts */\n    tag_72:\n      mstore(0x20, 0x05)\n      dup1\n      0x00\n      mstore\n      keccak256(0x00, 0x40)\n      0x00\n      swap2\n      pop\n      sload\n      swap1\n      0x0100\n      exp\n      swap1\n      div\n      0xffffffffffffffffffffffffffffffffffffffff\n      and\n      dup2\n      jump\t// out\n        /* \"ProjectFactory.sol\":613:645  uint256 public totalFeeCollected */\n    tag_75:\n      sload(0x04)\n      dup2\n      jump\t// out\n        /* \"ProjectFactory.sol\":3953:4069  function getProjectContract(uint256 id) external view returns (address) {... */\n    tag_79:\n        /* \"ProjectFactory.sol\":4016:4023  address */\n      0x00\n        /* \"ProjectFactory.sol\":4042:4058  projectContracts */\n      0x05\n        /* \"ProjectFactory.sol\":4042:4062  projectContracts[id] */\n      0x00\n        /* \"ProjectFactory.sol\":4059:4061  id */\n      dup4\n        /* \"ProjectFactory.sol\":4042:4062  projectContracts[id] */\n      dup2\n      mstore\n      0x20\n      add\n      swap1\n      dup2\n      mstore\n      0x20\n      add\n      0x00\n      keccak256\n      0x00\n      swap1\n      sload\n      swap1\n      0x0100\n      exp\n      swap1\n      div\n      0xffffffffffffffffffffffffffffffffffffffff\n      and\n        /* \"ProjectFactory.sol\":4035:4062  return projectContracts[id] */\n      swap1\n      pop\n        /* \"ProjectFactory.sol\":3953:4069  function getProjectContract(uint256 id) external view returns (address) {... */\n      swap2\n      swap1\n      pop\n      jump\t// out\n        /* \"ProjectFactory.sol\":1745:1993  function setFarmingProjectImplementation(address newImpl) external onlyOwner {... */\n    tag_83:\n        /* \"@openzeppelin/contracts/access/Ownable.sol\":1531:1544  _checkOwner() */\n      tag_151\n        /* \"@openzeppelin/contracts/access/Ownable.sol\":1531:1542  _checkOwner */\n      tag_100\n        /* \"@openzeppelin/contracts/access/Ownable.sol\":1531:1544  _checkOwner() */\n      jump\t// in\n    tag_151:\n        /* \"ProjectFactory.sol\":1855:1856  0 */\n      0x00\n        /* \"ProjectFactory.sol\":1836:1857  newImpl == address(0) */\n      0xffffffffffffffffffffffffffffffffffffffff\n      and\n        /* \"ProjectFactory.sol\":1836:1843  newImpl */\n      dup2\n        /* \"ProjectFactory.sol\":1836:1857  newImpl == address(0) */\n      0xffffffffffffffffffffffffffffffffffffffff\n      and\n      sub\n        /* \"ProjectFactory.sol\":1832:1879  if (newImpl == address(0)) revert ZeroAddress() */\n      tag_153\n      jumpi\n        /* \"ProjectFactory.sol\":1866:1879  ZeroAddress() */\n      mload(0x40)\n      0xd92e233d00000000000000000000000000000000000000000000000000000000\n      dup2\n      mstore\n      0x04\n      add\n      mload(0x40)\n      dup1\n      swap2\n      sub\n      swap1\n      revert\n        /* \"ProjectFactory.sol\":1832:1879  if (newImpl == address(0)) revert ZeroAddress() */\n    tag_153:\n        /* \"ProjectFactory.sol\":1920:1927  newImpl */\n      dup1\n        /* \"ProjectFactory.sol\":1889:1917  farmingProjectImplementation */\n      0x01\n      0x00\n        /* \"ProjectFactory.sol\":1889:1927  farmingProjectImplementation = newImpl */\n      0x0100\n      exp\n      dup2\n      sload\n      dup2\n      0xffffffffffffffffffffffffffffffffffffffff\n      mul\n      not\n      and\n      swap1\n      dup4\n      0xffffffffffffffffffffffffffffffffffffffff\n      and\n      mul\n      or\n      swap1\n      sstore\n      pop\n        /* \"ProjectFactory.sol\":1942:1986  FarmingProjectImplementationUpdated(newImpl) */\n      0xd78db8e579d508cb8bc966bd44bd8785c1df4a956b31fc24fe4370bbc49e28d1\n        /* \"ProjectFactory.sol\":1978:1985  newImpl */\n      dup2\n        /* \"ProjectFactory.sol\":1942:1986  FarmingProjectImplementationUpdated(newImpl) */\n      mload(0x40)\n      tag_154\n      swap2\n      swap1\n      tag_41\n      jump\t// in\n    tag_154:\n      mload(0x40)\n      dup1\n      swap2\n      sub\n      swap1\n      log1\n        /* \"ProjectFactory.sol\":1745:1993  function setFarmingProjectImplementation(address newImpl) external onlyOwner {... */\n      pop\n      jump\t// out\n        /* \"ProjectFactory.sol\":3809:3947  function getProjectsByCooperative(address coop) external view returns (uint256[] memory) {... */\n    tag_86:\n        /* \"ProjectFactory.sol\":3880:3896  uint256[] memory */\n      0x60\n        /* \"ProjectFactory.sol\":3915:3934  cooperativeProjects */\n      0x07\n        /* \"ProjectFactory.sol\":3915:3940  cooperativeProjects[coop] */\n      0x00\n        /* \"ProjectFactory.sol\":3935:3939  coop */\n      dup4\n        /* \"ProjectFactory.sol\":3915:3940  cooperativeProjects[coop] */\n      0xffffffffffffffffffffffffffffffffffffffff\n      and\n      0xffffffffffffffffffffffffffffffffffffffff\n      and\n      dup2\n      mstore\n      0x20\n      add\n      swap1\n      dup2\n      mstore\n      0x20\n      add\n      0x00\n      keccak256\n        /* \"ProjectFactory.sol\":3908:3940  return cooperativeProjects[coop] */\n      dup1\n      sload\n      dup1\n      0x20\n      mul\n      0x20\n      add\n      mload(0x40)\n      swap1\n      dup2\n      add\n      0x40\n      mstore\n      dup1\n      swap3\n      swap2\n      swap1\n      dup2\n      dup2\n      mstore\n      0x20\n      add\n      dup3\n      dup1\n      sload\n      dup1\n      iszero\n      tag_156\n      jumpi\n      0x20\n      mul\n      dup3\n      add\n      swap2\n      swap1\n      0x00\n      mstore\n      keccak256(0x00, 0x20)\n      swap1\n    tag_157:\n      dup2\n      sload\n      dup2\n      mstore\n      0x20\n      add\n      swap1\n      0x01\n      add\n      swap1\n      dup1\n      dup4\n      gt\n      tag_157\n      jumpi\n    tag_156:\n      pop\n      pop\n      pop\n      pop\n      pop\n      swap1\n      pop\n        /* \"ProjectFactory.sol\":3809:3947  function getProjectsByCooperative(address coop) external view returns (uint256[] memory) {... */\n      swap2\n      swap1\n      pop\n      jump\t// out\n        /* \"ProjectFactory.sol\":533:573  uint256 public projectFee = 2000 * 10**6 */\n    tag_90:\n      sload(0x02)\n      dup2\n      jump\t// out\n        /* \"ProjectFactory.sol\":579:607  uint256 public nextProjectId */\n    tag_93:\n      sload(0x03)\n      dup2\n      jump\t// out\n        /* \"@openzeppelin/contracts/access/Ownable.sol\":2543:2758  function transferOwnership(address newOwner) public virtual onlyOwner {... */\n    tag_97:\n        /* \"@openzeppelin/contracts/access/Ownable.sol\":1531:1544  _checkOwner() */\n      tag_159\n        /* \"@openzeppelin/contracts/access/Ownable.sol\":1531:1542  _checkOwner */\n      tag_100\n        /* \"@openzeppelin/contracts/access/Ownable.sol\":1531:1544  _checkOwner() */\n      jump\t// in\n    tag_159:\n        /* \"@openzeppelin/contracts/access/Ownable.sol\":2647:2648  0 */\n      0x00\n        /* \"@openzeppelin/contracts/access/Ownable.sol\":2627:2649  newOwner == address(0) */\n      0xffffffffffffffffffffffffffffffffffffffff\n      and\n        /* \"@openzeppelin/contracts/access/Ownable.sol\":2627:2635  newOwner */\n      dup2\n        /* \"@openzeppelin/contracts/access/Ownable.sol\":2627:2649  newOwner == address(0) */\n      0xffffffffffffffffffffffffffffffffffffffff\n      and\n      sub\n        /* \"@openzeppelin/contracts/access/Ownable.sol\":2623:2714  if (newOwner == address(0)) {... */\n      tag_161\n      jumpi\n        /* \"@openzeppelin/contracts/access/Ownable.sol\":2700:2701  0 */\n      0x00\n        /* \"@openzeppelin/contracts/access/Ownable.sol\":2672:2703  OwnableInvalidOwner(address(0)) */\n      mload(0x40)\n      0x1e4fbdf700000000000000000000000000000000000000000000000000000000\n      dup2\n      mstore\n      0x04\n      add\n      tag_162\n      swap2\n      swap1\n      tag_41\n      jump\t// in\n    tag_162:\n      mload(0x40)\n      dup1\n      swap2\n      sub\n      swap1\n      revert\n        /* \"@openzeppelin/contracts/access/Ownable.sol\":2623:2714  if (newOwner == address(0)) {... */\n    tag_161:\n        /* \"@openzeppelin/contracts/access/Ownable.sol\":2723:2751  _transferOwnership(newOwner) */\n      tag_163\n        /* \"@openzeppelin/contracts/access/Ownable.sol\":2742:2750  newOwner */\n      dup2\n        /* \"@openzeppelin/contracts/access/Ownable.sol\":2723:2741  _transferOwnership */\n      tag_116\n        /* \"@openzeppelin/contracts/access/Ownable.sol\":2723:2751  _transferOwnership(newOwner) */\n      jump\t// in\n    tag_163:\n        /* \"@openzeppelin/contracts/access/Ownable.sol\":2543:2758  function transferOwnership(address newOwner) public virtual onlyOwner {... */\n      pop\n      jump\t// out\n        /* \"@openzeppelin/contracts/access/Ownable.sol\":1796:1958  function _checkOwner() internal view virtual {... */\n    tag_100:\n        /* \"@openzeppelin/contracts/access/Ownable.sol\":1866:1878  _msgSender() */\n      tag_165\n        /* \"@openzeppelin/contracts/access/Ownable.sol\":1866:1876  _msgSender */\n      tag_166\n        /* \"@openzeppelin/contracts/access/Ownable.sol\":1866:1878  _msgSender() */\n      jump\t// in\n    tag_165:\n        /* \"@openzeppelin/contracts/access/Ownable.sol\":1855:1878  owner() != _msgSender() */\n      0xffffffffffffffffffffffffffffffffffffffff\n      and\n        /* \"@openzeppelin/contracts/access/Ownable.sol\":1855:1862  owner() */\n      tag_167\n        /* \"@openzeppelin/contracts/access/Ownable.sol\":1855:1860  owner */\n      tag_64\n        /* \"@openzeppelin/contracts/access/Ownable.sol\":1855:1862  owner() */\n      jump\t// in\n    tag_167:\n        /* \"@openzeppelin/contracts/access/Ownable.sol\":1855:1878  owner() != _msgSender() */\n      0xffffffffffffffffffffffffffffffffffffffff\n      and\n      eq\n        /* \"@openzeppelin/contracts/access/Ownable.sol\":1851:1952  if (owner() != _msgSender()) {... */\n      tag_168\n      jumpi\n        /* \"@openzeppelin/contracts/access/Ownable.sol\":1928:1940  _msgSender() */\n      tag_169\n        /* \"@openzeppelin/contracts/access/Ownable.sol\":1928:1938  _msgSender */\n      tag_166\n        /* \"@openzeppelin/contracts/access/Ownable.sol\":1928:1940  _msgSender() */\n      jump\t// in\n    tag_169:\n        /* \"@openzeppelin/contracts/access/Ownable.sol\":1901:1941  OwnableUnauthorizedAccount(_msgSender()) */\n      mload(0x40)\n      0x118cdaa700000000000000000000000000000000000000000000000000000000\n      dup2\n      mstore\n      0x04\n      add\n      tag_170\n      swap2\n      swap1\n      tag_41\n      jump\t// in\n    tag_170:\n      mload(0x40)\n      dup1\n      swap2\n      sub\n      swap1\n      revert\n        /* \"@openzeppelin/contracts/access/Ownable.sol\":1851:1952  if (owner() != _msgSender()) {... */\n    tag_168:\n        /* \"@openzeppelin/contracts/access/Ownable.sol\":1796:1958  function _checkOwner() internal view virtual {... */\n      jump\t// out\n        /* \"@openzeppelin/contracts/security/Pausable.sol\":2433:2550  function _unpause() internal virtual whenPaused {... */\n    tag_110:\n        /* \"@openzeppelin/contracts/security/Pausable.sol\":1486:1502  _requirePaused() */\n      tag_172\n        /* \"@openzeppelin/contracts/security/Pausable.sol\":1486:1500  _requirePaused */\n      tag_173\n        /* \"@openzeppelin/contracts/security/Pausable.sol\":1486:1502  _requirePaused() */\n      jump\t// in\n    tag_172:\n        /* \"@openzeppelin/contracts/security/Pausable.sol\":2501:2506  false */\n      0x00\n        /* \"@openzeppelin/contracts/security/Pausable.sol\":2491:2498  _paused */\n      0x00\n      0x14\n        /* \"@openzeppelin/contracts/security/Pausable.sol\":2491:2506  _paused = false */\n      0x0100\n      exp\n      dup2\n      sload\n      dup2\n      0xff\n      mul\n      not\n      and\n      swap1\n      dup4\n      iszero\n      iszero\n      mul\n      or\n      swap1\n      sstore\n      pop\n        /* \"@openzeppelin/contracts/security/Pausable.sol\":2521:2543  Unpaused(_msgSender()) */\n      0x5db9ee0a495bf2e6ff9c91a7834c1ba4fdd244a5e8aa4e537bd38aeae4b073aa\n        /* \"@openzeppelin/contracts/security/Pausable.sol\":2530:2542  _msgSender() */\n      tag_175\n        /* \"@openzeppelin/contracts/security/Pausable.sol\":2530:2540  _msgSender */\n      tag_166\n        /* \"@openzeppelin/contracts/security/Pausable.sol\":2530:2542  _msgSender() */\n      jump\t// in\n    tag_175:\n        /* \"@openzeppelin/contracts/security/Pausable.sol\":2521:2543  Unpaused(_msgSender()) */\n      mload(0x40)\n      tag_176\n      swap2\n      swap1\n      tag_41\n      jump\t// in\n    tag_176:\n      mload(0x40)\n      dup1\n      swap2\n      sub\n      swap1\n      log1\n        /* \"@openzeppelin/contracts/security/Pausable.sol\":2433:2550  function _unpause() internal virtual whenPaused {... */\n      jump\t// out\n        /* \"@openzeppelin/contracts/access/Ownable.sol\":2912:3099  function _transferOwnership(address newOwner) internal virtual {... */\n    tag_116:\n        /* \"@openzeppelin/contracts/access/Ownable.sol\":2985:3001  address oldOwner */\n      0x00\n        /* \"@openzeppelin/contracts/access/Ownable.sol\":3004:3010  _owner */\n      0x00\n      0x00\n      swap1\n      sload\n      swap1\n      0x0100\n      exp\n      swap1\n      div\n      0xffffffffffffffffffffffffffffffffffffffff\n      and\n        /* \"@openzeppelin/contracts/access/Ownable.sol\":2985:3010  address oldOwner = _owner */\n      swap1\n      pop\n        /* \"@openzeppelin/contracts/access/Ownable.sol\":3029:3037  newOwner */\n      dup2\n        /* \"@openzeppelin/contracts/access/Ownable.sol\":3020:3026  _owner */\n      0x00\n      0x00\n        /* \"@openzeppelin/contracts/access/Ownable.sol\":3020:3037  _owner = newOwner */\n      0x0100\n      exp\n      dup2\n      sload\n      dup2\n      0xffffffffffffffffffffffffffffffffffffffff\n      mul\n      not\n      and\n      swap1\n      dup4\n      0xffffffffffffffffffffffffffffffffffffffff\n      and\n      mul\n      or\n      swap1\n      sstore\n      pop\n        /* \"@openzeppelin/contracts/access/Ownable.sol\":3083:3091  newOwner */\n      dup2\n        /* \"@openzeppelin/contracts/access/Ownable.sol\":3052:3092  OwnershipTransferred(oldOwner, newOwner) */\n      0xffffffffffffffffffffffffffffffffffffffff\n      and\n        /* \"@openzeppelin/contracts/access/Ownable.sol\":3073:3081  oldOwner */\n      dup2\n        /* \"@openzeppelin/contracts/access/Ownable.sol\":3052:3092  OwnershipTransferred(oldOwner, newOwner) */\n      0xffffffffffffffffffffffffffffffffffffffff\n      and\n      0x8be0079c531659141344cd1fd0a4f28419497f9722a3daafe3b4186f6b6457e0\n      mload(0x40)\n      mload(0x40)\n      dup1\n      swap2\n      sub\n      swap1\n      log3\n        /* \"@openzeppelin/contracts/access/Ownable.sol\":2975:3099  {... */\n      pop\n        /* \"@openzeppelin/contracts/access/Ownable.sol\":2912:3099  function _transferOwnership(address newOwner) internal virtual {... */\n      pop\n      jump\t// out\n        /* \"@openzeppelin/contracts/security/Pausable.sol\":2186:2301  function _pause() internal virtual whenNotPaused {... */\n    tag_121:\n        /* \"@openzeppelin/contracts/security/Pausable.sol\":1239:1258  _requireNotPaused() */\n      tag_179\n        /* \"@openzeppelin/contracts/security/Pausable.sol\":1239:1256  _requireNotPaused */\n      tag_124\n        /* \"@openzeppelin/contracts/security/Pausable.sol\":1239:1258  _requireNotPaused() */\n      jump\t// in\n    tag_179:\n        /* \"@openzeppelin/contracts/security/Pausable.sol\":2255:2259  true */\n      0x01\n        /* \"@openzeppelin/contracts/security/Pausable.sol\":2245:2252  _paused */\n      0x00\n      0x14\n        /* \"@openzeppelin/contracts/security/Pausable.sol\":2245:2259  _paused = true */\n      0x0100\n      exp\n      dup2\n      sload\n      dup2\n      0xff\n      mul\n      not\n      and\n      swap1\n      dup4\n      iszero\n      iszero\n      mul\n      or\n      swap1\n      sstore\n      pop\n        /* \"@openzeppelin/contracts/security/Pausable.sol\":2274:2294  Paused(_msgSender()) */\n      0x62e78cea01bee320cd4e420270b5ea74000d11b0c9f74754ebdbfc544b05a258\n        /* \"@openzeppelin/contracts/security/Pausable.sol\":2281:2293  _msgSender() */\n      tag_181\n        /* \"@openzeppelin/contracts/security/Pausable.sol\":2281:2291  _msgSender */\n      tag_166\n        /* \"@openzeppelin/contracts/security/Pausable.sol\":2281:2293  _msgSender() */\n      jump\t// in\n    tag_181:\n        /* \"@openzeppelin/contracts/security/Pausable.sol\":2274:2294  Paused(_msgSender()) */\n      mload(0x40)\n      tag_182\n      swap2\n      swap1\n      tag_41\n      jump\t// in\n    tag_182:\n      mload(0x40)\n      dup1\n      swap2\n      sub\n      swap1\n      log1\n        /* \"@openzeppelin/contracts/security/Pausable.sol\":2186:2301  function _pause() internal virtual whenNotPaused {... */\n      jump\t// out\n        /* \"@openzeppelin/contracts/security/Pausable.sol\":1767:1873  function _requireNotPaused() internal view virtual {... */\n    tag_124:\n        /* \"@openzeppelin/contracts/security/Pausable.sol\":1837:1845  paused() */\n      tag_184\n        /* \"@openzeppelin/contracts/security/Pausable.sol\":1837:1843  paused */\n      tag_46\n        /* \"@openzeppelin/contracts/security/Pausable.sol\":1837:1845  paused() */\n      jump\t// in\n    tag_184:\n        /* \"@openzeppelin/contracts/security/Pausable.sol\":1836:1845  !paused() */\n      iszero\n        /* \"@openzeppelin/contracts/security/Pausable.sol\":1828:1866  require(!paused(), \"Pausable: paused\") */\n      tag_185\n      jumpi\n      mload(0x40)\n      0x08c379a000000000000000000000000000000000000000000000000000000000\n      dup2\n      mstore\n      0x04\n      add\n      tag_186\n      swap1\n      tag_187\n      jump\t// in\n    tag_186:\n      mload(0x40)\n      dup1\n      swap2\n      sub\n      swap1\n      revert\n    tag_185:\n        /* \"@openzeppelin/contracts/security/Pausable.sol\":1767:1873  function _requireNotPaused() internal view virtual {... */\n      jump\t// out\n        /* \"ProjectFactory.sol\":3220:3803  function _deployClone(bytes32 salt) internal returns (address proxy) {... */\n    tag_134:\n        /* \"ProjectFactory.sol\":3274:3287  address proxy */\n      0x00\n        /* \"ProjectFactory.sol\":3299:3311  address impl */\n      0x00\n        /* \"ProjectFactory.sol\":3314:3342  farmingProjectImplementation */\n      0x01\n      0x00\n      swap1\n      sload\n      swap1\n      0x0100\n      exp\n      swap1\n      div\n      0xffffffffffffffffffffffffffffffffffffffff\n      and\n        /* \"ProjectFactory.sol\":3299:3342  address impl = farmingProjectImplementation */\n      swap1\n      pop\n        /* \"ProjectFactory.sol\":3352:3371  bytes20 targetBytes */\n      0x00\n        /* \"ProjectFactory.sol\":3382:3386  impl */\n      dup2\n        /* \"ProjectFactory.sol\":3374:3387  bytes20(impl) */\n      0x60\n      shl\n        /* \"ProjectFactory.sol\":3352:3387  bytes20 targetBytes = bytes20(impl) */\n      swap1\n      pop\n        /* \"ProjectFactory.sol\":3439:3443  0x40 */\n      0x40\n        /* \"ProjectFactory.sol\":3433:3444  mload(0x40) */\n      mload\n        /* \"ProjectFactory.sol\":3471:3493  0x3d602d80600a3d3981f3 */\n      0x3d602d80600a3d3981f3\n        /* \"ProjectFactory.sol\":3464:3469  clone */\n      dup2\n        /* \"ProjectFactory.sol\":3457:3494  mstore(clone, 0x3d602d80600a3d3981f3) */\n      mstore\n        /* \"ProjectFactory.sol\":3532:3554  0x363d3d373d3d3d363d73 */\n      0x363d3d373d3d3d363d73\n        /* \"ProjectFactory.sol\":3525:3529  0x14 */\n      0x14\n        /* \"ProjectFactory.sol\":3518:3523  clone */\n      dup3\n        /* \"ProjectFactory.sol\":3514:3530  add(clone, 0x14) */\n      add\n        /* \"ProjectFactory.sol\":3507:3555  mstore(add(clone, 0x14), 0x363d3d373d3d3d363d73) */\n      mstore\n        /* \"ProjectFactory.sol\":3593:3604  targetBytes */\n      dup2\n        /* \"ProjectFactory.sol\":3586:3590  0x28 */\n      0x28\n        /* \"ProjectFactory.sol\":3579:3584  clone */\n      dup3\n        /* \"ProjectFactory.sol\":3575:3591  add(clone, 0x28) */\n      add\n        /* \"ProjectFactory.sol\":3568:3605  mstore(add(clone, 0x28), targetBytes) */\n      mstore\n        /* \"ProjectFactory.sol\":3643:3675  0x5af43d82803e903d91602b57fd5bf3 */\n      0x5af43d82803e903d91602b57fd5bf3\n        /* \"ProjectFactory.sol\":3636:3640  0x3c */\n      0x3c\n        /* \"ProjectFactory.sol\":3629:3634  clone */\n      dup3\n        /* \"ProjectFactory.sol\":3625:3641  add(clone, 0x3c) */\n      add\n        /* \"ProjectFactory.sol\":3618:3676  mstore(add(clone, 0x3c), 0x5af43d82803e903d91602b57fd5bf3) */\n      mstore\n        /* \"ProjectFactory.sol\":3722:3726  salt */\n      dup5\n        /* \"ProjectFactory.sol\":3716:3720  0x37 */\n      0x37\n        /* \"ProjectFactory.sol\":3709:3714  clone */\n      dup3\n        /* \"ProjectFactory.sol\":3706:3707  0 */\n      0x00\n        /* \"ProjectFactory.sol\":3698:3727  create2(0, clone, 0x37, salt) */\n      create2\n        /* \"ProjectFactory.sol\":3689:3727  proxy := create2(0, clone, 0x37, salt) */\n      swap4\n      pop\n        /* \"ProjectFactory.sol\":3406:3737  {... */\n      pop\n        /* \"ProjectFactory.sol\":3767:3768  0 */\n      0x00\n        /* \"ProjectFactory.sol\":3750:3769  proxy == address(0) */\n      0xffffffffffffffffffffffffffffffffffffffff\n      and\n        /* \"ProjectFactory.sol\":3750:3755  proxy */\n      dup4\n        /* \"ProjectFactory.sol\":3750:3769  proxy == address(0) */\n      0xffffffffffffffffffffffffffffffffffffffff\n      and\n      sub\n        /* \"ProjectFactory.sol\":3746:3796  if (proxy == address(0)) revert DeploymentFailed() */\n      tag_189\n      jumpi\n        /* \"ProjectFactory.sol\":3778:3796  DeploymentFailed() */\n      mload(0x40)\n      0x3011642500000000000000000000000000000000000000000000000000000000\n      dup2\n      mstore\n      0x04\n      add\n      mload(0x40)\n      dup1\n      swap2\n      sub\n      swap1\n      revert\n        /* \"ProjectFactory.sol\":3746:3796  if (proxy == address(0)) revert DeploymentFailed() */\n    tag_189:\n        /* \"ProjectFactory.sol\":3289:3803  {... */\n      pop\n      pop\n        /* \"ProjectFactory.sol\":3220:3803  function _deployClone(bytes32 salt) internal returns (address proxy) {... */\n      swap2\n      swap1\n      pop\n      jump\t// out\n        /* \"@openzeppelin/contracts/utils/Context.sol\":656:752  function _msgSender() internal view virtual returns (address) {... */\n    tag_166:\n        /* \"@openzeppelin/contracts/utils/Context.sol\":709:716  address */\n      0x00\n        /* \"@openzeppelin/contracts/utils/Context.sol\":735:745  msg.sender */\n      caller\n        /* \"@openzeppelin/contracts/utils/Context.sol\":728:745  return msg.sender */\n      swap1\n      pop\n        /* \"@openzeppelin/contracts/utils/Context.sol\":656:752  function _msgSender() internal view virtual returns (address) {... */\n      swap1\n      jump\t// out\n        /* \"@openzeppelin/contracts/security/Pausable.sol\":1945:2051  function _requirePaused() internal view virtual {... */\n    tag_173:\n        /* \"@openzeppelin/contracts/security/Pausable.sol\":2011:2019  paused() */\n      tag_192\n        /* \"@openzeppelin/contracts/security/Pausable.sol\":2011:2017  paused */\n      tag_46\n        /* \"@openzeppelin/contracts/security/Pausable.sol\":2011:2019  paused() */\n      jump\t// in\n    tag_192:\n        /* \"@openzeppelin/contracts/security/Pausable.sol\":2003:2044  require(paused(), \"Pausable: not paused\") */\n      tag_193\n      jumpi\n      mload(0x40)\n      0x08c379a000000000000000000000000000000000000000000000000000000000\n      dup2\n      mstore\n      0x04\n      add\n      tag_194\n      swap1\n      tag_195\n      jump\t// in\n    tag_194:\n      mload(0x40)\n      dup1\n      swap2\n      sub\n      swap1\n      revert\n    tag_193:\n        /* \"@openzeppelin/contracts/security/Pausable.sol\":1945:2051  function _requirePaused() internal view virtual {... */\n      jump\t// out\n        /* \"#utility.yul\":88:205   */\n    tag_197:\n        /* \"#utility.yul\":197:198   */\n      0x00\n        /* \"#utility.yul\":194:195   */\n      0x00\n        /* \"#utility.yul\":187:199   */\n      revert\n        /* \"#utility.yul\":211:328   */\n    tag_198:\n        /* \"#utility.yul\":320:321   */\n      0x00\n        /* \"#utility.yul\":317:318   */\n      0x00\n        /* \"#utility.yul\":310:322   */\n      revert\n        /* \"#utility.yul\":334:460   */\n    tag_199:\n        /* \"#utility.yul\":371:378   */\n      0x00\n        /* \"#utility.yul\":411:453   */\n      0xffffffffffffffffffffffffffffffffffffffff\n        /* \"#utility.yul\":404:409   */\n      dup3\n        /* \"#utility.yul\":400:454   */\n      and\n        /* \"#utility.yul\":389:454   */\n      swap1\n      pop\n        /* \"#utility.yul\":334:460   */\n      swap2\n      swap1\n      pop\n      jump\t// out\n        /* \"#utility.yul\":466:562   */\n    tag_200:\n        /* \"#utility.yul\":503:510   */\n      0x00\n        /* \"#utility.yul\":532:556   */\n      tag_244\n        /* \"#utility.yul\":550:555   */\n      dup3\n        /* \"#utility.yul\":532:556   */\n      tag_199\n      jump\t// in\n    tag_244:\n        /* \"#utility.yul\":521:556   */\n      swap1\n      pop\n        /* \"#utility.yul\":466:562   */\n      swap2\n      swap1\n      pop\n      jump\t// out\n        /* \"#utility.yul\":568:690   */\n    tag_201:\n        /* \"#utility.yul\":641:665   */\n      tag_246\n        /* \"#utility.yul\":659:664   */\n      dup2\n        /* \"#utility.yul\":641:665   */\n      tag_200\n      jump\t// in\n    tag_246:\n        /* \"#utility.yul\":634:639   */\n      dup2\n        /* \"#utility.yul\":631:666   */\n      eq\n        /* \"#utility.yul\":621:684   */\n      tag_247\n      jumpi\n        /* \"#utility.yul\":680:681   */\n      0x00\n        /* \"#utility.yul\":677:678   */\n      0x00\n        /* \"#utility.yul\":670:682   */\n      revert\n        /* \"#utility.yul\":621:684   */\n    tag_247:\n        /* \"#utility.yul\":568:690   */\n      pop\n      jump\t// out\n        /* \"#utility.yul\":696:835   */\n    tag_202:\n        /* \"#utility.yul\":742:747   */\n      0x00\n        /* \"#utility.yul\":780:786   */\n      dup2\n        /* \"#utility.yul\":767:787   */\n      calldataload\n        /* \"#utility.yul\":758:787   */\n      swap1\n      pop\n        /* \"#utility.yul\":796:829   */\n      tag_249\n        /* \"#utility.yul\":823:828   */\n      dup2\n        /* \"#utility.yul\":796:829   */\n      tag_201\n      jump\t// in\n    tag_249:\n        /* \"#utility.yul\":696:835   */\n      swap3\n      swap2\n      pop\n      pop\n      jump\t// out\n        /* \"#utility.yul\":841:931   */\n    tag_203:\n        /* \"#utility.yul\":875:882   */\n      0x00\n        /* \"#utility.yul\":918:923   */\n      dup2\n        /* \"#utility.yul\":911:924   */\n      iszero\n        /* \"#utility.yul\":904:925   */\n      iszero\n        /* \"#utility.yul\":893:925   */\n      swap1\n      pop\n        /* \"#utility.yul\":841:931   */\n      swap2\n      swap1\n      pop\n      jump\t// out\n        /* \"#utility.yul\":937:1053   */\n    tag_204:\n        /* \"#utility.yul\":1007:1028   */\n      tag_252\n        /* \"#utility.yul\":1022:1027   */\n      dup2\n        /* \"#utility.yul\":1007:1028   */\n      tag_203\n      jump\t// in\n    tag_252:\n        /* \"#utility.yul\":1000:1005   */\n      dup2\n        /* \"#utility.yul\":997:1029   */\n      eq\n        /* \"#utility.yul\":987:1047   */\n      tag_253\n      jumpi\n        /* \"#utility.yul\":1043:1044   */\n      0x00\n        /* \"#utility.yul\":1040:1041   */\n      0x00\n        /* \"#utility.yul\":1033:1045   */\n      revert\n        /* \"#utility.yul\":987:1047   */\n    tag_253:\n        /* \"#utility.yul\":937:1053   */\n      pop\n      jump\t// out\n        /* \"#utility.yul\":1059:1192   */\n    tag_205:\n        /* \"#utility.yul\":1102:1107   */\n      0x00\n        /* \"#utility.yul\":1140:1146   */\n      dup2\n        /* \"#utility.yul\":1127:1147   */\n      calldataload\n        /* \"#utility.yul\":1118:1147   */\n      swap1\n      pop\n        /* \"#utility.yul\":1156:1186   */\n      tag_255\n        /* \"#utility.yul\":1180:1185   */\n      dup2\n        /* \"#utility.yul\":1156:1186   */\n      tag_204\n      jump\t// in\n    tag_255:\n        /* \"#utility.yul\":1059:1192   */\n      swap3\n      swap2\n      pop\n      pop\n      jump\t// out\n        /* \"#utility.yul\":1198:1666   */\n    tag_28:\n        /* \"#utility.yul\":1263:1269   */\n      0x00\n        /* \"#utility.yul\":1271:1277   */\n      0x00\n        /* \"#utility.yul\":1320:1322   */\n      0x40\n        /* \"#utility.yul\":1308:1317   */\n      dup4\n        /* \"#utility.yul\":1299:1306   */\n      dup6\n        /* \"#utility.yul\":1295:1318   */\n      sub\n        /* \"#utility.yul\":1291:1323   */\n      slt\n        /* \"#utility.yul\":1288:1407   */\n      iszero\n      tag_257\n      jumpi\n        /* \"#utility.yul\":1326:1405   */\n      tag_258\n      tag_197\n      jump\t// in\n    tag_258:\n        /* \"#utility.yul\":1288:1407   */\n    tag_257:\n        /* \"#utility.yul\":1446:1447   */\n      0x00\n        /* \"#utility.yul\":1471:1524   */\n      tag_259\n        /* \"#utility.yul\":1516:1523   */\n      dup6\n        /* \"#utility.yul\":1507:1513   */\n      dup3\n        /* \"#utility.yul\":1496:1505   */\n      dup7\n        /* \"#utility.yul\":1492:1514   */\n      add\n        /* \"#utility.yul\":1471:1524   */\n      tag_202\n      jump\t// in\n    tag_259:\n        /* \"#utility.yul\":1461:1524   */\n      swap3\n      pop\n        /* \"#utility.yul\":1417:1534   */\n      pop\n        /* \"#utility.yul\":1573:1575   */\n      0x20\n        /* \"#utility.yul\":1599:1649   */\n      tag_260\n        /* \"#utility.yul\":1641:1648   */\n      dup6\n        /* \"#utility.yul\":1632:1638   */\n      dup3\n        /* \"#utility.yul\":1621:1630   */\n      dup7\n        /* \"#utility.yul\":1617:1639   */\n      add\n        /* \"#utility.yul\":1599:1649   */\n      tag_205\n      jump\t// in\n    tag_260:\n        /* \"#utility.yul\":1589:1649   */\n      swap2\n      pop\n        /* \"#utility.yul\":1544:1659   */\n      pop\n        /* \"#utility.yul\":1198:1666   */\n      swap3\n      pop\n      swap3\n      swap1\n      pop\n      jump\t// out\n        /* \"#utility.yul\":1672:1749   */\n    tag_206:\n        /* \"#utility.yul\":1709:1716   */\n      0x00\n        /* \"#utility.yul\":1738:1743   */\n      dup2\n        /* \"#utility.yul\":1727:1743   */\n      swap1\n      pop\n        /* \"#utility.yul\":1672:1749   */\n      swap2\n      swap1\n      pop\n      jump\t// out\n        /* \"#utility.yul\":1755:1877   */\n    tag_207:\n        /* \"#utility.yul\":1828:1852   */\n      tag_263\n        /* \"#utility.yul\":1846:1851   */\n      dup2\n        /* \"#utility.yul\":1828:1852   */\n      tag_206\n      jump\t// in\n    tag_263:\n        /* \"#utility.yul\":1821:1826   */\n      dup2\n        /* \"#utility.yul\":1818:1853   */\n      eq\n        /* \"#utility.yul\":1808:1871   */\n      tag_264\n      jumpi\n        /* \"#utility.yul\":1867:1868   */\n      0x00\n        /* \"#utility.yul\":1864:1865   */\n      0x00\n        /* \"#utility.yul\":1857:1869   */\n      revert\n        /* \"#utility.yul\":1808:1871   */\n    tag_264:\n        /* \"#utility.yul\":1755:1877   */\n      pop\n      jump\t// out\n        /* \"#utility.yul\":1883:2022   */\n    tag_208:\n        /* \"#utility.yul\":1929:1934   */\n      0x00\n        /* \"#utility.yul\":1967:1973   */\n      dup2\n        /* \"#utility.yul\":1954:1974   */\n      calldataload\n        /* \"#utility.yul\":1945:1974   */\n      swap1\n      pop\n        /* \"#utility.yul\":1983:2016   */\n      tag_266\n        /* \"#utility.yul\":2010:2015   */\n      dup2\n        /* \"#utility.yul\":1983:2016   */\n      tag_207\n      jump\t// in\n    tag_266:\n        /* \"#utility.yul\":1883:2022   */\n      swap3\n      swap2\n      pop\n      pop\n      jump\t// out\n        /* \"#utility.yul\":2028:2502   */\n    tag_32:\n        /* \"#utility.yul\":2096:2102   */\n      0x00\n        /* \"#utility.yul\":2104:2110   */\n      0x00\n        /* \"#utility.yul\":2153:2155   */\n      0x40\n        /* \"#utility.yul\":2141:2150   */\n      dup4\n        /* \"#utility.yul\":2132:2139   */\n      dup6\n        /* \"#utility.yul\":2128:2151   */\n      sub\n        /* \"#utility.yul\":2124:2156   */\n      slt\n        /* \"#utility.yul\":2121:2240   */\n      iszero\n      tag_268\n      jumpi\n        /* \"#utility.yul\":2159:2238   */\n      tag_269\n      tag_197\n      jump\t// in\n    tag_269:\n        /* \"#utility.yul\":2121:2240   */\n    tag_268:\n        /* \"#utility.yul\":2279:2280   */\n      0x00\n        /* \"#utility.yul\":2304:2357   */\n      tag_270\n        /* \"#utility.yul\":2349:2356   */\n      dup6\n        /* \"#utility.yul\":2340:2346   */\n      dup3\n        /* \"#utility.yul\":2329:2338   */\n      dup7\n        /* \"#utility.yul\":2325:2347   */\n      add\n        /* \"#utility.yul\":2304:2357   */\n      tag_202\n      jump\t// in\n    tag_270:\n        /* \"#utility.yul\":2294:2357   */\n      swap3\n      pop\n        /* \"#utility.yul\":2250:2367   */\n      pop\n        /* \"#utility.yul\":2406:2408   */\n      0x20\n        /* \"#utility.yul\":2432:2485   */\n      tag_271\n        /* \"#utility.yul\":2477:2484   */\n      dup6\n        /* \"#utility.yul\":2468:2474   */\n      dup3\n        /* \"#utility.yul\":2457:2466   */\n      dup7\n        /* \"#utility.yul\":2453:2475   */\n      add\n        /* \"#utility.yul\":2432:2485   */\n      tag_208\n      jump\t// in\n    tag_271:\n        /* \"#utility.yul\":2422:2485   */\n      swap2\n      pop\n        /* \"#utility.yul\":2377:2495   */\n      pop\n        /* \"#utility.yul\":2028:2502   */\n      swap3\n      pop\n      swap3\n      swap1\n      pop\n      jump\t// out\n        /* \"#utility.yul\":2508:2626   */\n    tag_209:\n        /* \"#utility.yul\":2595:2619   */\n      tag_273\n        /* \"#utility.yul\":2613:2618   */\n      dup2\n        /* \"#utility.yul\":2595:2619   */\n      tag_206\n      jump\t// in\n    tag_273:\n        /* \"#utility.yul\":2590:2593   */\n      dup3\n        /* \"#utility.yul\":2583:2620   */\n      mstore\n        /* \"#utility.yul\":2508:2626   */\n      pop\n      pop\n      jump\t// out\n        /* \"#utility.yul\":2632:2854   */\n    tag_35:\n        /* \"#utility.yul\":2725:2729   */\n      0x00\n        /* \"#utility.yul\":2763:2765   */\n      0x20\n        /* \"#utility.yul\":2752:2761   */\n      dup3\n        /* \"#utility.yul\":2748:2766   */\n      add\n        /* \"#utility.yul\":2740:2766   */\n      swap1\n      pop\n        /* \"#utility.yul\":2776:2847   */\n      tag_275\n        /* \"#utility.yul\":2844:2845   */\n      0x00\n        /* \"#utility.yul\":2833:2842   */\n      dup4\n        /* \"#utility.yul\":2829:2846   */\n      add\n        /* \"#utility.yul\":2820:2826   */\n      dup5\n        /* \"#utility.yul\":2776:2847   */\n      tag_209\n      jump\t// in\n    tag_275:\n        /* \"#utility.yul\":2632:2854   */\n      swap3\n      swap2\n      pop\n      pop\n      jump\t// out\n        /* \"#utility.yul\":2860:2978   */\n    tag_210:\n        /* \"#utility.yul\":2947:2971   */\n      tag_277\n        /* \"#utility.yul\":2965:2970   */\n      dup2\n        /* \"#utility.yul\":2947:2971   */\n      tag_200\n      jump\t// in\n    tag_277:\n        /* \"#utility.yul\":2942:2945   */\n      dup3\n        /* \"#utility.yul\":2935:2972   */\n      mstore\n        /* \"#utility.yul\":2860:2978   */\n      pop\n      pop\n      jump\t// out\n        /* \"#utility.yul\":2984:3206   */\n    tag_41:\n        /* \"#utility.yul\":3077:3081   */\n      0x00\n        /* \"#utility.yul\":3115:3117   */\n      0x20\n        /* \"#utility.yul\":3104:3113   */\n      dup3\n        /* \"#utility.yul\":3100:3118   */\n      add\n        /* \"#utility.yul\":3092:3118   */\n      swap1\n      pop\n        /* \"#utility.yul\":3128:3199   */\n      tag_279\n        /* \"#utility.yul\":3196:3197   */\n      0x00\n        /* \"#utility.yul\":3185:3194   */\n      dup4\n        /* \"#utility.yul\":3181:3198   */\n      add\n        /* \"#utility.yul\":3172:3178   */\n      dup5\n        /* \"#utility.yul\":3128:3199   */\n      tag_210\n      jump\t// in\n    tag_279:\n        /* \"#utility.yul\":2984:3206   */\n      swap3\n      swap2\n      pop\n      pop\n      jump\t// out\n        /* \"#utility.yul\":3212:3321   */\n    tag_211:\n        /* \"#utility.yul\":3293:3314   */\n      tag_281\n        /* \"#utility.yul\":3308:3313   */\n      dup2\n        /* \"#utility.yul\":3293:3314   */\n      tag_203\n      jump\t// in\n    tag_281:\n        /* \"#utility.yul\":3288:3291   */\n      dup3\n        /* \"#utility.yul\":3281:3315   */\n      mstore\n        /* \"#utility.yul\":3212:3321   */\n      pop\n      pop\n      jump\t// out\n        /* \"#utility.yul\":3327:3537   */\n    tag_48:\n        /* \"#utility.yul\":3414:3418   */\n      0x00\n        /* \"#utility.yul\":3452:3454   */\n      0x20\n        /* \"#utility.yul\":3441:3450   */\n      dup3\n        /* \"#utility.yul\":3437:3455   */\n      add\n        /* \"#utility.yul\":3429:3455   */\n      swap1\n      pop\n        /* \"#utility.yul\":3465:3530   */\n      tag_283\n        /* \"#utility.yul\":3527:3528   */\n      0x00\n        /* \"#utility.yul\":3516:3525   */\n      dup4\n        /* \"#utility.yul\":3512:3529   */\n      add\n        /* \"#utility.yul\":3503:3509   */\n      dup5\n        /* \"#utility.yul\":3465:3530   */\n      tag_211\n      jump\t// in\n    tag_283:\n        /* \"#utility.yul\":3327:3537   */\n      swap3\n      swap2\n      pop\n      pop\n      jump\t// out\n        /* \"#utility.yul\":3543:3872   */\n    tag_51:\n        /* \"#utility.yul\":3602:3608   */\n      0x00\n        /* \"#utility.yul\":3651:3653   */\n      0x20\n        /* \"#utility.yul\":3639:3648   */\n      dup3\n        /* \"#utility.yul\":3630:3637   */\n      dup5\n        /* \"#utility.yul\":3626:3649   */\n      sub\n        /* \"#utility.yul\":3622:3654   */\n      slt\n        /* \"#utility.yul\":3619:3738   */\n      iszero\n      tag_285\n      jumpi\n        /* \"#utility.yul\":3657:3736   */\n      tag_286\n      tag_197\n      jump\t// in\n    tag_286:\n        /* \"#utility.yul\":3619:3738   */\n    tag_285:\n        /* \"#utility.yul\":3777:3778   */\n      0x00\n        /* \"#utility.yul\":3802:3855   */\n      tag_287\n        /* \"#utility.yul\":3847:3854   */\n      dup5\n        /* \"#utility.yul\":3838:3844   */\n      dup3\n        /* \"#utility.yul\":3827:3836   */\n      dup6\n        /* \"#utility.yul\":3823:3845   */\n      add\n        /* \"#utility.yul\":3802:3855   */\n      tag_202\n      jump\t// in\n    tag_287:\n        /* \"#utility.yul\":3792:3855   */\n      swap2\n      pop\n        /* \"#utility.yul\":3748:3865   */\n      pop\n        /* \"#utility.yul\":3543:3872   */\n      swap3\n      swap2\n      pop\n      pop\n      jump\t// out\n        /* \"#utility.yul\":3878:3995   */\n    tag_212:\n        /* \"#utility.yul\":3987:3988   */\n      0x00\n        /* \"#utility.yul\":3984:3985   */\n      0x00\n        /* \"#utility.yul\":3977:3989   */\n      revert\n        /* \"#utility.yul\":4001:4118   */\n    tag_213:\n        /* \"#utility.yul\":4110:4111   */\n      0x00\n        /* \"#utility.yul\":4107:4108   */\n      0x00\n        /* \"#utility.yul\":4100:4112   */\n      revert\n        /* \"#utility.yul\":4124:4241   */\n    tag_214:\n        /* \"#utility.yul\":4233:4234   */\n      0x00\n        /* \"#utility.yul\":4230:4231   */\n      0x00\n        /* \"#utility.yul\":4223:4235   */\n      revert\n        /* \"#utility.yul\":4261:4814   */\n    tag_215:\n        /* \"#utility.yul\":4319:4327   */\n      0x00\n        /* \"#utility.yul\":4329:4335   */\n      0x00\n        /* \"#utility.yul\":4379:4382   */\n      dup4\n        /* \"#utility.yul\":4372:4376   */\n      0x1f\n        /* \"#utility.yul\":4364:4370   */\n      dup5\n        /* \"#utility.yul\":4360:4377   */\n      add\n        /* \"#utility.yul\":4356:4383   */\n      slt\n        /* \"#utility.yul\":4346:4468   */\n      tag_292\n      jumpi\n        /* \"#utility.yul\":4387:4466   */\n      tag_293\n      tag_212\n      jump\t// in\n    tag_293:\n        /* \"#utility.yul\":4346:4468   */\n    tag_292:\n        /* \"#utility.yul\":4500:4506   */\n      dup3\n        /* \"#utility.yul\":4487:4507   */\n      calldataload\n        /* \"#utility.yul\":4477:4507   */\n      swap1\n      pop\n        /* \"#utility.yul\":4530:4548   */\n      0xffffffffffffffff\n        /* \"#utility.yul\":4522:4528   */\n      dup2\n        /* \"#utility.yul\":4519:4549   */\n      gt\n        /* \"#utility.yul\":4516:4633   */\n      iszero\n      tag_294\n      jumpi\n        /* \"#utility.yul\":4552:4631   */\n      tag_295\n      tag_213\n      jump\t// in\n    tag_295:\n        /* \"#utility.yul\":4516:4633   */\n    tag_294:\n        /* \"#utility.yul\":4666:4670   */\n      0x20\n        /* \"#utility.yul\":4658:4664   */\n      dup4\n        /* \"#utility.yul\":4654:4671   */\n      add\n        /* \"#utility.yul\":4642:4671   */\n      swap2\n      pop\n        /* \"#utility.yul\":4720:4723   */\n      dup4\n        /* \"#utility.yul\":4712:4716   */\n      0x01\n        /* \"#utility.yul\":4704:4710   */\n      dup3\n        /* \"#utility.yul\":4700:4717   */\n      mul\n        /* \"#utility.yul\":4690:4698   */\n      dup4\n        /* \"#utility.yul\":4686:4718   */\n      add\n        /* \"#utility.yul\":4683:4724   */\n      gt\n        /* \"#utility.yul\":4680:4808   */\n      iszero\n      tag_296\n      jumpi\n        /* \"#utility.yul\":4727:4806   */\n      tag_297\n      tag_214\n      jump\t// in\n    tag_297:\n        /* \"#utility.yul\":4680:4808   */\n    tag_296:\n        /* \"#utility.yul\":4261:4814   */\n      swap3\n      pop\n      swap3\n      swap1\n      pop\n      jump\t// out\n        /* \"#utility.yul\":4820:5839   */\n    tag_60:\n        /* \"#utility.yul\":4921:4927   */\n      0x00\n        /* \"#utility.yul\":4929:4935   */\n      0x00\n        /* \"#utility.yul\":4937:4943   */\n      0x00\n        /* \"#utility.yul\":4945:4951   */\n      0x00\n        /* \"#utility.yul\":4953:4959   */\n      0x00\n        /* \"#utility.yul\":5002:5004   */\n      0x60\n        /* \"#utility.yul\":4990:4999   */\n      dup7\n        /* \"#utility.yul\":4981:4988   */\n      dup9\n        /* \"#utility.yul\":4977:5000   */\n      sub\n        /* \"#utility.yul\":4973:5005   */\n      slt\n        /* \"#utility.yul\":4970:5089   */\n      iszero\n      tag_299\n      jumpi\n        /* \"#utility.yul\":5008:5087   */\n      tag_300\n      tag_197\n      jump\t// in\n    tag_300:\n        /* \"#utility.yul\":4970:5089   */\n    tag_299:\n        /* \"#utility.yul\":5128:5129   */\n      0x00\n        /* \"#utility.yul\":5153:5206   */\n      tag_301\n        /* \"#utility.yul\":5198:5205   */\n      dup9\n        /* \"#utility.yul\":5189:5195   */\n      dup3\n        /* \"#utility.yul\":5178:5187   */\n      dup10\n        /* \"#utility.yul\":5174:5196   */\n      add\n        /* \"#utility.yul\":5153:5206   */\n      tag_208\n      jump\t// in\n    tag_301:\n        /* \"#utility.yul\":5143:5206   */\n      swap6\n      pop\n        /* \"#utility.yul\":5099:5216   */\n      pop\n        /* \"#utility.yul\":5283:5285   */\n      0x20\n        /* \"#utility.yul\":5272:5281   */\n      dup7\n        /* \"#utility.yul\":5268:5286   */\n      add\n        /* \"#utility.yul\":5255:5287   */\n      calldataload\n        /* \"#utility.yul\":5314:5332   */\n      0xffffffffffffffff\n        /* \"#utility.yul\":5306:5312   */\n      dup2\n        /* \"#utility.yul\":5303:5333   */\n      gt\n        /* \"#utility.yul\":5300:5417   */\n      iszero\n      tag_302\n      jumpi\n        /* \"#utility.yul\":5336:5415   */\n      tag_303\n      tag_198\n      jump\t// in\n    tag_303:\n        /* \"#utility.yul\":5300:5417   */\n    tag_302:\n        /* \"#utility.yul\":5449:5514   */\n      tag_304\n        /* \"#utility.yul\":5506:5513   */\n      dup9\n        /* \"#utility.yul\":5497:5503   */\n      dup3\n        /* \"#utility.yul\":5486:5495   */\n      dup10\n        /* \"#utility.yul\":5482:5504   */\n      add\n        /* \"#utility.yul\":5449:5514   */\n      tag_215\n      jump\t// in\n    tag_304:\n        /* \"#utility.yul\":5431:5514   */\n      swap5\n      pop\n      swap5\n      pop\n        /* \"#utility.yul\":5226:5524   */\n      pop\n        /* \"#utility.yul\":5591:5593   */\n      0x40\n        /* \"#utility.yul\":5580:5589   */\n      dup7\n        /* \"#utility.yul\":5576:5594   */\n      add\n        /* \"#utility.yul\":5563:5595   */\n      calldataload\n        /* \"#utility.yul\":5622:5640   */\n      0xffffffffffffffff\n        /* \"#utility.yul\":5614:5620   */\n      dup2\n        /* \"#utility.yul\":5611:5641   */\n      gt\n        /* \"#utility.yul\":5608:5725   */\n      iszero\n      tag_305\n      jumpi\n        /* \"#utility.yul\":5644:5723   */\n      tag_306\n      tag_198\n      jump\t// in\n    tag_306:\n        /* \"#utility.yul\":5608:5725   */\n    tag_305:\n        /* \"#utility.yul\":5757:5822   */\n      tag_307\n        /* \"#utility.yul\":5814:5821   */\n      dup9\n        /* \"#utility.yul\":5805:5811   */\n      dup3\n        /* \"#utility.yul\":5794:5803   */\n      dup10\n        /* \"#utility.yul\":5790:5812   */\n      add\n        /* \"#utility.yul\":5757:5822   */\n      tag_215\n      jump\t// in\n    tag_307:\n        /* \"#utility.yul\":5739:5822   */\n      swap3\n      pop\n      swap3\n      pop\n        /* \"#utility.yul\":5534:5832   */\n      pop\n        /* \"#utility.yul\":4820:5839   */\n      swap3\n      swap6\n      pop\n      swap3\n      swap6\n      swap1\n      swap4\n      pop\n      jump\t// out\n        /* \"#utility.yul\":5845:6174   */\n    tag_68:\n        /* \"#utility.yul\":5904:5910   */\n      0x00\n        /* \"#utility.yul\":5953:5955   */\n      0x20\n        /* \"#utility.yul\":5941:5950   */\n      dup3\n        /* \"#utility.yul\":5932:5939   */\n      dup5\n        /* \"#utility.yul\":5928:5951   */\n      sub\n        /* \"#utility.yul\":5924:5956   */\n      slt\n        /* \"#utility.yul\":5921:6040   */\n      iszero\n      tag_309\n      jumpi\n        /* \"#utility.yul\":5959:6038   */\n      tag_310\n      tag_197\n      jump\t// in\n    tag_310:\n        /* \"#utility.yul\":5921:6040   */\n    tag_309:\n        /* \"#utility.yul\":6079:6080   */\n      0x00\n        /* \"#utility.yul\":6104:6157   */\n      tag_311\n        /* \"#utility.yul\":6149:6156   */\n      dup5\n        /* \"#utility.yul\":6140:6146   */\n      dup3\n        /* \"#utility.yul\":6129:6138   */\n      dup6\n        /* \"#utility.yul\":6125:6147   */\n      add\n        /* \"#utility.yul\":6104:6157   */\n      tag_208\n      jump\t// in\n    tag_311:\n        /* \"#utility.yul\":6094:6157   */\n      swap2\n      pop\n        /* \"#utility.yul\":6050:6167   */\n      pop\n        /* \"#utility.yul\":5845:6174   */\n      swap3\n      swap2\n      pop\n      pop\n      jump\t// out\n        /* \"#utility.yul\":6180:6294   */\n    tag_216:\n        /* \"#utility.yul\":6247:6253   */\n      0x00\n        /* \"#utility.yul\":6281:6286   */\n      dup2\n        /* \"#utility.yul\":6275:6287   */\n      mload\n        /* \"#utility.yul\":6265:6287   */\n      swap1\n      pop\n        /* \"#utility.yul\":6180:6294   */\n      swap2\n      swap1\n      pop\n      jump\t// out\n        /* \"#utility.yul\":6300:6484   */\n    tag_217:\n        /* \"#utility.yul\":6399:6410   */\n      0x00\n        /* \"#utility.yul\":6433:6439   */\n      dup3\n        /* \"#utility.yul\":6428:6431   */\n      dup3\n        /* \"#utility.yul\":6421:6440   */\n      mstore\n        /* \"#utility.yul\":6473:6477   */\n      0x20\n        /* \"#utility.yul\":6468:6471   */\n      dup3\n        /* \"#utility.yul\":6464:6478   */\n      add\n        /* \"#utility.yul\":6449:6478   */\n      swap1\n      pop\n        /* \"#utility.yul\":6300:6484   */\n      swap3\n      swap2\n      pop\n      pop\n      jump\t// out\n        /* \"#utility.yul\":6490:6622   */\n    tag_218:\n        /* \"#utility.yul\":6557:6561   */\n      0x00\n        /* \"#utility.yul\":6580:6583   */\n      dup2\n        /* \"#utility.yul\":6572:6583   */\n      swap1\n      pop\n        /* \"#utility.yul\":6610:6614   */\n      0x20\n        /* \"#utility.yul\":6605:6608   */\n      dup3\n        /* \"#utility.yul\":6601:6615   */\n      add\n        /* \"#utility.yul\":6593:6615   */\n      swap1\n      pop\n        /* \"#utility.yul\":6490:6622   */\n      swap2\n      swap1\n      pop\n      jump\t// out\n        /* \"#utility.yul\":6628:6736   */\n    tag_219:\n        /* \"#utility.yul\":6705:6729   */\n      tag_316\n        /* \"#utility.yul\":6723:6728   */\n      dup2\n        /* \"#utility.yul\":6705:6729   */\n      tag_206\n      jump\t// in\n    tag_316:\n        /* \"#utility.yul\":6700:6703   */\n      dup3\n        /* \"#utility.yul\":6693:6730   */\n      mstore\n        /* \"#utility.yul\":6628:6736   */\n      pop\n      pop\n      jump\t// out\n        /* \"#utility.yul\":6742:6921   */\n    tag_220:\n        /* \"#utility.yul\":6811:6821   */\n      0x00\n        /* \"#utility.yul\":6832:6878   */\n      tag_318\n        /* \"#utility.yul\":6874:6877   */\n      dup4\n        /* \"#utility.yul\":6866:6872   */\n      dup4\n        /* \"#utility.yul\":6832:6878   */\n      tag_219\n      jump\t// in\n    tag_318:\n        /* \"#utility.yul\":6910:6914   */\n      0x20\n        /* \"#utility.yul\":6905:6908   */\n      dup4\n        /* \"#utility.yul\":6901:6915   */\n      add\n        /* \"#utility.yul\":6887:6915   */\n      swap1\n      pop\n        /* \"#utility.yul\":6742:6921   */\n      swap3\n      swap2\n      pop\n      pop\n      jump\t// out\n        /* \"#utility.yul\":6927:7040   */\n    tag_221:\n        /* \"#utility.yul\":6997:7001   */\n      0x00\n        /* \"#utility.yul\":7029:7033   */\n      0x20\n        /* \"#utility.yul\":7024:7027   */\n      dup3\n        /* \"#utility.yul\":7020:7034   */\n      add\n        /* \"#utility.yul\":7012:7034   */\n      swap1\n      pop\n        /* \"#utility.yul\":6927:7040   */\n      swap2\n      swap1\n      pop\n      jump\t// out\n        /* \"#utility.yul\":7076:7808   */\n    tag_222:\n        /* \"#utility.yul\":7195:7198   */\n      0x00\n        /* \"#utility.yul\":7224:7278   */\n      tag_321\n        /* \"#utility.yul\":7272:7277   */\n      dup3\n        /* \"#utility.yul\":7224:7278   */\n      tag_216\n      jump\t// in\n    tag_321:\n        /* \"#utility.yul\":7294:7380   */\n      tag_322\n        /* \"#utility.yul\":7373:7379   */\n      dup2\n        /* \"#utility.yul\":7368:7371   */\n      dup6\n        /* \"#utility.yul\":7294:7380   */\n      tag_217\n      jump\t// in\n    tag_322:\n        /* \"#utility.yul\":7287:7380   */\n      swap4\n      pop\n        /* \"#utility.yul\":7404:7460   */\n      tag_323\n        /* \"#utility.yul\":7454:7459   */\n      dup4\n        /* \"#utility.yul\":7404:7460   */\n      tag_218\n      jump\t// in\n    tag_323:\n        /* \"#utility.yul\":7483:7490   */\n      dup1\n        /* \"#utility.yul\":7514:7515   */\n      0x00\n        /* \"#utility.yul\":7499:7783   */\n    tag_324:\n        /* \"#utility.yul\":7524:7530   */\n      dup4\n        /* \"#utility.yul\":7521:7522   */\n      dup2\n        /* \"#utility.yul\":7518:7531   */\n      lt\n        /* \"#utility.yul\":7499:7783   */\n      iszero\n      tag_326\n      jumpi\n        /* \"#utility.yul\":7600:7606   */\n      dup2\n        /* \"#utility.yul\":7594:7607   */\n      mload\n        /* \"#utility.yul\":7627:7690   */\n      tag_327\n        /* \"#utility.yul\":7686:7689   */\n      dup9\n        /* \"#utility.yul\":7671:7684   */\n      dup3\n        /* \"#utility.yul\":7627:7690   */\n      tag_220\n      jump\t// in\n    tag_327:\n        /* \"#utility.yul\":7620:7690   */\n      swap8\n      pop\n        /* \"#utility.yul\":7713:7773   */\n      tag_328\n        /* \"#utility.yul\":7766:7772   */\n      dup4\n        /* \"#utility.yul\":7713:7773   */\n      tag_221\n      jump\t// in\n    tag_328:\n        /* \"#utility.yul\":7703:7773   */\n      swap3\n      pop\n        /* \"#utility.yul\":7559:7783   */\n      pop\n        /* \"#utility.yul\":7546:7547   */\n      0x01\n        /* \"#utility.yul\":7543:7544   */\n      dup2\n        /* \"#utility.yul\":7539:7548   */\n      add\n        /* \"#utility.yul\":7534:7548   */\n      swap1\n      pop\n        /* \"#utility.yul\":7499:7783   */\n      jump(tag_324)\n    tag_326:\n        /* \"#utility.yul\":7503:7517   */\n      pop\n        /* \"#utility.yul\":7799:7802   */\n      dup6\n        /* \"#utility.yul\":7792:7802   */\n      swap4\n      pop\n        /* \"#utility.yul\":7200:7808   */\n      pop\n      pop\n      pop\n        /* \"#utility.yul\":7076:7808   */\n      swap3\n      swap2\n      pop\n      pop\n      jump\t// out\n        /* \"#utility.yul\":7814:8187   */\n    tag_88:\n        /* \"#utility.yul\":7957:7961   */\n      0x00\n        /* \"#utility.yul\":7995:7997   */\n      0x20\n        /* \"#utility.yul\":7984:7993   */\n      dup3\n        /* \"#utility.yul\":7980:7998   */\n      add\n        /* \"#utility.yul\":7972:7998   */\n      swap1\n      pop\n        /* \"#utility.yul\":8044:8053   */\n      dup2\n        /* \"#utility.yul\":8038:8042   */\n      dup2\n        /* \"#utility.yul\":8034:8054   */\n      sub\n        /* \"#utility.yul\":8030:8031   */\n      0x00\n        /* \"#utility.yul\":8019:8028   */\n      dup4\n        /* \"#utility.yul\":8015:8032   */\n      add\n        /* \"#utility.yul\":8008:8055   */\n      mstore\n        /* \"#utility.yul\":8072:8180   */\n      tag_330\n        /* \"#utility.yul\":8175:8179   */\n      dup2\n        /* \"#utility.yul\":8166:8172   */\n      dup5\n        /* \"#utility.yul\":8072:8180   */\n      tag_222\n      jump\t// in\n    tag_330:\n        /* \"#utility.yul\":8064:8180   */\n      swap1\n      pop\n        /* \"#utility.yul\":7814:8187   */\n      swap3\n      swap2\n      pop\n      pop\n      jump\t// out\n        /* \"#utility.yul\":8193:8272   */\n    tag_223:\n        /* \"#utility.yul\":8232:8239   */\n      0x00\n        /* \"#utility.yul\":8261:8266   */\n      dup2\n        /* \"#utility.yul\":8250:8266   */\n      swap1\n      pop\n        /* \"#utility.yul\":8193:8272   */\n      swap2\n      swap1\n      pop\n      jump\t// out\n        /* \"#utility.yul\":8278:8435   */\n    tag_224:\n        /* \"#utility.yul\":8383:8428   */\n      tag_333\n        /* \"#utility.yul\":8403:8427   */\n      tag_334\n        /* \"#utility.yul\":8421:8426   */\n      dup3\n        /* \"#utility.yul\":8403:8427   */\n      tag_206\n      jump\t// in\n    tag_334:\n        /* \"#utility.yul\":8383:8428   */\n      tag_223\n      jump\t// in\n    tag_333:\n        /* \"#utility.yul\":8378:8381   */\n      dup3\n        /* \"#utility.yul\":8371:8429   */\n      mstore\n        /* \"#utility.yul\":8278:8435   */\n      pop\n      pop\n      jump\t// out\n        /* \"#utility.yul\":8441:8535   */\n    tag_225:\n        /* \"#utility.yul\":8474:8482   */\n      0x00\n        /* \"#utility.yul\":8522:8527   */\n      dup2\n        /* \"#utility.yul\":8518:8520   */\n      0x60\n        /* \"#utility.yul\":8514:8528   */\n      shl\n        /* \"#utility.yul\":8493:8528   */\n      swap1\n      pop\n        /* \"#utility.yul\":8441:8535   */\n      swap2\n      swap1\n      pop\n      jump\t// out\n        /* \"#utility.yul\":8541:8635   */\n    tag_226:\n        /* \"#utility.yul\":8580:8587   */\n      0x00\n        /* \"#utility.yul\":8609:8629   */\n      tag_337\n        /* \"#utility.yul\":8623:8628   */\n      dup3\n        /* \"#utility.yul\":8609:8629   */\n      tag_225\n      jump\t// in\n    tag_337:\n        /* \"#utility.yul\":8598:8629   */\n      swap1\n      pop\n        /* \"#utility.yul\":8541:8635   */\n      swap2\n      swap1\n      pop\n      jump\t// out\n        /* \"#utility.yul\":8641:8741   */\n    tag_227:\n        /* \"#utility.yul\":8680:8687   */\n      0x00\n        /* \"#utility.yul\":8709:8735   */\n      tag_339\n        /* \"#utility.yul\":8729:8734   */\n      dup3\n        /* \"#utility.yul\":8709:8735   */\n      tag_226\n      jump\t// in\n    tag_339:\n        /* \"#utility.yul\":8698:8735   */\n      swap1\n      pop\n        /* \"#utility.yul\":8641:8741   */\n      swap2\n      swap1\n      pop\n      jump\t// out\n        /* \"#utility.yul\":8747:8904   */\n    tag_228:\n        /* \"#utility.yul\":8852:8897   */\n      tag_341\n        /* \"#utility.yul\":8872:8896   */\n      tag_342\n        /* \"#utility.yul\":8890:8895   */\n      dup3\n        /* \"#utility.yul\":8872:8896   */\n      tag_200\n      jump\t// in\n    tag_342:\n        /* \"#utility.yul\":8852:8897   */\n      tag_227\n      jump\t// in\n    tag_341:\n        /* \"#utility.yul\":8847:8850   */\n      dup3\n        /* \"#utility.yul\":8840:8898   */\n      mstore\n        /* \"#utility.yul\":8747:8904   */\n      pop\n      pop\n      jump\t// out\n        /* \"#utility.yul\":8910:9448   */\n    tag_132:\n        /* \"#utility.yul\":9078:9081   */\n      0x00\n        /* \"#utility.yul\":9093:9168   */\n      tag_344\n        /* \"#utility.yul\":9164:9167   */\n      dup3\n        /* \"#utility.yul\":9155:9161   */\n      dup7\n        /* \"#utility.yul\":9093:9168   */\n      tag_224\n      jump\t// in\n    tag_344:\n        /* \"#utility.yul\":9193:9195   */\n      0x20\n        /* \"#utility.yul\":9188:9191   */\n      dup3\n        /* \"#utility.yul\":9184:9196   */\n      add\n        /* \"#utility.yul\":9177:9196   */\n      swap2\n      pop\n        /* \"#utility.yul\":9206:9281   */\n      tag_345\n        /* \"#utility.yul\":9277:9280   */\n      dup3\n        /* \"#utility.yul\":9268:9274   */\n      dup6\n        /* \"#utility.yul\":9206:9281   */\n      tag_228\n      jump\t// in\n    tag_345:\n        /* \"#utility.yul\":9306:9308   */\n      0x14\n        /* \"#utility.yul\":9301:9304   */\n      dup3\n        /* \"#utility.yul\":9297:9309   */\n      add\n        /* \"#utility.yul\":9290:9309   */\n      swap2\n      pop\n        /* \"#utility.yul\":9319:9394   */\n      tag_346\n        /* \"#utility.yul\":9390:9393   */\n      dup3\n        /* \"#utility.yul\":9381:9387   */\n      dup5\n        /* \"#utility.yul\":9319:9394   */\n      tag_224\n      jump\t// in\n    tag_346:\n        /* \"#utility.yul\":9419:9421   */\n      0x20\n        /* \"#utility.yul\":9414:9417   */\n      dup3\n        /* \"#utility.yul\":9410:9422   */\n      add\n        /* \"#utility.yul\":9403:9422   */\n      swap2\n      pop\n        /* \"#utility.yul\":9439:9442   */\n      dup2\n        /* \"#utility.yul\":9432:9442   */\n      swap1\n      pop\n        /* \"#utility.yul\":8910:9448   */\n      swap5\n      swap4\n      pop\n      pop\n      pop\n      pop\n      jump\t// out\n        /* \"#utility.yul\":9454:9623   */\n    tag_229:\n        /* \"#utility.yul\":9538:9549   */\n      0x00\n        /* \"#utility.yul\":9572:9578   */\n      dup3\n        /* \"#utility.yul\":9567:9570   */\n      dup3\n        /* \"#utility.yul\":9560:9579   */\n      mstore\n        /* \"#utility.yul\":9612:9616   */\n      0x20\n        /* \"#utility.yul\":9607:9610   */\n      dup3\n        /* \"#utility.yul\":9603:9617   */\n      add\n        /* \"#utility.yul\":9588:9617   */\n      swap1\n      pop\n        /* \"#utility.yul\":9454:9623   */\n      swap3\n      swap2\n      pop\n      pop\n      jump\t// out\n        /* \"#utility.yul\":9629:9777   */\n    tag_230:\n        /* \"#utility.yul\":9727:9733   */\n      dup3\n        /* \"#utility.yul\":9722:9725   */\n      dup2\n        /* \"#utility.yul\":9717:9720   */\n      dup4\n        /* \"#utility.yul\":9704:9734   */\n      calldatacopy\n        /* \"#utility.yul\":9768:9769   */\n      0x00\n        /* \"#utility.yul\":9759:9765   */\n      dup4\n        /* \"#utility.yul\":9754:9757   */\n      dup4\n        /* \"#utility.yul\":9750:9766   */\n      add\n        /* \"#utility.yul\":9743:9770   */\n      mstore\n        /* \"#utility.yul\":9629:9777   */\n      pop\n      pop\n      pop\n      jump\t// out\n        /* \"#utility.yul\":9783:9885   */\n    tag_231:\n        /* \"#utility.yul\":9824:9830   */\n      0x00\n        /* \"#utility.yul\":9875:9877   */\n      0x1f\n        /* \"#utility.yul\":9871:9878   */\n      not\n        /* \"#utility.yul\":9866:9868   */\n      0x1f\n        /* \"#utility.yul\":9859:9864   */\n      dup4\n        /* \"#utility.yul\":9855:9869   */\n      add\n        /* \"#utility.yul\":9851:9879   */\n      and\n        /* \"#utility.yul\":9841:9879   */\n      swap1\n      pop\n        /* \"#utility.yul\":9783:9885   */\n      swap2\n      swap1\n      pop\n      jump\t// out\n        /* \"#utility.yul\":9915:10232   */\n    tag_232:\n        /* \"#utility.yul\":10013:10016   */\n      0x00\n        /* \"#utility.yul\":10034:10105   */\n      tag_351\n        /* \"#utility.yul\":10098:10104   */\n      dup4\n        /* \"#utility.yul\":10093:10096   */\n      dup6\n        /* \"#utility.yul\":10034:10105   */\n      tag_229\n      jump\t// in\n    tag_351:\n        /* \"#utility.yul\":10027:10105   */\n      swap4\n      pop\n        /* \"#utility.yul\":10115:10171   */\n      tag_352\n        /* \"#utility.yul\":10164:10170   */\n      dup4\n        /* \"#utility.yul\":10159:10162   */\n      dup6\n        /* \"#utility.yul\":10152:10157   */\n      dup5\n        /* \"#utility.yul\":10115:10171   */\n      tag_230\n      jump\t// in\n    tag_352:\n        /* \"#utility.yul\":10196:10225   */\n      tag_353\n        /* \"#utility.yul\":10218:10224   */\n      dup4\n        /* \"#utility.yul\":10196:10225   */\n      tag_231\n      jump\t// in\n    tag_353:\n        /* \"#utility.yul\":10191:10194   */\n      dup5\n        /* \"#utility.yul\":10187:10226   */\n      add\n        /* \"#utility.yul\":10180:10226   */\n      swap1\n      pop\n        /* \"#utility.yul\":9915:10232   */\n      swap4\n      swap3\n      pop\n      pop\n      pop\n      jump\t// out\n        /* \"#utility.yul\":10238:11124   */\n    tag_136:\n        /* \"#utility.yul\":10503:10507   */\n      0x00\n        /* \"#utility.yul\":10541:10544   */\n      0xa0\n        /* \"#utility.yul\":10530:10539   */\n      dup3\n        /* \"#utility.yul\":10526:10545   */\n      add\n        /* \"#utility.yul\":10518:10545   */\n      swap1\n      pop\n        /* \"#utility.yul\":10555:10626   */\n      tag_355\n        /* \"#utility.yul\":10623:10624   */\n      0x00\n        /* \"#utility.yul\":10612:10621   */\n      dup4\n        /* \"#utility.yul\":10608:10625   */\n      add\n        /* \"#utility.yul\":10599:10605   */\n      dup11\n        /* \"#utility.yul\":10555:10626   */\n      tag_210\n      jump\t// in\n    tag_355:\n        /* \"#utility.yul\":10636:10708   */\n      tag_356\n        /* \"#utility.yul\":10704:10706   */\n      0x20\n        /* \"#utility.yul\":10693:10702   */\n      dup4\n        /* \"#utility.yul\":10689:10707   */\n      add\n        /* \"#utility.yul\":10680:10686   */\n      dup10\n        /* \"#utility.yul\":10636:10708   */\n      tag_209\n      jump\t// in\n    tag_356:\n        /* \"#utility.yul\":10718:10790   */\n      tag_357\n        /* \"#utility.yul\":10786:10788   */\n      0x40\n        /* \"#utility.yul\":10775:10784   */\n      dup4\n        /* \"#utility.yul\":10771:10789   */\n      add\n        /* \"#utility.yul\":10762:10768   */\n      dup9\n        /* \"#utility.yul\":10718:10790   */\n      tag_209\n      jump\t// in\n    tag_357:\n        /* \"#utility.yul\":10837:10846   */\n      dup2\n        /* \"#utility.yul\":10831:10835   */\n      dup2\n        /* \"#utility.yul\":10827:10847   */\n      sub\n        /* \"#utility.yul\":10822:10824   */\n      0x60\n        /* \"#utility.yul\":10811:10820   */\n      dup4\n        /* \"#utility.yul\":10807:10825   */\n      add\n        /* \"#utility.yul\":10800:10848   */\n      mstore\n        /* \"#utility.yul\":10865:10953   */\n      tag_358\n        /* \"#utility.yul\":10948:10952   */\n      dup2\n        /* \"#utility.yul\":10939:10945   */\n      dup7\n        /* \"#utility.yul\":10931:10937   */\n      dup9\n        /* \"#utility.yul\":10865:10953   */\n      tag_232\n      jump\t// in\n    tag_358:\n        /* \"#utility.yul\":10857:10953   */\n      swap1\n      pop\n        /* \"#utility.yul\":11001:11010   */\n      dup2\n        /* \"#utility.yul\":10995:10999   */\n      dup2\n        /* \"#utility.yul\":10991:11011   */\n      sub\n        /* \"#utility.yul\":10985:10988   */\n      0x80\n        /* \"#utility.yul\":10974:10983   */\n      dup4\n        /* \"#utility.yul\":10970:10989   */\n      add\n        /* \"#utility.yul\":10963:11012   */\n      mstore\n        /* \"#utility.yul\":11029:11117   */\n      tag_359\n        /* \"#utility.yul\":11112:11116   */\n      dup2\n        /* \"#utility.yul\":11103:11109   */\n      dup5\n        /* \"#utility.yul\":11095:11101   */\n      dup7\n        /* \"#utility.yul\":11029:11117   */\n      tag_232\n      jump\t// in\n    tag_359:\n        /* \"#utility.yul\":11021:11117   */\n      swap1\n      pop\n        /* \"#utility.yul\":10238:11124   */\n      swap9\n      swap8\n      pop\n      pop\n      pop\n      pop\n      pop\n      pop\n      pop\n      pop\n      jump\t// out\n        /* \"#utility.yul\":11130:11310   */\n    tag_233:\n        /* \"#utility.yul\":11178:11255   */\n      0x4e487b7100000000000000000000000000000000000000000000000000000000\n        /* \"#utility.yul\":11175:11176   */\n      0x00\n        /* \"#utility.yul\":11168:11256   */\n      mstore\n        /* \"#utility.yul\":11275:11279   */\n      0x11\n        /* \"#utility.yul\":11272:11273   */\n      0x04\n        /* \"#utility.yul\":11265:11280   */\n      mstore\n        /* \"#utility.yul\":11299:11303   */\n      0x24\n        /* \"#utility.yul\":11296:11297   */\n      0x00\n        /* \"#utility.yul\":11289:11304   */\n      revert\n        /* \"#utility.yul\":11316:11549   */\n    tag_143:\n        /* \"#utility.yul\":11355:11358   */\n      0x00\n        /* \"#utility.yul\":11378:11402   */\n      tag_362\n        /* \"#utility.yul\":11396:11401   */\n      dup3\n        /* \"#utility.yul\":11378:11402   */\n      tag_206\n      jump\t// in\n    tag_362:\n        /* \"#utility.yul\":11369:11402   */\n      swap2\n      pop\n        /* \"#utility.yul\":11424:11490   */\n      0xffffffffffffffffffffffffffffffffffffffffffffffffffffffffffffffff\n        /* \"#utility.yul\":11417:11422   */\n      dup3\n        /* \"#utility.yul\":11414:11491   */\n      sub\n        /* \"#utility.yul\":11411:11514   */\n      tag_363\n      jumpi\n        /* \"#utility.yul\":11494:11512   */\n      tag_364\n      tag_233\n      jump\t// in\n    tag_364:\n        /* \"#utility.yul\":11411:11514   */\n    tag_363:\n        /* \"#utility.yul\":11541:11542   */\n      0x01\n        /* \"#utility.yul\":11534:11539   */\n      dup3\n        /* \"#utility.yul\":11530:11543   */\n      add\n        /* \"#utility.yul\":11523:11543   */\n      swap1\n      pop\n        /* \"#utility.yul\":11316:11549   */\n      swap2\n      swap1\n      pop\n      jump\t// out\n        /* \"#utility.yul\":11555:11721   */\n    tag_234:\n        /* \"#utility.yul\":11695:11713   */\n      0x5061757361626c653a2070617573656400000000000000000000000000000000\n        /* \"#utility.yul\":11691:11692   */\n      0x00\n        /* \"#utility.yul\":11683:11689   */\n      dup3\n        /* \"#utility.yul\":11679:11693   */\n      add\n        /* \"#utility.yul\":11672:11714   */\n      mstore\n        /* \"#utility.yul\":11555:11721   */\n      pop\n      jump\t// out\n        /* \"#utility.yul\":11727:12093   */\n    tag_235:\n        /* \"#utility.yul\":11869:11872   */\n      0x00\n        /* \"#utility.yul\":11890:11957   */\n      tag_367\n        /* \"#utility.yul\":11954:11956   */\n      0x10\n        /* \"#utility.yul\":11949:11952   */\n      dup4\n        /* \"#utility.yul\":11890:11957   */\n      tag_229\n      jump\t// in\n    tag_367:\n        /* \"#utility.yul\":11883:11957   */\n      swap2\n      pop\n        /* \"#utility.yul\":11966:12059   */\n      tag_368\n        /* \"#utility.yul\":12055:12058   */\n      dup3\n        /* \"#utility.yul\":11966:12059   */\n      tag_234\n      jump\t// in\n    tag_368:\n        /* \"#utility.yul\":12084:12086   */\n      0x20\n        /* \"#utility.yul\":12079:12082   */\n      dup3\n        /* \"#utility.yul\":12075:12087   */\n      add\n        /* \"#utility.yul\":12068:12087   */\n      swap1\n      pop\n        /* \"#utility.yul\":11727:12093   */\n      swap2\n      swap1\n      pop\n      jump\t// out\n        /* \"#utility.yul\":12099:12518   */\n    tag_187:\n        /* \"#utility.yul\":12265:12269   */\n      0x00\n        /* \"#utility.yul\":12303:12305   */\n      0x20\n        /* \"#utility.yul\":12292:12301   */\n      dup3\n        /* \"#utility.yul\":12288:12306   */\n      add\n        /* \"#utility.yul\":12280:12306   */\n      swap1\n      pop\n        /* \"#utility.yul\":12352:12361   */\n      dup2\n        /* \"#utility.yul\":12346:12350   */\n      dup2\n        /* \"#utility.yul\":12342:12362   */\n      sub\n        /* \"#utility.yul\":12338:12339   */\n      0x00\n        /* \"#utility.yul\":12327:12336   */\n      dup4\n        /* \"#utility.yul\":12323:12340   */\n      add\n        /* \"#utility.yul\":12316:12363   */\n      mstore\n        /* \"#utility.yul\":12380:12511   */\n      tag_370\n        /* \"#utility.yul\":12506:12510   */\n      dup2\n        /* \"#utility.yul\":12380:12511   */\n      tag_235\n      jump\t// in\n    tag_370:\n        /* \"#utility.yul\":12372:12511   */\n      swap1\n      pop\n        /* \"#utility.yul\":12099:12518   */\n      swap2\n      swap1\n      pop\n      jump\t// out\n        /* \"#utility.yul\":12524:12694   */\n    tag_236:\n        /* \"#utility.yul\":12664:12686   */\n      0x5061757361626c653a206e6f7420706175736564000000000000000000000000\n        /* \"#utility.yul\":12660:12661   */\n      0x00\n        /* \"#utility.yul\":12652:12658   */\n      dup3\n        /* \"#utility.yul\":12648:12662   */\n      add\n        /* \"#utility.yul\":12641:12687   */\n      mstore\n        /* \"#utility.yul\":12524:12694   */\n      pop\n      jump\t// out\n        /* \"#utility.yul\":12700:13066   */\n    tag_237:\n        /* \"#utility.yul\":12842:12845   */\n      0x00\n        /* \"#utility.yul\":12863:12930   */\n      tag_373\n        /* \"#utility.yul\":12927:12929   */\n      0x14\n        /* \"#utility.yul\":12922:12925   */\n      dup4\n        /* \"#utility.yul\":12863:12930   */\n      tag_229\n      jump\t// in\n    tag_373:\n        /* \"#utility.yul\":12856:12930   */\n      swap2\n      pop\n        /* \"#utility.yul\":12939:13032   */\n      tag_374\n        /* \"#utility.yul\":13028:13031   */\n      dup3\n        /* \"#utility.yul\":12939:13032   */\n      tag_236\n      jump\t// in\n    tag_374:\n        /* \"#utility.yul\":13057:13059   */\n      0x20\n        /* \"#utility.yul\":13052:13055   */\n      dup3\n        /* \"#utility.yul\":13048:13060   */\n      add\n        /* \"#utility.yul\":13041:13060   */\n      swap1\n      pop\n        /* \"#utility.yul\":12700:13066   */\n      swap2\n      swap1\n      pop\n      jump\t// out\n        /* \"#utility.yul\":13072:13491   */\n    tag_195:\n        /* \"#utility.yul\":13238:13242   */\n      0x00\n        /* \"#utility.yul\":13276:13278   */\n      0x20\n        /* \"#utility.yul\":13265:13274   */\n      dup3\n        /* \"#utility.yul\":13261:13279   */\n      add\n        /* \"#utility.yul\":13253:13279   */\n      swap1\n      pop\n        /* \"#utility.yul\":13325:13334   */\n      dup2\n        /* \"#utility.yul\":13319:13323   */\n      dup2\n        /* \"#utility.yul\":13315:13335   */\n      sub\n        /* \"#utility.yul\":13311:13312   */\n      0x00\n        /* \"#utility.yul\":13300:13309   */\n      dup4\n        /* \"#utility.yul\":13296:13313   */\n      add\n        /* \"#utility.yul\":13289:13336   */\n      mstore\n        /* \"#utility.yul\":13353:13484   */\n      tag_376\n        /* \"#utility.yul\":13479:13483   */\n      dup2\n        /* \"#utility.yul\":13353:13484   */\n      tag_237\n      jump\t// in\n    tag_376:\n        /* \"#utility.yul\":13345:13484   */\n      swap1\n      pop\n        /* \"#utility.yul\":13072:13491   */\n      swap2\n      swap1\n      pop\n      jump\t// out\n\n    auxdata: 0xa26469706673582212202aed72e8c9b329f545e38081f4825eb8f58cb86be3679a3a62e69a6c32d84d3f64736f6c634300081e0033\n}\n",
				"bytecode": {
					"linkReferences": {},
					"object": "60a06040526377359400600255348015610017575f5ffd5b5060405161192e38038061192e83398181016040528101906100399190610340565b815f73ffffffffffffffffffffffffffffffffffffffff168173ffffffffffffffffffffffffffffffffffffffff16036100aa575f6040517f1e4fbdf70000000000000000000000000000000000000000000000000000000081526004016100a1919061039f565b60405180910390fd5b6100b98161022160201b60201c565b505f5f60146101000a81548160ff0219169083151502179055505f73ffffffffffffffffffffffffffffffffffffffff168373ffffffffffffffffffffffffffffffffffffffff16148061013857505f73ffffffffffffffffffffffffffffffffffffffff168173ffffffffffffffffffffffffffffffffffffffff16145b8061016e57505f73ffffffffffffffffffffffffffffffffffffffff168273ffffffffffffffffffffffffffffffffffffffff16145b156101a5576040517fd92e233d00000000000000000000000000000000000000000000000000000000815260040160405180910390fd5b8273ffffffffffffffffffffffffffffffffffffffff1660808173ffffffffffffffffffffffffffffffffffffffff16815250508060015f6101000a81548173ffffffffffffffffffffffffffffffffffffffff021916908373ffffffffffffffffffffffffffffffffffffffff1602179055505050506103b8565b5f5f5f9054906101000a900473ffffffffffffffffffffffffffffffffffffffff169050815f5f6101000a81548173ffffffffffffffffffffffffffffffffffffffff021916908373ffffffffffffffffffffffffffffffffffffffff1602179055508173ffffffffffffffffffffffffffffffffffffffff168173ffffffffffffffffffffffffffffffffffffffff167f8be0079c531659141344cd1fd0a4f28419497f9722a3daafe3b4186f6b6457e060405160405180910390a35050565b5f5ffd5b5f73ffffffffffffffffffffffffffffffffffffffff82169050919050565b5f61030f826102e6565b9050919050565b61031f81610305565b8114610329575f5ffd5b50565b5f8151905061033a81610316565b92915050565b5f5f5f60608486031215610357576103566102e2565b5b5f6103648682870161032c565b93505060206103758682870161032c565b92505060406103868682870161032c565b9150509250925092565b61039981610305565b82525050565b5f6020820190506103b25f830184610390565b92915050565b60805161155e6103d05f395f610500015261155e5ff3fe608060405234801561000f575f5ffd5b506004361061012a575f3560e01c80638da5cb5b116100ab578063bccddb801161006f578063bccddb801461030a578063d47dc2a514610326578063d58f2f2714610356578063e935b7b114610374578063f2fde38b146103925761012a565b80638da5cb5b146102525780639c09f68214610270578063a3bac32a1461028c578063b9b2b5cd146102bc578063ba76fdef146102da5761012a565b80635c975abb116100f25780635c975abb146101c05780636d1032e4146101de578063715018a61461020e5780638456cb5914610218578063854dbe58146102225761012a565b8063234ffdb11461012e5780633e5662451461014a5780633f4ba83a1461017a5780634a213805146101845780634c2cb3fd146101a2575b5f5ffd5b61014860048036038101906101439190610f40565b6103ae565b005b610164600480360381019061015f9190610fb1565b6104c1565b6040516101719190610ffe565b60405180910390f35b6101826104ec565b005b61018c6104fe565b6040516101999190611026565b60405180910390f35b6101aa610522565b6040516101b79190611026565b60405180910390f35b6101c8610547565b6040516101d5919061104e565b60405180910390f35b6101f860048036038101906101f39190611067565b61055c565b604051610205919061104e565b60405180910390f35b610216610579565b005b61022061058c565b005b61023c600480360381019061023791906110f3565b61059e565b6040516102499190611026565b60405180910390f35b61025a61083e565b6040516102679190611026565b60405180910390f35b61028a60048036038101906102859190611184565b610865565b005b6102a660048036038101906102a19190611184565b6108ae565b6040516102b39190611026565b60405180910390f35b6102c46108de565b6040516102d19190610ffe565b60405180910390f35b6102f460048036038101906102ef9190611184565b6108e4565b6040516103019190611026565b60405180910390f35b610324600480360381019061031f9190611067565b61091d565b005b610340600480360381019061033b9190611067565b610a04565b60405161034d9190611266565b60405180910390f35b61035e610a97565b60405161036b9190610ffe565b60405180910390f35b61037c610a9d565b6040516103899190610ffe565b60405180910390f35b6103ac60048036038101906103a79190611067565b610aa3565b005b6103b6610b27565b5f73ffffffffffffffffffffffffffffffffffffffff168273ffffffffffffffffffffffffffffffffffffffff160361041b576040517fd92e233d00000000000000000000000000000000000000000000000000000000815260040160405180910390fd5b8060065f8473ffffffffffffffffffffffffffffffffffffffff1673ffffffffffffffffffffffffffffffffffffffff1681526020019081526020015f205f6101000a81548160ff0219169083151502179055508173ffffffffffffffffffffffffffffffffffffffff167fc6458e4cdf9c1f0dd6e6342f7c368c589658aee054ed8b0998cc68d49e8fa1af826040516104b5919061104e565b60405180910390a25050565b6007602052815f5260405f2081815481106104da575f80fd5b905f5260205f20015f91509150505481565b6104f4610b27565b6104fc610bae565b565b7f000000000000000000000000000000000000000000000000000000000000000081565b60015f9054906101000a900473ffffffffffffffffffffffffffffffffffffffff1681565b5f5f60149054906101000a900460ff16905090565b6006602052805f5260405f205f915054906101000a900460ff1681565b610581610b27565b61058a5f610c0f565b565b610594610b27565b61059c610cd0565b565b5f6105a7610d32565b60065f3373ffffffffffffffffffffffffffffffffffffffff1673ffffffffffffffffffffffffffffffffffffffff1681526020019081526020015f205f9054906101000a900460ff16610627576040517f34dea23200000000000000000000000000000000000000000000000000000000815260040160405180910390fd5b5f86148061063757505f85859050145b8061064457505f83839050145b1561067b576040517fb4fa3fb300000000000000000000000000000000000000000000000000000000815260040160405180910390fd5b5f6003543343604051602001610693939291906112eb565b6040516020818303038152906040528051906020012090505f6106b582610d7c565b90508073ffffffffffffffffffffffffffffffffffffffff1663d8ff8286338a6002548b8b8b8b6040518863ffffffff1660e01b81526004016106fe9796959493929190611381565b5f604051808303815f87803b158015610715575f5ffd5b505af1158015610727573d5f5f3e3d5ffd5b505050508060055f60035481526020019081526020015f205f6101000a81548173ffffffffffffffffffffffffffffffffffffffff021916908373ffffffffffffffffffffffffffffffffffffffff16021790555060075f3373ffffffffffffffffffffffffffffffffffffffff1673ffffffffffffffffffffffffffffffffffffffff1681526020019081526020015f20600354908060018154018082558091505060019003905f5260205f20015f90919091909150556003547f63c92f9505d420bff631cb9df33be952bdc11e2118da36a850b43e6bcc4ce4de826040516108119190611026565b60405180910390a260035f81548092919061082b90611411565b9190505550809250505095945050505050565b5f5f5f9054906101000a900473ffffffffffffffffffffffffffffffffffffffff16905090565b61086d610b27565b806002819055507fbed46add49f1852fbdc678819bb401f7f59ac14a61bbfa2bb5a9ed73f788bcbd816040516108a39190610ffe565b60405180910390a150565b6005602052805f5260405f205f915054906101000a900473ffffffffffffffffffffffffffffffffffffffff1681565b60045481565b5f60055f8381526020019081526020015f205f9054906101000a900473ffffffffffffffffffffffffffffffffffffffff169050919050565b610925610b27565b5f73ffffffffffffffffffffffffffffffffffffffff168173ffffffffffffffffffffffffffffffffffffffff160361098a576040517fd92e233d00000000000000000000000000000000000000000000000000000000815260040160405180910390fd5b8060015f6101000a81548173ffffffffffffffffffffffffffffffffffffffff021916908373ffffffffffffffffffffffffffffffffffffffff1602179055507fd78db8e579d508cb8bc966bd44bd8785c1df4a956b31fc24fe4370bbc49e28d1816040516109f99190611026565b60405180910390a150565b606060075f8373ffffffffffffffffffffffffffffffffffffffff1673ffffffffffffffffffffffffffffffffffffffff1681526020019081526020015f20805480602002602001604051908101604052809291908181526020018280548015610a8b57602002820191905f5260205f20905b815481526020019060010190808311610a77575b50505050509050919050565b60025481565b60035481565b610aab610b27565b5f73ffffffffffffffffffffffffffffffffffffffff168173ffffffffffffffffffffffffffffffffffffffff1603610b1b575f6040517f1e4fbdf7000000000000000000000000000000000000000000000000000000008152600401610b129190611026565b60405180910390fd5b610b2481610c0f565b50565b610b2f610e59565b73ffffffffffffffffffffffffffffffffffffffff16610b4d61083e565b73ffffffffffffffffffffffffffffffffffffffff1614610bac57610b70610e59565b6040517f118cdaa7000000000000000000000000000000000000000000000000000000008152600401610ba39190611026565b60405180910390fd5b565b610bb6610e60565b5f5f60146101000a81548160ff0219169083151502179055507f5db9ee0a495bf2e6ff9c91a7834c1ba4fdd244a5e8aa4e537bd38aeae4b073aa610bf8610e59565b604051610c059190611026565b60405180910390a1565b5f5f5f9054906101000a900473ffffffffffffffffffffffffffffffffffffffff169050815f5f6101000a81548173ffffffffffffffffffffffffffffffffffffffff021916908373ffffffffffffffffffffffffffffffffffffffff1602179055508173ffffffffffffffffffffffffffffffffffffffff168173ffffffffffffffffffffffffffffffffffffffff167f8be0079c531659141344cd1fd0a4f28419497f9722a3daafe3b4186f6b6457e060405160405180910390a35050565b610cd8610d32565b60015f60146101000a81548160ff0219169083151502179055507f62e78cea01bee320cd4e420270b5ea74000d11b0c9f74754ebdbfc544b05a258610d1b610e59565b604051610d289190611026565b60405180910390a1565b610d3a610547565b15610d7a576040517f08c379a0000000000000000000000000000000000000000000000000000000008152600401610d71906114a2565b60405180910390fd5b565b5f5f60015f9054906101000a900473ffffffffffffffffffffffffffffffffffffffff1690505f8160601b9050604051693d602d80600a3d3981f3815269363d3d373d3d3d363d7360148201528160288201526e5af43d82803e903d91602b57fd5bf3603c820152846037825ff59350505f73ffffffffffffffffffffffffffffffffffffffff168373ffffffffffffffffffffffffffffffffffffffff1603610e52576040517f3011642500000000000000000000000000000000000000000000000000000000815260040160405180910390fd5b5050919050565b5f33905090565b610e68610547565b610ea7576040517f08c379a0000000000000000000000000000000000000000000000000000000008152600401610e9e9061150a565b60405180910390fd5b565b5f5ffd5b5f5ffd5b5f73ffffffffffffffffffffffffffffffffffffffff82169050919050565b5f610eda82610eb1565b9050919050565b610eea81610ed0565b8114610ef4575f5ffd5b50565b5f81359050610f0581610ee1565b92915050565b5f8115159050919050565b610f1f81610f0b565b8114610f29575f5ffd5b50565b5f81359050610f3a81610f16565b92915050565b5f5f60408385031215610f5657610f55610ea9565b5b5f610f6385828601610ef7565b9250506020610f7485828601610f2c565b9150509250929050565b5f819050919050565b610f9081610f7e565b8114610f9a575f5ffd5b50565b5f81359050610fab81610f87565b92915050565b5f5f60408385031215610fc757610fc6610ea9565b5b5f610fd485828601610ef7565b9250506020610fe585828601610f9d565b9150509250929050565b610ff881610f7e565b82525050565b5f6020820190506110115f830184610fef565b92915050565b61102081610ed0565b82525050565b5f6020820190506110395f830184611017565b92915050565b61104881610f0b565b82525050565b5f6020820190506110615f83018461103f565b92915050565b5f6020828403121561107c5761107b610ea9565b5b5f61108984828501610ef7565b91505092915050565b5f5ffd5b5f5ffd5b5f5ffd5b5f5f83601f8401126110b3576110b2611092565b5b8235905067ffffffffffffffff8111156110d0576110cf611096565b5b6020830191508360018202830111156110ec576110eb61109a565b5b9250929050565b5f5f5f5f5f6060868803121561110c5761110b610ea9565b5b5f61111988828901610f9d565b955050602086013567ffffffffffffffff81111561113a57611139610ead565b5b6111468882890161109e565b9450945050604086013567ffffffffffffffff81111561116957611168610ead565b5b6111758882890161109e565b92509250509295509295909350565b5f6020828403121561119957611198610ea9565b5b5f6111a684828501610f9d565b91505092915050565b5f81519050919050565b5f82825260208201905092915050565b5f819050602082019050919050565b6111e181610f7e565b82525050565b5f6111f283836111d8565b60208301905092915050565b5f602082019050919050565b5f611214826111af565b61121e81856111b9565b9350611229836111c9565b805f5b8381101561125957815161124088826111e7565b975061124b836111fe565b92505060018101905061122c565b5085935050505092915050565b5f6020820190508181035f83015261127e818461120a565b905092915050565b5f819050919050565b6112a061129b82610f7e565b611286565b82525050565b5f8160601b9050919050565b5f6112bc826112a6565b9050919050565b5f6112cd826112b2565b9050919050565b6112e56112e082610ed0565b6112c3565b82525050565b5f6112f6828661128f565b60208201915061130682856112d4565b601482019150611316828461128f565b602082019150819050949350505050565b5f82825260208201905092915050565b828183375f83830152505050565b5f601f19601f8301169050919050565b5f6113608385611327565b935061136d838584611337565b61137683611345565b840190509392505050565b5f60a0820190506113945f83018a611017565b6113a16020830189610fef565b6113ae6040830188610fef565b81810360608301526113c1818688611355565b905081810360808301526113d6818486611355565b905098975050505050505050565b7f4e487b71000000000000000000000000000000000000000000000000000000005f52601160045260245ffd5b5f61141b82610f7e565b91507fffffffffffffffffffffffffffffffffffffffffffffffffffffffffffffffff820361144d5761144c6113e4565b5b600182019050919050565b7f5061757361626c653a20706175736564000000000000000000000000000000005f82015250565b5f61148c601083611327565b915061149782611458565b602082019050919050565b5f6020820190508181035f8301526114b981611480565b9050919050565b7f5061757361626c653a206e6f74207061757365640000000000000000000000005f82015250565b5f6114f4601483611327565b91506114ff826114c0565b602082019050919050565b5f6020820190508181035f830152611521816114e8565b905091905056fea26469706673582212202aed72e8c9b329f545e38081f4825eb8f58cb86be3679a3a62e69a6c32d84d3f64736f6c634300081e0033",
					"opcodes": "PUSH1 0xA0 PUSH1 0x40 MSTORE PUSH4 0x77359400 PUSH1 0x2 SSTORE CALLVALUE DUP1 ISZERO PUSH2 0x17 JUMPI PUSH0 PUSH0 REVERT JUMPDEST POP PUSH1 0x40 MLOAD PUSH2 0x192E CODESIZE SUB DUP1 PUSH2 0x192E DUP4 CODECOPY DUP2 DUP2 ADD PUSH1 0x40 MSTORE DUP2 ADD SWAP1 PUSH2 0x39 SWAP2 SWAP1 PUSH2 0x340 JUMP JUMPDEST DUP2 PUSH0 PUSH20 0xFFFFFFFFFFFFFFFFFFFFFFFFFFFFFFFFFFFFFFFF AND DUP2 PUSH20 0xFFFFFFFFFFFFFFFFFFFFFFFFFFFFFFFFFFFFFFFF AND SUB PUSH2 0xAA JUMPI PUSH0 PUSH1 0x40 MLOAD PUSH32 0x1E4FBDF700000000000000000000000000000000000000000000000000000000 DUP2 MSTORE PUSH1 0x4 ADD PUSH2 0xA1 SWAP2 SWAP1 PUSH2 0x39F JUMP JUMPDEST PUSH1 0x40 MLOAD DUP1 SWAP2 SUB SWAP1 REVERT JUMPDEST PUSH2 0xB9 DUP2 PUSH2 0x221 PUSH1 0x20 SHL PUSH1 0x20 SHR JUMP JUMPDEST POP PUSH0 PUSH0 PUSH1 0x14 PUSH2 0x100 EXP DUP2 SLOAD DUP2 PUSH1 0xFF MUL NOT AND SWAP1 DUP4 ISZERO ISZERO MUL OR SWAP1 SSTORE POP PUSH0 PUSH20 0xFFFFFFFFFFFFFFFFFFFFFFFFFFFFFFFFFFFFFFFF AND DUP4 PUSH20 0xFFFFFFFFFFFFFFFFFFFFFFFFFFFFFFFFFFFFFFFF AND EQ DUP1 PUSH2 0x138 JUMPI POP PUSH0 PUSH20 0xFFFFFFFFFFFFFFFFFFFFFFFFFFFFFFFFFFFFFFFF AND DUP2 PUSH20 0xFFFFFFFFFFFFFFFFFFFFFFFFFFFFFFFFFFFFFFFF AND EQ JUMPDEST DUP1 PUSH2 0x16E JUMPI POP PUSH0 PUSH20 0xFFFFFFFFFFFFFFFFFFFFFFFFFFFFFFFFFFFFFFFF AND DUP3 PUSH20 0xFFFFFFFFFFFFFFFFFFFFFFFFFFFFFFFFFFFFFFFF AND EQ JUMPDEST ISZERO PUSH2 0x1A5 JUMPI PUSH1 0x40 MLOAD PUSH32 0xD92E233D00000000000000000000000000000000000000000000000000000000 DUP2 MSTORE PUSH1 0x4 ADD PUSH1 0x40 MLOAD DUP1 SWAP2 SUB SWAP1 REVERT JUMPDEST DUP3 PUSH20 0xFFFFFFFFFFFFFFFFFFFFFFFFFFFFFFFFFFFFFFFF AND PUSH1 0x80 DUP2 PUSH20 0xFFFFFFFFFFFFFFFFFFFFFFFFFFFFFFFFFFFFFFFF AND DUP2 MSTORE POP POP DUP1 PUSH1 0x1 PUSH0 PUSH2 0x100 EXP DUP2 SLOAD DUP2 PUSH20 0xFFFFFFFFFFFFFFFFFFFFFFFFFFFFFFFFFFFFFFFF MUL NOT AND SWAP1 DUP4 PUSH20 0xFFFFFFFFFFFFFFFFFFFFFFFFFFFFFFFFFFFFFFFF AND MUL OR SWAP1 SSTORE POP POP POP POP PUSH2 0x3B8 JUMP JUMPDEST PUSH0 PUSH0 PUSH0 SWAP1 SLOAD SWAP1 PUSH2 0x100 EXP SWAP1 DIV PUSH20 0xFFFFFFFFFFFFFFFFFFFFFFFFFFFFFFFFFFFFFFFF AND SWAP1 POP DUP2 PUSH0 PUSH0 PUSH2 0x100 EXP DUP2 SLOAD DUP2 PUSH20 0xFFFFFFFFFFFFFFFFFFFFFFFFFFFFFFFFFFFFFFFF MUL NOT AND SWAP1 DUP4 PUSH20 0xFFFFFFFFFFFFFFFFFFFFFFFFFFFFFFFFFFFFFFFF AND MUL OR SWAP1 SSTORE POP DUP2 PUSH20 0xFFFFFFFFFFFFFFFFFFFFFFFFFFFFFFFFFFFFFFFF AND DUP2 PUSH20 0xFFFFFFFFFFFFFFFFFFFFFFFFFFFFFFFFFFFFFFFF AND PUSH32 0x8BE0079C531659141344CD1FD0A4F28419497F9722A3DAAFE3B4186F6B6457E0 PUSH1 0x40 MLOAD PUSH1 0x40 MLOAD DUP1 SWAP2 SUB SWAP1 LOG3 POP POP JUMP JUMPDEST PUSH0 PUSH0 REVERT JUMPDEST PUSH0 PUSH20 0xFFFFFFFFFFFFFFFFFFFFFFFFFFFFFFFFFFFFFFFF DUP3 AND SWAP1 POP SWAP2 SWAP1 POP JUMP JUMPDEST PUSH0 PUSH2 0x30F DUP3 PUSH2 0x2E6 JUMP JUMPDEST SWAP1 POP SWAP2 SWAP1 POP JUMP JUMPDEST PUSH2 0x31F DUP2 PUSH2 0x305 JUMP JUMPDEST DUP2 EQ PUSH2 0x329 JUMPI PUSH0 PUSH0 REVERT JUMPDEST POP JUMP JUMPDEST PUSH0 DUP2 MLOAD SWAP1 POP PUSH2 0x33A DUP2 PUSH2 0x316 JUMP JUMPDEST SWAP3 SWAP2 POP POP JUMP JUMPDEST PUSH0 PUSH0 PUSH0 PUSH1 0x60 DUP5 DUP7 SUB SLT ISZERO PUSH2 0x357 JUMPI PUSH2 0x356 PUSH2 0x2E2 JUMP JUMPDEST JUMPDEST PUSH0 PUSH2 0x364 DUP7 DUP3 DUP8 ADD PUSH2 0x32C JUMP JUMPDEST SWAP4 POP POP PUSH1 0x20 PUSH2 0x375 DUP7 DUP3 DUP8 ADD PUSH2 0x32C JUMP JUMPDEST SWAP3 POP POP PUSH1 0x40 PUSH2 0x386 DUP7 DUP3 DUP8 ADD PUSH2 0x32C JUMP JUMPDEST SWAP2 POP POP SWAP3 POP SWAP3 POP SWAP3 JUMP JUMPDEST PUSH2 0x399 DUP2 PUSH2 0x305 JUMP JUMPDEST DUP3 MSTORE POP POP JUMP JUMPDEST PUSH0 PUSH1 0x20 DUP3 ADD SWAP1 POP PUSH2 0x3B2 PUSH0 DUP4 ADD DUP5 PUSH2 0x390 JUMP JUMPDEST SWAP3 SWAP2 POP POP JUMP JUMPDEST PUSH1 0x80 MLOAD PUSH2 0x155E PUSH2 0x3D0 PUSH0 CODECOPY PUSH0 PUSH2 0x500 ADD MSTORE PUSH2 0x155E PUSH0 RETURN INVALID PUSH1 0x80 PUSH1 0x40 MSTORE CALLVALUE DUP1 ISZERO PUSH2 0xF JUMPI PUSH0 PUSH0 REVERT JUMPDEST POP PUSH1 0x4 CALLDATASIZE LT PUSH2 0x12A JUMPI PUSH0 CALLDATALOAD PUSH1 0xE0 SHR DUP1 PUSH4 0x8DA5CB5B GT PUSH2 0xAB JUMPI DUP1 PUSH4 0xBCCDDB80 GT PUSH2 0x6F JUMPI DUP1 PUSH4 0xBCCDDB80 EQ PUSH2 0x30A JUMPI DUP1 PUSH4 0xD47DC2A5 EQ PUSH2 0x326 JUMPI DUP1 PUSH4 0xD58F2F27 EQ PUSH2 0x356 JUMPI DUP1 PUSH4 0xE935B7B1 EQ PUSH2 0x374 JUMPI DUP1 PUSH4 0xF2FDE38B EQ PUSH2 0x392 JUMPI PUSH2 0x12A JUMP JUMPDEST DUP1 PUSH4 0x8DA5CB5B EQ PUSH2 0x252 JUMPI DUP1 PUSH4 0x9C09F682 EQ PUSH2 0x270 JUMPI DUP1 PUSH4 0xA3BAC32A EQ PUSH2 0x28C JUMPI DUP1 PUSH4 0xB9B2B5CD EQ PUSH2 0x2BC JUMPI DUP1 PUSH4 0xBA76FDEF EQ PUSH2 0x2DA JUMPI PUSH2 0x12A JUMP JUMPDEST DUP1 PUSH4 0x5C975ABB GT PUSH2 0xF2 JUMPI DUP1 PUSH4 0x5C975ABB EQ PUSH2 0x1C0 JUMPI DUP1 PUSH4 0x6D1032E4 EQ PUSH2 0x1DE JUMPI DUP1 PUSH4 0x715018A6 EQ PUSH2 0x20E JUMPI DUP1 PUSH4 0x8456CB59 EQ PUSH2 0x218 JUMPI DUP1 PUSH4 0x854DBE58 EQ PUSH2 0x222 JUMPI PUSH2 0x12A JUMP JUMPDEST DUP1 PUSH4 0x234FFDB1 EQ PUSH2 0x12E JUMPI DUP1 PUSH4 0x3E566245 EQ PUSH2 0x14A JUMPI DUP1 PUSH4 0x3F4BA83A EQ PUSH2 0x17A JUMPI DUP1 PUSH4 0x4A213805 EQ PUSH2 0x184 JUMPI DUP1 PUSH4 0x4C2CB3FD EQ PUSH2 0x1A2 JUMPI JUMPDEST PUSH0 PUSH0 REVERT JUMPDEST PUSH2 0x148 PUSH1 0x4 DUP1 CALLDATASIZE SUB DUP2 ADD SWAP1 PUSH2 0x143 SWAP2 SWAP1 PUSH2 0xF40 JUMP JUMPDEST PUSH2 0x3AE JUMP JUMPDEST STOP JUMPDEST PUSH2 0x164 PUSH1 0x4 DUP1 CALLDATASIZE SUB DUP2 ADD SWAP1 PUSH2 0x15F SWAP2 SWAP1 PUSH2 0xFB1 JUMP JUMPDEST PUSH2 0x4C1 JUMP JUMPDEST PUSH1 0x40 MLOAD PUSH2 0x171 SWAP2 SWAP1 PUSH2 0xFFE JUMP JUMPDEST PUSH1 0x40 MLOAD DUP1 SWAP2 SUB SWAP1 RETURN JUMPDEST PUSH2 0x182 PUSH2 0x4EC JUMP JUMPDEST STOP JUMPDEST PUSH2 0x18C PUSH2 0x4FE JUMP JUMPDEST PUSH1 0x40 MLOAD PUSH2 0x199 SWAP2 SWAP1 PUSH2 0x1026 JUMP JUMPDEST PUSH1 0x40 MLOAD DUP1 SWAP2 SUB SWAP1 RETURN JUMPDEST PUSH2 0x1AA PUSH2 0x522 JUMP JUMPDEST PUSH1 0x40 MLOAD PUSH2 0x1B7 SWAP2 SWAP1 PUSH2 0x1026 JUMP JUMPDEST PUSH1 0x40 MLOAD DUP1 SWAP2 SUB SWAP1 RETURN JUMPDEST PUSH2 0x1C8 PUSH2 0x547 JUMP JUMPDEST PUSH1 0x40 MLOAD PUSH2 0x1D5 SWAP2 SWAP1 PUSH2 0x104E JUMP JUMPDEST PUSH1 0x40 MLOAD DUP1 SWAP2 SUB SWAP1 RETURN JUMPDEST PUSH2 0x1F8 PUSH1 0x4 DUP1 CALLDATASIZE SUB DUP2 ADD SWAP1 PUSH2 0x1F3 SWAP2 SWAP1 PUSH2 0x1067 JUMP JUMPDEST PUSH2 0x55C JUMP JUMPDEST PUSH1 0x40 MLOAD PUSH2 0x205 SWAP2 SWAP1 PUSH2 0x104E JUMP JUMPDEST PUSH1 0x40 MLOAD DUP1 SWAP2 SUB SWAP1 RETURN JUMPDEST PUSH2 0x216 PUSH2 0x579 JUMP JUMPDEST STOP JUMPDEST PUSH2 0x220 PUSH2 0x58C JUMP JUMPDEST STOP JUMPDEST PUSH2 0x23C PUSH1 0x4 DUP1 CALLDATASIZE SUB DUP2 ADD SWAP1 PUSH2 0x237 SWAP2 SWAP1 PUSH2 0x10F3 JUMP JUMPDEST PUSH2 0x59E JUMP JUMPDEST PUSH1 0x40 MLOAD PUSH2 0x249 SWAP2 SWAP1 PUSH2 0x1026 JUMP JUMPDEST PUSH1 0x40 MLOAD DUP1 SWAP2 SUB SWAP1 RETURN JUMPDEST PUSH2 0x25A PUSH2 0x83E JUMP JUMPDEST PUSH1 0x40 MLOAD PUSH2 0x267 SWAP2 SWAP1 PUSH2 0x1026 JUMP JUMPDEST PUSH1 0x40 MLOAD DUP1 SWAP2 SUB SWAP1 RETURN JUMPDEST PUSH2 0x28A PUSH1 0x4 DUP1 CALLDATASIZE SUB DUP2 ADD SWAP1 PUSH2 0x285 SWAP2 SWAP1 PUSH2 0x1184 JUMP JUMPDEST PUSH2 0x865 JUMP JUMPDEST STOP JUMPDEST PUSH2 0x2A6 PUSH1 0x4 DUP1 CALLDATASIZE SUB DUP2 ADD SWAP1 PUSH2 0x2A1 SWAP2 SWAP1 PUSH2 0x1184 JUMP JUMPDEST PUSH2 0x8AE JUMP JUMPDEST PUSH1 0x40 MLOAD PUSH2 0x2B3 SWAP2 SWAP1 PUSH2 0x1026 JUMP JUMPDEST PUSH1 0x40 MLOAD DUP1 SWAP2 SUB SWAP1 RETURN JUMPDEST PUSH2 0x2C4 PUSH2 0x8DE JUMP JUMPDEST PUSH1 0x40 MLOAD PUSH2 0x2D1 SWAP2 SWAP1 PUSH2 0xFFE JUMP JUMPDEST PUSH1 0x40 MLOAD DUP1 SWAP2 SUB SWAP1 RETURN JUMPDEST PUSH2 0x2F4 PUSH1 0x4 DUP1 CALLDATASIZE SUB DUP2 ADD SWAP1 PUSH2 0x2EF SWAP2 SWAP1 PUSH2 0x1184 JUMP JUMPDEST PUSH2 0x8E4 JUMP JUMPDEST PUSH1 0x40 MLOAD PUSH2 0x301 SWAP2 SWAP1 PUSH2 0x1026 JUMP JUMPDEST PUSH1 0x40 MLOAD DUP1 SWAP2 SUB SWAP1 RETURN JUMPDEST PUSH2 0x324 PUSH1 0x4 DUP1 CALLDATASIZE SUB DUP2 ADD SWAP1 PUSH2 0x31F SWAP2 SWAP1 PUSH2 0x1067 JUMP JUMPDEST PUSH2 0x91D JUMP JUMPDEST STOP JUMPDEST PUSH2 0x340 PUSH1 0x4 DUP1 CALLDATASIZE SUB DUP2 ADD SWAP1 PUSH2 0x33B SWAP2 SWAP1 PUSH2 0x1067 JUMP JUMPDEST PUSH2 0xA04 JUMP JUMPDEST PUSH1 0x40 MLOAD PUSH2 0x34D SWAP2 SWAP1 PUSH2 0x1266 JUMP JUMPDEST PUSH1 0x40 MLOAD DUP1 SWAP2 SUB SWAP1 RETURN JUMPDEST PUSH2 0x35E PUSH2 0xA97 JUMP JUMPDEST PUSH1 0x40 MLOAD PUSH2 0x36B SWAP2 SWAP1 PUSH2 0xFFE JUMP JUMPDEST PUSH1 0x40 MLOAD DUP1 SWAP2 SUB SWAP1 RETURN JUMPDEST PUSH2 0x37C PUSH2 0xA9D JUMP JUMPDEST PUSH1 0x40 MLOAD PUSH2 0x389 SWAP2 SWAP1 PUSH2 0xFFE JUMP JUMPDEST PUSH1 0x40 MLOAD DUP1 SWAP2 SUB SWAP1 RETURN JUMPDEST PUSH2 0x3AC PUSH1 0x4 DUP1 CALLDATASIZE SUB DUP2 ADD SWAP1 PUSH2 0x3A7 SWAP2 SWAP1 PUSH2 0x1067 JUMP JUMPDEST PUSH2 0xAA3 JUMP JUMPDEST STOP JUMPDEST PUSH2 0x3B6 PUSH2 0xB27 JUMP JUMPDEST PUSH0 PUSH20 0xFFFFFFFFFFFFFFFFFFFFFFFFFFFFFFFFFFFFFFFF AND DUP3 PUSH20 0xFFFFFFFFFFFFFFFFFFFFFFFFFFFFFFFFFFFFFFFF AND SUB PUSH2 0x41B JUMPI PUSH1 0x40 MLOAD PUSH32 0xD92E233D00000000000000000000000000000000000000000000000000000000 DUP2 MSTORE PUSH1 0x4 ADD PUSH1 0x40 MLOAD DUP1 SWAP2 SUB SWAP1 REVERT JUMPDEST DUP1 PUSH1 0x6 PUSH0 DUP5 PUSH20 0xFFFFFFFFFFFFFFFFFFFFFFFFFFFFFFFFFFFFFFFF AND PUSH20 0xFFFFFFFFFFFFFFFFFFFFFFFFFFFFFFFFFFFFFFFF AND DUP2 MSTORE PUSH1 0x20 ADD SWAP1 DUP2 MSTORE PUSH1 0x20 ADD PUSH0 KECCAK256 PUSH0 PUSH2 0x100 EXP DUP2 SLOAD DUP2 PUSH1 0xFF MUL NOT AND SWAP1 DUP4 ISZERO ISZERO MUL OR SWAP1 SSTORE POP DUP2 PUSH20 0xFFFFFFFFFFFFFFFFFFFFFFFFFFFFFFFFFFFFFFFF AND PUSH32 0xC6458E4CDF9C1F0DD6E6342F7C368C589658AEE054ED8B0998CC68D49E8FA1AF DUP3 PUSH1 0x40 MLOAD PUSH2 0x4B5 SWAP2 SWAP1 PUSH2 0x104E JUMP JUMPDEST PUSH1 0x40 MLOAD DUP1 SWAP2 SUB SWAP1 LOG2 POP POP JUMP JUMPDEST PUSH1 0x7 PUSH1 0x20 MSTORE DUP2 PUSH0 MSTORE PUSH1 0x40 PUSH0 KECCAK256 DUP2 DUP2 SLOAD DUP2 LT PUSH2 0x4DA JUMPI PUSH0 DUP1 REVERT JUMPDEST SWAP1 PUSH0 MSTORE PUSH1 0x20 PUSH0 KECCAK256 ADD PUSH0 SWAP2 POP SWAP2 POP POP SLOAD DUP2 JUMP JUMPDEST PUSH2 0x4F4 PUSH2 0xB27 JUMP JUMPDEST PUSH2 0x4FC PUSH2 0xBAE JUMP JUMPDEST JUMP JUMPDEST PUSH32 0x0 DUP2 JUMP JUMPDEST PUSH1 0x1 PUSH0 SWAP1 SLOAD SWAP1 PUSH2 0x100 EXP SWAP1 DIV PUSH20 0xFFFFFFFFFFFFFFFFFFFFFFFFFFFFFFFFFFFFFFFF AND DUP2 JUMP JUMPDEST PUSH0 PUSH0 PUSH1 0x14 SWAP1 SLOAD SWAP1 PUSH2 0x100 EXP SWAP1 DIV PUSH1 0xFF AND SWAP1 POP SWAP1 JUMP JUMPDEST PUSH1 0x6 PUSH1 0x20 MSTORE DUP1 PUSH0 MSTORE PUSH1 0x40 PUSH0 KECCAK256 PUSH0 SWAP2 POP SLOAD SWAP1 PUSH2 0x100 EXP SWAP1 DIV PUSH1 0xFF AND DUP2 JUMP JUMPDEST PUSH2 0x581 PUSH2 0xB27 JUMP JUMPDEST PUSH2 0x58A PUSH0 PUSH2 0xC0F JUMP JUMPDEST JUMP JUMPDEST PUSH2 0x594 PUSH2 0xB27 JUMP JUMPDEST PUSH2 0x59C PUSH2 0xCD0 JUMP JUMPDEST JUMP JUMPDEST PUSH0 PUSH2 0x5A7 PUSH2 0xD32 JUMP JUMPDEST PUSH1 0x6 PUSH0 CALLER PUSH20 0xFFFFFFFFFFFFFFFFFFFFFFFFFFFFFFFFFFFFFFFF AND PUSH20 0xFFFFFFFFFFFFFFFFFFFFFFFFFFFFFFFFFFFFFFFF AND DUP2 MSTORE PUSH1 0x20 ADD SWAP1 DUP2 MSTORE PUSH1 0x20 ADD PUSH0 KECCAK256 PUSH0 SWAP1 SLOAD SWAP1 PUSH2 0x100 EXP SWAP1 DIV PUSH1 0xFF AND PUSH2 0x627 JUMPI PUSH1 0x40 MLOAD PUSH32 0x34DEA23200000000000000000000000000000000000000000000000000000000 DUP2 MSTORE PUSH1 0x4 ADD PUSH1 0x40 MLOAD DUP1 SWAP2 SUB SWAP1 REVERT JUMPDEST PUSH0 DUP7 EQ DUP1 PUSH2 0x637 JUMPI POP PUSH0 DUP6 DUP6 SWAP1 POP EQ JUMPDEST DUP1 PUSH2 0x644 JUMPI POP PUSH0 DUP4 DUP4 SWAP1 POP EQ JUMPDEST ISZERO PUSH2 0x67B JUMPI PUSH1 0x40 MLOAD PUSH32 0xB4FA3FB300000000000000000000000000000000000000000000000000000000 DUP2 MSTORE PUSH1 0x4 ADD PUSH1 0x40 MLOAD DUP1 SWAP2 SUB SWAP1 REVERT JUMPDEST PUSH0 PUSH1 0x3 SLOAD CALLER NUMBER PUSH1 0x40 MLOAD PUSH1 0x20 ADD PUSH2 0x693 SWAP4 SWAP3 SWAP2 SWAP1 PUSH2 0x12EB JUMP JUMPDEST PUSH1 0x40 MLOAD PUSH1 0x20 DUP2 DUP4 SUB SUB DUP2 MSTORE SWAP1 PUSH1 0x40 MSTORE DUP1 MLOAD SWAP1 PUSH1 0x20 ADD KECCAK256 SWAP1 POP PUSH0 PUSH2 0x6B5 DUP3 PUSH2 0xD7C JUMP JUMPDEST SWAP1 POP DUP1 PUSH20 0xFFFFFFFFFFFFFFFFFFFFFFFFFFFFFFFFFFFFFFFF AND PUSH4 0xD8FF8286 CALLER DUP11 PUSH1 0x2 SLOAD DUP12 DUP12 DUP12 DUP12 PUSH1 0x40 MLOAD DUP9 PUSH4 0xFFFFFFFF AND PUSH1 0xE0 SHL DUP2 MSTORE PUSH1 0x4 ADD PUSH2 0x6FE SWAP8 SWAP7 SWAP6 SWAP5 SWAP4 SWAP3 SWAP2 SWAP1 PUSH2 0x1381 JUMP JUMPDEST PUSH0 PUSH1 0x40 MLOAD DUP1 DUP4 SUB DUP2 PUSH0 DUP8 DUP1 EXTCODESIZE ISZERO DUP1 ISZERO PUSH2 0x715 JUMPI PUSH0 PUSH0 REVERT JUMPDEST POP GAS CALL ISZERO DUP1 ISZERO PUSH2 0x727 JUMPI RETURNDATASIZE PUSH0 PUSH0 RETURNDATACOPY RETURNDATASIZE PUSH0 REVERT JUMPDEST POP POP POP POP DUP1 PUSH1 0x5 PUSH0 PUSH1 0x3 SLOAD DUP2 MSTORE PUSH1 0x20 ADD SWAP1 DUP2 MSTORE PUSH1 0x20 ADD PUSH0 KECCAK256 PUSH0 PUSH2 0x100 EXP DUP2 SLOAD DUP2 PUSH20 0xFFFFFFFFFFFFFFFFFFFFFFFFFFFFFFFFFFFFFFFF MUL NOT AND SWAP1 DUP4 PUSH20 0xFFFFFFFFFFFFFFFFFFFFFFFFFFFFFFFFFFFFFFFF AND MUL OR SWAP1 SSTORE POP PUSH1 0x7 PUSH0 CALLER PUSH20 0xFFFFFFFFFFFFFFFFFFFFFFFFFFFFFFFFFFFFFFFF AND PUSH20 0xFFFFFFFFFFFFFFFFFFFFFFFFFFFFFFFFFFFFFFFF AND DUP2 MSTORE PUSH1 0x20 ADD SWAP1 DUP2 MSTORE PUSH1 0x20 ADD PUSH0 KECCAK256 PUSH1 0x3 SLOAD SWAP1 DUP1 PUSH1 0x1 DUP2 SLOAD ADD DUP1 DUP3 SSTORE DUP1 SWAP2 POP POP PUSH1 0x1 SWAP1 SUB SWAP1 PUSH0 MSTORE PUSH1 0x20 PUSH0 KECCAK256 ADD PUSH0 SWAP1 SWAP2 SWAP1 SWAP2 SWAP1 SWAP2 POP SSTORE PUSH1 0x3 SLOAD PUSH32 0x63C92F9505D420BFF631CB9DF33BE952BDC11E2118DA36A850B43E6BCC4CE4DE DUP3 PUSH1 0x40 MLOAD PUSH2 0x811 SWAP2 SWAP1 PUSH2 0x1026 JUMP JUMPDEST PUSH1 0x40 MLOAD DUP1 SWAP2 SUB SWAP1 LOG2 PUSH1 0x3 PUSH0 DUP2 SLOAD DUP1 SWAP3 SWAP2 SWAP1 PUSH2 0x82B SWAP1 PUSH2 0x1411 JUMP JUMPDEST SWAP2 SWAP1 POP SSTORE POP DUP1 SWAP3 POP POP POP SWAP6 SWAP5 POP POP POP POP POP JUMP JUMPDEST PUSH0 PUSH0 PUSH0 SWAP1 SLOAD SWAP1 PUSH2 0x100 EXP SWAP1 DIV PUSH20 0xFFFFFFFFFFFFFFFFFFFFFFFFFFFFFFFFFFFFFFFF AND SWAP1 POP SWAP1 JUMP JUMPDEST PUSH2 0x86D PUSH2 0xB27 JUMP JUMPDEST DUP1 PUSH1 0x2 DUP2 SWAP1 SSTORE POP PUSH32 0xBED46ADD49F1852FBDC678819BB401F7F59AC14A61BBFA2BB5A9ED73F788BCBD DUP2 PUSH1 0x40 MLOAD PUSH2 0x8A3 SWAP2 SWAP1 PUSH2 0xFFE JUMP JUMPDEST PUSH1 0x40 MLOAD DUP1 SWAP2 SUB SWAP1 LOG1 POP JUMP JUMPDEST PUSH1 0x5 PUSH1 0x20 MSTORE DUP1 PUSH0 MSTORE PUSH1 0x40 PUSH0 KECCAK256 PUSH0 SWAP2 POP SLOAD SWAP1 PUSH2 0x100 EXP SWAP1 DIV PUSH20 0xFFFFFFFFFFFFFFFFFFFFFFFFFFFFFFFFFFFFFFFF AND DUP2 JUMP JUMPDEST PUSH1 0x4 SLOAD DUP2 JUMP JUMPDEST PUSH0 PUSH1 0x5 PUSH0 DUP4 DUP2 MSTORE PUSH1 0x20 ADD SWAP1 DUP2 MSTORE PUSH1 0x20 ADD PUSH0 KECCAK256 PUSH0 SWAP1 SLOAD SWAP1 PUSH2 0x100 EXP SWAP1 DIV PUSH20 0xFFFFFFFFFFFFFFFFFFFFFFFFFFFFFFFFFFFFFFFF AND SWAP1 POP SWAP2 SWAP1 POP JUMP JUMPDEST PUSH2 0x925 PUSH2 0xB27 JUMP JUMPDEST PUSH0 PUSH20 0xFFFFFFFFFFFFFFFFFFFFFFFFFFFFFFFFFFFFFFFF AND DUP2 PUSH20 0xFFFFFFFFFFFFFFFFFFFFFFFFFFFFFFFFFFFFFFFF AND SUB PUSH2 0x98A JUMPI PUSH1 0x40 MLOAD PUSH32 0xD92E233D00000000000000000000000000000000000000000000000000000000 DUP2 MSTORE PUSH1 0x4 ADD PUSH1 0x40 MLOAD DUP1 SWAP2 SUB SWAP1 REVERT JUMPDEST DUP1 PUSH1 0x1 PUSH0 PUSH2 0x100 EXP DUP2 SLOAD DUP2 PUSH20 0xFFFFFFFFFFFFFFFFFFFFFFFFFFFFFFFFFFFFFFFF MUL NOT AND SWAP1 DUP4 PUSH20 0xFFFFFFFFFFFFFFFFFFFFFFFFFFFFFFFFFFFFFFFF AND MUL OR SWAP1 SSTORE POP PUSH32 0xD78DB8E579D508CB8BC966BD44BD8785C1DF4A956B31FC24FE4370BBC49E28D1 DUP2 PUSH1 0x40 MLOAD PUSH2 0x9F9 SWAP2 SWAP1 PUSH2 0x1026 JUMP JUMPDEST PUSH1 0x40 MLOAD DUP1 SWAP2 SUB SWAP1 LOG1 POP JUMP JUMPDEST PUSH1 0x60 PUSH1 0x7 PUSH0 DUP4 PUSH20 0xFFFFFFFFFFFFFFFFFFFFFFFFFFFFFFFFFFFFFFFF AND PUSH20 0xFFFFFFFFFFFFFFFFFFFFFFFFFFFFFFFFFFFFFFFF AND DUP2 MSTORE PUSH1 0x20 ADD SWAP1 DUP2 MSTORE PUSH1 0x20 ADD PUSH0 KECCAK256 DUP1 SLOAD DUP1 PUSH1 0x20 MUL PUSH1 0x20 ADD PUSH1 0x40 MLOAD SWAP1 DUP2 ADD PUSH1 0x40 MSTORE DUP1 SWAP3 SWAP2 SWAP1 DUP2 DUP2 MSTORE PUSH1 0x20 ADD DUP3 DUP1 SLOAD DUP1 ISZERO PUSH2 0xA8B JUMPI PUSH1 0x20 MUL DUP3 ADD SWAP2 SWAP1 PUSH0 MSTORE PUSH1 0x20 PUSH0 KECCAK256 SWAP1 JUMPDEST DUP2 SLOAD DUP2 MSTORE PUSH1 0x20 ADD SWAP1 PUSH1 0x1 ADD SWAP1 DUP1 DUP4 GT PUSH2 0xA77 JUMPI JUMPDEST POP POP POP POP POP SWAP1 POP SWAP2 SWAP1 POP JUMP JUMPDEST PUSH1 0x2 SLOAD DUP2 JUMP JUMPDEST PUSH1 0x3 SLOAD DUP2 JUMP JUMPDEST PUSH2 0xAAB PUSH2 0xB27 JUMP JUMPDEST PUSH0 PUSH20 0xFFFFFFFFFFFFFFFFFFFFFFFFFFFFFFFFFFFFFFFF AND DUP2 PUSH20 0xFFFFFFFFFFFFFFFFFFFFFFFFFFFFFFFFFFFFFFFF AND SUB PUSH2 0xB1B JUMPI PUSH0 PUSH1 0x40 MLOAD PUSH32 0x1E4FBDF700000000000000000000000000000000000000000000000000000000 DUP2 MSTORE PUSH1 0x4 ADD PUSH2 0xB12 SWAP2 SWAP1 PUSH2 0x1026 JUMP JUMPDEST PUSH1 0x40 MLOAD DUP1 SWAP2 SUB SWAP1 REVERT JUMPDEST PUSH2 0xB24 DUP2 PUSH2 0xC0F JUMP JUMPDEST POP JUMP JUMPDEST PUSH2 0xB2F PUSH2 0xE59 JUMP JUMPDEST PUSH20 0xFFFFFFFFFFFFFFFFFFFFFFFFFFFFFFFFFFFFFFFF AND PUSH2 0xB4D PUSH2 0x83E JUMP JUMPDEST PUSH20 0xFFFFFFFFFFFFFFFFFFFFFFFFFFFFFFFFFFFFFFFF AND EQ PUSH2 0xBAC JUMPI PUSH2 0xB70 PUSH2 0xE59 JUMP JUMPDEST PUSH1 0x40 MLOAD PUSH32 0x118CDAA700000000000000000000000000000000000000000000000000000000 DUP2 MSTORE PUSH1 0x4 ADD PUSH2 0xBA3 SWAP2 SWAP1 PUSH2 0x1026 JUMP JUMPDEST PUSH1 0x40 MLOAD DUP1 SWAP2 SUB SWAP1 REVERT JUMPDEST JUMP JUMPDEST PUSH2 0xBB6 PUSH2 0xE60 JUMP JUMPDEST PUSH0 PUSH0 PUSH1 0x14 PUSH2 0x100 EXP DUP2 SLOAD DUP2 PUSH1 0xFF MUL NOT AND SWAP1 DUP4 ISZERO ISZERO MUL OR SWAP1 SSTORE POP PUSH32 0x5DB9EE0A495BF2E6FF9C91A7834C1BA4FDD244A5E8AA4E537BD38AEAE4B073AA PUSH2 0xBF8 PUSH2 0xE59 JUMP JUMPDEST PUSH1 0x40 MLOAD PUSH2 0xC05 SWAP2 SWAP1 PUSH2 0x1026 JUMP JUMPDEST PUSH1 0x40 MLOAD DUP1 SWAP2 SUB SWAP1 LOG1 JUMP JUMPDEST PUSH0 PUSH0 PUSH0 SWAP1 SLOAD SWAP1 PUSH2 0x100 EXP SWAP1 DIV PUSH20 0xFFFFFFFFFFFFFFFFFFFFFFFFFFFFFFFFFFFFFFFF AND SWAP1 POP DUP2 PUSH0 PUSH0 PUSH2 0x100 EXP DUP2 SLOAD DUP2 PUSH20 0xFFFFFFFFFFFFFFFFFFFFFFFFFFFFFFFFFFFFFFFF MUL NOT AND SWAP1 DUP4 PUSH20 0xFFFFFFFFFFFFFFFFFFFFFFFFFFFFFFFFFFFFFFFF AND MUL OR SWAP1 SSTORE POP DUP2 PUSH20 0xFFFFFFFFFFFFFFFFFFFFFFFFFFFFFFFFFFFFFFFF AND DUP2 PUSH20 0xFFFFFFFFFFFFFFFFFFFFFFFFFFFFFFFFFFFFFFFF AND PUSH32 0x8BE0079C531659141344CD1FD0A4F28419497F9722A3DAAFE3B4186F6B6457E0 PUSH1 0x40 MLOAD PUSH1 0x40 MLOAD DUP1 SWAP2 SUB SWAP1 LOG3 POP POP JUMP JUMPDEST PUSH2 0xCD8 PUSH2 0xD32 JUMP JUMPDEST PUSH1 0x1 PUSH0 PUSH1 0x14 PUSH2 0x100 EXP DUP2 SLOAD DUP2 PUSH1 0xFF MUL NOT AND SWAP1 DUP4 ISZERO ISZERO MUL OR SWAP1 SSTORE POP PUSH32 0x62E78CEA01BEE320CD4E420270B5EA74000D11B0C9F74754EBDBFC544B05A258 PUSH2 0xD1B PUSH2 0xE59 JUMP JUMPDEST PUSH1 0x40 MLOAD PUSH2 0xD28 SWAP2 SWAP1 PUSH2 0x1026 JUMP JUMPDEST PUSH1 0x40 MLOAD DUP1 SWAP2 SUB SWAP1 LOG1 JUMP JUMPDEST PUSH2 0xD3A PUSH2 0x547 JUMP JUMPDEST ISZERO PUSH2 0xD7A JUMPI PUSH1 0x40 MLOAD PUSH32 0x8C379A000000000000000000000000000000000000000000000000000000000 DUP2 MSTORE PUSH1 0x4 ADD PUSH2 0xD71 SWAP1 PUSH2 0x14A2 JUMP JUMPDEST PUSH1 0x40 MLOAD DUP1 SWAP2 SUB SWAP1 REVERT JUMPDEST JUMP JUMPDEST PUSH0 PUSH0 PUSH1 0x1 PUSH0 SWAP1 SLOAD SWAP1 PUSH2 0x100 EXP SWAP1 DIV PUSH20 0xFFFFFFFFFFFFFFFFFFFFFFFFFFFFFFFFFFFFFFFF AND SWAP1 POP PUSH0 DUP2 PUSH1 0x60 SHL SWAP1 POP PUSH1 0x40 MLOAD PUSH10 0x3D602D80600A3D3981F3 DUP2 MSTORE PUSH10 0x363D3D373D3D3D363D73 PUSH1 0x14 DUP3 ADD MSTORE DUP2 PUSH1 0x28 DUP3 ADD MSTORE PUSH15 0x5AF43D82803E903D91602B57FD5BF3 PUSH1 0x3C DUP3 ADD MSTORE DUP5 PUSH1 0x37 DUP3 PUSH0 CREATE2 SWAP4 POP POP PUSH0 PUSH20 0xFFFFFFFFFFFFFFFFFFFFFFFFFFFFFFFFFFFFFFFF AND DUP4 PUSH20 0xFFFFFFFFFFFFFFFFFFFFFFFFFFFFFFFFFFFFFFFF AND SUB PUSH2 0xE52 JUMPI PUSH1 0x40 MLOAD PUSH32 0x3011642500000000000000000000000000000000000000000000000000000000 DUP2 MSTORE PUSH1 0x4 ADD PUSH1 0x40 MLOAD DUP1 SWAP2 SUB SWAP1 REVERT JUMPDEST POP POP SWAP2 SWAP1 POP JUMP JUMPDEST PUSH0 CALLER SWAP1 POP SWAP1 JUMP JUMPDEST PUSH2 0xE68 PUSH2 0x547 JUMP JUMPDEST PUSH2 0xEA7 JUMPI PUSH1 0x40 MLOAD PUSH32 0x8C379A000000000000000000000000000000000000000000000000000000000 DUP2 MSTORE PUSH1 0x4 ADD PUSH2 0xE9E SWAP1 PUSH2 0x150A JUMP JUMPDEST PUSH1 0x40 MLOAD DUP1 SWAP2 SUB SWAP1 REVERT JUMPDEST JUMP JUMPDEST PUSH0 PUSH0 REVERT JUMPDEST PUSH0 PUSH0 REVERT JUMPDEST PUSH0 PUSH20 0xFFFFFFFFFFFFFFFFFFFFFFFFFFFFFFFFFFFFFFFF DUP3 AND SWAP1 POP SWAP2 SWAP1 POP JUMP JUMPDEST PUSH0 PUSH2 0xEDA DUP3 PUSH2 0xEB1 JUMP JUMPDEST SWAP1 POP SWAP2 SWAP1 POP JUMP JUMPDEST PUSH2 0xEEA DUP2 PUSH2 0xED0 JUMP JUMPDEST DUP2 EQ PUSH2 0xEF4 JUMPI PUSH0 PUSH0 REVERT JUMPDEST POP JUMP JUMPDEST PUSH0 DUP2 CALLDATALOAD SWAP1 POP PUSH2 0xF05 DUP2 PUSH2 0xEE1 JUMP JUMPDEST SWAP3 SWAP2 POP POP JUMP JUMPDEST PUSH0 DUP2 ISZERO ISZERO SWAP1 POP SWAP2 SWAP1 POP JUMP JUMPDEST PUSH2 0xF1F DUP2 PUSH2 0xF0B JUMP JUMPDEST DUP2 EQ PUSH2 0xF29 JUMPI PUSH0 PUSH0 REVERT JUMPDEST POP JUMP JUMPDEST PUSH0 DUP2 CALLDATALOAD SWAP1 POP PUSH2 0xF3A DUP2 PUSH2 0xF16 JUMP JUMPDEST SWAP3 SWAP2 POP POP JUMP JUMPDEST PUSH0 PUSH0 PUSH1 0x40 DUP4 DUP6 SUB SLT ISZERO PUSH2 0xF56 JUMPI PUSH2 0xF55 PUSH2 0xEA9 JUMP JUMPDEST JUMPDEST PUSH0 PUSH2 0xF63 DUP6 DUP3 DUP7 ADD PUSH2 0xEF7 JUMP JUMPDEST SWAP3 POP POP PUSH1 0x20 PUSH2 0xF74 DUP6 DUP3 DUP7 ADD PUSH2 0xF2C JUMP JUMPDEST SWAP2 POP POP SWAP3 POP SWAP3 SWAP1 POP JUMP JUMPDEST PUSH0 DUP2 SWAP1 POP SWAP2 SWAP1 POP JUMP JUMPDEST PUSH2 0xF90 DUP2 PUSH2 0xF7E JUMP JUMPDEST DUP2 EQ PUSH2 0xF9A JUMPI PUSH0 PUSH0 REVERT JUMPDEST POP JUMP JUMPDEST PUSH0 DUP2 CALLDATALOAD SWAP1 POP PUSH2 0xFAB DUP2 PUSH2 0xF87 JUMP JUMPDEST SWAP3 SWAP2 POP POP JUMP JUMPDEST PUSH0 PUSH0 PUSH1 0x40 DUP4 DUP6 SUB SLT ISZERO PUSH2 0xFC7 JUMPI PUSH2 0xFC6 PUSH2 0xEA9 JUMP JUMPDEST JUMPDEST PUSH0 PUSH2 0xFD4 DUP6 DUP3 DUP7 ADD PUSH2 0xEF7 JUMP JUMPDEST SWAP3 POP POP PUSH1 0x20 PUSH2 0xFE5 DUP6 DUP3 DUP7 ADD PUSH2 0xF9D JUMP JUMPDEST SWAP2 POP POP SWAP3 POP SWAP3 SWAP1 POP JUMP JUMPDEST PUSH2 0xFF8 DUP2 PUSH2 0xF7E JUMP JUMPDEST DUP3 MSTORE POP POP JUMP JUMPDEST PUSH0 PUSH1 0x20 DUP3 ADD SWAP1 POP PUSH2 0x1011 PUSH0 DUP4 ADD DUP5 PUSH2 0xFEF JUMP JUMPDEST SWAP3 SWAP2 POP POP JUMP JUMPDEST PUSH2 0x1020 DUP2 PUSH2 0xED0 JUMP JUMPDEST DUP3 MSTORE POP POP JUMP JUMPDEST PUSH0 PUSH1 0x20 DUP3 ADD SWAP1 POP PUSH2 0x1039 PUSH0 DUP4 ADD DUP5 PUSH2 0x1017 JUMP JUMPDEST SWAP3 SWAP2 POP POP JUMP JUMPDEST PUSH2 0x1048 DUP2 PUSH2 0xF0B JUMP JUMPDEST DUP3 MSTORE POP POP JUMP JUMPDEST PUSH0 PUSH1 0x20 DUP3 ADD SWAP1 POP PUSH2 0x1061 PUSH0 DUP4 ADD DUP5 PUSH2 0x103F JUMP JUMPDEST SWAP3 SWAP2 POP POP JUMP JUMPDEST PUSH0 PUSH1 0x20 DUP3 DUP5 SUB SLT ISZERO PUSH2 0x107C JUMPI PUSH2 0x107B PUSH2 0xEA9 JUMP JUMPDEST JUMPDEST PUSH0 PUSH2 0x1089 DUP5 DUP3 DUP6 ADD PUSH2 0xEF7 JUMP JUMPDEST SWAP2 POP POP SWAP3 SWAP2 POP POP JUMP JUMPDEST PUSH0 PUSH0 REVERT JUMPDEST PUSH0 PUSH0 REVERT JUMPDEST PUSH0 PUSH0 REVERT JUMPDEST PUSH0 PUSH0 DUP4 PUSH1 0x1F DUP5 ADD SLT PUSH2 0x10B3 JUMPI PUSH2 0x10B2 PUSH2 0x1092 JUMP JUMPDEST JUMPDEST DUP3 CALLDATALOAD SWAP1 POP PUSH8 0xFFFFFFFFFFFFFFFF DUP2 GT ISZERO PUSH2 0x10D0 JUMPI PUSH2 0x10CF PUSH2 0x1096 JUMP JUMPDEST JUMPDEST PUSH1 0x20 DUP4 ADD SWAP2 POP DUP4 PUSH1 0x1 DUP3 MUL DUP4 ADD GT ISZERO PUSH2 0x10EC JUMPI PUSH2 0x10EB PUSH2 0x109A JUMP JUMPDEST JUMPDEST SWAP3 POP SWAP3 SWAP1 POP JUMP JUMPDEST PUSH0 PUSH0 PUSH0 PUSH0 PUSH0 PUSH1 0x60 DUP7 DUP9 SUB SLT ISZERO PUSH2 0x110C JUMPI PUSH2 0x110B PUSH2 0xEA9 JUMP JUMPDEST JUMPDEST PUSH0 PUSH2 0x1119 DUP9 DUP3 DUP10 ADD PUSH2 0xF9D JUMP JUMPDEST SWAP6 POP POP PUSH1 0x20 DUP7 ADD CALLDATALOAD PUSH8 0xFFFFFFFFFFFFFFFF DUP2 GT ISZERO PUSH2 0x113A JUMPI PUSH2 0x1139 PUSH2 0xEAD JUMP JUMPDEST JUMPDEST PUSH2 0x1146 DUP9 DUP3 DUP10 ADD PUSH2 0x109E JUMP JUMPDEST SWAP5 POP SWAP5 POP POP PUSH1 0x40 DUP7 ADD CALLDATALOAD PUSH8 0xFFFFFFFFFFFFFFFF DUP2 GT ISZERO PUSH2 0x1169 JUMPI PUSH2 0x1168 PUSH2 0xEAD JUMP JUMPDEST JUMPDEST PUSH2 0x1175 DUP9 DUP3 DUP10 ADD PUSH2 0x109E JUMP JUMPDEST SWAP3 POP SWAP3 POP POP SWAP3 SWAP6 POP SWAP3 SWAP6 SWAP1 SWAP4 POP JUMP JUMPDEST PUSH0 PUSH1 0x20 DUP3 DUP5 SUB SLT ISZERO PUSH2 0x1199 JUMPI PUSH2 0x1198 PUSH2 0xEA9 JUMP JUMPDEST JUMPDEST PUSH0 PUSH2 0x11A6 DUP5 DUP3 DUP6 ADD PUSH2 0xF9D JUMP JUMPDEST SWAP2 POP POP SWAP3 SWAP2 POP POP JUMP JUMPDEST PUSH0 DUP2 MLOAD SWAP1 POP SWAP2 SWAP1 POP JUMP JUMPDEST PUSH0 DUP3 DUP3 MSTORE PUSH1 0x20 DUP3 ADD SWAP1 POP SWAP3 SWAP2 POP POP JUMP JUMPDEST PUSH0 DUP2 SWAP1 POP PUSH1 0x20 DUP3 ADD SWAP1 POP SWAP2 SWAP1 POP JUMP JUMPDEST PUSH2 0x11E1 DUP2 PUSH2 0xF7E JUMP JUMPDEST DUP3 MSTORE POP POP JUMP JUMPDEST PUSH0 PUSH2 0x11F2 DUP4 DUP4 PUSH2 0x11D8 JUMP JUMPDEST PUSH1 0x20 DUP4 ADD SWAP1 POP SWAP3 SWAP2 POP POP JUMP JUMPDEST PUSH0 PUSH1 0x20 DUP3 ADD SWAP1 POP SWAP2 SWAP1 POP JUMP JUMPDEST PUSH0 PUSH2 0x1214 DUP3 PUSH2 0x11AF JUMP JUMPDEST PUSH2 0x121E DUP2 DUP6 PUSH2 0x11B9 JUMP JUMPDEST SWAP4 POP PUSH2 0x1229 DUP4 PUSH2 0x11C9 JUMP JUMPDEST DUP1 PUSH0 JUMPDEST DUP4 DUP2 LT ISZERO PUSH2 0x1259 JUMPI DUP2 MLOAD PUSH2 0x1240 DUP9 DUP3 PUSH2 0x11E7 JUMP JUMPDEST SWAP8 POP PUSH2 0x124B DUP4 PUSH2 0x11FE JUMP JUMPDEST SWAP3 POP POP PUSH1 0x1 DUP2 ADD SWAP1 POP PUSH2 0x122C JUMP JUMPDEST POP DUP6 SWAP4 POP POP POP POP SWAP3 SWAP2 POP POP JUMP JUMPDEST PUSH0 PUSH1 0x20 DUP3 ADD SWAP1 POP DUP2 DUP2 SUB PUSH0 DUP4 ADD MSTORE PUSH2 0x127E DUP2 DUP5 PUSH2 0x120A JUMP JUMPDEST SWAP1 POP SWAP3 SWAP2 POP POP JUMP JUMPDEST PUSH0 DUP2 SWAP1 POP SWAP2 SWAP1 POP JUMP JUMPDEST PUSH2 0x12A0 PUSH2 0x129B DUP3 PUSH2 0xF7E JUMP JUMPDEST PUSH2 0x1286 JUMP JUMPDEST DUP3 MSTORE POP POP JUMP JUMPDEST PUSH0 DUP2 PUSH1 0x60 SHL SWAP1 POP SWAP2 SWAP1 POP JUMP JUMPDEST PUSH0 PUSH2 0x12BC DUP3 PUSH2 0x12A6 JUMP JUMPDEST SWAP1 POP SWAP2 SWAP1 POP JUMP JUMPDEST PUSH0 PUSH2 0x12CD DUP3 PUSH2 0x12B2 JUMP JUMPDEST SWAP1 POP SWAP2 SWAP1 POP JUMP JUMPDEST PUSH2 0x12E5 PUSH2 0x12E0 DUP3 PUSH2 0xED0 JUMP JUMPDEST PUSH2 0x12C3 JUMP JUMPDEST DUP3 MSTORE POP POP JUMP JUMPDEST PUSH0 PUSH2 0x12F6 DUP3 DUP7 PUSH2 0x128F JUMP JUMPDEST PUSH1 0x20 DUP3 ADD SWAP2 POP PUSH2 0x1306 DUP3 DUP6 PUSH2 0x12D4 JUMP JUMPDEST PUSH1 0x14 DUP3 ADD SWAP2 POP PUSH2 0x1316 DUP3 DUP5 PUSH2 0x128F JUMP JUMPDEST PUSH1 0x20 DUP3 ADD SWAP2 POP DUP2 SWAP1 POP SWAP5 SWAP4 POP POP POP POP JUMP JUMPDEST PUSH0 DUP3 DUP3 MSTORE PUSH1 0x20 DUP3 ADD SWAP1 POP SWAP3 SWAP2 POP POP JUMP JUMPDEST DUP3 DUP2 DUP4 CALLDATACOPY PUSH0 DUP4 DUP4 ADD MSTORE POP POP POP JUMP JUMPDEST PUSH0 PUSH1 0x1F NOT PUSH1 0x1F DUP4 ADD AND SWAP1 POP SWAP2 SWAP1 POP JUMP JUMPDEST PUSH0 PUSH2 0x1360 DUP4 DUP6 PUSH2 0x1327 JUMP JUMPDEST SWAP4 POP PUSH2 0x136D DUP4 DUP6 DUP5 PUSH2 0x1337 JUMP JUMPDEST PUSH2 0x1376 DUP4 PUSH2 0x1345 JUMP JUMPDEST DUP5 ADD SWAP1 POP SWAP4 SWAP3 POP POP POP JUMP JUMPDEST PUSH0 PUSH1 0xA0 DUP3 ADD SWAP1 POP PUSH2 0x1394 PUSH0 DUP4 ADD DUP11 PUSH2 0x1017 JUMP JUMPDEST PUSH2 0x13A1 PUSH1 0x20 DUP4 ADD DUP10 PUSH2 0xFEF JUMP JUMPDEST PUSH2 0x13AE PUSH1 0x40 DUP4 ADD DUP9 PUSH2 0xFEF JUMP JUMPDEST DUP2 DUP2 SUB PUSH1 0x60 DUP4 ADD MSTORE PUSH2 0x13C1 DUP2 DUP7 DUP9 PUSH2 0x1355 JUMP JUMPDEST SWAP1 POP DUP2 DUP2 SUB PUSH1 0x80 DUP4 ADD MSTORE PUSH2 0x13D6 DUP2 DUP5 DUP7 PUSH2 0x1355 JUMP JUMPDEST SWAP1 POP SWAP9 SWAP8 POP POP POP POP POP POP POP POP JUMP JUMPDEST PUSH32 0x4E487B7100000000000000000000000000000000000000000000000000000000 PUSH0 MSTORE PUSH1 0x11 PUSH1 0x4 MSTORE PUSH1 0x24 PUSH0 REVERT JUMPDEST PUSH0 PUSH2 0x141B DUP3 PUSH2 0xF7E JUMP JUMPDEST SWAP2 POP PUSH32 0xFFFFFFFFFFFFFFFFFFFFFFFFFFFFFFFFFFFFFFFFFFFFFFFFFFFFFFFFFFFFFFFF DUP3 SUB PUSH2 0x144D JUMPI PUSH2 0x144C PUSH2 0x13E4 JUMP JUMPDEST JUMPDEST PUSH1 0x1 DUP3 ADD SWAP1 POP SWAP2 SWAP1 POP JUMP JUMPDEST PUSH32 0x5061757361626C653A2070617573656400000000000000000000000000000000 PUSH0 DUP3 ADD MSTORE POP JUMP JUMPDEST PUSH0 PUSH2 0x148C PUSH1 0x10 DUP4 PUSH2 0x1327 JUMP JUMPDEST SWAP2 POP PUSH2 0x1497 DUP3 PUSH2 0x1458 JUMP JUMPDEST PUSH1 0x20 DUP3 ADD SWAP1 POP SWAP2 SWAP1 POP JUMP JUMPDEST PUSH0 PUSH1 0x20 DUP3 ADD SWAP1 POP DUP2 DUP2 SUB PUSH0 DUP4 ADD MSTORE PUSH2 0x14B9 DUP2 PUSH2 0x1480 JUMP JUMPDEST SWAP1 POP SWAP2 SWAP1 POP JUMP JUMPDEST PUSH32 0x5061757361626C653A206E6F7420706175736564000000000000000000000000 PUSH0 DUP3 ADD MSTORE POP JUMP JUMPDEST PUSH0 PUSH2 0x14F4 PUSH1 0x14 DUP4 PUSH2 0x1327 JUMP JUMPDEST SWAP2 POP PUSH2 0x14FF DUP3 PUSH2 0x14C0 JUMP JUMPDEST PUSH1 0x20 DUP3 ADD SWAP1 POP SWAP2 SWAP1 POP JUMP JUMPDEST PUSH0 PUSH1 0x20 DUP3 ADD SWAP1 POP DUP2 DUP2 SUB PUSH0 DUP4 ADD MSTORE PUSH2 0x1521 DUP2 PUSH2 0x14E8 JUMP JUMPDEST SWAP1 POP SWAP2 SWAP1 POP JUMP INVALID LOG2 PUSH5 0x6970667358 0x22 SLT KECCAK256 0x2A 0xED PUSH19 0xE8C9B329F545E38081F4825EB8F58CB86BE367 SWAP11 GASPRICE PUSH3 0xE69A6C ORIGIN 0xD8 0x4D EXTCODEHASH PUSH5 0x736F6C6343 STOP ADDMOD 0x1E STOP CALLER "
				},
				"gasEstimates": {
					"creation": {
						"codeDepositCost": "1094000",
						"executionCost": "infinite",
						"totalCost": "infinite"
					},
					"external": {
						"cooperativeProjects(address,uint256)": "infinite",
						"createProject(uint256,string,string)": "infinite",
						"farmingProjectImplementation()": "2620",
						"getProjectContract(uint256)": "2963",
						"getProjectsByCooperative(address)": "infinite",
						"idrtToken()": "infinite",
						"isWhitelistedCooperative(address)": "2878",
						"nextProjectId()": "2513",
						"owner()": "2537",
						"pause()": "infinite",
						"paused()": "2546",
						"projectContracts(uint256)": "2894",
						"projectFee()": "2491",
						"renounceOwnership()": "infinite",
						"setCooperative(address,bool)": "infinite",
						"setFarmingProjectImplementation(address)": "infinite",
						"setProjectFee(uint256)": "infinite",
						"totalFeeCollected()": "2514",
						"transferOwnership(address)": "infinite",
						"unpause()": "infinite"
					},
					"internal": {
						"_deployClone(bytes32)": "infinite"
					}
				},
				"methodIdentifiers": {
					"cooperativeProjects(address,uint256)": "3e566245",
					"createProject(uint256,string,string)": "854dbe58",
					"farmingProjectImplementation()": "4c2cb3fd",
					"getProjectContract(uint256)": "ba76fdef",
					"getProjectsByCooperative(address)": "d47dc2a5",
					"idrtToken()": "4a213805",
					"isWhitelistedCooperative(address)": "6d1032e4",
					"nextProjectId()": "e935b7b1",
					"owner()": "8da5cb5b",
					"pause()": "8456cb59",
					"paused()": "5c975abb",
					"projectContracts(uint256)": "a3bac32a",
					"projectFee()": "d58f2f27",
					"renounceOwnership()": "715018a6",
					"setCooperative(address,bool)": "234ffdb1",
					"setFarmingProjectImplementation(address)": "bccddb80",
					"setProjectFee(uint256)": "9c09f682",
					"totalFeeCollected()": "b9b2b5cd",
					"transferOwnership(address)": "f2fde38b",
					"unpause()": "3f4ba83a"
				}
			},
			"storageLayout": {
				"storage": [
					{
						"astId": 8,
						"contract": "ProjectFactory.sol:ProjectFactory",
						"label": "_owner",
						"offset": 0,
						"slot": "0",
						"type": "t_address"
					},
					{
						"astId": 165,
						"contract": "ProjectFactory.sol:ProjectFactory",
						"label": "_paused",
						"offset": 20,
						"slot": "0",
						"type": "t_bool"
					},
					{
						"astId": 311,
						"contract": "ProjectFactory.sol:ProjectFactory",
						"label": "farmingProjectImplementation",
						"offset": 0,
						"slot": "1",
						"type": "t_address"
					},
					{
						"astId": 318,
						"contract": "ProjectFactory.sol:ProjectFactory",
						"label": "projectFee",
						"offset": 0,
						"slot": "2",
						"type": "t_uint256"
					},
					{
						"astId": 320,
						"contract": "ProjectFactory.sol:ProjectFactory",
						"label": "nextProjectId",
						"offset": 0,
						"slot": "3",
						"type": "t_uint256"
					},
					{
						"astId": 322,
						"contract": "ProjectFactory.sol:ProjectFactory",
						"label": "totalFeeCollected",
						"offset": 0,
						"slot": "4",
						"type": "t_uint256"
					},
					{
						"astId": 326,
						"contract": "ProjectFactory.sol:ProjectFactory",
						"label": "projectContracts",
						"offset": 0,
						"slot": "5",
						"type": "t_mapping(t_uint256,t_address)"
					},
					{
						"astId": 330,
						"contract": "ProjectFactory.sol:ProjectFactory",
						"label": "isWhitelistedCooperative",
						"offset": 0,
						"slot": "6",
						"type": "t_mapping(t_address,t_bool)"
					},
					{
						"astId": 335,
						"contract": "ProjectFactory.sol:ProjectFactory",
						"label": "cooperativeProjects",
						"offset": 0,
						"slot": "7",
						"type": "t_mapping(t_address,t_array(t_uint256)dyn_storage)"
					}
				],
				"types": {
					"t_address": {
						"encoding": "inplace",
						"label": "address",
						"numberOfBytes": "20"
					},
					"t_array(t_uint256)dyn_storage": {
						"base": "t_uint256",
						"encoding": "dynamic_array",
						"label": "uint256[]",
						"numberOfBytes": "32"
					},
					"t_bool": {
						"encoding": "inplace",
						"label": "bool",
						"numberOfBytes": "1"
					},
					"t_mapping(t_address,t_array(t_uint256)dyn_storage)": {
						"encoding": "mapping",
						"key": "t_address",
						"label": "mapping(address => uint256[])",
						"numberOfBytes": "32",
						"value": "t_array(t_uint256)dyn_storage"
					},
					"t_mapping(t_address,t_bool)": {
						"encoding": "mapping",
						"key": "t_address",
						"label": "mapping(address => bool)",
						"numberOfBytes": "32",
						"value": "t_bool"
					},
					"t_mapping(t_uint256,t_address)": {
						"encoding": "mapping",
						"key": "t_uint256",
						"label": "mapping(uint256 => address)",
						"numberOfBytes": "32",
						"value": "t_address"
					},
					"t_uint256": {
						"encoding": "inplace",
						"label": "uint256",
						"numberOfBytes": "32"
					}
				}
			},
			"userdoc": {
				"kind": "user",
				"methods": {},
				"version": 1
			}
		}
	}
}