{
	"data": {
		"bytecode": {
			"linkReferences": {},
			"object": "60a06040525f60085f6101000a81548160ff021916908315150217905550348015610028575f5ffd5b50604051616717380380616717833981810160405281019061004a9190610393565b6040518060600160405280602f81526020016166e8602f9139610072816101c160201b60201c565b505f73ffffffffffffffffffffffffffffffffffffffff168173ffffffffffffffffffffffffffffffffffffffff16036100e1576040517f08c379a00000000000000000000000000000000000000000000000000000000081526004016100d890610418565b60405180910390fd5b8073ffffffffffffffffffffffffffffffffffffffff1660808173ffffffffffffffffffffffffffffffffffffffff16815250506101275f5f1b336101d460201b60201c565b506101587fdb280aa9d0ad630b4f4bdba2ebc3fb77a4f5a9f682e532996a7908b449bd1e26336101d460201b60201c565b506101897fa1496c3abf9cd93b84db10ae569b57fafa04deeeb7ece4167616ad50e35bc56e336101d460201b60201c565b506101ba7fcc2f8959db5aa7145f7501eaec600c5dfb2790e04849110b57af9e144057487b336101d460201b60201c565b5050610742565b80600290816101d09190610673565b5050565b5f6101e583836102ca60201b60201c565b6102c057600160035f8581526020019081526020015f205f015f8473ffffffffffffffffffffffffffffffffffffffff1673ffffffffffffffffffffffffffffffffffffffff1681526020019081526020015f205f6101000a81548160ff02191690831515021790555061025d61032e60201b60201c565b73ffffffffffffffffffffffffffffffffffffffff168273ffffffffffffffffffffffffffffffffffffffff16847f2f8788117e7eff1d82e926ec794901d17c78024a50270940304540a733656f0d60405160405180910390a4600190506102c4565b5f90505b92915050565b5f60035f8481526020019081526020015f205f015f8373ffffffffffffffffffffffffffffffffffffffff1673ffffffffffffffffffffffffffffffffffffffff1681526020019081526020015f205f9054906101000a900460ff16905092915050565b5f33905090565b5f5ffd5b5f73ffffffffffffffffffffffffffffffffffffffff82169050919050565b5f61036282610339565b9050919050565b61037281610358565b811461037c575f5ffd5b50565b5f8151905061038d81610369565b92915050565b5f602082840312156103a8576103a7610335565b5b5f6103b58482850161037f565b91505092915050565b5f82825260208201905092915050565b7f496e76616c696420746f6b656e206164647265737300000000000000000000005f82015250565b5f6104026015836103be565b915061040d826103ce565b602082019050919050565b5f6020820190508181035f83015261042f816103f6565b9050919050565b5f81519050919050565b7f4e487b71000000000000000000000000000000000000000000000000000000005f52604160045260245ffd5b7f4e487b71000000000000000000000000000000000000000000000000000000005f52602260045260245ffd5b5f60028204905060018216806104b157607f821691505b6020821081036104c4576104c361046d565b5b50919050565b5f819050815f5260205f209050919050565b5f6020601f8301049050919050565b5f82821b905092915050565b5f600883026105267fffffffffffffffffffffffffffffffffffffffffffffffffffffffffffffffff826104eb565b61053086836104eb565b95508019841693508086168417925050509392505050565b5f819050919050565b5f819050919050565b5f61057461056f61056a84610548565b610551565b610548565b9050919050565b5f819050919050565b61058d8361055a565b6105a16105998261057b565b8484546104f7565b825550505050565b5f5f905090565b6105b86105a9565b6105c3818484610584565b505050565b5b818110156105e6576105db5f826105b0565b6001810190506105c9565b5050565b601f82111561062b576105fc816104ca565b610605846104dc565b81016020851015610614578190505b610628610620856104dc565b8301826105c8565b50505b505050565b5f82821c905092915050565b5f61064b5f1984600802610630565b1980831691505092915050565b5f610663838361063c565b9150826002028217905092915050565b61067c82610436565b67ffffffffffffffff81111561069557610694610440565b5b61069f825461049a565b6106aa8282856105ea565b5f60209050601f8311600181146106db575f84156106c9578287015190505b6106d38582610658565b86555061073a565b601f1984166106e9866104ca565b5f5b82811015610710578489015182556001820191506020850194506020810190506106eb565b8683101561072d5784890151610729601f89168261063c565b8355505b6001600288020188555050505b505050505050565b608051615f7961076f5f395f8181610d2e01528181610e0a015281816117ab0152611ac00152615f795ff3fe608060405234801561000f575f5ffd5b50600436106101ed575f3560e01c80634e1273f41161010d578063a71228fa116100a0578063e985e9c51161006f578063e985e9c5146105c5578063f242432a146105f5578063f7b1080814610611578063fd8c8bad14610649576101ed565b8063a71228fa1461053f578063d0c8a6951461056f578063d547741f1461058b578063d70afa96146105a7576101ed565b806391d14854116100dc57806391d14854146104b75780639f737e0d146104e7578063a217fddf14610505578063a22cb46514610523576101ed565b80634e1273f41461041d5780637b8d9dd81461044d5780637ea7dda01461046b578063877d11c21461049b576101ed565b8063266e7c951161018557806340f0a0551161015457806340f0a055146103955780634212a8ae146103c55780634425f05a146103e15780634a213805146103ff576101ed565b8063266e7c95146103255780632eb2c2d6146103415780632f2ff15d1461035d57806336568abe14610379576101ed565b80630e9b4c0b116101c15780630e9b4c0b146102b15780630ea80e67146102bb578063164e68de146102d9578063248a9ca3146102f5576101ed565b8062fdd58e146101f157806301ffc9a7146102215780630d360e2c146102515780630e89341c14610281575b5f5ffd5b61020b60048036038101906102069190613ae0565b610679565b6040516102189190613b2d565b60405180910390f35b61023b60048036038101906102369190613b9b565b6106ce565b6040516102489190613be0565b60405180910390f35b61026b60048036038101906102669190613d35565b6106df565b6040516102789190613d8b565b60405180910390f35b61029b60048036038101906102969190613da4565b610725565b6040516102a89190613e2f565b60405180910390f35b6102b9610c78565b005b6102c3610d12565b6040516102d09190613b2d565b60405180910390f35b6102f360048036038101906102ee9190613e4f565b610d1f565b005b61030f600480360381019061030a9190613ead565b610ea9565b60405161031c9190613ee7565b60405180910390f35b61033f600480360381019061033a9190613d35565b610ec6565b005b61035b60048036038101906103569190614062565b611032565b005b6103776004803603810190610372919061412d565b6110d9565b005b610393600480360381019061038e919061412d565b6110fb565b005b6103af60048036038101906103aa9190613da4565b611176565b6040516103bc91906142be565b60405180910390f35b6103df60048036038101906103da9190613da4565b6114f5565b005b6103e9611797565b6040516103f69190613be0565b60405180910390f35b6104076117a9565b6040516104149190614339565b60405180910390f35b61043760048036038101906104329190614412565b6117cd565b6040516104449190614530565b60405180910390f35b6104556118d7565b6040516104629190613ee7565b60405180910390f35b61048560048036038101906104809190613d35565b6118fb565b6040516104929190613d8b565b60405180910390f35b6104b560048036038101906104b09190614550565b611943565b005b6104d160048036038101906104cc919061412d565b611cac565b6040516104de9190613be0565b60405180910390f35b6104ef611d10565b6040516104fc9190613ee7565b60405180910390f35b61050d611d34565b60405161051a9190613ee7565b60405180910390f35b61053d600480360381019061053891906145ca565b611d3a565b005b61055960048036038101906105549190614608565b611d50565b6040516105669190613b2d565b60405180910390f35b6105896004803603810190610584919061471d565b612138565b005b6105a560048036038101906105a0919061412d565b612315565b005b6105af612337565b6040516105bc9190613ee7565b60405180910390f35b6105df60048036038101906105da9190614777565b61235b565b6040516105ec9190613be0565b60405180910390f35b61060f600480360381019061060a91906147b5565b6123e9565b005b61062b60048036038101906106269190613da4565b612490565b60405161064099989796959493929190614848565b60405180910390f35b610663600480360381019061065e9190613d35565b6127a4565b6040516106709190613be0565b60405180910390f35b5f5f5f8381526020019081526020015f205f8473ffffffffffffffffffffffffffffffffffffffff1673ffffffffffffffffffffffffffffffffffffffff1681526020019081526020015f2054905092915050565b5f6106d8826127d9565b9050919050565b5f6006826040516106f09190614930565b90815260200160405180910390205f9054906101000a900473ffffffffffffffffffffffffffffffffffffffff169050919050565b60605f60045f8481526020019081526020015f20604051806101200160405290815f8201805461075490614973565b80601f016020809104026020016040519081016040528092919081815260200182805461078090614973565b80156107cb5780601f106107a2576101008083540402835291602001916107cb565b820191905f5260205f20905b8154815290600101906020018083116107ae57829003601f168201915b5050505050815260200160018201548152602001600282015481526020016003820180546107f890614973565b80601f016020809104026020016040519081016040528092919081815260200182805461082490614973565b801561086f5780601f106108465761010080835404028352916020019161086f565b820191905f5260205f20905b81548152906001019060200180831161085257829003601f168201915b5050505050815260200160048201805461088890614973565b80601f01602080910402602001604051908101604052809291908181526020018280546108b490614973565b80156108ff5780601f106108d6576101008083540402835291602001916108ff565b820191905f5260205f20905b8154815290600101906020018083116108e257829003601f168201915b5050505050815260200160058201805461091890614973565b80601f016020809104026020016040519081016040528092919081815260200182805461094490614973565b801561098f5780601f106109665761010080835404028352916020019161098f565b820191905f5260205f20905b81548152906001019060200180831161097257829003601f168201915b505050505081526020016006820180546109a890614973565b80601f01602080910402602001604051908101604052809291908181526020018280546109d490614973565b8015610a1f5780601f106109f657610100808354040283529160200191610a1f565b820191905f5260205f20905b815481529060010190602001808311610a0257829003601f168201915b50505050508152602001600782015f9054906101000a900460ff161515151581526020016007820160019054906101000a900473ffffffffffffffffffffffffffffffffffffffff1673ffffffffffffffffffffffffffffffffffffffff1673ffffffffffffffffffffffffffffffffffffffff168152505090505f73ffffffffffffffffffffffffffffffffffffffff1681610100015173ffffffffffffffffffffffffffffffffffffffff1603610b0d576040517f08c379a0000000000000000000000000000000000000000000000000000000008152600401610b04906149ed565b60405180910390fd5b5f8160e00151610b52576040518060400160405280601481526020017f50656e64696e6720566572696669636174696f6e000000000000000000000000815250610b89565b6040518060400160405280600881526020017f56657269666965640000000000000000000000000000000000000000000000008152505b90505f60085f9054906101000a900460ff16610bda576040518060400160405280600881526020017f496e616374697665000000000000000000000000000000000000000000000000815250610c11565b6040518060400160405280600681526020017f41637469766500000000000000000000000000000000000000000000000000008152505b9050825f01518360a001518460c00151610c2e8660200151612852565b610c3b8760400151612852565b876060015187896080015188604051602001610c5f99989796959493929190615025565b6040516020818303038152906040529350505050919050565b7fcc2f8959db5aa7145f7501eaec600c5dfb2790e04849110b57af9e144057487b610ca28161291c565b60085f9054906101000a900460ff161560085f6101000a81548160ff0219169083151502179055507f41de7002eaf61ca1200cc8c41ac05fa4fd2eda861eefbc2648ed00667b8be80d60085f9054906101000a900460ff16604051610d079190613be0565b60405180910390a150565b683635c9adc5dea0000081565b5f5f1b610d2b8161291c565b5f7f000000000000000000000000000000000000000000000000000000000000000073ffffffffffffffffffffffffffffffffffffffff166370a08231306040518263ffffffff1660e01b8152600401610d859190613d8b565b602060405180830381865afa158015610da0573d5f5f3e3d5ffd5b505050506040513d601f19601f82011682018060405250810190610dc491906151a9565b90505f8111610e08576040517f08c379a0000000000000000000000000000000000000000000000000000000008152600401610dff9061521e565b60405180910390fd5b7f000000000000000000000000000000000000000000000000000000000000000073ffffffffffffffffffffffffffffffffffffffff1663a9059cbb84836040518363ffffffff1660e01b8152600401610e6392919061523c565b6020604051808303815f875af1158015610e7f573d5f5f3e3d5ffd5b505050506040513d601f19601f82011682018060405250810190610ea39190615277565b50505050565b5f60035f8381526020019081526020015f20600101549050919050565b7fdb280aa9d0ad630b4f4bdba2ebc3fb77a4f5a9f682e532996a7908b449bd1e26610ef08161291c565b5f73ffffffffffffffffffffffffffffffffffffffff16600683604051610f179190614930565b90815260200160405180910390205f9054906101000a900473ffffffffffffffffffffffffffffffffffffffff1673ffffffffffffffffffffffffffffffffffffffff1603610f9b576040517f08c379a0000000000000000000000000000000000000000000000000000000008152600401610f92906152ec565b60405180910390fd5b5f600683604051610fac9190614930565b90815260200160405180910390205f6101000a81548173ffffffffffffffffffffffffffffffffffffffff021916908373ffffffffffffffffffffffffffffffffffffffff1602179055507f87414e62ea5ca0d4b6c051ab255fbdcf7aa10dccbf79f99e031dabe197418099826040516110269190613e2f565b60405180910390a15050565b5f61103b612930565b90508073ffffffffffffffffffffffffffffffffffffffff168673ffffffffffffffffffffffffffffffffffffffff1614158015611080575061107e868261235b565b155b156110c45780866040517fe237d9220000000000000000000000000000000000000000000000000000000081526004016110bb92919061530a565b60405180910390fd5b6110d18686868686612937565b505050505050565b6110e282610ea9565b6110eb8161291c565b6110f58383612a2b565b50505050565b611103612930565b73ffffffffffffffffffffffffffffffffffffffff168173ffffffffffffffffffffffffffffffffffffffff1614611167576040517f6697b23200000000000000000000000000000000000000000000000000000000815260040160405180910390fd5b6111718282612b15565b505050565b61117e6139e2565b60045f8381526020019081526020015f20604051806101200160405290815f820180546111aa90614973565b80601f01602080910402602001604051908101604052809291908181526020018280546111d690614973565b80156112215780601f106111f857610100808354040283529160200191611221565b820191905f5260205f20905b81548152906001019060200180831161120457829003601f168201915b50505050508152602001600182015481526020016002820154815260200160038201805461124e90614973565b80601f016020809104026020016040519081016040528092919081815260200182805461127a90614973565b80156112c55780601f1061129c576101008083540402835291602001916112c5565b820191905f5260205f20905b8154815290600101906020018083116112a857829003601f168201915b505050505081526020016004820180546112de90614973565b80601f016020809104026020016040519081016040528092919081815260200182805461130a90614973565b80156113555780601f1061132c57610100808354040283529160200191611355565b820191905f5260205f20905b81548152906001019060200180831161133857829003601f168201915b5050505050815260200160058201805461136e90614973565b80601f016020809104026020016040519081016040528092919081815260200182805461139a90614973565b80156113e55780601f106113bc576101008083540402835291602001916113e5565b820191905f5260205f20905b8154815290600101906020018083116113c857829003601f168201915b505050505081526020016006820180546113fe90614973565b80601f016020809104026020016040519081016040528092919081815260200182805461142a90614973565b80156114755780601f1061144c57610100808354040283529160200191611475565b820191905f5260205f20905b81548152906001019060200180831161145857829003601f168201915b50505050508152602001600782015f9054906101000a900460ff161515151581526020016007820160019054906101000a900473ffffffffffffffffffffffffffffffffffffffff1673ffffffffffffffffffffffffffffffffffffffff1673ffffffffffffffffffffffffffffffffffffffff16815250509050919050565b60085f9054906101000a900460ff1615611544576040517f08c379a000000000000000000000000000000000000000000000000000000000815260040161153b9061537b565b60405180910390fd5b5f60045f8381526020019081526020015f2090505f73ffffffffffffffffffffffffffffffffffffffff168160070160019054906101000a900473ffffffffffffffffffffffffffffffffffffffff1673ffffffffffffffffffffffffffffffffffffffff16036115ea576040517f08c379a00000000000000000000000000000000000000000000000000000000081526004016115e1906153e3565b60405180910390fd5b806007015f9054906101000a900460ff161561163b576040517f08c379a00000000000000000000000000000000000000000000000000000000081526004016116329061544b565b60405180910390fd5b8060010154816002015414611685576040517f08c379a000000000000000000000000000000000000000000000000000000000815260040161167c906154b3565b60405180910390fd5b6006816006016040516116989190615563565b90815260200160405180910390205f9054906101000a900473ffffffffffffffffffffffffffffffffffffffff1673ffffffffffffffffffffffffffffffffffffffff163373ffffffffffffffffffffffffffffffffffffffff1614611733576040517f08c379a000000000000000000000000000000000000000000000000000000000815260040161172a906155e9565b60405180910390fd5b6001816007015f6101000a81548160ff0219169083151502179055503373ffffffffffffffffffffffffffffffffffffffff16827f791049df3faadbda0c00ec3e469ce592f100f0d6664511fa7ac1ab33bf0aafda60405160405180910390a35050565b60085f9054906101000a900460ff1681565b7f000000000000000000000000000000000000000000000000000000000000000081565b6060815183511461181957815183516040517f5b059991000000000000000000000000000000000000000000000000000000008152600401611810929190615607565b60405180910390fd5b5f835167ffffffffffffffff81111561183557611834613c11565b5b6040519080825280602002602001820160405280156118635781602001602082028036833780820191505090505b5090505f5f90505b84518110156118cc576118a261188a8287612bff90919063ffffffff16565b61189d8387612c1290919063ffffffff16565b610679565b8282815181106118b5576118b461562e565b5b60200260200101818152505080600101905061186b565b508091505092915050565b7fdb280aa9d0ad630b4f4bdba2ebc3fb77a4f5a9f682e532996a7908b449bd1e2681565b6006818051602081018201805184825260208301602085012081835280955050505050505f915054906101000a900473ffffffffffffffffffffffffffffffffffffffff1681565b5f60045f8581526020019081526020015f2090505f73ffffffffffffffffffffffffffffffffffffffff168160070160019054906101000a900473ffffffffffffffffffffffffffffffffffffffff1673ffffffffffffffffffffffffffffffffffffffff16036119e9576040517f08c379a00000000000000000000000000000000000000000000000000000000081526004016119e0906153e3565b60405180910390fd5b806007015f9054906101000a900460ff161580611a11575060085f9054906101000a900460ff165b611a50576040517f08c379a0000000000000000000000000000000000000000000000000000000008152600401611a47906156a5565b60405180910390fd5b8060010154838260020154611a6591906156f0565b1115611aa6576040517f08c379a0000000000000000000000000000000000000000000000000000000008152600401611a9d9061576d565b60405180910390fd5b5f83683635c9adc5dea00000611abc919061578b565b90507f000000000000000000000000000000000000000000000000000000000000000073ffffffffffffffffffffffffffffffffffffffff166323b872dd3330846040518463ffffffff1660e01b8152600401611b1b939291906157cc565b6020604051808303815f875af1158015611b37573d5f5f3e3d5ffd5b505050506040513d601f19601f82011682018060405250810190611b5b9190615277565b611b9a576040517f08c379a0000000000000000000000000000000000000000000000000000000008152600401611b919061584b565b60405180910390fd5b611bb483868660405180602001604052805f815250612c25565b83826002015f828254611bc791906156f0565b9250508190555060085f9054906101000a900460ff168015611bf0575081600101548260020154145b15611c56576001826007015f6101000a81548160ff0219169083151502179055503373ffffffffffffffffffffffffffffffffffffffff16857f791049df3faadbda0c00ec3e469ce592f100f0d6664511fa7ac1ab33bf0aafda60405160405180910390a35b8273ffffffffffffffffffffffffffffffffffffffff16857f3d84dad86ec01e872844b9ae95f6f1a174d221d8cfcae55cb716340a8a10b62e86604051611c9d9190613b2d565b60405180910390a35050505050565b5f60035f8481526020019081526020015f205f015f8373ffffffffffffffffffffffffffffffffffffffff1673ffffffffffffffffffffffffffffffffffffffff1681526020019081526020015f205f9054906101000a900460ff16905092915050565b7fcc2f8959db5aa7145f7501eaec600c5dfb2790e04849110b57af9e144057487b81565b5f5f1b81565b611d4c611d45612930565b8383612cba565b5050565b5f5f8611611d93576040517f08c379a0000000000000000000000000000000000000000000000000000000008152600401611d8a906158b3565b60405180910390fd5b600584604051611da39190614930565b90815260200160405180910390205f9054906101000a900460ff1615611dfe576040517f08c379a0000000000000000000000000000000000000000000000000000000008152600401611df59061591b565b60405180910390fd5b60085f9054906101000a900460ff16611ebd575f73ffffffffffffffffffffffffffffffffffffffff16600683604051611e389190614930565b90815260200160405180910390205f9054906101000a900473ffffffffffffffffffffffffffffffffffffffff1673ffffffffffffffffffffffffffffffffffffffff1603611ebc576040517f08c379a0000000000000000000000000000000000000000000000000000000008152600401611eb390615983565b60405180910390fd5b5b5f84604051602001611ecf9190614930565b604051602081830303815290604052805190602001205f1c90506040518061012001604052808981526020018881526020015f815260200187815260200186815260200185815260200184815260200160085f9054906101000a900460ff16151581526020013373ffffffffffffffffffffffffffffffffffffffff1681525060045f8381526020019081526020015f205f820151815f019081611f739190615b26565b5060208201518160010155604082015181600201556060820151816003019081611f9d9190615b26565b506080820151816004019081611fb39190615b26565b5060a0820151816005019081611fc99190615b26565b5060c0820151816006019081611fdf9190615b26565b5060e0820151816007015f6101000a81548160ff0219169083151502179055506101008201518160070160016101000a81548173ffffffffffffffffffffffffffffffffffffffff021916908373ffffffffffffffffffffffffffffffffffffffff160217905550905050600160058660405161205c9190614930565b90815260200160405180910390205f6101000a81548160ff0219169083151502179055503373ffffffffffffffffffffffffffffffffffffffff16817f31182f6909026c6beb17a5f7d86ce8dfd6c60aeb1d2df4ef2250e326b10a1ae687866040516120c9929190615bf5565b60405180910390a360085f9054906101000a900460ff161561212a573373ffffffffffffffffffffffffffffffffffffffff16817f791049df3faadbda0c00ec3e469ce592f100f0d6664511fa7ac1ab33bf0aafda60405160405180910390a35b809150509695505050505050565b7fdb280aa9d0ad630b4f4bdba2ebc3fb77a4f5a9f682e532996a7908b449bd1e266121628161291c565b5f73ffffffffffffffffffffffffffffffffffffffff168273ffffffffffffffffffffffffffffffffffffffff16036121d0576040517f08c379a00000000000000000000000000000000000000000000000000000000081526004016121c790615c74565b60405180910390fd5b5f73ffffffffffffffffffffffffffffffffffffffff166006846040516121f79190614930565b90815260200160405180910390205f9054906101000a900473ffffffffffffffffffffffffffffffffffffffff1673ffffffffffffffffffffffffffffffffffffffff161461227b576040517f08c379a000000000000000000000000000000000000000000000000000000000815260040161227290615cdc565b60405180910390fd5b8160068460405161228c9190614930565b90815260200160405180910390205f6101000a81548173ffffffffffffffffffffffffffffffffffffffff021916908373ffffffffffffffffffffffffffffffffffffffff1602179055507f2dec6485cdb27fd8ab4dc5d2b2668f203cd20bca5002445ba8c9f374861ae4118383604051612308929190615cfa565b60405180910390a1505050565b61231e82610ea9565b6123278161291c565b6123318383612b15565b50505050565b7fa1496c3abf9cd93b84db10ae569b57fafa04deeeb7ece4167616ad50e35bc56e81565b5f60015f8473ffffffffffffffffffffffffffffffffffffffff1673ffffffffffffffffffffffffffffffffffffffff1681526020019081526020015f205f8373ffffffffffffffffffffffffffffffffffffffff1673ffffffffffffffffffffffffffffffffffffffff1681526020019081526020015f205f9054906101000a900460ff16905092915050565b5f6123f2612930565b90508073ffffffffffffffffffffffffffffffffffffffff168673ffffffffffffffffffffffffffffffffffffffff16141580156124375750612435868261235b565b155b1561247b5780866040517fe237d92200000000000000000000000000000000000000000000000000000000815260040161247292919061530a565b60405180910390fd5b6124888686868686612e23565b505050505050565b6004602052805f5260405f205f91509050805f0180546124af90614973565b80601f01602080910402602001604051908101604052809291908181526020018280546124db90614973565b80156125265780601f106124fd57610100808354040283529160200191612526565b820191905f5260205f20905b81548152906001019060200180831161250957829003601f168201915b50505050509080600101549080600201549080600301805461254790614973565b80601f016020809104026020016040519081016040528092919081815260200182805461257390614973565b80156125be5780601f10612595576101008083540402835291602001916125be565b820191905f5260205f20905b8154815290600101906020018083116125a157829003601f168201915b5050505050908060040180546125d390614973565b80601f01602080910402602001604051908101604052809291908181526020018280546125ff90614973565b801561264a5780601f106126215761010080835404028352916020019161264a565b820191905f5260205f20905b81548152906001019060200180831161262d57829003601f168201915b50505050509080600501805461265f90614973565b80601f016020809104026020016040519081016040528092919081815260200182805461268b90614973565b80156126d65780601f106126ad576101008083540402835291602001916126d6565b820191905f5260205f20905b8154815290600101906020018083116126b957829003601f168201915b5050505050908060060180546126eb90614973565b80601f016020809104026020016040519081016040528092919081815260200182805461271790614973565b80156127625780601f1061273957610100808354040283529160200191612762565b820191905f5260205f20905b81548152906001019060200180831161274557829003601f168201915b505050505090806007015f9054906101000a900460ff16908060070160019054906101000a900473ffffffffffffffffffffffffffffffffffffffff16905089565b6005818051602081018201805184825260208301602085012081835280955050505050505f915054906101000a900460ff1681565b5f7f7965db0b000000000000000000000000000000000000000000000000000000007bffffffffffffffffffffffffffffffffffffffffffffffffffffffff1916827bffffffffffffffffffffffffffffffffffffffffffffffffffffffff1916148061284b575061284a82612f29565b5b9050919050565b60605f60016128608461300a565b0190505f8167ffffffffffffffff81111561287e5761287d613c11565b5b6040519080825280601f01601f1916602001820160405280156128b05781602001600182028036833780820191505090505b5090505f82602001820190505b600115612911578080600190039150507f3031323334353637383961626364656600000000000000000000000000000000600a86061a8153600a858161290657612905615d28565b5b0494505f85036128bd575b819350505050919050565b61292d81612928612930565b61315b565b50565b5f33905090565b5f73ffffffffffffffffffffffffffffffffffffffff168473ffffffffffffffffffffffffffffffffffffffff16036129a7575f6040517f57f447ce00000000000000000000000000000000000000000000000000000000815260040161299e9190613d8b565b60405180910390fd5b5f73ffffffffffffffffffffffffffffffffffffffff168573ffffffffffffffffffffffffffffffffffffffff1603612a17575f6040517f01a83514000000000000000000000000000000000000000000000000000000008152600401612a0e9190613d8b565b60405180910390fd5b612a2485858585856131ac565b5050505050565b5f612a368383611cac565b612b0b57600160035f8581526020019081526020015f205f015f8473ffffffffffffffffffffffffffffffffffffffff1673ffffffffffffffffffffffffffffffffffffffff1681526020019081526020015f205f6101000a81548160ff021916908315150217905550612aa8612930565b73ffffffffffffffffffffffffffffffffffffffff168273ffffffffffffffffffffffffffffffffffffffff16847f2f8788117e7eff1d82e926ec794901d17c78024a50270940304540a733656f0d60405160405180910390a460019050612b0f565b5f90505b92915050565b5f612b208383611cac565b15612bf5575f60035f8581526020019081526020015f205f015f8473ffffffffffffffffffffffffffffffffffffffff1673ffffffffffffffffffffffffffffffffffffffff1681526020019081526020015f205f6101000a81548160ff021916908315150217905550612b92612930565b73ffffffffffffffffffffffffffffffffffffffff168273ffffffffffffffffffffffffffffffffffffffff16847ff6391f5c32d9c69d2a47ea670b442974b53935d1edc7fd64eb21e047a839171b60405160405180910390a460019050612bf9565b5f90505b92915050565b5f60208202602084010151905092915050565b5f60208202602084010151905092915050565b5f73ffffffffffffffffffffffffffffffffffffffff168473ffffffffffffffffffffffffffffffffffffffff1603612c95575f6040517f57f447ce000000000000000000000000000000000000000000000000000000008152600401612c8c9190613d8b565b60405180910390fd5b5f5f612ca18585613258565b91509150612cb25f878484876131ac565b505050505050565b5f73ffffffffffffffffffffffffffffffffffffffff168273ffffffffffffffffffffffffffffffffffffffff1603612d2a575f6040517fced3e100000000000000000000000000000000000000000000000000000000008152600401612d219190613d8b565b60405180910390fd5b8060015f8573ffffffffffffffffffffffffffffffffffffffff1673ffffffffffffffffffffffffffffffffffffffff1681526020019081526020015f205f8473ffffffffffffffffffffffffffffffffffffffff1673ffffffffffffffffffffffffffffffffffffffff1681526020019081526020015f205f6101000a81548160ff0219169083151502179055508173ffffffffffffffffffffffffffffffffffffffff168373ffffffffffffffffffffffffffffffffffffffff167f17307eab39ab6107e8899845ad3d59bd9653f200f220920489ca2b5937696c3183604051612e169190613be0565b60405180910390a3505050565b5f73ffffffffffffffffffffffffffffffffffffffff168473ffffffffffffffffffffffffffffffffffffffff1603612e93575f6040517f57f447ce000000000000000000000000000000000000000000000000000000008152600401612e8a9190613d8b565b60405180910390fd5b5f73ffffffffffffffffffffffffffffffffffffffff168573ffffffffffffffffffffffffffffffffffffffff1603612f03575f6040517f01a83514000000000000000000000000000000000000000000000000000000008152600401612efa9190613d8b565b60405180910390fd5b5f5f612f0f8585613258565b91509150612f2087878484876131ac565b50505050505050565b5f7fd9b67a26000000000000000000000000000000000000000000000000000000007bffffffffffffffffffffffffffffffffffffffffffffffffffffffff1916827bffffffffffffffffffffffffffffffffffffffffffffffffffffffff19161480612ff357507f0e89341c000000000000000000000000000000000000000000000000000000007bffffffffffffffffffffffffffffffffffffffffffffffffffffffff1916827bffffffffffffffffffffffffffffffffffffffffffffffffffffffff1916145b80613003575061300282613288565b5b9050919050565b5f5f5f90507a184f03e93ff9f4daa797ed6e38ed64bf6a1f0100000000000000008310613066577a184f03e93ff9f4daa797ed6e38ed64bf6a1f010000000000000000838161305c5761305b615d28565b5b0492506040810190505b6d04ee2d6d415b85acef810000000083106130a3576d04ee2d6d415b85acef8100000000838161309957613098615d28565b5b0492506020810190505b662386f26fc1000083106130d257662386f26fc1000083816130c8576130c7615d28565b5b0492506010810190505b6305f5e10083106130fb576305f5e10083816130f1576130f0615d28565b5b0492506008810190505b612710831061312057612710838161311657613115615d28565b5b0492506004810190505b60648310613143576064838161313957613138615d28565b5b0492506002810190505b600a8310613152576001810190505b80915050919050565b6131658282611cac565b6131a85780826040517fe2517d3f00000000000000000000000000000000000000000000000000000000815260040161319f929190615d55565b60405180910390fd5b5050565b6131b8858585856132f1565b5f73ffffffffffffffffffffffffffffffffffffffff168473ffffffffffffffffffffffffffffffffffffffff1614613251575f6131f4612930565b90506001845103613240575f6132135f86612c1290919063ffffffff16565b90505f6132295f86612c1290919063ffffffff16565b9050613239838989858589613684565b505061324f565b61324e818787878787613833565b5b505b5050505050565b60608060405191506001825283602083015260408201905060018152826020820152604081016040529250929050565b5f7f01ffc9a7000000000000000000000000000000000000000000000000000000007bffffffffffffffffffffffffffffffffffffffffffffffffffffffff1916827bffffffffffffffffffffffffffffffffffffffffffffffffffffffff1916149050919050565b805182511461333b57815181516040517f5b059991000000000000000000000000000000000000000000000000000000008152600401613332929190615607565b60405180910390fd5b5f613344612930565b90505f5f90505b8351811015613543575f6133688286612c1290919063ffffffff16565b90505f61337e8386612c1290919063ffffffff16565b90505f73ffffffffffffffffffffffffffffffffffffffff168873ffffffffffffffffffffffffffffffffffffffff16146134a1575f5f5f8481526020019081526020015f205f8a73ffffffffffffffffffffffffffffffffffffffff1673ffffffffffffffffffffffffffffffffffffffff1681526020019081526020015f205490508181101561344d57888183856040517f03dee4c50000000000000000000000000000000000000000000000000000000081526004016134449493929190615d7c565b60405180910390fd5b8181035f5f8581526020019081526020015f205f8b73ffffffffffffffffffffffffffffffffffffffff1673ffffffffffffffffffffffffffffffffffffffff1681526020019081526020015f2081905550505b5f73ffffffffffffffffffffffffffffffffffffffff168773ffffffffffffffffffffffffffffffffffffffff161461353657805f5f8481526020019081526020015f205f8973ffffffffffffffffffffffffffffffffffffffff1673ffffffffffffffffffffffffffffffffffffffff1681526020019081526020015f205f82825461352e91906156f0565b925050819055505b505080600101905061334b565b5060018351036135fe575f6135615f85612c1290919063ffffffff16565b90505f6135775f85612c1290919063ffffffff16565b90508573ffffffffffffffffffffffffffffffffffffffff168773ffffffffffffffffffffffffffffffffffffffff168473ffffffffffffffffffffffffffffffffffffffff167fc3d58168c5ae7397731d063d5bbf3d657854427343f4c083240f7aacaa2d0f6285856040516135ef929190615607565b60405180910390a4505061367d565b8373ffffffffffffffffffffffffffffffffffffffff168573ffffffffffffffffffffffffffffffffffffffff168273ffffffffffffffffffffffffffffffffffffffff167f4a39dc06d4c0dbc64b70af90fd698a233a518aa5d07e595d983b8c0526c8f7fb8686604051613674929190615dbf565b60405180910390a45b5050505050565b5f8473ffffffffffffffffffffffffffffffffffffffff163b111561382b578373ffffffffffffffffffffffffffffffffffffffff1663f23a6e6187878686866040518663ffffffff1660e01b81526004016136e4959493929190615e46565b6020604051808303815f875af192505050801561371f57506040513d601f19601f8201168201806040525081019061371c9190615eb2565b60015b6137a0573d805f811461374d576040519150601f19603f3d011682016040523d82523d5f602084013e613752565b606091505b505f81510361379857846040517f57f447ce00000000000000000000000000000000000000000000000000000000815260040161378f9190613d8b565b60405180910390fd5b805181602001fd5b63f23a6e6160e01b7bffffffffffffffffffffffffffffffffffffffffffffffffffffffff1916817bffffffffffffffffffffffffffffffffffffffffffffffffffffffff19161461382957846040517f57f447ce0000000000000000000000000000000000000000000000000000000081526004016138209190613d8b565b60405180910390fd5b505b505050505050565b5f8473ffffffffffffffffffffffffffffffffffffffff163b11156139da578373ffffffffffffffffffffffffffffffffffffffff1663bc197c8187878686866040518663ffffffff1660e01b8152600401613893959493929190615edd565b6020604051808303815f875af19250505080156138ce57506040513d601f19601f820116820180604052508101906138cb9190615eb2565b60015b61394f573d805f81146138fc576040519150601f19603f3d011682016040523d82523d5f602084013e613901565b606091505b505f81510361394757846040517f57f447ce00000000000000000000000000000000000000000000000000000000815260040161393e9190613d8b565b60405180910390fd5b805181602001fd5b63bc197c8160e01b7bffffffffffffffffffffffffffffffffffffffffffffffffffffffff1916817bffffffffffffffffffffffffffffffffffffffffffffffffffffffff1916146139d857846040517f57f447ce0000000000000000000000000000000000000000000000000000000081526004016139cf9190613d8b565b60405180910390fd5b505b505050505050565b604051806101200160405280606081526020015f81526020015f8152602001606081526020016060815260200160608152602001606081526020015f151581526020015f73ffffffffffffffffffffffffffffffffffffffff1681525090565b5f604051905090565b5f5ffd5b5f5ffd5b5f73ffffffffffffffffffffffffffffffffffffffff82169050919050565b5f613a7c82613a53565b9050919050565b613a8c81613a72565b8114613a96575f5ffd5b50565b5f81359050613aa781613a83565b92915050565b5f819050919050565b613abf81613aad565b8114613ac9575f5ffd5b50565b5f81359050613ada81613ab6565b92915050565b5f5f60408385031215613af657613af5613a4b565b5b5f613b0385828601613a99565b9250506020613b1485828601613acc565b9150509250929050565b613b2781613aad565b82525050565b5f602082019050613b405f830184613b1e565b92915050565b5f7fffffffff0000000000000000000000000000000000000000000000000000000082169050919050565b613b7a81613b46565b8114613b84575f5ffd5b50565b5f81359050613b9581613b71565b92915050565b5f60208284031215613bb057613baf613a4b565b5b5f613bbd84828501613b87565b91505092915050565b5f8115159050919050565b613bda81613bc6565b82525050565b5f602082019050613bf35f830184613bd1565b92915050565b5f5ffd5b5f5ffd5b5f601f19601f8301169050919050565b7f4e487b71000000000000000000000000000000000000000000000000000000005f52604160045260245ffd5b613c4782613c01565b810181811067ffffffffffffffff82111715613c6657613c65613c11565b5b80604052505050565b5f613c78613a42565b9050613c848282613c3e565b919050565b5f67ffffffffffffffff821115613ca357613ca2613c11565b5b613cac82613c01565b9050602081019050919050565b828183375f83830152505050565b5f613cd9613cd484613c89565b613c6f565b905082815260208101848484011115613cf557613cf4613bfd565b5b613d00848285613cb9565b509392505050565b5f82601f830112613d1c57613d1b613bf9565b5b8135613d2c848260208601613cc7565b91505092915050565b5f60208284031215613d4a57613d49613a4b565b5b5f82013567ffffffffffffffff811115613d6757613d66613a4f565b5b613d7384828501613d08565b91505092915050565b613d8581613a72565b82525050565b5f602082019050613d9e5f830184613d7c565b92915050565b5f60208284031215613db957613db8613a4b565b5b5f613dc684828501613acc565b91505092915050565b5f81519050919050565b5f82825260208201905092915050565b8281835e5f83830152505050565b5f613e0182613dcf565b613e0b8185613dd9565b9350613e1b818560208601613de9565b613e2481613c01565b840191505092915050565b5f6020820190508181035f830152613e478184613df7565b905092915050565b5f60208284031215613e6457613e63613a4b565b5b5f613e7184828501613a99565b91505092915050565b5f819050919050565b613e8c81613e7a565b8114613e96575f5ffd5b50565b5f81359050613ea781613e83565b92915050565b5f60208284031215613ec257613ec1613a4b565b5b5f613ecf84828501613e99565b91505092915050565b613ee181613e7a565b82525050565b5f602082019050613efa5f830184613ed8565b92915050565b5f67ffffffffffffffff821115613f1a57613f19613c11565b5b602082029050602081019050919050565b5f5ffd5b5f613f41613f3c84613f00565b613c6f565b90508083825260208201905060208402830185811115613f6457613f63613f2b565b5b835b81811015613f8d5780613f798882613acc565b845260208401935050602081019050613f66565b5050509392505050565b5f82601f830112613fab57613faa613bf9565b5b8135613fbb848260208601613f2f565b91505092915050565b5f67ffffffffffffffff821115613fde57613fdd613c11565b5b613fe782613c01565b9050602081019050919050565b5f61400661400184613fc4565b613c6f565b90508281526020810184848401111561402257614021613bfd565b5b61402d848285613cb9565b509392505050565b5f82601f83011261404957614048613bf9565b5b8135614059848260208601613ff4565b91505092915050565b5f5f5f5f5f60a0868803121561407b5761407a613a4b565b5b5f61408888828901613a99565b955050602061409988828901613a99565b945050604086013567ffffffffffffffff8111156140ba576140b9613a4f565b5b6140c688828901613f97565b935050606086013567ffffffffffffffff8111156140e7576140e6613a4f565b5b6140f388828901613f97565b925050608086013567ffffffffffffffff81111561411457614113613a4f565b5b61412088828901614035565b9150509295509295909350565b5f5f6040838503121561414357614142613a4b565b5b5f61415085828601613e99565b925050602061416185828601613a99565b9150509250929050565b5f82825260208201905092915050565b5f61418582613dcf565b61418f818561416b565b935061419f818560208601613de9565b6141a881613c01565b840191505092915050565b6141bc81613aad565b82525050565b6141cb81613bc6565b82525050565b6141da81613a72565b82525050565b5f61012083015f8301518482035f8601526141fb828261417b565b915050602083015161421060208601826141b3565b50604083015161422360408601826141b3565b506060830151848203606086015261423b828261417b565b91505060808301518482036080860152614255828261417b565b91505060a083015184820360a086015261426f828261417b565b91505060c083015184820360c0860152614289828261417b565b91505060e083015161429e60e08601826141c2565b506101008301516142b36101008601826141d1565b508091505092915050565b5f6020820190508181035f8301526142d681846141e0565b905092915050565b5f819050919050565b5f6143016142fc6142f784613a53565b6142de565b613a53565b9050919050565b5f614312826142e7565b9050919050565b5f61432382614308565b9050919050565b61433381614319565b82525050565b5f60208201905061434c5f83018461432a565b92915050565b5f67ffffffffffffffff82111561436c5761436b613c11565b5b602082029050602081019050919050565b5f61438f61438a84614352565b613c6f565b905080838252602082019050602084028301858111156143b2576143b1613f2b565b5b835b818110156143db57806143c78882613a99565b8452602084019350506020810190506143b4565b5050509392505050565b5f82601f8301126143f9576143f8613bf9565b5b813561440984826020860161437d565b91505092915050565b5f5f6040838503121561442857614427613a4b565b5b5f83013567ffffffffffffffff81111561444557614444613a4f565b5b614451858286016143e5565b925050602083013567ffffffffffffffff81111561447257614471613a4f565b5b61447e85828601613f97565b9150509250929050565b5f81519050919050565b5f82825260208201905092915050565b5f819050602082019050919050565b5f6144bc83836141b3565b60208301905092915050565b5f602082019050919050565b5f6144de82614488565b6144e88185614492565b93506144f3836144a2565b805f5b8381101561452357815161450a88826144b1565b9750614515836144c8565b9250506001810190506144f6565b5085935050505092915050565b5f6020820190508181035f83015261454881846144d4565b905092915050565b5f5f5f6060848603121561456757614566613a4b565b5b5f61457486828701613acc565b935050602061458586828701613acc565b925050604061459686828701613a99565b9150509250925092565b6145a981613bc6565b81146145b3575f5ffd5b50565b5f813590506145c4816145a0565b92915050565b5f5f604083850312156145e0576145df613a4b565b5b5f6145ed85828601613a99565b92505060206145fe858286016145b6565b9150509250929050565b5f5f5f5f5f5f60c0878903121561462257614621613a4b565b5b5f87013567ffffffffffffffff81111561463f5761463e613a4f565b5b61464b89828a01613d08565b965050602061465c89828a01613acc565b955050604087013567ffffffffffffffff81111561467d5761467c613a4f565b5b61468989828a01613d08565b945050606087013567ffffffffffffffff8111156146aa576146a9613a4f565b5b6146b689828a01613d08565b935050608087013567ffffffffffffffff8111156146d7576146d6613a4f565b5b6146e389828a01613d08565b92505060a087013567ffffffffffffffff81111561470457614703613a4f565b5b61471089828a01613d08565b9150509295509295509295565b5f5f6040838503121561473357614732613a4b565b5b5f83013567ffffffffffffffff8111156147505761474f613a4f565b5b61475c85828601613d08565b925050602061476d85828601613a99565b9150509250929050565b5f5f6040838503121561478d5761478c613a4b565b5b5f61479a85828601613a99565b92505060206147ab85828601613a99565b9150509250929050565b5f5f5f5f5f60a086880312156147ce576147cd613a4b565b5b5f6147db88828901613a99565b95505060206147ec88828901613a99565b94505060406147fd88828901613acc565b935050606061480e88828901613acc565b925050608086013567ffffffffffffffff81111561482f5761482e613a4f565b5b61483b88828901614035565b9150509295509295909350565b5f610120820190508181035f830152614861818c613df7565b9050614870602083018b613b1e565b61487d604083018a613b1e565b818103606083015261488f8189613df7565b905081810360808301526148a38188613df7565b905081810360a08301526148b78187613df7565b905081810360c08301526148cb8186613df7565b90506148da60e0830185613bd1565b6148e8610100830184613d7c565b9a9950505050505050505050565b5f81905092915050565b5f61490a82613dcf565b61491481856148f6565b9350614924818560208601613de9565b80840191505092915050565b5f61493b8284614900565b915081905092915050565b7f4e487b71000000000000000000000000000000000000000000000000000000005f52602260045260245ffd5b5f600282049050600182168061498a57607f821691505b60208210810361499d5761499c614946565b5b50919050565b7f50726f7065727479206e6f7420666f756e6400000000000000000000000000005f82015250565b5f6149d7601283613dd9565b91506149e2826149a3565b602082019050919050565b5f6020820190508181035f830152614a04816149cb565b9050919050565b7f646174613a6170706c69636174696f6e2f6a736f6e3b757466382c7b000000005f82015250565b5f614a3f601c836148f6565b9150614a4a82614a0b565b601c82019050919050565b7f226e616d65223a220000000000000000000000000000000000000000000000005f82015250565b5f614a896008836148f6565b9150614a9482614a55565b600882019050919050565b7f222c0000000000000000000000000000000000000000000000000000000000005f82015250565b5f614ad36002836148f6565b9150614ade82614a9f565b600282019050919050565b7f226465736372697074696f6e223a224469676974616c2050726f7065727479205f8201527f4365727469666963617465222c00000000000000000000000000000000000000602082015250565b5f614b43602d836148f6565b9150614b4e82614ae9565b602d82019050919050565b7f22696d616765223a22697066733a2f2f000000000000000000000000000000005f82015250565b5f614b8d6010836148f6565b9150614b9882614b59565b601082019050919050565b7f2261747472696275746573223a5b0000000000000000000000000000000000005f82015250565b5f614bd7600e836148f6565b9150614be282614ba3565b600e82019050919050565b7f7b2274726169745f74797065223a2244697374726963742f43697479222c22765f8201527f616c7565223a2200000000000000000000000000000000000000000000000000602082015250565b5f614c476027836148f6565b9150614c5282614bed565b602782019050919050565b7f227d2c00000000000000000000000000000000000000000000000000000000005f82015250565b5f614c916003836148f6565b9150614c9c82614c5d565b600382019050919050565b7f7b2274726169745f74797065223a22546f74616c204c616e642041726561222c5f8201527f2276616c7565223a220000000000000000000000000000000000000000000000602082015250565b5f614d016029836148f6565b9150614d0c82614ca7565b602982019050919050565b7f20737175617265206d6574657273227d2c0000000000000000000000000000005f82015250565b5f614d4b6011836148f6565b9150614d5682614d17565b601182019050919050565b7f7b2274726169745f74797065223a224d696e7465642041726561222c2276616c5f8201527f7565223a22000000000000000000000000000000000000000000000000000000602082015250565b5f614dbb6025836148f6565b9150614dc682614d61565b602582019050919050565b7f7b2274726169745f74797065223a2243657274696669636174652054797065225f8201527f2c2276616c7565223a2200000000000000000000000000000000000000000000602082015250565b5f614e2b602a836148f6565b9150614e3682614dd1565b602a82019050919050565b7f7b2274726169745f74797065223a22566572696669636174696f6e20537461745f8201527f7573222c2276616c7565223a2200000000000000000000000000000000000000602082015250565b5f614e9b602d836148f6565b9150614ea682614e41565b602d82019050919050565b7f7b2274726169745f74797065223a224365727469666963617465204e756d62655f8201527f72222c2276616c7565223a220000000000000000000000000000000000000000602082015250565b5f614f0b602c836148f6565b9150614f1682614eb1565b602c82019050919050565b7f7b2274726169745f74797065223a224175746f20566572696669636174696f6e5f8201527f222c2276616c7565223a22000000000000000000000000000000000000000000602082015250565b5f614f7b602b836148f6565b9150614f8682614f21565b602b82019050919050565b7f227d0000000000000000000000000000000000000000000000000000000000005f82015250565b5f614fc56002836148f6565b9150614fd082614f91565b600282019050919050565b7f5d7d0000000000000000000000000000000000000000000000000000000000005f82015250565b5f61500f6002836148f6565b915061501a82614fdb565b600282019050919050565b5f61502f82614a33565b915061503a82614a7d565b9150615046828c614900565b915061505182614ac7565b915061505c82614b37565b915061506782614b81565b9150615073828b614900565b915061507e82614ac7565b915061508982614bcb565b915061509482614c3b565b91506150a0828a614900565b91506150ab82614c85565b91506150b682614cf5565b91506150c28289614900565b91506150cd82614d3f565b91506150d882614daf565b91506150e48288614900565b91506150ef82614d3f565b91506150fa82614e1f565b91506151068287614900565b915061511182614c85565b915061511c82614e8f565b91506151288286614900565b915061513382614c85565b915061513e82614eff565b915061514a8285614900565b915061515582614c85565b915061516082614f6f565b915061516c8284614900565b915061517782614fb9565b915061518282615003565b91508190509a9950505050505050505050565b5f815190506151a381613ab6565b92915050565b5f602082840312156151be576151bd613a4b565b5b5f6151cb84828501615195565b91505092915050565b7f4e6f2062616c616e636520746f207769746864726177000000000000000000005f82015250565b5f615208601683613dd9565b9150615213826151d4565b602082019050919050565b5f6020820190508181035f830152615235816151fc565b9050919050565b5f60408201905061524f5f830185613d7c565b61525c6020830184613b1e565b9392505050565b5f81519050615271816145a0565b92915050565b5f6020828403121561528c5761528b613a4b565b5b5f61529984828501615263565b91505092915050565b7f5665726966696572206e6f7420666f756e6400000000000000000000000000005f82015250565b5f6152d6601283613dd9565b91506152e1826152a2565b602082019050919050565b5f6020820190508181035f830152615303816152ca565b9050919050565b5f60408201905061531d5f830185613d7c565b61532a6020830184613d7c565b9392505050565b7f4175746f20766572696669636174696f6e20656e61626c6564000000000000005f82015250565b5f615365601983613dd9565b915061537082615331565b602082019050919050565b5f6020820190508181035f83015261539281615359565b9050919050565b7f50726f7065727479206e6f7420726567697374657265640000000000000000005f82015250565b5f6153cd601783613dd9565b91506153d882615399565b602082019050919050565b5f6020820190508181035f8301526153fa816153c1565b9050919050565b7f416c7265616479207665726966696564000000000000000000000000000000005f82015250565b5f615435601083613dd9565b915061544082615401565b602082019050919050565b5f6020820190508181035f83015261546281615429565b9050919050565b7f4e6f7420616c6c206c616e642061726561206d696e74656400000000000000005f82015250565b5f61549d601883613dd9565b91506154a882615469565b602082019050919050565b5f6020820190508181035f8301526154ca81615491565b9050919050565b5f819050815f5260205f209050919050565b5f81546154ef81614973565b6154f981866148f6565b9450600182165f811461551357600181146155285761555a565b60ff198316865281151582028601935061555a565b615531856154d1565b5f5b8381101561555257815481890152600182019150602081019050615533565b838801955050505b50505092915050565b5f61556e82846154e3565b915081905092915050565b7f4f6e6c792064657369676e6174656420646973747269637420766572696669655f8201527f7200000000000000000000000000000000000000000000000000000000000000602082015250565b5f6155d3602183613dd9565b91506155de82615579565b604082019050919050565b5f6020820190508181035f830152615600816155c7565b9050919050565b5f60408201905061561a5f830185613b1e565b6156276020830184613b1e565b9392505050565b7f4e487b71000000000000000000000000000000000000000000000000000000005f52603260045260245ffd5b7f50726f706572747920616c7265616479207665726966696564000000000000005f82015250565b5f61568f601983613dd9565b915061569a8261565b565b602082019050919050565b5f6020820190508181035f8301526156bc81615683565b9050919050565b7f4e487b71000000000000000000000000000000000000000000000000000000005f52601160045260245ffd5b5f6156fa82613aad565b915061570583613aad565b925082820190508082111561571d5761571c6156c3565b5b92915050565b7f4578636565647320746f74616c206c616e6420617265610000000000000000005f82015250565b5f615757601783613dd9565b915061576282615723565b602082019050919050565b5f6020820190508181035f8301526157848161574b565b9050919050565b5f61579582613aad565b91506157a083613aad565b92508282026157ae81613aad565b915082820484148315176157c5576157c46156c3565b5b5092915050565b5f6060820190506157df5f830186613d7c565b6157ec6020830185613d7c565b6157f96040830184613b1e565b949350505050565b7f5061796d656e74206661696c65640000000000000000000000000000000000005f82015250565b5f615835600e83613dd9565b915061584082615801565b602082019050919050565b5f6020820190508181035f83015261586281615829565b9050919050565b7f4c616e642061726561206d75737420626520706f7369746976650000000000005f82015250565b5f61589d601a83613dd9565b91506158a882615869565b602082019050919050565b5f6020820190508181035f8301526158ca81615891565b9050919050565b7f4365727469666963617465206e756d62657220616c72656164792075736564005f82015250565b5f615905601f83613dd9565b9150615910826158d1565b602082019050919050565b5f6020820190508181035f830152615932816158f9565b9050919050565b7f4469737472696374207665726966696572206e6f7420736574000000000000005f82015250565b5f61596d601983613dd9565b915061597882615939565b602082019050919050565b5f6020820190508181035f83015261599a81615961565b9050919050565b5f6020601f8301049050919050565b5f82821b905092915050565b5f600883026159eb7fffffffffffffffffffffffffffffffffffffffffffffffffffffffffffffffff826159b0565b6159f586836159b0565b95508019841693508086168417925050509392505050565b5f615a27615a22615a1d84613aad565b6142de565b613aad565b9050919050565b5f819050919050565b615a4083615a0d565b615a54615a4c82615a2e565b8484546159bc565b825550505050565b5f5f905090565b615a6b615a5c565b615a76818484615a37565b505050565b5b81811015615a9957615a8e5f82615a63565b600181019050615a7c565b5050565b601f821115615ade57615aaf816154d1565b615ab8846159a1565b81016020851015615ac7578190505b615adb615ad3856159a1565b830182615a7b565b50505b505050565b5f82821c905092915050565b5f615afe5f1984600802615ae3565b1980831691505092915050565b5f615b168383615aef565b9150826002028217905092915050565b615b2f82613dcf565b67ffffffffffffffff811115615b4857615b47613c11565b5b615b528254614973565b615b5d828285615a9d565b5f60209050601f831160018114615b8e575f8415615b7c578287015190505b615b868582615b0b565b865550615bed565b601f198416615b9c866154d1565b5f5b82811015615bc357848901518255600182019150602085019450602081019050615b9e565b86831015615be05784890151615bdc601f891682615aef565b8355505b6001600288020188555050505b505050505050565b5f6040820190508181035f830152615c0d8185613df7565b90508181036020830152615c218184613df7565b90509392505050565b7f496e76616c6964207665726966696572206164647265737300000000000000005f82015250565b5f615c5e601883613dd9565b9150615c6982615c2a565b602082019050919050565b5f6020820190508181035f830152615c8b81615c52565b9050919050565b7f566572696669657220616c7265616479206578697374730000000000000000005f82015250565b5f615cc6601783613dd9565b9150615cd182615c92565b602082019050919050565b5f6020820190508181035f830152615cf381615cba565b9050919050565b5f6040820190508181035f830152615d128185613df7565b9050615d216020830184613d7c565b9392505050565b7f4e487b71000000000000000000000000000000000000000000000000000000005f52601260045260245ffd5b5f604082019050615d685f830185613d7c565b615d756020830184613ed8565b9392505050565b5f608082019050615d8f5f830187613d7c565b615d9c6020830186613b1e565b615da96040830185613b1e565b615db66060830184613b1e565b95945050505050565b5f6040820190508181035f830152615dd781856144d4565b90508181036020830152615deb81846144d4565b90509392505050565b5f81519050919050565b5f82825260208201905092915050565b5f615e1882615df4565b615e228185615dfe565b9350615e32818560208601613de9565b615e3b81613c01565b840191505092915050565b5f60a082019050615e595f830188613d7c565b615e666020830187613d7c565b615e736040830186613b1e565b615e806060830185613b1e565b8181036080830152615e928184615e0e565b90509695505050505050565b5f81519050615eac81613b71565b92915050565b5f60208284031215615ec757615ec6613a4b565b5b5f615ed484828501615e9e565b91505092915050565b5f60a082019050615ef05f830188613d7c565b615efd6020830187613d7c565b8181036040830152615f0f81866144d4565b90508181036060830152615f2381856144d4565b90508181036080830152615f378184615e0e565b9050969550505050505056fea2646970667358221220205731457fa47c9b8e41ed59ceb258d1357a66d24761697f378c4199afaf211d64736f6c634300081e003368747470733a2f2f6170692e70726f70657274792d6e66742e636f6d2f6d657461646174612f7b69647d2e6a736f6e",
			"opcodes": "PUSH1 0xA0 PUSH1 0x40 MSTORE PUSH0 PUSH1 0x8 PUSH0 PUSH2 0x100 EXP DUP2 SLOAD DUP2 PUSH1 0xFF MUL NOT AND SWAP1 DUP4 ISZERO ISZERO MUL OR SWAP1 SSTORE POP CALLVALUE DUP1 ISZERO PUSH2 0x28 JUMPI PUSH0 PUSH0 REVERT JUMPDEST POP PUSH1 0x40 MLOAD PUSH2 0x6717 CODESIZE SUB DUP1 PUSH2 0x6717 DUP4 CODECOPY DUP2 DUP2 ADD PUSH1 0x40 MSTORE DUP2 ADD SWAP1 PUSH2 0x4A SWAP2 SWAP1 PUSH2 0x393 JUMP JUMPDEST PUSH1 0x40 MLOAD DUP1 PUSH1 0x60 ADD PUSH1 0x40 MSTORE DUP1 PUSH1 0x2F DUP2 MSTORE PUSH1 0x20 ADD PUSH2 0x66E8 PUSH1 0x2F SWAP2 CODECOPY PUSH2 0x72 DUP2 PUSH2 0x1C1 PUSH1 0x20 SHL PUSH1 0x20 SHR JUMP JUMPDEST POP PUSH0 PUSH20 0xFFFFFFFFFFFFFFFFFFFFFFFFFFFFFFFFFFFFFFFF AND DUP2 PUSH20 0xFFFFFFFFFFFFFFFFFFFFFFFFFFFFFFFFFFFFFFFF AND SUB PUSH2 0xE1 JUMPI PUSH1 0x40 MLOAD PUSH32 0x8C379A000000000000000000000000000000000000000000000000000000000 DUP2 MSTORE PUSH1 0x4 ADD PUSH2 0xD8 SWAP1 PUSH2 0x418 JUMP JUMPDEST PUSH1 0x40 MLOAD DUP1 SWAP2 SUB SWAP1 REVERT JUMPDEST DUP1 PUSH20 0xFFFFFFFFFFFFFFFFFFFFFFFFFFFFFFFFFFFFFFFF AND PUSH1 0x80 DUP2 PUSH20 0xFFFFFFFFFFFFFFFFFFFFFFFFFFFFFFFFFFFFFFFF AND DUP2 MSTORE POP POP PUSH2 0x127 PUSH0 PUSH0 SHL CALLER PUSH2 0x1D4 PUSH1 0x20 SHL PUSH1 0x20 SHR JUMP JUMPDEST POP PUSH2 0x158 PUSH32 0xDB280AA9D0AD630B4F4BDBA2EBC3FB77A4F5A9F682E532996A7908B449BD1E26 CALLER PUSH2 0x1D4 PUSH1 0x20 SHL PUSH1 0x20 SHR JUMP JUMPDEST POP PUSH2 0x189 PUSH32 0xA1496C3ABF9CD93B84DB10AE569B57FAFA04DEEEB7ECE4167616AD50E35BC56E CALLER PUSH2 0x1D4 PUSH1 0x20 SHL PUSH1 0x20 SHR JUMP JUMPDEST POP PUSH2 0x1BA PUSH32 0xCC2F8959DB5AA7145F7501EAEC600C5DFB2790E04849110B57AF9E144057487B CALLER PUSH2 0x1D4 PUSH1 0x20 SHL PUSH1 0x20 SHR JUMP JUMPDEST POP POP PUSH2 0x742 JUMP JUMPDEST DUP1 PUSH1 0x2 SWAP1 DUP2 PUSH2 0x1D0 SWAP2 SWAP1 PUSH2 0x673 JUMP JUMPDEST POP POP JUMP JUMPDEST PUSH0 PUSH2 0x1E5 DUP4 DUP4 PUSH2 0x2CA PUSH1 0x20 SHL PUSH1 0x20 SHR JUMP JUMPDEST PUSH2 0x2C0 JUMPI PUSH1 0x1 PUSH1 0x3 PUSH0 DUP6 DUP2 MSTORE PUSH1 0x20 ADD SWAP1 DUP2 MSTORE PUSH1 0x20 ADD PUSH0 KECCAK256 PUSH0 ADD PUSH0 DUP5 PUSH20 0xFFFFFFFFFFFFFFFFFFFFFFFFFFFFFFFFFFFFFFFF AND PUSH20 0xFFFFFFFFFFFFFFFFFFFFFFFFFFFFFFFFFFFFFFFF AND DUP2 MSTORE PUSH1 0x20 ADD SWAP1 DUP2 MSTORE PUSH1 0x20 ADD PUSH0 KECCAK256 PUSH0 PUSH2 0x100 EXP DUP2 SLOAD DUP2 PUSH1 0xFF MUL NOT AND SWAP1 DUP4 ISZERO ISZERO MUL OR SWAP1 SSTORE POP PUSH2 0x25D PUSH2 0x32E PUSH1 0x20 SHL PUSH1 0x20 SHR JUMP JUMPDEST PUSH20 0xFFFFFFFFFFFFFFFFFFFFFFFFFFFFFFFFFFFFFFFF AND DUP3 PUSH20 0xFFFFFFFFFFFFFFFFFFFFFFFFFFFFFFFFFFFFFFFF AND DUP5 PUSH32 0x2F8788117E7EFF1D82E926EC794901D17C78024A50270940304540A733656F0D PUSH1 0x40 MLOAD PUSH1 0x40 MLOAD DUP1 SWAP2 SUB SWAP1 LOG4 PUSH1 0x1 SWAP1 POP PUSH2 0x2C4 JUMP JUMPDEST PUSH0 SWAP1 POP JUMPDEST SWAP3 SWAP2 POP POP JUMP JUMPDEST PUSH0 PUSH1 0x3 PUSH0 DUP5 DUP2 MSTORE PUSH1 0x20 ADD SWAP1 DUP2 MSTORE PUSH1 0x20 ADD PUSH0 KECCAK256 PUSH0 ADD PUSH0 DUP4 PUSH20 0xFFFFFFFFFFFFFFFFFFFFFFFFFFFFFFFFFFFFFFFF AND PUSH20 0xFFFFFFFFFFFFFFFFFFFFFFFFFFFFFFFFFFFFFFFF AND DUP2 MSTORE PUSH1 0x20 ADD SWAP1 DUP2 MSTORE PUSH1 0x20 ADD PUSH0 KECCAK256 PUSH0 SWAP1 SLOAD SWAP1 PUSH2 0x100 EXP SWAP1 DIV PUSH1 0xFF AND SWAP1 POP SWAP3 SWAP2 POP POP JUMP JUMPDEST PUSH0 CALLER SWAP1 POP SWAP1 JUMP JUMPDEST PUSH0 PUSH0 REVERT JUMPDEST PUSH0 PUSH20 0xFFFFFFFFFFFFFFFFFFFFFFFFFFFFFFFFFFFFFFFF DUP3 AND SWAP1 POP SWAP2 SWAP1 POP JUMP JUMPDEST PUSH0 PUSH2 0x362 DUP3 PUSH2 0x339 JUMP JUMPDEST SWAP1 POP SWAP2 SWAP1 POP JUMP JUMPDEST PUSH2 0x372 DUP2 PUSH2 0x358 JUMP JUMPDEST DUP2 EQ PUSH2 0x37C JUMPI PUSH0 PUSH0 REVERT JUMPDEST POP JUMP JUMPDEST PUSH0 DUP2 MLOAD SWAP1 POP PUSH2 0x38D DUP2 PUSH2 0x369 JUMP JUMPDEST SWAP3 SWAP2 POP POP JUMP JUMPDEST PUSH0 PUSH1 0x20 DUP3 DUP5 SUB SLT ISZERO PUSH2 0x3A8 JUMPI PUSH2 0x3A7 PUSH2 0x335 JUMP JUMPDEST JUMPDEST PUSH0 PUSH2 0x3B5 DUP5 DUP3 DUP6 ADD PUSH2 0x37F JUMP JUMPDEST SWAP2 POP POP SWAP3 SWAP2 POP POP JUMP JUMPDEST PUSH0 DUP3 DUP3 MSTORE PUSH1 0x20 DUP3 ADD SWAP1 POP SWAP3 SWAP2 POP POP JUMP JUMPDEST PUSH32 0x496E76616C696420746F6B656E20616464726573730000000000000000000000 PUSH0 DUP3 ADD MSTORE POP JUMP JUMPDEST PUSH0 PUSH2 0x402 PUSH1 0x15 DUP4 PUSH2 0x3BE JUMP JUMPDEST SWAP2 POP PUSH2 0x40D DUP3 PUSH2 0x3CE JUMP JUMPDEST PUSH1 0x20 DUP3 ADD SWAP1 POP SWAP2 SWAP1 POP JUMP JUMPDEST PUSH0 PUSH1 0x20 DUP3 ADD SWAP1 POP DUP2 DUP2 SUB PUSH0 DUP4 ADD MSTORE PUSH2 0x42F DUP2 PUSH2 0x3F6 JUMP JUMPDEST SWAP1 POP SWAP2 SWAP1 POP JUMP JUMPDEST PUSH0 DUP2 MLOAD SWAP1 POP SWAP2 SWAP1 POP JUMP JUMPDEST PUSH32 0x4E487B7100000000000000000000000000000000000000000000000000000000 PUSH0 MSTORE PUSH1 0x41 PUSH1 0x4 MSTORE PUSH1 0x24 PUSH0 REVERT JUMPDEST PUSH32 0x4E487B7100000000000000000000000000000000000000000000000000000000 PUSH0 MSTORE PUSH1 0x22 PUSH1 0x4 MSTORE PUSH1 0x24 PUSH0 REVERT JUMPDEST PUSH0 PUSH1 0x2 DUP3 DIV SWAP1 POP PUSH1 0x1 DUP3 AND DUP1 PUSH2 0x4B1 JUMPI PUSH1 0x7F DUP3 AND SWAP2 POP JUMPDEST PUSH1 0x20 DUP3 LT DUP2 SUB PUSH2 0x4C4 JUMPI PUSH2 0x4C3 PUSH2 0x46D JUMP JUMPDEST JUMPDEST POP SWAP2 SWAP1 POP JUMP JUMPDEST PUSH0 DUP2 SWAP1 POP DUP2 PUSH0 MSTORE PUSH1 0x20 PUSH0 KECCAK256 SWAP1 POP SWAP2 SWAP1 POP JUMP JUMPDEST PUSH0 PUSH1 0x20 PUSH1 0x1F DUP4 ADD DIV SWAP1 POP SWAP2 SWAP1 POP JUMP JUMPDEST PUSH0 DUP3 DUP3 SHL SWAP1 POP SWAP3 SWAP2 POP POP JUMP JUMPDEST PUSH0 PUSH1 0x8 DUP4 MUL PUSH2 0x526 PUSH32 0xFFFFFFFFFFFFFFFFFFFFFFFFFFFFFFFFFFFFFFFFFFFFFFFFFFFFFFFFFFFFFFFF DUP3 PUSH2 0x4EB JUMP JUMPDEST PUSH2 0x530 DUP7 DUP4 PUSH2 0x4EB JUMP JUMPDEST SWAP6 POP DUP1 NOT DUP5 AND SWAP4 POP DUP1 DUP7 AND DUP5 OR SWAP3 POP POP POP SWAP4 SWAP3 POP POP POP JUMP JUMPDEST PUSH0 DUP2 SWAP1 POP SWAP2 SWAP1 POP JUMP JUMPDEST PUSH0 DUP2 SWAP1 POP SWAP2 SWAP1 POP JUMP JUMPDEST PUSH0 PUSH2 0x574 PUSH2 0x56F PUSH2 0x56A DUP5 PUSH2 0x548 JUMP JUMPDEST PUSH2 0x551 JUMP JUMPDEST PUSH2 0x548 JUMP JUMPDEST SWAP1 POP SWAP2 SWAP1 POP JUMP JUMPDEST PUSH0 DUP2 SWAP1 POP SWAP2 SWAP1 POP JUMP JUMPDEST PUSH2 0x58D DUP4 PUSH2 0x55A JUMP JUMPDEST PUSH2 0x5A1 PUSH2 0x599 DUP3 PUSH2 0x57B JUMP JUMPDEST DUP5 DUP5 SLOAD PUSH2 0x4F7 JUMP JUMPDEST DUP3 SSTORE POP POP POP POP JUMP JUMPDEST PUSH0 PUSH0 SWAP1 POP SWAP1 JUMP JUMPDEST PUSH2 0x5B8 PUSH2 0x5A9 JUMP JUMPDEST PUSH2 0x5C3 DUP2 DUP5 DUP5 PUSH2 0x584 JUMP JUMPDEST POP POP POP JUMP JUMPDEST JUMPDEST DUP2 DUP2 LT ISZERO PUSH2 0x5E6 JUMPI PUSH2 0x5DB PUSH0 DUP3 PUSH2 0x5B0 JUMP JUMPDEST PUSH1 0x1 DUP2 ADD SWAP1 POP PUSH2 0x5C9 JUMP JUMPDEST POP POP JUMP JUMPDEST PUSH1 0x1F DUP3 GT ISZERO PUSH2 0x62B JUMPI PUSH2 0x5FC DUP2 PUSH2 0x4CA JUMP JUMPDEST PUSH2 0x605 DUP5 PUSH2 0x4DC JUMP JUMPDEST DUP2 ADD PUSH1 0x20 DUP6 LT ISZERO PUSH2 0x614 JUMPI DUP2 SWAP1 POP JUMPDEST PUSH2 0x628 PUSH2 0x620 DUP6 PUSH2 0x4DC JUMP JUMPDEST DUP4 ADD DUP3 PUSH2 0x5C8 JUMP JUMPDEST POP POP JUMPDEST POP POP POP JUMP JUMPDEST PUSH0 DUP3 DUP3 SHR SWAP1 POP SWAP3 SWAP2 POP POP JUMP JUMPDEST PUSH0 PUSH2 0x64B PUSH0 NOT DUP5 PUSH1 0x8 MUL PUSH2 0x630 JUMP JUMPDEST NOT DUP1 DUP4 AND SWAP2 POP POP SWAP3 SWAP2 POP POP JUMP JUMPDEST PUSH0 PUSH2 0x663 DUP4 DUP4 PUSH2 0x63C JUMP JUMPDEST SWAP2 POP DUP3 PUSH1 0x2 MUL DUP3 OR SWAP1 POP SWAP3 SWAP2 POP POP JUMP JUMPDEST PUSH2 0x67C DUP3 PUSH2 0x436 JUMP JUMPDEST PUSH8 0xFFFFFFFFFFFFFFFF DUP2 GT ISZERO PUSH2 0x695 JUMPI PUSH2 0x694 PUSH2 0x440 JUMP JUMPDEST JUMPDEST PUSH2 0x69F DUP3 SLOAD PUSH2 0x49A JUMP JUMPDEST PUSH2 0x6AA DUP3 DUP3 DUP6 PUSH2 0x5EA JUMP JUMPDEST PUSH0 PUSH1 0x20 SWAP1 POP PUSH1 0x1F DUP4 GT PUSH1 0x1 DUP2 EQ PUSH2 0x6DB JUMPI PUSH0 DUP5 ISZERO PUSH2 0x6C9 JUMPI DUP3 DUP8 ADD MLOAD SWAP1 POP JUMPDEST PUSH2 0x6D3 DUP6 DUP3 PUSH2 0x658 JUMP JUMPDEST DUP7 SSTORE POP PUSH2 0x73A JUMP JUMPDEST PUSH1 0x1F NOT DUP5 AND PUSH2 0x6E9 DUP7 PUSH2 0x4CA JUMP JUMPDEST PUSH0 JUMPDEST DUP3 DUP2 LT ISZERO PUSH2 0x710 JUMPI DUP5 DUP10 ADD MLOAD DUP3 SSTORE PUSH1 0x1 DUP3 ADD SWAP2 POP PUSH1 0x20 DUP6 ADD SWAP5 POP PUSH1 0x20 DUP2 ADD SWAP1 POP PUSH2 0x6EB JUMP JUMPDEST DUP7 DUP4 LT ISZERO PUSH2 0x72D JUMPI DUP5 DUP10 ADD MLOAD PUSH2 0x729 PUSH1 0x1F DUP10 AND DUP3 PUSH2 0x63C JUMP JUMPDEST DUP4 SSTORE POP JUMPDEST PUSH1 0x1 PUSH1 0x2 DUP9 MUL ADD DUP9 SSTORE POP POP POP JUMPDEST POP POP POP POP POP POP JUMP JUMPDEST PUSH1 0x80 MLOAD PUSH2 0x5F79 PUSH2 0x76F PUSH0 CODECOPY PUSH0 DUP2 DUP2 PUSH2 0xD2E ADD MSTORE DUP2 DUP2 PUSH2 0xE0A ADD MSTORE DUP2 DUP2 PUSH2 0x17AB ADD MSTORE PUSH2 0x1AC0 ADD MSTORE PUSH2 0x5F79 PUSH0 RETURN INVALID PUSH1 0x80 PUSH1 0x40 MSTORE CALLVALUE DUP1 ISZERO PUSH2 0xF JUMPI PUSH0 PUSH0 REVERT JUMPDEST POP PUSH1 0x4 CALLDATASIZE LT PUSH2 0x1ED JUMPI PUSH0 CALLDATALOAD PUSH1 0xE0 SHR DUP1 PUSH4 0x4E1273F4 GT PUSH2 0x10D JUMPI DUP1 PUSH4 0xA71228FA GT PUSH2 0xA0 JUMPI DUP1 PUSH4 0xE985E9C5 GT PUSH2 0x6F JUMPI DUP1 PUSH4 0xE985E9C5 EQ PUSH2 0x5C5 JUMPI DUP1 PUSH4 0xF242432A EQ PUSH2 0x5F5 JUMPI DUP1 PUSH4 0xF7B10808 EQ PUSH2 0x611 JUMPI DUP1 PUSH4 0xFD8C8BAD EQ PUSH2 0x649 JUMPI PUSH2 0x1ED JUMP JUMPDEST DUP1 PUSH4 0xA71228FA EQ PUSH2 0x53F JUMPI DUP1 PUSH4 0xD0C8A695 EQ PUSH2 0x56F JUMPI DUP1 PUSH4 0xD547741F EQ PUSH2 0x58B JUMPI DUP1 PUSH4 0xD70AFA96 EQ PUSH2 0x5A7 JUMPI PUSH2 0x1ED JUMP JUMPDEST DUP1 PUSH4 0x91D14854 GT PUSH2 0xDC JUMPI DUP1 PUSH4 0x91D14854 EQ PUSH2 0x4B7 JUMPI DUP1 PUSH4 0x9F737E0D EQ PUSH2 0x4E7 JUMPI DUP1 PUSH4 0xA217FDDF EQ PUSH2 0x505 JUMPI DUP1 PUSH4 0xA22CB465 EQ PUSH2 0x523 JUMPI PUSH2 0x1ED JUMP JUMPDEST DUP1 PUSH4 0x4E1273F4 EQ PUSH2 0x41D JUMPI DUP1 PUSH4 0x7B8D9DD8 EQ PUSH2 0x44D JUMPI DUP1 PUSH4 0x7EA7DDA0 EQ PUSH2 0x46B JUMPI DUP1 PUSH4 0x877D11C2 EQ PUSH2 0x49B JUMPI PUSH2 0x1ED JUMP JUMPDEST DUP1 PUSH4 0x266E7C95 GT PUSH2 0x185 JUMPI DUP1 PUSH4 0x40F0A055 GT PUSH2 0x154 JUMPI DUP1 PUSH4 0x40F0A055 EQ PUSH2 0x395 JUMPI DUP1 PUSH4 0x4212A8AE EQ PUSH2 0x3C5 JUMPI DUP1 PUSH4 0x4425F05A EQ PUSH2 0x3E1 JUMPI DUP1 PUSH4 0x4A213805 EQ PUSH2 0x3FF JUMPI PUSH2 0x1ED JUMP JUMPDEST DUP1 PUSH4 0x266E7C95 EQ PUSH2 0x325 JUMPI DUP1 PUSH4 0x2EB2C2D6 EQ PUSH2 0x341 JUMPI DUP1 PUSH4 0x2F2FF15D EQ PUSH2 0x35D JUMPI DUP1 PUSH4 0x36568ABE EQ PUSH2 0x379 JUMPI PUSH2 0x1ED JUMP JUMPDEST DUP1 PUSH4 0xE9B4C0B GT PUSH2 0x1C1 JUMPI DUP1 PUSH4 0xE9B4C0B EQ PUSH2 0x2B1 JUMPI DUP1 PUSH4 0xEA80E67 EQ PUSH2 0x2BB JUMPI DUP1 PUSH4 0x164E68DE EQ PUSH2 0x2D9 JUMPI DUP1 PUSH4 0x248A9CA3 EQ PUSH2 0x2F5 JUMPI PUSH2 0x1ED JUMP JUMPDEST DUP1 PUSH3 0xFDD58E EQ PUSH2 0x1F1 JUMPI DUP1 PUSH4 0x1FFC9A7 EQ PUSH2 0x221 JUMPI DUP1 PUSH4 0xD360E2C EQ PUSH2 0x251 JUMPI DUP1 PUSH4 0xE89341C EQ PUSH2 0x281 JUMPI JUMPDEST PUSH0 PUSH0 REVERT JUMPDEST PUSH2 0x20B PUSH1 0x4 DUP1 CALLDATASIZE SUB DUP2 ADD SWAP1 PUSH2 0x206 SWAP2 SWAP1 PUSH2 0x3AE0 JUMP JUMPDEST PUSH2 0x679 JUMP JUMPDEST PUSH1 0x40 MLOAD PUSH2 0x218 SWAP2 SWAP1 PUSH2 0x3B2D JUMP JUMPDEST PUSH1 0x40 MLOAD DUP1 SWAP2 SUB SWAP1 RETURN JUMPDEST PUSH2 0x23B PUSH1 0x4 DUP1 CALLDATASIZE SUB DUP2 ADD SWAP1 PUSH2 0x236 SWAP2 SWAP1 PUSH2 0x3B9B JUMP JUMPDEST PUSH2 0x6CE JUMP JUMPDEST PUSH1 0x40 MLOAD PUSH2 0x248 SWAP2 SWAP1 PUSH2 0x3BE0 JUMP JUMPDEST PUSH1 0x40 MLOAD DUP1 SWAP2 SUB SWAP1 RETURN JUMPDEST PUSH2 0x26B PUSH1 0x4 DUP1 CALLDATASIZE SUB DUP2 ADD SWAP1 PUSH2 0x266 SWAP2 SWAP1 PUSH2 0x3D35 JUMP JUMPDEST PUSH2 0x6DF JUMP JUMPDEST PUSH1 0x40 MLOAD PUSH2 0x278 SWAP2 SWAP1 PUSH2 0x3D8B JUMP JUMPDEST PUSH1 0x40 MLOAD DUP1 SWAP2 SUB SWAP1 RETURN JUMPDEST PUSH2 0x29B PUSH1 0x4 DUP1 CALLDATASIZE SUB DUP2 ADD SWAP1 PUSH2 0x296 SWAP2 SWAP1 PUSH2 0x3DA4 JUMP JUMPDEST PUSH2 0x725 JUMP JUMPDEST PUSH1 0x40 MLOAD PUSH2 0x2A8 SWAP2 SWAP1 PUSH2 0x3E2F JUMP JUMPDEST PUSH1 0x40 MLOAD DUP1 SWAP2 SUB SWAP1 RETURN JUMPDEST PUSH2 0x2B9 PUSH2 0xC78 JUMP JUMPDEST STOP JUMPDEST PUSH2 0x2C3 PUSH2 0xD12 JUMP JUMPDEST PUSH1 0x40 MLOAD PUSH2 0x2D0 SWAP2 SWAP1 PUSH2 0x3B2D JUMP JUMPDEST PUSH1 0x40 MLOAD DUP1 SWAP2 SUB SWAP1 RETURN JUMPDEST PUSH2 0x2F3 PUSH1 0x4 DUP1 CALLDATASIZE SUB DUP2 ADD SWAP1 PUSH2 0x2EE SWAP2 SWAP1 PUSH2 0x3E4F JUMP JUMPDEST PUSH2 0xD1F JUMP JUMPDEST STOP JUMPDEST PUSH2 0x30F PUSH1 0x4 DUP1 CALLDATASIZE SUB DUP2 ADD SWAP1 PUSH2 0x30A SWAP2 SWAP1 PUSH2 0x3EAD JUMP JUMPDEST PUSH2 0xEA9 JUMP JUMPDEST PUSH1 0x40 MLOAD PUSH2 0x31C SWAP2 SWAP1 PUSH2 0x3EE7 JUMP JUMPDEST PUSH1 0x40 MLOAD DUP1 SWAP2 SUB SWAP1 RETURN JUMPDEST PUSH2 0x33F PUSH1 0x4 DUP1 CALLDATASIZE SUB DUP2 ADD SWAP1 PUSH2 0x33A SWAP2 SWAP1 PUSH2 0x3D35 JUMP JUMPDEST PUSH2 0xEC6 JUMP JUMPDEST STOP JUMPDEST PUSH2 0x35B PUSH1 0x4 DUP1 CALLDATASIZE SUB DUP2 ADD SWAP1 PUSH2 0x356 SWAP2 SWAP1 PUSH2 0x4062 JUMP JUMPDEST PUSH2 0x1032 JUMP JUMPDEST STOP JUMPDEST PUSH2 0x377 PUSH1 0x4 DUP1 CALLDATASIZE SUB DUP2 ADD SWAP1 PUSH2 0x372 SWAP2 SWAP1 PUSH2 0x412D JUMP JUMPDEST PUSH2 0x10D9 JUMP JUMPDEST STOP JUMPDEST PUSH2 0x393 PUSH1 0x4 DUP1 CALLDATASIZE SUB DUP2 ADD SWAP1 PUSH2 0x38E SWAP2 SWAP1 PUSH2 0x412D JUMP JUMPDEST PUSH2 0x10FB JUMP JUMPDEST STOP JUMPDEST PUSH2 0x3AF PUSH1 0x4 DUP1 CALLDATASIZE SUB DUP2 ADD SWAP1 PUSH2 0x3AA SWAP2 SWAP1 PUSH2 0x3DA4 JUMP JUMPDEST PUSH2 0x1176 JUMP JUMPDEST PUSH1 0x40 MLOAD PUSH2 0x3BC SWAP2 SWAP1 PUSH2 0x42BE JUMP JUMPDEST PUSH1 0x40 MLOAD DUP1 SWAP2 SUB SWAP1 RETURN JUMPDEST PUSH2 0x3DF PUSH1 0x4 DUP1 CALLDATASIZE SUB DUP2 ADD SWAP1 PUSH2 0x3DA SWAP2 SWAP1 PUSH2 0x3DA4 JUMP JUMPDEST PUSH2 0x14F5 JUMP JUMPDEST STOP JUMPDEST PUSH2 0x3E9 PUSH2 0x1797 JUMP JUMPDEST PUSH1 0x40 MLOAD PUSH2 0x3F6 SWAP2 SWAP1 PUSH2 0x3BE0 JUMP JUMPDEST PUSH1 0x40 MLOAD DUP1 SWAP2 SUB SWAP1 RETURN JUMPDEST PUSH2 0x407 PUSH2 0x17A9 JUMP JUMPDEST PUSH1 0x40 MLOAD PUSH2 0x414 SWAP2 SWAP1 PUSH2 0x4339 JUMP JUMPDEST PUSH1 0x40 MLOAD DUP1 SWAP2 SUB SWAP1 RETURN JUMPDEST PUSH2 0x437 PUSH1 0x4 DUP1 CALLDATASIZE SUB DUP2 ADD SWAP1 PUSH2 0x432 SWAP2 SWAP1 PUSH2 0x4412 JUMP JUMPDEST PUSH2 0x17CD JUMP JUMPDEST PUSH1 0x40 MLOAD PUSH2 0x444 SWAP2 SWAP1 PUSH2 0x4530 JUMP JUMPDEST PUSH1 0x40 MLOAD DUP1 SWAP2 SUB SWAP1 RETURN JUMPDEST PUSH2 0x455 PUSH2 0x18D7 JUMP JUMPDEST PUSH1 0x40 MLOAD PUSH2 0x462 SWAP2 SWAP1 PUSH2 0x3EE7 JUMP JUMPDEST PUSH1 0x40 MLOAD DUP1 SWAP2 SUB SWAP1 RETURN JUMPDEST PUSH2 0x485 PUSH1 0x4 DUP1 CALLDATASIZE SUB DUP2 ADD SWAP1 PUSH2 0x480 SWAP2 SWAP1 PUSH2 0x3D35 JUMP JUMPDEST PUSH2 0x18FB JUMP JUMPDEST PUSH1 0x40 MLOAD PUSH2 0x492 SWAP2 SWAP1 PUSH2 0x3D8B JUMP JUMPDEST PUSH1 0x40 MLOAD DUP1 SWAP2 SUB SWAP1 RETURN JUMPDEST PUSH2 0x4B5 PUSH1 0x4 DUP1 CALLDATASIZE SUB DUP2 ADD SWAP1 PUSH2 0x4B0 SWAP2 SWAP1 PUSH2 0x4550 JUMP JUMPDEST PUSH2 0x1943 JUMP JUMPDEST STOP JUMPDEST PUSH2 0x4D1 PUSH1 0x4 DUP1 CALLDATASIZE SUB DUP2 ADD SWAP1 PUSH2 0x4CC SWAP2 SWAP1 PUSH2 0x412D JUMP JUMPDEST PUSH2 0x1CAC JUMP JUMPDEST PUSH1 0x40 MLOAD PUSH2 0x4DE SWAP2 SWAP1 PUSH2 0x3BE0 JUMP JUMPDEST PUSH1 0x40 MLOAD DUP1 SWAP2 SUB SWAP1 RETURN JUMPDEST PUSH2 0x4EF PUSH2 0x1D10 JUMP JUMPDEST PUSH1 0x40 MLOAD PUSH2 0x4FC SWAP2 SWAP1 PUSH2 0x3EE7 JUMP JUMPDEST PUSH1 0x40 MLOAD DUP1 SWAP2 SUB SWAP1 RETURN JUMPDEST PUSH2 0x50D PUSH2 0x1D34 JUMP JUMPDEST PUSH1 0x40 MLOAD PUSH2 0x51A SWAP2 SWAP1 PUSH2 0x3EE7 JUMP JUMPDEST PUSH1 0x40 MLOAD DUP1 SWAP2 SUB SWAP1 RETURN JUMPDEST PUSH2 0x53D PUSH1 0x4 DUP1 CALLDATASIZE SUB DUP2 ADD SWAP1 PUSH2 0x538 SWAP2 SWAP1 PUSH2 0x45CA JUMP JUMPDEST PUSH2 0x1D3A JUMP JUMPDEST STOP JUMPDEST PUSH2 0x559 PUSH1 0x4 DUP1 CALLDATASIZE SUB DUP2 ADD SWAP1 PUSH2 0x554 SWAP2 SWAP1 PUSH2 0x4608 JUMP JUMPDEST PUSH2 0x1D50 JUMP JUMPDEST PUSH1 0x40 MLOAD PUSH2 0x566 SWAP2 SWAP1 PUSH2 0x3B2D JUMP JUMPDEST PUSH1 0x40 MLOAD DUP1 SWAP2 SUB SWAP1 RETURN JUMPDEST PUSH2 0x589 PUSH1 0x4 DUP1 CALLDATASIZE SUB DUP2 ADD SWAP1 PUSH2 0x584 SWAP2 SWAP1 PUSH2 0x471D JUMP JUMPDEST PUSH2 0x2138 JUMP JUMPDEST STOP JUMPDEST PUSH2 0x5A5 PUSH1 0x4 DUP1 CALLDATASIZE SUB DUP2 ADD SWAP1 PUSH2 0x5A0 SWAP2 SWAP1 PUSH2 0x412D JUMP JUMPDEST PUSH2 0x2315 JUMP JUMPDEST STOP JUMPDEST PUSH2 0x5AF PUSH2 0x2337 JUMP JUMPDEST PUSH1 0x40 MLOAD PUSH2 0x5BC SWAP2 SWAP1 PUSH2 0x3EE7 JUMP JUMPDEST PUSH1 0x40 MLOAD DUP1 SWAP2 SUB SWAP1 RETURN JUMPDEST PUSH2 0x5DF PUSH1 0x4 DUP1 CALLDATASIZE SUB DUP2 ADD SWAP1 PUSH2 0x5DA SWAP2 SWAP1 PUSH2 0x4777 JUMP JUMPDEST PUSH2 0x235B JUMP JUMPDEST PUSH1 0x40 MLOAD PUSH2 0x5EC SWAP2 SWAP1 PUSH2 0x3BE0 JUMP JUMPDEST PUSH1 0x40 MLOAD DUP1 SWAP2 SUB SWAP1 RETURN JUMPDEST PUSH2 0x60F PUSH1 0x4 DUP1 CALLDATASIZE SUB DUP2 ADD SWAP1 PUSH2 0x60A SWAP2 SWAP1 PUSH2 0x47B5 JUMP JUMPDEST PUSH2 0x23E9 JUMP JUMPDEST STOP JUMPDEST PUSH2 0x62B PUSH1 0x4 DUP1 CALLDATASIZE SUB DUP2 ADD SWAP1 PUSH2 0x626 SWAP2 SWAP1 PUSH2 0x3DA4 JUMP JUMPDEST PUSH2 0x2490 JUMP JUMPDEST PUSH1 0x40 MLOAD PUSH2 0x640 SWAP10 SWAP9 SWAP8 SWAP7 SWAP6 SWAP5 SWAP4 SWAP3 SWAP2 SWAP1 PUSH2 0x4848 JUMP JUMPDEST PUSH1 0x40 MLOAD DUP1 SWAP2 SUB SWAP1 RETURN JUMPDEST PUSH2 0x663 PUSH1 0x4 DUP1 CALLDATASIZE SUB DUP2 ADD SWAP1 PUSH2 0x65E SWAP2 SWAP1 PUSH2 0x3D35 JUMP JUMPDEST PUSH2 0x27A4 JUMP JUMPDEST PUSH1 0x40 MLOAD PUSH2 0x670 SWAP2 SWAP1 PUSH2 0x3BE0 JUMP JUMPDEST PUSH1 0x40 MLOAD DUP1 SWAP2 SUB SWAP1 RETURN JUMPDEST PUSH0 PUSH0 PUSH0 DUP4 DUP2 MSTORE PUSH1 0x20 ADD SWAP1 DUP2 MSTORE PUSH1 0x20 ADD PUSH0 KECCAK256 PUSH0 DUP5 PUSH20 0xFFFFFFFFFFFFFFFFFFFFFFFFFFFFFFFFFFFFFFFF AND PUSH20 0xFFFFFFFFFFFFFFFFFFFFFFFFFFFFFFFFFFFFFFFF AND DUP2 MSTORE PUSH1 0x20 ADD SWAP1 DUP2 MSTORE PUSH1 0x20 ADD PUSH0 KECCAK256 SLOAD SWAP1 POP SWAP3 SWAP2 POP POP JUMP JUMPDEST PUSH0 PUSH2 0x6D8 DUP3 PUSH2 0x27D9 JUMP JUMPDEST SWAP1 POP SWAP2 SWAP1 POP JUMP JUMPDEST PUSH0 PUSH1 0x6 DUP3 PUSH1 0x40 MLOAD PUSH2 0x6F0 SWAP2 SWAP1 PUSH2 0x4930 JUMP JUMPDEST SWAP1 DUP2 MSTORE PUSH1 0x20 ADD PUSH1 0x40 MLOAD DUP1 SWAP2 SUB SWAP1 KECCAK256 PUSH0 SWAP1 SLOAD SWAP1 PUSH2 0x100 EXP SWAP1 DIV PUSH20 0xFFFFFFFFFFFFFFFFFFFFFFFFFFFFFFFFFFFFFFFF AND SWAP1 POP SWAP2 SWAP1 POP JUMP JUMPDEST PUSH1 0x60 PUSH0 PUSH1 0x4 PUSH0 DUP5 DUP2 MSTORE PUSH1 0x20 ADD SWAP1 DUP2 MSTORE PUSH1 0x20 ADD PUSH0 KECCAK256 PUSH1 0x40 MLOAD DUP1 PUSH2 0x120 ADD PUSH1 0x40 MSTORE SWAP1 DUP2 PUSH0 DUP3 ADD DUP1 SLOAD PUSH2 0x754 SWAP1 PUSH2 0x4973 JUMP JUMPDEST DUP1 PUSH1 0x1F ADD PUSH1 0x20 DUP1 SWAP2 DIV MUL PUSH1 0x20 ADD PUSH1 0x40 MLOAD SWAP1 DUP2 ADD PUSH1 0x40 MSTORE DUP1 SWAP3 SWAP2 SWAP1 DUP2 DUP2 MSTORE PUSH1 0x20 ADD DUP3 DUP1 SLOAD PUSH2 0x780 SWAP1 PUSH2 0x4973 JUMP JUMPDEST DUP1 ISZERO PUSH2 0x7CB JUMPI DUP1 PUSH1 0x1F LT PUSH2 0x7A2 JUMPI PUSH2 0x100 DUP1 DUP4 SLOAD DIV MUL DUP4 MSTORE SWAP2 PUSH1 0x20 ADD SWAP2 PUSH2 0x7CB JUMP JUMPDEST DUP3 ADD SWAP2 SWAP1 PUSH0 MSTORE PUSH1 0x20 PUSH0 KECCAK256 SWAP1 JUMPDEST DUP2 SLOAD DUP2 MSTORE SWAP1 PUSH1 0x1 ADD SWAP1 PUSH1 0x20 ADD DUP1 DUP4 GT PUSH2 0x7AE JUMPI DUP3 SWAP1 SUB PUSH1 0x1F AND DUP3 ADD SWAP2 JUMPDEST POP POP POP POP POP DUP2 MSTORE PUSH1 0x20 ADD PUSH1 0x1 DUP3 ADD SLOAD DUP2 MSTORE PUSH1 0x20 ADD PUSH1 0x2 DUP3 ADD SLOAD DUP2 MSTORE PUSH1 0x20 ADD PUSH1 0x3 DUP3 ADD DUP1 SLOAD PUSH2 0x7F8 SWAP1 PUSH2 0x4973 JUMP JUMPDEST DUP1 PUSH1 0x1F ADD PUSH1 0x20 DUP1 SWAP2 DIV MUL PUSH1 0x20 ADD PUSH1 0x40 MLOAD SWAP1 DUP2 ADD PUSH1 0x40 MSTORE DUP1 SWAP3 SWAP2 SWAP1 DUP2 DUP2 MSTORE PUSH1 0x20 ADD DUP3 DUP1 SLOAD PUSH2 0x824 SWAP1 PUSH2 0x4973 JUMP JUMPDEST DUP1 ISZERO PUSH2 0x86F JUMPI DUP1 PUSH1 0x1F LT PUSH2 0x846 JUMPI PUSH2 0x100 DUP1 DUP4 SLOAD DIV MUL DUP4 MSTORE SWAP2 PUSH1 0x20 ADD SWAP2 PUSH2 0x86F JUMP JUMPDEST DUP3 ADD SWAP2 SWAP1 PUSH0 MSTORE PUSH1 0x20 PUSH0 KECCAK256 SWAP1 JUMPDEST DUP2 SLOAD DUP2 MSTORE SWAP1 PUSH1 0x1 ADD SWAP1 PUSH1 0x20 ADD DUP1 DUP4 GT PUSH2 0x852 JUMPI DUP3 SWAP1 SUB PUSH1 0x1F AND DUP3 ADD SWAP2 JUMPDEST POP POP POP POP POP DUP2 MSTORE PUSH1 0x20 ADD PUSH1 0x4 DUP3 ADD DUP1 SLOAD PUSH2 0x888 SWAP1 PUSH2 0x4973 JUMP JUMPDEST DUP1 PUSH1 0x1F ADD PUSH1 0x20 DUP1 SWAP2 DIV MUL PUSH1 0x20 ADD PUSH1 0x40 MLOAD SWAP1 DUP2 ADD PUSH1 0x40 MSTORE DUP1 SWAP3 SWAP2 SWAP1 DUP2 DUP2 MSTORE PUSH1 0x20 ADD DUP3 DUP1 SLOAD PUSH2 0x8B4 SWAP1 PUSH2 0x4973 JUMP JUMPDEST DUP1 ISZERO PUSH2 0x8FF JUMPI DUP1 PUSH1 0x1F LT PUSH2 0x8D6 JUMPI PUSH2 0x100 DUP1 DUP4 SLOAD DIV MUL DUP4 MSTORE SWAP2 PUSH1 0x20 ADD SWAP2 PUSH2 0x8FF JUMP JUMPDEST DUP3 ADD SWAP2 SWAP1 PUSH0 MSTORE PUSH1 0x20 PUSH0 KECCAK256 SWAP1 JUMPDEST DUP2 SLOAD DUP2 MSTORE SWAP1 PUSH1 0x1 ADD SWAP1 PUSH1 0x20 ADD DUP1 DUP4 GT PUSH2 0x8E2 JUMPI DUP3 SWAP1 SUB PUSH1 0x1F AND DUP3 ADD SWAP2 JUMPDEST POP POP POP POP POP DUP2 MSTORE PUSH1 0x20 ADD PUSH1 0x5 DUP3 ADD DUP1 SLOAD PUSH2 0x918 SWAP1 PUSH2 0x4973 JUMP JUMPDEST DUP1 PUSH1 0x1F ADD PUSH1 0x20 DUP1 SWAP2 DIV MUL PUSH1 0x20 ADD PUSH1 0x40 MLOAD SWAP1 DUP2 ADD PUSH1 0x40 MSTORE DUP1 SWAP3 SWAP2 SWAP1 DUP2 DUP2 MSTORE PUSH1 0x20 ADD DUP3 DUP1 SLOAD PUSH2 0x944 SWAP1 PUSH2 0x4973 JUMP JUMPDEST DUP1 ISZERO PUSH2 0x98F JUMPI DUP1 PUSH1 0x1F LT PUSH2 0x966 JUMPI PUSH2 0x100 DUP1 DUP4 SLOAD DIV MUL DUP4 MSTORE SWAP2 PUSH1 0x20 ADD SWAP2 PUSH2 0x98F JUMP JUMPDEST DUP3 ADD SWAP2 SWAP1 PUSH0 MSTORE PUSH1 0x20 PUSH0 KECCAK256 SWAP1 JUMPDEST DUP2 SLOAD DUP2 MSTORE SWAP1 PUSH1 0x1 ADD SWAP1 PUSH1 0x20 ADD DUP1 DUP4 GT PUSH2 0x972 JUMPI DUP3 SWAP1 SUB PUSH1 0x1F AND DUP3 ADD SWAP2 JUMPDEST POP POP POP POP POP DUP2 MSTORE PUSH1 0x20 ADD PUSH1 0x6 DUP3 ADD DUP1 SLOAD PUSH2 0x9A8 SWAP1 PUSH2 0x4973 JUMP JUMPDEST DUP1 PUSH1 0x1F ADD PUSH1 0x20 DUP1 SWAP2 DIV MUL PUSH1 0x20 ADD PUSH1 0x40 MLOAD SWAP1 DUP2 ADD PUSH1 0x40 MSTORE DUP1 SWAP3 SWAP2 SWAP1 DUP2 DUP2 MSTORE PUSH1 0x20 ADD DUP3 DUP1 SLOAD PUSH2 0x9D4 SWAP1 PUSH2 0x4973 JUMP JUMPDEST DUP1 ISZERO PUSH2 0xA1F JUMPI DUP1 PUSH1 0x1F LT PUSH2 0x9F6 JUMPI PUSH2 0x100 DUP1 DUP4 SLOAD DIV MUL DUP4 MSTORE SWAP2 PUSH1 0x20 ADD SWAP2 PUSH2 0xA1F JUMP JUMPDEST DUP3 ADD SWAP2 SWAP1 PUSH0 MSTORE PUSH1 0x20 PUSH0 KECCAK256 SWAP1 JUMPDEST DUP2 SLOAD DUP2 MSTORE SWAP1 PUSH1 0x1 ADD SWAP1 PUSH1 0x20 ADD DUP1 DUP4 GT PUSH2 0xA02 JUMPI DUP3 SWAP1 SUB PUSH1 0x1F AND DUP3 ADD SWAP2 JUMPDEST POP POP POP POP POP DUP2 MSTORE PUSH1 0x20 ADD PUSH1 0x7 DUP3 ADD PUSH0 SWAP1 SLOAD SWAP1 PUSH2 0x100 EXP SWAP1 DIV PUSH1 0xFF AND ISZERO ISZERO ISZERO ISZERO DUP2 MSTORE PUSH1 0x20 ADD PUSH1 0x7 DUP3 ADD PUSH1 0x1 SWAP1 SLOAD SWAP1 PUSH2 0x100 EXP SWAP1 DIV PUSH20 0xFFFFFFFFFFFFFFFFFFFFFFFFFFFFFFFFFFFFFFFF AND PUSH20 0xFFFFFFFFFFFFFFFFFFFFFFFFFFFFFFFFFFFFFFFF AND PUSH20 0xFFFFFFFFFFFFFFFFFFFFFFFFFFFFFFFFFFFFFFFF AND DUP2 MSTORE POP POP SWAP1 POP PUSH0 PUSH20 0xFFFFFFFFFFFFFFFFFFFFFFFFFFFFFFFFFFFFFFFF AND DUP2 PUSH2 0x100 ADD MLOAD PUSH20 0xFFFFFFFFFFFFFFFFFFFFFFFFFFFFFFFFFFFFFFFF AND SUB PUSH2 0xB0D JUMPI PUSH1 0x40 MLOAD PUSH32 0x8C379A000000000000000000000000000000000000000000000000000000000 DUP2 MSTORE PUSH1 0x4 ADD PUSH2 0xB04 SWAP1 PUSH2 0x49ED JUMP JUMPDEST PUSH1 0x40 MLOAD DUP1 SWAP2 SUB SWAP1 REVERT JUMPDEST PUSH0 DUP2 PUSH1 0xE0 ADD MLOAD PUSH2 0xB52 JUMPI PUSH1 0x40 MLOAD DUP1 PUSH1 0x40 ADD PUSH1 0x40 MSTORE DUP1 PUSH1 0x14 DUP2 MSTORE PUSH1 0x20 ADD PUSH32 0x50656E64696E6720566572696669636174696F6E000000000000000000000000 DUP2 MSTORE POP PUSH2 0xB89 JUMP JUMPDEST PUSH1 0x40 MLOAD DUP1 PUSH1 0x40 ADD PUSH1 0x40 MSTORE DUP1 PUSH1 0x8 DUP2 MSTORE PUSH1 0x20 ADD PUSH32 0x5665726966696564000000000000000000000000000000000000000000000000 DUP2 MSTORE POP JUMPDEST SWAP1 POP PUSH0 PUSH1 0x8 PUSH0 SWAP1 SLOAD SWAP1 PUSH2 0x100 EXP SWAP1 DIV PUSH1 0xFF AND PUSH2 0xBDA JUMPI PUSH1 0x40 MLOAD DUP1 PUSH1 0x40 ADD PUSH1 0x40 MSTORE DUP1 PUSH1 0x8 DUP2 MSTORE PUSH1 0x20 ADD PUSH32 0x496E616374697665000000000000000000000000000000000000000000000000 DUP2 MSTORE POP PUSH2 0xC11 JUMP JUMPDEST PUSH1 0x40 MLOAD DUP1 PUSH1 0x40 ADD PUSH1 0x40 MSTORE DUP1 PUSH1 0x6 DUP2 MSTORE PUSH1 0x20 ADD PUSH32 0x4163746976650000000000000000000000000000000000000000000000000000 DUP2 MSTORE POP JUMPDEST SWAP1 POP DUP3 PUSH0 ADD MLOAD DUP4 PUSH1 0xA0 ADD MLOAD DUP5 PUSH1 0xC0 ADD MLOAD PUSH2 0xC2E DUP7 PUSH1 0x20 ADD MLOAD PUSH2 0x2852 JUMP JUMPDEST PUSH2 0xC3B DUP8 PUSH1 0x40 ADD MLOAD PUSH2 0x2852 JUMP JUMPDEST DUP8 PUSH1 0x60 ADD MLOAD DUP8 DUP10 PUSH1 0x80 ADD MLOAD DUP9 PUSH1 0x40 MLOAD PUSH1 0x20 ADD PUSH2 0xC5F SWAP10 SWAP9 SWAP8 SWAP7 SWAP6 SWAP5 SWAP4 SWAP3 SWAP2 SWAP1 PUSH2 0x5025 JUMP JUMPDEST PUSH1 0x40 MLOAD PUSH1 0x20 DUP2 DUP4 SUB SUB DUP2 MSTORE SWAP1 PUSH1 0x40 MSTORE SWAP4 POP POP POP POP SWAP2 SWAP1 POP JUMP JUMPDEST PUSH32 0xCC2F8959DB5AA7145F7501EAEC600C5DFB2790E04849110B57AF9E144057487B PUSH2 0xCA2 DUP2 PUSH2 0x291C JUMP JUMPDEST PUSH1 0x8 PUSH0 SWAP1 SLOAD SWAP1 PUSH2 0x100 EXP SWAP1 DIV PUSH1 0xFF AND ISZERO PUSH1 0x8 PUSH0 PUSH2 0x100 EXP DUP2 SLOAD DUP2 PUSH1 0xFF MUL NOT AND SWAP1 DUP4 ISZERO ISZERO MUL OR SWAP1 SSTORE POP PUSH32 0x41DE7002EAF61CA1200CC8C41AC05FA4FD2EDA861EEFBC2648ED00667B8BE80D PUSH1 0x8 PUSH0 SWAP1 SLOAD SWAP1 PUSH2 0x100 EXP SWAP1 DIV PUSH1 0xFF AND PUSH1 0x40 MLOAD PUSH2 0xD07 SWAP2 SWAP1 PUSH2 0x3BE0 JUMP JUMPDEST PUSH1 0x40 MLOAD DUP1 SWAP2 SUB SWAP1 LOG1 POP JUMP JUMPDEST PUSH9 0x3635C9ADC5DEA00000 DUP2 JUMP JUMPDEST PUSH0 PUSH0 SHL PUSH2 0xD2B DUP2 PUSH2 0x291C JUMP JUMPDEST PUSH0 PUSH32 0x0 PUSH20 0xFFFFFFFFFFFFFFFFFFFFFFFFFFFFFFFFFFFFFFFF AND PUSH4 0x70A08231 ADDRESS PUSH1 0x40 MLOAD DUP3 PUSH4 0xFFFFFFFF AND PUSH1 0xE0 SHL DUP2 MSTORE PUSH1 0x4 ADD PUSH2 0xD85 SWAP2 SWAP1 PUSH2 0x3D8B JUMP JUMPDEST PUSH1 0x20 PUSH1 0x40 MLOAD DUP1 DUP4 SUB DUP2 DUP7 GAS STATICCALL ISZERO DUP1 ISZERO PUSH2 0xDA0 JUMPI RETURNDATASIZE PUSH0 PUSH0 RETURNDATACOPY RETURNDATASIZE PUSH0 REVERT JUMPDEST POP POP POP POP PUSH1 0x40 MLOAD RETURNDATASIZE PUSH1 0x1F NOT PUSH1 0x1F DUP3 ADD AND DUP3 ADD DUP1 PUSH1 0x40 MSTORE POP DUP2 ADD SWAP1 PUSH2 0xDC4 SWAP2 SWAP1 PUSH2 0x51A9 JUMP JUMPDEST SWAP1 POP PUSH0 DUP2 GT PUSH2 0xE08 JUMPI PUSH1 0x40 MLOAD PUSH32 0x8C379A000000000000000000000000000000000000000000000000000000000 DUP2 MSTORE PUSH1 0x4 ADD PUSH2 0xDFF SWAP1 PUSH2 0x521E JUMP JUMPDEST PUSH1 0x40 MLOAD DUP1 SWAP2 SUB SWAP1 REVERT JUMPDEST PUSH32 0x0 PUSH20 0xFFFFFFFFFFFFFFFFFFFFFFFFFFFFFFFFFFFFFFFF AND PUSH4 0xA9059CBB DUP5 DUP4 PUSH1 0x40 MLOAD DUP4 PUSH4 0xFFFFFFFF AND PUSH1 0xE0 SHL DUP2 MSTORE PUSH1 0x4 ADD PUSH2 0xE63 SWAP3 SWAP2 SWAP1 PUSH2 0x523C JUMP JUMPDEST PUSH1 0x20 PUSH1 0x40 MLOAD DUP1 DUP4 SUB DUP2 PUSH0 DUP8 GAS CALL ISZERO DUP1 ISZERO PUSH2 0xE7F JUMPI RETURNDATASIZE PUSH0 PUSH0 RETURNDATACOPY RETURNDATASIZE PUSH0 REVERT JUMPDEST POP POP POP POP PUSH1 0x40 MLOAD RETURNDATASIZE PUSH1 0x1F NOT PUSH1 0x1F DUP3 ADD AND DUP3 ADD DUP1 PUSH1 0x40 MSTORE POP DUP2 ADD SWAP1 PUSH2 0xEA3 SWAP2 SWAP1 PUSH2 0x5277 JUMP JUMPDEST POP POP POP POP JUMP JUMPDEST PUSH0 PUSH1 0x3 PUSH0 DUP4 DUP2 MSTORE PUSH1 0x20 ADD SWAP1 DUP2 MSTORE PUSH1 0x20 ADD PUSH0 KECCAK256 PUSH1 0x1 ADD SLOAD SWAP1 POP SWAP2 SWAP1 POP JUMP JUMPDEST PUSH32 0xDB280AA9D0AD630B4F4BDBA2EBC3FB77A4F5A9F682E532996A7908B449BD1E26 PUSH2 0xEF0 DUP2 PUSH2 0x291C JUMP JUMPDEST PUSH0 PUSH20 0xFFFFFFFFFFFFFFFFFFFFFFFFFFFFFFFFFFFFFFFF AND PUSH1 0x6 DUP4 PUSH1 0x40 MLOAD PUSH2 0xF17 SWAP2 SWAP1 PUSH2 0x4930 JUMP JUMPDEST SWAP1 DUP2 MSTORE PUSH1 0x20 ADD PUSH1 0x40 MLOAD DUP1 SWAP2 SUB SWAP1 KECCAK256 PUSH0 SWAP1 SLOAD SWAP1 PUSH2 0x100 EXP SWAP1 DIV PUSH20 0xFFFFFFFFFFFFFFFFFFFFFFFFFFFFFFFFFFFFFFFF AND PUSH20 0xFFFFFFFFFFFFFFFFFFFFFFFFFFFFFFFFFFFFFFFF AND SUB PUSH2 0xF9B JUMPI PUSH1 0x40 MLOAD PUSH32 0x8C379A000000000000000000000000000000000000000000000000000000000 DUP2 MSTORE PUSH1 0x4 ADD PUSH2 0xF92 SWAP1 PUSH2 0x52EC JUMP JUMPDEST PUSH1 0x40 MLOAD DUP1 SWAP2 SUB SWAP1 REVERT JUMPDEST PUSH0 PUSH1 0x6 DUP4 PUSH1 0x40 MLOAD PUSH2 0xFAC SWAP2 SWAP1 PUSH2 0x4930 JUMP JUMPDEST SWAP1 DUP2 MSTORE PUSH1 0x20 ADD PUSH1 0x40 MLOAD DUP1 SWAP2 SUB SWAP1 KECCAK256 PUSH0 PUSH2 0x100 EXP DUP2 SLOAD DUP2 PUSH20 0xFFFFFFFFFFFFFFFFFFFFFFFFFFFFFFFFFFFFFFFF MUL NOT AND SWAP1 DUP4 PUSH20 0xFFFFFFFFFFFFFFFFFFFFFFFFFFFFFFFFFFFFFFFF AND MUL OR SWAP1 SSTORE POP PUSH32 0x87414E62EA5CA0D4B6C051AB255FBDCF7AA10DCCBF79F99E031DABE197418099 DUP3 PUSH1 0x40 MLOAD PUSH2 0x1026 SWAP2 SWAP1 PUSH2 0x3E2F JUMP JUMPDEST PUSH1 0x40 MLOAD DUP1 SWAP2 SUB SWAP1 LOG1 POP POP JUMP JUMPDEST PUSH0 PUSH2 0x103B PUSH2 0x2930 JUMP JUMPDEST SWAP1 POP DUP1 PUSH20 0xFFFFFFFFFFFFFFFFFFFFFFFFFFFFFFFFFFFFFFFF AND DUP7 PUSH20 0xFFFFFFFFFFFFFFFFFFFFFFFFFFFFFFFFFFFFFFFF AND EQ ISZERO DUP1 ISZERO PUSH2 0x1080 JUMPI POP PUSH2 0x107E DUP7 DUP3 PUSH2 0x235B JUMP JUMPDEST ISZERO JUMPDEST ISZERO PUSH2 0x10C4 JUMPI DUP1 DUP7 PUSH1 0x40 MLOAD PUSH32 0xE237D92200000000000000000000000000000000000000000000000000000000 DUP2 MSTORE PUSH1 0x4 ADD PUSH2 0x10BB SWAP3 SWAP2 SWAP1 PUSH2 0x530A JUMP JUMPDEST PUSH1 0x40 MLOAD DUP1 SWAP2 SUB SWAP1 REVERT JUMPDEST PUSH2 0x10D1 DUP7 DUP7 DUP7 DUP7 DUP7 PUSH2 0x2937 JUMP JUMPDEST POP POP POP POP POP POP JUMP JUMPDEST PUSH2 0x10E2 DUP3 PUSH2 0xEA9 JUMP JUMPDEST PUSH2 0x10EB DUP2 PUSH2 0x291C JUMP JUMPDEST PUSH2 0x10F5 DUP4 DUP4 PUSH2 0x2A2B JUMP JUMPDEST POP POP POP POP JUMP JUMPDEST PUSH2 0x1103 PUSH2 0x2930 JUMP JUMPDEST PUSH20 0xFFFFFFFFFFFFFFFFFFFFFFFFFFFFFFFFFFFFFFFF AND DUP2 PUSH20 0xFFFFFFFFFFFFFFFFFFFFFFFFFFFFFFFFFFFFFFFF AND EQ PUSH2 0x1167 JUMPI PUSH1 0x40 MLOAD PUSH32 0x6697B23200000000000000000000000000000000000000000000000000000000 DUP2 MSTORE PUSH1 0x4 ADD PUSH1 0x40 MLOAD DUP1 SWAP2 SUB SWAP1 REVERT JUMPDEST PUSH2 0x1171 DUP3 DUP3 PUSH2 0x2B15 JUMP JUMPDEST POP POP POP JUMP JUMPDEST PUSH2 0x117E PUSH2 0x39E2 JUMP JUMPDEST PUSH1 0x4 PUSH0 DUP4 DUP2 MSTORE PUSH1 0x20 ADD SWAP1 DUP2 MSTORE PUSH1 0x20 ADD PUSH0 KECCAK256 PUSH1 0x40 MLOAD DUP1 PUSH2 0x120 ADD PUSH1 0x40 MSTORE SWAP1 DUP2 PUSH0 DUP3 ADD DUP1 SLOAD PUSH2 0x11AA SWAP1 PUSH2 0x4973 JUMP JUMPDEST DUP1 PUSH1 0x1F ADD PUSH1 0x20 DUP1 SWAP2 DIV MUL PUSH1 0x20 ADD PUSH1 0x40 MLOAD SWAP1 DUP2 ADD PUSH1 0x40 MSTORE DUP1 SWAP3 SWAP2 SWAP1 DUP2 DUP2 MSTORE PUSH1 0x20 ADD DUP3 DUP1 SLOAD PUSH2 0x11D6 SWAP1 PUSH2 0x4973 JUMP JUMPDEST DUP1 ISZERO PUSH2 0x1221 JUMPI DUP1 PUSH1 0x1F LT PUSH2 0x11F8 JUMPI PUSH2 0x100 DUP1 DUP4 SLOAD DIV MUL DUP4 MSTORE SWAP2 PUSH1 0x20 ADD SWAP2 PUSH2 0x1221 JUMP JUMPDEST DUP3 ADD SWAP2 SWAP1 PUSH0 MSTORE PUSH1 0x20 PUSH0 KECCAK256 SWAP1 JUMPDEST DUP2 SLOAD DUP2 MSTORE SWAP1 PUSH1 0x1 ADD SWAP1 PUSH1 0x20 ADD DUP1 DUP4 GT PUSH2 0x1204 JUMPI DUP3 SWAP1 SUB PUSH1 0x1F AND DUP3 ADD SWAP2 JUMPDEST POP POP POP POP POP DUP2 MSTORE PUSH1 0x20 ADD PUSH1 0x1 DUP3 ADD SLOAD DUP2 MSTORE PUSH1 0x20 ADD PUSH1 0x2 DUP3 ADD SLOAD DUP2 MSTORE PUSH1 0x20 ADD PUSH1 0x3 DUP3 ADD DUP1 SLOAD PUSH2 0x124E SWAP1 PUSH2 0x4973 JUMP JUMPDEST DUP1 PUSH1 0x1F ADD PUSH1 0x20 DUP1 SWAP2 DIV MUL PUSH1 0x20 ADD PUSH1 0x40 MLOAD SWAP1 DUP2 ADD PUSH1 0x40 MSTORE DUP1 SWAP3 SWAP2 SWAP1 DUP2 DUP2 MSTORE PUSH1 0x20 ADD DUP3 DUP1 SLOAD PUSH2 0x127A SWAP1 PUSH2 0x4973 JUMP JUMPDEST DUP1 ISZERO PUSH2 0x12C5 JUMPI DUP1 PUSH1 0x1F LT PUSH2 0x129C JUMPI PUSH2 0x100 DUP1 DUP4 SLOAD DIV MUL DUP4 MSTORE SWAP2 PUSH1 0x20 ADD SWAP2 PUSH2 0x12C5 JUMP JUMPDEST DUP3 ADD SWAP2 SWAP1 PUSH0 MSTORE PUSH1 0x20 PUSH0 KECCAK256 SWAP1 JUMPDEST DUP2 SLOAD DUP2 MSTORE SWAP1 PUSH1 0x1 ADD SWAP1 PUSH1 0x20 ADD DUP1 DUP4 GT PUSH2 0x12A8 JUMPI DUP3 SWAP1 SUB PUSH1 0x1F AND DUP3 ADD SWAP2 JUMPDEST POP POP POP POP POP DUP2 MSTORE PUSH1 0x20 ADD PUSH1 0x4 DUP3 ADD DUP1 SLOAD PUSH2 0x12DE SWAP1 PUSH2 0x4973 JUMP JUMPDEST DUP1 PUSH1 0x1F ADD PUSH1 0x20 DUP1 SWAP2 DIV MUL PUSH1 0x20 ADD PUSH1 0x40 MLOAD SWAP1 DUP2 ADD PUSH1 0x40 MSTORE DUP1 SWAP3 SWAP2 SWAP1 DUP2 DUP2 MSTORE PUSH1 0x20 ADD DUP3 DUP1 SLOAD PUSH2 0x130A SWAP1 PUSH2 0x4973 JUMP JUMPDEST DUP1 ISZERO PUSH2 0x1355 JUMPI DUP1 PUSH1 0x1F LT PUSH2 0x132C JUMPI PUSH2 0x100 DUP1 DUP4 SLOAD DIV MUL DUP4 MSTORE SWAP2 PUSH1 0x20 ADD SWAP2 PUSH2 0x1355 JUMP JUMPDEST DUP3 ADD SWAP2 SWAP1 PUSH0 MSTORE PUSH1 0x20 PUSH0 KECCAK256 SWAP1 JUMPDEST DUP2 SLOAD DUP2 MSTORE SWAP1 PUSH1 0x1 ADD SWAP1 PUSH1 0x20 ADD DUP1 DUP4 GT PUSH2 0x1338 JUMPI DUP3 SWAP1 SUB PUSH1 0x1F AND DUP3 ADD SWAP2 JUMPDEST POP POP POP POP POP DUP2 MSTORE PUSH1 0x20 ADD PUSH1 0x5 DUP3 ADD DUP1 SLOAD PUSH2 0x136E SWAP1 PUSH2 0x4973 JUMP JUMPDEST DUP1 PUSH1 0x1F ADD PUSH1 0x20 DUP1 SWAP2 DIV MUL PUSH1 0x20 ADD PUSH1 0x40 MLOAD SWAP1 DUP2 ADD PUSH1 0x40 MSTORE DUP1 SWAP3 SWAP2 SWAP1 DUP2 DUP2 MSTORE PUSH1 0x20 ADD DUP3 DUP1 SLOAD PUSH2 0x139A SWAP1 PUSH2 0x4973 JUMP JUMPDEST DUP1 ISZERO PUSH2 0x13E5 JUMPI DUP1 PUSH1 0x1F LT PUSH2 0x13BC JUMPI PUSH2 0x100 DUP1 DUP4 SLOAD DIV MUL DUP4 MSTORE SWAP2 PUSH1 0x20 ADD SWAP2 PUSH2 0x13E5 JUMP JUMPDEST DUP3 ADD SWAP2 SWAP1 PUSH0 MSTORE PUSH1 0x20 PUSH0 KECCAK256 SWAP1 JUMPDEST DUP2 SLOAD DUP2 MSTORE SWAP1 PUSH1 0x1 ADD SWAP1 PUSH1 0x20 ADD DUP1 DUP4 GT PUSH2 0x13C8 JUMPI DUP3 SWAP1 SUB PUSH1 0x1F AND DUP3 ADD SWAP2 JUMPDEST POP POP POP POP POP DUP2 MSTORE PUSH1 0x20 ADD PUSH1 0x6 DUP3 ADD DUP1 SLOAD PUSH2 0x13FE SWAP1 PUSH2 0x4973 JUMP JUMPDEST DUP1 PUSH1 0x1F ADD PUSH1 0x20 DUP1 SWAP2 DIV MUL PUSH1 0x20 ADD PUSH1 0x40 MLOAD SWAP1 DUP2 ADD PUSH1 0x40 MSTORE DUP1 SWAP3 SWAP2 SWAP1 DUP2 DUP2 MSTORE PUSH1 0x20 ADD DUP3 DUP1 SLOAD PUSH2 0x142A SWAP1 PUSH2 0x4973 JUMP JUMPDEST DUP1 ISZERO PUSH2 0x1475 JUMPI DUP1 PUSH1 0x1F LT PUSH2 0x144C JUMPI PUSH2 0x100 DUP1 DUP4 SLOAD DIV MUL DUP4 MSTORE SWAP2 PUSH1 0x20 ADD SWAP2 PUSH2 0x1475 JUMP JUMPDEST DUP3 ADD SWAP2 SWAP1 PUSH0 MSTORE PUSH1 0x20 PUSH0 KECCAK256 SWAP1 JUMPDEST DUP2 SLOAD DUP2 MSTORE SWAP1 PUSH1 0x1 ADD SWAP1 PUSH1 0x20 ADD DUP1 DUP4 GT PUSH2 0x1458 JUMPI DUP3 SWAP1 SUB PUSH1 0x1F AND DUP3 ADD SWAP2 JUMPDEST POP POP POP POP POP DUP2 MSTORE PUSH1 0x20 ADD PUSH1 0x7 DUP3 ADD PUSH0 SWAP1 SLOAD SWAP1 PUSH2 0x100 EXP SWAP1 DIV PUSH1 0xFF AND ISZERO ISZERO ISZERO ISZERO DUP2 MSTORE PUSH1 0x20 ADD PUSH1 0x7 DUP3 ADD PUSH1 0x1 SWAP1 SLOAD SWAP1 PUSH2 0x100 EXP SWAP1 DIV PUSH20 0xFFFFFFFFFFFFFFFFFFFFFFFFFFFFFFFFFFFFFFFF AND PUSH20 0xFFFFFFFFFFFFFFFFFFFFFFFFFFFFFFFFFFFFFFFF AND PUSH20 0xFFFFFFFFFFFFFFFFFFFFFFFFFFFFFFFFFFFFFFFF AND DUP2 MSTORE POP POP SWAP1 POP SWAP2 SWAP1 POP JUMP JUMPDEST PUSH1 0x8 PUSH0 SWAP1 SLOAD SWAP1 PUSH2 0x100 EXP SWAP1 DIV PUSH1 0xFF AND ISZERO PUSH2 0x1544 JUMPI PUSH1 0x40 MLOAD PUSH32 0x8C379A000000000000000000000000000000000000000000000000000000000 DUP2 MSTORE PUSH1 0x4 ADD PUSH2 0x153B SWAP1 PUSH2 0x537B JUMP JUMPDEST PUSH1 0x40 MLOAD DUP1 SWAP2 SUB SWAP1 REVERT JUMPDEST PUSH0 PUSH1 0x4 PUSH0 DUP4 DUP2 MSTORE PUSH1 0x20 ADD SWAP1 DUP2 MSTORE PUSH1 0x20 ADD PUSH0 KECCAK256 SWAP1 POP PUSH0 PUSH20 0xFFFFFFFFFFFFFFFFFFFFFFFFFFFFFFFFFFFFFFFF AND DUP2 PUSH1 0x7 ADD PUSH1 0x1 SWAP1 SLOAD SWAP1 PUSH2 0x100 EXP SWAP1 DIV PUSH20 0xFFFFFFFFFFFFFFFFFFFFFFFFFFFFFFFFFFFFFFFF AND PUSH20 0xFFFFFFFFFFFFFFFFFFFFFFFFFFFFFFFFFFFFFFFF AND SUB PUSH2 0x15EA JUMPI PUSH1 0x40 MLOAD PUSH32 0x8C379A000000000000000000000000000000000000000000000000000000000 DUP2 MSTORE PUSH1 0x4 ADD PUSH2 0x15E1 SWAP1 PUSH2 0x53E3 JUMP JUMPDEST PUSH1 0x40 MLOAD DUP1 SWAP2 SUB SWAP1 REVERT JUMPDEST DUP1 PUSH1 0x7 ADD PUSH0 SWAP1 SLOAD SWAP1 PUSH2 0x100 EXP SWAP1 DIV PUSH1 0xFF AND ISZERO PUSH2 0x163B JUMPI PUSH1 0x40 MLOAD PUSH32 0x8C379A000000000000000000000000000000000000000000000000000000000 DUP2 MSTORE PUSH1 0x4 ADD PUSH2 0x1632 SWAP1 PUSH2 0x544B JUMP JUMPDEST PUSH1 0x40 MLOAD DUP1 SWAP2 SUB SWAP1 REVERT JUMPDEST DUP1 PUSH1 0x1 ADD SLOAD DUP2 PUSH1 0x2 ADD SLOAD EQ PUSH2 0x1685 JUMPI PUSH1 0x40 MLOAD PUSH32 0x8C379A000000000000000000000000000000000000000000000000000000000 DUP2 MSTORE PUSH1 0x4 ADD PUSH2 0x167C SWAP1 PUSH2 0x54B3 JUMP JUMPDEST PUSH1 0x40 MLOAD DUP1 SWAP2 SUB SWAP1 REVERT JUMPDEST PUSH1 0x6 DUP2 PUSH1 0x6 ADD PUSH1 0x40 MLOAD PUSH2 0x1698 SWAP2 SWAP1 PUSH2 0x5563 JUMP JUMPDEST SWAP1 DUP2 MSTORE PUSH1 0x20 ADD PUSH1 0x40 MLOAD DUP1 SWAP2 SUB SWAP1 KECCAK256 PUSH0 SWAP1 SLOAD SWAP1 PUSH2 0x100 EXP SWAP1 DIV PUSH20 0xFFFFFFFFFFFFFFFFFFFFFFFFFFFFFFFFFFFFFFFF AND PUSH20 0xFFFFFFFFFFFFFFFFFFFFFFFFFFFFFFFFFFFFFFFF AND CALLER PUSH20 0xFFFFFFFFFFFFFFFFFFFFFFFFFFFFFFFFFFFFFFFF AND EQ PUSH2 0x1733 JUMPI PUSH1 0x40 MLOAD PUSH32 0x8C379A000000000000000000000000000000000000000000000000000000000 DUP2 MSTORE PUSH1 0x4 ADD PUSH2 0x172A SWAP1 PUSH2 0x55E9 JUMP JUMPDEST PUSH1 0x40 MLOAD DUP1 SWAP2 SUB SWAP1 REVERT JUMPDEST PUSH1 0x1 DUP2 PUSH1 0x7 ADD PUSH0 PUSH2 0x100 EXP DUP2 SLOAD DUP2 PUSH1 0xFF MUL NOT AND SWAP1 DUP4 ISZERO ISZERO MUL OR SWAP1 SSTORE POP CALLER PUSH20 0xFFFFFFFFFFFFFFFFFFFFFFFFFFFFFFFFFFFFFFFF AND DUP3 PUSH32 0x791049DF3FAADBDA0C00EC3E469CE592F100F0D6664511FA7AC1AB33BF0AAFDA PUSH1 0x40 MLOAD PUSH1 0x40 MLOAD DUP1 SWAP2 SUB SWAP1 LOG3 POP POP JUMP JUMPDEST PUSH1 0x8 PUSH0 SWAP1 SLOAD SWAP1 PUSH2 0x100 EXP SWAP1 DIV PUSH1 0xFF AND DUP2 JUMP JUMPDEST PUSH32 0x0 DUP2 JUMP JUMPDEST PUSH1 0x60 DUP2 MLOAD DUP4 MLOAD EQ PUSH2 0x1819 JUMPI DUP2 MLOAD DUP4 MLOAD PUSH1 0x40 MLOAD PUSH32 0x5B05999100000000000000000000000000000000000000000000000000000000 DUP2 MSTORE PUSH1 0x4 ADD PUSH2 0x1810 SWAP3 SWAP2 SWAP1 PUSH2 0x5607 JUMP JUMPDEST PUSH1 0x40 MLOAD DUP1 SWAP2 SUB SWAP1 REVERT JUMPDEST PUSH0 DUP4 MLOAD PUSH8 0xFFFFFFFFFFFFFFFF DUP2 GT ISZERO PUSH2 0x1835 JUMPI PUSH2 0x1834 PUSH2 0x3C11 JUMP JUMPDEST JUMPDEST PUSH1 0x40 MLOAD SWAP1 DUP1 DUP3 MSTORE DUP1 PUSH1 0x20 MUL PUSH1 0x20 ADD DUP3 ADD PUSH1 0x40 MSTORE DUP1 ISZERO PUSH2 0x1863 JUMPI DUP2 PUSH1 0x20 ADD PUSH1 0x20 DUP3 MUL DUP1 CALLDATASIZE DUP4 CALLDATACOPY DUP1 DUP3 ADD SWAP2 POP POP SWAP1 POP JUMPDEST POP SWAP1 POP PUSH0 PUSH0 SWAP1 POP JUMPDEST DUP5 MLOAD DUP2 LT ISZERO PUSH2 0x18CC JUMPI PUSH2 0x18A2 PUSH2 0x188A DUP3 DUP8 PUSH2 0x2BFF SWAP1 SWAP2 SWAP1 PUSH4 0xFFFFFFFF AND JUMP JUMPDEST PUSH2 0x189D DUP4 DUP8 PUSH2 0x2C12 SWAP1 SWAP2 SWAP1 PUSH4 0xFFFFFFFF AND JUMP JUMPDEST PUSH2 0x679 JUMP JUMPDEST DUP3 DUP3 DUP2 MLOAD DUP2 LT PUSH2 0x18B5 JUMPI PUSH2 0x18B4 PUSH2 0x562E JUMP JUMPDEST JUMPDEST PUSH1 0x20 MUL PUSH1 0x20 ADD ADD DUP2 DUP2 MSTORE POP POP DUP1 PUSH1 0x1 ADD SWAP1 POP PUSH2 0x186B JUMP JUMPDEST POP DUP1 SWAP2 POP POP SWAP3 SWAP2 POP POP JUMP JUMPDEST PUSH32 0xDB280AA9D0AD630B4F4BDBA2EBC3FB77A4F5A9F682E532996A7908B449BD1E26 DUP2 JUMP JUMPDEST PUSH1 0x6 DUP2 DUP1 MLOAD PUSH1 0x20 DUP2 ADD DUP3 ADD DUP1 MLOAD DUP5 DUP3 MSTORE PUSH1 0x20 DUP4 ADD PUSH1 0x20 DUP6 ADD KECCAK256 DUP2 DUP4 MSTORE DUP1 SWAP6 POP POP POP POP POP POP PUSH0 SWAP2 POP SLOAD SWAP1 PUSH2 0x100 EXP SWAP1 DIV PUSH20 0xFFFFFFFFFFFFFFFFFFFFFFFFFFFFFFFFFFFFFFFF AND DUP2 JUMP JUMPDEST PUSH0 PUSH1 0x4 PUSH0 DUP6 DUP2 MSTORE PUSH1 0x20 ADD SWAP1 DUP2 MSTORE PUSH1 0x20 ADD PUSH0 KECCAK256 SWAP1 POP PUSH0 PUSH20 0xFFFFFFFFFFFFFFFFFFFFFFFFFFFFFFFFFFFFFFFF AND DUP2 PUSH1 0x7 ADD PUSH1 0x1 SWAP1 SLOAD SWAP1 PUSH2 0x100 EXP SWAP1 DIV PUSH20 0xFFFFFFFFFFFFFFFFFFFFFFFFFFFFFFFFFFFFFFFF AND PUSH20 0xFFFFFFFFFFFFFFFFFFFFFFFFFFFFFFFFFFFFFFFF AND SUB PUSH2 0x19E9 JUMPI PUSH1 0x40 MLOAD PUSH32 0x8C379A000000000000000000000000000000000000000000000000000000000 DUP2 MSTORE PUSH1 0x4 ADD PUSH2 0x19E0 SWAP1 PUSH2 0x53E3 JUMP JUMPDEST PUSH1 0x40 MLOAD DUP1 SWAP2 SUB SWAP1 REVERT JUMPDEST DUP1 PUSH1 0x7 ADD PUSH0 SWAP1 SLOAD SWAP1 PUSH2 0x100 EXP SWAP1 DIV PUSH1 0xFF AND ISZERO DUP1 PUSH2 0x1A11 JUMPI POP PUSH1 0x8 PUSH0 SWAP1 SLOAD SWAP1 PUSH2 0x100 EXP SWAP1 DIV PUSH1 0xFF AND JUMPDEST PUSH2 0x1A50 JUMPI PUSH1 0x40 MLOAD PUSH32 0x8C379A000000000000000000000000000000000000000000000000000000000 DUP2 MSTORE PUSH1 0x4 ADD PUSH2 0x1A47 SWAP1 PUSH2 0x56A5 JUMP JUMPDEST PUSH1 0x40 MLOAD DUP1 SWAP2 SUB SWAP1 REVERT JUMPDEST DUP1 PUSH1 0x1 ADD SLOAD DUP4 DUP3 PUSH1 0x2 ADD SLOAD PUSH2 0x1A65 SWAP2 SWAP1 PUSH2 0x56F0 JUMP JUMPDEST GT ISZERO PUSH2 0x1AA6 JUMPI PUSH1 0x40 MLOAD PUSH32 0x8C379A000000000000000000000000000000000000000000000000000000000 DUP2 MSTORE PUSH1 0x4 ADD PUSH2 0x1A9D SWAP1 PUSH2 0x576D JUMP JUMPDEST PUSH1 0x40 MLOAD DUP1 SWAP2 SUB SWAP1 REVERT JUMPDEST PUSH0 DUP4 PUSH9 0x3635C9ADC5DEA00000 PUSH2 0x1ABC SWAP2 SWAP1 PUSH2 0x578B JUMP JUMPDEST SWAP1 POP PUSH32 0x0 PUSH20 0xFFFFFFFFFFFFFFFFFFFFFFFFFFFFFFFFFFFFFFFF AND PUSH4 0x23B872DD CALLER ADDRESS DUP5 PUSH1 0x40 MLOAD DUP5 PUSH4 0xFFFFFFFF AND PUSH1 0xE0 SHL DUP2 MSTORE PUSH1 0x4 ADD PUSH2 0x1B1B SWAP4 SWAP3 SWAP2 SWAP1 PUSH2 0x57CC JUMP JUMPDEST PUSH1 0x20 PUSH1 0x40 MLOAD DUP1 DUP4 SUB DUP2 PUSH0 DUP8 GAS CALL ISZERO DUP1 ISZERO PUSH2 0x1B37 JUMPI RETURNDATASIZE PUSH0 PUSH0 RETURNDATACOPY RETURNDATASIZE PUSH0 REVERT JUMPDEST POP POP POP POP PUSH1 0x40 MLOAD RETURNDATASIZE PUSH1 0x1F NOT PUSH1 0x1F DUP3 ADD AND DUP3 ADD DUP1 PUSH1 0x40 MSTORE POP DUP2 ADD SWAP1 PUSH2 0x1B5B SWAP2 SWAP1 PUSH2 0x5277 JUMP JUMPDEST PUSH2 0x1B9A JUMPI PUSH1 0x40 MLOAD PUSH32 0x8C379A000000000000000000000000000000000000000000000000000000000 DUP2 MSTORE PUSH1 0x4 ADD PUSH2 0x1B91 SWAP1 PUSH2 0x584B JUMP JUMPDEST PUSH1 0x40 MLOAD DUP1 SWAP2 SUB SWAP1 REVERT JUMPDEST PUSH2 0x1BB4 DUP4 DUP7 DUP7 PUSH1 0x40 MLOAD DUP1 PUSH1 0x20 ADD PUSH1 0x40 MSTORE DUP1 PUSH0 DUP2 MSTORE POP PUSH2 0x2C25 JUMP JUMPDEST DUP4 DUP3 PUSH1 0x2 ADD PUSH0 DUP3 DUP3 SLOAD PUSH2 0x1BC7 SWAP2 SWAP1 PUSH2 0x56F0 JUMP JUMPDEST SWAP3 POP POP DUP2 SWAP1 SSTORE POP PUSH1 0x8 PUSH0 SWAP1 SLOAD SWAP1 PUSH2 0x100 EXP SWAP1 DIV PUSH1 0xFF AND DUP1 ISZERO PUSH2 0x1BF0 JUMPI POP DUP2 PUSH1 0x1 ADD SLOAD DUP3 PUSH1 0x2 ADD SLOAD EQ JUMPDEST ISZERO PUSH2 0x1C56 JUMPI PUSH1 0x1 DUP3 PUSH1 0x7 ADD PUSH0 PUSH2 0x100 EXP DUP2 SLOAD DUP2 PUSH1 0xFF MUL NOT AND SWAP1 DUP4 ISZERO ISZERO MUL OR SWAP1 SSTORE POP CALLER PUSH20 0xFFFFFFFFFFFFFFFFFFFFFFFFFFFFFFFFFFFFFFFF AND DUP6 PUSH32 0x791049DF3FAADBDA0C00EC3E469CE592F100F0D6664511FA7AC1AB33BF0AAFDA PUSH1 0x40 MLOAD PUSH1 0x40 MLOAD DUP1 SWAP2 SUB SWAP1 LOG3 JUMPDEST DUP3 PUSH20 0xFFFFFFFFFFFFFFFFFFFFFFFFFFFFFFFFFFFFFFFF AND DUP6 PUSH32 0x3D84DAD86EC01E872844B9AE95F6F1A174D221D8CFCAE55CB716340A8A10B62E DUP7 PUSH1 0x40 MLOAD PUSH2 0x1C9D SWAP2 SWAP1 PUSH2 0x3B2D JUMP JUMPDEST PUSH1 0x40 MLOAD DUP1 SWAP2 SUB SWAP1 LOG3 POP POP POP POP POP JUMP JUMPDEST PUSH0 PUSH1 0x3 PUSH0 DUP5 DUP2 MSTORE PUSH1 0x20 ADD SWAP1 DUP2 MSTORE PUSH1 0x20 ADD PUSH0 KECCAK256 PUSH0 ADD PUSH0 DUP4 PUSH20 0xFFFFFFFFFFFFFFFFFFFFFFFFFFFFFFFFFFFFFFFF AND PUSH20 0xFFFFFFFFFFFFFFFFFFFFFFFFFFFFFFFFFFFFFFFF AND DUP2 MSTORE PUSH1 0x20 ADD SWAP1 DUP2 MSTORE PUSH1 0x20 ADD PUSH0 KECCAK256 PUSH0 SWAP1 SLOAD SWAP1 PUSH2 0x100 EXP SWAP1 DIV PUSH1 0xFF AND SWAP1 POP SWAP3 SWAP2 POP POP JUMP JUMPDEST PUSH32 0xCC2F8959DB5AA7145F7501EAEC600C5DFB2790E04849110B57AF9E144057487B DUP2 JUMP JUMPDEST PUSH0 PUSH0 SHL DUP2 JUMP JUMPDEST PUSH2 0x1D4C PUSH2 0x1D45 PUSH2 0x2930 JUMP JUMPDEST DUP4 DUP4 PUSH2 0x2CBA JUMP JUMPDEST POP POP JUMP JUMPDEST PUSH0 PUSH0 DUP7 GT PUSH2 0x1D93 JUMPI PUSH1 0x40 MLOAD PUSH32 0x8C379A000000000000000000000000000000000000000000000000000000000 DUP2 MSTORE PUSH1 0x4 ADD PUSH2 0x1D8A SWAP1 PUSH2 0x58B3 JUMP JUMPDEST PUSH1 0x40 MLOAD DUP1 SWAP2 SUB SWAP1 REVERT JUMPDEST PUSH1 0x5 DUP5 PUSH1 0x40 MLOAD PUSH2 0x1DA3 SWAP2 SWAP1 PUSH2 0x4930 JUMP JUMPDEST SWAP1 DUP2 MSTORE PUSH1 0x20 ADD PUSH1 0x40 MLOAD DUP1 SWAP2 SUB SWAP1 KECCAK256 PUSH0 SWAP1 SLOAD SWAP1 PUSH2 0x100 EXP SWAP1 DIV PUSH1 0xFF AND ISZERO PUSH2 0x1DFE JUMPI PUSH1 0x40 MLOAD PUSH32 0x8C379A000000000000000000000000000000000000000000000000000000000 DUP2 MSTORE PUSH1 0x4 ADD PUSH2 0x1DF5 SWAP1 PUSH2 0x591B JUMP JUMPDEST PUSH1 0x40 MLOAD DUP1 SWAP2 SUB SWAP1 REVERT JUMPDEST PUSH1 0x8 PUSH0 SWAP1 SLOAD SWAP1 PUSH2 0x100 EXP SWAP1 DIV PUSH1 0xFF AND PUSH2 0x1EBD JUMPI PUSH0 PUSH20 0xFFFFFFFFFFFFFFFFFFFFFFFFFFFFFFFFFFFFFFFF AND PUSH1 0x6 DUP4 PUSH1 0x40 MLOAD PUSH2 0x1E38 SWAP2 SWAP1 PUSH2 0x4930 JUMP JUMPDEST SWAP1 DUP2 MSTORE PUSH1 0x20 ADD PUSH1 0x40 MLOAD DUP1 SWAP2 SUB SWAP1 KECCAK256 PUSH0 SWAP1 SLOAD SWAP1 PUSH2 0x100 EXP SWAP1 DIV PUSH20 0xFFFFFFFFFFFFFFFFFFFFFFFFFFFFFFFFFFFFFFFF AND PUSH20 0xFFFFFFFFFFFFFFFFFFFFFFFFFFFFFFFFFFFFFFFF AND SUB PUSH2 0x1EBC JUMPI PUSH1 0x40 MLOAD PUSH32 0x8C379A000000000000000000000000000000000000000000000000000000000 DUP2 MSTORE PUSH1 0x4 ADD PUSH2 0x1EB3 SWAP1 PUSH2 0x5983 JUMP JUMPDEST PUSH1 0x40 MLOAD DUP1 SWAP2 SUB SWAP1 REVERT JUMPDEST JUMPDEST PUSH0 DUP5 PUSH1 0x40 MLOAD PUSH1 0x20 ADD PUSH2 0x1ECF SWAP2 SWAP1 PUSH2 0x4930 JUMP JUMPDEST PUSH1 0x40 MLOAD PUSH1 0x20 DUP2 DUP4 SUB SUB DUP2 MSTORE SWAP1 PUSH1 0x40 MSTORE DUP1 MLOAD SWAP1 PUSH1 0x20 ADD KECCAK256 PUSH0 SHR SWAP1 POP PUSH1 0x40 MLOAD DUP1 PUSH2 0x120 ADD PUSH1 0x40 MSTORE DUP1 DUP10 DUP2 MSTORE PUSH1 0x20 ADD DUP9 DUP2 MSTORE PUSH1 0x20 ADD PUSH0 DUP2 MSTORE PUSH1 0x20 ADD DUP8 DUP2 MSTORE PUSH1 0x20 ADD DUP7 DUP2 MSTORE PUSH1 0x20 ADD DUP6 DUP2 MSTORE PUSH1 0x20 ADD DUP5 DUP2 MSTORE PUSH1 0x20 ADD PUSH1 0x8 PUSH0 SWAP1 SLOAD SWAP1 PUSH2 0x100 EXP SWAP1 DIV PUSH1 0xFF AND ISZERO ISZERO DUP2 MSTORE PUSH1 0x20 ADD CALLER PUSH20 0xFFFFFFFFFFFFFFFFFFFFFFFFFFFFFFFFFFFFFFFF AND DUP2 MSTORE POP PUSH1 0x4 PUSH0 DUP4 DUP2 MSTORE PUSH1 0x20 ADD SWAP1 DUP2 MSTORE PUSH1 0x20 ADD PUSH0 KECCAK256 PUSH0 DUP3 ADD MLOAD DUP2 PUSH0 ADD SWAP1 DUP2 PUSH2 0x1F73 SWAP2 SWAP1 PUSH2 0x5B26 JUMP JUMPDEST POP PUSH1 0x20 DUP3 ADD MLOAD DUP2 PUSH1 0x1 ADD SSTORE PUSH1 0x40 DUP3 ADD MLOAD DUP2 PUSH1 0x2 ADD SSTORE PUSH1 0x60 DUP3 ADD MLOAD DUP2 PUSH1 0x3 ADD SWAP1 DUP2 PUSH2 0x1F9D SWAP2 SWAP1 PUSH2 0x5B26 JUMP JUMPDEST POP PUSH1 0x80 DUP3 ADD MLOAD DUP2 PUSH1 0x4 ADD SWAP1 DUP2 PUSH2 0x1FB3 SWAP2 SWAP1 PUSH2 0x5B26 JUMP JUMPDEST POP PUSH1 0xA0 DUP3 ADD MLOAD DUP2 PUSH1 0x5 ADD SWAP1 DUP2 PUSH2 0x1FC9 SWAP2 SWAP1 PUSH2 0x5B26 JUMP JUMPDEST POP PUSH1 0xC0 DUP3 ADD MLOAD DUP2 PUSH1 0x6 ADD SWAP1 DUP2 PUSH2 0x1FDF SWAP2 SWAP1 PUSH2 0x5B26 JUMP JUMPDEST POP PUSH1 0xE0 DUP3 ADD MLOAD DUP2 PUSH1 0x7 ADD PUSH0 PUSH2 0x100 EXP DUP2 SLOAD DUP2 PUSH1 0xFF MUL NOT AND SWAP1 DUP4 ISZERO ISZERO MUL OR SWAP1 SSTORE POP PUSH2 0x100 DUP3 ADD MLOAD DUP2 PUSH1 0x7 ADD PUSH1 0x1 PUSH2 0x100 EXP DUP2 SLOAD DUP2 PUSH20 0xFFFFFFFFFFFFFFFFFFFFFFFFFFFFFFFFFFFFFFFF MUL NOT AND SWAP1 DUP4 PUSH20 0xFFFFFFFFFFFFFFFFFFFFFFFFFFFFFFFFFFFFFFFF AND MUL OR SWAP1 SSTORE POP SWAP1 POP POP PUSH1 0x1 PUSH1 0x5 DUP7 PUSH1 0x40 MLOAD PUSH2 0x205C SWAP2 SWAP1 PUSH2 0x4930 JUMP JUMPDEST SWAP1 DUP2 MSTORE PUSH1 0x20 ADD PUSH1 0x40 MLOAD DUP1 SWAP2 SUB SWAP1 KECCAK256 PUSH0 PUSH2 0x100 EXP DUP2 SLOAD DUP2 PUSH1 0xFF MUL NOT AND SWAP1 DUP4 ISZERO ISZERO MUL OR SWAP1 SSTORE POP CALLER PUSH20 0xFFFFFFFFFFFFFFFFFFFFFFFFFFFFFFFFFFFFFFFF AND DUP2 PUSH32 0x31182F6909026C6BEB17A5F7D86CE8DFD6C60AEB1D2DF4EF2250E326B10A1AE6 DUP8 DUP7 PUSH1 0x40 MLOAD PUSH2 0x20C9 SWAP3 SWAP2 SWAP1 PUSH2 0x5BF5 JUMP JUMPDEST PUSH1 0x40 MLOAD DUP1 SWAP2 SUB SWAP1 LOG3 PUSH1 0x8 PUSH0 SWAP1 SLOAD SWAP1 PUSH2 0x100 EXP SWAP1 DIV PUSH1 0xFF AND ISZERO PUSH2 0x212A JUMPI CALLER PUSH20 0xFFFFFFFFFFFFFFFFFFFFFFFFFFFFFFFFFFFFFFFF AND DUP2 PUSH32 0x791049DF3FAADBDA0C00EC3E469CE592F100F0D6664511FA7AC1AB33BF0AAFDA PUSH1 0x40 MLOAD PUSH1 0x40 MLOAD DUP1 SWAP2 SUB SWAP1 LOG3 JUMPDEST DUP1 SWAP2 POP POP SWAP7 SWAP6 POP POP POP POP POP POP JUMP JUMPDEST PUSH32 0xDB280AA9D0AD630B4F4BDBA2EBC3FB77A4F5A9F682E532996A7908B449BD1E26 PUSH2 0x2162 DUP2 PUSH2 0x291C JUMP JUMPDEST PUSH0 PUSH20 0xFFFFFFFFFFFFFFFFFFFFFFFFFFFFFFFFFFFFFFFF AND DUP3 PUSH20 0xFFFFFFFFFFFFFFFFFFFFFFFFFFFFFFFFFFFFFFFF AND SUB PUSH2 0x21D0 JUMPI PUSH1 0x40 MLOAD PUSH32 0x8C379A000000000000000000000000000000000000000000000000000000000 DUP2 MSTORE PUSH1 0x4 ADD PUSH2 0x21C7 SWAP1 PUSH2 0x5C74 JUMP JUMPDEST PUSH1 0x40 MLOAD DUP1 SWAP2 SUB SWAP1 REVERT JUMPDEST PUSH0 PUSH20 0xFFFFFFFFFFFFFFFFFFFFFFFFFFFFFFFFFFFFFFFF AND PUSH1 0x6 DUP5 PUSH1 0x40 MLOAD PUSH2 0x21F7 SWAP2 SWAP1 PUSH2 0x4930 JUMP JUMPDEST SWAP1 DUP2 MSTORE PUSH1 0x20 ADD PUSH1 0x40 MLOAD DUP1 SWAP2 SUB SWAP1 KECCAK256 PUSH0 SWAP1 SLOAD SWAP1 PUSH2 0x100 EXP SWAP1 DIV PUSH20 0xFFFFFFFFFFFFFFFFFFFFFFFFFFFFFFFFFFFFFFFF AND PUSH20 0xFFFFFFFFFFFFFFFFFFFFFFFFFFFFFFFFFFFFFFFF AND EQ PUSH2 0x227B JUMPI PUSH1 0x40 MLOAD PUSH32 0x8C379A000000000000000000000000000000000000000000000000000000000 DUP2 MSTORE PUSH1 0x4 ADD PUSH2 0x2272 SWAP1 PUSH2 0x5CDC JUMP JUMPDEST PUSH1 0x40 MLOAD DUP1 SWAP2 SUB SWAP1 REVERT JUMPDEST DUP2 PUSH1 0x6 DUP5 PUSH1 0x40 MLOAD PUSH2 0x228C SWAP2 SWAP1 PUSH2 0x4930 JUMP JUMPDEST SWAP1 DUP2 MSTORE PUSH1 0x20 ADD PUSH1 0x40 MLOAD DUP1 SWAP2 SUB SWAP1 KECCAK256 PUSH0 PUSH2 0x100 EXP DUP2 SLOAD DUP2 PUSH20 0xFFFFFFFFFFFFFFFFFFFFFFFFFFFFFFFFFFFFFFFF MUL NOT AND SWAP1 DUP4 PUSH20 0xFFFFFFFFFFFFFFFFFFFFFFFFFFFFFFFFFFFFFFFF AND MUL OR SWAP1 SSTORE POP PUSH32 0x2DEC6485CDB27FD8AB4DC5D2B2668F203CD20BCA5002445BA8C9F374861AE411 DUP4 DUP4 PUSH1 0x40 MLOAD PUSH2 0x2308 SWAP3 SWAP2 SWAP1 PUSH2 0x5CFA JUMP JUMPDEST PUSH1 0x40 MLOAD DUP1 SWAP2 SUB SWAP1 LOG1 POP POP POP JUMP JUMPDEST PUSH2 0x231E DUP3 PUSH2 0xEA9 JUMP JUMPDEST PUSH2 0x2327 DUP2 PUSH2 0x291C JUMP JUMPDEST PUSH2 0x2331 DUP4 DUP4 PUSH2 0x2B15 JUMP JUMPDEST POP POP POP POP JUMP JUMPDEST PUSH32 0xA1496C3ABF9CD93B84DB10AE569B57FAFA04DEEEB7ECE4167616AD50E35BC56E DUP2 JUMP JUMPDEST PUSH0 PUSH1 0x1 PUSH0 DUP5 PUSH20 0xFFFFFFFFFFFFFFFFFFFFFFFFFFFFFFFFFFFFFFFF AND PUSH20 0xFFFFFFFFFFFFFFFFFFFFFFFFFFFFFFFFFFFFFFFF AND DUP2 MSTORE PUSH1 0x20 ADD SWAP1 DUP2 MSTORE PUSH1 0x20 ADD PUSH0 KECCAK256 PUSH0 DUP4 PUSH20 0xFFFFFFFFFFFFFFFFFFFFFFFFFFFFFFFFFFFFFFFF AND PUSH20 0xFFFFFFFFFFFFFFFFFFFFFFFFFFFFFFFFFFFFFFFF AND DUP2 MSTORE PUSH1 0x20 ADD SWAP1 DUP2 MSTORE PUSH1 0x20 ADD PUSH0 KECCAK256 PUSH0 SWAP1 SLOAD SWAP1 PUSH2 0x100 EXP SWAP1 DIV PUSH1 0xFF AND SWAP1 POP SWAP3 SWAP2 POP POP JUMP JUMPDEST PUSH0 PUSH2 0x23F2 PUSH2 0x2930 JUMP JUMPDEST SWAP1 POP DUP1 PUSH20 0xFFFFFFFFFFFFFFFFFFFFFFFFFFFFFFFFFFFFFFFF AND DUP7 PUSH20 0xFFFFFFFFFFFFFFFFFFFFFFFFFFFFFFFFFFFFFFFF AND EQ ISZERO DUP1 ISZERO PUSH2 0x2437 JUMPI POP PUSH2 0x2435 DUP7 DUP3 PUSH2 0x235B JUMP JUMPDEST ISZERO JUMPDEST ISZERO PUSH2 0x247B JUMPI DUP1 DUP7 PUSH1 0x40 MLOAD PUSH32 0xE237D92200000000000000000000000000000000000000000000000000000000 DUP2 MSTORE PUSH1 0x4 ADD PUSH2 0x2472 SWAP3 SWAP2 SWAP1 PUSH2 0x530A JUMP JUMPDEST PUSH1 0x40 MLOAD DUP1 SWAP2 SUB SWAP1 REVERT JUMPDEST PUSH2 0x2488 DUP7 DUP7 DUP7 DUP7 DUP7 PUSH2 0x2E23 JUMP JUMPDEST POP POP POP POP POP POP JUMP JUMPDEST PUSH1 0x4 PUSH1 0x20 MSTORE DUP1 PUSH0 MSTORE PUSH1 0x40 PUSH0 KECCAK256 PUSH0 SWAP2 POP SWAP1 POP DUP1 PUSH0 ADD DUP1 SLOAD PUSH2 0x24AF SWAP1 PUSH2 0x4973 JUMP JUMPDEST DUP1 PUSH1 0x1F ADD PUSH1 0x20 DUP1 SWAP2 DIV MUL PUSH1 0x20 ADD PUSH1 0x40 MLOAD SWAP1 DUP2 ADD PUSH1 0x40 MSTORE DUP1 SWAP3 SWAP2 SWAP1 DUP2 DUP2 MSTORE PUSH1 0x20 ADD DUP3 DUP1 SLOAD PUSH2 0x24DB SWAP1 PUSH2 0x4973 JUMP JUMPDEST DUP1 ISZERO PUSH2 0x2526 JUMPI DUP1 PUSH1 0x1F LT PUSH2 0x24FD JUMPI PUSH2 0x100 DUP1 DUP4 SLOAD DIV MUL DUP4 MSTORE SWAP2 PUSH1 0x20 ADD SWAP2 PUSH2 0x2526 JUMP JUMPDEST DUP3 ADD SWAP2 SWAP1 PUSH0 MSTORE PUSH1 0x20 PUSH0 KECCAK256 SWAP1 JUMPDEST DUP2 SLOAD DUP2 MSTORE SWAP1 PUSH1 0x1 ADD SWAP1 PUSH1 0x20 ADD DUP1 DUP4 GT PUSH2 0x2509 JUMPI DUP3 SWAP1 SUB PUSH1 0x1F AND DUP3 ADD SWAP2 JUMPDEST POP POP POP POP POP SWAP1 DUP1 PUSH1 0x1 ADD SLOAD SWAP1 DUP1 PUSH1 0x2 ADD SLOAD SWAP1 DUP1 PUSH1 0x3 ADD DUP1 SLOAD PUSH2 0x2547 SWAP1 PUSH2 0x4973 JUMP JUMPDEST DUP1 PUSH1 0x1F ADD PUSH1 0x20 DUP1 SWAP2 DIV MUL PUSH1 0x20 ADD PUSH1 0x40 MLOAD SWAP1 DUP2 ADD PUSH1 0x40 MSTORE DUP1 SWAP3 SWAP2 SWAP1 DUP2 DUP2 MSTORE PUSH1 0x20 ADD DUP3 DUP1 SLOAD PUSH2 0x2573 SWAP1 PUSH2 0x4973 JUMP JUMPDEST DUP1 ISZERO PUSH2 0x25BE JUMPI DUP1 PUSH1 0x1F LT PUSH2 0x2595 JUMPI PUSH2 0x100 DUP1 DUP4 SLOAD DIV MUL DUP4 MSTORE SWAP2 PUSH1 0x20 ADD SWAP2 PUSH2 0x25BE JUMP JUMPDEST DUP3 ADD SWAP2 SWAP1 PUSH0 MSTORE PUSH1 0x20 PUSH0 KECCAK256 SWAP1 JUMPDEST DUP2 SLOAD DUP2 MSTORE SWAP1 PUSH1 0x1 ADD SWAP1 PUSH1 0x20 ADD DUP1 DUP4 GT PUSH2 0x25A1 JUMPI DUP3 SWAP1 SUB PUSH1 0x1F AND DUP3 ADD SWAP2 JUMPDEST POP POP POP POP POP SWAP1 DUP1 PUSH1 0x4 ADD DUP1 SLOAD PUSH2 0x25D3 SWAP1 PUSH2 0x4973 JUMP JUMPDEST DUP1 PUSH1 0x1F ADD PUSH1 0x20 DUP1 SWAP2 DIV MUL PUSH1 0x20 ADD PUSH1 0x40 MLOAD SWAP1 DUP2 ADD PUSH1 0x40 MSTORE DUP1 SWAP3 SWAP2 SWAP1 DUP2 DUP2 MSTORE PUSH1 0x20 ADD DUP3 DUP1 SLOAD PUSH2 0x25FF SWAP1 PUSH2 0x4973 JUMP JUMPDEST DUP1 ISZERO PUSH2 0x264A JUMPI DUP1 PUSH1 0x1F LT PUSH2 0x2621 JUMPI PUSH2 0x100 DUP1 DUP4 SLOAD DIV MUL DUP4 MSTORE SWAP2 PUSH1 0x20 ADD SWAP2 PUSH2 0x264A JUMP JUMPDEST DUP3 ADD SWAP2 SWAP1 PUSH0 MSTORE PUSH1 0x20 PUSH0 KECCAK256 SWAP1 JUMPDEST DUP2 SLOAD DUP2 MSTORE SWAP1 PUSH1 0x1 ADD SWAP1 PUSH1 0x20 ADD DUP1 DUP4 GT PUSH2 0x262D JUMPI DUP3 SWAP1 SUB PUSH1 0x1F AND DUP3 ADD SWAP2 JUMPDEST POP POP POP POP POP SWAP1 DUP1 PUSH1 0x5 ADD DUP1 SLOAD PUSH2 0x265F SWAP1 PUSH2 0x4973 JUMP JUMPDEST DUP1 PUSH1 0x1F ADD PUSH1 0x20 DUP1 SWAP2 DIV MUL PUSH1 0x20 ADD PUSH1 0x40 MLOAD SWAP1 DUP2 ADD PUSH1 0x40 MSTORE DUP1 SWAP3 SWAP2 SWAP1 DUP2 DUP2 MSTORE PUSH1 0x20 ADD DUP3 DUP1 SLOAD PUSH2 0x268B SWAP1 PUSH2 0x4973 JUMP JUMPDEST DUP1 ISZERO PUSH2 0x26D6 JUMPI DUP1 PUSH1 0x1F LT PUSH2 0x26AD JUMPI PUSH2 0x100 DUP1 DUP4 SLOAD DIV MUL DUP4 MSTORE SWAP2 PUSH1 0x20 ADD SWAP2 PUSH2 0x26D6 JUMP JUMPDEST DUP3 ADD SWAP2 SWAP1 PUSH0 MSTORE PUSH1 0x20 PUSH0 KECCAK256 SWAP1 JUMPDEST DUP2 SLOAD DUP2 MSTORE SWAP1 PUSH1 0x1 ADD SWAP1 PUSH1 0x20 ADD DUP1 DUP4 GT PUSH2 0x26B9 JUMPI DUP3 SWAP1 SUB PUSH1 0x1F AND DUP3 ADD SWAP2 JUMPDEST POP POP POP POP POP SWAP1 DUP1 PUSH1 0x6 ADD DUP1 SLOAD PUSH2 0x26EB SWAP1 PUSH2 0x4973 JUMP JUMPDEST DUP1 PUSH1 0x1F ADD PUSH1 0x20 DUP1 SWAP2 DIV MUL PUSH1 0x20 ADD PUSH1 0x40 MLOAD SWAP1 DUP2 ADD PUSH1 0x40 MSTORE DUP1 SWAP3 SWAP2 SWAP1 DUP2 DUP2 MSTORE PUSH1 0x20 ADD DUP3 DUP1 SLOAD PUSH2 0x2717 SWAP1 PUSH2 0x4973 JUMP JUMPDEST DUP1 ISZERO PUSH2 0x2762 JUMPI DUP1 PUSH1 0x1F LT PUSH2 0x2739 JUMPI PUSH2 0x100 DUP1 DUP4 SLOAD DIV MUL DUP4 MSTORE SWAP2 PUSH1 0x20 ADD SWAP2 PUSH2 0x2762 JUMP JUMPDEST DUP3 ADD SWAP2 SWAP1 PUSH0 MSTORE PUSH1 0x20 PUSH0 KECCAK256 SWAP1 JUMPDEST DUP2 SLOAD DUP2 MSTORE SWAP1 PUSH1 0x1 ADD SWAP1 PUSH1 0x20 ADD DUP1 DUP4 GT PUSH2 0x2745 JUMPI DUP3 SWAP1 SUB PUSH1 0x1F AND DUP3 ADD SWAP2 JUMPDEST POP POP POP POP POP SWAP1 DUP1 PUSH1 0x7 ADD PUSH0 SWAP1 SLOAD SWAP1 PUSH2 0x100 EXP SWAP1 DIV PUSH1 0xFF AND SWAP1 DUP1 PUSH1 0x7 ADD PUSH1 0x1 SWAP1 SLOAD SWAP1 PUSH2 0x100 EXP SWAP1 DIV PUSH20 0xFFFFFFFFFFFFFFFFFFFFFFFFFFFFFFFFFFFFFFFF AND SWAP1 POP DUP10 JUMP JUMPDEST PUSH1 0x5 DUP2 DUP1 MLOAD PUSH1 0x20 DUP2 ADD DUP3 ADD DUP1 MLOAD DUP5 DUP3 MSTORE PUSH1 0x20 DUP4 ADD PUSH1 0x20 DUP6 ADD KECCAK256 DUP2 DUP4 MSTORE DUP1 SWAP6 POP POP POP POP POP POP PUSH0 SWAP2 POP SLOAD SWAP1 PUSH2 0x100 EXP SWAP1 DIV PUSH1 0xFF AND DUP2 JUMP JUMPDEST PUSH0 PUSH32 0x7965DB0B00000000000000000000000000000000000000000000000000000000 PUSH28 0xFFFFFFFFFFFFFFFFFFFFFFFFFFFFFFFFFFFFFFFFFFFFFFFFFFFFFFFF NOT AND DUP3 PUSH28 0xFFFFFFFFFFFFFFFFFFFFFFFFFFFFFFFFFFFFFFFFFFFFFFFFFFFFFFFF NOT AND EQ DUP1 PUSH2 0x284B JUMPI POP PUSH2 0x284A DUP3 PUSH2 0x2F29 JUMP JUMPDEST JUMPDEST SWAP1 POP SWAP2 SWAP1 POP JUMP JUMPDEST PUSH1 0x60 PUSH0 PUSH1 0x1 PUSH2 0x2860 DUP5 PUSH2 0x300A JUMP JUMPDEST ADD SWAP1 POP PUSH0 DUP2 PUSH8 0xFFFFFFFFFFFFFFFF DUP2 GT ISZERO PUSH2 0x287E JUMPI PUSH2 0x287D PUSH2 0x3C11 JUMP JUMPDEST JUMPDEST PUSH1 0x40 MLOAD SWAP1 DUP1 DUP3 MSTORE DUP1 PUSH1 0x1F ADD PUSH1 0x1F NOT AND PUSH1 0x20 ADD DUP3 ADD PUSH1 0x40 MSTORE DUP1 ISZERO PUSH2 0x28B0 JUMPI DUP2 PUSH1 0x20 ADD PUSH1 0x1 DUP3 MUL DUP1 CALLDATASIZE DUP4 CALLDATACOPY DUP1 DUP3 ADD SWAP2 POP POP SWAP1 POP JUMPDEST POP SWAP1 POP PUSH0 DUP3 PUSH1 0x20 ADD DUP3 ADD SWAP1 POP JUMPDEST PUSH1 0x1 ISZERO PUSH2 0x2911 JUMPI DUP1 DUP1 PUSH1 0x1 SWAP1 SUB SWAP2 POP POP PUSH32 0x3031323334353637383961626364656600000000000000000000000000000000 PUSH1 0xA DUP7 MOD BYTE DUP2 MSTORE8 PUSH1 0xA DUP6 DUP2 PUSH2 0x2906 JUMPI PUSH2 0x2905 PUSH2 0x5D28 JUMP JUMPDEST JUMPDEST DIV SWAP5 POP PUSH0 DUP6 SUB PUSH2 0x28BD JUMPI JUMPDEST DUP2 SWAP4 POP POP POP POP SWAP2 SWAP1 POP JUMP JUMPDEST PUSH2 0x292D DUP2 PUSH2 0x2928 PUSH2 0x2930 JUMP JUMPDEST PUSH2 0x315B JUMP JUMPDEST POP JUMP JUMPDEST PUSH0 CALLER SWAP1 POP SWAP1 JUMP JUMPDEST PUSH0 PUSH20 0xFFFFFFFFFFFFFFFFFFFFFFFFFFFFFFFFFFFFFFFF AND DUP5 PUSH20 0xFFFFFFFFFFFFFFFFFFFFFFFFFFFFFFFFFFFFFFFF AND SUB PUSH2 0x29A7 JUMPI PUSH0 PUSH1 0x40 MLOAD PUSH32 0x57F447CE00000000000000000000000000000000000000000000000000000000 DUP2 MSTORE PUSH1 0x4 ADD PUSH2 0x299E SWAP2 SWAP1 PUSH2 0x3D8B JUMP JUMPDEST PUSH1 0x40 MLOAD DUP1 SWAP2 SUB SWAP1 REVERT JUMPDEST PUSH0 PUSH20 0xFFFFFFFFFFFFFFFFFFFFFFFFFFFFFFFFFFFFFFFF AND DUP6 PUSH20 0xFFFFFFFFFFFFFFFFFFFFFFFFFFFFFFFFFFFFFFFF AND SUB PUSH2 0x2A17 JUMPI PUSH0 PUSH1 0x40 MLOAD PUSH32 0x1A8351400000000000000000000000000000000000000000000000000000000 DUP2 MSTORE PUSH1 0x4 ADD PUSH2 0x2A0E SWAP2 SWAP1 PUSH2 0x3D8B JUMP JUMPDEST PUSH1 0x40 MLOAD DUP1 SWAP2 SUB SWAP1 REVERT JUMPDEST PUSH2 0x2A24 DUP6 DUP6 DUP6 DUP6 DUP6 PUSH2 0x31AC JUMP JUMPDEST POP POP POP POP POP JUMP JUMPDEST PUSH0 PUSH2 0x2A36 DUP4 DUP4 PUSH2 0x1CAC JUMP JUMPDEST PUSH2 0x2B0B JUMPI PUSH1 0x1 PUSH1 0x3 PUSH0 DUP6 DUP2 MSTORE PUSH1 0x20 ADD SWAP1 DUP2 MSTORE PUSH1 0x20 ADD PUSH0 KECCAK256 PUSH0 ADD PUSH0 DUP5 PUSH20 0xFFFFFFFFFFFFFFFFFFFFFFFFFFFFFFFFFFFFFFFF AND PUSH20 0xFFFFFFFFFFFFFFFFFFFFFFFFFFFFFFFFFFFFFFFF AND DUP2 MSTORE PUSH1 0x20 ADD SWAP1 DUP2 MSTORE PUSH1 0x20 ADD PUSH0 KECCAK256 PUSH0 PUSH2 0x100 EXP DUP2 SLOAD DUP2 PUSH1 0xFF MUL NOT AND SWAP1 DUP4 ISZERO ISZERO MUL OR SWAP1 SSTORE POP PUSH2 0x2AA8 PUSH2 0x2930 JUMP JUMPDEST PUSH20 0xFFFFFFFFFFFFFFFFFFFFFFFFFFFFFFFFFFFFFFFF AND DUP3 PUSH20 0xFFFFFFFFFFFFFFFFFFFFFFFFFFFFFFFFFFFFFFFF AND DUP5 PUSH32 0x2F8788117E7EFF1D82E926EC794901D17C78024A50270940304540A733656F0D PUSH1 0x40 MLOAD PUSH1 0x40 MLOAD DUP1 SWAP2 SUB SWAP1 LOG4 PUSH1 0x1 SWAP1 POP PUSH2 0x2B0F JUMP JUMPDEST PUSH0 SWAP1 POP JUMPDEST SWAP3 SWAP2 POP POP JUMP JUMPDEST PUSH0 PUSH2 0x2B20 DUP4 DUP4 PUSH2 0x1CAC JUMP JUMPDEST ISZERO PUSH2 0x2BF5 JUMPI PUSH0 PUSH1 0x3 PUSH0 DUP6 DUP2 MSTORE PUSH1 0x20 ADD SWAP1 DUP2 MSTORE PUSH1 0x20 ADD PUSH0 KECCAK256 PUSH0 ADD PUSH0 DUP5 PUSH20 0xFFFFFFFFFFFFFFFFFFFFFFFFFFFFFFFFFFFFFFFF AND PUSH20 0xFFFFFFFFFFFFFFFFFFFFFFFFFFFFFFFFFFFFFFFF AND DUP2 MSTORE PUSH1 0x20 ADD SWAP1 DUP2 MSTORE PUSH1 0x20 ADD PUSH0 KECCAK256 PUSH0 PUSH2 0x100 EXP DUP2 SLOAD DUP2 PUSH1 0xFF MUL NOT AND SWAP1 DUP4 ISZERO ISZERO MUL OR SWAP1 SSTORE POP PUSH2 0x2B92 PUSH2 0x2930 JUMP JUMPDEST PUSH20 0xFFFFFFFFFFFFFFFFFFFFFFFFFFFFFFFFFFFFFFFF AND DUP3 PUSH20 0xFFFFFFFFFFFFFFFFFFFFFFFFFFFFFFFFFFFFFFFF AND DUP5 PUSH32 0xF6391F5C32D9C69D2A47EA670B442974B53935D1EDC7FD64EB21E047A839171B PUSH1 0x40 MLOAD PUSH1 0x40 MLOAD DUP1 SWAP2 SUB SWAP1 LOG4 PUSH1 0x1 SWAP1 POP PUSH2 0x2BF9 JUMP JUMPDEST PUSH0 SWAP1 POP JUMPDEST SWAP3 SWAP2 POP POP JUMP JUMPDEST PUSH0 PUSH1 0x20 DUP3 MUL PUSH1 0x20 DUP5 ADD ADD MLOAD SWAP1 POP SWAP3 SWAP2 POP POP JUMP JUMPDEST PUSH0 PUSH1 0x20 DUP3 MUL PUSH1 0x20 DUP5 ADD ADD MLOAD SWAP1 POP SWAP3 SWAP2 POP POP JUMP JUMPDEST PUSH0 PUSH20 0xFFFFFFFFFFFFFFFFFFFFFFFFFFFFFFFFFFFFFFFF AND DUP5 PUSH20 0xFFFFFFFFFFFFFFFFFFFFFFFFFFFFFFFFFFFFFFFF AND SUB PUSH2 0x2C95 JUMPI PUSH0 PUSH1 0x40 MLOAD PUSH32 0x57F447CE00000000000000000000000000000000000000000000000000000000 DUP2 MSTORE PUSH1 0x4 ADD PUSH2 0x2C8C SWAP2 SWAP1 PUSH2 0x3D8B JUMP JUMPDEST PUSH1 0x40 MLOAD DUP1 SWAP2 SUB SWAP1 REVERT JUMPDEST PUSH0 PUSH0 PUSH2 0x2CA1 DUP6 DUP6 PUSH2 0x3258 JUMP JUMPDEST SWAP2 POP SWAP2 POP PUSH2 0x2CB2 PUSH0 DUP8 DUP5 DUP5 DUP8 PUSH2 0x31AC JUMP JUMPDEST POP POP POP POP POP POP JUMP JUMPDEST PUSH0 PUSH20 0xFFFFFFFFFFFFFFFFFFFFFFFFFFFFFFFFFFFFFFFF AND DUP3 PUSH20 0xFFFFFFFFFFFFFFFFFFFFFFFFFFFFFFFFFFFFFFFF AND SUB PUSH2 0x2D2A JUMPI PUSH0 PUSH1 0x40 MLOAD PUSH32 0xCED3E10000000000000000000000000000000000000000000000000000000000 DUP2 MSTORE PUSH1 0x4 ADD PUSH2 0x2D21 SWAP2 SWAP1 PUSH2 0x3D8B JUMP JUMPDEST PUSH1 0x40 MLOAD DUP1 SWAP2 SUB SWAP1 REVERT JUMPDEST DUP1 PUSH1 0x1 PUSH0 DUP6 PUSH20 0xFFFFFFFFFFFFFFFFFFFFFFFFFFFFFFFFFFFFFFFF AND PUSH20 0xFFFFFFFFFFFFFFFFFFFFFFFFFFFFFFFFFFFFFFFF AND DUP2 MSTORE PUSH1 0x20 ADD SWAP1 DUP2 MSTORE PUSH1 0x20 ADD PUSH0 KECCAK256 PUSH0 DUP5 PUSH20 0xFFFFFFFFFFFFFFFFFFFFFFFFFFFFFFFFFFFFFFFF AND PUSH20 0xFFFFFFFFFFFFFFFFFFFFFFFFFFFFFFFFFFFFFFFF AND DUP2 MSTORE PUSH1 0x20 ADD SWAP1 DUP2 MSTORE PUSH1 0x20 ADD PUSH0 KECCAK256 PUSH0 PUSH2 0x100 EXP DUP2 SLOAD DUP2 PUSH1 0xFF MUL NOT AND SWAP1 DUP4 ISZERO ISZERO MUL OR SWAP1 SSTORE POP DUP2 PUSH20 0xFFFFFFFFFFFFFFFFFFFFFFFFFFFFFFFFFFFFFFFF AND DUP4 PUSH20 0xFFFFFFFFFFFFFFFFFFFFFFFFFFFFFFFFFFFFFFFF AND PUSH32 0x17307EAB39AB6107E8899845AD3D59BD9653F200F220920489CA2B5937696C31 DUP4 PUSH1 0x40 MLOAD PUSH2 0x2E16 SWAP2 SWAP1 PUSH2 0x3BE0 JUMP JUMPDEST PUSH1 0x40 MLOAD DUP1 SWAP2 SUB SWAP1 LOG3 POP POP POP JUMP JUMPDEST PUSH0 PUSH20 0xFFFFFFFFFFFFFFFFFFFFFFFFFFFFFFFFFFFFFFFF AND DUP5 PUSH20 0xFFFFFFFFFFFFFFFFFFFFFFFFFFFFFFFFFFFFFFFF AND SUB PUSH2 0x2E93 JUMPI PUSH0 PUSH1 0x40 MLOAD PUSH32 0x57F447CE00000000000000000000000000000000000000000000000000000000 DUP2 MSTORE PUSH1 0x4 ADD PUSH2 0x2E8A SWAP2 SWAP1 PUSH2 0x3D8B JUMP JUMPDEST PUSH1 0x40 MLOAD DUP1 SWAP2 SUB SWAP1 REVERT JUMPDEST PUSH0 PUSH20 0xFFFFFFFFFFFFFFFFFFFFFFFFFFFFFFFFFFFFFFFF AND DUP6 PUSH20 0xFFFFFFFFFFFFFFFFFFFFFFFFFFFFFFFFFFFFFFFF AND SUB PUSH2 0x2F03 JUMPI PUSH0 PUSH1 0x40 MLOAD PUSH32 0x1A8351400000000000000000000000000000000000000000000000000000000 DUP2 MSTORE PUSH1 0x4 ADD PUSH2 0x2EFA SWAP2 SWAP1 PUSH2 0x3D8B JUMP JUMPDEST PUSH1 0x40 MLOAD DUP1 SWAP2 SUB SWAP1 REVERT JUMPDEST PUSH0 PUSH0 PUSH2 0x2F0F DUP6 DUP6 PUSH2 0x3258 JUMP JUMPDEST SWAP2 POP SWAP2 POP PUSH2 0x2F20 DUP8 DUP8 DUP5 DUP5 DUP8 PUSH2 0x31AC JUMP JUMPDEST POP POP POP POP POP POP POP JUMP JUMPDEST PUSH0 PUSH32 0xD9B67A2600000000000000000000000000000000000000000000000000000000 PUSH28 0xFFFFFFFFFFFFFFFFFFFFFFFFFFFFFFFFFFFFFFFFFFFFFFFFFFFFFFFF NOT AND DUP3 PUSH28 0xFFFFFFFFFFFFFFFFFFFFFFFFFFFFFFFFFFFFFFFFFFFFFFFFFFFFFFFF NOT AND EQ DUP1 PUSH2 0x2FF3 JUMPI POP PUSH32 0xE89341C00000000000000000000000000000000000000000000000000000000 PUSH28 0xFFFFFFFFFFFFFFFFFFFFFFFFFFFFFFFFFFFFFFFFFFFFFFFFFFFFFFFF NOT AND DUP3 PUSH28 0xFFFFFFFFFFFFFFFFFFFFFFFFFFFFFFFFFFFFFFFFFFFFFFFFFFFFFFFF NOT AND EQ JUMPDEST DUP1 PUSH2 0x3003 JUMPI POP PUSH2 0x3002 DUP3 PUSH2 0x3288 JUMP JUMPDEST JUMPDEST SWAP1 POP SWAP2 SWAP1 POP JUMP JUMPDEST PUSH0 PUSH0 PUSH0 SWAP1 POP PUSH27 0x184F03E93FF9F4DAA797ED6E38ED64BF6A1F010000000000000000 DUP4 LT PUSH2 0x3066 JUMPI PUSH27 0x184F03E93FF9F4DAA797ED6E38ED64BF6A1F010000000000000000 DUP4 DUP2 PUSH2 0x305C JUMPI PUSH2 0x305B PUSH2 0x5D28 JUMP JUMPDEST JUMPDEST DIV SWAP3 POP PUSH1 0x40 DUP2 ADD SWAP1 POP JUMPDEST PUSH14 0x4EE2D6D415B85ACEF8100000000 DUP4 LT PUSH2 0x30A3 JUMPI PUSH14 0x4EE2D6D415B85ACEF8100000000 DUP4 DUP2 PUSH2 0x3099 JUMPI PUSH2 0x3098 PUSH2 0x5D28 JUMP JUMPDEST JUMPDEST DIV SWAP3 POP PUSH1 0x20 DUP2 ADD SWAP1 POP JUMPDEST PUSH7 0x2386F26FC10000 DUP4 LT PUSH2 0x30D2 JUMPI PUSH7 0x2386F26FC10000 DUP4 DUP2 PUSH2 0x30C8 JUMPI PUSH2 0x30C7 PUSH2 0x5D28 JUMP JUMPDEST JUMPDEST DIV SWAP3 POP PUSH1 0x10 DUP2 ADD SWAP1 POP JUMPDEST PUSH4 0x5F5E100 DUP4 LT PUSH2 0x30FB JUMPI PUSH4 0x5F5E100 DUP4 DUP2 PUSH2 0x30F1 JUMPI PUSH2 0x30F0 PUSH2 0x5D28 JUMP JUMPDEST JUMPDEST DIV SWAP3 POP PUSH1 0x8 DUP2 ADD SWAP1 POP JUMPDEST PUSH2 0x2710 DUP4 LT PUSH2 0x3120 JUMPI PUSH2 0x2710 DUP4 DUP2 PUSH2 0x3116 JUMPI PUSH2 0x3115 PUSH2 0x5D28 JUMP JUMPDEST JUMPDEST DIV SWAP3 POP PUSH1 0x4 DUP2 ADD SWAP1 POP JUMPDEST PUSH1 0x64 DUP4 LT PUSH2 0x3143 JUMPI PUSH1 0x64 DUP4 DUP2 PUSH2 0x3139 JUMPI PUSH2 0x3138 PUSH2 0x5D28 JUMP JUMPDEST JUMPDEST DIV SWAP3 POP PUSH1 0x2 DUP2 ADD SWAP1 POP JUMPDEST PUSH1 0xA DUP4 LT PUSH2 0x3152 JUMPI PUSH1 0x1 DUP2 ADD SWAP1 POP JUMPDEST DUP1 SWAP2 POP POP SWAP2 SWAP1 POP JUMP JUMPDEST PUSH2 0x3165 DUP3 DUP3 PUSH2 0x1CAC JUMP JUMPDEST PUSH2 0x31A8 JUMPI DUP1 DUP3 PUSH1 0x40 MLOAD PUSH32 0xE2517D3F00000000000000000000000000000000000000000000000000000000 DUP2 MSTORE PUSH1 0x4 ADD PUSH2 0x319F SWAP3 SWAP2 SWAP1 PUSH2 0x5D55 JUMP JUMPDEST PUSH1 0x40 MLOAD DUP1 SWAP2 SUB SWAP1 REVERT JUMPDEST POP POP JUMP JUMPDEST PUSH2 0x31B8 DUP6 DUP6 DUP6 DUP6 PUSH2 0x32F1 JUMP JUMPDEST PUSH0 PUSH20 0xFFFFFFFFFFFFFFFFFFFFFFFFFFFFFFFFFFFFFFFF AND DUP5 PUSH20 0xFFFFFFFFFFFFFFFFFFFFFFFFFFFFFFFFFFFFFFFF AND EQ PUSH2 0x3251 JUMPI PUSH0 PUSH2 0x31F4 PUSH2 0x2930 JUMP JUMPDEST SWAP1 POP PUSH1 0x1 DUP5 MLOAD SUB PUSH2 0x3240 JUMPI PUSH0 PUSH2 0x3213 PUSH0 DUP7 PUSH2 0x2C12 SWAP1 SWAP2 SWAP1 PUSH4 0xFFFFFFFF AND JUMP JUMPDEST SWAP1 POP PUSH0 PUSH2 0x3229 PUSH0 DUP7 PUSH2 0x2C12 SWAP1 SWAP2 SWAP1 PUSH4 0xFFFFFFFF AND JUMP JUMPDEST SWAP1 POP PUSH2 0x3239 DUP4 DUP10 DUP10 DUP6 DUP6 DUP10 PUSH2 0x3684 JUMP JUMPDEST POP POP PUSH2 0x324F JUMP JUMPDEST PUSH2 0x324E DUP2 DUP8 DUP8 DUP8 DUP8 DUP8 PUSH2 0x3833 JUMP JUMPDEST JUMPDEST POP JUMPDEST POP POP POP POP POP JUMP JUMPDEST PUSH1 0x60 DUP1 PUSH1 0x40 MLOAD SWAP2 POP PUSH1 0x1 DUP3 MSTORE DUP4 PUSH1 0x20 DUP4 ADD MSTORE PUSH1 0x40 DUP3 ADD SWAP1 POP PUSH1 0x1 DUP2 MSTORE DUP3 PUSH1 0x20 DUP3 ADD MSTORE PUSH1 0x40 DUP2 ADD PUSH1 0x40 MSTORE SWAP3 POP SWAP3 SWAP1 POP JUMP JUMPDEST PUSH0 PUSH32 0x1FFC9A700000000000000000000000000000000000000000000000000000000 PUSH28 0xFFFFFFFFFFFFFFFFFFFFFFFFFFFFFFFFFFFFFFFFFFFFFFFFFFFFFFFF NOT AND DUP3 PUSH28 0xFFFFFFFFFFFFFFFFFFFFFFFFFFFFFFFFFFFFFFFFFFFFFFFFFFFFFFFF NOT AND EQ SWAP1 POP SWAP2 SWAP1 POP JUMP JUMPDEST DUP1 MLOAD DUP3 MLOAD EQ PUSH2 0x333B JUMPI DUP2 MLOAD DUP2 MLOAD PUSH1 0x40 MLOAD PUSH32 0x5B05999100000000000000000000000000000000000000000000000000000000 DUP2 MSTORE PUSH1 0x4 ADD PUSH2 0x3332 SWAP3 SWAP2 SWAP1 PUSH2 0x5607 JUMP JUMPDEST PUSH1 0x40 MLOAD DUP1 SWAP2 SUB SWAP1 REVERT JUMPDEST PUSH0 PUSH2 0x3344 PUSH2 0x2930 JUMP JUMPDEST SWAP1 POP PUSH0 PUSH0 SWAP1 POP JUMPDEST DUP4 MLOAD DUP2 LT ISZERO PUSH2 0x3543 JUMPI PUSH0 PUSH2 0x3368 DUP3 DUP7 PUSH2 0x2C12 SWAP1 SWAP2 SWAP1 PUSH4 0xFFFFFFFF AND JUMP JUMPDEST SWAP1 POP PUSH0 PUSH2 0x337E DUP4 DUP7 PUSH2 0x2C12 SWAP1 SWAP2 SWAP1 PUSH4 0xFFFFFFFF AND JUMP JUMPDEST SWAP1 POP PUSH0 PUSH20 0xFFFFFFFFFFFFFFFFFFFFFFFFFFFFFFFFFFFFFFFF AND DUP9 PUSH20 0xFFFFFFFFFFFFFFFFFFFFFFFFFFFFFFFFFFFFFFFF AND EQ PUSH2 0x34A1 JUMPI PUSH0 PUSH0 PUSH0 DUP5 DUP2 MSTORE PUSH1 0x20 ADD SWAP1 DUP2 MSTORE PUSH1 0x20 ADD PUSH0 KECCAK256 PUSH0 DUP11 PUSH20 0xFFFFFFFFFFFFFFFFFFFFFFFFFFFFFFFFFFFFFFFF AND PUSH20 0xFFFFFFFFFFFFFFFFFFFFFFFFFFFFFFFFFFFFFFFF AND DUP2 MSTORE PUSH1 0x20 ADD SWAP1 DUP2 MSTORE PUSH1 0x20 ADD PUSH0 KECCAK256 SLOAD SWAP1 POP DUP2 DUP2 LT ISZERO PUSH2 0x344D JUMPI DUP9 DUP2 DUP4 DUP6 PUSH1 0x40 MLOAD PUSH32 0x3DEE4C500000000000000000000000000000000000000000000000000000000 DUP2 MSTORE PUSH1 0x4 ADD PUSH2 0x3444 SWAP5 SWAP4 SWAP3 SWAP2 SWAP1 PUSH2 0x5D7C JUMP JUMPDEST PUSH1 0x40 MLOAD DUP1 SWAP2 SUB SWAP1 REVERT JUMPDEST DUP2 DUP2 SUB PUSH0 PUSH0 DUP6 DUP2 MSTORE PUSH1 0x20 ADD SWAP1 DUP2 MSTORE PUSH1 0x20 ADD PUSH0 KECCAK256 PUSH0 DUP12 PUSH20 0xFFFFFFFFFFFFFFFFFFFFFFFFFFFFFFFFFFFFFFFF AND PUSH20 0xFFFFFFFFFFFFFFFFFFFFFFFFFFFFFFFFFFFFFFFF AND DUP2 MSTORE PUSH1 0x20 ADD SWAP1 DUP2 MSTORE PUSH1 0x20 ADD PUSH0 KECCAK256 DUP2 SWAP1 SSTORE POP POP JUMPDEST PUSH0 PUSH20 0xFFFFFFFFFFFFFFFFFFFFFFFFFFFFFFFFFFFFFFFF AND DUP8 PUSH20 0xFFFFFFFFFFFFFFFFFFFFFFFFFFFFFFFFFFFFFFFF AND EQ PUSH2 0x3536 JUMPI DUP1 PUSH0 PUSH0 DUP5 DUP2 MSTORE PUSH1 0x20 ADD SWAP1 DUP2 MSTORE PUSH1 0x20 ADD PUSH0 KECCAK256 PUSH0 DUP10 PUSH20 0xFFFFFFFFFFFFFFFFFFFFFFFFFFFFFFFFFFFFFFFF AND PUSH20 0xFFFFFFFFFFFFFFFFFFFFFFFFFFFFFFFFFFFFFFFF AND DUP2 MSTORE PUSH1 0x20 ADD SWAP1 DUP2 MSTORE PUSH1 0x20 ADD PUSH0 KECCAK256 PUSH0 DUP3 DUP3 SLOAD PUSH2 0x352E SWAP2 SWAP1 PUSH2 0x56F0 JUMP JUMPDEST SWAP3 POP POP DUP2 SWAP1 SSTORE POP JUMPDEST POP POP DUP1 PUSH1 0x1 ADD SWAP1 POP PUSH2 0x334B JUMP JUMPDEST POP PUSH1 0x1 DUP4 MLOAD SUB PUSH2 0x35FE JUMPI PUSH0 PUSH2 0x3561 PUSH0 DUP6 PUSH2 0x2C12 SWAP1 SWAP2 SWAP1 PUSH4 0xFFFFFFFF AND JUMP JUMPDEST SWAP1 POP PUSH0 PUSH2 0x3577 PUSH0 DUP6 PUSH2 0x2C12 SWAP1 SWAP2 SWAP1 PUSH4 0xFFFFFFFF AND JUMP JUMPDEST SWAP1 POP DUP6 PUSH20 0xFFFFFFFFFFFFFFFFFFFFFFFFFFFFFFFFFFFFFFFF AND DUP8 PUSH20 0xFFFFFFFFFFFFFFFFFFFFFFFFFFFFFFFFFFFFFFFF AND DUP5 PUSH20 0xFFFFFFFFFFFFFFFFFFFFFFFFFFFFFFFFFFFFFFFF AND PUSH32 0xC3D58168C5AE7397731D063D5BBF3D657854427343F4C083240F7AACAA2D0F62 DUP6 DUP6 PUSH1 0x40 MLOAD PUSH2 0x35EF SWAP3 SWAP2 SWAP1 PUSH2 0x5607 JUMP JUMPDEST PUSH1 0x40 MLOAD DUP1 SWAP2 SUB SWAP1 LOG4 POP POP PUSH2 0x367D JUMP JUMPDEST DUP4 PUSH20 0xFFFFFFFFFFFFFFFFFFFFFFFFFFFFFFFFFFFFFFFF AND DUP6 PUSH20 0xFFFFFFFFFFFFFFFFFFFFFFFFFFFFFFFFFFFFFFFF AND DUP3 PUSH20 0xFFFFFFFFFFFFFFFFFFFFFFFFFFFFFFFFFFFFFFFF AND PUSH32 0x4A39DC06D4C0DBC64B70AF90FD698A233A518AA5D07E595D983B8C0526C8F7FB DUP7 DUP7 PUSH1 0x40 MLOAD PUSH2 0x3674 SWAP3 SWAP2 SWAP1 PUSH2 0x5DBF JUMP JUMPDEST PUSH1 0x40 MLOAD DUP1 SWAP2 SUB SWAP1 LOG4 JUMPDEST POP POP POP POP POP JUMP JUMPDEST PUSH0 DUP5 PUSH20 0xFFFFFFFFFFFFFFFFFFFFFFFFFFFFFFFFFFFFFFFF AND EXTCODESIZE GT ISZERO PUSH2 0x382B JUMPI DUP4 PUSH20 0xFFFFFFFFFFFFFFFFFFFFFFFFFFFFFFFFFFFFFFFF AND PUSH4 0xF23A6E61 DUP8 DUP8 DUP7 DUP7 DUP7 PUSH1 0x40 MLOAD DUP7 PUSH4 0xFFFFFFFF AND PUSH1 0xE0 SHL DUP2 MSTORE PUSH1 0x4 ADD PUSH2 0x36E4 SWAP6 SWAP5 SWAP4 SWAP3 SWAP2 SWAP1 PUSH2 0x5E46 JUMP JUMPDEST PUSH1 0x20 PUSH1 0x40 MLOAD DUP1 DUP4 SUB DUP2 PUSH0 DUP8 GAS CALL SWAP3 POP POP POP DUP1 ISZERO PUSH2 0x371F JUMPI POP PUSH1 0x40 MLOAD RETURNDATASIZE PUSH1 0x1F NOT PUSH1 0x1F DUP3 ADD AND DUP3 ADD DUP1 PUSH1 0x40 MSTORE POP DUP2 ADD SWAP1 PUSH2 0x371C SWAP2 SWAP1 PUSH2 0x5EB2 JUMP JUMPDEST PUSH1 0x1 JUMPDEST PUSH2 0x37A0 JUMPI RETURNDATASIZE DUP1 PUSH0 DUP2 EQ PUSH2 0x374D JUMPI PUSH1 0x40 MLOAD SWAP2 POP PUSH1 0x1F NOT PUSH1 0x3F RETURNDATASIZE ADD AND DUP3 ADD PUSH1 0x40 MSTORE RETURNDATASIZE DUP3 MSTORE RETURNDATASIZE PUSH0 PUSH1 0x20 DUP5 ADD RETURNDATACOPY PUSH2 0x3752 JUMP JUMPDEST PUSH1 0x60 SWAP2 POP JUMPDEST POP PUSH0 DUP2 MLOAD SUB PUSH2 0x3798 JUMPI DUP5 PUSH1 0x40 MLOAD PUSH32 0x57F447CE00000000000000000000000000000000000000000000000000000000 DUP2 MSTORE PUSH1 0x4 ADD PUSH2 0x378F SWAP2 SWAP1 PUSH2 0x3D8B JUMP JUMPDEST PUSH1 0x40 MLOAD DUP1 SWAP2 SUB SWAP1 REVERT JUMPDEST DUP1 MLOAD DUP2 PUSH1 0x20 ADD REVERT JUMPDEST PUSH4 0xF23A6E61 PUSH1 0xE0 SHL PUSH28 0xFFFFFFFFFFFFFFFFFFFFFFFFFFFFFFFFFFFFFFFFFFFFFFFFFFFFFFFF NOT AND DUP2 PUSH28 0xFFFFFFFFFFFFFFFFFFFFFFFFFFFFFFFFFFFFFFFFFFFFFFFFFFFFFFFF NOT AND EQ PUSH2 0x3829 JUMPI DUP5 PUSH1 0x40 MLOAD PUSH32 0x57F447CE00000000000000000000000000000000000000000000000000000000 DUP2 MSTORE PUSH1 0x4 ADD PUSH2 0x3820 SWAP2 SWAP1 PUSH2 0x3D8B JUMP JUMPDEST PUSH1 0x40 MLOAD DUP1 SWAP2 SUB SWAP1 REVERT JUMPDEST POP JUMPDEST POP POP POP POP POP POP JUMP JUMPDEST PUSH0 DUP5 PUSH20 0xFFFFFFFFFFFFFFFFFFFFFFFFFFFFFFFFFFFFFFFF AND EXTCODESIZE GT ISZERO PUSH2 0x39DA JUMPI DUP4 PUSH20 0xFFFFFFFFFFFFFFFFFFFFFFFFFFFFFFFFFFFFFFFF AND PUSH4 0xBC197C81 DUP8 DUP8 DUP7 DUP7 DUP7 PUSH1 0x40 MLOAD DUP7 PUSH4 0xFFFFFFFF AND PUSH1 0xE0 SHL DUP2 MSTORE PUSH1 0x4 ADD PUSH2 0x3893 SWAP6 SWAP5 SWAP4 SWAP3 SWAP2 SWAP1 PUSH2 0x5EDD JUMP JUMPDEST PUSH1 0x20 PUSH1 0x40 MLOAD DUP1 DUP4 SUB DUP2 PUSH0 DUP8 GAS CALL SWAP3 POP POP POP DUP1 ISZERO PUSH2 0x38CE JUMPI POP PUSH1 0x40 MLOAD RETURNDATASIZE PUSH1 0x1F NOT PUSH1 0x1F DUP3 ADD AND DUP3 ADD DUP1 PUSH1 0x40 MSTORE POP DUP2 ADD SWAP1 PUSH2 0x38CB SWAP2 SWAP1 PUSH2 0x5EB2 JUMP JUMPDEST PUSH1 0x1 JUMPDEST PUSH2 0x394F JUMPI RETURNDATASIZE DUP1 PUSH0 DUP2 EQ PUSH2 0x38FC JUMPI PUSH1 0x40 MLOAD SWAP2 POP PUSH1 0x1F NOT PUSH1 0x3F RETURNDATASIZE ADD AND DUP3 ADD PUSH1 0x40 MSTORE RETURNDATASIZE DUP3 MSTORE RETURNDATASIZE PUSH0 PUSH1 0x20 DUP5 ADD RETURNDATACOPY PUSH2 0x3901 JUMP JUMPDEST PUSH1 0x60 SWAP2 POP JUMPDEST POP PUSH0 DUP2 MLOAD SUB PUSH2 0x3947 JUMPI DUP5 PUSH1 0x40 MLOAD PUSH32 0x57F447CE00000000000000000000000000000000000000000000000000000000 DUP2 MSTORE PUSH1 0x4 ADD PUSH2 0x393E SWAP2 SWAP1 PUSH2 0x3D8B JUMP JUMPDEST PUSH1 0x40 MLOAD DUP1 SWAP2 SUB SWAP1 REVERT JUMPDEST DUP1 MLOAD DUP2 PUSH1 0x20 ADD REVERT JUMPDEST PUSH4 0xBC197C81 PUSH1 0xE0 SHL PUSH28 0xFFFFFFFFFFFFFFFFFFFFFFFFFFFFFFFFFFFFFFFFFFFFFFFFFFFFFFFF NOT AND DUP2 PUSH28 0xFFFFFFFFFFFFFFFFFFFFFFFFFFFFFFFFFFFFFFFFFFFFFFFFFFFFFFFF NOT AND EQ PUSH2 0x39D8 JUMPI DUP5 PUSH1 0x40 MLOAD PUSH32 0x57F447CE00000000000000000000000000000000000000000000000000000000 DUP2 MSTORE PUSH1 0x4 ADD PUSH2 0x39CF SWAP2 SWAP1 PUSH2 0x3D8B JUMP JUMPDEST PUSH1 0x40 MLOAD DUP1 SWAP2 SUB SWAP1 REVERT JUMPDEST POP JUMPDEST POP POP POP POP POP POP JUMP JUMPDEST PUSH1 0x40 MLOAD DUP1 PUSH2 0x120 ADD PUSH1 0x40 MSTORE DUP1 PUSH1 0x60 DUP2 MSTORE PUSH1 0x20 ADD PUSH0 DUP2 MSTORE PUSH1 0x20 ADD PUSH0 DUP2 MSTORE PUSH1 0x20 ADD PUSH1 0x60 DUP2 MSTORE PUSH1 0x20 ADD PUSH1 0x60 DUP2 MSTORE PUSH1 0x20 ADD PUSH1 0x60 DUP2 MSTORE PUSH1 0x20 ADD PUSH1 0x60 DUP2 MSTORE PUSH1 0x20 ADD PUSH0 ISZERO ISZERO DUP2 MSTORE PUSH1 0x20 ADD PUSH0 PUSH20 0xFFFFFFFFFFFFFFFFFFFFFFFFFFFFFFFFFFFFFFFF AND DUP2 MSTORE POP SWAP1 JUMP JUMPDEST PUSH0 PUSH1 0x40 MLOAD SWAP1 POP SWAP1 JUMP JUMPDEST PUSH0 PUSH0 REVERT JUMPDEST PUSH0 PUSH0 REVERT JUMPDEST PUSH0 PUSH20 0xFFFFFFFFFFFFFFFFFFFFFFFFFFFFFFFFFFFFFFFF DUP3 AND SWAP1 POP SWAP2 SWAP1 POP JUMP JUMPDEST PUSH0 PUSH2 0x3A7C DUP3 PUSH2 0x3A53 JUMP JUMPDEST SWAP1 POP SWAP2 SWAP1 POP JUMP JUMPDEST PUSH2 0x3A8C DUP2 PUSH2 0x3A72 JUMP JUMPDEST DUP2 EQ PUSH2 0x3A96 JUMPI PUSH0 PUSH0 REVERT JUMPDEST POP JUMP JUMPDEST PUSH0 DUP2 CALLDATALOAD SWAP1 POP PUSH2 0x3AA7 DUP2 PUSH2 0x3A83 JUMP JUMPDEST SWAP3 SWAP2 POP POP JUMP JUMPDEST PUSH0 DUP2 SWAP1 POP SWAP2 SWAP1 POP JUMP JUMPDEST PUSH2 0x3ABF DUP2 PUSH2 0x3AAD JUMP JUMPDEST DUP2 EQ PUSH2 0x3AC9 JUMPI PUSH0 PUSH0 REVERT JUMPDEST POP JUMP JUMPDEST PUSH0 DUP2 CALLDATALOAD SWAP1 POP PUSH2 0x3ADA DUP2 PUSH2 0x3AB6 JUMP JUMPDEST SWAP3 SWAP2 POP POP JUMP JUMPDEST PUSH0 PUSH0 PUSH1 0x40 DUP4 DUP6 SUB SLT ISZERO PUSH2 0x3AF6 JUMPI PUSH2 0x3AF5 PUSH2 0x3A4B JUMP JUMPDEST JUMPDEST PUSH0 PUSH2 0x3B03 DUP6 DUP3 DUP7 ADD PUSH2 0x3A99 JUMP JUMPDEST SWAP3 POP POP PUSH1 0x20 PUSH2 0x3B14 DUP6 DUP3 DUP7 ADD PUSH2 0x3ACC JUMP JUMPDEST SWAP2 POP POP SWAP3 POP SWAP3 SWAP1 POP JUMP JUMPDEST PUSH2 0x3B27 DUP2 PUSH2 0x3AAD JUMP JUMPDEST DUP3 MSTORE POP POP JUMP JUMPDEST PUSH0 PUSH1 0x20 DUP3 ADD SWAP1 POP PUSH2 0x3B40 PUSH0 DUP4 ADD DUP5 PUSH2 0x3B1E JUMP JUMPDEST SWAP3 SWAP2 POP POP JUMP JUMPDEST PUSH0 PUSH32 0xFFFFFFFF00000000000000000000000000000000000000000000000000000000 DUP3 AND SWAP1 POP SWAP2 SWAP1 POP JUMP JUMPDEST PUSH2 0x3B7A DUP2 PUSH2 0x3B46 JUMP JUMPDEST DUP2 EQ PUSH2 0x3B84 JUMPI PUSH0 PUSH0 REVERT JUMPDEST POP JUMP JUMPDEST PUSH0 DUP2 CALLDATALOAD SWAP1 POP PUSH2 0x3B95 DUP2 PUSH2 0x3B71 JUMP JUMPDEST SWAP3 SWAP2 POP POP JUMP JUMPDEST PUSH0 PUSH1 0x20 DUP3 DUP5 SUB SLT ISZERO PUSH2 0x3BB0 JUMPI PUSH2 0x3BAF PUSH2 0x3A4B JUMP JUMPDEST JUMPDEST PUSH0 PUSH2 0x3BBD DUP5 DUP3 DUP6 ADD PUSH2 0x3B87 JUMP JUMPDEST SWAP2 POP POP SWAP3 SWAP2 POP POP JUMP JUMPDEST PUSH0 DUP2 ISZERO ISZERO SWAP1 POP SWAP2 SWAP1 POP JUMP JUMPDEST PUSH2 0x3BDA DUP2 PUSH2 0x3BC6 JUMP JUMPDEST DUP3 MSTORE POP POP JUMP JUMPDEST PUSH0 PUSH1 0x20 DUP3 ADD SWAP1 POP PUSH2 0x3BF3 PUSH0 DUP4 ADD DUP5 PUSH2 0x3BD1 JUMP JUMPDEST SWAP3 SWAP2 POP POP JUMP JUMPDEST PUSH0 PUSH0 REVERT JUMPDEST PUSH0 PUSH0 REVERT JUMPDEST PUSH0 PUSH1 0x1F NOT PUSH1 0x1F DUP4 ADD AND SWAP1 POP SWAP2 SWAP1 POP JUMP JUMPDEST PUSH32 0x4E487B7100000000000000000000000000000000000000000000000000000000 PUSH0 MSTORE PUSH1 0x41 PUSH1 0x4 MSTORE PUSH1 0x24 PUSH0 REVERT JUMPDEST PUSH2 0x3C47 DUP3 PUSH2 0x3C01 JUMP JUMPDEST DUP2 ADD DUP2 DUP2 LT PUSH8 0xFFFFFFFFFFFFFFFF DUP3 GT OR ISZERO PUSH2 0x3C66 JUMPI PUSH2 0x3C65 PUSH2 0x3C11 JUMP JUMPDEST JUMPDEST DUP1 PUSH1 0x40 MSTORE POP POP POP JUMP JUMPDEST PUSH0 PUSH2 0x3C78 PUSH2 0x3A42 JUMP JUMPDEST SWAP1 POP PUSH2 0x3C84 DUP3 DUP3 PUSH2 0x3C3E JUMP JUMPDEST SWAP2 SWAP1 POP JUMP JUMPDEST PUSH0 PUSH8 0xFFFFFFFFFFFFFFFF DUP3 GT ISZERO PUSH2 0x3CA3 JUMPI PUSH2 0x3CA2 PUSH2 0x3C11 JUMP JUMPDEST JUMPDEST PUSH2 0x3CAC DUP3 PUSH2 0x3C01 JUMP JUMPDEST SWAP1 POP PUSH1 0x20 DUP2 ADD SWAP1 POP SWAP2 SWAP1 POP JUMP JUMPDEST DUP3 DUP2 DUP4 CALLDATACOPY PUSH0 DUP4 DUP4 ADD MSTORE POP POP POP JUMP JUMPDEST PUSH0 PUSH2 0x3CD9 PUSH2 0x3CD4 DUP5 PUSH2 0x3C89 JUMP JUMPDEST PUSH2 0x3C6F JUMP JUMPDEST SWAP1 POP DUP3 DUP2 MSTORE PUSH1 0x20 DUP2 ADD DUP5 DUP5 DUP5 ADD GT ISZERO PUSH2 0x3CF5 JUMPI PUSH2 0x3CF4 PUSH2 0x3BFD JUMP JUMPDEST JUMPDEST PUSH2 0x3D00 DUP5 DUP3 DUP6 PUSH2 0x3CB9 JUMP JUMPDEST POP SWAP4 SWAP3 POP POP POP JUMP JUMPDEST PUSH0 DUP3 PUSH1 0x1F DUP4 ADD SLT PUSH2 0x3D1C JUMPI PUSH2 0x3D1B PUSH2 0x3BF9 JUMP JUMPDEST JUMPDEST DUP2 CALLDATALOAD PUSH2 0x3D2C DUP5 DUP3 PUSH1 0x20 DUP7 ADD PUSH2 0x3CC7 JUMP JUMPDEST SWAP2 POP POP SWAP3 SWAP2 POP POP JUMP JUMPDEST PUSH0 PUSH1 0x20 DUP3 DUP5 SUB SLT ISZERO PUSH2 0x3D4A JUMPI PUSH2 0x3D49 PUSH2 0x3A4B JUMP JUMPDEST JUMPDEST PUSH0 DUP3 ADD CALLDATALOAD PUSH8 0xFFFFFFFFFFFFFFFF DUP2 GT ISZERO PUSH2 0x3D67 JUMPI PUSH2 0x3D66 PUSH2 0x3A4F JUMP JUMPDEST JUMPDEST PUSH2 0x3D73 DUP5 DUP3 DUP6 ADD PUSH2 0x3D08 JUMP JUMPDEST SWAP2 POP POP SWAP3 SWAP2 POP POP JUMP JUMPDEST PUSH2 0x3D85 DUP2 PUSH2 0x3A72 JUMP JUMPDEST DUP3 MSTORE POP POP JUMP JUMPDEST PUSH0 PUSH1 0x20 DUP3 ADD SWAP1 POP PUSH2 0x3D9E PUSH0 DUP4 ADD DUP5 PUSH2 0x3D7C JUMP JUMPDEST SWAP3 SWAP2 POP POP JUMP JUMPDEST PUSH0 PUSH1 0x20 DUP3 DUP5 SUB SLT ISZERO PUSH2 0x3DB9 JUMPI PUSH2 0x3DB8 PUSH2 0x3A4B JUMP JUMPDEST JUMPDEST PUSH0 PUSH2 0x3DC6 DUP5 DUP3 DUP6 ADD PUSH2 0x3ACC JUMP JUMPDEST SWAP2 POP POP SWAP3 SWAP2 POP POP JUMP JUMPDEST PUSH0 DUP2 MLOAD SWAP1 POP SWAP2 SWAP1 POP JUMP JUMPDEST PUSH0 DUP3 DUP3 MSTORE PUSH1 0x20 DUP3 ADD SWAP1 POP SWAP3 SWAP2 POP POP JUMP JUMPDEST DUP3 DUP2 DUP4 MCOPY PUSH0 DUP4 DUP4 ADD MSTORE POP POP POP JUMP JUMPDEST PUSH0 PUSH2 0x3E01 DUP3 PUSH2 0x3DCF JUMP JUMPDEST PUSH2 0x3E0B DUP2 DUP6 PUSH2 0x3DD9 JUMP JUMPDEST SWAP4 POP PUSH2 0x3E1B DUP2 DUP6 PUSH1 0x20 DUP7 ADD PUSH2 0x3DE9 JUMP JUMPDEST PUSH2 0x3E24 DUP2 PUSH2 0x3C01 JUMP JUMPDEST DUP5 ADD SWAP2 POP POP SWAP3 SWAP2 POP POP JUMP JUMPDEST PUSH0 PUSH1 0x20 DUP3 ADD SWAP1 POP DUP2 DUP2 SUB PUSH0 DUP4 ADD MSTORE PUSH2 0x3E47 DUP2 DUP5 PUSH2 0x3DF7 JUMP JUMPDEST SWAP1 POP SWAP3 SWAP2 POP POP JUMP JUMPDEST PUSH0 PUSH1 0x20 DUP3 DUP5 SUB SLT ISZERO PUSH2 0x3E64 JUMPI PUSH2 0x3E63 PUSH2 0x3A4B JUMP JUMPDEST JUMPDEST PUSH0 PUSH2 0x3E71 DUP5 DUP3 DUP6 ADD PUSH2 0x3A99 JUMP JUMPDEST SWAP2 POP POP SWAP3 SWAP2 POP POP JUMP JUMPDEST PUSH0 DUP2 SWAP1 POP SWAP2 SWAP1 POP JUMP JUMPDEST PUSH2 0x3E8C DUP2 PUSH2 0x3E7A JUMP JUMPDEST DUP2 EQ PUSH2 0x3E96 JUMPI PUSH0 PUSH0 REVERT JUMPDEST POP JUMP JUMPDEST PUSH0 DUP2 CALLDATALOAD SWAP1 POP PUSH2 0x3EA7 DUP2 PUSH2 0x3E83 JUMP JUMPDEST SWAP3 SWAP2 POP POP JUMP JUMPDEST PUSH0 PUSH1 0x20 DUP3 DUP5 SUB SLT ISZERO PUSH2 0x3EC2 JUMPI PUSH2 0x3EC1 PUSH2 0x3A4B JUMP JUMPDEST JUMPDEST PUSH0 PUSH2 0x3ECF DUP5 DUP3 DUP6 ADD PUSH2 0x3E99 JUMP JUMPDEST SWAP2 POP POP SWAP3 SWAP2 POP POP JUMP JUMPDEST PUSH2 0x3EE1 DUP2 PUSH2 0x3E7A JUMP JUMPDEST DUP3 MSTORE POP POP JUMP JUMPDEST PUSH0 PUSH1 0x20 DUP3 ADD SWAP1 POP PUSH2 0x3EFA PUSH0 DUP4 ADD DUP5 PUSH2 0x3ED8 JUMP JUMPDEST SWAP3 SWAP2 POP POP JUMP JUMPDEST PUSH0 PUSH8 0xFFFFFFFFFFFFFFFF DUP3 GT ISZERO PUSH2 0x3F1A JUMPI PUSH2 0x3F19 PUSH2 0x3C11 JUMP JUMPDEST JUMPDEST PUSH1 0x20 DUP3 MUL SWAP1 POP PUSH1 0x20 DUP2 ADD SWAP1 POP SWAP2 SWAP1 POP JUMP JUMPDEST PUSH0 PUSH0 REVERT JUMPDEST PUSH0 PUSH2 0x3F41 PUSH2 0x3F3C DUP5 PUSH2 0x3F00 JUMP JUMPDEST PUSH2 0x3C6F JUMP JUMPDEST SWAP1 POP DUP1 DUP4 DUP3 MSTORE PUSH1 0x20 DUP3 ADD SWAP1 POP PUSH1 0x20 DUP5 MUL DUP4 ADD DUP6 DUP2 GT ISZERO PUSH2 0x3F64 JUMPI PUSH2 0x3F63 PUSH2 0x3F2B JUMP JUMPDEST JUMPDEST DUP4 JUMPDEST DUP2 DUP2 LT ISZERO PUSH2 0x3F8D JUMPI DUP1 PUSH2 0x3F79 DUP9 DUP3 PUSH2 0x3ACC JUMP JUMPDEST DUP5 MSTORE PUSH1 0x20 DUP5 ADD SWAP4 POP POP PUSH1 0x20 DUP2 ADD SWAP1 POP PUSH2 0x3F66 JUMP JUMPDEST POP POP POP SWAP4 SWAP3 POP POP POP JUMP JUMPDEST PUSH0 DUP3 PUSH1 0x1F DUP4 ADD SLT PUSH2 0x3FAB JUMPI PUSH2 0x3FAA PUSH2 0x3BF9 JUMP JUMPDEST JUMPDEST DUP2 CALLDATALOAD PUSH2 0x3FBB DUP5 DUP3 PUSH1 0x20 DUP7 ADD PUSH2 0x3F2F JUMP JUMPDEST SWAP2 POP POP SWAP3 SWAP2 POP POP JUMP JUMPDEST PUSH0 PUSH8 0xFFFFFFFFFFFFFFFF DUP3 GT ISZERO PUSH2 0x3FDE JUMPI PUSH2 0x3FDD PUSH2 0x3C11 JUMP JUMPDEST JUMPDEST PUSH2 0x3FE7 DUP3 PUSH2 0x3C01 JUMP JUMPDEST SWAP1 POP PUSH1 0x20 DUP2 ADD SWAP1 POP SWAP2 SWAP1 POP JUMP JUMPDEST PUSH0 PUSH2 0x4006 PUSH2 0x4001 DUP5 PUSH2 0x3FC4 JUMP JUMPDEST PUSH2 0x3C6F JUMP JUMPDEST SWAP1 POP DUP3 DUP2 MSTORE PUSH1 0x20 DUP2 ADD DUP5 DUP5 DUP5 ADD GT ISZERO PUSH2 0x4022 JUMPI PUSH2 0x4021 PUSH2 0x3BFD JUMP JUMPDEST JUMPDEST PUSH2 0x402D DUP5 DUP3 DUP6 PUSH2 0x3CB9 JUMP JUMPDEST POP SWAP4 SWAP3 POP POP POP JUMP JUMPDEST PUSH0 DUP3 PUSH1 0x1F DUP4 ADD SLT PUSH2 0x4049 JUMPI PUSH2 0x4048 PUSH2 0x3BF9 JUMP JUMPDEST JUMPDEST DUP2 CALLDATALOAD PUSH2 0x4059 DUP5 DUP3 PUSH1 0x20 DUP7 ADD PUSH2 0x3FF4 JUMP JUMPDEST SWAP2 POP POP SWAP3 SWAP2 POP POP JUMP JUMPDEST PUSH0 PUSH0 PUSH0 PUSH0 PUSH0 PUSH1 0xA0 DUP7 DUP9 SUB SLT ISZERO PUSH2 0x407B JUMPI PUSH2 0x407A PUSH2 0x3A4B JUMP JUMPDEST JUMPDEST PUSH0 PUSH2 0x4088 DUP9 DUP3 DUP10 ADD PUSH2 0x3A99 JUMP JUMPDEST SWAP6 POP POP PUSH1 0x20 PUSH2 0x4099 DUP9 DUP3 DUP10 ADD PUSH2 0x3A99 JUMP JUMPDEST SWAP5 POP POP PUSH1 0x40 DUP7 ADD CALLDATALOAD PUSH8 0xFFFFFFFFFFFFFFFF DUP2 GT ISZERO PUSH2 0x40BA JUMPI PUSH2 0x40B9 PUSH2 0x3A4F JUMP JUMPDEST JUMPDEST PUSH2 0x40C6 DUP9 DUP3 DUP10 ADD PUSH2 0x3F97 JUMP JUMPDEST SWAP4 POP POP PUSH1 0x60 DUP7 ADD CALLDATALOAD PUSH8 0xFFFFFFFFFFFFFFFF DUP2 GT ISZERO PUSH2 0x40E7 JUMPI PUSH2 0x40E6 PUSH2 0x3A4F JUMP JUMPDEST JUMPDEST PUSH2 0x40F3 DUP9 DUP3 DUP10 ADD PUSH2 0x3F97 JUMP JUMPDEST SWAP3 POP POP PUSH1 0x80 DUP7 ADD CALLDATALOAD PUSH8 0xFFFFFFFFFFFFFFFF DUP2 GT ISZERO PUSH2 0x4114 JUMPI PUSH2 0x4113 PUSH2 0x3A4F JUMP JUMPDEST JUMPDEST PUSH2 0x4120 DUP9 DUP3 DUP10 ADD PUSH2 0x4035 JUMP JUMPDEST SWAP2 POP POP SWAP3 SWAP6 POP SWAP3 SWAP6 SWAP1 SWAP4 POP JUMP JUMPDEST PUSH0 PUSH0 PUSH1 0x40 DUP4 DUP6 SUB SLT ISZERO PUSH2 0x4143 JUMPI PUSH2 0x4142 PUSH2 0x3A4B JUMP JUMPDEST JUMPDEST PUSH0 PUSH2 0x4150 DUP6 DUP3 DUP7 ADD PUSH2 0x3E99 JUMP JUMPDEST SWAP3 POP POP PUSH1 0x20 PUSH2 0x4161 DUP6 DUP3 DUP7 ADD PUSH2 0x3A99 JUMP JUMPDEST SWAP2 POP POP SWAP3 POP SWAP3 SWAP1 POP JUMP JUMPDEST PUSH0 DUP3 DUP3 MSTORE PUSH1 0x20 DUP3 ADD SWAP1 POP SWAP3 SWAP2 POP POP JUMP JUMPDEST PUSH0 PUSH2 0x4185 DUP3 PUSH2 0x3DCF JUMP JUMPDEST PUSH2 0x418F DUP2 DUP6 PUSH2 0x416B JUMP JUMPDEST SWAP4 POP PUSH2 0x419F DUP2 DUP6 PUSH1 0x20 DUP7 ADD PUSH2 0x3DE9 JUMP JUMPDEST PUSH2 0x41A8 DUP2 PUSH2 0x3C01 JUMP JUMPDEST DUP5 ADD SWAP2 POP POP SWAP3 SWAP2 POP POP JUMP JUMPDEST PUSH2 0x41BC DUP2 PUSH2 0x3AAD JUMP JUMPDEST DUP3 MSTORE POP POP JUMP JUMPDEST PUSH2 0x41CB DUP2 PUSH2 0x3BC6 JUMP JUMPDEST DUP3 MSTORE POP POP JUMP JUMPDEST PUSH2 0x41DA DUP2 PUSH2 0x3A72 JUMP JUMPDEST DUP3 MSTORE POP POP JUMP JUMPDEST PUSH0 PUSH2 0x120 DUP4 ADD PUSH0 DUP4 ADD MLOAD DUP5 DUP3 SUB PUSH0 DUP7 ADD MSTORE PUSH2 0x41FB DUP3 DUP3 PUSH2 0x417B JUMP JUMPDEST SWAP2 POP POP PUSH1 0x20 DUP4 ADD MLOAD PUSH2 0x4210 PUSH1 0x20 DUP7 ADD DUP3 PUSH2 0x41B3 JUMP JUMPDEST POP PUSH1 0x40 DUP4 ADD MLOAD PUSH2 0x4223 PUSH1 0x40 DUP7 ADD DUP3 PUSH2 0x41B3 JUMP JUMPDEST POP PUSH1 0x60 DUP4 ADD MLOAD DUP5 DUP3 SUB PUSH1 0x60 DUP7 ADD MSTORE PUSH2 0x423B DUP3 DUP3 PUSH2 0x417B JUMP JUMPDEST SWAP2 POP POP PUSH1 0x80 DUP4 ADD MLOAD DUP5 DUP3 SUB PUSH1 0x80 DUP7 ADD MSTORE PUSH2 0x4255 DUP3 DUP3 PUSH2 0x417B JUMP JUMPDEST SWAP2 POP POP PUSH1 0xA0 DUP4 ADD MLOAD DUP5 DUP3 SUB PUSH1 0xA0 DUP7 ADD MSTORE PUSH2 0x426F DUP3 DUP3 PUSH2 0x417B JUMP JUMPDEST SWAP2 POP POP PUSH1 0xC0 DUP4 ADD MLOAD DUP5 DUP3 SUB PUSH1 0xC0 DUP7 ADD MSTORE PUSH2 0x4289 DUP3 DUP3 PUSH2 0x417B JUMP JUMPDEST SWAP2 POP POP PUSH1 0xE0 DUP4 ADD MLOAD PUSH2 0x429E PUSH1 0xE0 DUP7 ADD DUP3 PUSH2 0x41C2 JUMP JUMPDEST POP PUSH2 0x100 DUP4 ADD MLOAD PUSH2 0x42B3 PUSH2 0x100 DUP7 ADD DUP3 PUSH2 0x41D1 JUMP JUMPDEST POP DUP1 SWAP2 POP POP SWAP3 SWAP2 POP POP JUMP JUMPDEST PUSH0 PUSH1 0x20 DUP3 ADD SWAP1 POP DUP2 DUP2 SUB PUSH0 DUP4 ADD MSTORE PUSH2 0x42D6 DUP2 DUP5 PUSH2 0x41E0 JUMP JUMPDEST SWAP1 POP SWAP3 SWAP2 POP POP JUMP JUMPDEST PUSH0 DUP2 SWAP1 POP SWAP2 SWAP1 POP JUMP JUMPDEST PUSH0 PUSH2 0x4301 PUSH2 0x42FC PUSH2 0x42F7 DUP5 PUSH2 0x3A53 JUMP JUMPDEST PUSH2 0x42DE JUMP JUMPDEST PUSH2 0x3A53 JUMP JUMPDEST SWAP1 POP SWAP2 SWAP1 POP JUMP JUMPDEST PUSH0 PUSH2 0x4312 DUP3 PUSH2 0x42E7 JUMP JUMPDEST SWAP1 POP SWAP2 SWAP1 POP JUMP JUMPDEST PUSH0 PUSH2 0x4323 DUP3 PUSH2 0x4308 JUMP JUMPDEST SWAP1 POP SWAP2 SWAP1 POP JUMP JUMPDEST PUSH2 0x4333 DUP2 PUSH2 0x4319 JUMP JUMPDEST DUP3 MSTORE POP POP JUMP JUMPDEST PUSH0 PUSH1 0x20 DUP3 ADD SWAP1 POP PUSH2 0x434C PUSH0 DUP4 ADD DUP5 PUSH2 0x432A JUMP JUMPDEST SWAP3 SWAP2 POP POP JUMP JUMPDEST PUSH0 PUSH8 0xFFFFFFFFFFFFFFFF DUP3 GT ISZERO PUSH2 0x436C JUMPI PUSH2 0x436B PUSH2 0x3C11 JUMP JUMPDEST JUMPDEST PUSH1 0x20 DUP3 MUL SWAP1 POP PUSH1 0x20 DUP2 ADD SWAP1 POP SWAP2 SWAP1 POP JUMP JUMPDEST PUSH0 PUSH2 0x438F PUSH2 0x438A DUP5 PUSH2 0x4352 JUMP JUMPDEST PUSH2 0x3C6F JUMP JUMPDEST SWAP1 POP DUP1 DUP4 DUP3 MSTORE PUSH1 0x20 DUP3 ADD SWAP1 POP PUSH1 0x20 DUP5 MUL DUP4 ADD DUP6 DUP2 GT ISZERO PUSH2 0x43B2 JUMPI PUSH2 0x43B1 PUSH2 0x3F2B JUMP JUMPDEST JUMPDEST DUP4 JUMPDEST DUP2 DUP2 LT ISZERO PUSH2 0x43DB JUMPI DUP1 PUSH2 0x43C7 DUP9 DUP3 PUSH2 0x3A99 JUMP JUMPDEST DUP5 MSTORE PUSH1 0x20 DUP5 ADD SWAP4 POP POP PUSH1 0x20 DUP2 ADD SWAP1 POP PUSH2 0x43B4 JUMP JUMPDEST POP POP POP SWAP4 SWAP3 POP POP POP JUMP JUMPDEST PUSH0 DUP3 PUSH1 0x1F DUP4 ADD SLT PUSH2 0x43F9 JUMPI PUSH2 0x43F8 PUSH2 0x3BF9 JUMP JUMPDEST JUMPDEST DUP2 CALLDATALOAD PUSH2 0x4409 DUP5 DUP3 PUSH1 0x20 DUP7 ADD PUSH2 0x437D JUMP JUMPDEST SWAP2 POP POP SWAP3 SWAP2 POP POP JUMP JUMPDEST PUSH0 PUSH0 PUSH1 0x40 DUP4 DUP6 SUB SLT ISZERO PUSH2 0x4428 JUMPI PUSH2 0x4427 PUSH2 0x3A4B JUMP JUMPDEST JUMPDEST PUSH0 DUP4 ADD CALLDATALOAD PUSH8 0xFFFFFFFFFFFFFFFF DUP2 GT ISZERO PUSH2 0x4445 JUMPI PUSH2 0x4444 PUSH2 0x3A4F JUMP JUMPDEST JUMPDEST PUSH2 0x4451 DUP6 DUP3 DUP7 ADD PUSH2 0x43E5 JUMP JUMPDEST SWAP3 POP POP PUSH1 0x20 DUP4 ADD CALLDATALOAD PUSH8 0xFFFFFFFFFFFFFFFF DUP2 GT ISZERO PUSH2 0x4472 JUMPI PUSH2 0x4471 PUSH2 0x3A4F JUMP JUMPDEST JUMPDEST PUSH2 0x447E DUP6 DUP3 DUP7 ADD PUSH2 0x3F97 JUMP JUMPDEST SWAP2 POP POP SWAP3 POP SWAP3 SWAP1 POP JUMP JUMPDEST PUSH0 DUP2 MLOAD SWAP1 POP SWAP2 SWAP1 POP JUMP JUMPDEST PUSH0 DUP3 DUP3 MSTORE PUSH1 0x20 DUP3 ADD SWAP1 POP SWAP3 SWAP2 POP POP JUMP JUMPDEST PUSH0 DUP2 SWAP1 POP PUSH1 0x20 DUP3 ADD SWAP1 POP SWAP2 SWAP1 POP JUMP JUMPDEST PUSH0 PUSH2 0x44BC DUP4 DUP4 PUSH2 0x41B3 JUMP JUMPDEST PUSH1 0x20 DUP4 ADD SWAP1 POP SWAP3 SWAP2 POP POP JUMP JUMPDEST PUSH0 PUSH1 0x20 DUP3 ADD SWAP1 POP SWAP2 SWAP1 POP JUMP JUMPDEST PUSH0 PUSH2 0x44DE DUP3 PUSH2 0x4488 JUMP JUMPDEST PUSH2 0x44E8 DUP2 DUP6 PUSH2 0x4492 JUMP JUMPDEST SWAP4 POP PUSH2 0x44F3 DUP4 PUSH2 0x44A2 JUMP JUMPDEST DUP1 PUSH0 JUMPDEST DUP4 DUP2 LT ISZERO PUSH2 0x4523 JUMPI DUP2 MLOAD PUSH2 0x450A DUP9 DUP3 PUSH2 0x44B1 JUMP JUMPDEST SWAP8 POP PUSH2 0x4515 DUP4 PUSH2 0x44C8 JUMP JUMPDEST SWAP3 POP POP PUSH1 0x1 DUP2 ADD SWAP1 POP PUSH2 0x44F6 JUMP JUMPDEST POP DUP6 SWAP4 POP POP POP POP SWAP3 SWAP2 POP POP JUMP JUMPDEST PUSH0 PUSH1 0x20 DUP3 ADD SWAP1 POP DUP2 DUP2 SUB PUSH0 DUP4 ADD MSTORE PUSH2 0x4548 DUP2 DUP5 PUSH2 0x44D4 JUMP JUMPDEST SWAP1 POP SWAP3 SWAP2 POP POP JUMP JUMPDEST PUSH0 PUSH0 PUSH0 PUSH1 0x60 DUP5 DUP7 SUB SLT ISZERO PUSH2 0x4567 JUMPI PUSH2 0x4566 PUSH2 0x3A4B JUMP JUMPDEST JUMPDEST PUSH0 PUSH2 0x4574 DUP7 DUP3 DUP8 ADD PUSH2 0x3ACC JUMP JUMPDEST SWAP4 POP POP PUSH1 0x20 PUSH2 0x4585 DUP7 DUP3 DUP8 ADD PUSH2 0x3ACC JUMP JUMPDEST SWAP3 POP POP PUSH1 0x40 PUSH2 0x4596 DUP7 DUP3 DUP8 ADD PUSH2 0x3A99 JUMP JUMPDEST SWAP2 POP POP SWAP3 POP SWAP3 POP SWAP3 JUMP JUMPDEST PUSH2 0x45A9 DUP2 PUSH2 0x3BC6 JUMP JUMPDEST DUP2 EQ PUSH2 0x45B3 JUMPI PUSH0 PUSH0 REVERT JUMPDEST POP JUMP JUMPDEST PUSH0 DUP2 CALLDATALOAD SWAP1 POP PUSH2 0x45C4 DUP2 PUSH2 0x45A0 JUMP JUMPDEST SWAP3 SWAP2 POP POP JUMP JUMPDEST PUSH0 PUSH0 PUSH1 0x40 DUP4 DUP6 SUB SLT ISZERO PUSH2 0x45E0 JUMPI PUSH2 0x45DF PUSH2 0x3A4B JUMP JUMPDEST JUMPDEST PUSH0 PUSH2 0x45ED DUP6 DUP3 DUP7 ADD PUSH2 0x3A99 JUMP JUMPDEST SWAP3 POP POP PUSH1 0x20 PUSH2 0x45FE DUP6 DUP3 DUP7 ADD PUSH2 0x45B6 JUMP JUMPDEST SWAP2 POP POP SWAP3 POP SWAP3 SWAP1 POP JUMP JUMPDEST PUSH0 PUSH0 PUSH0 PUSH0 PUSH0 PUSH0 PUSH1 0xC0 DUP8 DUP10 SUB SLT ISZERO PUSH2 0x4622 JUMPI PUSH2 0x4621 PUSH2 0x3A4B JUMP JUMPDEST JUMPDEST PUSH0 DUP8 ADD CALLDATALOAD PUSH8 0xFFFFFFFFFFFFFFFF DUP2 GT ISZERO PUSH2 0x463F JUMPI PUSH2 0x463E PUSH2 0x3A4F JUMP JUMPDEST JUMPDEST PUSH2 0x464B DUP10 DUP3 DUP11 ADD PUSH2 0x3D08 JUMP JUMPDEST SWAP7 POP POP PUSH1 0x20 PUSH2 0x465C DUP10 DUP3 DUP11 ADD PUSH2 0x3ACC JUMP JUMPDEST SWAP6 POP POP PUSH1 0x40 DUP8 ADD CALLDATALOAD PUSH8 0xFFFFFFFFFFFFFFFF DUP2 GT ISZERO PUSH2 0x467D JUMPI PUSH2 0x467C PUSH2 0x3A4F JUMP JUMPDEST JUMPDEST PUSH2 0x4689 DUP10 DUP3 DUP11 ADD PUSH2 0x3D08 JUMP JUMPDEST SWAP5 POP POP PUSH1 0x60 DUP8 ADD CALLDATALOAD PUSH8 0xFFFFFFFFFFFFFFFF DUP2 GT ISZERO PUSH2 0x46AA JUMPI PUSH2 0x46A9 PUSH2 0x3A4F JUMP JUMPDEST JUMPDEST PUSH2 0x46B6 DUP10 DUP3 DUP11 ADD PUSH2 0x3D08 JUMP JUMPDEST SWAP4 POP POP PUSH1 0x80 DUP8 ADD CALLDATALOAD PUSH8 0xFFFFFFFFFFFFFFFF DUP2 GT ISZERO PUSH2 0x46D7 JUMPI PUSH2 0x46D6 PUSH2 0x3A4F JUMP JUMPDEST JUMPDEST PUSH2 0x46E3 DUP10 DUP3 DUP11 ADD PUSH2 0x3D08 JUMP JUMPDEST SWAP3 POP POP PUSH1 0xA0 DUP8 ADD CALLDATALOAD PUSH8 0xFFFFFFFFFFFFFFFF DUP2 GT ISZERO PUSH2 0x4704 JUMPI PUSH2 0x4703 PUSH2 0x3A4F JUMP JUMPDEST JUMPDEST PUSH2 0x4710 DUP10 DUP3 DUP11 ADD PUSH2 0x3D08 JUMP JUMPDEST SWAP2 POP POP SWAP3 SWAP6 POP SWAP3 SWAP6 POP SWAP3 SWAP6 JUMP JUMPDEST PUSH0 PUSH0 PUSH1 0x40 DUP4 DUP6 SUB SLT ISZERO PUSH2 0x4733 JUMPI PUSH2 0x4732 PUSH2 0x3A4B JUMP JUMPDEST JUMPDEST PUSH0 DUP4 ADD CALLDATALOAD PUSH8 0xFFFFFFFFFFFFFFFF DUP2 GT ISZERO PUSH2 0x4750 JUMPI PUSH2 0x474F PUSH2 0x3A4F JUMP JUMPDEST JUMPDEST PUSH2 0x475C DUP6 DUP3 DUP7 ADD PUSH2 0x3D08 JUMP JUMPDEST SWAP3 POP POP PUSH1 0x20 PUSH2 0x476D DUP6 DUP3 DUP7 ADD PUSH2 0x3A99 JUMP JUMPDEST SWAP2 POP POP SWAP3 POP SWAP3 SWAP1 POP JUMP JUMPDEST PUSH0 PUSH0 PUSH1 0x40 DUP4 DUP6 SUB SLT ISZERO PUSH2 0x478D JUMPI PUSH2 0x478C PUSH2 0x3A4B JUMP JUMPDEST JUMPDEST PUSH0 PUSH2 0x479A DUP6 DUP3 DUP7 ADD PUSH2 0x3A99 JUMP JUMPDEST SWAP3 POP POP PUSH1 0x20 PUSH2 0x47AB DUP6 DUP3 DUP7 ADD PUSH2 0x3A99 JUMP JUMPDEST SWAP2 POP POP SWAP3 POP SWAP3 SWAP1 POP JUMP JUMPDEST PUSH0 PUSH0 PUSH0 PUSH0 PUSH0 PUSH1 0xA0 DUP7 DUP9 SUB SLT ISZERO PUSH2 0x47CE JUMPI PUSH2 0x47CD PUSH2 0x3A4B JUMP JUMPDEST JUMPDEST PUSH0 PUSH2 0x47DB DUP9 DUP3 DUP10 ADD PUSH2 0x3A99 JUMP JUMPDEST SWAP6 POP POP PUSH1 0x20 PUSH2 0x47EC DUP9 DUP3 DUP10 ADD PUSH2 0x3A99 JUMP JUMPDEST SWAP5 POP POP PUSH1 0x40 PUSH2 0x47FD DUP9 DUP3 DUP10 ADD PUSH2 0x3ACC JUMP JUMPDEST SWAP4 POP POP PUSH1 0x60 PUSH2 0x480E DUP9 DUP3 DUP10 ADD PUSH2 0x3ACC JUMP JUMPDEST SWAP3 POP POP PUSH1 0x80 DUP7 ADD CALLDATALOAD PUSH8 0xFFFFFFFFFFFFFFFF DUP2 GT ISZERO PUSH2 0x482F JUMPI PUSH2 0x482E PUSH2 0x3A4F JUMP JUMPDEST JUMPDEST PUSH2 0x483B DUP9 DUP3 DUP10 ADD PUSH2 0x4035 JUMP JUMPDEST SWAP2 POP POP SWAP3 SWAP6 POP SWAP3 SWAP6 SWAP1 SWAP4 POP JUMP JUMPDEST PUSH0 PUSH2 0x120 DUP3 ADD SWAP1 POP DUP2 DUP2 SUB PUSH0 DUP4 ADD MSTORE PUSH2 0x4861 DUP2 DUP13 PUSH2 0x3DF7 JUMP JUMPDEST SWAP1 POP PUSH2 0x4870 PUSH1 0x20 DUP4 ADD DUP12 PUSH2 0x3B1E JUMP JUMPDEST PUSH2 0x487D PUSH1 0x40 DUP4 ADD DUP11 PUSH2 0x3B1E JUMP JUMPDEST DUP2 DUP2 SUB PUSH1 0x60 DUP4 ADD MSTORE PUSH2 0x488F DUP2 DUP10 PUSH2 0x3DF7 JUMP JUMPDEST SWAP1 POP DUP2 DUP2 SUB PUSH1 0x80 DUP4 ADD MSTORE PUSH2 0x48A3 DUP2 DUP9 PUSH2 0x3DF7 JUMP JUMPDEST SWAP1 POP DUP2 DUP2 SUB PUSH1 0xA0 DUP4 ADD MSTORE PUSH2 0x48B7 DUP2 DUP8 PUSH2 0x3DF7 JUMP JUMPDEST SWAP1 POP DUP2 DUP2 SUB PUSH1 0xC0 DUP4 ADD MSTORE PUSH2 0x48CB DUP2 DUP7 PUSH2 0x3DF7 JUMP JUMPDEST SWAP1 POP PUSH2 0x48DA PUSH1 0xE0 DUP4 ADD DUP6 PUSH2 0x3BD1 JUMP JUMPDEST PUSH2 0x48E8 PUSH2 0x100 DUP4 ADD DUP5 PUSH2 0x3D7C JUMP JUMPDEST SWAP11 SWAP10 POP POP POP POP POP POP POP POP POP POP JUMP JUMPDEST PUSH0 DUP2 SWAP1 POP SWAP3 SWAP2 POP POP JUMP JUMPDEST PUSH0 PUSH2 0x490A DUP3 PUSH2 0x3DCF JUMP JUMPDEST PUSH2 0x4914 DUP2 DUP6 PUSH2 0x48F6 JUMP JUMPDEST SWAP4 POP PUSH2 0x4924 DUP2 DUP6 PUSH1 0x20 DUP7 ADD PUSH2 0x3DE9 JUMP JUMPDEST DUP1 DUP5 ADD SWAP2 POP POP SWAP3 SWAP2 POP POP JUMP JUMPDEST PUSH0 PUSH2 0x493B DUP3 DUP5 PUSH2 0x4900 JUMP JUMPDEST SWAP2 POP DUP2 SWAP1 POP SWAP3 SWAP2 POP POP JUMP JUMPDEST PUSH32 0x4E487B7100000000000000000000000000000000000000000000000000000000 PUSH0 MSTORE PUSH1 0x22 PUSH1 0x4 MSTORE PUSH1 0x24 PUSH0 REVERT JUMPDEST PUSH0 PUSH1 0x2 DUP3 DIV SWAP1 POP PUSH1 0x1 DUP3 AND DUP1 PUSH2 0x498A JUMPI PUSH1 0x7F DUP3 AND SWAP2 POP JUMPDEST PUSH1 0x20 DUP3 LT DUP2 SUB PUSH2 0x499D JUMPI PUSH2 0x499C PUSH2 0x4946 JUMP JUMPDEST JUMPDEST POP SWAP2 SWAP1 POP JUMP JUMPDEST PUSH32 0x50726F7065727479206E6F7420666F756E640000000000000000000000000000 PUSH0 DUP3 ADD MSTORE POP JUMP JUMPDEST PUSH0 PUSH2 0x49D7 PUSH1 0x12 DUP4 PUSH2 0x3DD9 JUMP JUMPDEST SWAP2 POP PUSH2 0x49E2 DUP3 PUSH2 0x49A3 JUMP JUMPDEST PUSH1 0x20 DUP3 ADD SWAP1 POP SWAP2 SWAP1 POP JUMP JUMPDEST PUSH0 PUSH1 0x20 DUP3 ADD SWAP1 POP DUP2 DUP2 SUB PUSH0 DUP4 ADD MSTORE PUSH2 0x4A04 DUP2 PUSH2 0x49CB JUMP JUMPDEST SWAP1 POP SWAP2 SWAP1 POP JUMP JUMPDEST PUSH32 0x646174613A6170706C69636174696F6E2F6A736F6E3B757466382C7B00000000 PUSH0 DUP3 ADD MSTORE POP JUMP JUMPDEST PUSH0 PUSH2 0x4A3F PUSH1 0x1C DUP4 PUSH2 0x48F6 JUMP JUMPDEST SWAP2 POP PUSH2 0x4A4A DUP3 PUSH2 0x4A0B JUMP JUMPDEST PUSH1 0x1C DUP3 ADD SWAP1 POP SWAP2 SWAP1 POP JUMP JUMPDEST PUSH32 0x226E616D65223A22000000000000000000000000000000000000000000000000 PUSH0 DUP3 ADD MSTORE POP JUMP JUMPDEST PUSH0 PUSH2 0x4A89 PUSH1 0x8 DUP4 PUSH2 0x48F6 JUMP JUMPDEST SWAP2 POP PUSH2 0x4A94 DUP3 PUSH2 0x4A55 JUMP JUMPDEST PUSH1 0x8 DUP3 ADD SWAP1 POP SWAP2 SWAP1 POP JUMP JUMPDEST PUSH32 0x222C000000000000000000000000000000000000000000000000000000000000 PUSH0 DUP3 ADD MSTORE POP JUMP JUMPDEST PUSH0 PUSH2 0x4AD3 PUSH1 0x2 DUP4 PUSH2 0x48F6 JUMP JUMPDEST SWAP2 POP PUSH2 0x4ADE DUP3 PUSH2 0x4A9F JUMP JUMPDEST PUSH1 0x2 DUP3 ADD SWAP1 POP SWAP2 SWAP1 POP JUMP JUMPDEST PUSH32 0x226465736372697074696F6E223A224469676974616C2050726F706572747920 PUSH0 DUP3 ADD MSTORE PUSH32 0x4365727469666963617465222C00000000000000000000000000000000000000 PUSH1 0x20 DUP3 ADD MSTORE POP JUMP JUMPDEST PUSH0 PUSH2 0x4B43 PUSH1 0x2D DUP4 PUSH2 0x48F6 JUMP JUMPDEST SWAP2 POP PUSH2 0x4B4E DUP3 PUSH2 0x4AE9 JUMP JUMPDEST PUSH1 0x2D DUP3 ADD SWAP1 POP SWAP2 SWAP1 POP JUMP JUMPDEST PUSH32 0x22696D616765223A22697066733A2F2F00000000000000000000000000000000 PUSH0 DUP3 ADD MSTORE POP JUMP JUMPDEST PUSH0 PUSH2 0x4B8D PUSH1 0x10 DUP4 PUSH2 0x48F6 JUMP JUMPDEST SWAP2 POP PUSH2 0x4B98 DUP3 PUSH2 0x4B59 JUMP JUMPDEST PUSH1 0x10 DUP3 ADD SWAP1 POP SWAP2 SWAP1 POP JUMP JUMPDEST PUSH32 0x2261747472696275746573223A5B000000000000000000000000000000000000 PUSH0 DUP3 ADD MSTORE POP JUMP JUMPDEST PUSH0 PUSH2 0x4BD7 PUSH1 0xE DUP4 PUSH2 0x48F6 JUMP JUMPDEST SWAP2 POP PUSH2 0x4BE2 DUP3 PUSH2 0x4BA3 JUMP JUMPDEST PUSH1 0xE DUP3 ADD SWAP1 POP SWAP2 SWAP1 POP JUMP JUMPDEST PUSH32 0x7B2274726169745F74797065223A2244697374726963742F43697479222C2276 PUSH0 DUP3 ADD MSTORE PUSH32 0x616C7565223A2200000000000000000000000000000000000000000000000000 PUSH1 0x20 DUP3 ADD MSTORE POP JUMP JUMPDEST PUSH0 PUSH2 0x4C47 PUSH1 0x27 DUP4 PUSH2 0x48F6 JUMP JUMPDEST SWAP2 POP PUSH2 0x4C52 DUP3 PUSH2 0x4BED JUMP JUMPDEST PUSH1 0x27 DUP3 ADD SWAP1 POP SWAP2 SWAP1 POP JUMP JUMPDEST PUSH32 0x227D2C0000000000000000000000000000000000000000000000000000000000 PUSH0 DUP3 ADD MSTORE POP JUMP JUMPDEST PUSH0 PUSH2 0x4C91 PUSH1 0x3 DUP4 PUSH2 0x48F6 JUMP JUMPDEST SWAP2 POP PUSH2 0x4C9C DUP3 PUSH2 0x4C5D JUMP JUMPDEST PUSH1 0x3 DUP3 ADD SWAP1 POP SWAP2 SWAP1 POP JUMP JUMPDEST PUSH32 0x7B2274726169745F74797065223A22546F74616C204C616E642041726561222C PUSH0 DUP3 ADD MSTORE PUSH32 0x2276616C7565223A220000000000000000000000000000000000000000000000 PUSH1 0x20 DUP3 ADD MSTORE POP JUMP JUMPDEST PUSH0 PUSH2 0x4D01 PUSH1 0x29 DUP4 PUSH2 0x48F6 JUMP JUMPDEST SWAP2 POP PUSH2 0x4D0C DUP3 PUSH2 0x4CA7 JUMP JUMPDEST PUSH1 0x29 DUP3 ADD SWAP1 POP SWAP2 SWAP1 POP JUMP JUMPDEST PUSH32 0x20737175617265206D6574657273227D2C000000000000000000000000000000 PUSH0 DUP3 ADD MSTORE POP JUMP JUMPDEST PUSH0 PUSH2 0x4D4B PUSH1 0x11 DUP4 PUSH2 0x48F6 JUMP JUMPDEST SWAP2 POP PUSH2 0x4D56 DUP3 PUSH2 0x4D17 JUMP JUMPDEST PUSH1 0x11 DUP3 ADD SWAP1 POP SWAP2 SWAP1 POP JUMP JUMPDEST PUSH32 0x7B2274726169745F74797065223A224D696E7465642041726561222C2276616C PUSH0 DUP3 ADD MSTORE PUSH32 0x7565223A22000000000000000000000000000000000000000000000000000000 PUSH1 0x20 DUP3 ADD MSTORE POP JUMP JUMPDEST PUSH0 PUSH2 0x4DBB PUSH1 0x25 DUP4 PUSH2 0x48F6 JUMP JUMPDEST SWAP2 POP PUSH2 0x4DC6 DUP3 PUSH2 0x4D61 JUMP JUMPDEST PUSH1 0x25 DUP3 ADD SWAP1 POP SWAP2 SWAP1 POP JUMP JUMPDEST PUSH32 0x7B2274726169745F74797065223A224365727469666963617465205479706522 PUSH0 DUP3 ADD MSTORE PUSH32 0x2C2276616C7565223A2200000000000000000000000000000000000000000000 PUSH1 0x20 DUP3 ADD MSTORE POP JUMP JUMPDEST PUSH0 PUSH2 0x4E2B PUSH1 0x2A DUP4 PUSH2 0x48F6 JUMP JUMPDEST SWAP2 POP PUSH2 0x4E36 DUP3 PUSH2 0x4DD1 JUMP JUMPDEST PUSH1 0x2A DUP3 ADD SWAP1 POP SWAP2 SWAP1 POP JUMP JUMPDEST PUSH32 0x7B2274726169745F74797065223A22566572696669636174696F6E2053746174 PUSH0 DUP3 ADD MSTORE PUSH32 0x7573222C2276616C7565223A2200000000000000000000000000000000000000 PUSH1 0x20 DUP3 ADD MSTORE POP JUMP JUMPDEST PUSH0 PUSH2 0x4E9B PUSH1 0x2D DUP4 PUSH2 0x48F6 JUMP JUMPDEST SWAP2 POP PUSH2 0x4EA6 DUP3 PUSH2 0x4E41 JUMP JUMPDEST PUSH1 0x2D DUP3 ADD SWAP1 POP SWAP2 SWAP1 POP JUMP JUMPDEST PUSH32 0x7B2274726169745F74797065223A224365727469666963617465204E756D6265 PUSH0 DUP3 ADD MSTORE PUSH32 0x72222C2276616C7565223A220000000000000000000000000000000000000000 PUSH1 0x20 DUP3 ADD MSTORE POP JUMP JUMPDEST PUSH0 PUSH2 0x4F0B PUSH1 0x2C DUP4 PUSH2 0x48F6 JUMP JUMPDEST SWAP2 POP PUSH2 0x4F16 DUP3 PUSH2 0x4EB1 JUMP JUMPDEST PUSH1 0x2C DUP3 ADD SWAP1 POP SWAP2 SWAP1 POP JUMP JUMPDEST PUSH32 0x7B2274726169745F74797065223A224175746F20566572696669636174696F6E PUSH0 DUP3 ADD MSTORE PUSH32 0x222C2276616C7565223A22000000000000000000000000000000000000000000 PUSH1 0x20 DUP3 ADD MSTORE POP JUMP JUMPDEST PUSH0 PUSH2 0x4F7B PUSH1 0x2B DUP4 PUSH2 0x48F6 JUMP JUMPDEST SWAP2 POP PUSH2 0x4F86 DUP3 PUSH2 0x4F21 JUMP JUMPDEST PUSH1 0x2B DUP3 ADD SWAP1 POP SWAP2 SWAP1 POP JUMP JUMPDEST PUSH32 0x227D000000000000000000000000000000000000000000000000000000000000 PUSH0 DUP3 ADD MSTORE POP JUMP JUMPDEST PUSH0 PUSH2 0x4FC5 PUSH1 0x2 DUP4 PUSH2 0x48F6 JUMP JUMPDEST SWAP2 POP PUSH2 0x4FD0 DUP3 PUSH2 0x4F91 JUMP JUMPDEST PUSH1 0x2 DUP3 ADD SWAP1 POP SWAP2 SWAP1 POP JUMP JUMPDEST PUSH32 0x5D7D000000000000000000000000000000000000000000000000000000000000 PUSH0 DUP3 ADD MSTORE POP JUMP JUMPDEST PUSH0 PUSH2 0x500F PUSH1 0x2 DUP4 PUSH2 0x48F6 JUMP JUMPDEST SWAP2 POP PUSH2 0x501A DUP3 PUSH2 0x4FDB JUMP JUMPDEST PUSH1 0x2 DUP3 ADD SWAP1 POP SWAP2 SWAP1 POP JUMP JUMPDEST PUSH0 PUSH2 0x502F DUP3 PUSH2 0x4A33 JUMP JUMPDEST SWAP2 POP PUSH2 0x503A DUP3 PUSH2 0x4A7D JUMP JUMPDEST SWAP2 POP PUSH2 0x5046 DUP3 DUP13 PUSH2 0x4900 JUMP JUMPDEST SWAP2 POP PUSH2 0x5051 DUP3 PUSH2 0x4AC7 JUMP JUMPDEST SWAP2 POP PUSH2 0x505C DUP3 PUSH2 0x4B37 JUMP JUMPDEST SWAP2 POP PUSH2 0x5067 DUP3 PUSH2 0x4B81 JUMP JUMPDEST SWAP2 POP PUSH2 0x5073 DUP3 DUP12 PUSH2 0x4900 JUMP JUMPDEST SWAP2 POP PUSH2 0x507E DUP3 PUSH2 0x4AC7 JUMP JUMPDEST SWAP2 POP PUSH2 0x5089 DUP3 PUSH2 0x4BCB JUMP JUMPDEST SWAP2 POP PUSH2 0x5094 DUP3 PUSH2 0x4C3B JUMP JUMPDEST SWAP2 POP PUSH2 0x50A0 DUP3 DUP11 PUSH2 0x4900 JUMP JUMPDEST SWAP2 POP PUSH2 0x50AB DUP3 PUSH2 0x4C85 JUMP JUMPDEST SWAP2 POP PUSH2 0x50B6 DUP3 PUSH2 0x4CF5 JUMP JUMPDEST SWAP2 POP PUSH2 0x50C2 DUP3 DUP10 PUSH2 0x4900 JUMP JUMPDEST SWAP2 POP PUSH2 0x50CD DUP3 PUSH2 0x4D3F JUMP JUMPDEST SWAP2 POP PUSH2 0x50D8 DUP3 PUSH2 0x4DAF JUMP JUMPDEST SWAP2 POP PUSH2 0x50E4 DUP3 DUP9 PUSH2 0x4900 JUMP JUMPDEST SWAP2 POP PUSH2 0x50EF DUP3 PUSH2 0x4D3F JUMP JUMPDEST SWAP2 POP PUSH2 0x50FA DUP3 PUSH2 0x4E1F JUMP JUMPDEST SWAP2 POP PUSH2 0x5106 DUP3 DUP8 PUSH2 0x4900 JUMP JUMPDEST SWAP2 POP PUSH2 0x5111 DUP3 PUSH2 0x4C85 JUMP JUMPDEST SWAP2 POP PUSH2 0x511C DUP3 PUSH2 0x4E8F JUMP JUMPDEST SWAP2 POP PUSH2 0x5128 DUP3 DUP7 PUSH2 0x4900 JUMP JUMPDEST SWAP2 POP PUSH2 0x5133 DUP3 PUSH2 0x4C85 JUMP JUMPDEST SWAP2 POP PUSH2 0x513E DUP3 PUSH2 0x4EFF JUMP JUMPDEST SWAP2 POP PUSH2 0x514A DUP3 DUP6 PUSH2 0x4900 JUMP JUMPDEST SWAP2 POP PUSH2 0x5155 DUP3 PUSH2 0x4C85 JUMP JUMPDEST SWAP2 POP PUSH2 0x5160 DUP3 PUSH2 0x4F6F JUMP JUMPDEST SWAP2 POP PUSH2 0x516C DUP3 DUP5 PUSH2 0x4900 JUMP JUMPDEST SWAP2 POP PUSH2 0x5177 DUP3 PUSH2 0x4FB9 JUMP JUMPDEST SWAP2 POP PUSH2 0x5182 DUP3 PUSH2 0x5003 JUMP JUMPDEST SWAP2 POP DUP2 SWAP1 POP SWAP11 SWAP10 POP POP POP POP POP POP POP POP POP POP JUMP JUMPDEST PUSH0 DUP2 MLOAD SWAP1 POP PUSH2 0x51A3 DUP2 PUSH2 0x3AB6 JUMP JUMPDEST SWAP3 SWAP2 POP POP JUMP JUMPDEST PUSH0 PUSH1 0x20 DUP3 DUP5 SUB SLT ISZERO PUSH2 0x51BE JUMPI PUSH2 0x51BD PUSH2 0x3A4B JUMP JUMPDEST JUMPDEST PUSH0 PUSH2 0x51CB DUP5 DUP3 DUP6 ADD PUSH2 0x5195 JUMP JUMPDEST SWAP2 POP POP SWAP3 SWAP2 POP POP JUMP JUMPDEST PUSH32 0x4E6F2062616C616E636520746F20776974686472617700000000000000000000 PUSH0 DUP3 ADD MSTORE POP JUMP JUMPDEST PUSH0 PUSH2 0x5208 PUSH1 0x16 DUP4 PUSH2 0x3DD9 JUMP JUMPDEST SWAP2 POP PUSH2 0x5213 DUP3 PUSH2 0x51D4 JUMP JUMPDEST PUSH1 0x20 DUP3 ADD SWAP1 POP SWAP2 SWAP1 POP JUMP JUMPDEST PUSH0 PUSH1 0x20 DUP3 ADD SWAP1 POP DUP2 DUP2 SUB PUSH0 DUP4 ADD MSTORE PUSH2 0x5235 DUP2 PUSH2 0x51FC JUMP JUMPDEST SWAP1 POP SWAP2 SWAP1 POP JUMP JUMPDEST PUSH0 PUSH1 0x40 DUP3 ADD SWAP1 POP PUSH2 0x524F PUSH0 DUP4 ADD DUP6 PUSH2 0x3D7C JUMP JUMPDEST PUSH2 0x525C PUSH1 0x20 DUP4 ADD DUP5 PUSH2 0x3B1E JUMP JUMPDEST SWAP4 SWAP3 POP POP POP JUMP JUMPDEST PUSH0 DUP2 MLOAD SWAP1 POP PUSH2 0x5271 DUP2 PUSH2 0x45A0 JUMP JUMPDEST SWAP3 SWAP2 POP POP JUMP JUMPDEST PUSH0 PUSH1 0x20 DUP3 DUP5 SUB SLT ISZERO PUSH2 0x528C JUMPI PUSH2 0x528B PUSH2 0x3A4B JUMP JUMPDEST JUMPDEST PUSH0 PUSH2 0x5299 DUP5 DUP3 DUP6 ADD PUSH2 0x5263 JUMP JUMPDEST SWAP2 POP POP SWAP3 SWAP2 POP POP JUMP JUMPDEST PUSH32 0x5665726966696572206E6F7420666F756E640000000000000000000000000000 PUSH0 DUP3 ADD MSTORE POP JUMP JUMPDEST PUSH0 PUSH2 0x52D6 PUSH1 0x12 DUP4 PUSH2 0x3DD9 JUMP JUMPDEST SWAP2 POP PUSH2 0x52E1 DUP3 PUSH2 0x52A2 JUMP JUMPDEST PUSH1 0x20 DUP3 ADD SWAP1 POP SWAP2 SWAP1 POP JUMP JUMPDEST PUSH0 PUSH1 0x20 DUP3 ADD SWAP1 POP DUP2 DUP2 SUB PUSH0 DUP4 ADD MSTORE PUSH2 0x5303 DUP2 PUSH2 0x52CA JUMP JUMPDEST SWAP1 POP SWAP2 SWAP1 POP JUMP JUMPDEST PUSH0 PUSH1 0x40 DUP3 ADD SWAP1 POP PUSH2 0x531D PUSH0 DUP4 ADD DUP6 PUSH2 0x3D7C JUMP JUMPDEST PUSH2 0x532A PUSH1 0x20 DUP4 ADD DUP5 PUSH2 0x3D7C JUMP JUMPDEST SWAP4 SWAP3 POP POP POP JUMP JUMPDEST PUSH32 0x4175746F20766572696669636174696F6E20656E61626C656400000000000000 PUSH0 DUP3 ADD MSTORE POP JUMP JUMPDEST PUSH0 PUSH2 0x5365 PUSH1 0x19 DUP4 PUSH2 0x3DD9 JUMP JUMPDEST SWAP2 POP PUSH2 0x5370 DUP3 PUSH2 0x5331 JUMP JUMPDEST PUSH1 0x20 DUP3 ADD SWAP1 POP SWAP2 SWAP1 POP JUMP JUMPDEST PUSH0 PUSH1 0x20 DUP3 ADD SWAP1 POP DUP2 DUP2 SUB PUSH0 DUP4 ADD MSTORE PUSH2 0x5392 DUP2 PUSH2 0x5359 JUMP JUMPDEST SWAP1 POP SWAP2 SWAP1 POP JUMP JUMPDEST PUSH32 0x50726F7065727479206E6F742072656769737465726564000000000000000000 PUSH0 DUP3 ADD MSTORE POP JUMP JUMPDEST PUSH0 PUSH2 0x53CD PUSH1 0x17 DUP4 PUSH2 0x3DD9 JUMP JUMPDEST SWAP2 POP PUSH2 0x53D8 DUP3 PUSH2 0x5399 JUMP JUMPDEST PUSH1 0x20 DUP3 ADD SWAP1 POP SWAP2 SWAP1 POP JUMP JUMPDEST PUSH0 PUSH1 0x20 DUP3 ADD SWAP1 POP DUP2 DUP2 SUB PUSH0 DUP4 ADD MSTORE PUSH2 0x53FA DUP2 PUSH2 0x53C1 JUMP JUMPDEST SWAP1 POP SWAP2 SWAP1 POP JUMP JUMPDEST PUSH32 0x416C726561647920766572696669656400000000000000000000000000000000 PUSH0 DUP3 ADD MSTORE POP JUMP JUMPDEST PUSH0 PUSH2 0x5435 PUSH1 0x10 DUP4 PUSH2 0x3DD9 JUMP JUMPDEST SWAP2 POP PUSH2 0x5440 DUP3 PUSH2 0x5401 JUMP JUMPDEST PUSH1 0x20 DUP3 ADD SWAP1 POP SWAP2 SWAP1 POP JUMP JUMPDEST PUSH0 PUSH1 0x20 DUP3 ADD SWAP1 POP DUP2 DUP2 SUB PUSH0 DUP4 ADD MSTORE PUSH2 0x5462 DUP2 PUSH2 0x5429 JUMP JUMPDEST SWAP1 POP SWAP2 SWAP1 POP JUMP JUMPDEST PUSH32 0x4E6F7420616C6C206C616E642061726561206D696E7465640000000000000000 PUSH0 DUP3 ADD MSTORE POP JUMP JUMPDEST PUSH0 PUSH2 0x549D PUSH1 0x18 DUP4 PUSH2 0x3DD9 JUMP JUMPDEST SWAP2 POP PUSH2 0x54A8 DUP3 PUSH2 0x5469 JUMP JUMPDEST PUSH1 0x20 DUP3 ADD SWAP1 POP SWAP2 SWAP1 POP JUMP JUMPDEST PUSH0 PUSH1 0x20 DUP3 ADD SWAP1 POP DUP2 DUP2 SUB PUSH0 DUP4 ADD MSTORE PUSH2 0x54CA DUP2 PUSH2 0x5491 JUMP JUMPDEST SWAP1 POP SWAP2 SWAP1 POP JUMP JUMPDEST PUSH0 DUP2 SWAP1 POP DUP2 PUSH0 MSTORE PUSH1 0x20 PUSH0 KECCAK256 SWAP1 POP SWAP2 SWAP1 POP JUMP JUMPDEST PUSH0 DUP2 SLOAD PUSH2 0x54EF DUP2 PUSH2 0x4973 JUMP JUMPDEST PUSH2 0x54F9 DUP2 DUP7 PUSH2 0x48F6 JUMP JUMPDEST SWAP5 POP PUSH1 0x1 DUP3 AND PUSH0 DUP2 EQ PUSH2 0x5513 JUMPI PUSH1 0x1 DUP2 EQ PUSH2 0x5528 JUMPI PUSH2 0x555A JUMP JUMPDEST PUSH1 0xFF NOT DUP4 AND DUP7 MSTORE DUP2 ISZERO ISZERO DUP3 MUL DUP7 ADD SWAP4 POP PUSH2 0x555A JUMP JUMPDEST PUSH2 0x5531 DUP6 PUSH2 0x54D1 JUMP JUMPDEST PUSH0 JUMPDEST DUP4 DUP2 LT ISZERO PUSH2 0x5552 JUMPI DUP2 SLOAD DUP2 DUP10 ADD MSTORE PUSH1 0x1 DUP3 ADD SWAP2 POP PUSH1 0x20 DUP2 ADD SWAP1 POP PUSH2 0x5533 JUMP JUMPDEST DUP4 DUP9 ADD SWAP6 POP POP POP JUMPDEST POP POP POP SWAP3 SWAP2 POP POP JUMP JUMPDEST PUSH0 PUSH2 0x556E DUP3 DUP5 PUSH2 0x54E3 JUMP JUMPDEST SWAP2 POP DUP2 SWAP1 POP SWAP3 SWAP2 POP POP JUMP JUMPDEST PUSH32 0x4F6E6C792064657369676E617465642064697374726963742076657269666965 PUSH0 DUP3 ADD MSTORE PUSH32 0x7200000000000000000000000000000000000000000000000000000000000000 PUSH1 0x20 DUP3 ADD MSTORE POP JUMP JUMPDEST PUSH0 PUSH2 0x55D3 PUSH1 0x21 DUP4 PUSH2 0x3DD9 JUMP JUMPDEST SWAP2 POP PUSH2 0x55DE DUP3 PUSH2 0x5579 JUMP JUMPDEST PUSH1 0x40 DUP3 ADD SWAP1 POP SWAP2 SWAP1 POP JUMP JUMPDEST PUSH0 PUSH1 0x20 DUP3 ADD SWAP1 POP DUP2 DUP2 SUB PUSH0 DUP4 ADD MSTORE PUSH2 0x5600 DUP2 PUSH2 0x55C7 JUMP JUMPDEST SWAP1 POP SWAP2 SWAP1 POP JUMP JUMPDEST PUSH0 PUSH1 0x40 DUP3 ADD SWAP1 POP PUSH2 0x561A PUSH0 DUP4 ADD DUP6 PUSH2 0x3B1E JUMP JUMPDEST PUSH2 0x5627 PUSH1 0x20 DUP4 ADD DUP5 PUSH2 0x3B1E JUMP JUMPDEST SWAP4 SWAP3 POP POP POP JUMP JUMPDEST PUSH32 0x4E487B7100000000000000000000000000000000000000000000000000000000 PUSH0 MSTORE PUSH1 0x32 PUSH1 0x4 MSTORE PUSH1 0x24 PUSH0 REVERT JUMPDEST PUSH32 0x50726F706572747920616C726561647920766572696669656400000000000000 PUSH0 DUP3 ADD MSTORE POP JUMP JUMPDEST PUSH0 PUSH2 0x568F PUSH1 0x19 DUP4 PUSH2 0x3DD9 JUMP JUMPDEST SWAP2 POP PUSH2 0x569A DUP3 PUSH2 0x565B JUMP JUMPDEST PUSH1 0x20 DUP3 ADD SWAP1 POP SWAP2 SWAP1 POP JUMP JUMPDEST PUSH0 PUSH1 0x20 DUP3 ADD SWAP1 POP DUP2 DUP2 SUB PUSH0 DUP4 ADD MSTORE PUSH2 0x56BC DUP2 PUSH2 0x5683 JUMP JUMPDEST SWAP1 POP SWAP2 SWAP1 POP JUMP JUMPDEST PUSH32 0x4E487B7100000000000000000000000000000000000000000000000000000000 PUSH0 MSTORE PUSH1 0x11 PUSH1 0x4 MSTORE PUSH1 0x24 PUSH0 REVERT JUMPDEST PUSH0 PUSH2 0x56FA DUP3 PUSH2 0x3AAD JUMP JUMPDEST SWAP2 POP PUSH2 0x5705 DUP4 PUSH2 0x3AAD JUMP JUMPDEST SWAP3 POP DUP3 DUP3 ADD SWAP1 POP DUP1 DUP3 GT ISZERO PUSH2 0x571D JUMPI PUSH2 0x571C PUSH2 0x56C3 JUMP JUMPDEST JUMPDEST SWAP3 SWAP2 POP POP JUMP JUMPDEST PUSH32 0x4578636565647320746F74616C206C616E642061726561000000000000000000 PUSH0 DUP3 ADD MSTORE POP JUMP JUMPDEST PUSH0 PUSH2 0x5757 PUSH1 0x17 DUP4 PUSH2 0x3DD9 JUMP JUMPDEST SWAP2 POP PUSH2 0x5762 DUP3 PUSH2 0x5723 JUMP JUMPDEST PUSH1 0x20 DUP3 ADD SWAP1 POP SWAP2 SWAP1 POP JUMP JUMPDEST PUSH0 PUSH1 0x20 DUP3 ADD SWAP1 POP DUP2 DUP2 SUB PUSH0 DUP4 ADD MSTORE PUSH2 0x5784 DUP2 PUSH2 0x574B JUMP JUMPDEST SWAP1 POP SWAP2 SWAP1 POP JUMP JUMPDEST PUSH0 PUSH2 0x5795 DUP3 PUSH2 0x3AAD JUMP JUMPDEST SWAP2 POP PUSH2 0x57A0 DUP4 PUSH2 0x3AAD JUMP JUMPDEST SWAP3 POP DUP3 DUP3 MUL PUSH2 0x57AE DUP2 PUSH2 0x3AAD JUMP JUMPDEST SWAP2 POP DUP3 DUP3 DIV DUP5 EQ DUP4 ISZERO OR PUSH2 0x57C5 JUMPI PUSH2 0x57C4 PUSH2 0x56C3 JUMP JUMPDEST JUMPDEST POP SWAP3 SWAP2 POP POP JUMP JUMPDEST PUSH0 PUSH1 0x60 DUP3 ADD SWAP1 POP PUSH2 0x57DF PUSH0 DUP4 ADD DUP7 PUSH2 0x3D7C JUMP JUMPDEST PUSH2 0x57EC PUSH1 0x20 DUP4 ADD DUP6 PUSH2 0x3D7C JUMP JUMPDEST PUSH2 0x57F9 PUSH1 0x40 DUP4 ADD DUP5 PUSH2 0x3B1E JUMP JUMPDEST SWAP5 SWAP4 POP POP POP POP JUMP JUMPDEST PUSH32 0x5061796D656E74206661696C6564000000000000000000000000000000000000 PUSH0 DUP3 ADD MSTORE POP JUMP JUMPDEST PUSH0 PUSH2 0x5835 PUSH1 0xE DUP4 PUSH2 0x3DD9 JUMP JUMPDEST SWAP2 POP PUSH2 0x5840 DUP3 PUSH2 0x5801 JUMP JUMPDEST PUSH1 0x20 DUP3 ADD SWAP1 POP SWAP2 SWAP1 POP JUMP JUMPDEST PUSH0 PUSH1 0x20 DUP3 ADD SWAP1 POP DUP2 DUP2 SUB PUSH0 DUP4 ADD MSTORE PUSH2 0x5862 DUP2 PUSH2 0x5829 JUMP JUMPDEST SWAP1 POP SWAP2 SWAP1 POP JUMP JUMPDEST PUSH32 0x4C616E642061726561206D75737420626520706F736974697665000000000000 PUSH0 DUP3 ADD MSTORE POP JUMP JUMPDEST PUSH0 PUSH2 0x589D PUSH1 0x1A DUP4 PUSH2 0x3DD9 JUMP JUMPDEST SWAP2 POP PUSH2 0x58A8 DUP3 PUSH2 0x5869 JUMP JUMPDEST PUSH1 0x20 DUP3 ADD SWAP1 POP SWAP2 SWAP1 POP JUMP JUMPDEST PUSH0 PUSH1 0x20 DUP3 ADD SWAP1 POP DUP2 DUP2 SUB PUSH0 DUP4 ADD MSTORE PUSH2 0x58CA DUP2 PUSH2 0x5891 JUMP JUMPDEST SWAP1 POP SWAP2 SWAP1 POP JUMP JUMPDEST PUSH32 0x4365727469666963617465206E756D62657220616C7265616479207573656400 PUSH0 DUP3 ADD MSTORE POP JUMP JUMPDEST PUSH0 PUSH2 0x5905 PUSH1 0x1F DUP4 PUSH2 0x3DD9 JUMP JUMPDEST SWAP2 POP PUSH2 0x5910 DUP3 PUSH2 0x58D1 JUMP JUMPDEST PUSH1 0x20 DUP3 ADD SWAP1 POP SWAP2 SWAP1 POP JUMP JUMPDEST PUSH0 PUSH1 0x20 DUP3 ADD SWAP1 POP DUP2 DUP2 SUB PUSH0 DUP4 ADD MSTORE PUSH2 0x5932 DUP2 PUSH2 0x58F9 JUMP JUMPDEST SWAP1 POP SWAP2 SWAP1 POP JUMP JUMPDEST PUSH32 0x4469737472696374207665726966696572206E6F742073657400000000000000 PUSH0 DUP3 ADD MSTORE POP JUMP JUMPDEST PUSH0 PUSH2 0x596D PUSH1 0x19 DUP4 PUSH2 0x3DD9 JUMP JUMPDEST SWAP2 POP PUSH2 0x5978 DUP3 PUSH2 0x5939 JUMP JUMPDEST PUSH1 0x20 DUP3 ADD SWAP1 POP SWAP2 SWAP1 POP JUMP JUMPDEST PUSH0 PUSH1 0x20 DUP3 ADD SWAP1 POP DUP2 DUP2 SUB PUSH0 DUP4 ADD MSTORE PUSH2 0x599A DUP2 PUSH2 0x5961 JUMP JUMPDEST SWAP1 POP SWAP2 SWAP1 POP JUMP JUMPDEST PUSH0 PUSH1 0x20 PUSH1 0x1F DUP4 ADD DIV SWAP1 POP SWAP2 SWAP1 POP JUMP JUMPDEST PUSH0 DUP3 DUP3 SHL SWAP1 POP SWAP3 SWAP2 POP POP JUMP JUMPDEST PUSH0 PUSH1 0x8 DUP4 MUL PUSH2 0x59EB PUSH32 0xFFFFFFFFFFFFFFFFFFFFFFFFFFFFFFFFFFFFFFFFFFFFFFFFFFFFFFFFFFFFFFFF DUP3 PUSH2 0x59B0 JUMP JUMPDEST PUSH2 0x59F5 DUP7 DUP4 PUSH2 0x59B0 JUMP JUMPDEST SWAP6 POP DUP1 NOT DUP5 AND SWAP4 POP DUP1 DUP7 AND DUP5 OR SWAP3 POP POP POP SWAP4 SWAP3 POP POP POP JUMP JUMPDEST PUSH0 PUSH2 0x5A27 PUSH2 0x5A22 PUSH2 0x5A1D DUP5 PUSH2 0x3AAD JUMP JUMPDEST PUSH2 0x42DE JUMP JUMPDEST PUSH2 0x3AAD JUMP JUMPDEST SWAP1 POP SWAP2 SWAP1 POP JUMP JUMPDEST PUSH0 DUP2 SWAP1 POP SWAP2 SWAP1 POP JUMP JUMPDEST PUSH2 0x5A40 DUP4 PUSH2 0x5A0D JUMP JUMPDEST PUSH2 0x5A54 PUSH2 0x5A4C DUP3 PUSH2 0x5A2E JUMP JUMPDEST DUP5 DUP5 SLOAD PUSH2 0x59BC JUMP JUMPDEST DUP3 SSTORE POP POP POP POP JUMP JUMPDEST PUSH0 PUSH0 SWAP1 POP SWAP1 JUMP JUMPDEST PUSH2 0x5A6B PUSH2 0x5A5C JUMP JUMPDEST PUSH2 0x5A76 DUP2 DUP5 DUP5 PUSH2 0x5A37 JUMP JUMPDEST POP POP POP JUMP JUMPDEST JUMPDEST DUP2 DUP2 LT ISZERO PUSH2 0x5A99 JUMPI PUSH2 0x5A8E PUSH0 DUP3 PUSH2 0x5A63 JUMP JUMPDEST PUSH1 0x1 DUP2 ADD SWAP1 POP PUSH2 0x5A7C JUMP JUMPDEST POP POP JUMP JUMPDEST PUSH1 0x1F DUP3 GT ISZERO PUSH2 0x5ADE JUMPI PUSH2 0x5AAF DUP2 PUSH2 0x54D1 JUMP JUMPDEST PUSH2 0x5AB8 DUP5 PUSH2 0x59A1 JUMP JUMPDEST DUP2 ADD PUSH1 0x20 DUP6 LT ISZERO PUSH2 0x5AC7 JUMPI DUP2 SWAP1 POP JUMPDEST PUSH2 0x5ADB PUSH2 0x5AD3 DUP6 PUSH2 0x59A1 JUMP JUMPDEST DUP4 ADD DUP3 PUSH2 0x5A7B JUMP JUMPDEST POP POP JUMPDEST POP POP POP JUMP JUMPDEST PUSH0 DUP3 DUP3 SHR SWAP1 POP SWAP3 SWAP2 POP POP JUMP JUMPDEST PUSH0 PUSH2 0x5AFE PUSH0 NOT DUP5 PUSH1 0x8 MUL PUSH2 0x5AE3 JUMP JUMPDEST NOT DUP1 DUP4 AND SWAP2 POP POP SWAP3 SWAP2 POP POP JUMP JUMPDEST PUSH0 PUSH2 0x5B16 DUP4 DUP4 PUSH2 0x5AEF JUMP JUMPDEST SWAP2 POP DUP3 PUSH1 0x2 MUL DUP3 OR SWAP1 POP SWAP3 SWAP2 POP POP JUMP JUMPDEST PUSH2 0x5B2F DUP3 PUSH2 0x3DCF JUMP JUMPDEST PUSH8 0xFFFFFFFFFFFFFFFF DUP2 GT ISZERO PUSH2 0x5B48 JUMPI PUSH2 0x5B47 PUSH2 0x3C11 JUMP JUMPDEST JUMPDEST PUSH2 0x5B52 DUP3 SLOAD PUSH2 0x4973 JUMP JUMPDEST PUSH2 0x5B5D DUP3 DUP3 DUP6 PUSH2 0x5A9D JUMP JUMPDEST PUSH0 PUSH1 0x20 SWAP1 POP PUSH1 0x1F DUP4 GT PUSH1 0x1 DUP2 EQ PUSH2 0x5B8E JUMPI PUSH0 DUP5 ISZERO PUSH2 0x5B7C JUMPI DUP3 DUP8 ADD MLOAD SWAP1 POP JUMPDEST PUSH2 0x5B86 DUP6 DUP3 PUSH2 0x5B0B JUMP JUMPDEST DUP7 SSTORE POP PUSH2 0x5BED JUMP JUMPDEST PUSH1 0x1F NOT DUP5 AND PUSH2 0x5B9C DUP7 PUSH2 0x54D1 JUMP JUMPDEST PUSH0 JUMPDEST DUP3 DUP2 LT ISZERO PUSH2 0x5BC3 JUMPI DUP5 DUP10 ADD MLOAD DUP3 SSTORE PUSH1 0x1 DUP3 ADD SWAP2 POP PUSH1 0x20 DUP6 ADD SWAP5 POP PUSH1 0x20 DUP2 ADD SWAP1 POP PUSH2 0x5B9E JUMP JUMPDEST DUP7 DUP4 LT ISZERO PUSH2 0x5BE0 JUMPI DUP5 DUP10 ADD MLOAD PUSH2 0x5BDC PUSH1 0x1F DUP10 AND DUP3 PUSH2 0x5AEF JUMP JUMPDEST DUP4 SSTORE POP JUMPDEST PUSH1 0x1 PUSH1 0x2 DUP9 MUL ADD DUP9 SSTORE POP POP POP JUMPDEST POP POP POP POP POP POP JUMP JUMPDEST PUSH0 PUSH1 0x40 DUP3 ADD SWAP1 POP DUP2 DUP2 SUB PUSH0 DUP4 ADD MSTORE PUSH2 0x5C0D DUP2 DUP6 PUSH2 0x3DF7 JUMP JUMPDEST SWAP1 POP DUP2 DUP2 SUB PUSH1 0x20 DUP4 ADD MSTORE PUSH2 0x5C21 DUP2 DUP5 PUSH2 0x3DF7 JUMP JUMPDEST SWAP1 POP SWAP4 SWAP3 POP POP POP JUMP JUMPDEST PUSH32 0x496E76616C696420766572696669657220616464726573730000000000000000 PUSH0 DUP3 ADD MSTORE POP JUMP JUMPDEST PUSH0 PUSH2 0x5C5E PUSH1 0x18 DUP4 PUSH2 0x3DD9 JUMP JUMPDEST SWAP2 POP PUSH2 0x5C69 DUP3 PUSH2 0x5C2A JUMP JUMPDEST PUSH1 0x20 DUP3 ADD SWAP1 POP SWAP2 SWAP1 POP JUMP JUMPDEST PUSH0 PUSH1 0x20 DUP3 ADD SWAP1 POP DUP2 DUP2 SUB PUSH0 DUP4 ADD MSTORE PUSH2 0x5C8B DUP2 PUSH2 0x5C52 JUMP JUMPDEST SWAP1 POP SWAP2 SWAP1 POP JUMP JUMPDEST PUSH32 0x566572696669657220616C726561647920657869737473000000000000000000 PUSH0 DUP3 ADD MSTORE POP JUMP JUMPDEST PUSH0 PUSH2 0x5CC6 PUSH1 0x17 DUP4 PUSH2 0x3DD9 JUMP JUMPDEST SWAP2 POP PUSH2 0x5CD1 DUP3 PUSH2 0x5C92 JUMP JUMPDEST PUSH1 0x20 DUP3 ADD SWAP1 POP SWAP2 SWAP1 POP JUMP JUMPDEST PUSH0 PUSH1 0x20 DUP3 ADD SWAP1 POP DUP2 DUP2 SUB PUSH0 DUP4 ADD MSTORE PUSH2 0x5CF3 DUP2 PUSH2 0x5CBA JUMP JUMPDEST SWAP1 POP SWAP2 SWAP1 POP JUMP JUMPDEST PUSH0 PUSH1 0x40 DUP3 ADD SWAP1 POP DUP2 DUP2 SUB PUSH0 DUP4 ADD MSTORE PUSH2 0x5D12 DUP2 DUP6 PUSH2 0x3DF7 JUMP JUMPDEST SWAP1 POP PUSH2 0x5D21 PUSH1 0x20 DUP4 ADD DUP5 PUSH2 0x3D7C JUMP JUMPDEST SWAP4 SWAP3 POP POP POP JUMP JUMPDEST PUSH32 0x4E487B7100000000000000000000000000000000000000000000000000000000 PUSH0 MSTORE PUSH1 0x12 PUSH1 0x4 MSTORE PUSH1 0x24 PUSH0 REVERT JUMPDEST PUSH0 PUSH1 0x40 DUP3 ADD SWAP1 POP PUSH2 0x5D68 PUSH0 DUP4 ADD DUP6 PUSH2 0x3D7C JUMP JUMPDEST PUSH2 0x5D75 PUSH1 0x20 DUP4 ADD DUP5 PUSH2 0x3ED8 JUMP JUMPDEST SWAP4 SWAP3 POP POP POP JUMP JUMPDEST PUSH0 PUSH1 0x80 DUP3 ADD SWAP1 POP PUSH2 0x5D8F PUSH0 DUP4 ADD DUP8 PUSH2 0x3D7C JUMP JUMPDEST PUSH2 0x5D9C PUSH1 0x20 DUP4 ADD DUP7 PUSH2 0x3B1E JUMP JUMPDEST PUSH2 0x5DA9 PUSH1 0x40 DUP4 ADD DUP6 PUSH2 0x3B1E JUMP JUMPDEST PUSH2 0x5DB6 PUSH1 0x60 DUP4 ADD DUP5 PUSH2 0x3B1E JUMP JUMPDEST SWAP6 SWAP5 POP POP POP POP POP JUMP JUMPDEST PUSH0 PUSH1 0x40 DUP3 ADD SWAP1 POP DUP2 DUP2 SUB PUSH0 DUP4 ADD MSTORE PUSH2 0x5DD7 DUP2 DUP6 PUSH2 0x44D4 JUMP JUMPDEST SWAP1 POP DUP2 DUP2 SUB PUSH1 0x20 DUP4 ADD MSTORE PUSH2 0x5DEB DUP2 DUP5 PUSH2 0x44D4 JUMP JUMPDEST SWAP1 POP SWAP4 SWAP3 POP POP POP JUMP JUMPDEST PUSH0 DUP2 MLOAD SWAP1 POP SWAP2 SWAP1 POP JUMP JUMPDEST PUSH0 DUP3 DUP3 MSTORE PUSH1 0x20 DUP3 ADD SWAP1 POP SWAP3 SWAP2 POP POP JUMP JUMPDEST PUSH0 PUSH2 0x5E18 DUP3 PUSH2 0x5DF4 JUMP JUMPDEST PUSH2 0x5E22 DUP2 DUP6 PUSH2 0x5DFE JUMP JUMPDEST SWAP4 POP PUSH2 0x5E32 DUP2 DUP6 PUSH1 0x20 DUP7 ADD PUSH2 0x3DE9 JUMP JUMPDEST PUSH2 0x5E3B DUP2 PUSH2 0x3C01 JUMP JUMPDEST DUP5 ADD SWAP2 POP POP SWAP3 SWAP2 POP POP JUMP JUMPDEST PUSH0 PUSH1 0xA0 DUP3 ADD SWAP1 POP PUSH2 0x5E59 PUSH0 DUP4 ADD DUP9 PUSH2 0x3D7C JUMP JUMPDEST PUSH2 0x5E66 PUSH1 0x20 DUP4 ADD DUP8 PUSH2 0x3D7C JUMP JUMPDEST PUSH2 0x5E73 PUSH1 0x40 DUP4 ADD DUP7 PUSH2 0x3B1E JUMP JUMPDEST PUSH2 0x5E80 PUSH1 0x60 DUP4 ADD DUP6 PUSH2 0x3B1E JUMP JUMPDEST DUP2 DUP2 SUB PUSH1 0x80 DUP4 ADD MSTORE PUSH2 0x5E92 DUP2 DUP5 PUSH2 0x5E0E JUMP JUMPDEST SWAP1 POP SWAP7 SWAP6 POP POP POP POP POP POP JUMP JUMPDEST PUSH0 DUP2 MLOAD SWAP1 POP PUSH2 0x5EAC DUP2 PUSH2 0x3B71 JUMP JUMPDEST SWAP3 SWAP2 POP POP JUMP JUMPDEST PUSH0 PUSH1 0x20 DUP3 DUP5 SUB SLT ISZERO PUSH2 0x5EC7 JUMPI PUSH2 0x5EC6 PUSH2 0x3A4B JUMP JUMPDEST JUMPDEST PUSH0 PUSH2 0x5ED4 DUP5 DUP3 DUP6 ADD PUSH2 0x5E9E JUMP JUMPDEST SWAP2 POP POP SWAP3 SWAP2 POP POP JUMP JUMPDEST PUSH0 PUSH1 0xA0 DUP3 ADD SWAP1 POP PUSH2 0x5EF0 PUSH0 DUP4 ADD DUP9 PUSH2 0x3D7C JUMP JUMPDEST PUSH2 0x5EFD PUSH1 0x20 DUP4 ADD DUP8 PUSH2 0x3D7C JUMP JUMPDEST DUP2 DUP2 SUB PUSH1 0x40 DUP4 ADD MSTORE PUSH2 0x5F0F DUP2 DUP7 PUSH2 0x44D4 JUMP JUMPDEST SWAP1 POP DUP2 DUP2 SUB PUSH1 0x60 DUP4 ADD MSTORE PUSH2 0x5F23 DUP2 DUP6 PUSH2 0x44D4 JUMP JUMPDEST SWAP1 POP DUP2 DUP2 SUB PUSH1 0x80 DUP4 ADD MSTORE PUSH2 0x5F37 DUP2 DUP5 PUSH2 0x5E0E JUMP JUMPDEST SWAP1 POP SWAP7 SWAP6 POP POP POP POP POP POP JUMP INVALID LOG2 PUSH5 0x6970667358 0x22 SLT KECCAK256 KECCAK256 JUMPI BALANCE GASLIMIT PUSH32 0xA47C9B8E41ED59CEB258D1357A66D24761697F378C4199AFAF211D64736F6C63 NUMBER STOP ADDMOD 0x1E STOP CALLER PUSH9 0x747470733A2F2F6170 PUSH10 0x2E70726F70657274792D PUSH15 0x66742E636F6D2F6D65746164617461 0x2F PUSH28 0x69647D2E6A736F6E0000000000000000000000000000000000000000 "
		},
		"gasEstimates": {
			"creation": {
				"codeDepositCost": "4888200",
				"executionCost": "infinite",
				"totalCost": "infinite"
			},
			"external": {
				"BPN_ADMIN()": "393",
				"DEFAULT_ADMIN_ROLE()": "418",
				"FEE_ADMIN()": "436",
				"FEE_PER_METER()": "393",
				"TEST_ADMIN()": "392",
				"addDistrictVerifier(string,address)": "infinite",
				"autoVerificationEnabled()": "2555",
				"balanceOf(address,uint256)": "infinite",
				"balanceOfBatch(address[],uint256[])": "infinite",
				"districtVerifiers(string)": "infinite",
				"getDistrictVerifier(string)": "infinite",
				"getPropertyInfo(uint256)": "infinite",
				"getRoleAdmin(bytes32)": "infinite",
				"grantRole(bytes32,address)": "infinite",
				"hasRole(bytes32,address)": "3166",
				"idrtToken()": "infinite",
				"isApprovedForAll(address,address)": "infinite",
				"mintLandArea(uint256,uint256,address)": "infinite",
				"properties(uint256)": "infinite",
				"registerProperty(string,uint256,string,string,string,string)": "infinite",
				"removeDistrictVerifier(string)": "infinite",
				"renounceRole(bytes32,address)": "infinite",
				"revokeRole(bytes32,address)": "infinite",
				"safeBatchTransferFrom(address,address,uint256[],uint256[],bytes)": "infinite",
				"safeTransferFrom(address,address,uint256,uint256,bytes)": "infinite",
				"setApprovalForAll(address,bool)": "infinite",
				"supportsInterface(bytes4)": "962",
				"toggleAutoVerification()": "32391",
				"uri(uint256)": "infinite",
				"usedCertificateNumbers(string)": "infinite",
				"verifyProperty(uint256)": "infinite",
				"withdrawFees(address)": "infinite"
			}
		},
		"methodIdentifiers": {
			"BPN_ADMIN()": "7b8d9dd8",
			"DEFAULT_ADMIN_ROLE()": "a217fddf",
			"FEE_ADMIN()": "d70afa96",
			"FEE_PER_METER()": "0ea80e67",
			"TEST_ADMIN()": "9f737e0d",
			"addDistrictVerifier(string,address)": "d0c8a695",
			"autoVerificationEnabled()": "4425f05a",
			"balanceOf(address,uint256)": "00fdd58e",
			"balanceOfBatch(address[],uint256[])": "4e1273f4",
			"districtVerifiers(string)": "7ea7dda0",
			"getDistrictVerifier(string)": "0d360e2c",
			"getPropertyInfo(uint256)": "40f0a055",
			"getRoleAdmin(bytes32)": "248a9ca3",
			"grantRole(bytes32,address)": "2f2ff15d",
			"hasRole(bytes32,address)": "91d14854",
			"idrtToken()": "4a213805",
			"isApprovedForAll(address,address)": "e985e9c5",
			"mintLandArea(uint256,uint256,address)": "877d11c2",
			"properties(uint256)": "f7b10808",
			"registerProperty(string,uint256,string,string,string,string)": "a71228fa",
			"removeDistrictVerifier(string)": "266e7c95",
			"renounceRole(bytes32,address)": "36568abe",
			"revokeRole(bytes32,address)": "d547741f",
			"safeBatchTransferFrom(address,address,uint256[],uint256[],bytes)": "2eb2c2d6",
			"safeTransferFrom(address,address,uint256,uint256,bytes)": "f242432a",
			"setApprovalForAll(address,bool)": "a22cb465",
			"supportsInterface(bytes4)": "01ffc9a7",
			"toggleAutoVerification()": "0e9b4c0b",
			"uri(uint256)": "0e89341c",
			"usedCertificateNumbers(string)": "fd8c8bad",
			"verifyProperty(uint256)": "4212a8ae",
			"withdrawFees(address)": "164e68de"
		}
	},
	"abi": [
		{
			"inputs": [
				{
					"internalType": "address",
					"name": "_idrtToken",
					"type": "address"
				}
			],
			"stateMutability": "nonpayable",
			"type": "constructor"
		},
		{
			"inputs": [],
			"name": "AccessControlBadConfirmation",
			"type": "error"
		},
		{
			"inputs": [
				{
					"internalType": "address",
					"name": "account",
					"type": "address"
				},
				{
					"internalType": "bytes32",
					"name": "neededRole",
					"type": "bytes32"
				}
			],
			"name": "AccessControlUnauthorizedAccount",
			"type": "error"
		},
		{
			"inputs": [
				{
					"internalType": "address",
					"name": "sender",
					"type": "address"
				},
				{
					"internalType": "uint256",
					"name": "balance",
					"type": "uint256"
				},
				{
					"internalType": "uint256",
					"name": "needed",
					"type": "uint256"
				},
				{
					"internalType": "uint256",
					"name": "tokenId",
					"type": "uint256"
				}
			],
			"name": "ERC1155InsufficientBalance",
			"type": "error"
		},
		{
			"inputs": [
				{
					"internalType": "address",
					"name": "approver",
					"type": "address"
				}
			],
			"name": "ERC1155InvalidApprover",
			"type": "error"
		},
		{
			"inputs": [
				{
					"internalType": "uint256",
					"name": "idsLength",
					"type": "uint256"
				},
				{
					"internalType": "uint256",
					"name": "valuesLength",
					"type": "uint256"
				}
			],
			"name": "ERC1155InvalidArrayLength",
			"type": "error"
		},
		{
			"inputs": [
				{
					"internalType": "address",
					"name": "operator",
					"type": "address"
				}
			],
			"name": "ERC1155InvalidOperator",
			"type": "error"
		},
		{
			"inputs": [
				{
					"internalType": "address",
					"name": "receiver",
					"type": "address"
				}
			],
			"name": "ERC1155InvalidReceiver",
			"type": "error"
		},
		{
			"inputs": [
				{
					"internalType": "address",
					"name": "sender",
					"type": "address"
				}
			],
			"name": "ERC1155InvalidSender",
			"type": "error"
		},
		{
			"inputs": [
				{
					"internalType": "address",
					"name": "operator",
					"type": "address"
				},
				{
					"internalType": "address",
					"name": "owner",
					"type": "address"
				}
			],
			"name": "ERC1155MissingApprovalForAll",
			"type": "error"
		},
		{
			"anonymous": false,
			"inputs": [
				{
					"indexed": true,
					"internalType": "address",
					"name": "account",
					"type": "address"
				},
				{
					"indexed": true,
					"internalType": "address",
					"name": "operator",
					"type": "address"
				},
				{
					"indexed": false,
					"internalType": "bool",
					"name": "approved",
					"type": "bool"
				}
			],
			"name": "ApprovalForAll",
			"type": "event"
		},
		{
			"anonymous": false,
			"inputs": [
				{
					"indexed": false,
					"internalType": "bool",
					"name": "enabled",
					"type": "bool"
				}
			],
			"name": "AutoVerificationToggled",
			"type": "event"
		},
		{
			"anonymous": false,
			"inputs": [
				{
					"indexed": false,
					"internalType": "string",
					"name": "district",
					"type": "string"
				},
				{
					"indexed": false,
					"internalType": "address",
					"name": "verifier",
					"type": "address"
				}
			],
			"name": "DistrictVerifierAdded",
			"type": "event"
		},
		{
			"anonymous": false,
			"inputs": [
				{
					"indexed": false,
					"internalType": "string",
					"name": "district",
					"type": "string"
				}
			],
			"name": "DistrictVerifierRemoved",
			"type": "event"
		},
		{
			"anonymous": false,
			"inputs": [
				{
					"indexed": true,
					"internalType": "uint256",
					"name": "propertyId",
					"type": "uint256"
				},
				{
					"indexed": true,
					"internalType": "address",
					"name": "owner",
					"type": "address"
				},
				{
					"indexed": false,
					"internalType": "uint256",
					"name": "landArea",
					"type": "uint256"
				}
			],
			"name": "LandMinted",
			"type": "event"
		},
		{
			"anonymous": false,
			"inputs": [
				{
					"indexed": true,
					"internalType": "uint256",
					"name": "propertyId",
					"type": "uint256"
				},
				{
					"indexed": true,
					"internalType": "address",
					"name": "owner",
					"type": "address"
				},
				{
					"indexed": false,
					"internalType": "string",
					"name": "certificateNumber",
					"type": "string"
				},
				{
					"indexed": false,
					"internalType": "string",
					"name": "district",
					"type": "string"
				}
			],
			"name": "PropertyRegistered",
			"type": "event"
		},
		{
			"anonymous": false,
			"inputs": [
				{
					"indexed": true,
					"internalType": "uint256",
					"name": "propertyId",
					"type": "uint256"
				},
				{
					"indexed": true,
					"internalType": "address",
					"name": "verifier",
					"type": "address"
				}
			],
			"name": "PropertyVerified",
			"type": "event"
		},
		{
			"anonymous": false,
			"inputs": [
				{
					"indexed": true,
					"internalType": "bytes32",
					"name": "role",
					"type": "bytes32"
				},
				{
					"indexed": true,
					"internalType": "bytes32",
					"name": "previousAdminRole",
					"type": "bytes32"
				},
				{
					"indexed": true,
					"internalType": "bytes32",
					"name": "newAdminRole",
					"type": "bytes32"
				}
			],
			"name": "RoleAdminChanged",
			"type": "event"
		},
		{
			"anonymous": false,
			"inputs": [
				{
					"indexed": true,
					"internalType": "bytes32",
					"name": "role",
					"type": "bytes32"
				},
				{
					"indexed": true,
					"internalType": "address",
					"name": "account",
					"type": "address"
				},
				{
					"indexed": true,
					"internalType": "address",
					"name": "sender",
					"type": "address"
				}
			],
			"name": "RoleGranted",
			"type": "event"
		},
		{
			"anonymous": false,
			"inputs": [
				{
					"indexed": true,
					"internalType": "bytes32",
					"name": "role",
					"type": "bytes32"
				},
				{
					"indexed": true,
					"internalType": "address",
					"name": "account",
					"type": "address"
				},
				{
					"indexed": true,
					"internalType": "address",
					"name": "sender",
					"type": "address"
				}
			],
			"name": "RoleRevoked",
			"type": "event"
		},
		{
			"anonymous": false,
			"inputs": [
				{
					"indexed": true,
					"internalType": "address",
					"name": "operator",
					"type": "address"
				},
				{
					"indexed": true,
					"internalType": "address",
					"name": "from",
					"type": "address"
				},
				{
					"indexed": true,
					"internalType": "address",
					"name": "to",
					"type": "address"
				},
				{
					"indexed": false,
					"internalType": "uint256[]",
					"name": "ids",
					"type": "uint256[]"
				},
				{
					"indexed": false,
					"internalType": "uint256[]",
					"name": "values",
					"type": "uint256[]"
				}
			],
			"name": "TransferBatch",
			"type": "event"
		},
		{
			"anonymous": false,
			"inputs": [
				{
					"indexed": true,
					"internalType": "address",
					"name": "operator",
					"type": "address"
				},
				{
					"indexed": true,
					"internalType": "address",
					"name": "from",
					"type": "address"
				},
				{
					"indexed": true,
					"internalType": "address",
					"name": "to",
					"type": "address"
				},
				{
					"indexed": false,
					"internalType": "uint256",
					"name": "id",
					"type": "uint256"
				},
				{
					"indexed": false,
					"internalType": "uint256",
					"name": "value",
					"type": "uint256"
				}
			],
			"name": "TransferSingle",
			"type": "event"
		},
		{
			"anonymous": false,
			"inputs": [
				{
					"indexed": false,
					"internalType": "string",
					"name": "value",
					"type": "string"
				},
				{
					"indexed": true,
					"internalType": "uint256",
					"name": "id",
					"type": "uint256"
				}
			],
			"name": "URI",
			"type": "event"
		},
		{
			"inputs": [],
			"name": "BPN_ADMIN",
			"outputs": [
				{
					"internalType": "bytes32",
					"name": "",
					"type": "bytes32"
				}
			],
			"stateMutability": "view",
			"type": "function"
		},
		{
			"inputs": [],
			"name": "DEFAULT_ADMIN_ROLE",
			"outputs": [
				{
					"internalType": "bytes32",
					"name": "",
					"type": "bytes32"
				}
			],
			"stateMutability": "view",
			"type": "function"
		},
		{
			"inputs": [],
			"name": "FEE_ADMIN",
			"outputs": [
				{
					"internalType": "bytes32",
					"name": "",
					"type": "bytes32"
				}
			],
			"stateMutability": "view",
			"type": "function"
		},
		{
			"inputs": [],
			"name": "FEE_PER_METER",
			"outputs": [
				{
					"internalType": "uint256",
					"name": "",
					"type": "uint256"
				}
			],
			"stateMutability": "view",
			"type": "function"
		},
		{
			"inputs": [],
			"name": "TEST_ADMIN",
			"outputs": [
				{
					"internalType": "bytes32",
					"name": "",
					"type": "bytes32"
				}
			],
			"stateMutability": "view",
			"type": "function"
		},
		{
			"inputs": [
				{
					"internalType": "string",
					"name": "_district",
					"type": "string"
				},
				{
					"internalType": "address",
					"name": "_verifier",
					"type": "address"
				}
			],
			"name": "addDistrictVerifier",
			"outputs": [],
			"stateMutability": "nonpayable",
			"type": "function"
		},
		{
			"inputs": [],
			"name": "autoVerificationEnabled",
			"outputs": [
				{
					"internalType": "bool",
					"name": "",
					"type": "bool"
				}
			],
			"stateMutability": "view",
			"type": "function"
		},
		{
			"inputs": [
				{
					"internalType": "address",
					"name": "account",
					"type": "address"
				},
				{
					"internalType": "uint256",
					"name": "id",
					"type": "uint256"
				}
			],
			"name": "balanceOf",
			"outputs": [
				{
					"internalType": "uint256",
					"name": "",
					"type": "uint256"
				}
			],
			"stateMutability": "view",
			"type": "function"
		},
		{
			"inputs": [
				{
					"internalType": "address[]",
					"name": "accounts",
					"type": "address[]"
				},
				{
					"internalType": "uint256[]",
					"name": "ids",
					"type": "uint256[]"
				}
			],
			"name": "balanceOfBatch",
			"outputs": [
				{
					"internalType": "uint256[]",
					"name": "",
					"type": "uint256[]"
				}
			],
			"stateMutability": "view",
			"type": "function"
		},
		{
			"inputs": [
				{
					"internalType": "string",
					"name": "",
					"type": "string"
				}
			],
			"name": "districtVerifiers",
			"outputs": [
				{
					"internalType": "address",
					"name": "",
					"type": "address"
				}
			],
			"stateMutability": "view",
			"type": "function"
		},
		{
			"inputs": [
				{
					"internalType": "string",
					"name": "_district",
					"type": "string"
				}
			],
			"name": "getDistrictVerifier",
			"outputs": [
				{
					"internalType": "address",
					"name": "",
					"type": "address"
				}
			],
			"stateMutability": "view",
			"type": "function"
		},
		{
			"inputs": [
				{
					"internalType": "uint256",
					"name": "_propertyId",
					"type": "uint256"
				}
			],
			"name": "getPropertyInfo",
			"outputs": [
				{
					"components": [
						{
							"internalType": "string",
							"name": "propertyName",
							"type": "string"
						},
						{
							"internalType": "uint256",
							"name": "totalLandArea",
							"type": "uint256"
						},
						{
							"internalType": "uint256",
							"name": "mintedLandArea",
							"type": "uint256"
						},
						{
							"internalType": "string",
							"name": "certificateType",
							"type": "string"
						},
						{
							"internalType": "string",
							"name": "certificateNumber",
							"type": "string"
						},
						{
							"internalType": "string",
							"name": "certificatePhotoCID",
							"type": "string"
						},
						{
							"internalType": "string",
							"name": "district",
							"type": "string"
						},
						{
							"internalType": "bool",
							"name": "verified",
							"type": "bool"
						},
						{
							"internalType": "address",
							"name": "projectOwner",
							"type": "address"
						}
					],
					"internalType": "struct PropertyNFT.PropertyInfo",
					"name": "",
					"type": "tuple"
				}
			],
			"stateMutability": "view",
			"type": "function"
		},
		{
			"inputs": [
				{
					"internalType": "bytes32",
					"name": "role",
					"type": "bytes32"
				}
			],
			"name": "getRoleAdmin",
			"outputs": [
				{
					"internalType": "bytes32",
					"name": "",
					"type": "bytes32"
				}
			],
			"stateMutability": "view",
			"type": "function"
		},
		{
			"inputs": [
				{
					"internalType": "bytes32",
					"name": "role",
					"type": "bytes32"
				},
				{
					"internalType": "address",
					"name": "account",
					"type": "address"
				}
			],
			"name": "grantRole",
			"outputs": [],
			"stateMutability": "nonpayable",
			"type": "function"
		},
		{
			"inputs": [
				{
					"internalType": "bytes32",
					"name": "role",
					"type": "bytes32"
				},
				{
					"internalType": "address",
					"name": "account",
					"type": "address"
				}
			],
			"name": "hasRole",
			"outputs": [
				{
					"internalType": "bool",
					"name": "",
					"type": "bool"
				}
			],
			"stateMutability": "view",
			"type": "function"
		},
		{
			"inputs": [],
			"name": "idrtToken",
			"outputs": [
				{
					"internalType": "contract IERC20",
					"name": "",
					"type": "address"
				}
			],
			"stateMutability": "view",
			"type": "function"
		},
		{
			"inputs": [
				{
					"internalType": "address",
					"name": "account",
					"type": "address"
				},
				{
					"internalType": "address",
					"name": "operator",
					"type": "address"
				}
			],
			"name": "isApprovedForAll",
			"outputs": [
				{
					"internalType": "bool",
					"name": "",
					"type": "bool"
				}
			],
			"stateMutability": "view",
			"type": "function"
		},
		{
			"inputs": [
				{
					"internalType": "uint256",
					"name": "_propertyId",
					"type": "uint256"
				},
				{
					"internalType": "uint256",
					"name": "_landArea",
					"type": "uint256"
				},
				{
					"internalType": "address",
					"name": "_recipient",
					"type": "address"
				}
			],
			"name": "mintLandArea",
			"outputs": [],
			"stateMutability": "nonpayable",
			"type": "function"
		},
		{
			"inputs": [
				{
					"internalType": "uint256",
					"name": "",
					"type": "uint256"
				}
			],
			"name": "properties",
			"outputs": [
				{
					"internalType": "string",
					"name": "propertyName",
					"type": "string"
				},
				{
					"internalType": "uint256",
					"name": "totalLandArea",
					"type": "uint256"
				},
				{
					"internalType": "uint256",
					"name": "mintedLandArea",
					"type": "uint256"
				},
				{
					"internalType": "string",
					"name": "certificateType",
					"type": "string"
				},
				{
					"internalType": "string",
					"name": "certificateNumber",
					"type": "string"
				},
				{
					"internalType": "string",
					"name": "certificatePhotoCID",
					"type": "string"
				},
				{
					"internalType": "string",
					"name": "district",
					"type": "string"
				},
				{
					"internalType": "bool",
					"name": "verified",
					"type": "bool"
				},
				{
					"internalType": "address",
					"name": "projectOwner",
					"type": "address"
				}
			],
			"stateMutability": "view",
			"type": "function"
		},
		{
			"inputs": [
				{
					"internalType": "string",
					"name": "_propertyName",
					"type": "string"
				},
				{
					"internalType": "uint256",
					"name": "_totalLandArea",
					"type": "uint256"
				},
				{
					"internalType": "string",
					"name": "_certificateType",
					"type": "string"
				},
				{
					"internalType": "string",
					"name": "_certificateNumber",
					"type": "string"
				},
				{
					"internalType": "string",
					"name": "_certificatePhotoCID",
					"type": "string"
				},
				{
					"internalType": "string",
					"name": "_district",
					"type": "string"
				}
			],
			"name": "registerProperty",
			"outputs": [
				{
					"internalType": "uint256",
					"name": "",
					"type": "uint256"
				}
			],
			"stateMutability": "nonpayable",
			"type": "function"
		},
		{
			"inputs": [
				{
					"internalType": "string",
					"name": "_district",
					"type": "string"
				}
			],
			"name": "removeDistrictVerifier",
			"outputs": [],
			"stateMutability": "nonpayable",
			"type": "function"
		},
		{
			"inputs": [
				{
					"internalType": "bytes32",
					"name": "role",
					"type": "bytes32"
				},
				{
					"internalType": "address",
					"name": "callerConfirmation",
					"type": "address"
				}
			],
			"name": "renounceRole",
			"outputs": [],
			"stateMutability": "nonpayable",
			"type": "function"
		},
		{
			"inputs": [
				{
					"internalType": "bytes32",
					"name": "role",
					"type": "bytes32"
				},
				{
					"internalType": "address",
					"name": "account",
					"type": "address"
				}
			],
			"name": "revokeRole",
			"outputs": [],
			"stateMutability": "nonpayable",
			"type": "function"
		},
		{
			"inputs": [
				{
					"internalType": "address",
					"name": "from",
					"type": "address"
				},
				{
					"internalType": "address",
					"name": "to",
					"type": "address"
				},
				{
					"internalType": "uint256[]",
					"name": "ids",
					"type": "uint256[]"
				},
				{
					"internalType": "uint256[]",
					"name": "values",
					"type": "uint256[]"
				},
				{
					"internalType": "bytes",
					"name": "data",
					"type": "bytes"
				}
			],
			"name": "safeBatchTransferFrom",
			"outputs": [],
			"stateMutability": "nonpayable",
			"type": "function"
		},
		{
			"inputs": [
				{
					"internalType": "address",
					"name": "from",
					"type": "address"
				},
				{
					"internalType": "address",
					"name": "to",
					"type": "address"
				},
				{
					"internalType": "uint256",
					"name": "id",
					"type": "uint256"
				},
				{
					"internalType": "uint256",
					"name": "value",
					"type": "uint256"
				},
				{
					"internalType": "bytes",
					"name": "data",
					"type": "bytes"
				}
			],
			"name": "safeTransferFrom",
			"outputs": [],
			"stateMutability": "nonpayable",
			"type": "function"
		},
		{
			"inputs": [
				{
					"internalType": "address",
					"name": "operator",
					"type": "address"
				},
				{
					"internalType": "bool",
					"name": "approved",
					"type": "bool"
				}
			],
			"name": "setApprovalForAll",
			"outputs": [],
			"stateMutability": "nonpayable",
			"type": "function"
		},
		{
			"inputs": [
				{
					"internalType": "bytes4",
					"name": "interfaceId",
					"type": "bytes4"
				}
			],
			"name": "supportsInterface",
			"outputs": [
				{
					"internalType": "bool",
					"name": "",
					"type": "bool"
				}
			],
			"stateMutability": "view",
			"type": "function"
		},
		{
			"inputs": [],
			"name": "toggleAutoVerification",
			"outputs": [],
			"stateMutability": "nonpayable",
			"type": "function"
		},
		{
			"inputs": [
				{
					"internalType": "uint256",
					"name": "_propertyId",
					"type": "uint256"
				}
			],
			"name": "uri",
			"outputs": [
				{
					"internalType": "string",
					"name": "",
					"type": "string"
				}
			],
			"stateMutability": "view",
			"type": "function"
		},
		{
			"inputs": [
				{
					"internalType": "string",
					"name": "",
					"type": "string"
				}
			],
			"name": "usedCertificateNumbers",
			"outputs": [
				{
					"internalType": "bool",
					"name": "",
					"type": "bool"
				}
			],
			"stateMutability": "view",
			"type": "function"
		},
		{
			"inputs": [
				{
					"internalType": "uint256",
					"name": "_propertyId",
					"type": "uint256"
				}
			],
			"name": "verifyProperty",
			"outputs": [],
			"stateMutability": "nonpayable",
			"type": "function"
		},
		{
			"inputs": [
				{
					"internalType": "address",
					"name": "_recipient",
					"type": "address"
				}
			],
			"name": "withdrawFees",
			"outputs": [],
			"stateMutability": "nonpayable",
			"type": "function"
		}
	]
}