{
	"data": {
		"bytecode": {
			"linkReferences": {},
			"object": "60c0604052681b1ae4d6e2ef50000060035560c8600455348015610021575f5ffd5b506040516126eb3803806126eb8339818101604052810190610043919061036c565b335f73ffffffffffffffffffffffffffffffffffffffff168173ffffffffffffffffffffffffffffffffffffffff16036100b4575f6040517f1e4fbdf70000000000000000000000000000000000000000000000000000000081526004016100ab91906103b9565b60405180910390fd5b6100c38161021760201b60201c565b5060016002819055505f73ffffffffffffffffffffffffffffffffffffffff168273ffffffffffffffffffffffffffffffffffffffff160361013a576040517f08c379a00000000000000000000000000000000000000000000000000000000081526004016101319061042c565b60405180910390fd5b5f73ffffffffffffffffffffffffffffffffffffffff168173ffffffffffffffffffffffffffffffffffffffff16036101a8576040517f08c379a000000000000000000000000000000000000000000000000000000000815260040161019f90610494565b60405180910390fd5b8173ffffffffffffffffffffffffffffffffffffffff1660808173ffffffffffffffffffffffffffffffffffffffff16815250508073ffffffffffffffffffffffffffffffffffffffff1660a08173ffffffffffffffffffffffffffffffffffffffff168152505050506104b2565b60015f6101000a81549073ffffffffffffffffffffffffffffffffffffffff021916905561024a8161024d60201b60201c565b50565b5f5f5f9054906101000a900473ffffffffffffffffffffffffffffffffffffffff169050815f5f6101000a81548173ffffffffffffffffffffffffffffffffffffffff021916908373ffffffffffffffffffffffffffffffffffffffff1602179055508173ffffffffffffffffffffffffffffffffffffffff168173ffffffffffffffffffffffffffffffffffffffff167f8be0079c531659141344cd1fd0a4f28419497f9722a3daafe3b4186f6b6457e060405160405180910390a35050565b5f5ffd5b5f73ffffffffffffffffffffffffffffffffffffffff82169050919050565b5f61033b82610312565b9050919050565b61034b81610331565b8114610355575f5ffd5b50565b5f8151905061036681610342565b92915050565b5f5f604083850312156103825761038161030e565b5b5f61038f85828601610358565b92505060206103a085828601610358565b9150509250929050565b6103b381610331565b82525050565b5f6020820190506103cc5f8301846103aa565b92915050565b5f82825260208201905092915050565b7f496e76616c6964204e46542061646472657373000000000000000000000000005f82015250565b5f6104166013836103d2565b9150610421826103e2565b602082019050919050565b5f6020820190508181035f8301526104438161040a565b9050919050565b7f496e76616c696420746f6b656e206164647265737300000000000000000000005f82015250565b5f61047e6015836103d2565b91506104898261044a565b602082019050919050565b5f6020820190508181035f8301526104ab81610472565b9050919050565b60805160a0516121e061050b5f395f81816104dc01528181610579015281816105c90152818161099601528181610d3a0152610e4001525f81816105a5015281816108a8015281816109bf0152610dad01526121e05ff3fe608060405234801561000f575f5ffd5b506004361061012a575f3560e01c806387c35bc0116100ab578063c5c925851161006f578063c5c92585146102d4578063e30c3978146102f2578063f2fde38b14610310578063f71b08c21461032c578063fb05da2e1461034a5761012a565b806387c35bc0146102425780638cb40010146102605780638da5cb5b1461027c578063a772c9271461029a578063ab593ff2146102b65761012a565b806352752c47116100f257806352752c47146101d85780635a19c201146101f65780636db7943714610212578063715018a61461022e57806379ba5097146102385761012a565b8063033bab251461012e578063078b983714610162578063164e68de1461018057806337f768381461019c5780634a213805146101ba575b5f5ffd5b610148600480360381019061014391906115f3565b61037f565b604051610159959493929190611640565b60405180910390f35b61016a6104cc565b6040516101779190611691565b60405180910390f35b61019a60048036038101906101959190611704565b6104d1565b005b6101a46105a3565b6040516101b1919061178a565b60405180910390f35b6101c26105c7565b6040516101cf91906117c3565b60405180910390f35b6101e06105eb565b6040516101ed9190611691565b60405180910390f35b610210600480360381019061020b9190611811565b6105f1565b005b61022c600480360381019061022791906115f3565b61068a565b005b610236610722565b005b610240610735565b005b61024a6107c3565b6040516102579190611906565b60405180910390f35b61027a60048036038101906102759190611926565b610819565b005b610284610be8565b6040516102919190611985565b60405180910390f35b6102b460048036038101906102af91906115f3565b610c0f565b005b6102be610ef2565b6040516102cb9190611691565b60405180910390f35b6102dc610ef8565b6040516102e99190611691565b60405180910390f35b6102fa610efe565b6040516103079190611985565b60405180910390f35b61032a60048036038101906103259190611704565b610f26565b005b610334610fd2565b6040516103419190611691565b60405180910390f35b610364600480360381019061035f919061199e565b610fd8565b604051610376969594939291906119d8565b60405180910390f35b5f5f5f5f5f5f60055f8981526020019081526020015f206040518060c00160405290815f82015f9054906101000a900473ffffffffffffffffffffffffffffffffffffffff1673ffffffffffffffffffffffffffffffffffffffff1673ffffffffffffffffffffffffffffffffffffffff16815260200160018201548152602001600282015481526020016003820154815260200160048201548152602001600582015f9054906101000a900460ff16151515158152505090508060a0015161047d576040517f08c379a000000000000000000000000000000000000000000000000000000000815260040161047490611a91565b60405180910390fd5b86816040015161048d9190611adc565b955061049c86825f01516110c6565b8095508197508296505050508385876104b59190611b1d565b6104bf9190611b1d565b9150509295509295909350565b60fa81565b6104d96111a7565b5f7f000000000000000000000000000000000000000000000000000000000000000073ffffffffffffffffffffffffffffffffffffffff166370a08231306040518263ffffffff1660e01b81526004016105339190611985565b602060405180830381865afa15801561054e573d5f5f3e3d5ffd5b505050506040513d601f19601f820116820180604052508101906105729190611b64565b905061059f7f0000000000000000000000000000000000000000000000000000000000000000838361122e565b5050565b7f000000000000000000000000000000000000000000000000000000000000000081565b7f000000000000000000000000000000000000000000000000000000000000000081565b6101f481565b6105f96111a7565b8060075f8473ffffffffffffffffffffffffffffffffffffffff1673ffffffffffffffffffffffffffffffffffffffff1681526020019081526020015f205f6101000a81548160ff0219169083151502179055507f13223e804b38e2ad53b2cd366f7390d3fbf67b00e52de4c9b096d6143d001469828260405161067e929190611b8f565b60405180910390a15050565b6106926111a7565b6101f48111156106d7576040517f08c379a00000000000000000000000000000000000000000000000000000000081526004016106ce90611c00565b60405180910390fd5b81600381905550806004819055507f5c6323bf1c2d7aaea2c091a4751c1c87af7f2864650c336507a77d0557af37a18282604051610716929190611c1e565b60405180910390a15050565b61072a6111a7565b6107335f6112ed565b565b5f61073e61131d565b90508073ffffffffffffffffffffffffffffffffffffffff1661075f610efe565b73ffffffffffffffffffffffffffffffffffffffff16146107b757806040517f118cdaa70000000000000000000000000000000000000000000000000000000081526004016107ae9190611985565b60405180910390fd5b6107c0816112ed565b50565b6060600680548060200260200160405190810160405280929190818152602001828054801561080f57602002820191905f5260205f20905b8154815260200190600101908083116107fb575b5050505050905090565b610821611324565b5f8211610863576040517f08c379a000000000000000000000000000000000000000000000000000000000815260040161085a90611c8f565b60405180910390fd5b5f81116108a5576040517f08c379a000000000000000000000000000000000000000000000000000000000815260040161089c90611cf7565b60405180910390fd5b807f000000000000000000000000000000000000000000000000000000000000000073ffffffffffffffffffffffffffffffffffffffff1662fdd58e33866040518363ffffffff1660e01b8152600401610900929190611d15565b602060405180830381865afa15801561091b573d5f5f3e3d5ffd5b505050506040513d601f19601f8201168201806040525081019061093f9190611b64565b1015610980576040517f08c379a000000000000000000000000000000000000000000000000000000000815260040161097790611d86565b60405180910390fd5b5f8160035461098f9190611adc565b90506109bd7f0000000000000000000000000000000000000000000000000000000000000000333084611371565b7f000000000000000000000000000000000000000000000000000000000000000073ffffffffffffffffffffffffffffffffffffffff1663f242432a333087866040518563ffffffff1660e01b8152600401610a1c9493929190611dd7565b5f604051808303815f87803b158015610a33575f5ffd5b505af1158015610a45573d5f5f3e3d5ffd5b505050505f84334285604051602001610a619493929190611e92565b604051602081830303815290604052805190602001205f1c90506040518060c001604052803373ffffffffffffffffffffffffffffffffffffffff1681526020018681526020018581526020018481526020018481526020016001151581525060055f8381526020019081526020015f205f820151815f015f6101000a81548173ffffffffffffffffffffffffffffffffffffffff021916908373ffffffffffffffffffffffffffffffffffffffff1602179055506020820151816001015560408201518160020155606082015181600301556080820151816004015560a0820151816005015f6101000a81548160ff021916908315150217905550905050600681908060018154018082558091505060019003905f5260205f20015f90919091909150553373ffffffffffffffffffffffffffffffffffffffff16817febe5022e5e01629ce50ec667b3f3333ec2ad62233a476b8c78afbc36fd931d74878787604051610bd193929190611edf565b60405180910390a35050610be3611433565b505050565b5f5f5f9054906101000a900473ffffffffffffffffffffffffffffffffffffffff16905090565b610c17611324565b8160055f8281526020019081526020015f206005015f9054906101000a900460ff16610c78576040517f08c379a0000000000000000000000000000000000000000000000000000000008152600401610c6f90611a91565b60405180910390fd5b5f60055f8581526020019081526020015f2090508060040154831115610cd3576040517f08c379a0000000000000000000000000000000000000000000000000000000008152600401610cca90611f5e565b60405180910390fd5b5f838260020154610ce49190611adc565b90505f5f5f610d1584865f015f9054906101000a900473ffffffffffffffffffffffffffffffffffffffff166110c6565b9250925092505f838386610d299190611b1d565b610d339190611b1d565b9050610d617f0000000000000000000000000000000000000000000000000000000000000000333084611371565b87866004015f828254610d749190611f7c565b925050819055505f866004015403610dab575f866005015f6101000a81548160ff021916908315150217905550610daa8961143d565b5b7f000000000000000000000000000000000000000000000000000000000000000073ffffffffffffffffffffffffffffffffffffffff1663f242432a303389600101548c6040518563ffffffff1660e01b8152600401610e0e9493929190611dd7565b5f604051808303815f87803b158015610e25575f5ffd5b505af1158015610e37573d5f5f3e3d5ffd5b50505050610e887f0000000000000000000000000000000000000000000000000000000000000000875f015f9054906101000a900473ffffffffffffffffffffffffffffffffffffffff168461122e565b3373ffffffffffffffffffffffffffffffffffffffff16897fbbc7d6007e204a02e0d5c742381ea5b6b2d01ab4c9c0c1b9afab201f1a3474cb8a88878988604051610ed7959493929190611640565b60405180910390a350505050505050610eee611433565b5050565b61044c81565b60045481565b5f60015f9054906101000a900473ffffffffffffffffffffffffffffffffffffffff16905090565b610f2e6111a7565b8060015f6101000a81548173ffffffffffffffffffffffffffffffffffffffff021916908373ffffffffffffffffffffffffffffffffffffffff1602179055508073ffffffffffffffffffffffffffffffffffffffff16610f8d610be8565b73ffffffffffffffffffffffffffffffffffffffff167f38d16b8cac22d99fc7c124b9cd0de2d3fa1faef420bfe791d8c362d765e2270060405160405180910390a350565b60035481565b5f5f5f5f5f5f5f60055f8981526020019081526020015f206040518060c00160405290815f82015f9054906101000a900473ffffffffffffffffffffffffffffffffffffffff1673ffffffffffffffffffffffffffffffffffffffff1673ffffffffffffffffffffffffffffffffffffffff16815260200160018201548152602001600282015481526020016003820154815260200160048201548152602001600582015f9054906101000a900460ff1615151515815250509050805f015181602001518260400151836060015184608001518560a001519650965096509650965096505091939550919395565b5f5f5f612710600454866110da9190611adc565b6110e49190611fdc565b915061271060fa6101f46110f89190611b1d565b866111039190611adc565b61110d9190611fdc565b925060075f8573ffffffffffffffffffffffffffffffffffffffff1673ffffffffffffffffffffffffffffffffffffffff1681526020019081526020015f205f9054906101000a900460ff16156111875761271061044c8661116f9190611adc565b6111799190611fdc565b836111849190611b1d565b92505b8282866111949190611f7c565b61119e9190611f7c565b90509250925092565b6111af61131d565b73ffffffffffffffffffffffffffffffffffffffff166111cd610be8565b73ffffffffffffffffffffffffffffffffffffffff161461122c576111f061131d565b6040517f118cdaa70000000000000000000000000000000000000000000000000000000081526004016112239190611985565b60405180910390fd5b565b8273ffffffffffffffffffffffffffffffffffffffff1663a9059cbb83836040518363ffffffff1660e01b8152600401611269929190611d15565b6020604051808303815f875af1158015611285573d5f5f3e3d5ffd5b505050506040513d601f19601f820116820180604052508101906112a99190612020565b6112e8576040517f08c379a00000000000000000000000000000000000000000000000000000000081526004016112df90612095565b60405180910390fd5b505050565b60015f6101000a81549073ffffffffffffffffffffffffffffffffffffffff021916905561131a816114fb565b50565b5f33905090565b6002805403611368576040517f08c379a000000000000000000000000000000000000000000000000000000000815260040161135f906120fd565b60405180910390fd5b60028081905550565b8373ffffffffffffffffffffffffffffffffffffffff166323b872dd8484846040518463ffffffff1660e01b81526004016113ae9392919061211b565b6020604051808303815f875af11580156113ca573d5f5f3e3d5ffd5b505050506040513d601f19601f820116820180604052508101906113ee9190612020565b61142d576040517f08c379a000000000000000000000000000000000000000000000000000000000815260040161142490612095565b60405180910390fd5b50505050565b6001600281905550565b5f5f90505b6006805490508110156114f757816006828154811061146457611463612150565b5b905f5260205f200154036114ea57600660016006805490506114869190611f7c565b8154811061149757611496612150565b5b905f5260205f200154600682815481106114b4576114b3612150565b5b905f5260205f20018190555060068054806114d2576114d161217d565b5b600190038181905f5260205f20015f905590556114f7565b8080600101915050611442565b5050565b5f5f5f9054906101000a900473ffffffffffffffffffffffffffffffffffffffff169050815f5f6101000a81548173ffffffffffffffffffffffffffffffffffffffff021916908373ffffffffffffffffffffffffffffffffffffffff1602179055508173ffffffffffffffffffffffffffffffffffffffff168173ffffffffffffffffffffffffffffffffffffffff167f8be0079c531659141344cd1fd0a4f28419497f9722a3daafe3b4186f6b6457e060405160405180910390a35050565b5f5ffd5b5f819050919050565b6115d2816115c0565b81146115dc575f5ffd5b50565b5f813590506115ed816115c9565b92915050565b5f5f60408385031215611609576116086115bc565b5b5f611616858286016115df565b9250506020611627858286016115df565b9150509250929050565b61163a816115c0565b82525050565b5f60a0820190506116535f830188611631565b6116606020830187611631565b61166d6040830186611631565b61167a6060830185611631565b6116876080830184611631565b9695505050505050565b5f6020820190506116a45f830184611631565b92915050565b5f73ffffffffffffffffffffffffffffffffffffffff82169050919050565b5f6116d3826116aa565b9050919050565b6116e3816116c9565b81146116ed575f5ffd5b50565b5f813590506116fe816116da565b92915050565b5f60208284031215611719576117186115bc565b5b5f611726848285016116f0565b91505092915050565b5f819050919050565b5f61175261174d611748846116aa565b61172f565b6116aa565b9050919050565b5f61176382611738565b9050919050565b5f61177482611759565b9050919050565b6117848161176a565b82525050565b5f60208201905061179d5f83018461177b565b92915050565b5f6117ad82611759565b9050919050565b6117bd816117a3565b82525050565b5f6020820190506117d65f8301846117b4565b92915050565b5f8115159050919050565b6117f0816117dc565b81146117fa575f5ffd5b50565b5f8135905061180b816117e7565b92915050565b5f5f60408385031215611827576118266115bc565b5b5f611834858286016116f0565b9250506020611845858286016117fd565b9150509250929050565b5f81519050919050565b5f82825260208201905092915050565b5f819050602082019050919050565b611881816115c0565b82525050565b5f6118928383611878565b60208301905092915050565b5f602082019050919050565b5f6118b48261184f565b6118be8185611859565b93506118c983611869565b805f5b838110156118f95781516118e08882611887565b97506118eb8361189e565b9250506001810190506118cc565b5085935050505092915050565b5f6020820190508181035f83015261191e81846118aa565b905092915050565b5f5f5f6060848603121561193d5761193c6115bc565b5b5f61194a868287016115df565b935050602061195b868287016115df565b925050604061196c868287016115df565b9150509250925092565b61197f816116c9565b82525050565b5f6020820190506119985f830184611976565b92915050565b5f602082840312156119b3576119b26115bc565b5b5f6119c0848285016115df565b91505092915050565b6119d2816117dc565b82525050565b5f60c0820190506119eb5f830189611976565b6119f86020830188611631565b611a056040830187611631565b611a126060830186611631565b611a1f6080830185611631565b611a2c60a08301846119c9565b979650505050505050565b5f82825260208201905092915050565b7f4c697374696e6720696e616374697665000000000000000000000000000000005f82015250565b5f611a7b601083611a37565b9150611a8682611a47565b602082019050919050565b5f6020820190508181035f830152611aa881611a6f565b9050919050565b7f4e487b71000000000000000000000000000000000000000000000000000000005f52601160045260245ffd5b5f611ae6826115c0565b9150611af1836115c0565b9250828202611aff816115c0565b91508282048414831517611b1657611b15611aaf565b5b5092915050565b5f611b27826115c0565b9150611b32836115c0565b9250828201905080821115611b4a57611b49611aaf565b5b92915050565b5f81519050611b5e816115c9565b92915050565b5f60208284031215611b7957611b786115bc565b5b5f611b8684828501611b50565b91505092915050565b5f604082019050611ba25f830185611976565b611baf60208301846119c9565b9392505050565b7f46656520746f6f206869676800000000000000000000000000000000000000005f82015250565b5f611bea600c83611a37565b9150611bf582611bb6565b602082019050919050565b5f6020820190508181035f830152611c1781611bde565b9050919050565b5f604082019050611c315f830185611631565b611c3e6020830184611631565b9392505050565b7f5072696365206d75737420626520706f736974697665000000000000000000005f82015250565b5f611c79601683611a37565b9150611c8482611c45565b602082019050919050565b5f6020820190508181035f830152611ca681611c6d565b9050919050565b7f41726561206d75737420626520706f73697469766500000000000000000000005f82015250565b5f611ce1601583611a37565b9150611cec82611cad565b602082019050919050565b5f6020820190508181035f830152611d0e81611cd5565b9050919050565b5f604082019050611d285f830185611976565b611d356020830184611631565b9392505050565b7f496e73756666696369656e742062616c616e63650000000000000000000000005f82015250565b5f611d70601483611a37565b9150611d7b82611d3c565b602082019050919050565b5f6020820190508181035f830152611d9d81611d64565b9050919050565b5f82825260208201905092915050565b50565b5f611dc25f83611da4565b9150611dcd82611db4565b5f82019050919050565b5f60a082019050611dea5f830187611976565b611df76020830186611976565b611e046040830185611631565b611e116060830184611631565b8181036080830152611e2281611db7565b905095945050505050565b5f819050919050565b611e47611e42826115c0565b611e2d565b82525050565b5f8160601b9050919050565b5f611e6382611e4d565b9050919050565b5f611e7482611e59565b9050919050565b611e8c611e87826116c9565b611e6a565b82525050565b5f611e9d8287611e36565b602082019150611ead8286611e7b565b601482019150611ebd8285611e36565b602082019150611ecd8284611e36565b60208201915081905095945050505050565b5f606082019050611ef25f830186611631565b611eff6020830185611631565b611f0c6040830184611631565b949350505050565b7f41726561206578636565647320617661696c6162696c697479000000000000005f82015250565b5f611f48601983611a37565b9150611f5382611f14565b602082019050919050565b5f6020820190508181035f830152611f7581611f3c565b9050919050565b5f611f86826115c0565b9150611f91836115c0565b9250828203905081811115611fa957611fa8611aaf565b5b92915050565b7f4e487b71000000000000000000000000000000000000000000000000000000005f52601260045260245ffd5b5f611fe6826115c0565b9150611ff1836115c0565b92508261200157612000611faf565b5b828204905092915050565b5f8151905061201a816117e7565b92915050565b5f60208284031215612035576120346115bc565b5b5f6120428482850161200c565b91505092915050565b7f5472616e73666572206661696c656400000000000000000000000000000000005f82015250565b5f61207f600f83611a37565b915061208a8261204b565b602082019050919050565b5f6020820190508181035f8301526120ac81612073565b9050919050565b7f5265656e7472616e637947756172643a207265656e7472616e742063616c6c005f82015250565b5f6120e7601f83611a37565b91506120f2826120b3565b602082019050919050565b5f6020820190508181035f830152612114816120db565b9050919050565b5f60608201905061212e5f830186611976565b61213b6020830185611976565b6121486040830184611631565b949350505050565b7f4e487b71000000000000000000000000000000000000000000000000000000005f52603260045260245ffd5b7f4e487b71000000000000000000000000000000000000000000000000000000005f52603160045260245ffdfea2646970667358221220e5b4f6fc17f0f99dab648b7087ab64b26e5be7089176c93c245ff34dcd0a468f64736f6c634300081e0033",
			"opcodes": "PUSH1 0xC0 PUSH1 0x40 MSTORE PUSH9 0x1B1AE4D6E2EF500000 PUSH1 0x3 SSTORE PUSH1 0xC8 PUSH1 0x4 SSTORE CALLVALUE DUP1 ISZERO PUSH2 0x21 JUMPI PUSH0 PUSH0 REVERT JUMPDEST POP PUSH1 0x40 MLOAD PUSH2 0x26EB CODESIZE SUB DUP1 PUSH2 0x26EB DUP4 CODECOPY DUP2 DUP2 ADD PUSH1 0x40 MSTORE DUP2 ADD SWAP1 PUSH2 0x43 SWAP2 SWAP1 PUSH2 0x36C JUMP JUMPDEST CALLER PUSH0 PUSH20 0xFFFFFFFFFFFFFFFFFFFFFFFFFFFFFFFFFFFFFFFF AND DUP2 PUSH20 0xFFFFFFFFFFFFFFFFFFFFFFFFFFFFFFFFFFFFFFFF AND SUB PUSH2 0xB4 JUMPI PUSH0 PUSH1 0x40 MLOAD PUSH32 0x1E4FBDF700000000000000000000000000000000000000000000000000000000 DUP2 MSTORE PUSH1 0x4 ADD PUSH2 0xAB SWAP2 SWAP1 PUSH2 0x3B9 JUMP JUMPDEST PUSH1 0x40 MLOAD DUP1 SWAP2 SUB SWAP1 REVERT JUMPDEST PUSH2 0xC3 DUP2 PUSH2 0x217 PUSH1 0x20 SHL PUSH1 0x20 SHR JUMP JUMPDEST POP PUSH1 0x1 PUSH1 0x2 DUP2 SWAP1 SSTORE POP PUSH0 PUSH20 0xFFFFFFFFFFFFFFFFFFFFFFFFFFFFFFFFFFFFFFFF AND DUP3 PUSH20 0xFFFFFFFFFFFFFFFFFFFFFFFFFFFFFFFFFFFFFFFF AND SUB PUSH2 0x13A JUMPI PUSH1 0x40 MLOAD PUSH32 0x8C379A000000000000000000000000000000000000000000000000000000000 DUP2 MSTORE PUSH1 0x4 ADD PUSH2 0x131 SWAP1 PUSH2 0x42C JUMP JUMPDEST PUSH1 0x40 MLOAD DUP1 SWAP2 SUB SWAP1 REVERT JUMPDEST PUSH0 PUSH20 0xFFFFFFFFFFFFFFFFFFFFFFFFFFFFFFFFFFFFFFFF AND DUP2 PUSH20 0xFFFFFFFFFFFFFFFFFFFFFFFFFFFFFFFFFFFFFFFF AND SUB PUSH2 0x1A8 JUMPI PUSH1 0x40 MLOAD PUSH32 0x8C379A000000000000000000000000000000000000000000000000000000000 DUP2 MSTORE PUSH1 0x4 ADD PUSH2 0x19F SWAP1 PUSH2 0x494 JUMP JUMPDEST PUSH1 0x40 MLOAD DUP1 SWAP2 SUB SWAP1 REVERT JUMPDEST DUP2 PUSH20 0xFFFFFFFFFFFFFFFFFFFFFFFFFFFFFFFFFFFFFFFF AND PUSH1 0x80 DUP2 PUSH20 0xFFFFFFFFFFFFFFFFFFFFFFFFFFFFFFFFFFFFFFFF AND DUP2 MSTORE POP POP DUP1 PUSH20 0xFFFFFFFFFFFFFFFFFFFFFFFFFFFFFFFFFFFFFFFF AND PUSH1 0xA0 DUP2 PUSH20 0xFFFFFFFFFFFFFFFFFFFFFFFFFFFFFFFFFFFFFFFF AND DUP2 MSTORE POP POP POP POP PUSH2 0x4B2 JUMP JUMPDEST PUSH1 0x1 PUSH0 PUSH2 0x100 EXP DUP2 SLOAD SWAP1 PUSH20 0xFFFFFFFFFFFFFFFFFFFFFFFFFFFFFFFFFFFFFFFF MUL NOT AND SWAP1 SSTORE PUSH2 0x24A DUP2 PUSH2 0x24D PUSH1 0x20 SHL PUSH1 0x20 SHR JUMP JUMPDEST POP JUMP JUMPDEST PUSH0 PUSH0 PUSH0 SWAP1 SLOAD SWAP1 PUSH2 0x100 EXP SWAP1 DIV PUSH20 0xFFFFFFFFFFFFFFFFFFFFFFFFFFFFFFFFFFFFFFFF AND SWAP1 POP DUP2 PUSH0 PUSH0 PUSH2 0x100 EXP DUP2 SLOAD DUP2 PUSH20 0xFFFFFFFFFFFFFFFFFFFFFFFFFFFFFFFFFFFFFFFF MUL NOT AND SWAP1 DUP4 PUSH20 0xFFFFFFFFFFFFFFFFFFFFFFFFFFFFFFFFFFFFFFFF AND MUL OR SWAP1 SSTORE POP DUP2 PUSH20 0xFFFFFFFFFFFFFFFFFFFFFFFFFFFFFFFFFFFFFFFF AND DUP2 PUSH20 0xFFFFFFFFFFFFFFFFFFFFFFFFFFFFFFFFFFFFFFFF AND PUSH32 0x8BE0079C531659141344CD1FD0A4F28419497F9722A3DAAFE3B4186F6B6457E0 PUSH1 0x40 MLOAD PUSH1 0x40 MLOAD DUP1 SWAP2 SUB SWAP1 LOG3 POP POP JUMP JUMPDEST PUSH0 PUSH0 REVERT JUMPDEST PUSH0 PUSH20 0xFFFFFFFFFFFFFFFFFFFFFFFFFFFFFFFFFFFFFFFF DUP3 AND SWAP1 POP SWAP2 SWAP1 POP JUMP JUMPDEST PUSH0 PUSH2 0x33B DUP3 PUSH2 0x312 JUMP JUMPDEST SWAP1 POP SWAP2 SWAP1 POP JUMP JUMPDEST PUSH2 0x34B DUP2 PUSH2 0x331 JUMP JUMPDEST DUP2 EQ PUSH2 0x355 JUMPI PUSH0 PUSH0 REVERT JUMPDEST POP JUMP JUMPDEST PUSH0 DUP2 MLOAD SWAP1 POP PUSH2 0x366 DUP2 PUSH2 0x342 JUMP JUMPDEST SWAP3 SWAP2 POP POP JUMP JUMPDEST PUSH0 PUSH0 PUSH1 0x40 DUP4 DUP6 SUB SLT ISZERO PUSH2 0x382 JUMPI PUSH2 0x381 PUSH2 0x30E JUMP JUMPDEST JUMPDEST PUSH0 PUSH2 0x38F DUP6 DUP3 DUP7 ADD PUSH2 0x358 JUMP JUMPDEST SWAP3 POP POP PUSH1 0x20 PUSH2 0x3A0 DUP6 DUP3 DUP7 ADD PUSH2 0x358 JUMP JUMPDEST SWAP2 POP POP SWAP3 POP SWAP3 SWAP1 POP JUMP JUMPDEST PUSH2 0x3B3 DUP2 PUSH2 0x331 JUMP JUMPDEST DUP3 MSTORE POP POP JUMP JUMPDEST PUSH0 PUSH1 0x20 DUP3 ADD SWAP1 POP PUSH2 0x3CC PUSH0 DUP4 ADD DUP5 PUSH2 0x3AA JUMP JUMPDEST SWAP3 SWAP2 POP POP JUMP JUMPDEST PUSH0 DUP3 DUP3 MSTORE PUSH1 0x20 DUP3 ADD SWAP1 POP SWAP3 SWAP2 POP POP JUMP JUMPDEST PUSH32 0x496E76616C6964204E4654206164647265737300000000000000000000000000 PUSH0 DUP3 ADD MSTORE POP JUMP JUMPDEST PUSH0 PUSH2 0x416 PUSH1 0x13 DUP4 PUSH2 0x3D2 JUMP JUMPDEST SWAP2 POP PUSH2 0x421 DUP3 PUSH2 0x3E2 JUMP JUMPDEST PUSH1 0x20 DUP3 ADD SWAP1 POP SWAP2 SWAP1 POP JUMP JUMPDEST PUSH0 PUSH1 0x20 DUP3 ADD SWAP1 POP DUP2 DUP2 SUB PUSH0 DUP4 ADD MSTORE PUSH2 0x443 DUP2 PUSH2 0x40A JUMP JUMPDEST SWAP1 POP SWAP2 SWAP1 POP JUMP JUMPDEST PUSH32 0x496E76616C696420746F6B656E20616464726573730000000000000000000000 PUSH0 DUP3 ADD MSTORE POP JUMP JUMPDEST PUSH0 PUSH2 0x47E PUSH1 0x15 DUP4 PUSH2 0x3D2 JUMP JUMPDEST SWAP2 POP PUSH2 0x489 DUP3 PUSH2 0x44A JUMP JUMPDEST PUSH1 0x20 DUP3 ADD SWAP1 POP SWAP2 SWAP1 POP JUMP JUMPDEST PUSH0 PUSH1 0x20 DUP3 ADD SWAP1 POP DUP2 DUP2 SUB PUSH0 DUP4 ADD MSTORE PUSH2 0x4AB DUP2 PUSH2 0x472 JUMP JUMPDEST SWAP1 POP SWAP2 SWAP1 POP JUMP JUMPDEST PUSH1 0x80 MLOAD PUSH1 0xA0 MLOAD PUSH2 0x21E0 PUSH2 0x50B PUSH0 CODECOPY PUSH0 DUP2 DUP2 PUSH2 0x4DC ADD MSTORE DUP2 DUP2 PUSH2 0x579 ADD MSTORE DUP2 DUP2 PUSH2 0x5C9 ADD MSTORE DUP2 DUP2 PUSH2 0x996 ADD MSTORE DUP2 DUP2 PUSH2 0xD3A ADD MSTORE PUSH2 0xE40 ADD MSTORE PUSH0 DUP2 DUP2 PUSH2 0x5A5 ADD MSTORE DUP2 DUP2 PUSH2 0x8A8 ADD MSTORE DUP2 DUP2 PUSH2 0x9BF ADD MSTORE PUSH2 0xDAD ADD MSTORE PUSH2 0x21E0 PUSH0 RETURN INVALID PUSH1 0x80 PUSH1 0x40 MSTORE CALLVALUE DUP1 ISZERO PUSH2 0xF JUMPI PUSH0 PUSH0 REVERT JUMPDEST POP PUSH1 0x4 CALLDATASIZE LT PUSH2 0x12A JUMPI PUSH0 CALLDATALOAD PUSH1 0xE0 SHR DUP1 PUSH4 0x87C35BC0 GT PUSH2 0xAB JUMPI DUP1 PUSH4 0xC5C92585 GT PUSH2 0x6F JUMPI DUP1 PUSH4 0xC5C92585 EQ PUSH2 0x2D4 JUMPI DUP1 PUSH4 0xE30C3978 EQ PUSH2 0x2F2 JUMPI DUP1 PUSH4 0xF2FDE38B EQ PUSH2 0x310 JUMPI DUP1 PUSH4 0xF71B08C2 EQ PUSH2 0x32C JUMPI DUP1 PUSH4 0xFB05DA2E EQ PUSH2 0x34A JUMPI PUSH2 0x12A JUMP JUMPDEST DUP1 PUSH4 0x87C35BC0 EQ PUSH2 0x242 JUMPI DUP1 PUSH4 0x8CB40010 EQ PUSH2 0x260 JUMPI DUP1 PUSH4 0x8DA5CB5B EQ PUSH2 0x27C JUMPI DUP1 PUSH4 0xA772C927 EQ PUSH2 0x29A JUMPI DUP1 PUSH4 0xAB593FF2 EQ PUSH2 0x2B6 JUMPI PUSH2 0x12A JUMP JUMPDEST DUP1 PUSH4 0x52752C47 GT PUSH2 0xF2 JUMPI DUP1 PUSH4 0x52752C47 EQ PUSH2 0x1D8 JUMPI DUP1 PUSH4 0x5A19C201 EQ PUSH2 0x1F6 JUMPI DUP1 PUSH4 0x6DB79437 EQ PUSH2 0x212 JUMPI DUP1 PUSH4 0x715018A6 EQ PUSH2 0x22E JUMPI DUP1 PUSH4 0x79BA5097 EQ PUSH2 0x238 JUMPI PUSH2 0x12A JUMP JUMPDEST DUP1 PUSH4 0x33BAB25 EQ PUSH2 0x12E JUMPI DUP1 PUSH4 0x78B9837 EQ PUSH2 0x162 JUMPI DUP1 PUSH4 0x164E68DE EQ PUSH2 0x180 JUMPI DUP1 PUSH4 0x37F76838 EQ PUSH2 0x19C JUMPI DUP1 PUSH4 0x4A213805 EQ PUSH2 0x1BA JUMPI JUMPDEST PUSH0 PUSH0 REVERT JUMPDEST PUSH2 0x148 PUSH1 0x4 DUP1 CALLDATASIZE SUB DUP2 ADD SWAP1 PUSH2 0x143 SWAP2 SWAP1 PUSH2 0x15F3 JUMP JUMPDEST PUSH2 0x37F JUMP JUMPDEST PUSH1 0x40 MLOAD PUSH2 0x159 SWAP6 SWAP5 SWAP4 SWAP3 SWAP2 SWAP1 PUSH2 0x1640 JUMP JUMPDEST PUSH1 0x40 MLOAD DUP1 SWAP2 SUB SWAP1 RETURN JUMPDEST PUSH2 0x16A PUSH2 0x4CC JUMP JUMPDEST PUSH1 0x40 MLOAD PUSH2 0x177 SWAP2 SWAP1 PUSH2 0x1691 JUMP JUMPDEST PUSH1 0x40 MLOAD DUP1 SWAP2 SUB SWAP1 RETURN JUMPDEST PUSH2 0x19A PUSH1 0x4 DUP1 CALLDATASIZE SUB DUP2 ADD SWAP1 PUSH2 0x195 SWAP2 SWAP1 PUSH2 0x1704 JUMP JUMPDEST PUSH2 0x4D1 JUMP JUMPDEST STOP JUMPDEST PUSH2 0x1A4 PUSH2 0x5A3 JUMP JUMPDEST PUSH1 0x40 MLOAD PUSH2 0x1B1 SWAP2 SWAP1 PUSH2 0x178A JUMP JUMPDEST PUSH1 0x40 MLOAD DUP1 SWAP2 SUB SWAP1 RETURN JUMPDEST PUSH2 0x1C2 PUSH2 0x5C7 JUMP JUMPDEST PUSH1 0x40 MLOAD PUSH2 0x1CF SWAP2 SWAP1 PUSH2 0x17C3 JUMP JUMPDEST PUSH1 0x40 MLOAD DUP1 SWAP2 SUB SWAP1 RETURN JUMPDEST PUSH2 0x1E0 PUSH2 0x5EB JUMP JUMPDEST PUSH1 0x40 MLOAD PUSH2 0x1ED SWAP2 SWAP1 PUSH2 0x1691 JUMP JUMPDEST PUSH1 0x40 MLOAD DUP1 SWAP2 SUB SWAP1 RETURN JUMPDEST PUSH2 0x210 PUSH1 0x4 DUP1 CALLDATASIZE SUB DUP2 ADD SWAP1 PUSH2 0x20B SWAP2 SWAP1 PUSH2 0x1811 JUMP JUMPDEST PUSH2 0x5F1 JUMP JUMPDEST STOP JUMPDEST PUSH2 0x22C PUSH1 0x4 DUP1 CALLDATASIZE SUB DUP2 ADD SWAP1 PUSH2 0x227 SWAP2 SWAP1 PUSH2 0x15F3 JUMP JUMPDEST PUSH2 0x68A JUMP JUMPDEST STOP JUMPDEST PUSH2 0x236 PUSH2 0x722 JUMP JUMPDEST STOP JUMPDEST PUSH2 0x240 PUSH2 0x735 JUMP JUMPDEST STOP JUMPDEST PUSH2 0x24A PUSH2 0x7C3 JUMP JUMPDEST PUSH1 0x40 MLOAD PUSH2 0x257 SWAP2 SWAP1 PUSH2 0x1906 JUMP JUMPDEST PUSH1 0x40 MLOAD DUP1 SWAP2 SUB SWAP1 RETURN JUMPDEST PUSH2 0x27A PUSH1 0x4 DUP1 CALLDATASIZE SUB DUP2 ADD SWAP1 PUSH2 0x275 SWAP2 SWAP1 PUSH2 0x1926 JUMP JUMPDEST PUSH2 0x819 JUMP JUMPDEST STOP JUMPDEST PUSH2 0x284 PUSH2 0xBE8 JUMP JUMPDEST PUSH1 0x40 MLOAD PUSH2 0x291 SWAP2 SWAP1 PUSH2 0x1985 JUMP JUMPDEST PUSH1 0x40 MLOAD DUP1 SWAP2 SUB SWAP1 RETURN JUMPDEST PUSH2 0x2B4 PUSH1 0x4 DUP1 CALLDATASIZE SUB DUP2 ADD SWAP1 PUSH2 0x2AF SWAP2 SWAP1 PUSH2 0x15F3 JUMP JUMPDEST PUSH2 0xC0F JUMP JUMPDEST STOP JUMPDEST PUSH2 0x2BE PUSH2 0xEF2 JUMP JUMPDEST PUSH1 0x40 MLOAD PUSH2 0x2CB SWAP2 SWAP1 PUSH2 0x1691 JUMP JUMPDEST PUSH1 0x40 MLOAD DUP1 SWAP2 SUB SWAP1 RETURN JUMPDEST PUSH2 0x2DC PUSH2 0xEF8 JUMP JUMPDEST PUSH1 0x40 MLOAD PUSH2 0x2E9 SWAP2 SWAP1 PUSH2 0x1691 JUMP JUMPDEST PUSH1 0x40 MLOAD DUP1 SWAP2 SUB SWAP1 RETURN JUMPDEST PUSH2 0x2FA PUSH2 0xEFE JUMP JUMPDEST PUSH1 0x40 MLOAD PUSH2 0x307 SWAP2 SWAP1 PUSH2 0x1985 JUMP JUMPDEST PUSH1 0x40 MLOAD DUP1 SWAP2 SUB SWAP1 RETURN JUMPDEST PUSH2 0x32A PUSH1 0x4 DUP1 CALLDATASIZE SUB DUP2 ADD SWAP1 PUSH2 0x325 SWAP2 SWAP1 PUSH2 0x1704 JUMP JUMPDEST PUSH2 0xF26 JUMP JUMPDEST STOP JUMPDEST PUSH2 0x334 PUSH2 0xFD2 JUMP JUMPDEST PUSH1 0x40 MLOAD PUSH2 0x341 SWAP2 SWAP1 PUSH2 0x1691 JUMP JUMPDEST PUSH1 0x40 MLOAD DUP1 SWAP2 SUB SWAP1 RETURN JUMPDEST PUSH2 0x364 PUSH1 0x4 DUP1 CALLDATASIZE SUB DUP2 ADD SWAP1 PUSH2 0x35F SWAP2 SWAP1 PUSH2 0x199E JUMP JUMPDEST PUSH2 0xFD8 JUMP JUMPDEST PUSH1 0x40 MLOAD PUSH2 0x376 SWAP7 SWAP6 SWAP5 SWAP4 SWAP3 SWAP2 SWAP1 PUSH2 0x19D8 JUMP JUMPDEST PUSH1 0x40 MLOAD DUP1 SWAP2 SUB SWAP1 RETURN JUMPDEST PUSH0 PUSH0 PUSH0 PUSH0 PUSH0 PUSH0 PUSH1 0x5 PUSH0 DUP10 DUP2 MSTORE PUSH1 0x20 ADD SWAP1 DUP2 MSTORE PUSH1 0x20 ADD PUSH0 KECCAK256 PUSH1 0x40 MLOAD DUP1 PUSH1 0xC0 ADD PUSH1 0x40 MSTORE SWAP1 DUP2 PUSH0 DUP3 ADD PUSH0 SWAP1 SLOAD SWAP1 PUSH2 0x100 EXP SWAP1 DIV PUSH20 0xFFFFFFFFFFFFFFFFFFFFFFFFFFFFFFFFFFFFFFFF AND PUSH20 0xFFFFFFFFFFFFFFFFFFFFFFFFFFFFFFFFFFFFFFFF AND PUSH20 0xFFFFFFFFFFFFFFFFFFFFFFFFFFFFFFFFFFFFFFFF AND DUP2 MSTORE PUSH1 0x20 ADD PUSH1 0x1 DUP3 ADD SLOAD DUP2 MSTORE PUSH1 0x20 ADD PUSH1 0x2 DUP3 ADD SLOAD DUP2 MSTORE PUSH1 0x20 ADD PUSH1 0x3 DUP3 ADD SLOAD DUP2 MSTORE PUSH1 0x20 ADD PUSH1 0x4 DUP3 ADD SLOAD DUP2 MSTORE PUSH1 0x20 ADD PUSH1 0x5 DUP3 ADD PUSH0 SWAP1 SLOAD SWAP1 PUSH2 0x100 EXP SWAP1 DIV PUSH1 0xFF AND ISZERO ISZERO ISZERO ISZERO DUP2 MSTORE POP POP SWAP1 POP DUP1 PUSH1 0xA0 ADD MLOAD PUSH2 0x47D JUMPI PUSH1 0x40 MLOAD PUSH32 0x8C379A000000000000000000000000000000000000000000000000000000000 DUP2 MSTORE PUSH1 0x4 ADD PUSH2 0x474 SWAP1 PUSH2 0x1A91 JUMP JUMPDEST PUSH1 0x40 MLOAD DUP1 SWAP2 SUB SWAP1 REVERT JUMPDEST DUP7 DUP2 PUSH1 0x40 ADD MLOAD PUSH2 0x48D SWAP2 SWAP1 PUSH2 0x1ADC JUMP JUMPDEST SWAP6 POP PUSH2 0x49C DUP7 DUP3 PUSH0 ADD MLOAD PUSH2 0x10C6 JUMP JUMPDEST DUP1 SWAP6 POP DUP2 SWAP8 POP DUP3 SWAP7 POP POP POP POP DUP4 DUP6 DUP8 PUSH2 0x4B5 SWAP2 SWAP1 PUSH2 0x1B1D JUMP JUMPDEST PUSH2 0x4BF SWAP2 SWAP1 PUSH2 0x1B1D JUMP JUMPDEST SWAP2 POP POP SWAP3 SWAP6 POP SWAP3 SWAP6 SWAP1 SWAP4 POP JUMP JUMPDEST PUSH1 0xFA DUP2 JUMP JUMPDEST PUSH2 0x4D9 PUSH2 0x11A7 JUMP JUMPDEST PUSH0 PUSH32 0x0 PUSH20 0xFFFFFFFFFFFFFFFFFFFFFFFFFFFFFFFFFFFFFFFF AND PUSH4 0x70A08231 ADDRESS PUSH1 0x40 MLOAD DUP3 PUSH4 0xFFFFFFFF AND PUSH1 0xE0 SHL DUP2 MSTORE PUSH1 0x4 ADD PUSH2 0x533 SWAP2 SWAP1 PUSH2 0x1985 JUMP JUMPDEST PUSH1 0x20 PUSH1 0x40 MLOAD DUP1 DUP4 SUB DUP2 DUP7 GAS STATICCALL ISZERO DUP1 ISZERO PUSH2 0x54E JUMPI RETURNDATASIZE PUSH0 PUSH0 RETURNDATACOPY RETURNDATASIZE PUSH0 REVERT JUMPDEST POP POP POP POP PUSH1 0x40 MLOAD RETURNDATASIZE PUSH1 0x1F NOT PUSH1 0x1F DUP3 ADD AND DUP3 ADD DUP1 PUSH1 0x40 MSTORE POP DUP2 ADD SWAP1 PUSH2 0x572 SWAP2 SWAP1 PUSH2 0x1B64 JUMP JUMPDEST SWAP1 POP PUSH2 0x59F PUSH32 0x0 DUP4 DUP4 PUSH2 0x122E JUMP JUMPDEST POP POP JUMP JUMPDEST PUSH32 0x0 DUP2 JUMP JUMPDEST PUSH32 0x0 DUP2 JUMP JUMPDEST PUSH2 0x1F4 DUP2 JUMP JUMPDEST PUSH2 0x5F9 PUSH2 0x11A7 JUMP JUMPDEST DUP1 PUSH1 0x7 PUSH0 DUP5 PUSH20 0xFFFFFFFFFFFFFFFFFFFFFFFFFFFFFFFFFFFFFFFF AND PUSH20 0xFFFFFFFFFFFFFFFFFFFFFFFFFFFFFFFFFFFFFFFF AND DUP2 MSTORE PUSH1 0x20 ADD SWAP1 DUP2 MSTORE PUSH1 0x20 ADD PUSH0 KECCAK256 PUSH0 PUSH2 0x100 EXP DUP2 SLOAD DUP2 PUSH1 0xFF MUL NOT AND SWAP1 DUP4 ISZERO ISZERO MUL OR SWAP1 SSTORE POP PUSH32 0x13223E804B38E2AD53B2CD366F7390D3FBF67B00E52DE4C9B096D6143D001469 DUP3 DUP3 PUSH1 0x40 MLOAD PUSH2 0x67E SWAP3 SWAP2 SWAP1 PUSH2 0x1B8F JUMP JUMPDEST PUSH1 0x40 MLOAD DUP1 SWAP2 SUB SWAP1 LOG1 POP POP JUMP JUMPDEST PUSH2 0x692 PUSH2 0x11A7 JUMP JUMPDEST PUSH2 0x1F4 DUP2 GT ISZERO PUSH2 0x6D7 JUMPI PUSH1 0x40 MLOAD PUSH32 0x8C379A000000000000000000000000000000000000000000000000000000000 DUP2 MSTORE PUSH1 0x4 ADD PUSH2 0x6CE SWAP1 PUSH2 0x1C00 JUMP JUMPDEST PUSH1 0x40 MLOAD DUP1 SWAP2 SUB SWAP1 REVERT JUMPDEST DUP2 PUSH1 0x3 DUP2 SWAP1 SSTORE POP DUP1 PUSH1 0x4 DUP2 SWAP1 SSTORE POP PUSH32 0x5C6323BF1C2D7AAEA2C091A4751C1C87AF7F2864650C336507A77D0557AF37A1 DUP3 DUP3 PUSH1 0x40 MLOAD PUSH2 0x716 SWAP3 SWAP2 SWAP1 PUSH2 0x1C1E JUMP JUMPDEST PUSH1 0x40 MLOAD DUP1 SWAP2 SUB SWAP1 LOG1 POP POP JUMP JUMPDEST PUSH2 0x72A PUSH2 0x11A7 JUMP JUMPDEST PUSH2 0x733 PUSH0 PUSH2 0x12ED JUMP JUMPDEST JUMP JUMPDEST PUSH0 PUSH2 0x73E PUSH2 0x131D JUMP JUMPDEST SWAP1 POP DUP1 PUSH20 0xFFFFFFFFFFFFFFFFFFFFFFFFFFFFFFFFFFFFFFFF AND PUSH2 0x75F PUSH2 0xEFE JUMP JUMPDEST PUSH20 0xFFFFFFFFFFFFFFFFFFFFFFFFFFFFFFFFFFFFFFFF AND EQ PUSH2 0x7B7 JUMPI DUP1 PUSH1 0x40 MLOAD PUSH32 0x118CDAA700000000000000000000000000000000000000000000000000000000 DUP2 MSTORE PUSH1 0x4 ADD PUSH2 0x7AE SWAP2 SWAP1 PUSH2 0x1985 JUMP JUMPDEST PUSH1 0x40 MLOAD DUP1 SWAP2 SUB SWAP1 REVERT JUMPDEST PUSH2 0x7C0 DUP2 PUSH2 0x12ED JUMP JUMPDEST POP JUMP JUMPDEST PUSH1 0x60 PUSH1 0x6 DUP1 SLOAD DUP1 PUSH1 0x20 MUL PUSH1 0x20 ADD PUSH1 0x40 MLOAD SWAP1 DUP2 ADD PUSH1 0x40 MSTORE DUP1 SWAP3 SWAP2 SWAP1 DUP2 DUP2 MSTORE PUSH1 0x20 ADD DUP3 DUP1 SLOAD DUP1 ISZERO PUSH2 0x80F JUMPI PUSH1 0x20 MUL DUP3 ADD SWAP2 SWAP1 PUSH0 MSTORE PUSH1 0x20 PUSH0 KECCAK256 SWAP1 JUMPDEST DUP2 SLOAD DUP2 MSTORE PUSH1 0x20 ADD SWAP1 PUSH1 0x1 ADD SWAP1 DUP1 DUP4 GT PUSH2 0x7FB JUMPI JUMPDEST POP POP POP POP POP SWAP1 POP SWAP1 JUMP JUMPDEST PUSH2 0x821 PUSH2 0x1324 JUMP JUMPDEST PUSH0 DUP3 GT PUSH2 0x863 JUMPI PUSH1 0x40 MLOAD PUSH32 0x8C379A000000000000000000000000000000000000000000000000000000000 DUP2 MSTORE PUSH1 0x4 ADD PUSH2 0x85A SWAP1 PUSH2 0x1C8F JUMP JUMPDEST PUSH1 0x40 MLOAD DUP1 SWAP2 SUB SWAP1 REVERT JUMPDEST PUSH0 DUP2 GT PUSH2 0x8A5 JUMPI PUSH1 0x40 MLOAD PUSH32 0x8C379A000000000000000000000000000000000000000000000000000000000 DUP2 MSTORE PUSH1 0x4 ADD PUSH2 0x89C SWAP1 PUSH2 0x1CF7 JUMP JUMPDEST PUSH1 0x40 MLOAD DUP1 SWAP2 SUB SWAP1 REVERT JUMPDEST DUP1 PUSH32 0x0 PUSH20 0xFFFFFFFFFFFFFFFFFFFFFFFFFFFFFFFFFFFFFFFF AND PUSH3 0xFDD58E CALLER DUP7 PUSH1 0x40 MLOAD DUP4 PUSH4 0xFFFFFFFF AND PUSH1 0xE0 SHL DUP2 MSTORE PUSH1 0x4 ADD PUSH2 0x900 SWAP3 SWAP2 SWAP1 PUSH2 0x1D15 JUMP JUMPDEST PUSH1 0x20 PUSH1 0x40 MLOAD DUP1 DUP4 SUB DUP2 DUP7 GAS STATICCALL ISZERO DUP1 ISZERO PUSH2 0x91B JUMPI RETURNDATASIZE PUSH0 PUSH0 RETURNDATACOPY RETURNDATASIZE PUSH0 REVERT JUMPDEST POP POP POP POP PUSH1 0x40 MLOAD RETURNDATASIZE PUSH1 0x1F NOT PUSH1 0x1F DUP3 ADD AND DUP3 ADD DUP1 PUSH1 0x40 MSTORE POP DUP2 ADD SWAP1 PUSH2 0x93F SWAP2 SWAP1 PUSH2 0x1B64 JUMP JUMPDEST LT ISZERO PUSH2 0x980 JUMPI PUSH1 0x40 MLOAD PUSH32 0x8C379A000000000000000000000000000000000000000000000000000000000 DUP2 MSTORE PUSH1 0x4 ADD PUSH2 0x977 SWAP1 PUSH2 0x1D86 JUMP JUMPDEST PUSH1 0x40 MLOAD DUP1 SWAP2 SUB SWAP1 REVERT JUMPDEST PUSH0 DUP2 PUSH1 0x3 SLOAD PUSH2 0x98F SWAP2 SWAP1 PUSH2 0x1ADC JUMP JUMPDEST SWAP1 POP PUSH2 0x9BD PUSH32 0x0 CALLER ADDRESS DUP5 PUSH2 0x1371 JUMP JUMPDEST PUSH32 0x0 PUSH20 0xFFFFFFFFFFFFFFFFFFFFFFFFFFFFFFFFFFFFFFFF AND PUSH4 0xF242432A CALLER ADDRESS DUP8 DUP7 PUSH1 0x40 MLOAD DUP6 PUSH4 0xFFFFFFFF AND PUSH1 0xE0 SHL DUP2 MSTORE PUSH1 0x4 ADD PUSH2 0xA1C SWAP5 SWAP4 SWAP3 SWAP2 SWAP1 PUSH2 0x1DD7 JUMP JUMPDEST PUSH0 PUSH1 0x40 MLOAD DUP1 DUP4 SUB DUP2 PUSH0 DUP8 DUP1 EXTCODESIZE ISZERO DUP1 ISZERO PUSH2 0xA33 JUMPI PUSH0 PUSH0 REVERT JUMPDEST POP GAS CALL ISZERO DUP1 ISZERO PUSH2 0xA45 JUMPI RETURNDATASIZE PUSH0 PUSH0 RETURNDATACOPY RETURNDATASIZE PUSH0 REVERT JUMPDEST POP POP POP POP PUSH0 DUP5 CALLER TIMESTAMP DUP6 PUSH1 0x40 MLOAD PUSH1 0x20 ADD PUSH2 0xA61 SWAP5 SWAP4 SWAP3 SWAP2 SWAP1 PUSH2 0x1E92 JUMP JUMPDEST PUSH1 0x40 MLOAD PUSH1 0x20 DUP2 DUP4 SUB SUB DUP2 MSTORE SWAP1 PUSH1 0x40 MSTORE DUP1 MLOAD SWAP1 PUSH1 0x20 ADD KECCAK256 PUSH0 SHR SWAP1 POP PUSH1 0x40 MLOAD DUP1 PUSH1 0xC0 ADD PUSH1 0x40 MSTORE DUP1 CALLER PUSH20 0xFFFFFFFFFFFFFFFFFFFFFFFFFFFFFFFFFFFFFFFF AND DUP2 MSTORE PUSH1 0x20 ADD DUP7 DUP2 MSTORE PUSH1 0x20 ADD DUP6 DUP2 MSTORE PUSH1 0x20 ADD DUP5 DUP2 MSTORE PUSH1 0x20 ADD DUP5 DUP2 MSTORE PUSH1 0x20 ADD PUSH1 0x1 ISZERO ISZERO DUP2 MSTORE POP PUSH1 0x5 PUSH0 DUP4 DUP2 MSTORE PUSH1 0x20 ADD SWAP1 DUP2 MSTORE PUSH1 0x20 ADD PUSH0 KECCAK256 PUSH0 DUP3 ADD MLOAD DUP2 PUSH0 ADD PUSH0 PUSH2 0x100 EXP DUP2 SLOAD DUP2 PUSH20 0xFFFFFFFFFFFFFFFFFFFFFFFFFFFFFFFFFFFFFFFF MUL NOT AND SWAP1 DUP4 PUSH20 0xFFFFFFFFFFFFFFFFFFFFFFFFFFFFFFFFFFFFFFFF AND MUL OR SWAP1 SSTORE POP PUSH1 0x20 DUP3 ADD MLOAD DUP2 PUSH1 0x1 ADD SSTORE PUSH1 0x40 DUP3 ADD MLOAD DUP2 PUSH1 0x2 ADD SSTORE PUSH1 0x60 DUP3 ADD MLOAD DUP2 PUSH1 0x3 ADD SSTORE PUSH1 0x80 DUP3 ADD MLOAD DUP2 PUSH1 0x4 ADD SSTORE PUSH1 0xA0 DUP3 ADD MLOAD DUP2 PUSH1 0x5 ADD PUSH0 PUSH2 0x100 EXP DUP2 SLOAD DUP2 PUSH1 0xFF MUL NOT AND SWAP1 DUP4 ISZERO ISZERO MUL OR SWAP1 SSTORE POP SWAP1 POP POP PUSH1 0x6 DUP2 SWAP1 DUP1 PUSH1 0x1 DUP2 SLOAD ADD DUP1 DUP3 SSTORE DUP1 SWAP2 POP POP PUSH1 0x1 SWAP1 SUB SWAP1 PUSH0 MSTORE PUSH1 0x20 PUSH0 KECCAK256 ADD PUSH0 SWAP1 SWAP2 SWAP1 SWAP2 SWAP1 SWAP2 POP SSTORE CALLER PUSH20 0xFFFFFFFFFFFFFFFFFFFFFFFFFFFFFFFFFFFFFFFF AND DUP2 PUSH32 0xEBE5022E5E01629CE50EC667B3F3333EC2AD62233A476B8C78AFBC36FD931D74 DUP8 DUP8 DUP8 PUSH1 0x40 MLOAD PUSH2 0xBD1 SWAP4 SWAP3 SWAP2 SWAP1 PUSH2 0x1EDF JUMP JUMPDEST PUSH1 0x40 MLOAD DUP1 SWAP2 SUB SWAP1 LOG3 POP POP PUSH2 0xBE3 PUSH2 0x1433 JUMP JUMPDEST POP POP POP JUMP JUMPDEST PUSH0 PUSH0 PUSH0 SWAP1 SLOAD SWAP1 PUSH2 0x100 EXP SWAP1 DIV PUSH20 0xFFFFFFFFFFFFFFFFFFFFFFFFFFFFFFFFFFFFFFFF AND SWAP1 POP SWAP1 JUMP JUMPDEST PUSH2 0xC17 PUSH2 0x1324 JUMP JUMPDEST DUP2 PUSH1 0x5 PUSH0 DUP3 DUP2 MSTORE PUSH1 0x20 ADD SWAP1 DUP2 MSTORE PUSH1 0x20 ADD PUSH0 KECCAK256 PUSH1 0x5 ADD PUSH0 SWAP1 SLOAD SWAP1 PUSH2 0x100 EXP SWAP1 DIV PUSH1 0xFF AND PUSH2 0xC78 JUMPI PUSH1 0x40 MLOAD PUSH32 0x8C379A000000000000000000000000000000000000000000000000000000000 DUP2 MSTORE PUSH1 0x4 ADD PUSH2 0xC6F SWAP1 PUSH2 0x1A91 JUMP JUMPDEST PUSH1 0x40 MLOAD DUP1 SWAP2 SUB SWAP1 REVERT JUMPDEST PUSH0 PUSH1 0x5 PUSH0 DUP6 DUP2 MSTORE PUSH1 0x20 ADD SWAP1 DUP2 MSTORE PUSH1 0x20 ADD PUSH0 KECCAK256 SWAP1 POP DUP1 PUSH1 0x4 ADD SLOAD DUP4 GT ISZERO PUSH2 0xCD3 JUMPI PUSH1 0x40 MLOAD PUSH32 0x8C379A000000000000000000000000000000000000000000000000000000000 DUP2 MSTORE PUSH1 0x4 ADD PUSH2 0xCCA SWAP1 PUSH2 0x1F5E JUMP JUMPDEST PUSH1 0x40 MLOAD DUP1 SWAP2 SUB SWAP1 REVERT JUMPDEST PUSH0 DUP4 DUP3 PUSH1 0x2 ADD SLOAD PUSH2 0xCE4 SWAP2 SWAP1 PUSH2 0x1ADC JUMP JUMPDEST SWAP1 POP PUSH0 PUSH0 PUSH0 PUSH2 0xD15 DUP5 DUP7 PUSH0 ADD PUSH0 SWAP1 SLOAD SWAP1 PUSH2 0x100 EXP SWAP1 DIV PUSH20 0xFFFFFFFFFFFFFFFFFFFFFFFFFFFFFFFFFFFFFFFF AND PUSH2 0x10C6 JUMP JUMPDEST SWAP3 POP SWAP3 POP SWAP3 POP PUSH0 DUP4 DUP4 DUP7 PUSH2 0xD29 SWAP2 SWAP1 PUSH2 0x1B1D JUMP JUMPDEST PUSH2 0xD33 SWAP2 SWAP1 PUSH2 0x1B1D JUMP JUMPDEST SWAP1 POP PUSH2 0xD61 PUSH32 0x0 CALLER ADDRESS DUP5 PUSH2 0x1371 JUMP JUMPDEST DUP8 DUP7 PUSH1 0x4 ADD PUSH0 DUP3 DUP3 SLOAD PUSH2 0xD74 SWAP2 SWAP1 PUSH2 0x1F7C JUMP JUMPDEST SWAP3 POP POP DUP2 SWAP1 SSTORE POP PUSH0 DUP7 PUSH1 0x4 ADD SLOAD SUB PUSH2 0xDAB JUMPI PUSH0 DUP7 PUSH1 0x5 ADD PUSH0 PUSH2 0x100 EXP DUP2 SLOAD DUP2 PUSH1 0xFF MUL NOT AND SWAP1 DUP4 ISZERO ISZERO MUL OR SWAP1 SSTORE POP PUSH2 0xDAA DUP10 PUSH2 0x143D JUMP JUMPDEST JUMPDEST PUSH32 0x0 PUSH20 0xFFFFFFFFFFFFFFFFFFFFFFFFFFFFFFFFFFFFFFFF AND PUSH4 0xF242432A ADDRESS CALLER DUP10 PUSH1 0x1 ADD SLOAD DUP13 PUSH1 0x40 MLOAD DUP6 PUSH4 0xFFFFFFFF AND PUSH1 0xE0 SHL DUP2 MSTORE PUSH1 0x4 ADD PUSH2 0xE0E SWAP5 SWAP4 SWAP3 SWAP2 SWAP1 PUSH2 0x1DD7 JUMP JUMPDEST PUSH0 PUSH1 0x40 MLOAD DUP1 DUP4 SUB DUP2 PUSH0 DUP8 DUP1 EXTCODESIZE ISZERO DUP1 ISZERO PUSH2 0xE25 JUMPI PUSH0 PUSH0 REVERT JUMPDEST POP GAS CALL ISZERO DUP1 ISZERO PUSH2 0xE37 JUMPI RETURNDATASIZE PUSH0 PUSH0 RETURNDATACOPY RETURNDATASIZE PUSH0 REVERT JUMPDEST POP POP POP POP PUSH2 0xE88 PUSH32 0x0 DUP8 PUSH0 ADD PUSH0 SWAP1 SLOAD SWAP1 PUSH2 0x100 EXP SWAP1 DIV PUSH20 0xFFFFFFFFFFFFFFFFFFFFFFFFFFFFFFFFFFFFFFFF AND DUP5 PUSH2 0x122E JUMP JUMPDEST CALLER PUSH20 0xFFFFFFFFFFFFFFFFFFFFFFFFFFFFFFFFFFFFFFFF AND DUP10 PUSH32 0xBBC7D6007E204A02E0D5C742381EA5B6B2D01AB4C9C0C1B9AFAB201F1A3474CB DUP11 DUP9 DUP8 DUP10 DUP9 PUSH1 0x40 MLOAD PUSH2 0xED7 SWAP6 SWAP5 SWAP4 SWAP3 SWAP2 SWAP1 PUSH2 0x1640 JUMP JUMPDEST PUSH1 0x40 MLOAD DUP1 SWAP2 SUB SWAP1 LOG3 POP POP POP POP POP POP POP PUSH2 0xEEE PUSH2 0x1433 JUMP JUMPDEST POP POP JUMP JUMPDEST PUSH2 0x44C DUP2 JUMP JUMPDEST PUSH1 0x4 SLOAD DUP2 JUMP JUMPDEST PUSH0 PUSH1 0x1 PUSH0 SWAP1 SLOAD SWAP1 PUSH2 0x100 EXP SWAP1 DIV PUSH20 0xFFFFFFFFFFFFFFFFFFFFFFFFFFFFFFFFFFFFFFFF AND SWAP1 POP SWAP1 JUMP JUMPDEST PUSH2 0xF2E PUSH2 0x11A7 JUMP JUMPDEST DUP1 PUSH1 0x1 PUSH0 PUSH2 0x100 EXP DUP2 SLOAD DUP2 PUSH20 0xFFFFFFFFFFFFFFFFFFFFFFFFFFFFFFFFFFFFFFFF MUL NOT AND SWAP1 DUP4 PUSH20 0xFFFFFFFFFFFFFFFFFFFFFFFFFFFFFFFFFFFFFFFF AND MUL OR SWAP1 SSTORE POP DUP1 PUSH20 0xFFFFFFFFFFFFFFFFFFFFFFFFFFFFFFFFFFFFFFFF AND PUSH2 0xF8D PUSH2 0xBE8 JUMP JUMPDEST PUSH20 0xFFFFFFFFFFFFFFFFFFFFFFFFFFFFFFFFFFFFFFFF AND PUSH32 0x38D16B8CAC22D99FC7C124B9CD0DE2D3FA1FAEF420BFE791D8C362D765E22700 PUSH1 0x40 MLOAD PUSH1 0x40 MLOAD DUP1 SWAP2 SUB SWAP1 LOG3 POP JUMP JUMPDEST PUSH1 0x3 SLOAD DUP2 JUMP JUMPDEST PUSH0 PUSH0 PUSH0 PUSH0 PUSH0 PUSH0 PUSH0 PUSH1 0x5 PUSH0 DUP10 DUP2 MSTORE PUSH1 0x20 ADD SWAP1 DUP2 MSTORE PUSH1 0x20 ADD PUSH0 KECCAK256 PUSH1 0x40 MLOAD DUP1 PUSH1 0xC0 ADD PUSH1 0x40 MSTORE SWAP1 DUP2 PUSH0 DUP3 ADD PUSH0 SWAP1 SLOAD SWAP1 PUSH2 0x100 EXP SWAP1 DIV PUSH20 0xFFFFFFFFFFFFFFFFFFFFFFFFFFFFFFFFFFFFFFFF AND PUSH20 0xFFFFFFFFFFFFFFFFFFFFFFFFFFFFFFFFFFFFFFFF AND PUSH20 0xFFFFFFFFFFFFFFFFFFFFFFFFFFFFFFFFFFFFFFFF AND DUP2 MSTORE PUSH1 0x20 ADD PUSH1 0x1 DUP3 ADD SLOAD DUP2 MSTORE PUSH1 0x20 ADD PUSH1 0x2 DUP3 ADD SLOAD DUP2 MSTORE PUSH1 0x20 ADD PUSH1 0x3 DUP3 ADD SLOAD DUP2 MSTORE PUSH1 0x20 ADD PUSH1 0x4 DUP3 ADD SLOAD DUP2 MSTORE PUSH1 0x20 ADD PUSH1 0x5 DUP3 ADD PUSH0 SWAP1 SLOAD SWAP1 PUSH2 0x100 EXP SWAP1 DIV PUSH1 0xFF AND ISZERO ISZERO ISZERO ISZERO DUP2 MSTORE POP POP SWAP1 POP DUP1 PUSH0 ADD MLOAD DUP2 PUSH1 0x20 ADD MLOAD DUP3 PUSH1 0x40 ADD MLOAD DUP4 PUSH1 0x60 ADD MLOAD DUP5 PUSH1 0x80 ADD MLOAD DUP6 PUSH1 0xA0 ADD MLOAD SWAP7 POP SWAP7 POP SWAP7 POP SWAP7 POP SWAP7 POP SWAP7 POP POP SWAP2 SWAP4 SWAP6 POP SWAP2 SWAP4 SWAP6 JUMP JUMPDEST PUSH0 PUSH0 PUSH0 PUSH2 0x2710 PUSH1 0x4 SLOAD DUP7 PUSH2 0x10DA SWAP2 SWAP1 PUSH2 0x1ADC JUMP JUMPDEST PUSH2 0x10E4 SWAP2 SWAP1 PUSH2 0x1FDC JUMP JUMPDEST SWAP2 POP PUSH2 0x2710 PUSH1 0xFA PUSH2 0x1F4 PUSH2 0x10F8 SWAP2 SWAP1 PUSH2 0x1B1D JUMP JUMPDEST DUP7 PUSH2 0x1103 SWAP2 SWAP1 PUSH2 0x1ADC JUMP JUMPDEST PUSH2 0x110D SWAP2 SWAP1 PUSH2 0x1FDC JUMP JUMPDEST SWAP3 POP PUSH1 0x7 PUSH0 DUP6 PUSH20 0xFFFFFFFFFFFFFFFFFFFFFFFFFFFFFFFFFFFFFFFF AND PUSH20 0xFFFFFFFFFFFFFFFFFFFFFFFFFFFFFFFFFFFFFFFF AND DUP2 MSTORE PUSH1 0x20 ADD SWAP1 DUP2 MSTORE PUSH1 0x20 ADD PUSH0 KECCAK256 PUSH0 SWAP1 SLOAD SWAP1 PUSH2 0x100 EXP SWAP1 DIV PUSH1 0xFF AND ISZERO PUSH2 0x1187 JUMPI PUSH2 0x2710 PUSH2 0x44C DUP7 PUSH2 0x116F SWAP2 SWAP1 PUSH2 0x1ADC JUMP JUMPDEST PUSH2 0x1179 SWAP2 SWAP1 PUSH2 0x1FDC JUMP JUMPDEST DUP4 PUSH2 0x1184 SWAP2 SWAP1 PUSH2 0x1B1D JUMP JUMPDEST SWAP3 POP JUMPDEST DUP3 DUP3 DUP7 PUSH2 0x1194 SWAP2 SWAP1 PUSH2 0x1F7C JUMP JUMPDEST PUSH2 0x119E SWAP2 SWAP1 PUSH2 0x1F7C JUMP JUMPDEST SWAP1 POP SWAP3 POP SWAP3 POP SWAP3 JUMP JUMPDEST PUSH2 0x11AF PUSH2 0x131D JUMP JUMPDEST PUSH20 0xFFFFFFFFFFFFFFFFFFFFFFFFFFFFFFFFFFFFFFFF AND PUSH2 0x11CD PUSH2 0xBE8 JUMP JUMPDEST PUSH20 0xFFFFFFFFFFFFFFFFFFFFFFFFFFFFFFFFFFFFFFFF AND EQ PUSH2 0x122C JUMPI PUSH2 0x11F0 PUSH2 0x131D JUMP JUMPDEST PUSH1 0x40 MLOAD PUSH32 0x118CDAA700000000000000000000000000000000000000000000000000000000 DUP2 MSTORE PUSH1 0x4 ADD PUSH2 0x1223 SWAP2 SWAP1 PUSH2 0x1985 JUMP JUMPDEST PUSH1 0x40 MLOAD DUP1 SWAP2 SUB SWAP1 REVERT JUMPDEST JUMP JUMPDEST DUP3 PUSH20 0xFFFFFFFFFFFFFFFFFFFFFFFFFFFFFFFFFFFFFFFF AND PUSH4 0xA9059CBB DUP4 DUP4 PUSH1 0x40 MLOAD DUP4 PUSH4 0xFFFFFFFF AND PUSH1 0xE0 SHL DUP2 MSTORE PUSH1 0x4 ADD PUSH2 0x1269 SWAP3 SWAP2 SWAP1 PUSH2 0x1D15 JUMP JUMPDEST PUSH1 0x20 PUSH1 0x40 MLOAD DUP1 DUP4 SUB DUP2 PUSH0 DUP8 GAS CALL ISZERO DUP1 ISZERO PUSH2 0x1285 JUMPI RETURNDATASIZE PUSH0 PUSH0 RETURNDATACOPY RETURNDATASIZE PUSH0 REVERT JUMPDEST POP POP POP POP PUSH1 0x40 MLOAD RETURNDATASIZE PUSH1 0x1F NOT PUSH1 0x1F DUP3 ADD AND DUP3 ADD DUP1 PUSH1 0x40 MSTORE POP DUP2 ADD SWAP1 PUSH2 0x12A9 SWAP2 SWAP1 PUSH2 0x2020 JUMP JUMPDEST PUSH2 0x12E8 JUMPI PUSH1 0x40 MLOAD PUSH32 0x8C379A000000000000000000000000000000000000000000000000000000000 DUP2 MSTORE PUSH1 0x4 ADD PUSH2 0x12DF SWAP1 PUSH2 0x2095 JUMP JUMPDEST PUSH1 0x40 MLOAD DUP1 SWAP2 SUB SWAP1 REVERT JUMPDEST POP POP POP JUMP JUMPDEST PUSH1 0x1 PUSH0 PUSH2 0x100 EXP DUP2 SLOAD SWAP1 PUSH20 0xFFFFFFFFFFFFFFFFFFFFFFFFFFFFFFFFFFFFFFFF MUL NOT AND SWAP1 SSTORE PUSH2 0x131A DUP2 PUSH2 0x14FB JUMP JUMPDEST POP JUMP JUMPDEST PUSH0 CALLER SWAP1 POP SWAP1 JUMP JUMPDEST PUSH1 0x2 DUP1 SLOAD SUB PUSH2 0x1368 JUMPI PUSH1 0x40 MLOAD PUSH32 0x8C379A000000000000000000000000000000000000000000000000000000000 DUP2 MSTORE PUSH1 0x4 ADD PUSH2 0x135F SWAP1 PUSH2 0x20FD JUMP JUMPDEST PUSH1 0x40 MLOAD DUP1 SWAP2 SUB SWAP1 REVERT JUMPDEST PUSH1 0x2 DUP1 DUP2 SWAP1 SSTORE POP JUMP JUMPDEST DUP4 PUSH20 0xFFFFFFFFFFFFFFFFFFFFFFFFFFFFFFFFFFFFFFFF AND PUSH4 0x23B872DD DUP5 DUP5 DUP5 PUSH1 0x40 MLOAD DUP5 PUSH4 0xFFFFFFFF AND PUSH1 0xE0 SHL DUP2 MSTORE PUSH1 0x4 ADD PUSH2 0x13AE SWAP4 SWAP3 SWAP2 SWAP1 PUSH2 0x211B JUMP JUMPDEST PUSH1 0x20 PUSH1 0x40 MLOAD DUP1 DUP4 SUB DUP2 PUSH0 DUP8 GAS CALL ISZERO DUP1 ISZERO PUSH2 0x13CA JUMPI RETURNDATASIZE PUSH0 PUSH0 RETURNDATACOPY RETURNDATASIZE PUSH0 REVERT JUMPDEST POP POP POP POP PUSH1 0x40 MLOAD RETURNDATASIZE PUSH1 0x1F NOT PUSH1 0x1F DUP3 ADD AND DUP3 ADD DUP1 PUSH1 0x40 MSTORE POP DUP2 ADD SWAP1 PUSH2 0x13EE SWAP2 SWAP1 PUSH2 0x2020 JUMP JUMPDEST PUSH2 0x142D JUMPI PUSH1 0x40 MLOAD PUSH32 0x8C379A000000000000000000000000000000000000000000000000000000000 DUP2 MSTORE PUSH1 0x4 ADD PUSH2 0x1424 SWAP1 PUSH2 0x2095 JUMP JUMPDEST PUSH1 0x40 MLOAD DUP1 SWAP2 SUB SWAP1 REVERT JUMPDEST POP POP POP POP JUMP JUMPDEST PUSH1 0x1 PUSH1 0x2 DUP2 SWAP1 SSTORE POP JUMP JUMPDEST PUSH0 PUSH0 SWAP1 POP JUMPDEST PUSH1 0x6 DUP1 SLOAD SWAP1 POP DUP2 LT ISZERO PUSH2 0x14F7 JUMPI DUP2 PUSH1 0x6 DUP3 DUP2 SLOAD DUP2 LT PUSH2 0x1464 JUMPI PUSH2 0x1463 PUSH2 0x2150 JUMP JUMPDEST JUMPDEST SWAP1 PUSH0 MSTORE PUSH1 0x20 PUSH0 KECCAK256 ADD SLOAD SUB PUSH2 0x14EA JUMPI PUSH1 0x6 PUSH1 0x1 PUSH1 0x6 DUP1 SLOAD SWAP1 POP PUSH2 0x1486 SWAP2 SWAP1 PUSH2 0x1F7C JUMP JUMPDEST DUP2 SLOAD DUP2 LT PUSH2 0x1497 JUMPI PUSH2 0x1496 PUSH2 0x2150 JUMP JUMPDEST JUMPDEST SWAP1 PUSH0 MSTORE PUSH1 0x20 PUSH0 KECCAK256 ADD SLOAD PUSH1 0x6 DUP3 DUP2 SLOAD DUP2 LT PUSH2 0x14B4 JUMPI PUSH2 0x14B3 PUSH2 0x2150 JUMP JUMPDEST JUMPDEST SWAP1 PUSH0 MSTORE PUSH1 0x20 PUSH0 KECCAK256 ADD DUP2 SWAP1 SSTORE POP PUSH1 0x6 DUP1 SLOAD DUP1 PUSH2 0x14D2 JUMPI PUSH2 0x14D1 PUSH2 0x217D JUMP JUMPDEST JUMPDEST PUSH1 0x1 SWAP1 SUB DUP2 DUP2 SWAP1 PUSH0 MSTORE PUSH1 0x20 PUSH0 KECCAK256 ADD PUSH0 SWAP1 SSTORE SWAP1 SSTORE PUSH2 0x14F7 JUMP JUMPDEST DUP1 DUP1 PUSH1 0x1 ADD SWAP2 POP POP PUSH2 0x1442 JUMP JUMPDEST POP POP JUMP JUMPDEST PUSH0 PUSH0 PUSH0 SWAP1 SLOAD SWAP1 PUSH2 0x100 EXP SWAP1 DIV PUSH20 0xFFFFFFFFFFFFFFFFFFFFFFFFFFFFFFFFFFFFFFFF AND SWAP1 POP DUP2 PUSH0 PUSH0 PUSH2 0x100 EXP DUP2 SLOAD DUP2 PUSH20 0xFFFFFFFFFFFFFFFFFFFFFFFFFFFFFFFFFFFFFFFF MUL NOT AND SWAP1 DUP4 PUSH20 0xFFFFFFFFFFFFFFFFFFFFFFFFFFFFFFFFFFFFFFFF AND MUL OR SWAP1 SSTORE POP DUP2 PUSH20 0xFFFFFFFFFFFFFFFFFFFFFFFFFFFFFFFFFFFFFFFF AND DUP2 PUSH20 0xFFFFFFFFFFFFFFFFFFFFFFFFFFFFFFFFFFFFFFFF AND PUSH32 0x8BE0079C531659141344CD1FD0A4F28419497F9722A3DAAFE3B4186F6B6457E0 PUSH1 0x40 MLOAD PUSH1 0x40 MLOAD DUP1 SWAP2 SUB SWAP1 LOG3 POP POP JUMP JUMPDEST PUSH0 PUSH0 REVERT JUMPDEST PUSH0 DUP2 SWAP1 POP SWAP2 SWAP1 POP JUMP JUMPDEST PUSH2 0x15D2 DUP2 PUSH2 0x15C0 JUMP JUMPDEST DUP2 EQ PUSH2 0x15DC JUMPI PUSH0 PUSH0 REVERT JUMPDEST POP JUMP JUMPDEST PUSH0 DUP2 CALLDATALOAD SWAP1 POP PUSH2 0x15ED DUP2 PUSH2 0x15C9 JUMP JUMPDEST SWAP3 SWAP2 POP POP JUMP JUMPDEST PUSH0 PUSH0 PUSH1 0x40 DUP4 DUP6 SUB SLT ISZERO PUSH2 0x1609 JUMPI PUSH2 0x1608 PUSH2 0x15BC JUMP JUMPDEST JUMPDEST PUSH0 PUSH2 0x1616 DUP6 DUP3 DUP7 ADD PUSH2 0x15DF JUMP JUMPDEST SWAP3 POP POP PUSH1 0x20 PUSH2 0x1627 DUP6 DUP3 DUP7 ADD PUSH2 0x15DF JUMP JUMPDEST SWAP2 POP POP SWAP3 POP SWAP3 SWAP1 POP JUMP JUMPDEST PUSH2 0x163A DUP2 PUSH2 0x15C0 JUMP JUMPDEST DUP3 MSTORE POP POP JUMP JUMPDEST PUSH0 PUSH1 0xA0 DUP3 ADD SWAP1 POP PUSH2 0x1653 PUSH0 DUP4 ADD DUP9 PUSH2 0x1631 JUMP JUMPDEST PUSH2 0x1660 PUSH1 0x20 DUP4 ADD DUP8 PUSH2 0x1631 JUMP JUMPDEST PUSH2 0x166D PUSH1 0x40 DUP4 ADD DUP7 PUSH2 0x1631 JUMP JUMPDEST PUSH2 0x167A PUSH1 0x60 DUP4 ADD DUP6 PUSH2 0x1631 JUMP JUMPDEST PUSH2 0x1687 PUSH1 0x80 DUP4 ADD DUP5 PUSH2 0x1631 JUMP JUMPDEST SWAP7 SWAP6 POP POP POP POP POP POP JUMP JUMPDEST PUSH0 PUSH1 0x20 DUP3 ADD SWAP1 POP PUSH2 0x16A4 PUSH0 DUP4 ADD DUP5 PUSH2 0x1631 JUMP JUMPDEST SWAP3 SWAP2 POP POP JUMP JUMPDEST PUSH0 PUSH20 0xFFFFFFFFFFFFFFFFFFFFFFFFFFFFFFFFFFFFFFFF DUP3 AND SWAP1 POP SWAP2 SWAP1 POP JUMP JUMPDEST PUSH0 PUSH2 0x16D3 DUP3 PUSH2 0x16AA JUMP JUMPDEST SWAP1 POP SWAP2 SWAP1 POP JUMP JUMPDEST PUSH2 0x16E3 DUP2 PUSH2 0x16C9 JUMP JUMPDEST DUP2 EQ PUSH2 0x16ED JUMPI PUSH0 PUSH0 REVERT JUMPDEST POP JUMP JUMPDEST PUSH0 DUP2 CALLDATALOAD SWAP1 POP PUSH2 0x16FE DUP2 PUSH2 0x16DA JUMP JUMPDEST SWAP3 SWAP2 POP POP JUMP JUMPDEST PUSH0 PUSH1 0x20 DUP3 DUP5 SUB SLT ISZERO PUSH2 0x1719 JUMPI PUSH2 0x1718 PUSH2 0x15BC JUMP JUMPDEST JUMPDEST PUSH0 PUSH2 0x1726 DUP5 DUP3 DUP6 ADD PUSH2 0x16F0 JUMP JUMPDEST SWAP2 POP POP SWAP3 SWAP2 POP POP JUMP JUMPDEST PUSH0 DUP2 SWAP1 POP SWAP2 SWAP1 POP JUMP JUMPDEST PUSH0 PUSH2 0x1752 PUSH2 0x174D PUSH2 0x1748 DUP5 PUSH2 0x16AA JUMP JUMPDEST PUSH2 0x172F JUMP JUMPDEST PUSH2 0x16AA JUMP JUMPDEST SWAP1 POP SWAP2 SWAP1 POP JUMP JUMPDEST PUSH0 PUSH2 0x1763 DUP3 PUSH2 0x1738 JUMP JUMPDEST SWAP1 POP SWAP2 SWAP1 POP JUMP JUMPDEST PUSH0 PUSH2 0x1774 DUP3 PUSH2 0x1759 JUMP JUMPDEST SWAP1 POP SWAP2 SWAP1 POP JUMP JUMPDEST PUSH2 0x1784 DUP2 PUSH2 0x176A JUMP JUMPDEST DUP3 MSTORE POP POP JUMP JUMPDEST PUSH0 PUSH1 0x20 DUP3 ADD SWAP1 POP PUSH2 0x179D PUSH0 DUP4 ADD DUP5 PUSH2 0x177B JUMP JUMPDEST SWAP3 SWAP2 POP POP JUMP JUMPDEST PUSH0 PUSH2 0x17AD DUP3 PUSH2 0x1759 JUMP JUMPDEST SWAP1 POP SWAP2 SWAP1 POP JUMP JUMPDEST PUSH2 0x17BD DUP2 PUSH2 0x17A3 JUMP JUMPDEST DUP3 MSTORE POP POP JUMP JUMPDEST PUSH0 PUSH1 0x20 DUP3 ADD SWAP1 POP PUSH2 0x17D6 PUSH0 DUP4 ADD DUP5 PUSH2 0x17B4 JUMP JUMPDEST SWAP3 SWAP2 POP POP JUMP JUMPDEST PUSH0 DUP2 ISZERO ISZERO SWAP1 POP SWAP2 SWAP1 POP JUMP JUMPDEST PUSH2 0x17F0 DUP2 PUSH2 0x17DC JUMP JUMPDEST DUP2 EQ PUSH2 0x17FA JUMPI PUSH0 PUSH0 REVERT JUMPDEST POP JUMP JUMPDEST PUSH0 DUP2 CALLDATALOAD SWAP1 POP PUSH2 0x180B DUP2 PUSH2 0x17E7 JUMP JUMPDEST SWAP3 SWAP2 POP POP JUMP JUMPDEST PUSH0 PUSH0 PUSH1 0x40 DUP4 DUP6 SUB SLT ISZERO PUSH2 0x1827 JUMPI PUSH2 0x1826 PUSH2 0x15BC JUMP JUMPDEST JUMPDEST PUSH0 PUSH2 0x1834 DUP6 DUP3 DUP7 ADD PUSH2 0x16F0 JUMP JUMPDEST SWAP3 POP POP PUSH1 0x20 PUSH2 0x1845 DUP6 DUP3 DUP7 ADD PUSH2 0x17FD JUMP JUMPDEST SWAP2 POP POP SWAP3 POP SWAP3 SWAP1 POP JUMP JUMPDEST PUSH0 DUP2 MLOAD SWAP1 POP SWAP2 SWAP1 POP JUMP JUMPDEST PUSH0 DUP3 DUP3 MSTORE PUSH1 0x20 DUP3 ADD SWAP1 POP SWAP3 SWAP2 POP POP JUMP JUMPDEST PUSH0 DUP2 SWAP1 POP PUSH1 0x20 DUP3 ADD SWAP1 POP SWAP2 SWAP1 POP JUMP JUMPDEST PUSH2 0x1881 DUP2 PUSH2 0x15C0 JUMP JUMPDEST DUP3 MSTORE POP POP JUMP JUMPDEST PUSH0 PUSH2 0x1892 DUP4 DUP4 PUSH2 0x1878 JUMP JUMPDEST PUSH1 0x20 DUP4 ADD SWAP1 POP SWAP3 SWAP2 POP POP JUMP JUMPDEST PUSH0 PUSH1 0x20 DUP3 ADD SWAP1 POP SWAP2 SWAP1 POP JUMP JUMPDEST PUSH0 PUSH2 0x18B4 DUP3 PUSH2 0x184F JUMP JUMPDEST PUSH2 0x18BE DUP2 DUP6 PUSH2 0x1859 JUMP JUMPDEST SWAP4 POP PUSH2 0x18C9 DUP4 PUSH2 0x1869 JUMP JUMPDEST DUP1 PUSH0 JUMPDEST DUP4 DUP2 LT ISZERO PUSH2 0x18F9 JUMPI DUP2 MLOAD PUSH2 0x18E0 DUP9 DUP3 PUSH2 0x1887 JUMP JUMPDEST SWAP8 POP PUSH2 0x18EB DUP4 PUSH2 0x189E JUMP JUMPDEST SWAP3 POP POP PUSH1 0x1 DUP2 ADD SWAP1 POP PUSH2 0x18CC JUMP JUMPDEST POP DUP6 SWAP4 POP POP POP POP SWAP3 SWAP2 POP POP JUMP JUMPDEST PUSH0 PUSH1 0x20 DUP3 ADD SWAP1 POP DUP2 DUP2 SUB PUSH0 DUP4 ADD MSTORE PUSH2 0x191E DUP2 DUP5 PUSH2 0x18AA JUMP JUMPDEST SWAP1 POP SWAP3 SWAP2 POP POP JUMP JUMPDEST PUSH0 PUSH0 PUSH0 PUSH1 0x60 DUP5 DUP7 SUB SLT ISZERO PUSH2 0x193D JUMPI PUSH2 0x193C PUSH2 0x15BC JUMP JUMPDEST JUMPDEST PUSH0 PUSH2 0x194A DUP7 DUP3 DUP8 ADD PUSH2 0x15DF JUMP JUMPDEST SWAP4 POP POP PUSH1 0x20 PUSH2 0x195B DUP7 DUP3 DUP8 ADD PUSH2 0x15DF JUMP JUMPDEST SWAP3 POP POP PUSH1 0x40 PUSH2 0x196C DUP7 DUP3 DUP8 ADD PUSH2 0x15DF JUMP JUMPDEST SWAP2 POP POP SWAP3 POP SWAP3 POP SWAP3 JUMP JUMPDEST PUSH2 0x197F DUP2 PUSH2 0x16C9 JUMP JUMPDEST DUP3 MSTORE POP POP JUMP JUMPDEST PUSH0 PUSH1 0x20 DUP3 ADD SWAP1 POP PUSH2 0x1998 PUSH0 DUP4 ADD DUP5 PUSH2 0x1976 JUMP JUMPDEST SWAP3 SWAP2 POP POP JUMP JUMPDEST PUSH0 PUSH1 0x20 DUP3 DUP5 SUB SLT ISZERO PUSH2 0x19B3 JUMPI PUSH2 0x19B2 PUSH2 0x15BC JUMP JUMPDEST JUMPDEST PUSH0 PUSH2 0x19C0 DUP5 DUP3 DUP6 ADD PUSH2 0x15DF JUMP JUMPDEST SWAP2 POP POP SWAP3 SWAP2 POP POP JUMP JUMPDEST PUSH2 0x19D2 DUP2 PUSH2 0x17DC JUMP JUMPDEST DUP3 MSTORE POP POP JUMP JUMPDEST PUSH0 PUSH1 0xC0 DUP3 ADD SWAP1 POP PUSH2 0x19EB PUSH0 DUP4 ADD DUP10 PUSH2 0x1976 JUMP JUMPDEST PUSH2 0x19F8 PUSH1 0x20 DUP4 ADD DUP9 PUSH2 0x1631 JUMP JUMPDEST PUSH2 0x1A05 PUSH1 0x40 DUP4 ADD DUP8 PUSH2 0x1631 JUMP JUMPDEST PUSH2 0x1A12 PUSH1 0x60 DUP4 ADD DUP7 PUSH2 0x1631 JUMP JUMPDEST PUSH2 0x1A1F PUSH1 0x80 DUP4 ADD DUP6 PUSH2 0x1631 JUMP JUMPDEST PUSH2 0x1A2C PUSH1 0xA0 DUP4 ADD DUP5 PUSH2 0x19C9 JUMP JUMPDEST SWAP8 SWAP7 POP POP POP POP POP POP POP JUMP JUMPDEST PUSH0 DUP3 DUP3 MSTORE PUSH1 0x20 DUP3 ADD SWAP1 POP SWAP3 SWAP2 POP POP JUMP JUMPDEST PUSH32 0x4C697374696E6720696E61637469766500000000000000000000000000000000 PUSH0 DUP3 ADD MSTORE POP JUMP JUMPDEST PUSH0 PUSH2 0x1A7B PUSH1 0x10 DUP4 PUSH2 0x1A37 JUMP JUMPDEST SWAP2 POP PUSH2 0x1A86 DUP3 PUSH2 0x1A47 JUMP JUMPDEST PUSH1 0x20 DUP3 ADD SWAP1 POP SWAP2 SWAP1 POP JUMP JUMPDEST PUSH0 PUSH1 0x20 DUP3 ADD SWAP1 POP DUP2 DUP2 SUB PUSH0 DUP4 ADD MSTORE PUSH2 0x1AA8 DUP2 PUSH2 0x1A6F JUMP JUMPDEST SWAP1 POP SWAP2 SWAP1 POP JUMP JUMPDEST PUSH32 0x4E487B7100000000000000000000000000000000000000000000000000000000 PUSH0 MSTORE PUSH1 0x11 PUSH1 0x4 MSTORE PUSH1 0x24 PUSH0 REVERT JUMPDEST PUSH0 PUSH2 0x1AE6 DUP3 PUSH2 0x15C0 JUMP JUMPDEST SWAP2 POP PUSH2 0x1AF1 DUP4 PUSH2 0x15C0 JUMP JUMPDEST SWAP3 POP DUP3 DUP3 MUL PUSH2 0x1AFF DUP2 PUSH2 0x15C0 JUMP JUMPDEST SWAP2 POP DUP3 DUP3 DIV DUP5 EQ DUP4 ISZERO OR PUSH2 0x1B16 JUMPI PUSH2 0x1B15 PUSH2 0x1AAF JUMP JUMPDEST JUMPDEST POP SWAP3 SWAP2 POP POP JUMP JUMPDEST PUSH0 PUSH2 0x1B27 DUP3 PUSH2 0x15C0 JUMP JUMPDEST SWAP2 POP PUSH2 0x1B32 DUP4 PUSH2 0x15C0 JUMP JUMPDEST SWAP3 POP DUP3 DUP3 ADD SWAP1 POP DUP1 DUP3 GT ISZERO PUSH2 0x1B4A JUMPI PUSH2 0x1B49 PUSH2 0x1AAF JUMP JUMPDEST JUMPDEST SWAP3 SWAP2 POP POP JUMP JUMPDEST PUSH0 DUP2 MLOAD SWAP1 POP PUSH2 0x1B5E DUP2 PUSH2 0x15C9 JUMP JUMPDEST SWAP3 SWAP2 POP POP JUMP JUMPDEST PUSH0 PUSH1 0x20 DUP3 DUP5 SUB SLT ISZERO PUSH2 0x1B79 JUMPI PUSH2 0x1B78 PUSH2 0x15BC JUMP JUMPDEST JUMPDEST PUSH0 PUSH2 0x1B86 DUP5 DUP3 DUP6 ADD PUSH2 0x1B50 JUMP JUMPDEST SWAP2 POP POP SWAP3 SWAP2 POP POP JUMP JUMPDEST PUSH0 PUSH1 0x40 DUP3 ADD SWAP1 POP PUSH2 0x1BA2 PUSH0 DUP4 ADD DUP6 PUSH2 0x1976 JUMP JUMPDEST PUSH2 0x1BAF PUSH1 0x20 DUP4 ADD DUP5 PUSH2 0x19C9 JUMP JUMPDEST SWAP4 SWAP3 POP POP POP JUMP JUMPDEST PUSH32 0x46656520746F6F20686967680000000000000000000000000000000000000000 PUSH0 DUP3 ADD MSTORE POP JUMP JUMPDEST PUSH0 PUSH2 0x1BEA PUSH1 0xC DUP4 PUSH2 0x1A37 JUMP JUMPDEST SWAP2 POP PUSH2 0x1BF5 DUP3 PUSH2 0x1BB6 JUMP JUMPDEST PUSH1 0x20 DUP3 ADD SWAP1 POP SWAP2 SWAP1 POP JUMP JUMPDEST PUSH0 PUSH1 0x20 DUP3 ADD SWAP1 POP DUP2 DUP2 SUB PUSH0 DUP4 ADD MSTORE PUSH2 0x1C17 DUP2 PUSH2 0x1BDE JUMP JUMPDEST SWAP1 POP SWAP2 SWAP1 POP JUMP JUMPDEST PUSH0 PUSH1 0x40 DUP3 ADD SWAP1 POP PUSH2 0x1C31 PUSH0 DUP4 ADD DUP6 PUSH2 0x1631 JUMP JUMPDEST PUSH2 0x1C3E PUSH1 0x20 DUP4 ADD DUP5 PUSH2 0x1631 JUMP JUMPDEST SWAP4 SWAP3 POP POP POP JUMP JUMPDEST PUSH32 0x5072696365206D75737420626520706F73697469766500000000000000000000 PUSH0 DUP3 ADD MSTORE POP JUMP JUMPDEST PUSH0 PUSH2 0x1C79 PUSH1 0x16 DUP4 PUSH2 0x1A37 JUMP JUMPDEST SWAP2 POP PUSH2 0x1C84 DUP3 PUSH2 0x1C45 JUMP JUMPDEST PUSH1 0x20 DUP3 ADD SWAP1 POP SWAP2 SWAP1 POP JUMP JUMPDEST PUSH0 PUSH1 0x20 DUP3 ADD SWAP1 POP DUP2 DUP2 SUB PUSH0 DUP4 ADD MSTORE PUSH2 0x1CA6 DUP2 PUSH2 0x1C6D JUMP JUMPDEST SWAP1 POP SWAP2 SWAP1 POP JUMP JUMPDEST PUSH32 0x41726561206D75737420626520706F7369746976650000000000000000000000 PUSH0 DUP3 ADD MSTORE POP JUMP JUMPDEST PUSH0 PUSH2 0x1CE1 PUSH1 0x15 DUP4 PUSH2 0x1A37 JUMP JUMPDEST SWAP2 POP PUSH2 0x1CEC DUP3 PUSH2 0x1CAD JUMP JUMPDEST PUSH1 0x20 DUP3 ADD SWAP1 POP SWAP2 SWAP1 POP JUMP JUMPDEST PUSH0 PUSH1 0x20 DUP3 ADD SWAP1 POP DUP2 DUP2 SUB PUSH0 DUP4 ADD MSTORE PUSH2 0x1D0E DUP2 PUSH2 0x1CD5 JUMP JUMPDEST SWAP1 POP SWAP2 SWAP1 POP JUMP JUMPDEST PUSH0 PUSH1 0x40 DUP3 ADD SWAP1 POP PUSH2 0x1D28 PUSH0 DUP4 ADD DUP6 PUSH2 0x1976 JUMP JUMPDEST PUSH2 0x1D35 PUSH1 0x20 DUP4 ADD DUP5 PUSH2 0x1631 JUMP JUMPDEST SWAP4 SWAP3 POP POP POP JUMP JUMPDEST PUSH32 0x496E73756666696369656E742062616C616E6365000000000000000000000000 PUSH0 DUP3 ADD MSTORE POP JUMP JUMPDEST PUSH0 PUSH2 0x1D70 PUSH1 0x14 DUP4 PUSH2 0x1A37 JUMP JUMPDEST SWAP2 POP PUSH2 0x1D7B DUP3 PUSH2 0x1D3C JUMP JUMPDEST PUSH1 0x20 DUP3 ADD SWAP1 POP SWAP2 SWAP1 POP JUMP JUMPDEST PUSH0 PUSH1 0x20 DUP3 ADD SWAP1 POP DUP2 DUP2 SUB PUSH0 DUP4 ADD MSTORE PUSH2 0x1D9D DUP2 PUSH2 0x1D64 JUMP JUMPDEST SWAP1 POP SWAP2 SWAP1 POP JUMP JUMPDEST PUSH0 DUP3 DUP3 MSTORE PUSH1 0x20 DUP3 ADD SWAP1 POP SWAP3 SWAP2 POP POP JUMP JUMPDEST POP JUMP JUMPDEST PUSH0 PUSH2 0x1DC2 PUSH0 DUP4 PUSH2 0x1DA4 JUMP JUMPDEST SWAP2 POP PUSH2 0x1DCD DUP3 PUSH2 0x1DB4 JUMP JUMPDEST PUSH0 DUP3 ADD SWAP1 POP SWAP2 SWAP1 POP JUMP JUMPDEST PUSH0 PUSH1 0xA0 DUP3 ADD SWAP1 POP PUSH2 0x1DEA PUSH0 DUP4 ADD DUP8 PUSH2 0x1976 JUMP JUMPDEST PUSH2 0x1DF7 PUSH1 0x20 DUP4 ADD DUP7 PUSH2 0x1976 JUMP JUMPDEST PUSH2 0x1E04 PUSH1 0x40 DUP4 ADD DUP6 PUSH2 0x1631 JUMP JUMPDEST PUSH2 0x1E11 PUSH1 0x60 DUP4 ADD DUP5 PUSH2 0x1631 JUMP JUMPDEST DUP2 DUP2 SUB PUSH1 0x80 DUP4 ADD MSTORE PUSH2 0x1E22 DUP2 PUSH2 0x1DB7 JUMP JUMPDEST SWAP1 POP SWAP6 SWAP5 POP POP POP POP POP JUMP JUMPDEST PUSH0 DUP2 SWAP1 POP SWAP2 SWAP1 POP JUMP JUMPDEST PUSH2 0x1E47 PUSH2 0x1E42 DUP3 PUSH2 0x15C0 JUMP JUMPDEST PUSH2 0x1E2D JUMP JUMPDEST DUP3 MSTORE POP POP JUMP JUMPDEST PUSH0 DUP2 PUSH1 0x60 SHL SWAP1 POP SWAP2 SWAP1 POP JUMP JUMPDEST PUSH0 PUSH2 0x1E63 DUP3 PUSH2 0x1E4D JUMP JUMPDEST SWAP1 POP SWAP2 SWAP1 POP JUMP JUMPDEST PUSH0 PUSH2 0x1E74 DUP3 PUSH2 0x1E59 JUMP JUMPDEST SWAP1 POP SWAP2 SWAP1 POP JUMP JUMPDEST PUSH2 0x1E8C PUSH2 0x1E87 DUP3 PUSH2 0x16C9 JUMP JUMPDEST PUSH2 0x1E6A JUMP JUMPDEST DUP3 MSTORE POP POP JUMP JUMPDEST PUSH0 PUSH2 0x1E9D DUP3 DUP8 PUSH2 0x1E36 JUMP JUMPDEST PUSH1 0x20 DUP3 ADD SWAP2 POP PUSH2 0x1EAD DUP3 DUP7 PUSH2 0x1E7B JUMP JUMPDEST PUSH1 0x14 DUP3 ADD SWAP2 POP PUSH2 0x1EBD DUP3 DUP6 PUSH2 0x1E36 JUMP JUMPDEST PUSH1 0x20 DUP3 ADD SWAP2 POP PUSH2 0x1ECD DUP3 DUP5 PUSH2 0x1E36 JUMP JUMPDEST PUSH1 0x20 DUP3 ADD SWAP2 POP DUP2 SWAP1 POP SWAP6 SWAP5 POP POP POP POP POP JUMP JUMPDEST PUSH0 PUSH1 0x60 DUP3 ADD SWAP1 POP PUSH2 0x1EF2 PUSH0 DUP4 ADD DUP7 PUSH2 0x1631 JUMP JUMPDEST PUSH2 0x1EFF PUSH1 0x20 DUP4 ADD DUP6 PUSH2 0x1631 JUMP JUMPDEST PUSH2 0x1F0C PUSH1 0x40 DUP4 ADD DUP5 PUSH2 0x1631 JUMP JUMPDEST SWAP5 SWAP4 POP POP POP POP JUMP JUMPDEST PUSH32 0x41726561206578636565647320617661696C6162696C69747900000000000000 PUSH0 DUP3 ADD MSTORE POP JUMP JUMPDEST PUSH0 PUSH2 0x1F48 PUSH1 0x19 DUP4 PUSH2 0x1A37 JUMP JUMPDEST SWAP2 POP PUSH2 0x1F53 DUP3 PUSH2 0x1F14 JUMP JUMPDEST PUSH1 0x20 DUP3 ADD SWAP1 POP SWAP2 SWAP1 POP JUMP JUMPDEST PUSH0 PUSH1 0x20 DUP3 ADD SWAP1 POP DUP2 DUP2 SUB PUSH0 DUP4 ADD MSTORE PUSH2 0x1F75 DUP2 PUSH2 0x1F3C JUMP JUMPDEST SWAP1 POP SWAP2 SWAP1 POP JUMP JUMPDEST PUSH0 PUSH2 0x1F86 DUP3 PUSH2 0x15C0 JUMP JUMPDEST SWAP2 POP PUSH2 0x1F91 DUP4 PUSH2 0x15C0 JUMP JUMPDEST SWAP3 POP DUP3 DUP3 SUB SWAP1 POP DUP2 DUP2 GT ISZERO PUSH2 0x1FA9 JUMPI PUSH2 0x1FA8 PUSH2 0x1AAF JUMP JUMPDEST JUMPDEST SWAP3 SWAP2 POP POP JUMP JUMPDEST PUSH32 0x4E487B7100000000000000000000000000000000000000000000000000000000 PUSH0 MSTORE PUSH1 0x12 PUSH1 0x4 MSTORE PUSH1 0x24 PUSH0 REVERT JUMPDEST PUSH0 PUSH2 0x1FE6 DUP3 PUSH2 0x15C0 JUMP JUMPDEST SWAP2 POP PUSH2 0x1FF1 DUP4 PUSH2 0x15C0 JUMP JUMPDEST SWAP3 POP DUP3 PUSH2 0x2001 JUMPI PUSH2 0x2000 PUSH2 0x1FAF JUMP JUMPDEST JUMPDEST DUP3 DUP3 DIV SWAP1 POP SWAP3 SWAP2 POP POP JUMP JUMPDEST PUSH0 DUP2 MLOAD SWAP1 POP PUSH2 0x201A DUP2 PUSH2 0x17E7 JUMP JUMPDEST SWAP3 SWAP2 POP POP JUMP JUMPDEST PUSH0 PUSH1 0x20 DUP3 DUP5 SUB SLT ISZERO PUSH2 0x2035 JUMPI PUSH2 0x2034 PUSH2 0x15BC JUMP JUMPDEST JUMPDEST PUSH0 PUSH2 0x2042 DUP5 DUP3 DUP6 ADD PUSH2 0x200C JUMP JUMPDEST SWAP2 POP POP SWAP3 SWAP2 POP POP JUMP JUMPDEST PUSH32 0x5472616E73666572206661696C65640000000000000000000000000000000000 PUSH0 DUP3 ADD MSTORE POP JUMP JUMPDEST PUSH0 PUSH2 0x207F PUSH1 0xF DUP4 PUSH2 0x1A37 JUMP JUMPDEST SWAP2 POP PUSH2 0x208A DUP3 PUSH2 0x204B JUMP JUMPDEST PUSH1 0x20 DUP3 ADD SWAP1 POP SWAP2 SWAP1 POP JUMP JUMPDEST PUSH0 PUSH1 0x20 DUP3 ADD SWAP1 POP DUP2 DUP2 SUB PUSH0 DUP4 ADD MSTORE PUSH2 0x20AC DUP2 PUSH2 0x2073 JUMP JUMPDEST SWAP1 POP SWAP2 SWAP1 POP JUMP JUMPDEST PUSH32 0x5265656E7472616E637947756172643A207265656E7472616E742063616C6C00 PUSH0 DUP3 ADD MSTORE POP JUMP JUMPDEST PUSH0 PUSH2 0x20E7 PUSH1 0x1F DUP4 PUSH2 0x1A37 JUMP JUMPDEST SWAP2 POP PUSH2 0x20F2 DUP3 PUSH2 0x20B3 JUMP JUMPDEST PUSH1 0x20 DUP3 ADD SWAP1 POP SWAP2 SWAP1 POP JUMP JUMPDEST PUSH0 PUSH1 0x20 DUP3 ADD SWAP1 POP DUP2 DUP2 SUB PUSH0 DUP4 ADD MSTORE PUSH2 0x2114 DUP2 PUSH2 0x20DB JUMP JUMPDEST SWAP1 POP SWAP2 SWAP1 POP JUMP JUMPDEST PUSH0 PUSH1 0x60 DUP3 ADD SWAP1 POP PUSH2 0x212E PUSH0 DUP4 ADD DUP7 PUSH2 0x1976 JUMP JUMPDEST PUSH2 0x213B PUSH1 0x20 DUP4 ADD DUP6 PUSH2 0x1976 JUMP JUMPDEST PUSH2 0x2148 PUSH1 0x40 DUP4 ADD DUP5 PUSH2 0x1631 JUMP JUMPDEST SWAP5 SWAP4 POP POP POP POP JUMP JUMPDEST PUSH32 0x4E487B7100000000000000000000000000000000000000000000000000000000 PUSH0 MSTORE PUSH1 0x32 PUSH1 0x4 MSTORE PUSH1 0x24 PUSH0 REVERT JUMPDEST PUSH32 0x4E487B7100000000000000000000000000000000000000000000000000000000 PUSH0 MSTORE PUSH1 0x31 PUSH1 0x4 MSTORE PUSH1 0x24 PUSH0 REVERT INVALID LOG2 PUSH5 0x6970667358 0x22 SLT KECCAK256 JUMPF 0xB4F6 0xFC OR CREATE EXTDELEGATECALL SWAP14 0xAB PUSH5 0x8B7087AB64 0xB2 PUSH15 0x5BE7089176C93C245FF34DCD0A468F PUSH5 0x736F6C6343 STOP ADDMOD 0x1E STOP CALLER "
		},
		"gasEstimates": {
			"creation": {
				"codeDepositCost": "1734400",
				"executionCost": "infinite",
				"totalCost": "infinite"
			},
			"external": {
				"BPHTB_RATE()": "348",
				"PPH_RATE()": "371",
				"PPN_RATE()": "436",
				"acceptOwnership()": "54758",
				"buyProperty(uint256,uint256)": "infinite",
				"calculatePurchaseCost(uint256,uint256)": "infinite",
				"getActiveListings()": "infinite",
				"getListingDetails(uint256)": "infinite",
				"idrtToken()": "infinite",
				"listProperty(uint256,uint256,uint256)": "infinite",
				"listingFeePerSquare()": "2513",
				"owner()": "2581",
				"pendingOwner()": "2559",
				"propertyNFT()": "infinite",
				"renounceOwnership()": "infinite",
				"setDeveloperStatus(address,bool)": "infinite",
				"transactionFeeBPS()": "2447",
				"transferOwnership(address)": "infinite",
				"updateFees(uint256,uint256)": "infinite",
				"withdrawFees(address)": "infinite"
			},
			"internal": {
				"_calculateTransactionCosts(uint256,address)": "infinite",
				"_removeListing(uint256)": "infinite",
				"_safeTransfer(contract IERC20,address,uint256)": "infinite",
				"_safeTransferFrom(contract IERC20,address,address,uint256)": "infinite"
			}
		},
		"methodIdentifiers": {
			"BPHTB_RATE()": "52752c47",
			"PPH_RATE()": "078b9837",
			"PPN_RATE()": "ab593ff2",
			"acceptOwnership()": "79ba5097",
			"buyProperty(uint256,uint256)": "a772c927",
			"calculatePurchaseCost(uint256,uint256)": "033bab25",
			"getActiveListings()": "87c35bc0",
			"getListingDetails(uint256)": "fb05da2e",
			"idrtToken()": "4a213805",
			"listProperty(uint256,uint256,uint256)": "8cb40010",
			"listingFeePerSquare()": "f71b08c2",
			"owner()": "8da5cb5b",
			"pendingOwner()": "e30c3978",
			"propertyNFT()": "37f76838",
			"renounceOwnership()": "715018a6",
			"setDeveloperStatus(address,bool)": "5a19c201",
			"transactionFeeBPS()": "c5c92585",
			"transferOwnership(address)": "f2fde38b",
			"updateFees(uint256,uint256)": "6db79437",
			"withdrawFees(address)": "164e68de"
		}
	},
	"abi": [
		{
			"inputs": [
				{
					"internalType": "address",
					"name": "_propertyNFT",
					"type": "address"
				},
				{
					"internalType": "address",
					"name": "_idrtToken",
					"type": "address"
				}
			],
			"stateMutability": "nonpayable",
			"type": "constructor"
		},
		{
			"inputs": [
				{
					"internalType": "address",
					"name": "owner",
					"type": "address"
				}
			],
			"name": "OwnableInvalidOwner",
			"type": "error"
		},
		{
			"inputs": [
				{
					"internalType": "address",
					"name": "account",
					"type": "address"
				}
			],
			"name": "OwnableUnauthorizedAccount",
			"type": "error"
		},
		{
			"anonymous": false,
			"inputs": [
				{
					"indexed": false,
					"internalType": "address",
					"name": "developer",
					"type": "address"
				},
				{
					"indexed": false,
					"internalType": "bool",
					"name": "isVerified",
					"type": "bool"
				}
			],
			"name": "DeveloperStatusUpdated",
			"type": "event"
		},
		{
			"anonymous": false,
			"inputs": [
				{
					"indexed": false,
					"internalType": "uint256",
					"name": "newListingFee",
					"type": "uint256"
				},
				{
					"indexed": false,
					"internalType": "uint256",
					"name": "newTransactionFee",
					"type": "uint256"
				}
			],
			"name": "FeesUpdated",
			"type": "event"
		},
		{
			"anonymous": false,
			"inputs": [
				{
					"indexed": true,
					"internalType": "address",
					"name": "previousOwner",
					"type": "address"
				},
				{
					"indexed": true,
					"internalType": "address",
					"name": "newOwner",
					"type": "address"
				}
			],
			"name": "OwnershipTransferStarted",
			"type": "event"
		},
		{
			"anonymous": false,
			"inputs": [
				{
					"indexed": true,
					"internalType": "address",
					"name": "previousOwner",
					"type": "address"
				},
				{
					"indexed": true,
					"internalType": "address",
					"name": "newOwner",
					"type": "address"
				}
			],
			"name": "OwnershipTransferred",
			"type": "event"
		},
		{
			"anonymous": false,
			"inputs": [
				{
					"indexed": true,
					"internalType": "uint256",
					"name": "listingId",
					"type": "uint256"
				},
				{
					"indexed": true,
					"internalType": "address",
					"name": "seller",
					"type": "address"
				},
				{
					"indexed": false,
					"internalType": "uint256",
					"name": "propertyId",
					"type": "uint256"
				},
				{
					"indexed": false,
					"internalType": "uint256",
					"name": "pricePerSquare",
					"type": "uint256"
				},
				{
					"indexed": false,
					"internalType": "uint256",
					"name": "totalArea",
					"type": "uint256"
				}
			],
			"name": "PropertyListed",
			"type": "event"
		},
		{
			"anonymous": false,
			"inputs": [
				{
					"indexed": true,
					"internalType": "uint256",
					"name": "listingId",
					"type": "uint256"
				},
				{
					"indexed": true,
					"internalType": "address",
					"name": "buyer",
					"type": "address"
				},
				{
					"indexed": false,
					"internalType": "uint256",
					"name": "areaPurchased",
					"type": "uint256"
				},
				{
					"indexed": false,
					"internalType": "uint256",
					"name": "totalPrice",
					"type": "uint256"
				},
				{
					"indexed": false,
					"internalType": "uint256",
					"name": "fees",
					"type": "uint256"
				},
				{
					"indexed": false,
					"internalType": "uint256",
					"name": "taxes",
					"type": "uint256"
				},
				{
					"indexed": false,
					"internalType": "uint256",
					"name": "netToSeller",
					"type": "uint256"
				}
			],
			"name": "PropertySold",
			"type": "event"
		},
		{
			"inputs": [],
			"name": "BPHTB_RATE",
			"outputs": [
				{
					"internalType": "uint256",
					"name": "",
					"type": "uint256"
				}
			],
			"stateMutability": "view",
			"type": "function"
		},
		{
			"inputs": [],
			"name": "PPH_RATE",
			"outputs": [
				{
					"internalType": "uint256",
					"name": "",
					"type": "uint256"
				}
			],
			"stateMutability": "view",
			"type": "function"
		},
		{
			"inputs": [],
			"name": "PPN_RATE",
			"outputs": [
				{
					"internalType": "uint256",
					"name": "",
					"type": "uint256"
				}
			],
			"stateMutability": "view",
			"type": "function"
		},
		{
			"inputs": [],
			"name": "acceptOwnership",
			"outputs": [],
			"stateMutability": "nonpayable",
			"type": "function"
		},
		{
			"inputs": [
				{
					"internalType": "uint256",
					"name": "_listingId",
					"type": "uint256"
				},
				{
					"internalType": "uint256",
					"name": "_areaToBuy",
					"type": "uint256"
				}
			],
			"name": "buyProperty",
			"outputs": [],
			"stateMutability": "nonpayable",
			"type": "function"
		},
		{
			"inputs": [
				{
					"internalType": "uint256",
					"name": "_listingId",
					"type": "uint256"
				},
				{
					"internalType": "uint256",
					"name": "_areaToBuy",
					"type": "uint256"
				}
			],
			"name": "calculatePurchaseCost",
			"outputs": [
				{
					"internalType": "uint256",
					"name": "totalPrice",
					"type": "uint256"
				},
				{
					"internalType": "uint256",
					"name": "platformFee",
					"type": "uint256"
				},
				{
					"internalType": "uint256",
					"name": "taxes",
					"type": "uint256"
				},
				{
					"internalType": "uint256",
					"name": "netToSeller",
					"type": "uint256"
				},
				{
					"internalType": "uint256",
					"name": "totalCost",
					"type": "uint256"
				}
			],
			"stateMutability": "view",
			"type": "function"
		},
		{
			"inputs": [],
			"name": "getActiveListings",
			"outputs": [
				{
					"internalType": "uint256[]",
					"name": "",
					"type": "uint256[]"
				}
			],
			"stateMutability": "view",
			"type": "function"
		},
		{
			"inputs": [
				{
					"internalType": "uint256",
					"name": "_listingId",
					"type": "uint256"
				}
			],
			"name": "getListingDetails",
			"outputs": [
				{
					"internalType": "address",
					"name": "seller",
					"type": "address"
				},
				{
					"internalType": "uint256",
					"name": "propertyId",
					"type": "uint256"
				},
				{
					"internalType": "uint256",
					"name": "pricePerSquare",
					"type": "uint256"
				},
				{
					"internalType": "uint256",
					"name": "totalArea",
					"type": "uint256"
				},
				{
					"internalType": "uint256",
					"name": "availableArea",
					"type": "uint256"
				},
				{
					"internalType": "bool",
					"name": "isActive",
					"type": "bool"
				}
			],
			"stateMutability": "view",
			"type": "function"
		},
		{
			"inputs": [],
			"name": "idrtToken",
			"outputs": [
				{
					"internalType": "contract IERC20",
					"name": "",
					"type": "address"
				}
			],
			"stateMutability": "view",
			"type": "function"
		},
		{
			"inputs": [
				{
					"internalType": "uint256",
					"name": "_propertyId",
					"type": "uint256"
				},
				{
					"internalType": "uint256",
					"name": "_pricePerSquare",
					"type": "uint256"
				},
				{
					"internalType": "uint256",
					"name": "_totalArea",
					"type": "uint256"
				}
			],
			"name": "listProperty",
			"outputs": [],
			"stateMutability": "nonpayable",
			"type": "function"
		},
		{
			"inputs": [],
			"name": "listingFeePerSquare",
			"outputs": [
				{
					"internalType": "uint256",
					"name": "",
					"type": "uint256"
				}
			],
			"stateMutability": "view",
			"type": "function"
		},
		{
			"inputs": [],
			"name": "owner",
			"outputs": [
				{
					"internalType": "address",
					"name": "",
					"type": "address"
				}
			],
			"stateMutability": "view",
			"type": "function"
		},
		{
			"inputs": [],
			"name": "pendingOwner",
			"outputs": [
				{
					"internalType": "address",
					"name": "",
					"type": "address"
				}
			],
			"stateMutability": "view",
			"type": "function"
		},
		{
			"inputs": [],
			"name": "propertyNFT",
			"outputs": [
				{
					"internalType": "contract IERC1155",
					"name": "",
					"type": "address"
				}
			],
			"stateMutability": "view",
			"type": "function"
		},
		{
			"inputs": [],
			"name": "renounceOwnership",
			"outputs": [],
			"stateMutability": "nonpayable",
			"type": "function"
		},
		{
			"inputs": [
				{
					"internalType": "address",
					"name": "_developer",
					"type": "address"
				},
				{
					"internalType": "bool",
					"name": "_isVerified",
					"type": "bool"
				}
			],
			"name": "setDeveloperStatus",
			"outputs": [],
			"stateMutability": "nonpayable",
			"type": "function"
		},
		{
			"inputs": [],
			"name": "transactionFeeBPS",
			"outputs": [
				{
					"internalType": "uint256",
					"name": "",
					"type": "uint256"
				}
			],
			"stateMutability": "view",
			"type": "function"
		},
		{
			"inputs": [
				{
					"internalType": "address",
					"name": "newOwner",
					"type": "address"
				}
			],
			"name": "transferOwnership",
			"outputs": [],
			"stateMutability": "nonpayable",
			"type": "function"
		},
		{
			"inputs": [
				{
					"internalType": "uint256",
					"name": "_newListingFee",
					"type": "uint256"
				},
				{
					"internalType": "uint256",
					"name": "_newTransactionFee",
					"type": "uint256"
				}
			],
			"name": "updateFees",
			"outputs": [],
			"stateMutability": "nonpayable",
			"type": "function"
		},
		{
			"inputs": [
				{
					"internalType": "address",
					"name": "_recipient",
					"type": "address"
				}
			],
			"name": "withdrawFees",
			"outputs": [],
			"stateMutability": "nonpayable",
			"type": "function"
		}
	]
}