{
	"data": {
		"bytecode": {
			"linkReferences": {},
			"object": "608060405267016345785d8a000060075560c8600855348015610020575f5ffd5b506040516129f73803806129f78339818101604052810190610042919061050b565b600180819055505f73ffffffffffffffffffffffffffffffffffffffff168473ffffffffffffffffffffffffffffffffffffffff16036100b7576040517f08c379a00000000000000000000000000000000000000000000000000000000081526004016100ae906105c9565b60405180910390fd5b5f73ffffffffffffffffffffffffffffffffffffffff168373ffffffffffffffffffffffffffffffffffffffff1603610125576040517f08c379a000000000000000000000000000000000000000000000000000000000815260040161011c90610631565b60405180910390fd5b5f73ffffffffffffffffffffffffffffffffffffffff168273ffffffffffffffffffffffffffffffffffffffff1603610193576040517f08c379a000000000000000000000000000000000000000000000000000000000815260040161018a90610699565b60405180910390fd5b5f73ffffffffffffffffffffffffffffffffffffffff168173ffffffffffffffffffffffffffffffffffffffff1603610201576040517f08c379a00000000000000000000000000000000000000000000000000000000081526004016101f890610701565b60405180910390fd5b8360025f6101000a81548173ffffffffffffffffffffffffffffffffffffffff021916908373ffffffffffffffffffffffffffffffffffffffff1602179055508360035f6101000a81548173ffffffffffffffffffffffffffffffffffffffff021916908373ffffffffffffffffffffffffffffffffffffffff1602179055508260045f6101000a81548173ffffffffffffffffffffffffffffffffffffffff021916908373ffffffffffffffffffffffffffffffffffffffff1602179055508060055f6101000a81548173ffffffffffffffffffffffffffffffffffffffff021916908373ffffffffffffffffffffffffffffffffffffffff1602179055506103135f5f1b8361034e60201b60201c565b506103447fa49807205ce4d355092ef5a8a18f56e8913cf4a201fbe287825b095693c217758361034e60201b60201c565b505050505061071f565b5f61035f838361044360201b60201c565b6104395760015f5f8581526020019081526020015f205f015f8473ffffffffffffffffffffffffffffffffffffffff1673ffffffffffffffffffffffffffffffffffffffff1681526020019081526020015f205f6101000a81548160ff0219169083151502179055506103d66104a660201b60201c565b73ffffffffffffffffffffffffffffffffffffffff168273ffffffffffffffffffffffffffffffffffffffff16847f2f8788117e7eff1d82e926ec794901d17c78024a50270940304540a733656f0d60405160405180910390a46001905061043d565b5f90505b92915050565b5f5f5f8481526020019081526020015f205f015f8373ffffffffffffffffffffffffffffffffffffffff1673ffffffffffffffffffffffffffffffffffffffff1681526020019081526020015f205f9054906101000a900460ff16905092915050565b5f33905090565b5f5ffd5b5f73ffffffffffffffffffffffffffffffffffffffff82169050919050565b5f6104da826104b1565b9050919050565b6104ea816104d0565b81146104f4575f5ffd5b50565b5f81519050610505816104e1565b92915050565b5f5f5f5f60808587031215610523576105226104ad565b5b5f610530878288016104f7565b9450506020610541878288016104f7565b9350506040610552878288016104f7565b9250506060610563878288016104f7565b91505092959194509250565b5f82825260208201905092915050565b7f496e76616c696420746f6b656e000000000000000000000000000000000000005f82015250565b5f6105b3600d8361056f565b91506105be8261057f565b602082019050919050565b5f6020820190508181035f8301526105e0816105a7565b9050919050565b7f496e76616c696420737461626c650000000000000000000000000000000000005f82015250565b5f61061b600e8361056f565b9150610626826105e7565b602082019050919050565b5f6020820190508181035f8301526106488161060f565b9050919050565b7f496e76616c69642061646d696e000000000000000000000000000000000000005f82015250565b5f610683600d8361056f565b915061068e8261064f565b602082019050919050565b5f6020820190508181035f8301526106b081610677565b9050919050565b7f496e76616c69642066656520636f6c6c6563746f7200000000000000000000005f82015250565b5f6106eb60158361056f565b91506106f6826106b7565b602082019050919050565b5f6020820190508181035f830152610718816106df565b9050919050565b6122cb8061072c5f395ff3fe608060405234801561000f575f5ffd5b5060043610610171575f3560e01c806382855871116100dc578063aa2f892d11610095578063c58343ef1161006f578063c58343ef14610437578063d03cea6d1461046b578063d547741f14610489578063e85ba3e9146104a557610171565b8063aa2f892d146103cd578063b337cf74146103e9578063c415b95c1461041957610171565b8063828558711461030957806391d148541461032757806394002b5714610357578063a217fddf14610375578063a42dce8014610393578063a9d75b2b146103af57610171565b80633eb09ece1161012e5780633eb09ece1461024757806343114dde14610263578063539ffb77146102815780636a84a9851461029d5780637182e074146102bb57806375b238fc146102eb57610171565b806301ffc9a71461017557806309f6442c146101a5578063248a9ca3146101c35780632d02a5b2146101f35780632f2ff15d1461020f57806336568abe1461022b575b5f5ffd5b61018f600480360381019061018a9190611807565b6104d9565b60405161019c919061184c565b60405180910390f35b6101ad610552565b6040516101ba919061187d565b60405180910390f35b6101dd60048036038101906101d891906118c9565b610558565b6040516101ea9190611903565b60405180910390f35b61020d60048036038101906102089190611946565b610574565b005b610229600480360381019061022491906119cb565b610622565b005b610245600480360381019061024091906119cb565b610644565b005b610261600480360381019061025c9190611946565b6106bf565b005b61026b61086e565b604051610278919061187d565b60405180910390f35b61029b60048036038101906102969190611946565b610874565b005b6102a5610a59565b6040516102b2919061187d565b60405180910390f35b6102d560048036038101906102d09190611a09565b610a5f565b6040516102e2919061187d565b60405180910390f35b6102f3610a8a565b6040516103009190611903565b60405180910390f35b610311610aae565b60405161031e919061187d565b60405180910390f35b610341600480360381019061033c91906119cb565b610ab4565b60405161034e919061184c565b60405180910390f35b61035f610b17565b60405161036c9190611aa2565b60405180910390f35b61037d610b3c565b60405161038a9190611903565b60405180910390f35b6103ad60048036038101906103a89190611abb565b610b42565b005b6103b7610c55565b6040516103c49190611aa2565b60405180910390f35b6103e760048036038101906103e29190611946565b610c7a565b005b61040360048036038101906103fe9190611abb565b611147565b6040516104109190611b9d565b60405180910390f35b6104216111da565b60405161042e9190611bcc565b60405180910390f35b610451600480360381019061044c9190611946565b6111ff565b604051610462959493929190611c58565b60405180910390f35b61047361126f565b6040516104809190611cc9565b60405180910390f35b6104a3600480360381019061049e91906119cb565b611294565b005b6104bf60048036038101906104ba9190611946565b6112b6565b6040516104d0959493929190611c58565b60405180910390f35b5f7f7965db0b000000000000000000000000000000000000000000000000000000007bffffffffffffffffffffffffffffffffffffffffffffffffffffffff1916827bffffffffffffffffffffffffffffffffffffffffffffffffffffffff1916148061054b575061054a82611313565b5b9050919050565b60085481565b5f5f5f8381526020019081526020015f20600101549050919050565b7fa49807205ce4d355092ef5a8a18f56e8913cf4a201fbe287825b095693c2177561059e8161137c565b5f82116105e0576040517f08c379a00000000000000000000000000000000000000000000000000000000081526004016105d790611d3c565b60405180910390fd5b816009819055507f2e600c03582901c1ea47c71f804aa91a8f85e256d3e66cd2fe327144e684f75a82604051610616919061187d565b60405180910390a15050565b61062b82610558565b6106348161137c565b61063e8383611390565b50505050565b61064c611479565b73ffffffffffffffffffffffffffffffffffffffff168173ffffffffffffffffffffffffffffffffffffffff16146106b0576040517f6697b23200000000000000000000000000000000000000000000000000000000815260040160405180910390fd5b6106ba8282611480565b505050565b7fa49807205ce4d355092ef5a8a18f56e8913cf4a201fbe287825b095693c217756106e98161137c565b6106f1611569565b5f600a5f8481526020019081526020015f2090505f600281111561071857610717611be5565b5b816004015f9054906101000a900460ff16600281111561073b5761073a611be5565b5b1461077b576040517f08c379a000000000000000000000000000000000000000000000000000000000815260040161077290611da4565b60405180910390fd5b6001816004015f6101000a81548160ff021916908360028111156107a2576107a1611be5565b5b021790555060035f9054906101000a900473ffffffffffffffffffffffffffffffffffffffff1673ffffffffffffffffffffffffffffffffffffffff16631c83ba4a3083600101546040518363ffffffff1660e01b8152600401610807929190611dc2565b5f604051808303815f87803b15801561081e575f5ffd5b505af1158015610830573d5f5f3e3d5ffd5b50505050827f8d2e85c49e42f77fccace7ccb31d848be4431adeb1fb4165eb8d716c92829c6e60405160405180910390a25061086a6115b8565b5050565b60095481565b61087c611569565b5f600a5f8381526020019081526020015f2090503373ffffffffffffffffffffffffffffffffffffffff16815f015f9054906101000a900473ffffffffffffffffffffffffffffffffffffffff1673ffffffffffffffffffffffffffffffffffffffff1614610920576040517f08c379a000000000000000000000000000000000000000000000000000000000815260040161091790611e33565b60405180910390fd5b5f600281111561093357610932611be5565b5b816004015f9054906101000a900460ff16600281111561095657610955611be5565b5b14610996576040517f08c379a000000000000000000000000000000000000000000000000000000000815260040161098d90611e9b565b60405180910390fd5b5f816001015490506002826004015f6101000a81548160ff021916908360028111156109c5576109c4611be5565b5b02179055505f8260010181905550610a1f338260025f9054906101000a900473ffffffffffffffffffffffffffffffffffffffff1673ffffffffffffffffffffffffffffffffffffffff166115c19092919063ffffffff16565b827fbdfc27b52926217650cc98869c02f50f77cb20403015b3cbab786b508289c24760405160405180910390a25050610a566115b8565b50565b60065481565b600b602052815f5260405f208181548110610a78575f80fd5b905f5260205f20015f91509150505481565b7fa49807205ce4d355092ef5a8a18f56e8913cf4a201fbe287825b095693c2177581565b60075481565b5f5f5f8481526020019081526020015f205f015f8373ffffffffffffffffffffffffffffffffffffffff1673ffffffffffffffffffffffffffffffffffffffff1681526020019081526020015f205f9054906101000a900460ff16905092915050565b60025f9054906101000a900473ffffffffffffffffffffffffffffffffffffffff1681565b5f5f1b81565b7fa49807205ce4d355092ef5a8a18f56e8913cf4a201fbe287825b095693c21775610b6c8161137c565b5f73ffffffffffffffffffffffffffffffffffffffff168273ffffffffffffffffffffffffffffffffffffffff1603610bda576040517f08c379a0000000000000000000000000000000000000000000000000000000008152600401610bd190611f03565b60405180910390fd5b8160055f6101000a81548173ffffffffffffffffffffffffffffffffffffffff021916908373ffffffffffffffffffffffffffffffffffffffff1602179055507f9c1996a14d26c3ecd833c10222d012447ef07b09b15000f3a34318ff039c0bdc82604051610c499190611bcc565b60405180910390a15050565b60045f9054906101000a900473ffffffffffffffffffffffffffffffffffffffff1681565b610c82611569565b600754811015610cc7576040517f08c379a0000000000000000000000000000000000000000000000000000000008152600401610cbe90611f6b565b60405180910390fd5b8060025f9054906101000a900473ffffffffffffffffffffffffffffffffffffffff1673ffffffffffffffffffffffffffffffffffffffff166370a08231336040518263ffffffff1660e01b8152600401610d229190611bcc565b602060405180830381865afa158015610d3d573d5f5f3e3d5ffd5b505050506040513d601f19601f82011682018060405250810190610d619190611f9d565b1015610da2576040517f08c379a0000000000000000000000000000000000000000000000000000000008152600401610d9990612012565b60405180910390fd5b5f612710670de0b6b3a764000060085460095485610dc0919061205d565b610dca919061205d565b610dd491906120cb565b610dde91906120cb565b90508060045f9054906101000a900473ffffffffffffffffffffffffffffffffffffffff1673ffffffffffffffffffffffffffffffffffffffff166370a08231336040518263ffffffff1660e01b8152600401610e3b9190611bcc565b602060405180830381865afa158015610e56573d5f5f3e3d5ffd5b505050506040513d601f19601f82011682018060405250810190610e7a9190611f9d565b1015610ebb576040517f08c379a0000000000000000000000000000000000000000000000000000000008152600401610eb290612145565b60405180910390fd5b610f0933308460025f9054906101000a900473ffffffffffffffffffffffffffffffffffffffff1673ffffffffffffffffffffffffffffffffffffffff16611640909392919063ffffffff16565b610f783360055f9054906101000a900473ffffffffffffffffffffffffffffffffffffffff168360045f9054906101000a900473ffffffffffffffffffffffffffffffffffffffff1673ffffffffffffffffffffffffffffffffffffffff16611640909392919063ffffffff16565b6040518060a001604052803373ffffffffffffffffffffffffffffffffffffffff1681526020018381526020014281526020018281526020015f6002811115610fc457610fc3611be5565b5b815250600a5f60065481526020019081526020015f205f820151815f015f6101000a81548173ffffffffffffffffffffffffffffffffffffffff021916908373ffffffffffffffffffffffffffffffffffffffff1602179055506020820151816001015560408201518160020155606082015181600301556080820151816004015f6101000a81548160ff0219169083600281111561106657611065611be5565b5b0217905550905050600b5f3373ffffffffffffffffffffffffffffffffffffffff1673ffffffffffffffffffffffffffffffffffffffff1681526020019081526020015f20600654908060018154018082558091505060019003905f5260205f20015f90919091909150553373ffffffffffffffffffffffffffffffffffffffff166006547fae09cbeb07a07670027e7723cc1f8e599e56bcb401bd5c58f6d9a87b99789eb9848460405161111c929190612163565b60405180910390a360065f8154809291906111369061218a565b9190505550506111446115b8565b50565b6060600b5f8373ffffffffffffffffffffffffffffffffffffffff1673ffffffffffffffffffffffffffffffffffffffff1681526020019081526020015f208054806020026020016040519081016040528092919081815260200182805480156111ce57602002820191905f5260205f20905b8154815260200190600101908083116111ba575b50505050509050919050565b60055f9054906101000a900473ffffffffffffffffffffffffffffffffffffffff1681565b5f5f5f5f5f5f600a5f8881526020019081526020015f209050805f015f9054906101000a900473ffffffffffffffffffffffffffffffffffffffff16816001015482600201548360030154846004015f9054906101000a900460ff16955095509550955095505091939590929450565b60035f9054906101000a900473ffffffffffffffffffffffffffffffffffffffff1681565b61129d82610558565b6112a68161137c565b6112b08383611480565b50505050565b600a602052805f5260405f205f91509050805f015f9054906101000a900473ffffffffffffffffffffffffffffffffffffffff1690806001015490806002015490806003015490806004015f9054906101000a900460ff16905085565b5f7f01ffc9a7000000000000000000000000000000000000000000000000000000007bffffffffffffffffffffffffffffffffffffffffffffffffffffffff1916827bffffffffffffffffffffffffffffffffffffffffffffffffffffffff1916149050919050565b61138d81611388611479565b6116c2565b50565b5f61139b8383610ab4565b61146f5760015f5f8581526020019081526020015f205f015f8473ffffffffffffffffffffffffffffffffffffffff1673ffffffffffffffffffffffffffffffffffffffff1681526020019081526020015f205f6101000a81548160ff02191690831515021790555061140c611479565b73ffffffffffffffffffffffffffffffffffffffff168273ffffffffffffffffffffffffffffffffffffffff16847f2f8788117e7eff1d82e926ec794901d17c78024a50270940304540a733656f0d60405160405180910390a460019050611473565b5f90505b92915050565b5f33905090565b5f61148b8383610ab4565b1561155f575f5f5f8581526020019081526020015f205f015f8473ffffffffffffffffffffffffffffffffffffffff1673ffffffffffffffffffffffffffffffffffffffff1681526020019081526020015f205f6101000a81548160ff0219169083151502179055506114fc611479565b73ffffffffffffffffffffffffffffffffffffffff168273ffffffffffffffffffffffffffffffffffffffff16847ff6391f5c32d9c69d2a47ea670b442974b53935d1edc7fd64eb21e047a839171b60405160405180910390a460019050611563565b5f90505b92915050565b6002600154036115ae576040517f08c379a00000000000000000000000000000000000000000000000000000000081526004016115a59061221b565b60405180910390fd5b6002600181905550565b60018081905550565b61163b838473ffffffffffffffffffffffffffffffffffffffff1663a9059cbb85856040516024016115f4929190611dc2565b604051602081830303815290604052915060e01b6020820180517bffffffffffffffffffffffffffffffffffffffffffffffffffffffff8381831617835250505050611713565b505050565b6116bc848573ffffffffffffffffffffffffffffffffffffffff166323b872dd86868660405160240161167593929190612239565b604051602081830303815290604052915060e01b6020820180517bffffffffffffffffffffffffffffffffffffffffffffffffffffffff8381831617835250505050611713565b50505050565b6116cc8282610ab4565b61170f5780826040517fe2517d3f00000000000000000000000000000000000000000000000000000000815260040161170692919061226e565b60405180910390fd5b5050565b5f5f60205f8451602086015f885af180611732576040513d5f823e3d81fd5b3d92505f519150505f821461174b576001811415611766565b5f8473ffffffffffffffffffffffffffffffffffffffff163b145b156117a857836040517f5274afe700000000000000000000000000000000000000000000000000000000815260040161179f9190611bcc565b60405180910390fd5b50505050565b5f5ffd5b5f7fffffffff0000000000000000000000000000000000000000000000000000000082169050919050565b6117e6816117b2565b81146117f0575f5ffd5b50565b5f81359050611801816117dd565b92915050565b5f6020828403121561181c5761181b6117ae565b5b5f611829848285016117f3565b91505092915050565b5f8115159050919050565b61184681611832565b82525050565b5f60208201905061185f5f83018461183d565b92915050565b5f819050919050565b61187781611865565b82525050565b5f6020820190506118905f83018461186e565b92915050565b5f819050919050565b6118a881611896565b81146118b2575f5ffd5b50565b5f813590506118c38161189f565b92915050565b5f602082840312156118de576118dd6117ae565b5b5f6118eb848285016118b5565b91505092915050565b6118fd81611896565b82525050565b5f6020820190506119165f8301846118f4565b92915050565b61192581611865565b811461192f575f5ffd5b50565b5f813590506119408161191c565b92915050565b5f6020828403121561195b5761195a6117ae565b5b5f61196884828501611932565b91505092915050565b5f73ffffffffffffffffffffffffffffffffffffffff82169050919050565b5f61199a82611971565b9050919050565b6119aa81611990565b81146119b4575f5ffd5b50565b5f813590506119c5816119a1565b92915050565b5f5f604083850312156119e1576119e06117ae565b5b5f6119ee858286016118b5565b92505060206119ff858286016119b7565b9150509250929050565b5f5f60408385031215611a1f57611a1e6117ae565b5b5f611a2c858286016119b7565b9250506020611a3d85828601611932565b9150509250929050565b5f819050919050565b5f611a6a611a65611a6084611971565b611a47565b611971565b9050919050565b5f611a7b82611a50565b9050919050565b5f611a8c82611a71565b9050919050565b611a9c81611a82565b82525050565b5f602082019050611ab55f830184611a93565b92915050565b5f60208284031215611ad057611acf6117ae565b5b5f611add848285016119b7565b91505092915050565b5f81519050919050565b5f82825260208201905092915050565b5f819050602082019050919050565b611b1881611865565b82525050565b5f611b298383611b0f565b60208301905092915050565b5f602082019050919050565b5f611b4b82611ae6565b611b558185611af0565b9350611b6083611b00565b805f5b83811015611b90578151611b778882611b1e565b9750611b8283611b35565b925050600181019050611b63565b5085935050505092915050565b5f6020820190508181035f830152611bb58184611b41565b905092915050565b611bc681611990565b82525050565b5f602082019050611bdf5f830184611bbd565b92915050565b7f4e487b71000000000000000000000000000000000000000000000000000000005f52602160045260245ffd5b60038110611c2357611c22611be5565b5b50565b5f819050611c3382611c12565b919050565b5f611c4282611c26565b9050919050565b611c5281611c38565b82525050565b5f60a082019050611c6b5f830188611bbd565b611c78602083018761186e565b611c85604083018661186e565b611c92606083018561186e565b611c9f6080830184611c49565b9695505050505050565b5f611cb382611a71565b9050919050565b611cc381611ca9565b82525050565b5f602082019050611cdc5f830184611cba565b92915050565b5f82825260208201905092915050565b7f496e76616c6964207072696365000000000000000000000000000000000000005f82015250565b5f611d26600d83611ce2565b9150611d3182611cf2565b602082019050919050565b5f6020820190508181035f830152611d5381611d1a565b9050919050565b7f496e76616c6964207374617475730000000000000000000000000000000000005f82015250565b5f611d8e600e83611ce2565b9150611d9982611d5a565b602082019050919050565b5f6020820190508181035f830152611dbb81611d82565b9050919050565b5f604082019050611dd55f830185611bbd565b611de2602083018461186e565b9392505050565b7f4e6f7420796f75722072657175657374000000000000000000000000000000005f82015250565b5f611e1d601083611ce2565b9150611e2882611de9565b602082019050919050565b5f6020820190508181035f830152611e4a81611e11565b9050919050565b7f43616e6e6f742063616e63656c000000000000000000000000000000000000005f82015250565b5f611e85600d83611ce2565b9150611e9082611e51565b602082019050919050565b5f6020820190508181035f830152611eb281611e79565b9050919050565b7f496e76616c6964206164647265737300000000000000000000000000000000005f82015250565b5f611eed600f83611ce2565b9150611ef882611eb9565b602082019050919050565b5f6020820190508181035f830152611f1a81611ee1565b9050919050565b7f4d696e2072656465656d20697320302e31206772616d000000000000000000005f82015250565b5f611f55601683611ce2565b9150611f6082611f21565b602082019050919050565b5f6020820190508181035f830152611f8281611f49565b9050919050565b5f81519050611f978161191c565b92915050565b5f60208284031215611fb257611fb16117ae565b5b5f611fbf84828501611f89565b91505092915050565b7f496e73756666696369656e742062616c616e63650000000000000000000000005f82015250565b5f611ffc601483611ce2565b915061200782611fc8565b602082019050919050565b5f6020820190508181035f83015261202981611ff0565b9050919050565b7f4e487b71000000000000000000000000000000000000000000000000000000005f52601160045260245ffd5b5f61206782611865565b915061207283611865565b925082820261208081611865565b9150828204841483151761209757612096612030565b5b5092915050565b7f4e487b71000000000000000000000000000000000000000000000000000000005f52601260045260245ffd5b5f6120d582611865565b91506120e083611865565b9250826120f0576120ef61209e565b5b828204905092915050565b7f496e73756666696369656e7420737461626c652062616c616e636500000000005f82015250565b5f61212f601b83611ce2565b915061213a826120fb565b602082019050919050565b5f6020820190508181035f83015261215c81612123565b9050919050565b5f6040820190506121765f83018561186e565b612183602083018461186e565b9392505050565b5f61219482611865565b91507fffffffffffffffffffffffffffffffffffffffffffffffffffffffffffffffff82036121c6576121c5612030565b5b600182019050919050565b7f5265656e7472616e637947756172643a207265656e7472616e742063616c6c005f82015250565b5f612205601f83611ce2565b9150612210826121d1565b602082019050919050565b5f6020820190508181035f830152612232816121f9565b9050919050565b5f60608201905061224c5f830186611bbd565b6122596020830185611bbd565b612266604083018461186e565b949350505050565b5f6040820190506122815f830185611bbd565b61228e60208301846118f4565b939250505056fea2646970667358221220448195ab930fb6cefe8a577f72d4aa2623101f340adeaec8fb55a6b8a2bfee9464736f6c634300081e0033",
			"opcodes": "PUSH1 0x80 PUSH1 0x40 MSTORE PUSH8 0x16345785D8A0000 PUSH1 0x7 SSTORE PUSH1 0xC8 PUSH1 0x8 SSTORE CALLVALUE DUP1 ISZERO PUSH2 0x20 JUMPI PUSH0 PUSH0 REVERT JUMPDEST POP PUSH1 0x40 MLOAD PUSH2 0x29F7 CODESIZE SUB DUP1 PUSH2 0x29F7 DUP4 CODECOPY DUP2 DUP2 ADD PUSH1 0x40 MSTORE DUP2 ADD SWAP1 PUSH2 0x42 SWAP2 SWAP1 PUSH2 0x50B JUMP JUMPDEST PUSH1 0x1 DUP1 DUP2 SWAP1 SSTORE POP PUSH0 PUSH20 0xFFFFFFFFFFFFFFFFFFFFFFFFFFFFFFFFFFFFFFFF AND DUP5 PUSH20 0xFFFFFFFFFFFFFFFFFFFFFFFFFFFFFFFFFFFFFFFF AND SUB PUSH2 0xB7 JUMPI PUSH1 0x40 MLOAD PUSH32 0x8C379A000000000000000000000000000000000000000000000000000000000 DUP2 MSTORE PUSH1 0x4 ADD PUSH2 0xAE SWAP1 PUSH2 0x5C9 JUMP JUMPDEST PUSH1 0x40 MLOAD DUP1 SWAP2 SUB SWAP1 REVERT JUMPDEST PUSH0 PUSH20 0xFFFFFFFFFFFFFFFFFFFFFFFFFFFFFFFFFFFFFFFF AND DUP4 PUSH20 0xFFFFFFFFFFFFFFFFFFFFFFFFFFFFFFFFFFFFFFFF AND SUB PUSH2 0x125 JUMPI PUSH1 0x40 MLOAD PUSH32 0x8C379A000000000000000000000000000000000000000000000000000000000 DUP2 MSTORE PUSH1 0x4 ADD PUSH2 0x11C SWAP1 PUSH2 0x631 JUMP JUMPDEST PUSH1 0x40 MLOAD DUP1 SWAP2 SUB SWAP1 REVERT JUMPDEST PUSH0 PUSH20 0xFFFFFFFFFFFFFFFFFFFFFFFFFFFFFFFFFFFFFFFF AND DUP3 PUSH20 0xFFFFFFFFFFFFFFFFFFFFFFFFFFFFFFFFFFFFFFFF AND SUB PUSH2 0x193 JUMPI PUSH1 0x40 MLOAD PUSH32 0x8C379A000000000000000000000000000000000000000000000000000000000 DUP2 MSTORE PUSH1 0x4 ADD PUSH2 0x18A SWAP1 PUSH2 0x699 JUMP JUMPDEST PUSH1 0x40 MLOAD DUP1 SWAP2 SUB SWAP1 REVERT JUMPDEST PUSH0 PUSH20 0xFFFFFFFFFFFFFFFFFFFFFFFFFFFFFFFFFFFFFFFF AND DUP2 PUSH20 0xFFFFFFFFFFFFFFFFFFFFFFFFFFFFFFFFFFFFFFFF AND SUB PUSH2 0x201 JUMPI PUSH1 0x40 MLOAD PUSH32 0x8C379A000000000000000000000000000000000000000000000000000000000 DUP2 MSTORE PUSH1 0x4 ADD PUSH2 0x1F8 SWAP1 PUSH2 0x701 JUMP JUMPDEST PUSH1 0x40 MLOAD DUP1 SWAP2 SUB SWAP1 REVERT JUMPDEST DUP4 PUSH1 0x2 PUSH0 PUSH2 0x100 EXP DUP2 SLOAD DUP2 PUSH20 0xFFFFFFFFFFFFFFFFFFFFFFFFFFFFFFFFFFFFFFFF MUL NOT AND SWAP1 DUP4 PUSH20 0xFFFFFFFFFFFFFFFFFFFFFFFFFFFFFFFFFFFFFFFF AND MUL OR SWAP1 SSTORE POP DUP4 PUSH1 0x3 PUSH0 PUSH2 0x100 EXP DUP2 SLOAD DUP2 PUSH20 0xFFFFFFFFFFFFFFFFFFFFFFFFFFFFFFFFFFFFFFFF MUL NOT AND SWAP1 DUP4 PUSH20 0xFFFFFFFFFFFFFFFFFFFFFFFFFFFFFFFFFFFFFFFF AND MUL OR SWAP1 SSTORE POP DUP3 PUSH1 0x4 PUSH0 PUSH2 0x100 EXP DUP2 SLOAD DUP2 PUSH20 0xFFFFFFFFFFFFFFFFFFFFFFFFFFFFFFFFFFFFFFFF MUL NOT AND SWAP1 DUP4 PUSH20 0xFFFFFFFFFFFFFFFFFFFFFFFFFFFFFFFFFFFFFFFF AND MUL OR SWAP1 SSTORE POP DUP1 PUSH1 0x5 PUSH0 PUSH2 0x100 EXP DUP2 SLOAD DUP2 PUSH20 0xFFFFFFFFFFFFFFFFFFFFFFFFFFFFFFFFFFFFFFFF MUL NOT AND SWAP1 DUP4 PUSH20 0xFFFFFFFFFFFFFFFFFFFFFFFFFFFFFFFFFFFFFFFF AND MUL OR SWAP1 SSTORE POP PUSH2 0x313 PUSH0 PUSH0 SHL DUP4 PUSH2 0x34E PUSH1 0x20 SHL PUSH1 0x20 SHR JUMP JUMPDEST POP PUSH2 0x344 PUSH32 0xA49807205CE4D355092EF5A8A18F56E8913CF4A201FBE287825B095693C21775 DUP4 PUSH2 0x34E PUSH1 0x20 SHL PUSH1 0x20 SHR JUMP JUMPDEST POP POP POP POP POP PUSH2 0x71F JUMP JUMPDEST PUSH0 PUSH2 0x35F DUP4 DUP4 PUSH2 0x443 PUSH1 0x20 SHL PUSH1 0x20 SHR JUMP JUMPDEST PUSH2 0x439 JUMPI PUSH1 0x1 PUSH0 PUSH0 DUP6 DUP2 MSTORE PUSH1 0x20 ADD SWAP1 DUP2 MSTORE PUSH1 0x20 ADD PUSH0 KECCAK256 PUSH0 ADD PUSH0 DUP5 PUSH20 0xFFFFFFFFFFFFFFFFFFFFFFFFFFFFFFFFFFFFFFFF AND PUSH20 0xFFFFFFFFFFFFFFFFFFFFFFFFFFFFFFFFFFFFFFFF AND DUP2 MSTORE PUSH1 0x20 ADD SWAP1 DUP2 MSTORE PUSH1 0x20 ADD PUSH0 KECCAK256 PUSH0 PUSH2 0x100 EXP DUP2 SLOAD DUP2 PUSH1 0xFF MUL NOT AND SWAP1 DUP4 ISZERO ISZERO MUL OR SWAP1 SSTORE POP PUSH2 0x3D6 PUSH2 0x4A6 PUSH1 0x20 SHL PUSH1 0x20 SHR JUMP JUMPDEST PUSH20 0xFFFFFFFFFFFFFFFFFFFFFFFFFFFFFFFFFFFFFFFF AND DUP3 PUSH20 0xFFFFFFFFFFFFFFFFFFFFFFFFFFFFFFFFFFFFFFFF AND DUP5 PUSH32 0x2F8788117E7EFF1D82E926EC794901D17C78024A50270940304540A733656F0D PUSH1 0x40 MLOAD PUSH1 0x40 MLOAD DUP1 SWAP2 SUB SWAP1 LOG4 PUSH1 0x1 SWAP1 POP PUSH2 0x43D JUMP JUMPDEST PUSH0 SWAP1 POP JUMPDEST SWAP3 SWAP2 POP POP JUMP JUMPDEST PUSH0 PUSH0 PUSH0 DUP5 DUP2 MSTORE PUSH1 0x20 ADD SWAP1 DUP2 MSTORE PUSH1 0x20 ADD PUSH0 KECCAK256 PUSH0 ADD PUSH0 DUP4 PUSH20 0xFFFFFFFFFFFFFFFFFFFFFFFFFFFFFFFFFFFFFFFF AND PUSH20 0xFFFFFFFFFFFFFFFFFFFFFFFFFFFFFFFFFFFFFFFF AND DUP2 MSTORE PUSH1 0x20 ADD SWAP1 DUP2 MSTORE PUSH1 0x20 ADD PUSH0 KECCAK256 PUSH0 SWAP1 SLOAD SWAP1 PUSH2 0x100 EXP SWAP1 DIV PUSH1 0xFF AND SWAP1 POP SWAP3 SWAP2 POP POP JUMP JUMPDEST PUSH0 CALLER SWAP1 POP SWAP1 JUMP JUMPDEST PUSH0 PUSH0 REVERT JUMPDEST PUSH0 PUSH20 0xFFFFFFFFFFFFFFFFFFFFFFFFFFFFFFFFFFFFFFFF DUP3 AND SWAP1 POP SWAP2 SWAP1 POP JUMP JUMPDEST PUSH0 PUSH2 0x4DA DUP3 PUSH2 0x4B1 JUMP JUMPDEST SWAP1 POP SWAP2 SWAP1 POP JUMP JUMPDEST PUSH2 0x4EA DUP2 PUSH2 0x4D0 JUMP JUMPDEST DUP2 EQ PUSH2 0x4F4 JUMPI PUSH0 PUSH0 REVERT JUMPDEST POP JUMP JUMPDEST PUSH0 DUP2 MLOAD SWAP1 POP PUSH2 0x505 DUP2 PUSH2 0x4E1 JUMP JUMPDEST SWAP3 SWAP2 POP POP JUMP JUMPDEST PUSH0 PUSH0 PUSH0 PUSH0 PUSH1 0x80 DUP6 DUP8 SUB SLT ISZERO PUSH2 0x523 JUMPI PUSH2 0x522 PUSH2 0x4AD JUMP JUMPDEST JUMPDEST PUSH0 PUSH2 0x530 DUP8 DUP3 DUP9 ADD PUSH2 0x4F7 JUMP JUMPDEST SWAP5 POP POP PUSH1 0x20 PUSH2 0x541 DUP8 DUP3 DUP9 ADD PUSH2 0x4F7 JUMP JUMPDEST SWAP4 POP POP PUSH1 0x40 PUSH2 0x552 DUP8 DUP3 DUP9 ADD PUSH2 0x4F7 JUMP JUMPDEST SWAP3 POP POP PUSH1 0x60 PUSH2 0x563 DUP8 DUP3 DUP9 ADD PUSH2 0x4F7 JUMP JUMPDEST SWAP2 POP POP SWAP3 SWAP6 SWAP2 SWAP5 POP SWAP3 POP JUMP JUMPDEST PUSH0 DUP3 DUP3 MSTORE PUSH1 0x20 DUP3 ADD SWAP1 POP SWAP3 SWAP2 POP POP JUMP JUMPDEST PUSH32 0x496E76616C696420746F6B656E00000000000000000000000000000000000000 PUSH0 DUP3 ADD MSTORE POP JUMP JUMPDEST PUSH0 PUSH2 0x5B3 PUSH1 0xD DUP4 PUSH2 0x56F JUMP JUMPDEST SWAP2 POP PUSH2 0x5BE DUP3 PUSH2 0x57F JUMP JUMPDEST PUSH1 0x20 DUP3 ADD SWAP1 POP SWAP2 SWAP1 POP JUMP JUMPDEST PUSH0 PUSH1 0x20 DUP3 ADD SWAP1 POP DUP2 DUP2 SUB PUSH0 DUP4 ADD MSTORE PUSH2 0x5E0 DUP2 PUSH2 0x5A7 JUMP JUMPDEST SWAP1 POP SWAP2 SWAP1 POP JUMP JUMPDEST PUSH32 0x496E76616C696420737461626C65000000000000000000000000000000000000 PUSH0 DUP3 ADD MSTORE POP JUMP JUMPDEST PUSH0 PUSH2 0x61B PUSH1 0xE DUP4 PUSH2 0x56F JUMP JUMPDEST SWAP2 POP PUSH2 0x626 DUP3 PUSH2 0x5E7 JUMP JUMPDEST PUSH1 0x20 DUP3 ADD SWAP1 POP SWAP2 SWAP1 POP JUMP JUMPDEST PUSH0 PUSH1 0x20 DUP3 ADD SWAP1 POP DUP2 DUP2 SUB PUSH0 DUP4 ADD MSTORE PUSH2 0x648 DUP2 PUSH2 0x60F JUMP JUMPDEST SWAP1 POP SWAP2 SWAP1 POP JUMP JUMPDEST PUSH32 0x496E76616C69642061646D696E00000000000000000000000000000000000000 PUSH0 DUP3 ADD MSTORE POP JUMP JUMPDEST PUSH0 PUSH2 0x683 PUSH1 0xD DUP4 PUSH2 0x56F JUMP JUMPDEST SWAP2 POP PUSH2 0x68E DUP3 PUSH2 0x64F JUMP JUMPDEST PUSH1 0x20 DUP3 ADD SWAP1 POP SWAP2 SWAP1 POP JUMP JUMPDEST PUSH0 PUSH1 0x20 DUP3 ADD SWAP1 POP DUP2 DUP2 SUB PUSH0 DUP4 ADD MSTORE PUSH2 0x6B0 DUP2 PUSH2 0x677 JUMP JUMPDEST SWAP1 POP SWAP2 SWAP1 POP JUMP JUMPDEST PUSH32 0x496E76616C69642066656520636F6C6C6563746F720000000000000000000000 PUSH0 DUP3 ADD MSTORE POP JUMP JUMPDEST PUSH0 PUSH2 0x6EB PUSH1 0x15 DUP4 PUSH2 0x56F JUMP JUMPDEST SWAP2 POP PUSH2 0x6F6 DUP3 PUSH2 0x6B7 JUMP JUMPDEST PUSH1 0x20 DUP3 ADD SWAP1 POP SWAP2 SWAP1 POP JUMP JUMPDEST PUSH0 PUSH1 0x20 DUP3 ADD SWAP1 POP DUP2 DUP2 SUB PUSH0 DUP4 ADD MSTORE PUSH2 0x718 DUP2 PUSH2 0x6DF JUMP JUMPDEST SWAP1 POP SWAP2 SWAP1 POP JUMP JUMPDEST PUSH2 0x22CB DUP1 PUSH2 0x72C PUSH0 CODECOPY PUSH0 RETURN INVALID PUSH1 0x80 PUSH1 0x40 MSTORE CALLVALUE DUP1 ISZERO PUSH2 0xF JUMPI PUSH0 PUSH0 REVERT JUMPDEST POP PUSH1 0x4 CALLDATASIZE LT PUSH2 0x171 JUMPI PUSH0 CALLDATALOAD PUSH1 0xE0 SHR DUP1 PUSH4 0x82855871 GT PUSH2 0xDC JUMPI DUP1 PUSH4 0xAA2F892D GT PUSH2 0x95 JUMPI DUP1 PUSH4 0xC58343EF GT PUSH2 0x6F JUMPI DUP1 PUSH4 0xC58343EF EQ PUSH2 0x437 JUMPI DUP1 PUSH4 0xD03CEA6D EQ PUSH2 0x46B JUMPI DUP1 PUSH4 0xD547741F EQ PUSH2 0x489 JUMPI DUP1 PUSH4 0xE85BA3E9 EQ PUSH2 0x4A5 JUMPI PUSH2 0x171 JUMP JUMPDEST DUP1 PUSH4 0xAA2F892D EQ PUSH2 0x3CD JUMPI DUP1 PUSH4 0xB337CF74 EQ PUSH2 0x3E9 JUMPI DUP1 PUSH4 0xC415B95C EQ PUSH2 0x419 JUMPI PUSH2 0x171 JUMP JUMPDEST DUP1 PUSH4 0x82855871 EQ PUSH2 0x309 JUMPI DUP1 PUSH4 0x91D14854 EQ PUSH2 0x327 JUMPI DUP1 PUSH4 0x94002B57 EQ PUSH2 0x357 JUMPI DUP1 PUSH4 0xA217FDDF EQ PUSH2 0x375 JUMPI DUP1 PUSH4 0xA42DCE80 EQ PUSH2 0x393 JUMPI DUP1 PUSH4 0xA9D75B2B EQ PUSH2 0x3AF JUMPI PUSH2 0x171 JUMP JUMPDEST DUP1 PUSH4 0x3EB09ECE GT PUSH2 0x12E JUMPI DUP1 PUSH4 0x3EB09ECE EQ PUSH2 0x247 JUMPI DUP1 PUSH4 0x43114DDE EQ PUSH2 0x263 JUMPI DUP1 PUSH4 0x539FFB77 EQ PUSH2 0x281 JUMPI DUP1 PUSH4 0x6A84A985 EQ PUSH2 0x29D JUMPI DUP1 PUSH4 0x7182E074 EQ PUSH2 0x2BB JUMPI DUP1 PUSH4 0x75B238FC EQ PUSH2 0x2EB JUMPI PUSH2 0x171 JUMP JUMPDEST DUP1 PUSH4 0x1FFC9A7 EQ PUSH2 0x175 JUMPI DUP1 PUSH4 0x9F6442C EQ PUSH2 0x1A5 JUMPI DUP1 PUSH4 0x248A9CA3 EQ PUSH2 0x1C3 JUMPI DUP1 PUSH4 0x2D02A5B2 EQ PUSH2 0x1F3 JUMPI DUP1 PUSH4 0x2F2FF15D EQ PUSH2 0x20F JUMPI DUP1 PUSH4 0x36568ABE EQ PUSH2 0x22B JUMPI JUMPDEST PUSH0 PUSH0 REVERT JUMPDEST PUSH2 0x18F PUSH1 0x4 DUP1 CALLDATASIZE SUB DUP2 ADD SWAP1 PUSH2 0x18A SWAP2 SWAP1 PUSH2 0x1807 JUMP JUMPDEST PUSH2 0x4D9 JUMP JUMPDEST PUSH1 0x40 MLOAD PUSH2 0x19C SWAP2 SWAP1 PUSH2 0x184C JUMP JUMPDEST PUSH1 0x40 MLOAD DUP1 SWAP2 SUB SWAP1 RETURN JUMPDEST PUSH2 0x1AD PUSH2 0x552 JUMP JUMPDEST PUSH1 0x40 MLOAD PUSH2 0x1BA SWAP2 SWAP1 PUSH2 0x187D JUMP JUMPDEST PUSH1 0x40 MLOAD DUP1 SWAP2 SUB SWAP1 RETURN JUMPDEST PUSH2 0x1DD PUSH1 0x4 DUP1 CALLDATASIZE SUB DUP2 ADD SWAP1 PUSH2 0x1D8 SWAP2 SWAP1 PUSH2 0x18C9 JUMP JUMPDEST PUSH2 0x558 JUMP JUMPDEST PUSH1 0x40 MLOAD PUSH2 0x1EA SWAP2 SWAP1 PUSH2 0x1903 JUMP JUMPDEST PUSH1 0x40 MLOAD DUP1 SWAP2 SUB SWAP1 RETURN JUMPDEST PUSH2 0x20D PUSH1 0x4 DUP1 CALLDATASIZE SUB DUP2 ADD SWAP1 PUSH2 0x208 SWAP2 SWAP1 PUSH2 0x1946 JUMP JUMPDEST PUSH2 0x574 JUMP JUMPDEST STOP JUMPDEST PUSH2 0x229 PUSH1 0x4 DUP1 CALLDATASIZE SUB DUP2 ADD SWAP1 PUSH2 0x224 SWAP2 SWAP1 PUSH2 0x19CB JUMP JUMPDEST PUSH2 0x622 JUMP JUMPDEST STOP JUMPDEST PUSH2 0x245 PUSH1 0x4 DUP1 CALLDATASIZE SUB DUP2 ADD SWAP1 PUSH2 0x240 SWAP2 SWAP1 PUSH2 0x19CB JUMP JUMPDEST PUSH2 0x644 JUMP JUMPDEST STOP JUMPDEST PUSH2 0x261 PUSH1 0x4 DUP1 CALLDATASIZE SUB DUP2 ADD SWAP1 PUSH2 0x25C SWAP2 SWAP1 PUSH2 0x1946 JUMP JUMPDEST PUSH2 0x6BF JUMP JUMPDEST STOP JUMPDEST PUSH2 0x26B PUSH2 0x86E JUMP JUMPDEST PUSH1 0x40 MLOAD PUSH2 0x278 SWAP2 SWAP1 PUSH2 0x187D JUMP JUMPDEST PUSH1 0x40 MLOAD DUP1 SWAP2 SUB SWAP1 RETURN JUMPDEST PUSH2 0x29B PUSH1 0x4 DUP1 CALLDATASIZE SUB DUP2 ADD SWAP1 PUSH2 0x296 SWAP2 SWAP1 PUSH2 0x1946 JUMP JUMPDEST PUSH2 0x874 JUMP JUMPDEST STOP JUMPDEST PUSH2 0x2A5 PUSH2 0xA59 JUMP JUMPDEST PUSH1 0x40 MLOAD PUSH2 0x2B2 SWAP2 SWAP1 PUSH2 0x187D JUMP JUMPDEST PUSH1 0x40 MLOAD DUP1 SWAP2 SUB SWAP1 RETURN JUMPDEST PUSH2 0x2D5 PUSH1 0x4 DUP1 CALLDATASIZE SUB DUP2 ADD SWAP1 PUSH2 0x2D0 SWAP2 SWAP1 PUSH2 0x1A09 JUMP JUMPDEST PUSH2 0xA5F JUMP JUMPDEST PUSH1 0x40 MLOAD PUSH2 0x2E2 SWAP2 SWAP1 PUSH2 0x187D JUMP JUMPDEST PUSH1 0x40 MLOAD DUP1 SWAP2 SUB SWAP1 RETURN JUMPDEST PUSH2 0x2F3 PUSH2 0xA8A JUMP JUMPDEST PUSH1 0x40 MLOAD PUSH2 0x300 SWAP2 SWAP1 PUSH2 0x1903 JUMP JUMPDEST PUSH1 0x40 MLOAD DUP1 SWAP2 SUB SWAP1 RETURN JUMPDEST PUSH2 0x311 PUSH2 0xAAE JUMP JUMPDEST PUSH1 0x40 MLOAD PUSH2 0x31E SWAP2 SWAP1 PUSH2 0x187D JUMP JUMPDEST PUSH1 0x40 MLOAD DUP1 SWAP2 SUB SWAP1 RETURN JUMPDEST PUSH2 0x341 PUSH1 0x4 DUP1 CALLDATASIZE SUB DUP2 ADD SWAP1 PUSH2 0x33C SWAP2 SWAP1 PUSH2 0x19CB JUMP JUMPDEST PUSH2 0xAB4 JUMP JUMPDEST PUSH1 0x40 MLOAD PUSH2 0x34E SWAP2 SWAP1 PUSH2 0x184C JUMP JUMPDEST PUSH1 0x40 MLOAD DUP1 SWAP2 SUB SWAP1 RETURN JUMPDEST PUSH2 0x35F PUSH2 0xB17 JUMP JUMPDEST PUSH1 0x40 MLOAD PUSH2 0x36C SWAP2 SWAP1 PUSH2 0x1AA2 JUMP JUMPDEST PUSH1 0x40 MLOAD DUP1 SWAP2 SUB SWAP1 RETURN JUMPDEST PUSH2 0x37D PUSH2 0xB3C JUMP JUMPDEST PUSH1 0x40 MLOAD PUSH2 0x38A SWAP2 SWAP1 PUSH2 0x1903 JUMP JUMPDEST PUSH1 0x40 MLOAD DUP1 SWAP2 SUB SWAP1 RETURN JUMPDEST PUSH2 0x3AD PUSH1 0x4 DUP1 CALLDATASIZE SUB DUP2 ADD SWAP1 PUSH2 0x3A8 SWAP2 SWAP1 PUSH2 0x1ABB JUMP JUMPDEST PUSH2 0xB42 JUMP JUMPDEST STOP JUMPDEST PUSH2 0x3B7 PUSH2 0xC55 JUMP JUMPDEST PUSH1 0x40 MLOAD PUSH2 0x3C4 SWAP2 SWAP1 PUSH2 0x1AA2 JUMP JUMPDEST PUSH1 0x40 MLOAD DUP1 SWAP2 SUB SWAP1 RETURN JUMPDEST PUSH2 0x3E7 PUSH1 0x4 DUP1 CALLDATASIZE SUB DUP2 ADD SWAP1 PUSH2 0x3E2 SWAP2 SWAP1 PUSH2 0x1946 JUMP JUMPDEST PUSH2 0xC7A JUMP JUMPDEST STOP JUMPDEST PUSH2 0x403 PUSH1 0x4 DUP1 CALLDATASIZE SUB DUP2 ADD SWAP1 PUSH2 0x3FE SWAP2 SWAP1 PUSH2 0x1ABB JUMP JUMPDEST PUSH2 0x1147 JUMP JUMPDEST PUSH1 0x40 MLOAD PUSH2 0x410 SWAP2 SWAP1 PUSH2 0x1B9D JUMP JUMPDEST PUSH1 0x40 MLOAD DUP1 SWAP2 SUB SWAP1 RETURN JUMPDEST PUSH2 0x421 PUSH2 0x11DA JUMP JUMPDEST PUSH1 0x40 MLOAD PUSH2 0x42E SWAP2 SWAP1 PUSH2 0x1BCC JUMP JUMPDEST PUSH1 0x40 MLOAD DUP1 SWAP2 SUB SWAP1 RETURN JUMPDEST PUSH2 0x451 PUSH1 0x4 DUP1 CALLDATASIZE SUB DUP2 ADD SWAP1 PUSH2 0x44C SWAP2 SWAP1 PUSH2 0x1946 JUMP JUMPDEST PUSH2 0x11FF JUMP JUMPDEST PUSH1 0x40 MLOAD PUSH2 0x462 SWAP6 SWAP5 SWAP4 SWAP3 SWAP2 SWAP1 PUSH2 0x1C58 JUMP JUMPDEST PUSH1 0x40 MLOAD DUP1 SWAP2 SUB SWAP1 RETURN JUMPDEST PUSH2 0x473 PUSH2 0x126F JUMP JUMPDEST PUSH1 0x40 MLOAD PUSH2 0x480 SWAP2 SWAP1 PUSH2 0x1CC9 JUMP JUMPDEST PUSH1 0x40 MLOAD DUP1 SWAP2 SUB SWAP1 RETURN JUMPDEST PUSH2 0x4A3 PUSH1 0x4 DUP1 CALLDATASIZE SUB DUP2 ADD SWAP1 PUSH2 0x49E SWAP2 SWAP1 PUSH2 0x19CB JUMP JUMPDEST PUSH2 0x1294 JUMP JUMPDEST STOP JUMPDEST PUSH2 0x4BF PUSH1 0x4 DUP1 CALLDATASIZE SUB DUP2 ADD SWAP1 PUSH2 0x4BA SWAP2 SWAP1 PUSH2 0x1946 JUMP JUMPDEST PUSH2 0x12B6 JUMP JUMPDEST PUSH1 0x40 MLOAD PUSH2 0x4D0 SWAP6 SWAP5 SWAP4 SWAP3 SWAP2 SWAP1 PUSH2 0x1C58 JUMP JUMPDEST PUSH1 0x40 MLOAD DUP1 SWAP2 SUB SWAP1 RETURN JUMPDEST PUSH0 PUSH32 0x7965DB0B00000000000000000000000000000000000000000000000000000000 PUSH28 0xFFFFFFFFFFFFFFFFFFFFFFFFFFFFFFFFFFFFFFFFFFFFFFFFFFFFFFFF NOT AND DUP3 PUSH28 0xFFFFFFFFFFFFFFFFFFFFFFFFFFFFFFFFFFFFFFFFFFFFFFFFFFFFFFFF NOT AND EQ DUP1 PUSH2 0x54B JUMPI POP PUSH2 0x54A DUP3 PUSH2 0x1313 JUMP JUMPDEST JUMPDEST SWAP1 POP SWAP2 SWAP1 POP JUMP JUMPDEST PUSH1 0x8 SLOAD DUP2 JUMP JUMPDEST PUSH0 PUSH0 PUSH0 DUP4 DUP2 MSTORE PUSH1 0x20 ADD SWAP1 DUP2 MSTORE PUSH1 0x20 ADD PUSH0 KECCAK256 PUSH1 0x1 ADD SLOAD SWAP1 POP SWAP2 SWAP1 POP JUMP JUMPDEST PUSH32 0xA49807205CE4D355092EF5A8A18F56E8913CF4A201FBE287825B095693C21775 PUSH2 0x59E DUP2 PUSH2 0x137C JUMP JUMPDEST PUSH0 DUP3 GT PUSH2 0x5E0 JUMPI PUSH1 0x40 MLOAD PUSH32 0x8C379A000000000000000000000000000000000000000000000000000000000 DUP2 MSTORE PUSH1 0x4 ADD PUSH2 0x5D7 SWAP1 PUSH2 0x1D3C JUMP JUMPDEST PUSH1 0x40 MLOAD DUP1 SWAP2 SUB SWAP1 REVERT JUMPDEST DUP2 PUSH1 0x9 DUP2 SWAP1 SSTORE POP PUSH32 0x2E600C03582901C1EA47C71F804AA91A8F85E256D3E66CD2FE327144E684F75A DUP3 PUSH1 0x40 MLOAD PUSH2 0x616 SWAP2 SWAP1 PUSH2 0x187D JUMP JUMPDEST PUSH1 0x40 MLOAD DUP1 SWAP2 SUB SWAP1 LOG1 POP POP JUMP JUMPDEST PUSH2 0x62B DUP3 PUSH2 0x558 JUMP JUMPDEST PUSH2 0x634 DUP2 PUSH2 0x137C JUMP JUMPDEST PUSH2 0x63E DUP4 DUP4 PUSH2 0x1390 JUMP JUMPDEST POP POP POP POP JUMP JUMPDEST PUSH2 0x64C PUSH2 0x1479 JUMP JUMPDEST PUSH20 0xFFFFFFFFFFFFFFFFFFFFFFFFFFFFFFFFFFFFFFFF AND DUP2 PUSH20 0xFFFFFFFFFFFFFFFFFFFFFFFFFFFFFFFFFFFFFFFF AND EQ PUSH2 0x6B0 JUMPI PUSH1 0x40 MLOAD PUSH32 0x6697B23200000000000000000000000000000000000000000000000000000000 DUP2 MSTORE PUSH1 0x4 ADD PUSH1 0x40 MLOAD DUP1 SWAP2 SUB SWAP1 REVERT JUMPDEST PUSH2 0x6BA DUP3 DUP3 PUSH2 0x1480 JUMP JUMPDEST POP POP POP JUMP JUMPDEST PUSH32 0xA49807205CE4D355092EF5A8A18F56E8913CF4A201FBE287825B095693C21775 PUSH2 0x6E9 DUP2 PUSH2 0x137C JUMP JUMPDEST PUSH2 0x6F1 PUSH2 0x1569 JUMP JUMPDEST PUSH0 PUSH1 0xA PUSH0 DUP5 DUP2 MSTORE PUSH1 0x20 ADD SWAP1 DUP2 MSTORE PUSH1 0x20 ADD PUSH0 KECCAK256 SWAP1 POP PUSH0 PUSH1 0x2 DUP2 GT ISZERO PUSH2 0x718 JUMPI PUSH2 0x717 PUSH2 0x1BE5 JUMP JUMPDEST JUMPDEST DUP2 PUSH1 0x4 ADD PUSH0 SWAP1 SLOAD SWAP1 PUSH2 0x100 EXP SWAP1 DIV PUSH1 0xFF AND PUSH1 0x2 DUP2 GT ISZERO PUSH2 0x73B JUMPI PUSH2 0x73A PUSH2 0x1BE5 JUMP JUMPDEST JUMPDEST EQ PUSH2 0x77B JUMPI PUSH1 0x40 MLOAD PUSH32 0x8C379A000000000000000000000000000000000000000000000000000000000 DUP2 MSTORE PUSH1 0x4 ADD PUSH2 0x772 SWAP1 PUSH2 0x1DA4 JUMP JUMPDEST PUSH1 0x40 MLOAD DUP1 SWAP2 SUB SWAP1 REVERT JUMPDEST PUSH1 0x1 DUP2 PUSH1 0x4 ADD PUSH0 PUSH2 0x100 EXP DUP2 SLOAD DUP2 PUSH1 0xFF MUL NOT AND SWAP1 DUP4 PUSH1 0x2 DUP2 GT ISZERO PUSH2 0x7A2 JUMPI PUSH2 0x7A1 PUSH2 0x1BE5 JUMP JUMPDEST JUMPDEST MUL OR SWAP1 SSTORE POP PUSH1 0x3 PUSH0 SWAP1 SLOAD SWAP1 PUSH2 0x100 EXP SWAP1 DIV PUSH20 0xFFFFFFFFFFFFFFFFFFFFFFFFFFFFFFFFFFFFFFFF AND PUSH20 0xFFFFFFFFFFFFFFFFFFFFFFFFFFFFFFFFFFFFFFFF AND PUSH4 0x1C83BA4A ADDRESS DUP4 PUSH1 0x1 ADD SLOAD PUSH1 0x40 MLOAD DUP4 PUSH4 0xFFFFFFFF AND PUSH1 0xE0 SHL DUP2 MSTORE PUSH1 0x4 ADD PUSH2 0x807 SWAP3 SWAP2 SWAP1 PUSH2 0x1DC2 JUMP JUMPDEST PUSH0 PUSH1 0x40 MLOAD DUP1 DUP4 SUB DUP2 PUSH0 DUP8 DUP1 EXTCODESIZE ISZERO DUP1 ISZERO PUSH2 0x81E JUMPI PUSH0 PUSH0 REVERT JUMPDEST POP GAS CALL ISZERO DUP1 ISZERO PUSH2 0x830 JUMPI RETURNDATASIZE PUSH0 PUSH0 RETURNDATACOPY RETURNDATASIZE PUSH0 REVERT JUMPDEST POP POP POP POP DUP3 PUSH32 0x8D2E85C49E42F77FCCACE7CCB31D848BE4431ADEB1FB4165EB8D716C92829C6E PUSH1 0x40 MLOAD PUSH1 0x40 MLOAD DUP1 SWAP2 SUB SWAP1 LOG2 POP PUSH2 0x86A PUSH2 0x15B8 JUMP JUMPDEST POP POP JUMP JUMPDEST PUSH1 0x9 SLOAD DUP2 JUMP JUMPDEST PUSH2 0x87C PUSH2 0x1569 JUMP JUMPDEST PUSH0 PUSH1 0xA PUSH0 DUP4 DUP2 MSTORE PUSH1 0x20 ADD SWAP1 DUP2 MSTORE PUSH1 0x20 ADD PUSH0 KECCAK256 SWAP1 POP CALLER PUSH20 0xFFFFFFFFFFFFFFFFFFFFFFFFFFFFFFFFFFFFFFFF AND DUP2 PUSH0 ADD PUSH0 SWAP1 SLOAD SWAP1 PUSH2 0x100 EXP SWAP1 DIV PUSH20 0xFFFFFFFFFFFFFFFFFFFFFFFFFFFFFFFFFFFFFFFF AND PUSH20 0xFFFFFFFFFFFFFFFFFFFFFFFFFFFFFFFFFFFFFFFF AND EQ PUSH2 0x920 JUMPI PUSH1 0x40 MLOAD PUSH32 0x8C379A000000000000000000000000000000000000000000000000000000000 DUP2 MSTORE PUSH1 0x4 ADD PUSH2 0x917 SWAP1 PUSH2 0x1E33 JUMP JUMPDEST PUSH1 0x40 MLOAD DUP1 SWAP2 SUB SWAP1 REVERT JUMPDEST PUSH0 PUSH1 0x2 DUP2 GT ISZERO PUSH2 0x933 JUMPI PUSH2 0x932 PUSH2 0x1BE5 JUMP JUMPDEST JUMPDEST DUP2 PUSH1 0x4 ADD PUSH0 SWAP1 SLOAD SWAP1 PUSH2 0x100 EXP SWAP1 DIV PUSH1 0xFF AND PUSH1 0x2 DUP2 GT ISZERO PUSH2 0x956 JUMPI PUSH2 0x955 PUSH2 0x1BE5 JUMP JUMPDEST JUMPDEST EQ PUSH2 0x996 JUMPI PUSH1 0x40 MLOAD PUSH32 0x8C379A000000000000000000000000000000000000000000000000000000000 DUP2 MSTORE PUSH1 0x4 ADD PUSH2 0x98D SWAP1 PUSH2 0x1E9B JUMP JUMPDEST PUSH1 0x40 MLOAD DUP1 SWAP2 SUB SWAP1 REVERT JUMPDEST PUSH0 DUP2 PUSH1 0x1 ADD SLOAD SWAP1 POP PUSH1 0x2 DUP3 PUSH1 0x4 ADD PUSH0 PUSH2 0x100 EXP DUP2 SLOAD DUP2 PUSH1 0xFF MUL NOT AND SWAP1 DUP4 PUSH1 0x2 DUP2 GT ISZERO PUSH2 0x9C5 JUMPI PUSH2 0x9C4 PUSH2 0x1BE5 JUMP JUMPDEST JUMPDEST MUL OR SWAP1 SSTORE POP PUSH0 DUP3 PUSH1 0x1 ADD DUP2 SWAP1 SSTORE POP PUSH2 0xA1F CALLER DUP3 PUSH1 0x2 PUSH0 SWAP1 SLOAD SWAP1 PUSH2 0x100 EXP SWAP1 DIV PUSH20 0xFFFFFFFFFFFFFFFFFFFFFFFFFFFFFFFFFFFFFFFF AND PUSH20 0xFFFFFFFFFFFFFFFFFFFFFFFFFFFFFFFFFFFFFFFF AND PUSH2 0x15C1 SWAP1 SWAP3 SWAP2 SWAP1 PUSH4 0xFFFFFFFF AND JUMP JUMPDEST DUP3 PUSH32 0xBDFC27B52926217650CC98869C02F50F77CB20403015B3CBAB786B508289C247 PUSH1 0x40 MLOAD PUSH1 0x40 MLOAD DUP1 SWAP2 SUB SWAP1 LOG2 POP POP PUSH2 0xA56 PUSH2 0x15B8 JUMP JUMPDEST POP JUMP JUMPDEST PUSH1 0x6 SLOAD DUP2 JUMP JUMPDEST PUSH1 0xB PUSH1 0x20 MSTORE DUP2 PUSH0 MSTORE PUSH1 0x40 PUSH0 KECCAK256 DUP2 DUP2 SLOAD DUP2 LT PUSH2 0xA78 JUMPI PUSH0 DUP1 REVERT JUMPDEST SWAP1 PUSH0 MSTORE PUSH1 0x20 PUSH0 KECCAK256 ADD PUSH0 SWAP2 POP SWAP2 POP POP SLOAD DUP2 JUMP JUMPDEST PUSH32 0xA49807205CE4D355092EF5A8A18F56E8913CF4A201FBE287825B095693C21775 DUP2 JUMP JUMPDEST PUSH1 0x7 SLOAD DUP2 JUMP JUMPDEST PUSH0 PUSH0 PUSH0 DUP5 DUP2 MSTORE PUSH1 0x20 ADD SWAP1 DUP2 MSTORE PUSH1 0x20 ADD PUSH0 KECCAK256 PUSH0 ADD PUSH0 DUP4 PUSH20 0xFFFFFFFFFFFFFFFFFFFFFFFFFFFFFFFFFFFFFFFF AND PUSH20 0xFFFFFFFFFFFFFFFFFFFFFFFFFFFFFFFFFFFFFFFF AND DUP2 MSTORE PUSH1 0x20 ADD SWAP1 DUP2 MSTORE PUSH1 0x20 ADD PUSH0 KECCAK256 PUSH0 SWAP1 SLOAD SWAP1 PUSH2 0x100 EXP SWAP1 DIV PUSH1 0xFF AND SWAP1 POP SWAP3 SWAP2 POP POP JUMP JUMPDEST PUSH1 0x2 PUSH0 SWAP1 SLOAD SWAP1 PUSH2 0x100 EXP SWAP1 DIV PUSH20 0xFFFFFFFFFFFFFFFFFFFFFFFFFFFFFFFFFFFFFFFF AND DUP2 JUMP JUMPDEST PUSH0 PUSH0 SHL DUP2 JUMP JUMPDEST PUSH32 0xA49807205CE4D355092EF5A8A18F56E8913CF4A201FBE287825B095693C21775 PUSH2 0xB6C DUP2 PUSH2 0x137C JUMP JUMPDEST PUSH0 PUSH20 0xFFFFFFFFFFFFFFFFFFFFFFFFFFFFFFFFFFFFFFFF AND DUP3 PUSH20 0xFFFFFFFFFFFFFFFFFFFFFFFFFFFFFFFFFFFFFFFF AND SUB PUSH2 0xBDA JUMPI PUSH1 0x40 MLOAD PUSH32 0x8C379A000000000000000000000000000000000000000000000000000000000 DUP2 MSTORE PUSH1 0x4 ADD PUSH2 0xBD1 SWAP1 PUSH2 0x1F03 JUMP JUMPDEST PUSH1 0x40 MLOAD DUP1 SWAP2 SUB SWAP1 REVERT JUMPDEST DUP2 PUSH1 0x5 PUSH0 PUSH2 0x100 EXP DUP2 SLOAD DUP2 PUSH20 0xFFFFFFFFFFFFFFFFFFFFFFFFFFFFFFFFFFFFFFFF MUL NOT AND SWAP1 DUP4 PUSH20 0xFFFFFFFFFFFFFFFFFFFFFFFFFFFFFFFFFFFFFFFF AND MUL OR SWAP1 SSTORE POP PUSH32 0x9C1996A14D26C3ECD833C10222D012447EF07B09B15000F3A34318FF039C0BDC DUP3 PUSH1 0x40 MLOAD PUSH2 0xC49 SWAP2 SWAP1 PUSH2 0x1BCC JUMP JUMPDEST PUSH1 0x40 MLOAD DUP1 SWAP2 SUB SWAP1 LOG1 POP POP JUMP JUMPDEST PUSH1 0x4 PUSH0 SWAP1 SLOAD SWAP1 PUSH2 0x100 EXP SWAP1 DIV PUSH20 0xFFFFFFFFFFFFFFFFFFFFFFFFFFFFFFFFFFFFFFFF AND DUP2 JUMP JUMPDEST PUSH2 0xC82 PUSH2 0x1569 JUMP JUMPDEST PUSH1 0x7 SLOAD DUP2 LT ISZERO PUSH2 0xCC7 JUMPI PUSH1 0x40 MLOAD PUSH32 0x8C379A000000000000000000000000000000000000000000000000000000000 DUP2 MSTORE PUSH1 0x4 ADD PUSH2 0xCBE SWAP1 PUSH2 0x1F6B JUMP JUMPDEST PUSH1 0x40 MLOAD DUP1 SWAP2 SUB SWAP1 REVERT JUMPDEST DUP1 PUSH1 0x2 PUSH0 SWAP1 SLOAD SWAP1 PUSH2 0x100 EXP SWAP1 DIV PUSH20 0xFFFFFFFFFFFFFFFFFFFFFFFFFFFFFFFFFFFFFFFF AND PUSH20 0xFFFFFFFFFFFFFFFFFFFFFFFFFFFFFFFFFFFFFFFF AND PUSH4 0x70A08231 CALLER PUSH1 0x40 MLOAD DUP3 PUSH4 0xFFFFFFFF AND PUSH1 0xE0 SHL DUP2 MSTORE PUSH1 0x4 ADD PUSH2 0xD22 SWAP2 SWAP1 PUSH2 0x1BCC JUMP JUMPDEST PUSH1 0x20 PUSH1 0x40 MLOAD DUP1 DUP4 SUB DUP2 DUP7 GAS STATICCALL ISZERO DUP1 ISZERO PUSH2 0xD3D JUMPI RETURNDATASIZE PUSH0 PUSH0 RETURNDATACOPY RETURNDATASIZE PUSH0 REVERT JUMPDEST POP POP POP POP PUSH1 0x40 MLOAD RETURNDATASIZE PUSH1 0x1F NOT PUSH1 0x1F DUP3 ADD AND DUP3 ADD DUP1 PUSH1 0x40 MSTORE POP DUP2 ADD SWAP1 PUSH2 0xD61 SWAP2 SWAP1 PUSH2 0x1F9D JUMP JUMPDEST LT ISZERO PUSH2 0xDA2 JUMPI PUSH1 0x40 MLOAD PUSH32 0x8C379A000000000000000000000000000000000000000000000000000000000 DUP2 MSTORE PUSH1 0x4 ADD PUSH2 0xD99 SWAP1 PUSH2 0x2012 JUMP JUMPDEST PUSH1 0x40 MLOAD DUP1 SWAP2 SUB SWAP1 REVERT JUMPDEST PUSH0 PUSH2 0x2710 PUSH8 0xDE0B6B3A7640000 PUSH1 0x8 SLOAD PUSH1 0x9 SLOAD DUP6 PUSH2 0xDC0 SWAP2 SWAP1 PUSH2 0x205D JUMP JUMPDEST PUSH2 0xDCA SWAP2 SWAP1 PUSH2 0x205D JUMP JUMPDEST PUSH2 0xDD4 SWAP2 SWAP1 PUSH2 0x20CB JUMP JUMPDEST PUSH2 0xDDE SWAP2 SWAP1 PUSH2 0x20CB JUMP JUMPDEST SWAP1 POP DUP1 PUSH1 0x4 PUSH0 SWAP1 SLOAD SWAP1 PUSH2 0x100 EXP SWAP1 DIV PUSH20 0xFFFFFFFFFFFFFFFFFFFFFFFFFFFFFFFFFFFFFFFF AND PUSH20 0xFFFFFFFFFFFFFFFFFFFFFFFFFFFFFFFFFFFFFFFF AND PUSH4 0x70A08231 CALLER PUSH1 0x40 MLOAD DUP3 PUSH4 0xFFFFFFFF AND PUSH1 0xE0 SHL DUP2 MSTORE PUSH1 0x4 ADD PUSH2 0xE3B SWAP2 SWAP1 PUSH2 0x1BCC JUMP JUMPDEST PUSH1 0x20 PUSH1 0x40 MLOAD DUP1 DUP4 SUB DUP2 DUP7 GAS STATICCALL ISZERO DUP1 ISZERO PUSH2 0xE56 JUMPI RETURNDATASIZE PUSH0 PUSH0 RETURNDATACOPY RETURNDATASIZE PUSH0 REVERT JUMPDEST POP POP POP POP PUSH1 0x40 MLOAD RETURNDATASIZE PUSH1 0x1F NOT PUSH1 0x1F DUP3 ADD AND DUP3 ADD DUP1 PUSH1 0x40 MSTORE POP DUP2 ADD SWAP1 PUSH2 0xE7A SWAP2 SWAP1 PUSH2 0x1F9D JUMP JUMPDEST LT ISZERO PUSH2 0xEBB JUMPI PUSH1 0x40 MLOAD PUSH32 0x8C379A000000000000000000000000000000000000000000000000000000000 DUP2 MSTORE PUSH1 0x4 ADD PUSH2 0xEB2 SWAP1 PUSH2 0x2145 JUMP JUMPDEST PUSH1 0x40 MLOAD DUP1 SWAP2 SUB SWAP1 REVERT JUMPDEST PUSH2 0xF09 CALLER ADDRESS DUP5 PUSH1 0x2 PUSH0 SWAP1 SLOAD SWAP1 PUSH2 0x100 EXP SWAP1 DIV PUSH20 0xFFFFFFFFFFFFFFFFFFFFFFFFFFFFFFFFFFFFFFFF AND PUSH20 0xFFFFFFFFFFFFFFFFFFFFFFFFFFFFFFFFFFFFFFFF AND PUSH2 0x1640 SWAP1 SWAP4 SWAP3 SWAP2 SWAP1 PUSH4 0xFFFFFFFF AND JUMP JUMPDEST PUSH2 0xF78 CALLER PUSH1 0x5 PUSH0 SWAP1 SLOAD SWAP1 PUSH2 0x100 EXP SWAP1 DIV PUSH20 0xFFFFFFFFFFFFFFFFFFFFFFFFFFFFFFFFFFFFFFFF AND DUP4 PUSH1 0x4 PUSH0 SWAP1 SLOAD SWAP1 PUSH2 0x100 EXP SWAP1 DIV PUSH20 0xFFFFFFFFFFFFFFFFFFFFFFFFFFFFFFFFFFFFFFFF AND PUSH20 0xFFFFFFFFFFFFFFFFFFFFFFFFFFFFFFFFFFFFFFFF AND PUSH2 0x1640 SWAP1 SWAP4 SWAP3 SWAP2 SWAP1 PUSH4 0xFFFFFFFF AND JUMP JUMPDEST PUSH1 0x40 MLOAD DUP1 PUSH1 0xA0 ADD PUSH1 0x40 MSTORE DUP1 CALLER PUSH20 0xFFFFFFFFFFFFFFFFFFFFFFFFFFFFFFFFFFFFFFFF AND DUP2 MSTORE PUSH1 0x20 ADD DUP4 DUP2 MSTORE PUSH1 0x20 ADD TIMESTAMP DUP2 MSTORE PUSH1 0x20 ADD DUP3 DUP2 MSTORE PUSH1 0x20 ADD PUSH0 PUSH1 0x2 DUP2 GT ISZERO PUSH2 0xFC4 JUMPI PUSH2 0xFC3 PUSH2 0x1BE5 JUMP JUMPDEST JUMPDEST DUP2 MSTORE POP PUSH1 0xA PUSH0 PUSH1 0x6 SLOAD DUP2 MSTORE PUSH1 0x20 ADD SWAP1 DUP2 MSTORE PUSH1 0x20 ADD PUSH0 KECCAK256 PUSH0 DUP3 ADD MLOAD DUP2 PUSH0 ADD PUSH0 PUSH2 0x100 EXP DUP2 SLOAD DUP2 PUSH20 0xFFFFFFFFFFFFFFFFFFFFFFFFFFFFFFFFFFFFFFFF MUL NOT AND SWAP1 DUP4 PUSH20 0xFFFFFFFFFFFFFFFFFFFFFFFFFFFFFFFFFFFFFFFF AND MUL OR SWAP1 SSTORE POP PUSH1 0x20 DUP3 ADD MLOAD DUP2 PUSH1 0x1 ADD SSTORE PUSH1 0x40 DUP3 ADD MLOAD DUP2 PUSH1 0x2 ADD SSTORE PUSH1 0x60 DUP3 ADD MLOAD DUP2 PUSH1 0x3 ADD SSTORE PUSH1 0x80 DUP3 ADD MLOAD DUP2 PUSH1 0x4 ADD PUSH0 PUSH2 0x100 EXP DUP2 SLOAD DUP2 PUSH1 0xFF MUL NOT AND SWAP1 DUP4 PUSH1 0x2 DUP2 GT ISZERO PUSH2 0x1066 JUMPI PUSH2 0x1065 PUSH2 0x1BE5 JUMP JUMPDEST JUMPDEST MUL OR SWAP1 SSTORE POP SWAP1 POP POP PUSH1 0xB PUSH0 CALLER PUSH20 0xFFFFFFFFFFFFFFFFFFFFFFFFFFFFFFFFFFFFFFFF AND PUSH20 0xFFFFFFFFFFFFFFFFFFFFFFFFFFFFFFFFFFFFFFFF AND DUP2 MSTORE PUSH1 0x20 ADD SWAP1 DUP2 MSTORE PUSH1 0x20 ADD PUSH0 KECCAK256 PUSH1 0x6 SLOAD SWAP1 DUP1 PUSH1 0x1 DUP2 SLOAD ADD DUP1 DUP3 SSTORE DUP1 SWAP2 POP POP PUSH1 0x1 SWAP1 SUB SWAP1 PUSH0 MSTORE PUSH1 0x20 PUSH0 KECCAK256 ADD PUSH0 SWAP1 SWAP2 SWAP1 SWAP2 SWAP1 SWAP2 POP SSTORE CALLER PUSH20 0xFFFFFFFFFFFFFFFFFFFFFFFFFFFFFFFFFFFFFFFF AND PUSH1 0x6 SLOAD PUSH32 0xAE09CBEB07A07670027E7723CC1F8E599E56BCB401BD5C58F6D9A87B99789EB9 DUP5 DUP5 PUSH1 0x40 MLOAD PUSH2 0x111C SWAP3 SWAP2 SWAP1 PUSH2 0x2163 JUMP JUMPDEST PUSH1 0x40 MLOAD DUP1 SWAP2 SUB SWAP1 LOG3 PUSH1 0x6 PUSH0 DUP2 SLOAD DUP1 SWAP3 SWAP2 SWAP1 PUSH2 0x1136 SWAP1 PUSH2 0x218A JUMP JUMPDEST SWAP2 SWAP1 POP SSTORE POP POP PUSH2 0x1144 PUSH2 0x15B8 JUMP JUMPDEST POP JUMP JUMPDEST PUSH1 0x60 PUSH1 0xB PUSH0 DUP4 PUSH20 0xFFFFFFFFFFFFFFFFFFFFFFFFFFFFFFFFFFFFFFFF AND PUSH20 0xFFFFFFFFFFFFFFFFFFFFFFFFFFFFFFFFFFFFFFFF AND DUP2 MSTORE PUSH1 0x20 ADD SWAP1 DUP2 MSTORE PUSH1 0x20 ADD PUSH0 KECCAK256 DUP1 SLOAD DUP1 PUSH1 0x20 MUL PUSH1 0x20 ADD PUSH1 0x40 MLOAD SWAP1 DUP2 ADD PUSH1 0x40 MSTORE DUP1 SWAP3 SWAP2 SWAP1 DUP2 DUP2 MSTORE PUSH1 0x20 ADD DUP3 DUP1 SLOAD DUP1 ISZERO PUSH2 0x11CE JUMPI PUSH1 0x20 MUL DUP3 ADD SWAP2 SWAP1 PUSH0 MSTORE PUSH1 0x20 PUSH0 KECCAK256 SWAP1 JUMPDEST DUP2 SLOAD DUP2 MSTORE PUSH1 0x20 ADD SWAP1 PUSH1 0x1 ADD SWAP1 DUP1 DUP4 GT PUSH2 0x11BA JUMPI JUMPDEST POP POP POP POP POP SWAP1 POP SWAP2 SWAP1 POP JUMP JUMPDEST PUSH1 0x5 PUSH0 SWAP1 SLOAD SWAP1 PUSH2 0x100 EXP SWAP1 DIV PUSH20 0xFFFFFFFFFFFFFFFFFFFFFFFFFFFFFFFFFFFFFFFF AND DUP2 JUMP JUMPDEST PUSH0 PUSH0 PUSH0 PUSH0 PUSH0 PUSH0 PUSH1 0xA PUSH0 DUP9 DUP2 MSTORE PUSH1 0x20 ADD SWAP1 DUP2 MSTORE PUSH1 0x20 ADD PUSH0 KECCAK256 SWAP1 POP DUP1 PUSH0 ADD PUSH0 SWAP1 SLOAD SWAP1 PUSH2 0x100 EXP SWAP1 DIV PUSH20 0xFFFFFFFFFFFFFFFFFFFFFFFFFFFFFFFFFFFFFFFF AND DUP2 PUSH1 0x1 ADD SLOAD DUP3 PUSH1 0x2 ADD SLOAD DUP4 PUSH1 0x3 ADD SLOAD DUP5 PUSH1 0x4 ADD PUSH0 SWAP1 SLOAD SWAP1 PUSH2 0x100 EXP SWAP1 DIV PUSH1 0xFF AND SWAP6 POP SWAP6 POP SWAP6 POP SWAP6 POP SWAP6 POP POP SWAP2 SWAP4 SWAP6 SWAP1 SWAP3 SWAP5 POP JUMP JUMPDEST PUSH1 0x3 PUSH0 SWAP1 SLOAD SWAP1 PUSH2 0x100 EXP SWAP1 DIV PUSH20 0xFFFFFFFFFFFFFFFFFFFFFFFFFFFFFFFFFFFFFFFF AND DUP2 JUMP JUMPDEST PUSH2 0x129D DUP3 PUSH2 0x558 JUMP JUMPDEST PUSH2 0x12A6 DUP2 PUSH2 0x137C JUMP JUMPDEST PUSH2 0x12B0 DUP4 DUP4 PUSH2 0x1480 JUMP JUMPDEST POP POP POP POP JUMP JUMPDEST PUSH1 0xA PUSH1 0x20 MSTORE DUP1 PUSH0 MSTORE PUSH1 0x40 PUSH0 KECCAK256 PUSH0 SWAP2 POP SWAP1 POP DUP1 PUSH0 ADD PUSH0 SWAP1 SLOAD SWAP1 PUSH2 0x100 EXP SWAP1 DIV PUSH20 0xFFFFFFFFFFFFFFFFFFFFFFFFFFFFFFFFFFFFFFFF AND SWAP1 DUP1 PUSH1 0x1 ADD SLOAD SWAP1 DUP1 PUSH1 0x2 ADD SLOAD SWAP1 DUP1 PUSH1 0x3 ADD SLOAD SWAP1 DUP1 PUSH1 0x4 ADD PUSH0 SWAP1 SLOAD SWAP1 PUSH2 0x100 EXP SWAP1 DIV PUSH1 0xFF AND SWAP1 POP DUP6 JUMP JUMPDEST PUSH0 PUSH32 0x1FFC9A700000000000000000000000000000000000000000000000000000000 PUSH28 0xFFFFFFFFFFFFFFFFFFFFFFFFFFFFFFFFFFFFFFFFFFFFFFFFFFFFFFFF NOT AND DUP3 PUSH28 0xFFFFFFFFFFFFFFFFFFFFFFFFFFFFFFFFFFFFFFFFFFFFFFFFFFFFFFFF NOT AND EQ SWAP1 POP SWAP2 SWAP1 POP JUMP JUMPDEST PUSH2 0x138D DUP2 PUSH2 0x1388 PUSH2 0x1479 JUMP JUMPDEST PUSH2 0x16C2 JUMP JUMPDEST POP JUMP JUMPDEST PUSH0 PUSH2 0x139B DUP4 DUP4 PUSH2 0xAB4 JUMP JUMPDEST PUSH2 0x146F JUMPI PUSH1 0x1 PUSH0 PUSH0 DUP6 DUP2 MSTORE PUSH1 0x20 ADD SWAP1 DUP2 MSTORE PUSH1 0x20 ADD PUSH0 KECCAK256 PUSH0 ADD PUSH0 DUP5 PUSH20 0xFFFFFFFFFFFFFFFFFFFFFFFFFFFFFFFFFFFFFFFF AND PUSH20 0xFFFFFFFFFFFFFFFFFFFFFFFFFFFFFFFFFFFFFFFF AND DUP2 MSTORE PUSH1 0x20 ADD SWAP1 DUP2 MSTORE PUSH1 0x20 ADD PUSH0 KECCAK256 PUSH0 PUSH2 0x100 EXP DUP2 SLOAD DUP2 PUSH1 0xFF MUL NOT AND SWAP1 DUP4 ISZERO ISZERO MUL OR SWAP1 SSTORE POP PUSH2 0x140C PUSH2 0x1479 JUMP JUMPDEST PUSH20 0xFFFFFFFFFFFFFFFFFFFFFFFFFFFFFFFFFFFFFFFF AND DUP3 PUSH20 0xFFFFFFFFFFFFFFFFFFFFFFFFFFFFFFFFFFFFFFFF AND DUP5 PUSH32 0x2F8788117E7EFF1D82E926EC794901D17C78024A50270940304540A733656F0D PUSH1 0x40 MLOAD PUSH1 0x40 MLOAD DUP1 SWAP2 SUB SWAP1 LOG4 PUSH1 0x1 SWAP1 POP PUSH2 0x1473 JUMP JUMPDEST PUSH0 SWAP1 POP JUMPDEST SWAP3 SWAP2 POP POP JUMP JUMPDEST PUSH0 CALLER SWAP1 POP SWAP1 JUMP JUMPDEST PUSH0 PUSH2 0x148B DUP4 DUP4 PUSH2 0xAB4 JUMP JUMPDEST ISZERO PUSH2 0x155F JUMPI PUSH0 PUSH0 PUSH0 DUP6 DUP2 MSTORE PUSH1 0x20 ADD SWAP1 DUP2 MSTORE PUSH1 0x20 ADD PUSH0 KECCAK256 PUSH0 ADD PUSH0 DUP5 PUSH20 0xFFFFFFFFFFFFFFFFFFFFFFFFFFFFFFFFFFFFFFFF AND PUSH20 0xFFFFFFFFFFFFFFFFFFFFFFFFFFFFFFFFFFFFFFFF AND DUP2 MSTORE PUSH1 0x20 ADD SWAP1 DUP2 MSTORE PUSH1 0x20 ADD PUSH0 KECCAK256 PUSH0 PUSH2 0x100 EXP DUP2 SLOAD DUP2 PUSH1 0xFF MUL NOT AND SWAP1 DUP4 ISZERO ISZERO MUL OR SWAP1 SSTORE POP PUSH2 0x14FC PUSH2 0x1479 JUMP JUMPDEST PUSH20 0xFFFFFFFFFFFFFFFFFFFFFFFFFFFFFFFFFFFFFFFF AND DUP3 PUSH20 0xFFFFFFFFFFFFFFFFFFFFFFFFFFFFFFFFFFFFFFFF AND DUP5 PUSH32 0xF6391F5C32D9C69D2A47EA670B442974B53935D1EDC7FD64EB21E047A839171B PUSH1 0x40 MLOAD PUSH1 0x40 MLOAD DUP1 SWAP2 SUB SWAP1 LOG4 PUSH1 0x1 SWAP1 POP PUSH2 0x1563 JUMP JUMPDEST PUSH0 SWAP1 POP JUMPDEST SWAP3 SWAP2 POP POP JUMP JUMPDEST PUSH1 0x2 PUSH1 0x1 SLOAD SUB PUSH2 0x15AE JUMPI PUSH1 0x40 MLOAD PUSH32 0x8C379A000000000000000000000000000000000000000000000000000000000 DUP2 MSTORE PUSH1 0x4 ADD PUSH2 0x15A5 SWAP1 PUSH2 0x221B JUMP JUMPDEST PUSH1 0x40 MLOAD DUP1 SWAP2 SUB SWAP1 REVERT JUMPDEST PUSH1 0x2 PUSH1 0x1 DUP2 SWAP1 SSTORE POP JUMP JUMPDEST PUSH1 0x1 DUP1 DUP2 SWAP1 SSTORE POP JUMP JUMPDEST PUSH2 0x163B DUP4 DUP5 PUSH20 0xFFFFFFFFFFFFFFFFFFFFFFFFFFFFFFFFFFFFFFFF AND PUSH4 0xA9059CBB DUP6 DUP6 PUSH1 0x40 MLOAD PUSH1 0x24 ADD PUSH2 0x15F4 SWAP3 SWAP2 SWAP1 PUSH2 0x1DC2 JUMP JUMPDEST PUSH1 0x40 MLOAD PUSH1 0x20 DUP2 DUP4 SUB SUB DUP2 MSTORE SWAP1 PUSH1 0x40 MSTORE SWAP2 POP PUSH1 0xE0 SHL PUSH1 0x20 DUP3 ADD DUP1 MLOAD PUSH28 0xFFFFFFFFFFFFFFFFFFFFFFFFFFFFFFFFFFFFFFFFFFFFFFFFFFFFFFFF DUP4 DUP2 DUP4 AND OR DUP4 MSTORE POP POP POP POP PUSH2 0x1713 JUMP JUMPDEST POP POP POP JUMP JUMPDEST PUSH2 0x16BC DUP5 DUP6 PUSH20 0xFFFFFFFFFFFFFFFFFFFFFFFFFFFFFFFFFFFFFFFF AND PUSH4 0x23B872DD DUP7 DUP7 DUP7 PUSH1 0x40 MLOAD PUSH1 0x24 ADD PUSH2 0x1675 SWAP4 SWAP3 SWAP2 SWAP1 PUSH2 0x2239 JUMP JUMPDEST PUSH1 0x40 MLOAD PUSH1 0x20 DUP2 DUP4 SUB SUB DUP2 MSTORE SWAP1 PUSH1 0x40 MSTORE SWAP2 POP PUSH1 0xE0 SHL PUSH1 0x20 DUP3 ADD DUP1 MLOAD PUSH28 0xFFFFFFFFFFFFFFFFFFFFFFFFFFFFFFFFFFFFFFFFFFFFFFFFFFFFFFFF DUP4 DUP2 DUP4 AND OR DUP4 MSTORE POP POP POP POP PUSH2 0x1713 JUMP JUMPDEST POP POP POP POP JUMP JUMPDEST PUSH2 0x16CC DUP3 DUP3 PUSH2 0xAB4 JUMP JUMPDEST PUSH2 0x170F JUMPI DUP1 DUP3 PUSH1 0x40 MLOAD PUSH32 0xE2517D3F00000000000000000000000000000000000000000000000000000000 DUP2 MSTORE PUSH1 0x4 ADD PUSH2 0x1706 SWAP3 SWAP2 SWAP1 PUSH2 0x226E JUMP JUMPDEST PUSH1 0x40 MLOAD DUP1 SWAP2 SUB SWAP1 REVERT JUMPDEST POP POP JUMP JUMPDEST PUSH0 PUSH0 PUSH1 0x20 PUSH0 DUP5 MLOAD PUSH1 0x20 DUP7 ADD PUSH0 DUP9 GAS CALL DUP1 PUSH2 0x1732 JUMPI PUSH1 0x40 MLOAD RETURNDATASIZE PUSH0 DUP3 RETURNDATACOPY RETURNDATASIZE DUP2 REVERT JUMPDEST RETURNDATASIZE SWAP3 POP PUSH0 MLOAD SWAP2 POP POP PUSH0 DUP3 EQ PUSH2 0x174B JUMPI PUSH1 0x1 DUP2 EQ ISZERO PUSH2 0x1766 JUMP JUMPDEST PUSH0 DUP5 PUSH20 0xFFFFFFFFFFFFFFFFFFFFFFFFFFFFFFFFFFFFFFFF AND EXTCODESIZE EQ JUMPDEST ISZERO PUSH2 0x17A8 JUMPI DUP4 PUSH1 0x40 MLOAD PUSH32 0x5274AFE700000000000000000000000000000000000000000000000000000000 DUP2 MSTORE PUSH1 0x4 ADD PUSH2 0x179F SWAP2 SWAP1 PUSH2 0x1BCC JUMP JUMPDEST PUSH1 0x40 MLOAD DUP1 SWAP2 SUB SWAP1 REVERT JUMPDEST POP POP POP POP JUMP JUMPDEST PUSH0 PUSH0 REVERT JUMPDEST PUSH0 PUSH32 0xFFFFFFFF00000000000000000000000000000000000000000000000000000000 DUP3 AND SWAP1 POP SWAP2 SWAP1 POP JUMP JUMPDEST PUSH2 0x17E6 DUP2 PUSH2 0x17B2 JUMP JUMPDEST DUP2 EQ PUSH2 0x17F0 JUMPI PUSH0 PUSH0 REVERT JUMPDEST POP JUMP JUMPDEST PUSH0 DUP2 CALLDATALOAD SWAP1 POP PUSH2 0x1801 DUP2 PUSH2 0x17DD JUMP JUMPDEST SWAP3 SWAP2 POP POP JUMP JUMPDEST PUSH0 PUSH1 0x20 DUP3 DUP5 SUB SLT ISZERO PUSH2 0x181C JUMPI PUSH2 0x181B PUSH2 0x17AE JUMP JUMPDEST JUMPDEST PUSH0 PUSH2 0x1829 DUP5 DUP3 DUP6 ADD PUSH2 0x17F3 JUMP JUMPDEST SWAP2 POP POP SWAP3 SWAP2 POP POP JUMP JUMPDEST PUSH0 DUP2 ISZERO ISZERO SWAP1 POP SWAP2 SWAP1 POP JUMP JUMPDEST PUSH2 0x1846 DUP2 PUSH2 0x1832 JUMP JUMPDEST DUP3 MSTORE POP POP JUMP JUMPDEST PUSH0 PUSH1 0x20 DUP3 ADD SWAP1 POP PUSH2 0x185F PUSH0 DUP4 ADD DUP5 PUSH2 0x183D JUMP JUMPDEST SWAP3 SWAP2 POP POP JUMP JUMPDEST PUSH0 DUP2 SWAP1 POP SWAP2 SWAP1 POP JUMP JUMPDEST PUSH2 0x1877 DUP2 PUSH2 0x1865 JUMP JUMPDEST DUP3 MSTORE POP POP JUMP JUMPDEST PUSH0 PUSH1 0x20 DUP3 ADD SWAP1 POP PUSH2 0x1890 PUSH0 DUP4 ADD DUP5 PUSH2 0x186E JUMP JUMPDEST SWAP3 SWAP2 POP POP JUMP JUMPDEST PUSH0 DUP2 SWAP1 POP SWAP2 SWAP1 POP JUMP JUMPDEST PUSH2 0x18A8 DUP2 PUSH2 0x1896 JUMP JUMPDEST DUP2 EQ PUSH2 0x18B2 JUMPI PUSH0 PUSH0 REVERT JUMPDEST POP JUMP JUMPDEST PUSH0 DUP2 CALLDATALOAD SWAP1 POP PUSH2 0x18C3 DUP2 PUSH2 0x189F JUMP JUMPDEST SWAP3 SWAP2 POP POP JUMP JUMPDEST PUSH0 PUSH1 0x20 DUP3 DUP5 SUB SLT ISZERO PUSH2 0x18DE JUMPI PUSH2 0x18DD PUSH2 0x17AE JUMP JUMPDEST JUMPDEST PUSH0 PUSH2 0x18EB DUP5 DUP3 DUP6 ADD PUSH2 0x18B5 JUMP JUMPDEST SWAP2 POP POP SWAP3 SWAP2 POP POP JUMP JUMPDEST PUSH2 0x18FD DUP2 PUSH2 0x1896 JUMP JUMPDEST DUP3 MSTORE POP POP JUMP JUMPDEST PUSH0 PUSH1 0x20 DUP3 ADD SWAP1 POP PUSH2 0x1916 PUSH0 DUP4 ADD DUP5 PUSH2 0x18F4 JUMP JUMPDEST SWAP3 SWAP2 POP POP JUMP JUMPDEST PUSH2 0x1925 DUP2 PUSH2 0x1865 JUMP JUMPDEST DUP2 EQ PUSH2 0x192F JUMPI PUSH0 PUSH0 REVERT JUMPDEST POP JUMP JUMPDEST PUSH0 DUP2 CALLDATALOAD SWAP1 POP PUSH2 0x1940 DUP2 PUSH2 0x191C JUMP JUMPDEST SWAP3 SWAP2 POP POP JUMP JUMPDEST PUSH0 PUSH1 0x20 DUP3 DUP5 SUB SLT ISZERO PUSH2 0x195B JUMPI PUSH2 0x195A PUSH2 0x17AE JUMP JUMPDEST JUMPDEST PUSH0 PUSH2 0x1968 DUP5 DUP3 DUP6 ADD PUSH2 0x1932 JUMP JUMPDEST SWAP2 POP POP SWAP3 SWAP2 POP POP JUMP JUMPDEST PUSH0 PUSH20 0xFFFFFFFFFFFFFFFFFFFFFFFFFFFFFFFFFFFFFFFF DUP3 AND SWAP1 POP SWAP2 SWAP1 POP JUMP JUMPDEST PUSH0 PUSH2 0x199A DUP3 PUSH2 0x1971 JUMP JUMPDEST SWAP1 POP SWAP2 SWAP1 POP JUMP JUMPDEST PUSH2 0x19AA DUP2 PUSH2 0x1990 JUMP JUMPDEST DUP2 EQ PUSH2 0x19B4 JUMPI PUSH0 PUSH0 REVERT JUMPDEST POP JUMP JUMPDEST PUSH0 DUP2 CALLDATALOAD SWAP1 POP PUSH2 0x19C5 DUP2 PUSH2 0x19A1 JUMP JUMPDEST SWAP3 SWAP2 POP POP JUMP JUMPDEST PUSH0 PUSH0 PUSH1 0x40 DUP4 DUP6 SUB SLT ISZERO PUSH2 0x19E1 JUMPI PUSH2 0x19E0 PUSH2 0x17AE JUMP JUMPDEST JUMPDEST PUSH0 PUSH2 0x19EE DUP6 DUP3 DUP7 ADD PUSH2 0x18B5 JUMP JUMPDEST SWAP3 POP POP PUSH1 0x20 PUSH2 0x19FF DUP6 DUP3 DUP7 ADD PUSH2 0x19B7 JUMP JUMPDEST SWAP2 POP POP SWAP3 POP SWAP3 SWAP1 POP JUMP JUMPDEST PUSH0 PUSH0 PUSH1 0x40 DUP4 DUP6 SUB SLT ISZERO PUSH2 0x1A1F JUMPI PUSH2 0x1A1E PUSH2 0x17AE JUMP JUMPDEST JUMPDEST PUSH0 PUSH2 0x1A2C DUP6 DUP3 DUP7 ADD PUSH2 0x19B7 JUMP JUMPDEST SWAP3 POP POP PUSH1 0x20 PUSH2 0x1A3D DUP6 DUP3 DUP7 ADD PUSH2 0x1932 JUMP JUMPDEST SWAP2 POP POP SWAP3 POP SWAP3 SWAP1 POP JUMP JUMPDEST PUSH0 DUP2 SWAP1 POP SWAP2 SWAP1 POP JUMP JUMPDEST PUSH0 PUSH2 0x1A6A PUSH2 0x1A65 PUSH2 0x1A60 DUP5 PUSH2 0x1971 JUMP JUMPDEST PUSH2 0x1A47 JUMP JUMPDEST PUSH2 0x1971 JUMP JUMPDEST SWAP1 POP SWAP2 SWAP1 POP JUMP JUMPDEST PUSH0 PUSH2 0x1A7B DUP3 PUSH2 0x1A50 JUMP JUMPDEST SWAP1 POP SWAP2 SWAP1 POP JUMP JUMPDEST PUSH0 PUSH2 0x1A8C DUP3 PUSH2 0x1A71 JUMP JUMPDEST SWAP1 POP SWAP2 SWAP1 POP JUMP JUMPDEST PUSH2 0x1A9C DUP2 PUSH2 0x1A82 JUMP JUMPDEST DUP3 MSTORE POP POP JUMP JUMPDEST PUSH0 PUSH1 0x20 DUP3 ADD SWAP1 POP PUSH2 0x1AB5 PUSH0 DUP4 ADD DUP5 PUSH2 0x1A93 JUMP JUMPDEST SWAP3 SWAP2 POP POP JUMP JUMPDEST PUSH0 PUSH1 0x20 DUP3 DUP5 SUB SLT ISZERO PUSH2 0x1AD0 JUMPI PUSH2 0x1ACF PUSH2 0x17AE JUMP JUMPDEST JUMPDEST PUSH0 PUSH2 0x1ADD DUP5 DUP3 DUP6 ADD PUSH2 0x19B7 JUMP JUMPDEST SWAP2 POP POP SWAP3 SWAP2 POP POP JUMP JUMPDEST PUSH0 DUP2 MLOAD SWAP1 POP SWAP2 SWAP1 POP JUMP JUMPDEST PUSH0 DUP3 DUP3 MSTORE PUSH1 0x20 DUP3 ADD SWAP1 POP SWAP3 SWAP2 POP POP JUMP JUMPDEST PUSH0 DUP2 SWAP1 POP PUSH1 0x20 DUP3 ADD SWAP1 POP SWAP2 SWAP1 POP JUMP JUMPDEST PUSH2 0x1B18 DUP2 PUSH2 0x1865 JUMP JUMPDEST DUP3 MSTORE POP POP JUMP JUMPDEST PUSH0 PUSH2 0x1B29 DUP4 DUP4 PUSH2 0x1B0F JUMP JUMPDEST PUSH1 0x20 DUP4 ADD SWAP1 POP SWAP3 SWAP2 POP POP JUMP JUMPDEST PUSH0 PUSH1 0x20 DUP3 ADD SWAP1 POP SWAP2 SWAP1 POP JUMP JUMPDEST PUSH0 PUSH2 0x1B4B DUP3 PUSH2 0x1AE6 JUMP JUMPDEST PUSH2 0x1B55 DUP2 DUP6 PUSH2 0x1AF0 JUMP JUMPDEST SWAP4 POP PUSH2 0x1B60 DUP4 PUSH2 0x1B00 JUMP JUMPDEST DUP1 PUSH0 JUMPDEST DUP4 DUP2 LT ISZERO PUSH2 0x1B90 JUMPI DUP2 MLOAD PUSH2 0x1B77 DUP9 DUP3 PUSH2 0x1B1E JUMP JUMPDEST SWAP8 POP PUSH2 0x1B82 DUP4 PUSH2 0x1B35 JUMP JUMPDEST SWAP3 POP POP PUSH1 0x1 DUP2 ADD SWAP1 POP PUSH2 0x1B63 JUMP JUMPDEST POP DUP6 SWAP4 POP POP POP POP SWAP3 SWAP2 POP POP JUMP JUMPDEST PUSH0 PUSH1 0x20 DUP3 ADD SWAP1 POP DUP2 DUP2 SUB PUSH0 DUP4 ADD MSTORE PUSH2 0x1BB5 DUP2 DUP5 PUSH2 0x1B41 JUMP JUMPDEST SWAP1 POP SWAP3 SWAP2 POP POP JUMP JUMPDEST PUSH2 0x1BC6 DUP2 PUSH2 0x1990 JUMP JUMPDEST DUP3 MSTORE POP POP JUMP JUMPDEST PUSH0 PUSH1 0x20 DUP3 ADD SWAP1 POP PUSH2 0x1BDF PUSH0 DUP4 ADD DUP5 PUSH2 0x1BBD JUMP JUMPDEST SWAP3 SWAP2 POP POP JUMP JUMPDEST PUSH32 0x4E487B7100000000000000000000000000000000000000000000000000000000 PUSH0 MSTORE PUSH1 0x21 PUSH1 0x4 MSTORE PUSH1 0x24 PUSH0 REVERT JUMPDEST PUSH1 0x3 DUP2 LT PUSH2 0x1C23 JUMPI PUSH2 0x1C22 PUSH2 0x1BE5 JUMP JUMPDEST JUMPDEST POP JUMP JUMPDEST PUSH0 DUP2 SWAP1 POP PUSH2 0x1C33 DUP3 PUSH2 0x1C12 JUMP JUMPDEST SWAP2 SWAP1 POP JUMP JUMPDEST PUSH0 PUSH2 0x1C42 DUP3 PUSH2 0x1C26 JUMP JUMPDEST SWAP1 POP SWAP2 SWAP1 POP JUMP JUMPDEST PUSH2 0x1C52 DUP2 PUSH2 0x1C38 JUMP JUMPDEST DUP3 MSTORE POP POP JUMP JUMPDEST PUSH0 PUSH1 0xA0 DUP3 ADD SWAP1 POP PUSH2 0x1C6B PUSH0 DUP4 ADD DUP9 PUSH2 0x1BBD JUMP JUMPDEST PUSH2 0x1C78 PUSH1 0x20 DUP4 ADD DUP8 PUSH2 0x186E JUMP JUMPDEST PUSH2 0x1C85 PUSH1 0x40 DUP4 ADD DUP7 PUSH2 0x186E JUMP JUMPDEST PUSH2 0x1C92 PUSH1 0x60 DUP4 ADD DUP6 PUSH2 0x186E JUMP JUMPDEST PUSH2 0x1C9F PUSH1 0x80 DUP4 ADD DUP5 PUSH2 0x1C49 JUMP JUMPDEST SWAP7 SWAP6 POP POP POP POP POP POP JUMP JUMPDEST PUSH0 PUSH2 0x1CB3 DUP3 PUSH2 0x1A71 JUMP JUMPDEST SWAP1 POP SWAP2 SWAP1 POP JUMP JUMPDEST PUSH2 0x1CC3 DUP2 PUSH2 0x1CA9 JUMP JUMPDEST DUP3 MSTORE POP POP JUMP JUMPDEST PUSH0 PUSH1 0x20 DUP3 ADD SWAP1 POP PUSH2 0x1CDC PUSH0 DUP4 ADD DUP5 PUSH2 0x1CBA JUMP JUMPDEST SWAP3 SWAP2 POP POP JUMP JUMPDEST PUSH0 DUP3 DUP3 MSTORE PUSH1 0x20 DUP3 ADD SWAP1 POP SWAP3 SWAP2 POP POP JUMP JUMPDEST PUSH32 0x496E76616C696420707269636500000000000000000000000000000000000000 PUSH0 DUP3 ADD MSTORE POP JUMP JUMPDEST PUSH0 PUSH2 0x1D26 PUSH1 0xD DUP4 PUSH2 0x1CE2 JUMP JUMPDEST SWAP2 POP PUSH2 0x1D31 DUP3 PUSH2 0x1CF2 JUMP JUMPDEST PUSH1 0x20 DUP3 ADD SWAP1 POP SWAP2 SWAP1 POP JUMP JUMPDEST PUSH0 PUSH1 0x20 DUP3 ADD SWAP1 POP DUP2 DUP2 SUB PUSH0 DUP4 ADD MSTORE PUSH2 0x1D53 DUP2 PUSH2 0x1D1A JUMP JUMPDEST SWAP1 POP SWAP2 SWAP1 POP JUMP JUMPDEST PUSH32 0x496E76616C696420737461747573000000000000000000000000000000000000 PUSH0 DUP3 ADD MSTORE POP JUMP JUMPDEST PUSH0 PUSH2 0x1D8E PUSH1 0xE DUP4 PUSH2 0x1CE2 JUMP JUMPDEST SWAP2 POP PUSH2 0x1D99 DUP3 PUSH2 0x1D5A JUMP JUMPDEST PUSH1 0x20 DUP3 ADD SWAP1 POP SWAP2 SWAP1 POP JUMP JUMPDEST PUSH0 PUSH1 0x20 DUP3 ADD SWAP1 POP DUP2 DUP2 SUB PUSH0 DUP4 ADD MSTORE PUSH2 0x1DBB DUP2 PUSH2 0x1D82 JUMP JUMPDEST SWAP1 POP SWAP2 SWAP1 POP JUMP JUMPDEST PUSH0 PUSH1 0x40 DUP3 ADD SWAP1 POP PUSH2 0x1DD5 PUSH0 DUP4 ADD DUP6 PUSH2 0x1BBD JUMP JUMPDEST PUSH2 0x1DE2 PUSH1 0x20 DUP4 ADD DUP5 PUSH2 0x186E JUMP JUMPDEST SWAP4 SWAP3 POP POP POP JUMP JUMPDEST PUSH32 0x4E6F7420796F7572207265717565737400000000000000000000000000000000 PUSH0 DUP3 ADD MSTORE POP JUMP JUMPDEST PUSH0 PUSH2 0x1E1D PUSH1 0x10 DUP4 PUSH2 0x1CE2 JUMP JUMPDEST SWAP2 POP PUSH2 0x1E28 DUP3 PUSH2 0x1DE9 JUMP JUMPDEST PUSH1 0x20 DUP3 ADD SWAP1 POP SWAP2 SWAP1 POP JUMP JUMPDEST PUSH0 PUSH1 0x20 DUP3 ADD SWAP1 POP DUP2 DUP2 SUB PUSH0 DUP4 ADD MSTORE PUSH2 0x1E4A DUP2 PUSH2 0x1E11 JUMP JUMPDEST SWAP1 POP SWAP2 SWAP1 POP JUMP JUMPDEST PUSH32 0x43616E6E6F742063616E63656C00000000000000000000000000000000000000 PUSH0 DUP3 ADD MSTORE POP JUMP JUMPDEST PUSH0 PUSH2 0x1E85 PUSH1 0xD DUP4 PUSH2 0x1CE2 JUMP JUMPDEST SWAP2 POP PUSH2 0x1E90 DUP3 PUSH2 0x1E51 JUMP JUMPDEST PUSH1 0x20 DUP3 ADD SWAP1 POP SWAP2 SWAP1 POP JUMP JUMPDEST PUSH0 PUSH1 0x20 DUP3 ADD SWAP1 POP DUP2 DUP2 SUB PUSH0 DUP4 ADD MSTORE PUSH2 0x1EB2 DUP2 PUSH2 0x1E79 JUMP JUMPDEST SWAP1 POP SWAP2 SWAP1 POP JUMP JUMPDEST PUSH32 0x496E76616C696420616464726573730000000000000000000000000000000000 PUSH0 DUP3 ADD MSTORE POP JUMP JUMPDEST PUSH0 PUSH2 0x1EED PUSH1 0xF DUP4 PUSH2 0x1CE2 JUMP JUMPDEST SWAP2 POP PUSH2 0x1EF8 DUP3 PUSH2 0x1EB9 JUMP JUMPDEST PUSH1 0x20 DUP3 ADD SWAP1 POP SWAP2 SWAP1 POP JUMP JUMPDEST PUSH0 PUSH1 0x20 DUP3 ADD SWAP1 POP DUP2 DUP2 SUB PUSH0 DUP4 ADD MSTORE PUSH2 0x1F1A DUP2 PUSH2 0x1EE1 JUMP JUMPDEST SWAP1 POP SWAP2 SWAP1 POP JUMP JUMPDEST PUSH32 0x4D696E2072656465656D20697320302E31206772616D00000000000000000000 PUSH0 DUP3 ADD MSTORE POP JUMP JUMPDEST PUSH0 PUSH2 0x1F55 PUSH1 0x16 DUP4 PUSH2 0x1CE2 JUMP JUMPDEST SWAP2 POP PUSH2 0x1F60 DUP3 PUSH2 0x1F21 JUMP JUMPDEST PUSH1 0x20 DUP3 ADD SWAP1 POP SWAP2 SWAP1 POP JUMP JUMPDEST PUSH0 PUSH1 0x20 DUP3 ADD SWAP1 POP DUP2 DUP2 SUB PUSH0 DUP4 ADD MSTORE PUSH2 0x1F82 DUP2 PUSH2 0x1F49 JUMP JUMPDEST SWAP1 POP SWAP2 SWAP1 POP JUMP JUMPDEST PUSH0 DUP2 MLOAD SWAP1 POP PUSH2 0x1F97 DUP2 PUSH2 0x191C JUMP JUMPDEST SWAP3 SWAP2 POP POP JUMP JUMPDEST PUSH0 PUSH1 0x20 DUP3 DUP5 SUB SLT ISZERO PUSH2 0x1FB2 JUMPI PUSH2 0x1FB1 PUSH2 0x17AE JUMP JUMPDEST JUMPDEST PUSH0 PUSH2 0x1FBF DUP5 DUP3 DUP6 ADD PUSH2 0x1F89 JUMP JUMPDEST SWAP2 POP POP SWAP3 SWAP2 POP POP JUMP JUMPDEST PUSH32 0x496E73756666696369656E742062616C616E6365000000000000000000000000 PUSH0 DUP3 ADD MSTORE POP JUMP JUMPDEST PUSH0 PUSH2 0x1FFC PUSH1 0x14 DUP4 PUSH2 0x1CE2 JUMP JUMPDEST SWAP2 POP PUSH2 0x2007 DUP3 PUSH2 0x1FC8 JUMP JUMPDEST PUSH1 0x20 DUP3 ADD SWAP1 POP SWAP2 SWAP1 POP JUMP JUMPDEST PUSH0 PUSH1 0x20 DUP3 ADD SWAP1 POP DUP2 DUP2 SUB PUSH0 DUP4 ADD MSTORE PUSH2 0x2029 DUP2 PUSH2 0x1FF0 JUMP JUMPDEST SWAP1 POP SWAP2 SWAP1 POP JUMP JUMPDEST PUSH32 0x4E487B7100000000000000000000000000000000000000000000000000000000 PUSH0 MSTORE PUSH1 0x11 PUSH1 0x4 MSTORE PUSH1 0x24 PUSH0 REVERT JUMPDEST PUSH0 PUSH2 0x2067 DUP3 PUSH2 0x1865 JUMP JUMPDEST SWAP2 POP PUSH2 0x2072 DUP4 PUSH2 0x1865 JUMP JUMPDEST SWAP3 POP DUP3 DUP3 MUL PUSH2 0x2080 DUP2 PUSH2 0x1865 JUMP JUMPDEST SWAP2 POP DUP3 DUP3 DIV DUP5 EQ DUP4 ISZERO OR PUSH2 0x2097 JUMPI PUSH2 0x2096 PUSH2 0x2030 JUMP JUMPDEST JUMPDEST POP SWAP3 SWAP2 POP POP JUMP JUMPDEST PUSH32 0x4E487B7100000000000000000000000000000000000000000000000000000000 PUSH0 MSTORE PUSH1 0x12 PUSH1 0x4 MSTORE PUSH1 0x24 PUSH0 REVERT JUMPDEST PUSH0 PUSH2 0x20D5 DUP3 PUSH2 0x1865 JUMP JUMPDEST SWAP2 POP PUSH2 0x20E0 DUP4 PUSH2 0x1865 JUMP JUMPDEST SWAP3 POP DUP3 PUSH2 0x20F0 JUMPI PUSH2 0x20EF PUSH2 0x209E JUMP JUMPDEST JUMPDEST DUP3 DUP3 DIV SWAP1 POP SWAP3 SWAP2 POP POP JUMP JUMPDEST PUSH32 0x496E73756666696369656E7420737461626C652062616C616E63650000000000 PUSH0 DUP3 ADD MSTORE POP JUMP JUMPDEST PUSH0 PUSH2 0x212F PUSH1 0x1B DUP4 PUSH2 0x1CE2 JUMP JUMPDEST SWAP2 POP PUSH2 0x213A DUP3 PUSH2 0x20FB JUMP JUMPDEST PUSH1 0x20 DUP3 ADD SWAP1 POP SWAP2 SWAP1 POP JUMP JUMPDEST PUSH0 PUSH1 0x20 DUP3 ADD SWAP1 POP DUP2 DUP2 SUB PUSH0 DUP4 ADD MSTORE PUSH2 0x215C DUP2 PUSH2 0x2123 JUMP JUMPDEST SWAP1 POP SWAP2 SWAP1 POP JUMP JUMPDEST PUSH0 PUSH1 0x40 DUP3 ADD SWAP1 POP PUSH2 0x2176 PUSH0 DUP4 ADD DUP6 PUSH2 0x186E JUMP JUMPDEST PUSH2 0x2183 PUSH1 0x20 DUP4 ADD DUP5 PUSH2 0x186E JUMP JUMPDEST SWAP4 SWAP3 POP POP POP JUMP JUMPDEST PUSH0 PUSH2 0x2194 DUP3 PUSH2 0x1865 JUMP JUMPDEST SWAP2 POP PUSH32 0xFFFFFFFFFFFFFFFFFFFFFFFFFFFFFFFFFFFFFFFFFFFFFFFFFFFFFFFFFFFFFFFF DUP3 SUB PUSH2 0x21C6 JUMPI PUSH2 0x21C5 PUSH2 0x2030 JUMP JUMPDEST JUMPDEST PUSH1 0x1 DUP3 ADD SWAP1 POP SWAP2 SWAP1 POP JUMP JUMPDEST PUSH32 0x5265656E7472616E637947756172643A207265656E7472616E742063616C6C00 PUSH0 DUP3 ADD MSTORE POP JUMP JUMPDEST PUSH0 PUSH2 0x2205 PUSH1 0x1F DUP4 PUSH2 0x1CE2 JUMP JUMPDEST SWAP2 POP PUSH2 0x2210 DUP3 PUSH2 0x21D1 JUMP JUMPDEST PUSH1 0x20 DUP3 ADD SWAP1 POP SWAP2 SWAP1 POP JUMP JUMPDEST PUSH0 PUSH1 0x20 DUP3 ADD SWAP1 POP DUP2 DUP2 SUB PUSH0 DUP4 ADD MSTORE PUSH2 0x2232 DUP2 PUSH2 0x21F9 JUMP JUMPDEST SWAP1 POP SWAP2 SWAP1 POP JUMP JUMPDEST PUSH0 PUSH1 0x60 DUP3 ADD SWAP1 POP PUSH2 0x224C PUSH0 DUP4 ADD DUP7 PUSH2 0x1BBD JUMP JUMPDEST PUSH2 0x2259 PUSH1 0x20 DUP4 ADD DUP6 PUSH2 0x1BBD JUMP JUMPDEST PUSH2 0x2266 PUSH1 0x40 DUP4 ADD DUP5 PUSH2 0x186E JUMP JUMPDEST SWAP5 SWAP4 POP POP POP POP JUMP JUMPDEST PUSH0 PUSH1 0x40 DUP3 ADD SWAP1 POP PUSH2 0x2281 PUSH0 DUP4 ADD DUP6 PUSH2 0x1BBD JUMP JUMPDEST PUSH2 0x228E PUSH1 0x20 DUP4 ADD DUP5 PUSH2 0x18F4 JUMP JUMPDEST SWAP4 SWAP3 POP POP POP JUMP INVALID LOG2 PUSH5 0x6970667358 0x22 SLT KECCAK256 PREVRANDAO DUP2 SWAP6 0xAB SWAP4 0xF 0xB6 0xCE INVALID DUP11 JUMPI PUSH32 0x72D4AA2623101F340ADEAEC8FB55A6B8A2BFEE9464736F6C634300081E003300 "
		},
		"gasEstimates": {
			"creation": {
				"codeDepositCost": "1781400",
				"executionCost": "infinite",
				"totalCost": "infinite"
			},
			"external": {
				"ADMIN_ROLE()": "458",
				"DEFAULT_ADMIN_ROLE()": "418",
				"approveRedeem(uint256)": "infinite",
				"cancelRedeem(uint256)": "infinite",
				"feeCollector()": "2597",
				"getRequest(uint256)": "infinite",
				"getRoleAdmin(bytes32)": "infinite",
				"getUserRequests(address)": "infinite",
				"goldPriceInStable()": "2470",
				"goldToken()": "infinite",
				"goldTokenContract()": "infinite",
				"grantRole(bytes32,address)": "infinite",
				"hasRole(bytes32,address)": "3165",
				"minGram()": "2448",
				"nextRequestId()": "2514",
				"redeemFeeBps()": "2471",
				"redeemRequests(uint256)": "infinite",
				"renounceRole(bytes32,address)": "infinite",
				"requestRedeem(uint256)": "infinite",
				"revokeRole(bytes32,address)": "infinite",
				"setFeeCollector(address)": "infinite",
				"setGoldPrice(uint256)": "infinite",
				"stableToken()": "infinite",
				"supportsInterface(bytes4)": "741",
				"userRedeemHistory(address,uint256)": "infinite"
			}
		},
		"methodIdentifiers": {
			"ADMIN_ROLE()": "75b238fc",
			"DEFAULT_ADMIN_ROLE()": "a217fddf",
			"approveRedeem(uint256)": "3eb09ece",
			"cancelRedeem(uint256)": "539ffb77",
			"feeCollector()": "c415b95c",
			"getRequest(uint256)": "c58343ef",
			"getRoleAdmin(bytes32)": "248a9ca3",
			"getUserRequests(address)": "b337cf74",
			"goldPriceInStable()": "43114dde",
			"goldToken()": "94002b57",
			"goldTokenContract()": "d03cea6d",
			"grantRole(bytes32,address)": "2f2ff15d",
			"hasRole(bytes32,address)": "91d14854",
			"minGram()": "82855871",
			"nextRequestId()": "6a84a985",
			"redeemFeeBps()": "09f6442c",
			"redeemRequests(uint256)": "e85ba3e9",
			"renounceRole(bytes32,address)": "36568abe",
			"requestRedeem(uint256)": "aa2f892d",
			"revokeRole(bytes32,address)": "d547741f",
			"setFeeCollector(address)": "a42dce80",
			"setGoldPrice(uint256)": "2d02a5b2",
			"stableToken()": "a9d75b2b",
			"supportsInterface(bytes4)": "01ffc9a7",
			"userRedeemHistory(address,uint256)": "7182e074"
		}
	},
	"abi": [
		{
			"inputs": [
				{
					"internalType": "address",
					"name": "_goldToken",
					"type": "address"
				},
				{
					"internalType": "address",
					"name": "_stableToken",
					"type": "address"
				},
				{
					"internalType": "address",
					"name": "_admin",
					"type": "address"
				},
				{
					"internalType": "address",
					"name": "_feeCollector",
					"type": "address"
				}
			],
			"stateMutability": "nonpayable",
			"type": "constructor"
		},
		{
			"inputs": [],
			"name": "AccessControlBadConfirmation",
			"type": "error"
		},
		{
			"inputs": [
				{
					"internalType": "address",
					"name": "account",
					"type": "address"
				},
				{
					"internalType": "bytes32",
					"name": "neededRole",
					"type": "bytes32"
				}
			],
			"name": "AccessControlUnauthorizedAccount",
			"type": "error"
		},
		{
			"inputs": [
				{
					"internalType": "address",
					"name": "token",
					"type": "address"
				}
			],
			"name": "SafeERC20FailedOperation",
			"type": "error"
		},
		{
			"anonymous": false,
			"inputs": [
				{
					"indexed": false,
					"internalType": "address",
					"name": "newCollector",
					"type": "address"
				}
			],
			"name": "FeeCollectorChanged",
			"type": "event"
		},
		{
			"anonymous": false,
			"inputs": [
				{
					"indexed": false,
					"internalType": "uint256",
					"name": "newPrice",
					"type": "uint256"
				}
			],
			"name": "GoldPriceUpdated",
			"type": "event"
		},
		{
			"anonymous": false,
			"inputs": [
				{
					"indexed": true,
					"internalType": "uint256",
					"name": "requestId",
					"type": "uint256"
				}
			],
			"name": "RedeemApproved",
			"type": "event"
		},
		{
			"anonymous": false,
			"inputs": [
				{
					"indexed": true,
					"internalType": "uint256",
					"name": "requestId",
					"type": "uint256"
				}
			],
			"name": "RedeemCanceled",
			"type": "event"
		},
		{
			"anonymous": false,
			"inputs": [
				{
					"indexed": true,
					"internalType": "uint256",
					"name": "requestId",
					"type": "uint256"
				},
				{
					"indexed": true,
					"internalType": "address",
					"name": "user",
					"type": "address"
				},
				{
					"indexed": false,
					"internalType": "uint256",
					"name": "amount",
					"type": "uint256"
				},
				{
					"indexed": false,
					"internalType": "uint256",
					"name": "fee",
					"type": "uint256"
				}
			],
			"name": "RedeemRequested",
			"type": "event"
		},
		{
			"anonymous": false,
			"inputs": [
				{
					"indexed": true,
					"internalType": "bytes32",
					"name": "role",
					"type": "bytes32"
				},
				{
					"indexed": true,
					"internalType": "bytes32",
					"name": "previousAdminRole",
					"type": "bytes32"
				},
				{
					"indexed": true,
					"internalType": "bytes32",
					"name": "newAdminRole",
					"type": "bytes32"
				}
			],
			"name": "RoleAdminChanged",
			"type": "event"
		},
		{
			"anonymous": false,
			"inputs": [
				{
					"indexed": true,
					"internalType": "bytes32",
					"name": "role",
					"type": "bytes32"
				},
				{
					"indexed": true,
					"internalType": "address",
					"name": "account",
					"type": "address"
				},
				{
					"indexed": true,
					"internalType": "address",
					"name": "sender",
					"type": "address"
				}
			],
			"name": "RoleGranted",
			"type": "event"
		},
		{
			"anonymous": false,
			"inputs": [
				{
					"indexed": true,
					"internalType": "bytes32",
					"name": "role",
					"type": "bytes32"
				},
				{
					"indexed": true,
					"internalType": "address",
					"name": "account",
					"type": "address"
				},
				{
					"indexed": true,
					"internalType": "address",
					"name": "sender",
					"type": "address"
				}
			],
			"name": "RoleRevoked",
			"type": "event"
		},
		{
			"inputs": [],
			"name": "ADMIN_ROLE",
			"outputs": [
				{
					"internalType": "bytes32",
					"name": "",
					"type": "bytes32"
				}
			],
			"stateMutability": "view",
			"type": "function"
		},
		{
			"inputs": [],
			"name": "DEFAULT_ADMIN_ROLE",
			"outputs": [
				{
					"internalType": "bytes32",
					"name": "",
					"type": "bytes32"
				}
			],
			"stateMutability": "view",
			"type": "function"
		},
		{
			"inputs": [
				{
					"internalType": "uint256",
					"name": "requestId",
					"type": "uint256"
				}
			],
			"name": "approveRedeem",
			"outputs": [],
			"stateMutability": "nonpayable",
			"type": "function"
		},
		{
			"inputs": [
				{
					"internalType": "uint256",
					"name": "requestId",
					"type": "uint256"
				}
			],
			"name": "cancelRedeem",
			"outputs": [],
			"stateMutability": "nonpayable",
			"type": "function"
		},
		{
			"inputs": [],
			"name": "feeCollector",
			"outputs": [
				{
					"internalType": "address",
					"name": "",
					"type": "address"
				}
			],
			"stateMutability": "view",
			"type": "function"
		},
		{
			"inputs": [
				{
					"internalType": "uint256",
					"name": "id",
					"type": "uint256"
				}
			],
			"name": "getRequest",
			"outputs": [
				{
					"internalType": "address",
					"name": "user",
					"type": "address"
				},
				{
					"internalType": "uint256",
					"name": "amount",
					"type": "uint256"
				},
				{
					"internalType": "uint256",
					"name": "timestamp",
					"type": "uint256"
				},
				{
					"internalType": "uint256",
					"name": "fee",
					"type": "uint256"
				},
				{
					"internalType": "enum RedeemManager.RedeemStatus",
					"name": "status",
					"type": "uint8"
				}
			],
			"stateMutability": "view",
			"type": "function"
		},
		{
			"inputs": [
				{
					"internalType": "bytes32",
					"name": "role",
					"type": "bytes32"
				}
			],
			"name": "getRoleAdmin",
			"outputs": [
				{
					"internalType": "bytes32",
					"name": "",
					"type": "bytes32"
				}
			],
			"stateMutability": "view",
			"type": "function"
		},
		{
			"inputs": [
				{
					"internalType": "address",
					"name": "user",
					"type": "address"
				}
			],
			"name": "getUserRequests",
			"outputs": [
				{
					"internalType": "uint256[]",
					"name": "",
					"type": "uint256[]"
				}
			],
			"stateMutability": "view",
			"type": "function"
		},
		{
			"inputs": [],
			"name": "goldPriceInStable",
			"outputs": [
				{
					"internalType": "uint256",
					"name": "",
					"type": "uint256"
				}
			],
			"stateMutability": "view",
			"type": "function"
		},
		{
			"inputs": [],
			"name": "goldToken",
			"outputs": [
				{
					"internalType": "contract IERC20",
					"name": "",
					"type": "address"
				}
			],
			"stateMutability": "view",
			"type": "function"
		},
		{
			"inputs": [],
			"name": "goldTokenContract",
			"outputs": [
				{
					"internalType": "contract GoldToken",
					"name": "",
					"type": "address"
				}
			],
			"stateMutability": "view",
			"type": "function"
		},
		{
			"inputs": [
				{
					"internalType": "bytes32",
					"name": "role",
					"type": "bytes32"
				},
				{
					"internalType": "address",
					"name": "account",
					"type": "address"
				}
			],
			"name": "grantRole",
			"outputs": [],
			"stateMutability": "nonpayable",
			"type": "function"
		},
		{
			"inputs": [
				{
					"internalType": "bytes32",
					"name": "role",
					"type": "bytes32"
				},
				{
					"internalType": "address",
					"name": "account",
					"type": "address"
				}
			],
			"name": "hasRole",
			"outputs": [
				{
					"internalType": "bool",
					"name": "",
					"type": "bool"
				}
			],
			"stateMutability": "view",
			"type": "function"
		},
		{
			"inputs": [],
			"name": "minGram",
			"outputs": [
				{
					"internalType": "uint256",
					"name": "",
					"type": "uint256"
				}
			],
			"stateMutability": "view",
			"type": "function"
		},
		{
			"inputs": [],
			"name": "nextRequestId",
			"outputs": [
				{
					"internalType": "uint256",
					"name": "",
					"type": "uint256"
				}
			],
			"stateMutability": "view",
			"type": "function"
		},
		{
			"inputs": [],
			"name": "redeemFeeBps",
			"outputs": [
				{
					"internalType": "uint256",
					"name": "",
					"type": "uint256"
				}
			],
			"stateMutability": "view",
			"type": "function"
		},
		{
			"inputs": [
				{
					"internalType": "uint256",
					"name": "",
					"type": "uint256"
				}
			],
			"name": "redeemRequests",
			"outputs": [
				{
					"internalType": "address",
					"name": "user",
					"type": "address"
				},
				{
					"internalType": "uint256",
					"name": "amount",
					"type": "uint256"
				},
				{
					"internalType": "uint256",
					"name": "timestamp",
					"type": "uint256"
				},
				{
					"internalType": "uint256",
					"name": "fee",
					"type": "uint256"
				},
				{
					"internalType": "enum RedeemManager.RedeemStatus",
					"name": "status",
					"type": "uint8"
				}
			],
			"stateMutability": "view",
			"type": "function"
		},
		{
			"inputs": [
				{
					"internalType": "bytes32",
					"name": "role",
					"type": "bytes32"
				},
				{
					"internalType": "address",
					"name": "callerConfirmation",
					"type": "address"
				}
			],
			"name": "renounceRole",
			"outputs": [],
			"stateMutability": "nonpayable",
			"type": "function"
		},
		{
			"inputs": [
				{
					"internalType": "uint256",
					"name": "amount",
					"type": "uint256"
				}
			],
			"name": "requestRedeem",
			"outputs": [],
			"stateMutability": "nonpayable",
			"type": "function"
		},
		{
			"inputs": [
				{
					"internalType": "bytes32",
					"name": "role",
					"type": "bytes32"
				},
				{
					"internalType": "address",
					"name": "account",
					"type": "address"
				}
			],
			"name": "revokeRole",
			"outputs": [],
			"stateMutability": "nonpayable",
			"type": "function"
		},
		{
			"inputs": [
				{
					"internalType": "address",
					"name": "newCollector",
					"type": "address"
				}
			],
			"name": "setFeeCollector",
			"outputs": [],
			"stateMutability": "nonpayable",
			"type": "function"
		},
		{
			"inputs": [
				{
					"internalType": "uint256",
					"name": "newPrice",
					"type": "uint256"
				}
			],
			"name": "setGoldPrice",
			"outputs": [],
			"stateMutability": "nonpayable",
			"type": "function"
		},
		{
			"inputs": [],
			"name": "stableToken",
			"outputs": [
				{
					"internalType": "contract IERC20",
					"name": "",
					"type": "address"
				}
			],
			"stateMutability": "view",
			"type": "function"
		},
		{
			"inputs": [
				{
					"internalType": "bytes4",
					"name": "interfaceId",
					"type": "bytes4"
				}
			],
			"name": "supportsInterface",
			"outputs": [
				{
					"internalType": "bool",
					"name": "",
					"type": "bool"
				}
			],
			"stateMutability": "view",
			"type": "function"
		},
		{
			"inputs": [
				{
					"internalType": "address",
					"name": "",
					"type": "address"
				},
				{
					"internalType": "uint256",
					"name": "",
					"type": "uint256"
				}
			],
			"name": "userRedeemHistory",
			"outputs": [
				{
					"internalType": "uint256",
					"name": "",
					"type": "uint256"
				}
			],
			"stateMutability": "view",
			"type": "function"
		}
	]
}